:100000000C947B030C9498030C9498030C94980321
:100010000C9498030C9498030C9498030C949803F4
:100020000C9498030C9498030C944D2B0C94092B6E
:100030000C944A2C0C9498030C9498030C949803F9
:100040000C9498030C9498030C9498030C949803C4
:100050000C9498030C94262C0C9498030C949803FD
:100060000C9498030C9498030C9498030C949803A4
:100070000C9498030C9498030C9498030C94980394
:100080000C9498030C9498030C9498030C94980384
:100090000C9498030C9498030C9498030C94980374
:1000A0000C9498030C9498030C949803000000009F
:1000B0000000000000000000000000000000000040
:1000C0000000000000000000000000000000000030
:1000D0007E0F00D4FFFFFFC7000000780000000083
:1000E000000000002A2B2800000000000000000093
:1000F0000000000000000029000000002C1E342039
:10010000212224342627252E362D3738271E1F205E
:100110002122232425263333362E37381F040506A3
:100120000708090A0B0C0D0E0F10111213141516E7
:100130001718191A1B1C1D2F3130232D35040506E5
:100140000708090A0B0C0D0E0F10111213141516C7
:100150001718191A1B1C1D2F3130354C6368726F2C
:100160006D61746F6E656D696E693A6C656420408F
:1001700020302E31372E362D38312D6736666165A9
:1001800066362D6469727479207C20323032322DCB
:1001900030382D30372D31393A30353A323500A8E4
:1001A00047BA5CAE5DAF5DBB5C475C485CB25C4926
:1001B0005C4A5C4B5C4C5C4D5C4E5C4F5CAA0050F6
:1001C0005C515C525C535C545C555C565CA90057B6
:1001D0005C585C595C5A5C5B5C5C5C5D5C00005E1E
:1001E0005C5F5C605C615C625C635C645C000065DD
:1001F0005C665C675C685C695C6A5C6B5C00000107
:10020000000100AE5DAF5D0100D25DD35D0100D4A1
:100210005DD55DD65DD75DD85DD95DDA5D0100DB6A
:100220005DDC5DDD5D535C545C555C565C010057E4
:100230005C585C595C5A5C5B5C5C5C5D5C00005EBD
:100240005C5F5C605C615C625C635C645C0000657C
:100250005C665C675C685C695C6A5C6B5C000001A6
:10026000000100AE5DAF5D0100D25DD35D0100D441
:100270005DD55DD65DD75DD85DD95DDA5D0100DB0A
:100280005DDC5DDD5DDE5DDF5DE05DE15D0100E2C9
:100290005DE35D595C5A5C5B5C5C5C5D5C00005ED0
:1002A0005C5F5C605C615C625C635C645C0000651C
:1002B0005C665C675C685C695C6A5C6B5C00000146
:1002C000000100AE5DAF5D0100D25DD35D0100D4E1
:1002D0005DD55DD65DD75DD85DD95DDA5D0100DBAA
:1002E0005DDC5DDD5DDE5DDF5DE05DE15D0100E269
:1002F0005DE35DE45DE55DE65DE75DE85D0000E929
:100300005D5F5C605C615C625C635C645C000065BA
:100310005C665C675C685C695C6A5C6B5C000001E5
:10032000000100905C915C010001000100010001EE
:1003300000010001000100010001000100010001B5
:1003400000010001000100010001000100010001A5
:100350000001000100010001000100010000000196
:100360000001000100010001000100010000000186
:10037000000100010001000100010001000000A8CF
:1003800047BA5CAE5DAF5DBB5C6B5C6A5CB25C69DE
:100390005C685C675C665C655C645C635CAA00626C
:1003A0005C615C605C5F5C5E5C5D5C5C5CA9005B8E
:1003B0005C5A5C595C585C575C565C555C00005458
:1003C0005C535C525C515C505C4F5C4E5C00004D79
:1003D0005C4C5C4B5C4A5C495C485C475C000001DF
:1003E000000100915C905C0100010001000100012E
:1003F00000010001000100010001000100010001F5
:1004000000010001000100010001000100010001E4
:1004100000010001000100010001000100000001D5
:1004200000010001000100010001000100000001C5
:1004300000010001000100010001000100000001B5
:10044000009D5C815C825C9E5CB55DB15D000000DE
:1004500000B25D0000B35D000000000000C55C005C
:10046000000000C95CB65DC85C0000C75CC45C00ED
:1004700000C65CB75DCD5C0000CC5C00000000CB2A
:100480005CB85DCA5C0000C55C0000C45C00000094
:1004900000DF5CB45DB05D0000C35CB95D000000CE
:1004A0000101010101010101010202020202020235
:1004B0000202030303030303030304040404040408
:1004C00004050505050506060606060707070707CE
:1004D00008080808090909090A0A0A0B0B0B0C0C81
:1004E0000C0D0D0D0E0E0E0F0F0F1010111111121D
:1004F0001213131414151516161717181819191A9C
:100500001A1B1B1C1D1D1E1E1F20202122222324FE
:1005100024252626272829292A2B2C2D2D2E2F303D
:10052000313232333435363738393A3B3C3D3E3F51
:10053000404142434445464748494A4C4D4E4F503E
:10054000515354555658595A5B5D5E5F61626465FC
:100550006668696B6C6D6F7072737577787A7B7D86
:100560007E8082838587888A8C8E8F9193959698DA
:100570009A9C9EA0A2A3A5A7A9ABADAFB1B3B5B7F6
:10058000BABCBEC0C2C4C6C9CBCDCFD1D4D6D8DBCD
:10059000DDDFE2E4E7E9EBEEF0F3F5F8FAFDFF0565
:1005A000010980A101850319012AB700150126B7A9
:1005B00000950175108100C0050C0901A101850499
:1005C00019012AA002150126A002950175108100CB
:1005D000C005010906A101050719E029E715002555
:1005E00001950875018102950175088101050719BA
:1005F0000029FF150026FF009506750881000508F3
:10060000190129059505750191029501750391015F
:10061000C009029F00040100A0FA090400000103C0
:100620000101000921110100012240000705810399
:100630000800010904010001030000000921110163
:10064000000122320007058203200001080B02028C
:100650000101000009040200000101000009240159
:10066000000109000103090403000201030000075F
:1006700024010001410006240201010006240202B7
:1006800002000924030103010201000924030204FA
:1006900001010100090504024000050000052501D3
:1006A0000101090583024000050000052501010341
:1006B0001201000200000008EDFEB4F40100010286
:1006C00000011E036300680072006F006D0061008E
:1006D00074006F006E0065006D0069006E006900B7
:1006E00000000E03330061007200610068007400B6
:1006F00000000403090411241FBECFEFDAE0DEBFBF
:10070000CDBF28E0AEE1B4E001C01D92A333B20733
:10071000E1F714E0A0E0B1E0EAEAF5E602C00590F6
:100720000D92AE31B107D9F70E94712C0C9493321F
:100730000C94000090912D08937061F081110BC012
:10074000946090932D081092250180912C0881606F
:1007500080932C0808958A3210F0946AF2CF880FA3
:10076000880F982BEECF90912D08937071F08093A5
:100770002E0860932F08433308F042E3409330087B
:1007800080912C08816080932C0808950F931F930B
:100790009B01305E8901000F012F001F110B119585
:1007A0002F77482F406EE0913C07F0913D0763E0C2
:1007B00070E08CE397E009951F910F9108950F93D6
:1007C000262F042F0F77482F406BE0913C07F091C4
:1007D0003D0763E070E08CE397E009950F91089581
:1007E000A3E0B0E0E6EFF3E00C943F317C01162F7C
:1007F000D42EC22E80916107843071F5E0915607A6
:10080000F09157073097C1F1C701019763E070E09D
:100810000E940731CB01880F991F860F971F1983FC
:100820004A83CB824E2D481B9E012F5F3F4FBC0158
:100830008CE397E00995E0915A07F0915B073097B8
:1008400039F00C2D2D2D412FB7018CE397E0099540
:100850002396E8E00C945B3182E0E816F10409F499
:100860005AC083E0E816F104A9F081E0E816F1042B
:1008700009F484C0F12CE12CE0915807F09159075C
:100880003097C9F20C2D2D2D412FB7018CE397E045
:100890000995D1CF862F807F803A11F188F4803876
:1008A000D1F0E0914007F0914107803929F7309766
:1008B00019F3123F49F12C2D4D2D612F6F7027C078
:1008C000803E99F0803FB1F0E0913E07F0913F0704
:1008D000803B91F6ECCFE0914207F0914307E7CFE0
:1008E000E0914407F0914507E2CFE0914607F0918F
:1008F0004707DDCF623F09F0BFCFE0914807F09195
:100900004907309709F4B8CF2C2D4D2D62EF8CE3B9
:1009100097E0099590CF862F807F803DB9F0803F8A
:10092000D1F0E0914A07F0914B07803C09F0A4CF49
:10093000309709F4A1CF812F8D7F4D2D612F6F70DE
:10094000813FC9F08CE397E0099575CFE0914C07A2
:10095000F0914D07EDCFE0914E07F0914F07633FC7
:1009600039F0613F09F088CFE0915007F0915107CD
:10097000309709F481CF4D2D612FE4CFE0915207DC
:10098000F0915307683F38F4663F09F075CFE09166
:100990005407F0915507309709F46ECF612F8CE31F
:1009A00097E0099548CFE8EDF0E080818E7F808365
:1009B0001092E2001092DA001092E100A0EEB0E096
:1009C0008C9181608C9380818F77808319BCA7ED97
:1009D000B0E08C918E7F8C9380818F7E808310928B
:1009E000EE0608952091E4003091E50095E6A90116
:1009F0002091EC00822F817020FF06C08091E800DA
:100A000080FF06C080E008952091E80022FD1AC012
:100A10008091FB06882389F0853089F08091EB0076
:100A200085FD0FC02091E4003091E5004217530787
:100A3000F9F29150E1F684E0089582E0089583E0B0
:100A4000089581E00895EF92FF920F931F93CF9343
:100A50007C018B010E94F204C82F811117C0809184
:100A6000E80085FD0BC08091E8008E778093E80058
:100A70000E94F204882399F3C82F08C0F7018191DE
:100A80007F018093F1000150110949F78C2FCF911C
:100A90001F910F91FF90EF9008958091FD0687FFC1
:100AA00013C08091E80082FF06C08091E8008B7738
:100AB0008093E80004C08091FB068111F2CF089575
:100AC0008091FB068823D9F38091E80080FFF8CF5E
:100AD0008091E8008E77ECCF982F9093E900242F37
:100AE000762F50E0891731F07091EC002091ED00E5
:100AF0005091F00021FD07C09F5F973071F7809300
:100B0000E90081E008953091EB003E7F3093EB00E7
:100B10003091ED003D7F3093ED003091EB0031607E
:100B20003093EB007093EC002093ED005093F000B5
:100B30002091EE0027FDE0CF80E00895B0E0A0E036
:100B4000E4EAF5E00C943F31C8EDD0E088818F7E77
:100B50008883E7EDF0E080818160808384E082BF5C
:100B600081E08093EE0688818E7F888302EE10E01C
:100B7000F80110821092DA0081EEC82ED12CF60115
:100B8000108288818F7788838881806888838881B4
:100B90008F7D888319BC1092FB061092FC06109280
:100BA000FA061092F90690EEE92EF12CF7018081F9
:100BB0008B7F808388818160888342E060E080E071
:100BC0000E946C05F60180818E7F8083F801808110
:100BD00081608083808188608083F70180818E7F3F
:100BE0008083888180618883CDB7DEB7E8E00C948C
:100BF0005B31FC01809103079091040786179707EA
:100C0000A0F06115710529F49091E8009E7790930A
:100C1000E80090E06115710551F4911108C08091D0
:100C2000E80082FF34C080E00895BC01F2CF8091DB
:100C3000FB068823C1F18530C1F18091E80083FD76
:100C400030C08091E80082FDEACF8091E80080FF0B
:100C5000E1CF8091F3002091F200382F61157105EA
:100C600019F02830310558F091E02830310509F0AD
:100C700090E02091E8002E772093E800CBCF81917F
:100C80008093F100615071092F5F3F4FE7CF809152
:100C9000FB06882341F0853041F08091E80083FF16
:100CA000BECF81E0089582E0089583E0089508951D
:100CB00008958091F006089508950895982F907FE3
:100CC000903BE9F040F49039D1F0903AC1F090387F
:100CD000B1F080E00895903D19F020F4903CC9F700
:100CE00082E00895903E59F0903F99F7815F8F30F0
:100CF00080F7E82FF0E0ED57FD4F8081089583E005
:100D00000895A7E0B0E0E7E8F6E00C943F318C01ED
:100D100008511F4F8091FB06843009F087C08091F5
:100D20001B018F708093E9008091E80082FF7EC0F4
:100D30008091E80085FF7AC00E94F204811113C0FF
:100D400084E0E82EF12CCE0101966C018091E80040
:100D500085FD61C08091E8008B778093E8000E9458
:100D6000F204882399F38091E80085FD05C0809105
:100D7000E8008B778093E800FA808F2D0E945E0652
:100D8000282FFD828B818E838C818F8321110BC054
:100D90008981843041F1873031F1863031F121E0B1
:100DA000853009F0B7CF30E0E5E0F0E0EC0FFD1F53
:100DB000E30FF11DF0804FB7F894D8011196EC9134
:100DC0001197F0E0CF01019612966C9170E00E94AD
:100DD0001B31D8015C915817190649F44FBF3F5F8A
:100DE000321710F397CF23E0DECF22E0DCCF13964B
:100DF0008D919C911497E80FF91FF08211968C91B8
:100E0000119790E0019612966C9170E00E941B3150
:100E1000F8018183E3CF8091F100D6018D936D01BC
:100E2000B1E0EB1AF10809F091CF9DCF2796E8E0E9
:100E30000C945B31A4E0B0E0E0E2F7E00C944031C8
:100E40007B01142FD22E4A832B830C83842F0E9484
:100E50005E0681113AC082E0E816F10489F183E070
:100E6000E816F10441F081E0E816F10429F5173F96
:100E700029F485E004C087E0073F09F084E0898316
:100E80008091FB068430C1F4809116018F708093AD
:100E9000E90050E040E064E070E0CE0101960E947D
:100EA0002305811109C08091E80085FD05C080916E
:100EB000E8008E778093E8002496E7E00C945C319C
:100EC00087EFD812DBCF86E0DACF12951F70198337
:100ED000D7CF9C014FB7F8948091E7069091E80630
:100EE000A091E906B091EA064FBF821B930B0895CB
:100EF0002FB7F8948091E7069091E806A091E90653
:100F0000B091EA062FBF08959C01FC0132969FEF35
:100F100080E04191461751F09F3F19F4411101C003
:100F2000982F8F5F8630A9F79F3F09F40895290F06
:100F3000311D97FD3A95F901628308952091E406E9
:100F40003091E5062817390771F09093E5068093F4
:100F5000E406E091E206F091E306309721F0008488
:100F6000F185E02D099508952091E0063091E10684
:100F70002817390771F09093E1068093E006E0911D
:100F8000E206F091E306309721F00680F781E02D2C
:100F900009950895E091E206F091E306309729F073
:100FA0000190F081E02D0995089580E00895FA01FF
:100FB000811101C0FB0109950895E4E8F5E0818302
:100FC00060834283339696E0E03EF907C1F70895C7
:100FD000FC01EE0FFF1FE80FF91FEC57FA4F61837A
:100FE000408322830895EDE2F8E0248130E1231B61
:100FF00008F420E0248380912C08816080932C08E1
:101000000895EDE2F8E0248130E1230F08F42FEF9A
:10101000248380912C08816080932C080895EDE250
:10102000F8E0438120E1421B08F440E081816281C5
:1010300090E00E94B3030895EDE2F8E0438120E1DF
:10104000420F08F44FEF8181628190E00E94B30368
:101050000895EDE2F8E0628120E1621B08F460E0AF
:101060008181438190E00E94B3030895EDE2F8E0AE
:10107000628120E1620F08F46FEF8181438190E08B
:101080000E94B3030895EDE2F8E08181438162811B
:101090008850990B0E94B3030895EDE2F8E0818136
:1010A00090E04381628108960E94B3030895809185
:1010B0002D0886958695815009F489E20E949A034D
:1010C000089580912D08869586958F5F8A3208F065
:1010D00081E00E949A030895EF92FF920F931F936D
:1010E0000E0D1F2D111D9A0157FF03C0319521953B
:1010F000310994E0220F331F9A95E1F72F3F310514
:1011000019F014F02FEF30E0200F311F2F3F310581
:1011100019F010F02FEF30E02095382F320F08F43F
:101120003FEF832F1F910F91FF90EF900895EF9263
:10113000FF920F939701201B31092F3F310519F0C2
:1011400010F02FEF30E02095382F320F08F43FEFEA
:10115000832F0F91FF90EF900895EF92FF920F93DE
:101160009701201B31092F3F310519F010F02FEFA7
:1011700030E0322F3095482F430F08F44FEF842F83
:10118000620F0F91FF90EF900895EF92FF920F93EF
:10119000972F093438F4B701601B71096F3F71054F
:1011A00019F010F06FEF70E0485F5F4F413151056B
:1011B00040F0A901485F5F4F4131510510F06FEFDA
:1011C00070E06095482F460F08F44FEF842F37FFEB
:1011D00002C02D5F3F4F3595279535952795609136
:1011E0002E08620F792F0F91FF90EF900895EF92E4
:1011F000FF920F931F930E0D1F2D111DF90137FF45
:1012000003C0F195E195F10924E0EE0FFF1F2A9547
:10121000E1F7EF3FF10519F014F0EFEFF0E09A017C
:1012200057FF03C031952195310994E0220F331FF8
:101230009A95E1F72E173F070CF4F901E00FF11F23
:10124000EF3FF10519F010F0EFEFF0E0E095282FF7
:101250003E2F230F08F42FEF822F1F910F91FF9045
:10126000EF900895EF92FF920F93970195E0099FF9
:10127000200D311D11242F3F310519F010F02FEFF3
:1012800030E02095382F320F08F43FEF832F0F9175
:10129000FF90EF90089522E8241B08F420E0620FED
:1012A00008954095282F429F412D1124842F0895A1
:1012B000E42FF0E0EE0FFF1FEE53FD4F9081921BE5
:1012C00097FD9195292F38E1239F212D1124620F3D
:1012D00008950F931F9310E0F801EE0FFF1FEE53D8
:1012E000FD4F90819C5797FD9195000F111FF801BC
:1012F000EE56FD4F01A90052110B2003F001219F72
:10130000F00D112408E310E0091B110997FD139556
:1013100040039001419F300D1124E20FF31F9F0104
:10132000220F331F2E0F3F1F37FF02C021583F4FA0
:10133000220F232F221F330B620F1F910F9108954D
:101340000F931F93522F10E0F801EE0FFF1FEE5680
:10135000FD4FA1A9A052BB0B9D015203F001539F69
:10136000F00D1124000F111FD801AE53BD4F0C9189
:101370000C57110B40039001419F300D11242E0F8B
:101380003F1F37FF02C0215C3F4F96E03595279500
:101390009A95E1F7620F1F910F9108950F931F9394
:1013A000522F10E0F801EE0FFF1FEE56FD4FA1A9DE
:1013B000A052BB0B9D015203F001539FF00D11246D
:1013C000000F111FD801AE53BD4F0C910C57110BDC
:1013D00040039001419F300D11242E0F3F1F37FF16
:1013E00002C021583F4F220F232F221F330B620FC1
:1013F0001F910F910895EF920F93972F23E0029F73
:10140000B0011124759567956E0D792F0F91EF90AE
:101410000895322F50E0FA01EE0FFF1FEE56FD4FF8
:1014200091A9905297FD9195440F551FFA01EE53E3
:10143000FD4F2081231B330B290F311D97FD3A955A
:10144000620F0895E42FF0E0EE0FFF1FEE56FD4F00
:1014500061A9621B0895E42FF0E0EE0FFF1FEE5329
:10146000FD4F6081621B0895622F0895E42FF0E024
:10147000EE0FFF1FEE53FD4F408134EE439F412D91
:101480001124E82FF0E050E0445E5F4FDA01A21B28
:10149000B1099D01B7FF03C031952195310993E052
:1014A000220F331F9A95E1F7AF01421B530B9A01AC
:1014B00057FD20E0582F259F212D1124822F0895BC
:1014C000E42FF0E0EE0FFF1FEE53FD4F408134EEAE
:1014D000439F412D1124E72FF0E050E0445E5F4F21
:1014E000DA01A21BB1099D01B7FF03C03195219517
:1014F000310993E0220F331F9A95E1F7AF01421BA8
:10150000530B9A0157FD20E0279F212D1124722FA4
:1015100008950E94DD0708950E94E8070895FC01E0
:101520009B01009729F480E077FF2BC080E80895A5
:10153000AC0197FF04C044275527481B590BB9013C
:10154000640F751F37FD10C0241B350BC901A5E0C2
:10155000880F991FAA95E1F70E941B3180E2861B34
:10156000F7FF0FC081950895CB0165E0880F991FA3
:101570006A95E1F7BA01621B730B0E941B3180E68A
:10158000EECF0895EF920F93CF93DF93D72FC82F0D
:10159000C9010E19BA010E948F0A602F681B7D2FA6
:1015A0008C2FDF91CF910F91EF9008950F93CF93F0
:1015B000DF93D72FC82FC901BA010E948F0A682F65
:1015C000600F7D2F8C2FDF91CF910F910895EF92B7
:1015D0000F931F93CF93DF93D62FC72F182FC901D7
:1015E0000E19010FBA010E948F0A081B202F219F9C
:1015F000212D1124822F6D2F7C2FDF91CF911F91F0
:101600000F91EF900895EF920F931F93CF93DF9375
:10161000D62F172FC82FC9010E19070FBA010E9424
:101620008F0A702F781B719F712D11246D2F8C2FB5
:10163000DF91CF911F910F91EF9008950F931F931A
:10164000CF93DF93D62FC72F182FC901212F201B2F
:10165000022FBA010E948F0A982F990F990F891BA8
:10166000800F282F219F212D1124822F6D2F7C2F59
:10167000DF91CF911F910F9108950F931F93CF93F7
:10168000DF93D62F172FC82FC901272F201B022F1A
:10169000BA010E948F0A982F990F990F782F791B02
:1016A000700F719F712D11246D2F8C2FDF91CF91B1
:1016B0001F910F910895E82F86FDE0952E2F2F7032
:1016C00086FD2F5FE695E695E695E670F0E0E45F2F
:1016D000FD4F9181929F902D212D112492959F7005
:1016E0002295207F922B2081920F87FD919580E893
:1016F000890F08950F931F93CF93DF938B01D82FFA
:10170000C42F822F0E945B0BEC2FF0E0EE0FFF1F27
:10171000EE53FD4F90819058890F87FD8195880F7A
:10172000682F2CE0629F612D1124600F712F8D2F87
:10173000DF91CF911F910F910895AC0182309105F7
:1017400008F408959FEF413E8EE1580740F49A0156
:1017500095E0369527959A95E1F798E0920F61E02C
:10176000E62FE90FFF27FF1F9F0135952795822F51
:10177000229FF001239FF00DF00D11244E175F07FB
:1017800038F49FEF920F961758F78FEF860F089552
:101790002F3FE9F361E0620FF6CF0F93CF93DF9312
:1017A000D72FC82F47FD41958EE390E0841B910908
:1017B00047FD9395889FB001899F700D700D11248E
:1017C000229FC001239F900D900D1124860F971F1B
:1017D0000E949D0B982F990F890F682F600F7D2F06
:1017E0008C2FDF91CF910F91089530E020E0869FFC
:1017F000212D969F200D311D1124C9010895AF920E
:10180000BF92CF92DF92FF920F931F93CF93DF93FC
:10181000362F472FE82FF0E0E156FB4F71110FC034
:10182000E4918E2F2E2F6E2F722FDF91CF911F916B
:101830000F91FF90DF90CF90BF90AF900895C72F8A
:10184000D0E02491F22E022F10E056E0659FC001F7
:101850001124EFEFF0E0BF010E940731832F90E0E9
:10186000880F991F35E5369FD001379FB00D1124A1
:101870008A1B9B0B982F990F980F6F01CC1ADD0ACA
:10188000C09ED001C19EB00DD09EB00D11248B2FF3
:10189000499FA0011124452F55276F01C41AD50A6D
:1018A000C09EA001C19E500DD09E500D11245F011D
:1018B000A91AB108AC9E6001AD9ED00CBC9ED00CA4
:1018C0001124CD2CDD24EC19FD09E09FE001E19FFE
:1018D000D00DF09FD00D1124ED2F62307105A1F0D5
:1018E00050F46115710509F49ECF6130710581F0E6
:1018F000EB2F852F98CF6430710569F080F066304A
:10190000710509F490CFF4CFE22F2B2F8D2F8BCFC1
:10191000E22F252F88CFEB2F822F2D2F84CF2B2F37
:101920008F2DE52F80CF2F923F925F926F927F9203
:101930008F929F92AF92BF92CF92DF92EF92FF92DF
:101940000F931F93CF93DF93CDB7DEB72A970FB6D0
:10195000F894DEBF0FBECDBF8B837E836D83209155
:10196000220188E1289F802D11248F83885E89833E
:101970008A83853710F034E73A83809109078C8396
:10198000FF81EF2FF0E0FA87E987CF01880F991FD9
:101990009C012E563D4F69013B81832F90E0FC0155
:1019A0003196F887EF838A8199859817E8F081E06E
:1019B000E981E43708F080E02A960FB6F894DEBF9C
:1019C0000FBECDBFDF91CF911F910F91FF90EF9090
:1019D000DF90CF90BF90AF909F908F907F906F904F
:1019E0005F903F902F900895E985FA85E655FC4F6A
:1019F0008081909123018923F1F020902E0830906E
:101A00002F082F813885275F384F39015B8010E020
:101A1000FC815F16D0F020913008129F112D112407
:101A2000B101812F0E94FF0B462F282F672F898538
:101A30009A850E948C0A29853A852F5F3F4F3A8705
:101A4000298732E0C30ED11CAECFF30181913F0153
:101A5000F601A0A8A81ABB0881A8F3018185881AFD
:101A60009908AA9C9001AB9C300D300D1124889CE4
:101A7000C001899C900D900D1124820F931F0E942C
:101A80009D0B082F6091310821E0620F08F46FEF81
:101A9000F301EE0FFF1FE950F740838D948D0E94F4
:101AA000F50B7C019401A501B101812FED81FE812F
:101AB00009951B015394182FABCFB0E0A0E0E3E6EB
:101AC000FDE00C943F318C01C091220188E1C89F58
:101AD000C02D112428E1D22EDC0ECD2C24E72D15AB
:101AE00010F494E7C92E2091310831E0230F08F457
:101AF0002FEF30E050E040E06FEF7FEF80E090E0CC
:101B00000E9430327901D0E02C2FCC1550F081E0CA
:101B1000F3E7FD1508F480E0CDB7DEB7E8E00C94FC
:101B20005B31FE01E655FC4F8081909123018923B2
:101B300011F1409109074150042E000C550B47FF4D
:101B40001CC0C7016091310821E0620F08F46FEFFB
:101B50000E94F50BAC0160912E0870912F088091C6
:101B60003008F80109950E94FF0B462F282F672F98
:101B7000CE010E948C0A2196C7CFFA01E75FF84F89
:101B8000858982130AC0FA01EE0FFF1FE75FF84F45
:101B9000878D90A18E159F05A8F241505109CFCF96
:101BA000B0E0A0E0E6EDFDE00C9440317C01C09196
:101BB000220188E1C89FC02D112418E11C0F012FBC
:101BC000153708F004E7609131086695669521E0C5
:101BD000620F08F46FEF80910507909106070E944D
:101BE000F50BD82ED0E0C01748F081E0143708F08C
:101BF00080E0CDB7DEB7E7E00C945C31FE01E6553E
:101C0000FC4F808190912301892391F060912E08EF
:101C100070912F08809130082D2D4C2FF7010995D8
:101C20000E94FF0B462F282F672FCE010E948C0A9F
:101C30002196D9CFB0E0A0E0E0E2FEE00C943C3188
:101C40006C01C091220188E1C89FC02D112418E1C8
:101C50001C0FB12E153710F034E7B32E6091310808
:101C60006695669580910507909106070E94F50B91
:101C7000F82E80E48F0D0E945B0B90E8A92EA80E31
:101C80008F2D0E945B0B20E8922E980ED0E0CB1592
:101C900048F081E0143708F080E0CDB7DEB7EBE024
:101CA0000C945831FE01E655FC4F80819091230140
:101CB0008923A1F060912E0870912F08809130083F
:101CC000EF2C0C2F292D4A2DF60109950E94FF0BB0
:101CD000462F282F672FCE010E948C0A2196D7CF3E
:101CE000B0E0A0E0E6E7FEE00C9438313C01C091A2
:101CF000220188E1C89FC02D112418E11C0FF12E8C
:101D0000153710F034E7F32E609131086695809115
:101D10000507909106070E94F50B582ED0E0CE01E2
:101D2000880F991F9C012E563D4F6901CF1548F031
:101D300081E0143708F080E0CDB7DEB7EFE00C9417
:101D40005431FE01E655FC4F808190912301892397
:101D500079F1F60180A9282F2C57330B590181A95D
:101D6000E82FE052FF0B4F01AA9C9001AB9C300D75
:101D7000300D1124EE9FC001EF9F900D900D1124A6
:101D8000820F931F0E949D0B082F60912E08709167
:101D90002F0880913008E52C9401A501F3010995E5
:101DA0000E94FF0B462F282F672FCE010E948C0A1E
:101DB000F2E0CF0ED11C2196B9CFB0E0A0E0E3EE67
:101DC000FEE00C943D316C01C091220188E1C89F76
:101DD000C02D112418E11C0FB12E153710F034E777
:101DE000B32E6091310866958091050790910607A2
:101DF0000E94F50BA82ED0E0CE01880F991F9C0100
:101E00002E563D4F7901CB1548F081E0143708F08C
:101E100080E0CDB7DEB7EAE00C945931FE01E6551B
:101E2000FC4F8081909123018923C1F0F70121A902
:101E30002052330B40A94C57550B60912E087091DE
:101E40002F08809130080A2DF60109950E94FF0B9A
:101E5000462F282F672FCE010E948C0AF2E0EF0E4A
:101E6000F11C2196D0CF84E0809344058FE78093C6
:101E70004505809146058078806480934605ECEFA7
:101E8000F4E08FEF819395E0E434F907D9F71092ED
:101E9000FB041092FA041092F9041092F8040895C9
:101EA00080E00895F894E82FE295EF70F0E031A11A
:101EB000282F2F7081E090E001C0880F2A95EAF763
:101EC000982F9095932391A392A1892B82A3789424
:101ED000089590919A0492FF06C0282F2871283007
:101EE000F9F4877F846093FF06C0282F287128317A
:101EF000F1F4877E846120919B0420FF06C0382F77
:101F000038713830D9F4877F816021FF06C0282FCF
:101F100028712831D1F4877E816194FD877E0895F0
:101F2000282F24712430F9F68B7F8860DCCF282F8E
:101F30002471243101F78B7E8861DDCF382F317118
:101F4000313019F78E7F8860E0CF282F2171213141
:101F500021F78E7E8861E1CF7630B8F46830A8F43E
:101F6000E72FF0E096E0899FE00DF11D112483E05A
:101F7000EE0FFF1F8A95E1F7E60FF11DEE0FFF1F31
:101F8000E156FE4F85919491089580E090E0089588
:101F9000CF93DF93EC018238910581F1B0F5813365
:101FA000910509F491C020F58932910509F485C0A5
:101FB0008A9709F490C0C11521E5D20708F0AAC09C
:101FC000C11530E5D30708F0F2C0CF3BD10508F0CA
:101FD00089C0C83AD10508F0DFC0C53AD10508F07C
:101FE000D3C0C430D105F8F4C130D105E1F040C010
:101FF0008533910509F45AC0C997E9F680919A048E
:10200000837089F0C0EED0E00EC0833E910599F157
:1020100070F4803E910501F1823E910561F6809158
:102020009A0482FD21C0CE01DF91CF910895863EB2
:10203000910561F1873E910571F1843E910509F0AA
:10204000BACF80919B0481FFEECF80919A04C7EEB6
:10205000D0E084FD0DC0E7CF80919A0480FDF7C0E9
:1020600090919B0490FFDFCFC3EED0E084FFDBCFE5
:10207000D0E0C0E0D8CF80919A0482FDEBC090916F
:102080009B0490FDBFCF84FFCECFF2CF80919A0406
:1020900083FDDDCFC8CF80919A0483FDDEC090918F
:1020A0009B0491FFF0CFC4EED0E0BDCF80919A04A5
:1020B00085FFB9CFC9E2D0E0B6CF80919A0485FF01
:1020C000B2CFC5E3D0E0AFCF80919A0486FFABCF0B
:1020D000CAE2D0E0A8CF80919A0486FFA4CFC1E3E2
:1020E000D0E0A1CFC11540E2D40760F4C11581E072
:1020F000D80708F098CFCE01805E9109089708F4C0
:1021000092CFB6CFC11590E4D90708F4B1CFDF70F4
:10211000D06A89CFC11524E5D20778F4C11533E51B
:10212000D30708F072C0C11542E5D40708F05CC0BF
:10213000DC2FCC27C16FD06A76CFC1158AE5D807CE
:1021400078F4C11599E5D90708F073C0C11528E5E1
:10215000D20708F48DCFDC2FCC27C06FD06A63CFB5
:10216000CE0190568115904208F082CF8D2F8F714D
:102170000E94690F90E0982F882788279F719C0103
:102180002C2BE901D0624FCFC55AD0E0C754DE4FA7
:10219000C881D0E0D06447CFC85AD0E0CC0FDD1F53
:1021A000C454DE4F0990D881C02DD4643CCFCE01F9
:1021B00064E0969587956A95E1F783702C2F2695B4
:1021C0002695237040E2249F90011124382B8C2FF8
:1021D0008370C1E0D0E002C0CC0FDD1F8A95E2F72A
:1021E000C22BD32BDC681FCFCE018370992721E04F
:1021F00030E002C0220F331F8A95E2F7C695C695DC
:1022000080E2C89FE0011124EBCFCE0183709927B3
:1022100021E030E002C0220F331F8A95E2F7C69515
:10222000C69590E2C99FE0011124C22BD32BDA6836
:10223000FACE8C2F8F700E94690F34E0D695C79527
:102240003A95E1F7CF709C2FEC01D069ECCEC9E351
:10225000D0E0E9CEC2EED0E0E6CEC6EED0E0E3CEEE
:102260008091820490915104981301C008958F5F6A
:102270008770FACFB0E0A0E0E0E4F1E10C943E31E9
:102280008C01C0907F05D0908005E0908105F09092
:10229000820580918D0490918E04A0918F04B0915D
:1022A0009004C82AD92AEA2AFB2ACFE1D0E0BC2E22
:1022B000D701C6010C2E04C0B695A79597958795B2
:1022C0000A94D2F780FD09C0219788F7B12C8B2D95
:1022D000CDB7DEB7E9E00C945A31B8018C2F0E94DB
:1022E000AC0F0E94C80F019779F3F1CFCF93DF9322
:1022F000EC010E943A11BE010E94AC0F0E94C80F6F
:10230000DF91CF910895963088F5883078F548E0D0
:10231000949F90011124820F932F911D682F677055
:1023200023E0969587952A95E1F725E0289FF0010F
:10233000299FF00D1124E35DFB4F50E040E080E069
:10234000219130E0062E02C0369527950A94E2F7D7
:1023500021703327042E01C0220F0A94EAF7822B42
:102360004F5F5F4F4530510559F7089580E008955C
:102370009630A8F5883098F548E0949F9001112494
:10238000820F932F911D282F277041E001C0440F29
:102390002A95EAF723E0969587952A95E1F725E0B7
:1023A000289FF001299FF00D1124E35DFB4F30E0E1
:1023B00020E070E05191DF011197CB01022E02C0A5
:1023C000969587950A94E2F78170819585278423F5
:1023D00085278C932F5F3F4F2530310559F708959E
:1023E000FC01808191810E94761192959F709630B8
:1023F00091F058F4925F9F70923058F4803F19F03A
:1024000030F4883E30F481E008959A5FF4CF843F41
:10241000D1F380E00895883EB0F3813FD1F7F3CF48
:10242000B0E0A0E0E6E1F2E10C944031082FF62E96
:10243000E42E809106018823E9F08091290419E0B7
:10244000811101C01CE0D0E0C0E08CE0D82E80916A
:102450002904FE01D89EE00DF11D1124E75DFE4F19
:1024600080812E2D4F2D602F90E00E948C0A2196A6
:10247000C11768F3CDB7DEB7E7E00C945C31E4E454
:10248000F5E080818F7080831092290481E0809331
:10249000050108958093EB067093ED066093EC06BA
:1024A0008091FB06843001F582E08093E9008FEF94
:1024B0009091E800815095FD06C095ED9A95F1F751
:1024C00000008111F5CF8091E80085FF0DC050E03C
:1024D00040E063E070E08BEE96E00E94230580917F
:1024E000E8008E778093E8000895BC0184E00E94A4
:1024F0004A120895BC0183E00E944A120895CF93C6
:10250000DF93EC0181E08093E9008FEF9091E80088
:10251000815095FD06C095ED9A95F1F70000811167
:10252000F5CF8091E80085FF14C050E040E068E0FE
:1025300070E0CE010E9423058091E8008E778093A1
:10254000E80088E0FE01A1EFB6E001900D928A95C7
:10255000E1F7DF91CF910895539A3BB1377F2BB1CB
:1025600028604FB7F89484E895E0FC015191CF01C1
:1025700068E02BB9000000C057FF3BB9550F0000C1
:1025800000C000C000C03BB900C06A9591F7F6E0FA
:10259000803E9F0751F74FBF8FE594E00197F1F719
:1025A00000C0000008951F93CF93DF93EC01FC015E
:1025B000E655FC4F80816823B1F00E94B831182F96
:1025C0000E94B8318F77782F20E8720F08F47FEFE0
:1025D000612F809130080E94FF0B462F282F672F14
:1025E000CE010E948C0ADF91CF911F910895B0E037
:1025F000A0E0EDEFF2E10C9440318C01FC01E655D6
:10260000FC4F8081682349F1D0902F08D091300889
:10261000C0912E08EC2EF12C0E94B831282FC70152
:102620008C549F4F68E671E00E941B318E199F0900
:1026300097FD0396959587959595879523706C2FB3
:10264000289F600D11247D2D8D2F0E94FF0B462F9A
:10265000282F672FC8010E948C0ACDB7DEB7E7E0AC
:102660000C945C31B0E0A0E0E8E3F3E10C943A3183
:10267000182F80911401811323C090912D0893701D
:102680002091130130E081E09217130609F480E0F5
:1026900081708093240180913208909123019817D2
:1026A00039F08093230140E060E080E00E94890AD5
:1026B0001A3260F4E12FF0E0EB56FD4C0C942F3110
:1026C00081E0E6CF80912401811102C0C0E059C1B0
:1026D00040E060E080E00E94890AF8CFC0912201CA
:1026E00088E1C89FC02D112408E10C0FF02E05379A
:1026F00010F094E7F92E60912E0870912F088091C8
:1027000030080E94FF0BE62ED72EC82ED0E0CF1542
:1027100028F0C1E0043708F434C1D8CFFE01E655F3
:10272000FC4F808190912301892331F02C2D4E2D77
:102730006D2DCE010E948C0A2196E9CFC091220115
:1027400088E1C89FC02D112408E10C0FE02E053749
:1027500010F084E7E82ED0902F08C0903008209128
:102760003108D0E4FD2E3F2D329F312D1124F32E60
:10277000D0E0CE1570F6FE01E655FC4F80819091B9
:1027800023018923B9F0FE01EE0FFF1FEE56FD4F26
:1027900081A982958F7060912E088F9D600D112404
:1027A0007D2D8C2D0E94FF0B462F282F672FCE01E9
:1027B0000E948C0A2196DDCFC091220188E1C89F3A
:1027C000C02D112408E10C0FE02E053710F0A4E70E
:1027D000EA2ED0902F08C090300820913108F0E404
:1027E000FF2E3F2D329F312D1124F32ED0E0CE1538
:1027F00008F08FCFFE01E655FC4F808190912301B8
:102800008923D9F0FE01EE0FFF1FEE56FD4F60A9A0
:10281000F69EB0011124E5E075956795EA95E1F71C
:1028200080912E08680F7D2D8C2D0E94FF0B462F66
:10283000282F672FCE010E948C0A2196D8CFC091F5
:10284000220188E1C89FC02D112408E10C0FF02E51
:10285000053710F064E7F62EE0902E08D0912F088F
:10286000D0903008609131086695669566958091A4
:102870000507909106070E94F50B0E945B0B80589C
:1028800087FD8195880F282F3D2D239F212D112411
:10289000822F6E2D7D2F0E94FF0BE62ED72EC82E85
:1028A000D0E0CF1508F035CFFE01E655FC4F808112
:1028B00090912301892331F02C2D4E2D6D2DCE01C9
:1028C0000E948C0A2196EDCF80E69AE00E94D00DFE
:1028D00007C086E39AE0FACF8DE39BE00E94DD0E0D
:1028E000C82F4FC08EE19BE0F9CF83E09BE00E94B0
:1028F000700EF6CF87EE9AE0FACF84E39AE0E6CF47
:102900008BE29AE0E3CF82E29AE0E0CF89E09AE0BE
:10291000DDCF8BEF99E0EBCF8DEC9BE0DFCF86ED49
:102920009AE0DCCF82EC9AE0E2CF8EEC99E00E9454
:102930001A0ED6CF80EA99E0FACF89E699E0F7CF70
:10294000C0912401C11135C06091310820E1620FAE
:1029500008F46FEF80910507909106070E94F50B30
:102960006AE070E00E940731892B09F0AFCE0E9427
:10297000B83164E770E00E941B31609123010E942E
:10298000F712809122018F5F80932201C1110CC048
:1029900082E08093250180912401811105C01111ED
:1029A00003C083E080932501CDB7DEB7EDE00C9442
:1029B0005631C091220188E1C89FC02D112408E141
:1029C0000C0F802F053708F084E7D0E0E82EF12CBB
:1029D000CE15DF050CF09DCE60912301CE010E9443
:1029E000F7122196F5CFC0912401C1111EC060914C
:1029F000310820E1620F08F46FEF80910507909194
:102A000006070E94F50B65E070E00E940731892BF4
:102A100009F05CCE0E94B83164E770E00E941B317F
:102A2000609123010E94D312ACCFC091220188E1B2
:102A3000C89FC02D112408E10C0F802F053708F026
:102A400084E7D0E0E82EF12CCE15DF050CF061CE46
:102A500060912301CE010E94D3122196F5CFC0913F
:102A6000220188E1C89FC02D112408E10C0FF02E2F
:102A7000053710F054E7F52ED0902F08E09030087D
:102A8000D0912E0860913108669566956695809183
:102A90000507909106070E94F50B0E945B0B80587A
:102AA00087FD8195880F682F2CE0629F612D11248E
:102AB0006D0F7D2D8E2D0E94FF0BE62ED72EC82E7A
:102AC000D0E0CF1508F025CEFE01E655FC4F808101
:102AD00090912301892331F02C2D4E2D6D2DCE01A7
:102AE0000E948C0A2196EDCF8AE79BE0EFCE88E525
:102AF00099E0ECCE81E599E00E945D0DF1CE8BE48A
:102B000099E0FACF8091090721E0382F321B08F4B1
:102B100030E0832F62E379E00E94930CE1CE62E320
:102B200079E080E0F9CF8091090721E0382F321B4E
:102B300008F430E0832F67EF78E0EECF67EF78E0BE
:102B4000F0CF8091090721E0382F321B08F430E0E4
:102B5000832F65EC78E0E0CF65EC78E0E2CF809100
:102B6000090721E0382F321B08F430E0832F6DEA8B
:102B700078E0D2CF6DEA78E0D4CF8091090721E0E8
:102B8000382F321B08F430E0832F67E978E0C4CF98
:102B900067E978E0C6CF6CE678E0C3CFC091220148
:102BA00088E1C89FC02D112408E10C0FB02E053715
:102BB00010F044E7B42E2091310830E050E040E0BE
:102BC0006FEF7FEF80E090E00E9430327901D0E03B
:102BD000CE01880F991FFC01EE56FD4F6F0132E8C0
:102BE000A32ECB1508F095CDFE01E655FC4F808154
:102BF00090912301892319F180902F08909030083B
:102C000070902E08409109074150042E000C550B7E
:102C100047FF1AC0C701609131080E94F50B6A2D69
:102C2000282F621B08F460E0670D782D892D0E9423
:102C3000FF0B462F282F672FCE010E948C0A21966A
:102C400032E0C30ED11CCDCFFA01E75FF84F91817E
:102C5000F60180A998130AC0FA01EE0FFF1FE75F83
:102C6000F84F878D90A18E159F05A8F2415051090C
:102C7000CFCF90912201D8E19D9FD00D11240E94C9
:102C8000B831C82F0E94B8316C2F782F809130084E
:102C90000E94FF0B482F872F0E94890AC1E0D4377A
:102CA00008F46FCE13CDB0E0A0E0E9E5F6E10C94B6
:102CB0003B3180917B0590917C05A0917D05B09181
:102CC0007E052FB7F8948090E7069090E806A090D4
:102CD000E906B090EA062FBF75016401C81AD90A47
:102CE000EA0AFB0A2FB7F8944091E7065091E806EC
:102CF0006091E9067091EA062FBF40937B055093DF
:102D00007C0560937D0570937E0510914805E8E48D
:102D1000F5E0C12FD0E00197AF4FBF4F8819990957
:102D2000AA09BB091D1320C0C093480580918305E3
:102D3000C0E0811108C080912D08C82FC37019F020
:102D4000C82FC695C695809125018130B9F1882399
:102D5000F1F0823009F46EC1833009F476C1CDB749
:102D6000DEB7ECE00C945731278D30A14901B12C2E
:102D7000A12C88159905AA05BB0520F4C150DF5F79
:102D80003296D0CF2C0D3D1D30A3278FF8CF109257
:102D9000220140930507509306076093070770933D
:102DA000080783E3E8E4F5E0A9E0B7E001900D92BD
:102DB0008A95E1F781E080932501D1CF8C2F0E9485
:102DC0003213CC2361F280912D08837041F28091FF
:102DD0007F0590918005A0918105B0918205823197
:102DE0009105A105B10509F4E6C028F584309105E7
:102DF000A105B10509F416C178F481309105A1054A
:102E0000B10509F4B9C00297A105B10509F0A7CF32
:102E100040E063E380E0D2C088309105A105B105B0
:102E200009F404C14197A105B10509F098CF40E02C
:102E300069E183E3A4C080329105A105B10509F4DD
:102E4000A1C020F584319105A105B10509F4CEC0DA
:102E50004897A105B10509F082CF40E069E183E31D
:102E60000E94101220E040E063E38DE190E00E94B8
:102E70008C0A20E040E063E382E490E00E948C0A48
:102E800020E040E063E387E690E0ADC08036910546
:102E9000A105B10509F4C3C008F461CF80589109B8
:102EA000A109B109C1E0D0E081389105A105B105C2
:102EB00008F055CF29E143E360E0CE010E948C0A7F
:102EC0002196C530D105B1F729E143E360E085E003
:102ED00090E00E948C0A29E143E360E086E090E004
:102EE0000E948C0A29E143E360E087E090E00E94C1
:102EF0008C0A04E112E08CE5E82E82E0F82E97E1DE
:102F0000C92E92E0D92EE801899126E041E26BE2D8
:102F100090E00E948C0A8BA120E043E360E090E007
:102F20000E948C0A8DA920E043E360E090E00E94BB
:102F30008C0AF70181917F0120E043E360E090E09B
:102F40000E948C0AF70183A120E043E363E390E051
:102F50000E948C0ACC16DD06B9F6F80181A129E1A0
:102F600043E360E090E00E948C0A0A5F1F4FF2E0AA
:102F700002361F0791F7F3CE46E061E28BE20E9432
:102F80001012EDCE40E063E383E30E94101220E0D4
:102F900040E063E387E190E00E948C0A20E040E09B
:102FA00063E38CE390E00E948C0A20E040E063E35E
:102FB00081E690E018C040E069E183E30E941012CE
:102FC00020E040E063E383E290E00E948C0A20E08E
:102FD00040E063E388E490E00E948C0A20E040E057
:102FE00063E38DE690E00E948C0AB9CE40E069E18F
:102FF00083E30E94101220E040E063E380E290E06F
:103000000E948C0A20E040E063E385E490E00E94A7
:103010008C0A20E040E063E38AE690E0E4CF40E001
:1030200069E1B2CF40E063E380E0E3CF40E063E3F7
:1030300080E016CFC093140180912D088370809397
:1030400013010E94AC1283E0B6CE80912C08882335
:1030500051F046E050E06CE170E08DE298E00E94B3
:10306000FC3110922C0840910507509106076091A1
:103070000707709108072FB7F8948091E7069091A1
:10308000E806A091E906B091EA062FBF841B950BD4
:10309000A60BB70B4097A105B10508F460CE1092BE
:1030A00025015DCEEDE2F8E081E380838091260189
:1030B00090912701A091280181839283A3838FE7B8
:1030C00084838FEF858346E050E06CE170E0CF01B0
:1030D0000E94FC3110922C080895CF9384E090E078
:1030E0000E94EE31C82F82E290E00E94EE31982FCC
:1030F0008C2FCF91089580918C0490918B04892B13
:103100008093200448E050E063E874E080E294E0BB
:103110000E94C831892BA9F088E0E0E2F4E0A3E83E
:10312000B4E001900D928A95E1F7E091E206F0910A
:10313000E306309731F00280F381E02D80E294E0E5
:103140000995089590E080E00E94B40790E080E047
:103150000E949E0710928B040E947B180895609332
:103160007F057093800580938105909382050E946E
:10317000A21808950F931F9341E050E060E070E0C3
:1031800004C0440F551F661F771F8A95D2F7CB01E5
:10319000BA01609570958095909500917F0510918A
:1031A000800520918105309182056023712382235F
:1031B00093230E94AF181F910F9108950F931F93AF
:1031C00041E050E060E070E004C0440F551F661F0E
:1031D000771F8A95D2F780917F0590918005A09105
:1031E0008105B09182058A019B01082B192B2A2B9E
:1031F0003B2BC901B8010E94AF181F910F91089590
:1032000080912B04823149F128F4882341F08C30DD
:10321000B1F00895883179F18432D9F1089580911F
:103220002A04882339F061E170E080E090E00E9498
:10323000AF18089561E070E080E090E0F8CF8091F1
:103240002A04882329F062E170E080E090E0EFCF6B
:1032500062E070E080E090E0EACF80912A04882369
:1032600029F064E170E080E090E0E1CF64E070E09C
:1032700080E090E0DCCF80912A04882329F068E187
:1032800070E080E090E0D3CF68E070E080E090E014
:10329000CECF80912A04882329F060E670E080E098
:1032A00090E0C5CF60E270E080E090E0C0CF609336
:1032B0008D0470938E0480938F04909390040E94E9
:1032C000A2180895E4E4F5E08081807F8260808325
:1032D000E5E4F5E0808180788567808361E070E0D7
:1032E00080E090E00E94571961E070E080E090E09B
:1032F0000E94AF184FEF6FEF8AEA90E00E94B3038D
:1033000088E20E949A03089510928C04E2E2F4E0AD
:1033100086E0DF011D928A95E9F70E94A2180895C0
:10332000AAE2B0E0E6E9F9E10C9444318DEF96E0D1
:103330002091F100FC012193CF01F7E085309F0738
:10334000B9F78091FE06833009F470C0B8F481307B
:1033500009F447C0823009F4B1C08091E80083FFCE
:1033600088C28091FD069091FE069A3008F081C2D5
:10337000E92FF0E0E154FD4C0C942F318A3009F430
:103380008CC08B3009F46FC0893039F78091FD060D
:10339000813219F780910107909102070297E8F6B0
:1033A0008091E800877F8093E8008091E80082FFA9
:1033B00038C09091F3008091F200029731F480912F
:1033C000F100813011F0863021F48091F10080937A
:1033D000F0068091E8008B778093E8000E944D050D
:1033E000BCCF8091FD06813A09F0B7CF8091E8000B
:1033F000877F8093E8008091010790910207892BD5
:1034000061F468E081EF96E070E00E94F905809138
:10341000E8008B778093E800A0CF60E090E080E048
:10342000F3CF8091FB068111C0CF97CF8091FD062D
:10343000813A09F092CF8091010790910207892B80
:1034400009F08BCF8091E800877F8093E80080911E
:10345000E80080FFFCCF809121018093F1008091F2
:10346000E8008E77B9CF8091FD06813209F075CFE3
:103470008091010790910207892B09F06ECF80910E
:10348000E800877F8093E8000E944D058091FF0649
:10349000809321010E94841960CF8091FD068132C2
:1034A00009F05BCF8091E800877F8093E8000E945D
:1034B0004D05809100078093EF064FCF8091FD0668
:1034C000813A09F04ACF8091E800877F8093E80035
:1034D0008091E80080FFFCCF8091EF06BECF80385E
:1034E00099F0823809F0C5C1809101078F7087304B
:1034F00008F0BFC18093E9008091EB0085FB88272D
:1035000080F91092E90006C08091F9069091FA06C0
:10351000911182609091E800977F9093E8008093EA
:10352000F1001092F1008091E8008E779EC188230F
:1035300009F48CC1823009F09CC18091FF06811191
:103540008FC1809101078F702FEF280F263008F070
:1035500090C18093E9002091EB0020FF81C193305E
:1035600031F48091EB0080628093EB0079C19091FF
:10357000EB0090619093EB0021E030E001C0220F5E
:103580008A95EAF72093EA001092EA008091EB0016
:103590008860EACF81116DC11091FF061F7780917D
:1035A000E3008078812B8093E3008091E800877F9F
:1035B0008093E8000E944D058091E80080FFFCCFD9
:1035C0008091E30080688093E30082E0111183E042
:1035D0008093FB064EC18058823008F04AC180912A
:1035E000FF06909100078C3D23E09207A1F583E050
:1035F0008A838AE289834FB7F894DE01139620E02C
:103600003EE051E2E32FF0E050935700E49120FFB9
:1036100003C0E295EF703F5FEF708E2F90E0EA30CD
:10362000C0F0C7968D939D932F5F243159F74FBFFC
:103630008091E800877F8093E8006AE270E0CE0125
:1036400001960E94F9058091E8008B778093E8004D
:1036500010C1C096E7CF4091010750910207292F72
:1036600033272330310509F444C078F52130310582
:1036700009F46FC08FE990E0E1E1F6E02230310516
:1036800009F0F7C02091E800277F2093E8002091FF
:103690000307309104078217930708F49C0140E068
:1036A0002115310509F064C0411162C08091E80024
:1036B00082FDC9CF8091FB06882329F2853019F25B
:1036C0008091E80083FFF2CFBECF21323105A9F10E
:1036D0002232310509F0CDC04115510509F443C02E
:1036E0004130510509F0C5C082E390E0EFE9F5E013
:1036F000C9CF992781309105C1F0009759F0029701
:1037000009F0B7C0E2ECF6E0E4918E2F90E0E2EC35
:10371000F6E007C0E2EFF6E0E4918E2F90E0E2EFF2
:10372000F6E0009709F4A5C0ADCFE2EEF6E0E49133
:103730008E2F90E0E2EEF6E0F4CF4115510571F0E6
:103740004130510509F095C089E090E0ECE3F6E0E6
:1037500099CF82E190E0E0EBF6E094CF89E090E051
:10376000E3E2F6E08FCF80E490E0E1EDF5E08ACF90
:103770008091FB06882309F466CF853009F463CF76
:103780008091E80083FD5FCF8091E80082FD8ECFBD
:103790008091E80080FF84CF9091F3008091F20047
:1037A0002115310519F08830910550F041E0089756
:1037B00009F040E08091E8008E778093E80070CFB8
:1037C00044914093F1003196215031090196E8CFA0
:1037D000803809F04EC08091E800877F8093E80030
:1037E0008091FC068093F1009ECE811142C0109121
:1037F000FF061230F0F58091E800877F8093E800A3
:103800001093FC060E944D05112311F084E005C0C1
:103810008091E30087FDFACF81E08093FB0642E0D0
:1038200061EC81E00E946C0542E261EC82E00E9462
:103830006C0542E361E883E00E946C0542E361E8C5
:1038400084E00E946C058091FB0613C08091FF0606
:10385000813079F481E0933009F080E08093FA06BA
:103860001092E9008091E800877F8093E8000E9431
:103870004D058091E80083FF0AC08091E800877FB2
:103880008093E8008091EB0080628093EB00AA9621
:10389000E3E00C9460310E9484192FEF84E39CE0F4
:1038A000215080409040E1F700C0000088E19AE09C
:1038B0000FB6F894A895809360000FBE90936000B7
:1038C000FFCF882341F0809590918C0489238093C9
:1038D0008C040E947B180895882339F090918C0401
:1038E000982B90938C040E947B1808958823C1F133
:1038F0009CEF980F913A78F4E2E2F4E09191891309
:1039000003C0DF0111971C9244E0E832F407B1F7DD
:103910000E947B18089590E2980F983088F4877081
:1039200021E030E0A90102C0440F551F8A95E2F75B
:10393000CA01809590918C04892380938C04E8CFF0
:103940009BE5980F933028F490E080E00E94B40744
:103950000895885A873120F490E080E00E949E0705
:103960000895CF93C82F8823B1F08CEF8C0F813A44
:1039700000F5E2E2F4E088E294E0DF012D91C21765
:1039800061F08A179B07D1F76C2F80E294E00E94C8
:1039900084070E947B18CF9108952191C21303C020
:1039A000DF0111971C928E179F07B9F70E947B18B1
:1039B000EBCF80E28C0F883068F4C77021E030E0F4
:1039C00001C0220FCA95EAF780918C04822B809364
:1039D0008C04DFCFEBE5EC0FE33040F4F0E0E7548C
:1039E000FE4F808190E00E94B407D5CFC85AC731FE
:1039F00090F6EC2FF0E0EE0FFF1FE454FE4F8081B5
:103A000091810E949E07C7CF1F93CF93DF93182FFA
:103A1000CAE0D0E0893311F4C0E5D0E0812F0E94E4
:103A2000B11C8FE99FE00197F1F700C000002197DA
:103A3000C1F7812F0E94761CDF91CF911F910895CD
:103A40000F931F93CF93DF93C62FD42F022FFC0128
:103A500082818823A9F060932B080E9478079093B5
:103A60002A0880932908C77081E001C0880FCA9591
:103A7000EAF70E946C1CDF91CF911F910F9108957E
:103A800080912B08681332C08091290890912A08F0
:103A90000E946907883C910548F510E21D0FCD177B
:103AA000B9F080E28C0F883040F4C77081E001C02B
:103AB000880FCA95EAF70E94611C183048F481E02B
:103AC0009D2F977001C0880F9A95EAF70E946C1C91
:103AD000802F0E94041D183070F6D77081E001C05D
:103AE000880FDA95EAF70E94611CC5CFC77081E0A4
:103AF00001C0880FCA95EAF7F6CF68EE7EEF90E036
:103B000080E00E942A3260E082E090E00E940C3265
:103B100060E083E090E00E940C3210928D041092DD
:103B20008E0410928F041092900460E084E090E084
:103B30000E940C3264E082E290E00E940C3260E06D
:103B400085E090E00E940C3260E086E090E00E9408
:103B50000C326FEF87E090E00E940C3240E050E0C2
:103B6000BA0188E090E00E941E3260E08DE090E0B3
:103B70000E940C3240E050E0BA0188E190E00E94DF
:103B80001E3260E087E190E00E940C3240E050E09D
:103B9000BA018CE190E00E941E3270E060E080E2A9
:103BA00090E00E942A3240E050E0BA0188E190E0C3
:103BB0000E941E3240E050E0BA018FE090E00E9487
:103BC0001E320E94330F80912D08837011F41092E1
:103BD000250180912D088C7F816080932D08809134
:103BE0002C08816080932C088FE7809331080E9415
:103BF00062190895A5E0B0E0E0E0FEE10C943731F1
:103C00006C01FC0183819481892B39F08081918141
:103C100089238F3F11F00C94DD272596E0E10C9469
:103C200053310E943A11182F682F89819A810E947E
:103C3000B81169817A81812F0E94AC0F7C01843B8D
:103C4000FDE59F0709F4D8C008F080C0803B3DE542
:103C5000930709F46AC208F055C08E3A9D4509F4ED
:103C6000ACC18FEAE8168DE5F80609F430C2FFEA28
:103C7000EF16FCE5FF0608F054C32FE9E2162CE529
:103C8000F20608F0A0C430E9E3163CE5F30608F0BC
:103C9000EAC243E8E4164CE5F40608F044C451E8EF
:103CA000E5165CE5F50608F0C4C287E7E8168CE582
:103CB000F80608F015C49FE2E9169CE5F90608F03D
:103CC000C6C334EFE3163CE5F30609F43AC508F041
:103CD000ACC359EDE5165CE5F50609F42EC58AED91
:103CE000E8168CE5F80609F438C598EDE9169CE568
:103CF000F90609F085C126E241EE61EEC6010E9497
:103D0000201D8BCFF6018281F2EBEF16FDE5FF0659
:103D100009F448C108F415C2882309F471C120913F
:103D2000280481E02827209328049091450580915C
:103D30004605222309F463C2906890934505887F65
:103D40008093460583E0809304015AC1883B3DE59A
:103D5000930709F413C198F4F6018281F6EBEF168C
:103D6000FDE5FF0609F4FFC008F4F1C0882309F45B
:103D700047C10E943F1210922A0482E1FCC0893B95
:103D80003DE5930709F404C183309E4508F06FCFE9
:103D900040910401009145050F7786E48E0D90E077
:103DA0009C0124563B4F5901F9012081F601828183
:103DB000882309F42CC22F3F09F059CF10914405F4
:103DC000812F8F7015951595159515951A5BFCE04B
:103DD0008F9F100D11241E0D212F2F774F704069DA
:103DE000E0913C07F0913D0763E070E08CE397E0E1
:103DF0000995F50110833BCFF6018281882309F4F0
:103E0000FFC00CE511E09AE0492EF801249122232D
:103E100009F4F6C0213009F043C031968491813015
:103E200039F40E5F1F4FF80184910E94041D08C0F1
:103E3000823049F40E5F1F4FF80184910E94B11C3B
:103E40000F5F1F4FE2CF833039F40E5F1F4FF80131
:103E500084910E94761CF4CF843009F076C00E5F06
:103E60001F4FF801249190E080E0F8013196205333
:103E7000330B2A30310548F0019710F3EFE9FFE0EA
:103E80003197F1F700C00000F7CF489EA001499E8E
:103E9000500D1124C901840F951F24918F01E5CF86
:103EA000E22FF0E0E452FF4F5490822F86958695E2
:103EB000869590E0FC01E453FF4F64902770712CCD
:103EC000022E02C0759467940A94E2F731E06322EF
:103ED0007724FC01E454FF4F8490912C022E02C001
:103EE000959487940A94E2F741E084229924FC0196
:103EF000E455FF4FA490B12C02C0B594A7942A9525
:103F0000E2F751E0A522BB246114710419F081EE9F
:103F10000E94B11C8114910419F086EE0E94B11C1C
:103F2000852D0E94041D8114910419F086EE0E94D3
:103F3000761C6114710419F081EE0E94761CA114A4
:103F4000B10409F47DCF8CE270CF8F0179CF882343
:103F500009F456C00E943F1210922A0410922B04BA
:103F60000E9400194DC0882309F44AC00E943F12E4
:103F700010922A048CE080932B04F2CFF601828108
:103F80008823F1F10E943F1210922A0488E1F3CFB6
:103F9000F60182818823A1F10E943F1210922A0427
:103FA00084E2E9CF882361F10E943F1280912A04C4
:103FB00091E0892780932A04D3CFF6018281882358
:103FC000F9F080917F0590918005A0918105B091D5
:103FD000820584309105A105B10551F008F069C052
:103FE0000197A109B1090297A105B10508F03FCEDB
:103FF00080912904882309F468C0815080932904A2
:10400000F6019281992311F40C94F02710922B0859
:10401000F4E0EF16FDE5FF0608F0A2C32BEFE21671
:104020002CE5F20638F4970122503C452431310545
:1040300008F0A2C30E946D1890939B0480939A0489
:1040400051E1E5165CE5F50609F485C408F0F5C311
:1040500099E0E9169CE5F90609F46FC408F0B7C3C6
:10406000F5E0EF16FCE5FF0609F45BC408F09CC31D
:1040700033E0E3163CE5F30609F449C408F04DC407
:1040800080919A04816052E0E5165CE5F50609F43A
:1040900041C460919A0410919B0484E090E00E94D6
:1040A0000C32612F82E290E00E940C320E9484194F
:1040B000B4CD88309105A105B10509F499CF809759
:1040C000A105B10509F0D3CD93CF8BE097CFF601D1
:1040D0008281882309F494CF80917F059091800597
:1040E000A0918105B091820584309105A105B105AB
:1040F00049F070F40197A109B1090297A105B10532
:1041000008F0B5CD809129048B3068F48F5F76CFAD
:1041100088309105A105B105A9F38097A105B105E6
:1041200009F0A5CDEFCF80E069CFF6018281882329
:1041300009F466CF8091060191E0892780930601FA
:104140005FCF882309F45CCF40917F0550918005B3
:104150006091810570918205809144054439510533
:104160006105710551F0A8F44159510961097109BE
:104170004230510561057105D8F49091050121E0A7
:1041800029272093050190932904992331F1806F09
:1041900025C0403A51056105710539F1403E510590
:1041A0006105710581F0483951056105710529F3F3
:1041B0001092050191E090932904806F809344054B
:1041C00090932A04CDCE9091050121E092279093FF
:1041D0000501992331F0109229048F7080934405D2
:1041E0000FCF9BE090932904D2CF109205019BE062
:1041F00090932904806F8093440581E0DBCE9F7704
:1042000090934505887F8093460582E09CCD2F3FA3
:1042100061F02F774F704068E0913C07F0913D07C7
:1042200063E070E08CE397E009958FEFF501808300
:104230001ECDE1E8EE16ECE5FE0609F462C1F2E8F7
:10424000EF16FCE5FF0609F03CCDF60182818823DC
:1042500009F4E3CC80914405982F9F70993008F0C1
:10426000DCCC9F5F5AC12DE9E2162CE5F206D0F5B1
:1042700032E9E3163CE5F30608F077C140E9E416BD
:104280004CE5F40609F45DC151E9E5165CE5F50677
:1042900009F017CDF6018281882309F4BECC209164
:1042A0004405822F859585958595859586300CF0FA
:1042B000B4CC91E0980F9295907F959595959595B2
:1042C0009595392F3295307F2F70232B20934405FD
:1042D00018160CF0A2CC97FFA0CC8295807F922F6D
:1042E0009F701DC18DE9E8168CE5F80609F451C1EF
:1042F0009EE9E9169CE5F90609F0E3CCF601828116
:10430000882309F48ACC80914505982F9F779F37A1
:1043100009F483CC933708F054C1935F9F7780787A
:104320004EC1E5EBEE16ECE5FE0609F4A8C108F077
:104330003EC021EBE2162CE5F20609F478C1F8F450
:104340004FEAE4164CE5F40609F452C150EBE516C9
:104350005CE5F50609F0B5CCF6018281882309F405
:104360005CCC20914505322F331F3327331F9091AA
:104370004605892F8770880F832B8F5F4BC1F6010D
:1043800022818091450590914605F3EBEF16FCE5FF
:10439000FF0609F460C108F068C140E021114FE751
:1043A000881F8827881F9770990F60E450C148EBD9
:1043B000E4164CE5F40609F474C1A0F486EBE816A3
:1043C0008CE5F80609F45BC197EBE9169CE5F90664
:1043D00009F077CCF6018281811161C18FEF809362
:1043E000FA041BCCEAEBEE16ECE5FE0609F491C1EB
:1043F00008F479C12BEBE2162CE5F20609F061CC4A
:1044000080914505982F991F9927991F80914605FE
:104410008770880F892BF60192816FEF7FE19923D6
:1044200009F488C10E94C603F8CBE6EFEE16ECE56E
:10443000FE0609F48EC108F488C127EFE2162CE5C8
:10444000F20609F0DDCD27E245EE66EE57CC00918D
:104450004505802F881F8827881F40914605477093
:10446000440F482B0F7781ED8E0D90E0FC01E45056
:10447000FB4F5F012081F6018281882301F12F3FEC
:1044800009F0CBCB80914405982F9F708595859539
:10449000859585958F52FCE09F9F800D1124E80E35
:1044A0002E2D2F774069E0913C07F0913D0763E0A6
:1044B00070E08CE397E00995F501E082AECB2F3FE9
:1044C00059F02F774068E0913C07F0913D0763E099
:1044D00070E08CE397E009958FEFF50180839DCB29
:1044E000F6018281882309F498CBF9E8EF0E2E2D8E
:1044F0002F70E22E80914405807FE82AE0924405E7
:104500008CCBF6018281882309F487CB8091440506
:10451000982F9F7009F481CB915F9F70807F892BCA
:10452000809344057ACBF6018281882309F475CB08
:10453000F7E7EF0EE29480EFE822809144058F7058
:10454000DCCFF6018281882309F467CB8091440592
:10455000982F95959595959595959B3F0CF45DCBEA
:10456000915F9295907F8F70DACFF60182818823D8
:1045700009F453CBFEE6EF0E8CE0E89EE02C11240C
:10458000E894E7F8809145058078E82AE0924505AF
:1045900044CBF6018281882309F43FCB8091450505
:1045A000982F9F7709F439CB80789F3721F485675E
:1045B0008093450532CB9D30D8F39D509F77892B52
:1045C000F7CF8F67F5CFF6018281882309F425CBD9
:1045D000F1E6EF0E80914505E0FA87F980934505F5
:1045E0008E2D8695877090914605987F892B78C08F
:1045F000F6018281882309F410CB20914505322FE2
:10460000331F3327331F90914605892F8770880FFA
:10461000832B815F382F3F7080FB27F9209345055E
:10462000832F8695987F982B90934605F6CAF601BE
:104630008281882309F4F1CA90914505991F992731
:10464000991F809146058770880F40E06BE7892BA2
:104650000E94DF03E2CA40E021114FE7881F88274C
:10466000881F9770990F61E4F2CF40E021114FE766
:10467000881F8827881F9770990F62E4E8CFF6019A
:10468000828140E081114FE790914505991F99275C
:10469000991F809146058770880F63E4D8CF81E029
:1046A0009ECEF6018281882309F4B7CA909146050F
:1046B000292F2695269526952F7081E0820F8F70E1
:1046C000880F880F880F9778892B80934605982F3D
:1046D000987709F0A2CA220F220F220F8778822B27
:1046E000809346059ACAF6018281882309F495CA07
:1046F00080914605982F987709F48FCA982F969540
:1047000096959695915F9F70990F990F990F87785D
:104710006DCF80914505982F991F9927991F8091FA
:1047200046058770880F892BF601928160E070EE54
:10473000911178CE70E060E075CE27E245EE65EE2F
:10474000DDCA26E241EE60EED9CA27E245EE64EE0C
:10475000D5CA26E241EE62EED1CA28E241E0EFCFAF
:1047600032E6E3163DE5F30609F464CC46EAE416C6
:104770004DE5F40609F45ECC86E1E8168CE5F80612
:1047800009F0F7C180918C048A7A91E009F490E0F5
:1047900090932C0469E2811165E380E294E00E9429
:1047A00084070E947B1839CA87E0E8168CE5F80672
:1047B00009F4BFC080919A04806198E0E9169CE5F5
:1047C000F90608F4A7C080919A048064A3C0809180
:1047D0009A048B7FEDE0EE16ECE5FE0609F49AC034
:1047E000B0F480919A048E7F2BE0E2162CE5F2065D
:1047F00009F490C080919A048C603CE0E3163CE59B
:10480000F30608F487C080919A048D7F83C080915D
:104810009A048F7E4FE0E4164CE5F40609F47AC062
:1048200080919A04877F50E1E5165CE5F50608F46F
:1048300071C080919A048F7D6DC08EEFE8168CE573
:10484000F80609F484C078F5E5E1EE16ECE5FE061D
:1048500009F48BC0A0F480919A04837F23E1E216CF
:104860002CE5F20609F456C008F479C00E948419B8
:1048700090919A04892F97FB87F980584BC04CEF91
:10488000E4164CE5F40609F450C008F05CC08BEF68
:10489000E8168CE5F80609F0FCCB80919B0481605A
:1048A00080939B04F6CB92E0E9169DE5F90609F4A6
:1048B00068C0C8F480919B048C7FE114FDE5FF067D
:1048C00079F380919B04836021E0E2162DE5F206E6
:1048D00038F380919B04982F909591708E7F892B4F
:1048E00090FB81F9DDCF32E6E3163DE5F30609F4EE
:1048F0004EC046EAE4164DE5F40609F44FC053E015
:10490000E5165DE5F50609F0C4CB60E03BC080919B
:104910009A04826080939A04BCCB80919A0484604C
:10492000F9CF80919A048860F5CF80919B048260D2
:10493000B7CF80919A048062EDCF0E948419809154
:104940009A048068E7CF80919B048E7FA9CF8091E5
:104950009B048D7FA5CF80919A048F7BDBCF0E9433
:10496000841980919A048F77D5CF80919A0482FB25
:10497000992790F921E0922790FB82F990FB83F927
:10498000C9CF61E08EE090E00E940C3282CB909122
:104990009A04892F8F7E94FF8061BCCF90919A04F6
:1049A000892F8E7F90FF8160B5CF85E3E2E2F4E04E
:1049B00028E234E09191891303C0DF0111971C9222
:1049C0002E173F07B9F7EDCE80918C048272EBEC85
:1049D000EE16ECE5FE0609F4B9C008F059C026EC65
:1049E000E2162CE5F20609F49DC0B8F544ECE41695
:1049F0004CE5F40609F48CC008F08FC083ECE8168F
:104A00008CE5F80609F476C0F6010081118199233E
:104A100009F4DEC0C8010E943A11F82E682FC801BF
:104A20000E94B811B8018F2D0E94AC0F0E94C80FD0
:104A3000182FB82EF60122814581342F32953F7010
:104A4000892F82958F70E82EF12C8C3008F0F8C0F9
:104A5000F701E753FD4C0C942F31E8ECEE16ECE532
:104A6000FE0609F469C008F462C029ECE2162CE5E0
:104A7000F20609F466C04FE058E06CE178E03AECE9
:104A8000E3163CE5F30609F0BFCF0E94D707C5C87F
:104A900040EDE4164CE5F40609F469C0C0F4EDEC11
:104AA000EE16ECE5FE0609F45BC008F454C02EECEB
:104AB000E2162CE5F20609F458C084E03FECE31658
:104AC0003CE5F30609F0A0CF0E949A03A6C847ED83
:104AD000E4164CE5F40638F481E152EDE5165CE5A8
:104AE000F50690F39AC88EE5E8168DE5F80609F408
:104AF00094C88ACF80912D0891E0892780932D0852
:104B00001092250180912C08816080932C0885C823
:104B100047E558E061E678E0B8CF41E658E067E560
:104B200078E0B3CF43E458E06DE478E0AECF4DE4F5
:104B300058E063E478E0A9CF49E258E066E378E022
:104B4000A4CF46E358E069E278E09FCF4CE158E01B
:104B50006FE078E09ACF43EF57E061E078E095CFDF
:104B600041E058E063EF77E090CF81E0ADCF8CE09B
:104B7000ABCFEFEDEE16ECE5FE0631F1F8EAEF16FD
:104B8000FDE5FF0619F1E1142CE5F20609F03CCF32
:104B90000E9484193FEF44E35CE0315040405040B4
:104BA000E1F700C0000087E797E790930108809342
:104BB000000888E19AE00FB6F894A8958093600009
:104BC0000FBE90936000FFCF0E947D1D0E944B1C82
:104BD000C8010E948311F82E25CF092F0F70907FF6
:104BE00011F00295007F812F2223C9F0002369F084
:104BF00090E2910F983010F011110BC080918C044D
:104C0000082B00938C040E947B18812F0E94B11CFA
:104C100017C080918B04082B00938B04F4CF0E9463
:104C2000761C002369F00095105E183010F0B1106A
:104C300022C080918C04082300938C040E947B186E
:104C400098E0E91AF108E4E0EE16F10410F40E948D
:104C5000CA0785E0F601DE01119601900D928A9552
:104C6000E1F709811A81C8010E948311B8010E94ED
:104C7000AC0F0C940D1E80918B04082300938B04C1
:104C8000DDCF892F8F70907F903211F08295807FD9
:104C9000F1E0BF120CC0222329F0363088F60E94C2
:104CA0006C1CCECF353060F60E94611CC9CF222328
:104CB00041F03323A1F340FFA8CF4F70F6014583A5
:104CC000EECF332389F3193309F06FC1FFEF27EEDD
:104CD00033E0F15020403040E1F700C00000812F68
:104CE0000E94761CADCF892F86958695837061F0E2
:104CF000813009F0A5CF812F9370211102C090E07F
:104D000080E00E949E079CCF812F9370211102C0EA
:104D100090E080E00E94B40793CF892F837009F060
:104D200065C021118DCF812F829586958770880F60
:104D3000880F612F6F70862E912CB12CA12C082E1C
:104D400004C0880C991CAA1CBB1C0A94D2F740E032
:104D500050E0BA0114FF0FC04FE050E060E070E097
:104D600004C0440F551F661F771F8A95D2F74095E0
:104D7000509560957095969596959370923019F12F
:104D8000D8F400918D0410918E0420918F043091FD
:104D90009004913069F0482959296A297B29CB016F
:104DA000BA0160237123822393230E94571948CFAD
:104DB000802A912AA22AB32ACB01BA01682979292B
:104DC0008A299B29F2CF482959296A297B290091F0
:104DD0008D0410918E0420918F0430919004CB01AA
:104DE000BA016027712782279327DFCF8695222378
:104DF00011F0892F8170882309F422CF812F8295A9
:104E000086958770880F880F612F6F70862E912C82
:104E1000B12CA12C082E04C0880C991CAA1CBB1C08
:104E20000A94D2F740E050E0BA0114FF0FC04FE0FF
:104E300050E060E070E004C0440F551F661F771F0C
:104E40008A95D2F740955095609570959695969570
:104E50009370923019F1D8F400917F05109180057C
:104E60002091810530918205913069F048295929B6
:104E70006A297B29CB01BA01602371238223932302
:104E80000E94AF18DDCE802A912AA22AB32ACB0134
:104E9000BA01682979298A299B29F2CF48295929F9
:104EA0006A297B2900917F05109180052091810559
:104EB00030918205CB01BA016027712782279327A1
:104EC000DFCF092F0F70222329F0802F0E94DE18D8
:104ED000812FE5CE812F0E94611C802F0E94BA187D
:104EE000AFCE812FE1EF1E1709F442C0E11758F051
:104EF000F0EF1F17F1F0222309F44BC0311185CEDA
:104F0000892F8F713AC042EF1417D1F153EF151367
:104F1000F2CF2223D1F1292F2F7161E070E080E0E0
:104F200090E004C0660F771F881F991F2A95D2F75B
:104F3000A7CF2223C9F0353008F082CE292F2F7158
:104F400061E070E080E090E004C0660F771F881F8A
:104F5000991F2A95D2F700917F0510918005209125
:104F6000810530918205A8CF363008F069CEE6CFB2
:104F7000892F8F71222309F4B1CF0E94DE1860CEF1
:104F8000892F8F712223C9F3A9CF60E070E0CB0194
:104F900077CF332379F0893341F48FEF97EEE3E055
:104FA00081509040E040E1F798CE8FE39CE9019773
:104FB000F1F793CE892F8F7191CF85E0DE011196A5
:104FC00001900D928A95E1F7F601228189819A81FB
:104FD00021110C94111E0E948311182F0C94191E7C
:104FE000F6E1EF16FCE5FF0609F0EECC80912C040B
:104FF0008111DBCC89E2DACC1F93CF93DF938091D0
:105000005004807F09F049C080914D04882309F441
:1050100044C080918204D091510460914B047091FE
:105020004C04A0914E04B0914F04C62FC72316E044
:10503000D81799F190E0109711F0CF3F19F401962D
:105040008770F6CF189F9001199F300D1124F90138
:10505000EE5AFB4F41814713F2CF40814613EFCF09
:1050600042814111ECCF438154814A1B5B0B483C88
:10507000510528F7809150048F708061809350040F
:10508000F901E95AFB4F80818F70806180838BE446
:1050900094E00E94FA1D0E943011DF91CF911F9180
:1050A0000895A1E1B0E0E7E5F8E20C943D318C0110
:1050B00085E0F801DE011D9601900D928A95E1F7D9
:1050C000F801E2808BE4A82E84E0B82E60914E04B3
:1050D00070914F046115710509F426C190914B043C
:1050E00040914C04892F84238F3F09F41DC12081F6
:1050F0003181C380D480F0904D04F601E61BF70B9C
:10510000FF2009F4DCC080915004582F507FE83C08
:10511000F10508F09FC051116BC0FE2C431314C061
:10512000921312C0E11010C08F7080618093500400
:10513000C5010E94FA1D80915004F80185838F2DCE
:105140006196EAE00C945931C114D10429F0822F00
:1051500083238F3F09F003C180E0F82FF170DF2E29
:1051600080FF3CC0809182044091510456E084133A
:1051700015C02D873E878D859E850E947611292F2B
:1051800022952F702230F0F0243018F59F70F1F046
:10519000F8019581907FD1F4D12C1EC090E0589FEA
:1051A000F001599FF00D1124EE5AFB4F6181361327
:1051B00006C06081261303C06281E6120FC001960B
:1051C0008770D5CF9F7011F0882331F3805E8830CF
:1051D00018F3C8010E94FA1DFD2CB1CFEE2009F48E
:1051E000AECF80915004816080935004F12CA7CF02
:1051F000431306C0921304C0F801EE2009F479C0ED
:10520000C8010E94F011882309F1EE20F9F0809185
:105210005004803270F020914B0430914C04388758
:105220002F831986DB86CA868C87CE0107960E945B
:10523000FA1D86E0F801ABE4B4E001900D928A9586
:10524000E1F70E94FC27FF24F39479CFC8010E9464
:10525000FA1DF9CF51110AC08BE494E00E94FA1DA7
:1052600086E0F50111928A95E9F7C0CF43130FC08C
:1052700092130DC0E1100BC0F8018583C8010E9494
:10528000FA1D86E0F50111928A95E9F758CFC80119
:105290000E94F0118823D1F2EE20C1F280915004D7
:1052A000803238F220914B0430914C043A832983A8
:1052B0001B82DD82CC828E83CE010196B8CFE83C82
:1052C000F105F8F6FE2CEE2009F243131FC09213ED
:1052D0001DC08091500480FD10C0982F907F69F010
:1052E000F8018583903F31F0982F907F905F8F7009
:1052F000892B8583C8010E94FA1D86E0F801ABE482
:10530000B4E001900D928A95E1F719CFC8010E948F
:10531000F01181118ECF80915004816080935004F0
:10532000C8010E94FA1D0BCFEE2009F48FCFC801EF
:105330000E94F011F82E882309F488CF86E0F80146
:10534000ABE4B4E001900D928A95E1F780914B04B3
:1053500090914C040E9476110E94FC27F0CE81E0CF
:105360008E25FBCEA7E1B0E0E8EBF9E20C944431E6
:105370004B8B5C8B6D8B7E8B8F8B611110928B04B2
:105380001A8A198A85E0FE017396DE011D96019046
:105390000D928A95E1F786E0FE013D96DE011796B3
:1053A00001900D928A95E1F7CE0107960E9451284F
:1053B000882359F016E0809182049091510489135A
:1053C00043C06796E3E00C94603186E0FE013796B7
:1053D000DE01119601900D928A95E1F78A859B85F1
:1053E000892B41F38F81988589238F3F19F3209171
:1053F000510430E0C90101968770992740918204D9
:105400004817190671F40E948419109251041092E1
:10541000820486E0EBE4F4E0DF011D928A95E9F76F
:10542000C9CF96E0929FD001939FB00D1124AE5A40
:10543000BB4FFE01319601900D929A95E1F7809352
:1054400051040E943011B6CF819FC00111248E5AA1
:105450009B4F0E945128882309F4B3CF8091820486
:1054600090E001968770992780938204A4CFABE0E7
:10547000B0E0EDE3FAE20C943C318E010F5F1F4F78
:1054800086E0F80111928A95E9F78AEEC82E81E04C
:10549000D82EF12CE12CAA24A394B12CF6018191F1
:1054A0006F018F3F09F443C0F894E82FE295EF7045
:1054B000F0E021A18F70A50102C0440F551F8A950D
:1054C000E2F7CA01922F982B91A392A1809589238C
:1054D00082A3789400C0E0EFF1E0912C31E02191BB
:1054E0002F3F09F46EC0A22FA295AF70B0E0909646
:1054F0008C9190E02F7002C0959587952A95E2F7E0
:1055000080FD5FC0832F982A330F51E0E83FF507F5
:1055100031F7F601319780818F3F11F00E94520FD1
:1055200080EA8A95F1F7F801EE0DFF1D9082EFEF0A
:10553000EE1AFE0AF6E0EF16F10409F0AFCF46E0EE
:1055400050E0B80184E994E00E94C831FF24F3944C
:10555000009709F4F12C892BB1F186E0F801A4E958
:10556000B4E001900D928A95E1F781E08093930475
:105570000E94780790939204809391048091910403
:10558000909192040E946907059708F18091940414
:105590008093E504809195048093E60480919604BD
:1055A0008093E704809197048093E80480919804A5
:1055B0008093E904809199048093EA041092930403
:1055C00006C080E0A0CF809193048111D7CF809155
:1055D000F2048823A9F08695C1F087E08F8382E0EA
:1055E000888719860E9478078160782F9B878A8731
:1055F0001092F2044F81588569858B850E94B229EB
:105600008F2D2B96EBE00C94583187E08F8381E04F
:10561000E7CF1F920F920FB60F9211242F933F9353
:105620004F935F936F937F938F939F93AF93BF93AA
:10563000CF93DF93EF93FF93D091E900DF708091D8
:10564000EC00C82FC17080FDC0E81092E900809185
:10565000F000877F8093F00078940E949019109258
:10566000E9008091F00088608093F000CD2BCF702E
:10567000C093E900FF91EF91DF91CF91BF91AF917E
:105680009F918F917F916F915F914F913F912F915A
:105690000F900FBE0F901F9018951F920F920FB68C
:1056A0000F9211242F933F934F935F936F937F93A8
:1056B0008F939F93AF93BF93EF93FF938091E100FC
:1056C00082FF09C08091E20082FF05C08091E10065
:1056D0008B7F8093E1008091DA0080FF24C080916D
:1056E000D80080FF20C08091DA008E7F8093DA009E
:1056F0008091D90080FF9DC080E189BD82E189BD94
:1057000009B400FEFDCF81E08093FB068091EE0698
:10571000811109C00E94D3040E949E058091E2007D
:1057200084608093E2008091E10080FF17C0809147
:10573000E20080FF13C08091E2008E7F8093E20040
:105740008091E20080618093E2008091D8008062C5
:105750008093D80019BC85E08093FB068091E1001E
:1057600084FF2BC08091E20084FF27C080E189BDC7
:1057700082E189BD89B5982F917080FFFBCF809120
:10578000D8008F7D8093D8008091E1008F7E809338
:10579000E1008091E2008F7E8093E2008091E20040
:1057A00081608093E2008091FC06882309F447C061
:1057B00084E08093FB068091FB068091E10083FFEB
:1057C00027C08091E20083FF23C08091E100877FA2
:1057D0008093E10082E08093FB061092FC068091AA
:1057E000E1008E7F8093E1008091E2008E7F8093C4
:1057F000E2008091E20080618093E20042E060E09C
:1058000080E00E946C058091F00088608093F00039
:10581000FF91EF91BF91AF919F918F917F916F9188
:105820005F914F913F912F910F900FBE0F901F905E
:10583000189519BC1092FB061092EE0674CF809159
:10584000E30087FD93E09093FB06B5CF78941F9219
:105850001FB61F9211248F939F93AF93BF93809194
:10586000E7069091E806A091E906B091EA06019654
:10587000A11DB11D8093E7069093E806A093E90669
:10588000B093EA06BF91AF919F918F911F901FBE79
:105890001F9018951F921FB61F9211248F939F93EC
:1058A000AF93BF938091E606811113C08091E70604
:1058B0009091E806A091E906B091EA064196A11DF3
:1058C000B11D8093E7069093E806A093E906B09394
:1058D000EA06BF91AF919F918F911F901FBE1F90BD
:1058E0001895CDB7DEB760970FB6F894DEBF0FBE40
:1058F000CDBF85B7806885BF85B7806885BF0E94AA
:10590000330F10926107109263071092620780ECC8
:105910008093260884E697E09093280880932708D0
:105920001092250810922408109241071092400707
:1059300010924307109242071092450710924407B5
:105940001092470710924607109249071092480795
:1059500010924B0710924A0710924D0710924C0775
:1059600010924F0710924E07109251071092500755
:105970001092530710925207109255071092540735
:10598000109257071092560710925B0710925A0711
:105990008AE197E090933D0780933C0781E896E089
:1059A00090935D0780935C078DE596E0909359078F
:1059B000809358078CE596E090933F0780933E07CD
:1059C00084B7877F84BF0FB6F894A8958091600054
:1059D000886180936000109260000FBE80E890E0C4
:1059E0000FB6F89480936100909361000FBE80E53C
:1059F0009FE090931F0480931E040E94D3040E9492
:105A00009E058091E20084608093E200789480910A
:105A1000FB068823A1F01091E9001F709091EC0023
:105A2000892F817090FD80E8182B1092E9008091F9
:105A3000E80083FD0E9490191F701093E90082E036
:105A400084BD93E095BD9AEF97BD80936E000AEEFA
:105A500011E0D8018D918D018F3F11F00E94520FFE
:105A6000B1E0003F1B07A9F700EF11E088EFE82E37
:105A700081E0F82EF80181918F018F3F11F00E9493
:105A8000520FE016F106B1F786E0E5EEF4E0DF0133
:105A9000282F1D922A95E9F7E4E9F4E0DF011D9231
:105AA0008A95E9F790E080E00E94F631883E9E4FAB
:105AB00011F00E947D1D82E090E00E94EE31809303
:105AC000EB040E946D1890939B0480939A0483E0EA
:105AD00090E00E94EE31682F70E090E080E00E943C
