:100000000C9402030C9449030C9449030C94490387
:100010000C9449030C9449030C9449030C94490330
:100020000C9449030C9449030C946F310C944332A3
:100030000C943B280C9449030C9449030C944903F9
:100040000C9449030C9449030C9449030C94490300
:100050000C9449030C94AE280C9449030C94490366
:100060000C9449030C9449030C9449030C944903E0
:100070000C9449030C9449030C9449030C944903D0
:100080000C9449030C9449030C9449030C944903C0
:100090000C9449030C9449030C9449030C944903B0
:1000A0000C9449030C9449030C944903A847BA5C87
:1000B0005F5D605DBB5C475C485CB25C495C4A5C10
:1000C0004B5C4C5C4D5C4E5C4F5CAA00505C515CE0
:1000D000525C535C545C555C565CA900575C585CA0
:1000E000595C5A5C5B5C5C5C5D5C00005E5C5F5C08
:1000F000605C615C625C635C645C0000655C665CC7
:10010000675C685C695C6A5C6B5C00000100010014
:100110005F5D605D0100825D835D0100845D855DE2
:10012000865D875D885D895D8A5D01008B5D8C5D84
:100130008D5D535C545C555C565C0100575C585CAB
:10014000595C5A5C5B5C5C5C5D5C00005E5C5F5CA7
:10015000605C615C625C635C645C0000655C665C66
:10016000675C685C695C6A5C6B5C000001000100B4
:100170005F5D605D0100825D835D0100845D855D82
:10018000865D875D885D895D8A5D01008B5D8C5D24
:100190008D5D8E5D8F5D905D915D0100925D935DE3
:1001A000595C5A5C5B5C5C5C5D5C00005E5C5F5C47
:1001B000605C615C625C635C645C0000655C665C06
:1001C000675C685C695C6A5C6B5C00000100010054
:1001D0005F5D605D0100825D835D0100845D855D22
:1001E000865D875D885D895D8A5D01008B5D8C5DC4
:1001F0008D5D8E5D8F5D905D915D0100925D935D83
:10020000945D955D965D975D985D0000995D5F5C7E
:10021000605C615C625C635C645C0000655C665CA5
:10022000675C685C695C6A5C6B5C000001000100F3
:10023000905C915C010001000100010001000100DF
:1002400001000100010001000100010001000100A6
:100250000100010001000100010001000100010096
:100260000100010001000100010000000100010087
:100270000100010001000100010000000100010077
:10028000010001000100010001000000A847BA5C64
:100290005F5D605DBB5C6B5C6A5CB25C695C685CAA
:1002A000675C665C655C645C635CAA00625C615C64
:1002B000605C5F5C5E5C5D5C5C5CA9005B5C5A5C86
:1002C000595C585C575C565C555C0000545C535C50
:1002D000525C515C505C4F5C4E5C00004D5C4C5C71
:1002E0004B5C4A5C495C485C475C000001000100D3
:1002F000915C905C0100010001000100010001001F
:1003000001000100010001000100010001000100E5
:1003100001000100010001000100010001000100D5
:1003200001000100010001000100000001000100C6
:1003300001000100010001000100000001000100B6
:1003400001000100010001000100000001009D5CAE
:10035000815C825C9E5C655D625D01000000635DA6
:100360000000645D000000000000000000000000CC
:10037000C95C665DC85C0000C75C00000000C65C2C
:10038000675DCD5C0000CC5C00000000CB5C685D6C
:10039000CA5C0000C55C0000C45C00000000DF5CBB
:1003A0000000615D0000C35C695D000000010101A7
:1003B0000101010101010202020202020202020322
:1003C00003030303030303040404040404040505F2
:1003D00005050506060606060707070707080808B5
:1003E00008090909090A0A0A0B0B0B0C0C0C0D0D64
:1003F0000D0E0E0E0F0F0F101011111112121313FC
:100400001414151516161717181819191A1A1B1B74
:100410001C1D1D1E1E1F20202122222324242526D0
:1004200026272829292A2B2C2D2D2E2F3031323208
:10043000333435363738393A3B3C3D3E3F40414214
:10044000434445464748494A4C4D4E4F50515354FA
:10045000555658595A5B5D5E5F61626465666869AE
:100460006B6C6D6F7072737577787A7B7D7E80822E
:10047000838587888A8C8E8F91939596989A9C9E77
:10048000A0A2A3A5A7A9ABADAFB1B3B5B7BABCBE87
:10049000C0C2C4C6C9CBCDCFD1D4D6D8DBDDDFE254
:1004A000E4E7E9EBEEF0F3F5F8FAFDFF1E03630075
:1004B000680072006F006D00610074006F006E00D4
:1004C00065006D0069006E00690000000E033300D6
:1004D00061007200610068007400000004030904F8
:1004E00009029F00040100A0FA09040000010301B1
:1004F00001000921110100012240000705810308C4
:10050000000A090401000103000000092111010093
:10051000012232000705820320000A080B020201B3
:10052000010000090402000001010000092401008B
:10053000010900010309040300020103000007246C
:10054000010001410006240201010006240202020A
:10055000000924030103010201000924030204012C
:100560000101000905040240000500000525010104
:100570000109058302400005000005250101031261
:1005800001100100000008EDFEB4F40100010200BA
:100590000105010980A101850319012AB700150190
:1005A00026B700950175108100C0050C0901A10155
:1005B000850419012AA002150126A00295017510D3
:1005C0008100C005010906A101050719E029E71509
:1005D00000250195087501810295017508810105C5
:1005E00007190029FF150026FF00950675088100F0
:1005F00005081901290595057501910295017503F5
:100600009101C00011241FBECFEFDAE0DEBFCDBFE5
:1006100004B603FE27C08091710890917208A091E2
:100620007308B09174088730904BA740B04BD1F459
:100630001092710810927208109273081092740848
:1006400014BE84B7877F84BF0FB6F894A8958091B5
:100650006000886180936000109260000FBEE0E04F
:10066000F8E3099514E0A0E0B1E0E6EFFAE602C095
:1006700005900D92AC35B107D9F728E0ACE5B4E0B0
:1006800001C01D92A137B207E1F70E94562E0C94CB
:100690003D350C940000882311F0815008958BE0C3
:1006A00008958B3010F48F5F089580E00895EF92E5
:1006B000FF920F931F93CF93DF9300D000D000D011
:1006C000CDB7DEB7811117C084E0689FF001112417
:1006D000EB54FD4FF080E280C7010E943026B70145
:1006E0000E9493088C01E982FA828C32ECE59E0725
:1006F00080F40E94C60781E026960FB6F894DEBF0C
:100700000FBECDBFDF91CF911F910F91FF90EF9062
:10071000089581E08B83BE016F5F7F4FC8010E9407
:10072000CA0B8AE090E0EFE9FFE03197F1F700C0F3
:1007300000000197C1F71B82BE016F5F7F4FC801A8
:100740000E94CA0BD8CF0E9490198FE70E944A1AC4
:100750004FEF6FEF8AEA90E00E94E11987E00C9476
:10076000B0198091D605807F82608093D6058091F4
:10077000D705807885678093D705E0E6F4E08FEFB2
:10078000819394E0E93AF907D9F761E070E080E0FD
:1007900090E00E94DD2461E070E080E090E00E9443
:1007A000192587E00E94B019109290020895E6ED95
:1007B000F5E080818F7080831092A90481E080939E
:1007C000910208950E94D70310925F040895FF924A
:1007D0000F931F93CF93DF93082F6A561091D7057D
:1007E0001F77862F90E0E901C80FD91F3881FA01E1
:1007F00022812223A9F03F3F69F4815D934A0E9440
:10080000BB0BF82E212F482F602F87E797E00E941F
:100810002529F882DF91CF911F910F91FF900895C4
:100820003F3F39F0212F432F602F87E797E00E9449
:1008300035298FEF8883EECF80915E04823141F1BC
:1008400028F4882341F08C30A9F00895883171F1A3
:100850008432D1F1089580915F04882331F061E101
:1008600070E080E090E00C94192561E070E080E099
:1008700090E0F9CF80915F04882329F062E170E075
:1008800080E090E0F0CF62E070E080E090E0EBCFBD
:1008900080915F04882329F064E170E080E090E0BB
:1008A000E2CF64E070E080E090E0DDCF80915F0413
:1008B000882329F068E170E080E090E0D4CF68E020
:1008C00070E080E090E0CFCF80915F04882329F032
:1008D00060E670E080E090E0C6CF60E270E080E02B
:1008E00090E0C1CFFB0185362DE5920709F457C092
:1008F00090F581362DE5920709F4D8C058F48F356C
:100900002DE5920709F47CC080369D4509F4A4C00A
:1009100081E00895228183363DE5930709F464C0A0
:1009200008F4CFC02223A1F32091AA0481E0282754
:100930002093AA049091D7058091D805222309F429
:100940001EC190689093D705887F8093D80583E077
:1009500080939202DDCF88362DE59207A9F170F4DD
:1009600086362DE5920731F187369D4589F68281DD
:10097000882371F20E94E20382E123C089362DE5CB
:10098000920751F1833B3DE5930710F620E634E0F2
:10099000AB01BC01809192020E94E703B9CF828132
:1009A000882309F4B5CF0E94E20310925E040E94EE
:1009B0001C04AECF8281882309F4AACF0E94E203EF
:1009C0008CE080935E04F3CF8281882309F4A0CF6A
:1009D0000E94E20388E1F5CF8281882309F498CF51
:1009E0000E94E20384E2EDCF222309F491CF0E941A
:1009F000D70380915F0491E0892780935F04D7CF6C
:100A00008281882309F484CF8091A9059091AA0559
:100A1000A091AB05B091AC0584309105A105B1055D
:100A200049F078F40197A109B1090297A105B10530
:100A300008F06ECF8091A9040E944B038093A90413
:100A400067CF88309105A105B105A1F38097A10575
:100A5000B10509F05DCFEECF8281882309F458CF2C
:100A60008091A9059091AA05A091AB05B091AC0524
:100A700084309105A105B10549F068F40197A109F9
:100A8000B1090297A105B10508F042CF8091A904F0
:100A90000E945103D3CF88309105A105B105B1F370
:100AA0008097A105B10509F033CFF0CF828188236B
:100AB00009F42ECF8091900291E0892780939002D3
:100AC00027CF222309F424CF4091A9055091AA05EC
:100AD0006091AB057091AC058091D6054439510504
:100AE0006105710551F0A8F4415951096109710975
:100AF0004230510561057105D8F49091910221E0D1
:100B00002927209391029093A904992331F1806FB2
:100B100025C0403A51056105710539F1403E510546
:100B20006105710581F0483951056105710529F3A9
:100B30001092910291E09093A904806F8093D60562
:100B400090935F0434CF9091910221E0922790938B
:100B50009102992331F01092A9048F708093D605E9
:100B6000D7CE9BE09093A904D2CF109291029BE044
:100B70009093A904806F8093D60581E03ECF9F7744
:100B80009093D705887F8093D80582E0E1CEDF92ED
:100B9000EF92FF920F931F93CF93DF93082FF62EC0
:100BA000E42E809190028823E9F08091A90419E055
:100BB000811101C01CE0D0E0C0E08CE0D82E809113
:100BC000A904FE01D89EE00DF11D1124E45DFC4F47
:100BD00080812E2D4F2D602F90E00E94C81121960C
:100BE000C11768F3DF91CF911F910F91FF90EF90A4
:100BF000DF900895EF92FF920F931F93CF93DF93AF
:100C00000E949419882309F18091A9059091AA0561
:100C1000A091AB05B091AC0582319105A105B1055C
:100C200009F4E0C038F584309105A105B10509F457
:100C300026C190F481309105A105B10509F4B4C035
:100C40000297A105B10509F407C1DF91CF911F916A
:100C50000F91FF90EF90089588309105A105B1059F
:100C600009F420C14197A105B10579F740E069E198
:100C700083E39DC080329105A105B10509F49FC0B1
:100C8000E8F484319105A105B10509F4BFC0489786
:100C9000A105B105D1F640E069E183E30E94C705F3
:100CA000C5E0D3E0899120E040E063E390E00E945A
:100CB000C811F3E0C830DF07A9F7C7CF8036910528
:100CC000A105B10509F4B5C008F4BFCF805891095A
:100CD000A109B109C1E0D0E081389105A105B105B4
:100CE00008F0B3CF29E143E360E0CE010E94C811D0
:100CF0002196C530D105B1F78091C00229E143E3C7
:100D000060E090E00E94C8118091C60229E143E3AF
:100D100060E090E00E94C8118091CC0229E143E399
:100D200060E090E00E94C8110DEB12E085E0E82E33
:100D300083E0F82EE801899126E041E26BE290E041
:100D40000E94C8118BA120E043E360E090E00E9484
:100D5000C8118DA920E043E360E090E00E94C81133
:100D6000F70181917F0120E043E360E090E00E9481
:100D7000C811F70183A120E043E363E390E00E9400
:100D8000C811F2E0C03CDF07B1F6F80181A129E10A
:100D900043E360E090E00E94C8110A5F1F4FF3E058
:100DA0000B301F0791F751CF46E061E28BE2DF91F4
:100DB000CF911F910F91FF90EF900C94C70540E0E9
:100DC00063E383E30E94C705C9E2D3E0899120E091
:100DD00040E063E390E00E94C81183E0CC32D80782
:100DE000A9F733CF40E069E183E30E94C705C1EE74
:100DF000D2E004EE12E0899120E040E063E390E06D
:100E00000E94C8110C171D07B1F71FCF40E069E120
:100E100083E30E94C705C3EFD2E0899120E040E060
:100E200063E390E00E94C811E2E0C63FDE07A9F745
:100E30000CCF40E069E183E30E94C705C9E2D3E03B
:100E4000899120E040E063E390E00E94C81183E0D4
:100E5000CC32D807A9F7F9CE40E063E380E00E94E6
:100E6000C705C1EED2E0899120E040E063E390E065
:100E70000E94C811E2E0C43EDE07A9F7E6CE40E0DA
:100E800063E380E00E94C705C3EFD2E0899120E0D0
:100E900040E063E390E00E94C811F2E0C63FDF0744
:100EA000A9F7D3CE40E063E380E00E94C705C5E028
:100EB000D3E0899120E040E063E390E00E94C81114
:100EC00083E0C830D807A9F7C0CECF93DF939C0149
:100ED0003A9521153F4168F5EC01CC27D170DC0132
:100EE000AA27B270AC01442754709C0122273870A5
:100EF00094FF11C080E1CD2B09F480E0AB2B09F009
:100F00008062452B09F08064232B09F08068FB0187
:100F1000DF91CF91099481E0CD2B09F480E0AB2BD8
:100F200009F08260452B09F08460232B81F38860EF
:100F3000EECFDF91CF910895CF93DF93EC01805EE8
:100F40009109089720F06DE971E2209711F46AEB9E
:100F50007FE1CE010E9465078C2FDF91CF910C9429
:100F60002D1FCF93DF93EC010E94731FCE01805E93
:100F70009109089720F064EA71E2209711F461EC7E
:100F80007FE1CE01DF91CF910C946507CF93DF9382
:100F9000EC010E949C078FE39CE90197F1F700C0E8
:100FA0000000CE01DF91CF910C94B10781E008954C
:100FB0000C94720408950C94DA071F93CF93DF9377
:100FC00000D000D00F92CDB7DEB749835A836B8330
:100FD0003091520589819A8131111DC06623B9F083
:100FE0002223A9F00E943026182F682F89819A8128
:100FF0000E94DB2569817A81812F0F900F900F90DD
:101000000F900F90DF91CF911F910C9493080E9445
:101010000826182FEFCF0E94302669817A81EDCF04
:10102000FC01262F408151816281738184810C945F
:10103000DD07CF93DF93EC0160E00E941008BE0152
:10104000DF91CF910C94DB070E946D0A0E94391941
:101050000C94920A0C94950A08950E94BD210E9456
:101060002C082FEF84E39CE0215080409040E1F772
:1010700000C000000C94D2280F931F93CF93DF93EE
:10108000EC0161E00E9410088C01BE010E94D807AB
:10109000882389F1BE01C8010E94CA0B882359F137
:1010A000BE01C8010E94121C882329F1BE01C8019B
:1010B0000E94641C8823F9F0BE01C8010E94871DAC
:1010C0008823C9F0BE01C8010E948E1A882399F0B6
:1010D0008A81882339F001158CE5180751F00F3DFE
:1010E0001C4579F0CE01DF91CF911F910F910C94A7
:1010F000D6070E942D0880E0DF91CF911F910F91BC
:1011000008950E949B27F7CF08950C94840881E0EE
:1011100008950C948708CF93C82F0E9485088C2FC0
:10112000CF910C948908E72FF0E096E0899FE00DBD
:10113000F11D112483E0EE0FFF1F8A95E1F7E60F02
:10114000F11DEE0FFF1FE455FF4F85919491089517
:10115000CF93DF930E9493080E947B09EC018115D5
:1011600021E5920778F5811530E5930708F076C000
:101170008F3B910580F4883A910508F064C0853A68
:10118000910508F058C08430910588F4019779F0F2
:10119000D0E0C0E00CC08115904268F4C11581E038
:1011A000D80728F4CE01805E9109089788F7CE0110
:1011B000DF91CF910895C11590E4D90748F3DF700E
:1011C000D06AF5CF811524E5920778F4811533E5CF
:1011D000930708F06FC0811542E5940708F05AC0E4
:1011E000D82FCC27C16FD06AE2CFC1158AE5D807C6
:1011F00070F4C11599E5D90708F06FC0C11528E54D
:10120000D20730F2DC2FCC27C06FD06AD0CFCE010E
:1012100090568115904208F0BBCF8D2F8F710E94A0
:10122000120A90E0982F882788279F719C012C2B09
:10123000E901D062BCCFC55AD0E0C651DC4FC881AD
:10124000D0E0D064B4CFC85AD0E0CC0FDD1FC45476
:10125000DC4F0990D881C02DD464A9CF64E0969565
:1012600087956A95E1F783702C2F26952695237034
:1012700040E2249F90011124382B8C2F8370C1E011
:10128000D0E002C0CC0FDD1F8A95E2F7C22BD32B32
:10129000DC688DCF8370992721E030E002C0220FF7
:1012A000331F8A95E2F7C695C69580E2C89FE00194
:1012B0001124ECCF8370992721E030E002C0220F87
:1012C000331F8A95E2F7C695C69590E2C99FE00163
:1012D0001124C22BD32BDA686ACF8C2F8F700E9417
:1012E000120A34E0D695C7953A95E1F7CF709C2F56
:1012F000EC01D0695CCF82389105B1F1B0F4813353
:10130000910509F475C048F48932910509F469C062
:101310008A32910509F473C008958533910509F463
:1013200059C08933910501F10895833E9105A9F1D2
:1013300038F4803E9105F9F0823E910549F1089517
:10134000863E9105A9F1873E9105C9F1843E91053C
:1013500019F52091C90521FF1FC08091C80584FDA2
:1013600014C087EE90E008952091C8052370A1F085
:1013700080EE90E008952091C80520FD47C030918F
:10138000C90530FF09C024FF44C090E080E004C0DC
:101390002091C80522FDF7CF08952091C80522FDB0
:1013A0003BC03091C90530FDE3CF24FFF5CFEDCF31
:1013B0002091C80523FFF0CF24FDE7CFD2CF2091A5
:1013C000C80523FD2CC03091C90531FFEECF84EE56
:1013D00090E008952091C80525FFDECF89E290E0D6
:1013E00008952091C80525FFD7CF85E390E00895A3
:1013F0002091C80526FFD0CF8AE290E00895209181
:10140000C80526FFC9CF81E390E0089589E390E005
:10141000089583EE90E0089582EE90E0089586EEC0
:1014200090E008959091C80592FF06C0282F28717A
:101430002830F9F4877F846093FF06C0282F287135
:101440002831F1F4877E84612091C90520FF06C010
:10145000382F38713830D9F4877F816021FF06C07A
:10146000282F28712831D1F4877E816194FD877EF1
:101470000895282F24712430F9F68B7F8860DCCF03
:10148000282F2471243101F78B7E8861DDCF382F1E
:101490003171313019F78E7F8860E0CF282F2171AC
:1014A000213121F78E7E8861E1CF0C94FB260E94CA
:1014B000F00A8FE39CE90197F1F700C000000E9459
:1014C000F00A80E00E94970A80FF04C00E94550A3B
:1014D0000C94D22808950C94570A0E940127811178
:1014E00002C00E949B270E940C278093BC050E948B
:1014F00014279093C9058093C8050E946B0A0E9427
:101500001027682F70E090E080E00E94DD24609159
:10151000A9057091AA058091AB059091AC050C943A
:10152000172508950C94910A08950C94940AE82FB5
:10153000F0E0E053FA4F80810895089580EA8A959B
:10154000F1F7089500C008950C949E0AF894E82FCE
:10155000E295EF70F0E031A1282F2F7081E090E04C
:1015600001C0880F2A95EAF7982F9095932391A3AD
:1015700092A1892B82A3789408950F931F93CF9300
:10158000DF9386EC0E94A60A87E90E94A60A86E6F7
:101590000E94A60A84E90E94A60A80E90E94A60A7F
:1015A00081E90E94A60ACDEED3E005EF13E0899110
:1015B0000E94A60A0C171D07D1F7EAECF5E0A0ED92
:1015C000B5E011921D9285E0E03DF807D1F786E085
:1015D0000E94670BDF91CF911F910F910C9424080B
:1015E000CF92DF92EF92FF920F931F93CF93DF93EF
:1015F000C5EFD3E00AEC15E0D12CEE24E394F12CF6
:101600008991F894E82FE295EF70F0E021A18F70B6
:10161000A70102C0440F551F8A95E2F7CA01922F15
:10162000982B91A392A18095892382A378940E94FC
:10163000A20AEDEEF3E030E020E0C12C4191A42FAE
:10164000A295AF70B0E090968C9190E04F7002C080
:10165000959587954A95E2F780FD35C08E2D022E2F
:1016600001C0880F0A94EAF7C82A2F5F3F4F28303D
:10167000310521F7FE01319780810E94A60A0E9460
:10168000A40AF8018081C81601F1C08281E0D82A3D
:101690000F5F1F4FF3E0CB3FDF0709F0B1CF2D2DD8
:1016A00046E060ED75E08AEC95E00E94680B0E94D0
:1016B0002A088D2DDF91CF911F910F91FF90EF9010
:1016C000DF90CF90089580E0CFCF80E0E0CF089505
:1016D000FF920F931F93CF93DF93F82E092F162FAE
:1016E000D72FC42F222349F081E08093AD040E94BC
:1016F0006B289093AC048093AB048091AD04882355
:10170000A1F08091AB049091AC040E9483280697CD
:1017100060F0EF2DF02FA12FBD2FCE0FDF2FD11DA9
:10172000EC17FD0741F41092AD04DF91CF911F91AA
:101730000F91FF90089581918D93F2CF84E0809373
:10174000D6058FE78093D7058091D805807880648F
:101750008093D805E2EBF4E08FEF819394E0EA3FC9
:10176000F907D9F71092B1041092B0041092AF04A7
:101770001092AE0408959091D605292F2F7095955B
:101780009595959595959F523CE0239F900D11243A
:10179000890F0895FF920F931F93CF93DF93FB015F
:1017A0008F3A2CE5920708F085C08F394CE59407F5
:1017B00008F08DC180392CE5920750F583384CE54F
:1017C000940708F040C181382CE5920760F4873710
:1017D0004CE5940708F01FC18F322CE5920708F002
:1017E000DFC0C1E011C181384CE5940709F420C184
:1017F00082389C45B1F78281882309F4EBC080913F
:10180000D605982F9F70993008F0E4C09F5F19C1EA
:101810008D394CE59407A0F582392CE5920708F044
:101820002FC180394CE5940709F418C181399C45D2
:10183000C1F68281882309F4CDC02091D605822F7C
:10184000859585958595859586300CF0C3C091E08A
:10185000980F9295907F9595959595959595392F9B
:101860003295307F2F70232B2093D60518160CF05D
:10187000B1C097FFAFC08295807F922F9F70D4C078
:101880008D394CE5940709F409C18E399C4509F05E
:10189000A8CF8281882309F49DC08091D705982F15
:1018A0009F779F3709F496C0933708F00EC1935F76
:1018B0009F77F2C0853B4CE5940709F466C1C8F5F3
:1018C000813B4CE5940709F432C1D8F48F3A4CE5DA
:1018D000940709F40EC1803B9C4509F082CF8281B8
:1018E000882309F477C02091D705322F331F33277F
:1018F000331F9091D805892F8770880F832B8F5FB6
:1019000009C16091D7053091D8052281833B4CE510
:10191000940709F42EC108F420C121112FE7862F66
:10192000881F8827881F632F6770660F682B42E423
:101930000FC1883B2CE5920709F43AC180F4863B3D
:101940002CE5920709F421C1873B9C4509F049CF5A
:10195000828181112BC18FEF8093B0043BC08A3B01
:101960002CE5920709F45AC108F443C18B3B9C450E
:1019700009F037CFC2816091D705862F881F88274D
:10198000881F6091D8056770660F682BCC2309F417
:1019900055C14FEF5FE187E797E00E9445291AC0E4
:1019A0002091D705322F331F3327331FD091D8050D
:1019B000D770DD0FD32BF22EE894F7F8C28101ED3A
:1019C000080F10E00E541B4FF8014081CC2389F022
:1019D0004F3F11F0C0E018C00E94BB0BC82F2F2D45
:1019E000482F6D2F87E797E00E942529F801C083D3
:1019F000F1CF4F3F31F02F2D6D2F87E797E00E94F9
:101A000035298FEFF80180838C2FDF91CF911F91C3
:101A10000F91FF90089522812223E1F28757982F9A
:101A20009F708091D605807F892B8093D605D2CF79
:101A30008281882379F28091D605982F9F7051F288
:101A4000915F9F70F0CF2281222321F28958982F35
:101A50009295907F8091D6058F70E6CF8281882302
:101A600009F4B8CF8091D605982F959595959595C1
:101A700095959B3F0CF4AECF915F9295907FECCF04
:101A80002281222309F4A6CF82599CE0899F902DC0
:101A900011249F778091D705807815C08281882393
:101AA00009F498CF8091D705982F9F7709F492CFAA
:101AB00080789F3721F485678093D7058BCF9D3041
:101AC000D8F39D509F77892BF7CF8F67F5CF228171
:101AD000222309F47FCF8F599091D70580FB97F986
:101AE0009093D705869587709091D805987F892B1C
:101AF0007DC08281882309F46DCF2091D705322FD4
:101B0000331F3327331F9091D805892F8770880F93
:101B1000832B815F382F3F7080FB27F92093D705F7
:101B2000832F8695987F982B9093D80553CF8281E9
:101B3000882309F44FCF6091D705862F881F882707
:101B4000881F6091D8056770660F682B20E04BE70F
:101B500087E797E00E9415293DCF21112FE7862FB7
:101B6000881F8827881F632F6770660F682B40E4E3
:101B7000EFCF21112FE7862F881F8827881F632F1B
:101B80006770660F682B41E4E3CF828120E081110A
:101B90002FE76091D705862F881F8827881F6091BF
:101BA000D8056770660F682B43E4D2CF81E0D4CEAE
:101BB0008281882309F40ECF9091D805292F26958C
:101BC000269526952F7081E0820F8F70880F880FE1
:101BD000880F9778892B8093D805982F987709F0EC
:101BE000F9CE220F220F220F8778822B8093D805FF
:101BF000F1CE8281882309F4EDCE8091D805982F0B
:101C0000987709F4E7CE982F969596959695915FDB
:101C10009F70990F990F990F877869CFC281609152
:101C2000D705862F881F8827881F6091D805677081
:101C3000660F682B40E050EEC111ADCE50E040E0A1
:101C400087E797E00E944529DFCE87E797E00E946B
:101C5000472B8091AE049091AF040E94832820917D
:101C6000D8052695269526952F702817190609F070
:101C7000A0F50E946B289093AF048093AE048091EE
:101C8000B004882351F16091D705862F881F8827DB
:101C9000881F6091D8056770660F682B2091B1048A
:101CA00041E087E797E00E9415298091B004909168
:101CB000B10487FF0DC0482F552741950CF450956E
:101CC000941715062CF41092B1041092B0040895E4
:101CD000890F87FD03C08093B10408958FE7FBCF80
:101CE000EF92FF920F931F93CF93DF93EB01E82FB7
:101CF000D11110C0442321F0F0E0E455FC4FE491F1
:101D00006E2F7E2F8E2FDF91CF911F910F91FF901D
:101D1000EF9008950D2F10E0282F30E0442329F094
:101D200024553C4FF901249130E0F6E0CF9FC001EB
:101D30001124EFEFF0E0BF010E94F533AB018C2FCF
:101D400090E0880F991FA5E5A49FB001A59F700D95
:101D50001124861B970B982F990F980FBF01601BBA
:101D6000710B629FD001639FB00D729FB00D112463
:101D70008B2F9D9FB0011124672F7727EF01C61B82
:101D8000D70BBE01629FE001639FD00D729FD00D03
:101D900011247F01E91AF108E09EB001E19E700D67
:101DA000F09E700D1124672F7727E61BF70BE29F3B
:101DB0008001E39F100DF29F100D1124E12F722F6F
:101DC0004230510599F048F44115510569F0413010
:101DD000510581F0EB2F8D2F07C04430510569F07C
:101DE00080F046305105B1F76E2F8DCFE22F7B2F5B
:101DF000812FFACFE22F7D2FF7CFEB2F822F712F7C
:101E0000F3CF7B2F822FED2FEFCF41E00C94700E9C
:101E100030E020E0869F212D969F200D311D11245A
:101E2000C9010895AC018230910508F408959FEF2F
:101E3000413E8EE1580740F49A0195E0369527958A
:101E40009A95E1F798E0920F61E0E62FE90FFF27FE
:101E5000FF1F9F0135952795822F229FF001239F19
:101E6000F00DF00D11244E175F0738F49FEF920F1D
:101E7000961758F78FEF860F08952F3FE9F361E02B
:101E8000620FF6CFE82F86FDE0952E2F2F7086FD8E
:101E90002F5FE695E695E695E670F0E0E550FC4F9D
:101EA0009181929F902D212D112492959F702295C2
:101EB000207F922B2081920F87FD919580E8890FDA
:101EC0000895E42FF0E0EE0FFF1FEC5CFE4F408121
:101ED00034EE439F412D1124E82FF0E050E0445EA2
:101EE0005F4FDA01A21BB1099D01B7FF03C0319515
:101EF0002195310993E0220F331F9A95E1F7AF0145
:101F0000421B530B9A0157FD20E0582F259F212D8E
:101F10001124822F0895622F0895E42FF0E0EE0F30
:101F2000FF1FEC5FFE4F61A9621B0895322F50E046
:101F3000FA01EE0FFF1FEC5FFE4F91A9905297FD43
:101F40009195440F551FFA01EC5CFE4F2081231B35
:101F5000330B290F311D97FD3A95620F0895EF92CB
:101F60000F93972F23E0029FB00111247595679579
:101F70006E0D792F0F91EF9008950F93CF93DF930C
:101F8000D72FC82F47FD41958EE390E0841B910920
:101F900047FD9395889FB001899F700D700D1124A6
:101FA000229FC001239F900D900D1124860F971F33
:101FB0000E94120F982F990F890F682F600F7D2FA5
:101FC0008C2FDF91CF910F9108950F931F93522F74
:101FD00010E0F801EE0FFF1FEC5FFE4FA1A9A05229
:101FE000BB0B9D015203F001539FF00D1124000F14
:101FF000111FD801AC5CBE4F0C910C57110B400364
:102000009001419F300D11242E0F3F1F37FF02C05A
:1020100021583F4F220F232F221F330B620F1F9196
:102020000F9108950F931F93522F10E0F801EE0FB8
:10203000FF1FEC5FFE4FA1A9A052BB0B9D015203F5
:10204000F001539FF00D1124000F111FD801AC5C5B
:10205000BE4F0C910C57110B40039001419F300D66
:1020600011242E0F3F1F37FF02C0215C3F4F96E027
:10207000359527959A95E1F7620F1F910F91089575
:1020800022E8241B08F420E0620F0895EF92FF92EB
:102090000F93970195E0099F200D311D11242F3FCB
:1020A000310519F010F02FEF30E02095382F320F66
:1020B00008F43FEF832F0F91FF90EF900895EF9278
:1020C000FF920F93972F093438F4B701601B710901
:1020D0006F3F710519F010F06FEF70E0485F5F4FD0
:1020E0004131510540F0A901485F5F4F4131510531
:1020F00010F06FEF70E06095482F460F08F44FEF37
:10210000842F37FF02C02D5F3F4F359527953595BA
:1021100027956091DB05620F792F0F91FF90EF906B
:102120000895EF92FF920F939701201B31092F3FE3
:10213000310519F010F02FEF30E0322F3095482F95
:10214000430F08F44FEF842F620F0F91FF90EF9031
:102150000895EF92FF920F939701201B31092F3FB3
:10216000310519F010F02FEF30E02095382F320FA5
:1021700008F43FEF832F0F91FF90EF900895EF92B7
:10218000FF920F931F930E0D1F2D111D9A0157FFE4
:1021900003C031952195310994E0220F331F9A95A0
:1021A000E1F72F3F310519F014F02FEF30E0200F49
:1021B000311F2F3F310519F010F02FEF30E020953F
:1021C000382F320F08F43FEF832F1F910F91FF90AC
:1021D000EF900895FC019B01009729F480E077FFC0
:1021E0002BC080E80895AC0197FF04C04427552711
:1021F000481B590BB901640F751F37FD10C0241B14
:10220000350BC901A5E0880F991FAA95E1F70E9437
:10221000093480E2861BF7FF0FC081950895CB013A
:1022200065E0880F991F6A95E1F7BA01621B730B8D
:102230000E94093480E6EECF08950F931F93CF9349
:10224000DF93D62FC72F182FC901212F201B022F54
:10225000BA010E94EA10982F990F990F891B800FDD
:10226000282F219F212D1124822F6D2F7C2FDF916C
:10227000CF911F910F910895EF920F931F93CF93DA
:10228000DF93D62FC72F182FC9010E19010FBA01DE
:102290000E94EA10081B202F219F212D1124822F3C
:1022A0006D2F7C2FDF91CF911F910F91EF900895AB
:1022B0000F93CF93DF93D72FC82FC901BA010E9484
:1022C000EA10682F600F7D2F8C2FDF91CF910F9137
:1022D0000895EF920F93CF93DF93D72FC82FC901A3
:1022E0000E19BA010E94EA10602F681B7D2F8C2FF7
:1022F000DF91CF910F91EF9008950C94050F46E078
:1023000050E06CE170E08AED95E00C94C93446E051
:1023100050E06CE170E08AED95E00C94E734EAED72
:10232000F5E085E080838091B2029091B302A091A4
:10233000B40281839283A3838FE784838FEF8583A5
:102340000C94871180E008950F931F93CF93DF9330
:10235000C82FD62F8A010E94A21198E0C99FB00110
:1023600011246C5F7E4F6D0F711DFB0190819F3FAB
:1023700029F0F801E80FF11D90838F5FDF91CF9175
:102380001F910F910895E0910904F0910A040994B6
:10239000E0910504F091060409943F924F925F92F8
:1023A0006F927F928F929F92AF92BF92CF92DF9265
:1023B000EF92FF920F931F93CF93DF933C012B017A
:1023C000FC01C08188E1C89FC02D112418E11C0FB9
:1023D000F12E153710F034E7F32E6091DE05669587
:1023E0008091E0059091E1050E94080F382ED0E021
:1023F000CE01880F991F9C012C5F3E4F6901CF15BC
:10240000B0F081E0143708F080E0DF91CF911F91A8
:102410000F91FF90EF90DF90CF90BF90AF909F9083
:102420008F907F906F905F904F903F900895FE0146
:10243000E45EFD4F8081F3019181892379F1F601FA
:1024400080A9282F2C57330B590181A9E82FE0527E
:10245000FF0B4F01AA9C9001AB9C300D300D112455
:10246000EE9FC001EF9F900D900D1124820F931FDE
:102470000E94120F082F6091DB057091DC0580919E
:10248000DD05E32C9401A501F20109950E947D115F
:10249000462F282F672FCE010E94C811F2E0CF0EE1
:1024A000D11C2196ACCF6CE371E10C94CD116FEA95
:1024B0007FE00C94CD1169E671E10C94CD118F92FF
:1024C0009F92AF92BF92CF92DF92EF92FF920F93C3
:1024D0001F93CF93DF935C016B01FC01C08188E106
:1024E000C89FC02D112418E11C0F912E153710F034
:1024F00034E7932E6091DE0566958091E00590911A
:10250000E1050E94080F882ED0E0CE01880F991FA8
:102510009C012C5F3E4F7901C91588F081E014378A
:1025200008F080E0DF91CF911F910F91FF90EF9025
:10253000DF90CF90BF90AF909F908F900895FE0155
:10254000E45EFD4F8081F50191818923C1F0F7019F
:1025500021A92052330B40A94C57550B6091DB0544
:102560007091DC058091DD05082DF60109950E942A
:102570007D11462F282F672FCE010E94C811F2E04F
:10258000EF0EF11C2196C8CF6DE171E10C945F1242
:102590006DEB7FE00C945F1268E571E10C945F12C3
:1025A000BF92CF92DF92EF92FF920F931F93CF9340
:1025B000DF937C018B01FC01C08188E1C89FC02DA5
:1025C000112498E1D92EDC0ECD2CF4E7FD1510F482
:1025D00084E7C82E6091DE056695669521E0620F5E
:1025E00008F46FEF8091E0059091E1050E94080FDB
:1025F000B82ED0E0CC1578F081E093E79D1508F473
:1026000080E0DF91CF911F910F91FF90EF90DF90CD
:10261000CF90BF900895FE01E45EFD4F8081F701E9
:102620009181892391F06091DB057091DC058091A7
:10263000DD052B2D4C2FF80109950E947D11462FA9
:10264000282F672FCE010E94C8112196D3CF61E6B3
:102650007FE00C94D0126BE87FE00C94D0126DE810
:102660007FE00C94D01266E97FE00C94D0127F9248
:102670008F929F92AF92BF92CF92DF92EF92FF9292
:102680000F931F93CF93DF935C016B01FC01C0811B
:1026900088E1C89FC02D112418E11C0F912E153719
:1026A00010F034E7932E6091DE0566956695809173
:1026B000E0059091E1050E94080FF82E80E48F0D4F
:1026C0000E94420F90E8892E880E8F2D0E94420FA3
:1026D00020E8722E780ED0E0C91590F081E0143712
:1026E00008F080E0DF91CF911F910F91FF90EF9064
:1026F000DF90CF90BF90AF909F908F907F90089584
:10270000FE01E45EFD4F8081F50191818923A1F0F6
:102710006091DB057091DC058091DD05EF2C0C2FBD
:10272000272D482DF60109950E947D11462F282F4F
:10273000672FCE010E94C8112196CECF65EE7FE0B3
:102740000C94371362E170E10C943713AF92BF928F
:10275000CF92DF92EF92FF920F931F93CF93DF936D
:102760008C017B01FC01C08188E1C89FC02D112430
:1027700028E1B22EBC0EAB2CF4E7FB1510F494E765
:10278000A92E2091DE0531E0230F08F42FEF30E071
:1027900050E040E06FEF7FEF80E090E00E941D345A
:1027A0006901D0E02C2FCA1580F081E0F3E7FB151A
:1027B00008F480E0DF91CF911F910F91FF90EF908F
:1027C000DF90CF90BF90AF900895FE01E45EFD4F83
:1027D0008081F8019181892311F14091E4054150F4
:1027E000042E000C550B47FF1CC0C6016091DE058E
:1027F00021E0620F08F46FEF0E94080FAC016091B6
:10280000DB057091DC058091DD05F70109950E94DB
:102810007D11462F282F672FCE010E94C8112196C7
:10282000C1CFFA01EC51FA4F858982130AC0FA012F
:10283000EE0FFF1FEC51FA4F878D90A18C159D056F
:10284000A8F241505109CFCF60E470E10C94A61377
:102850002F923F924F925F926F927F928F929F92B0
:10286000AF92BF92CF92DF92EF92FF920F931F939E
:10287000CF93DF93CDB7DEB72B970FB6F894DEBFBB
:102880000FBECDBF8C832B015F834E83FB01F08194
:1028900088E1F89F802D11248983885E8A838B8349
:1028A000853710F024E72B833091E4053D8399812F
:1028B000892F90E09B878A87880F991FFC01EC5F26
:1028C000FE4F6F01FC818F2F90E09C012F5F3F4FE7
:1028D00039872887EB81FA85FE17F0F081E02A819D
:1028E000243708F080E02B960FB6F894DEBF0FBEB9
:1028F000CDBFDF91CF911F910F91FF90EF90DF90AF
:10290000CF90BF90AF909F908F907F906F905F908F
:102910004F903F902F900895EA85FB85E45EFD4F30
:102920008081F2019181892301F12090DB053090B3
:10293000DC05288539852C513A4F39013C81398392
:1029400010E029813D812317C8F02091DD05129FF9
:10295000112D1124B101812F0E947D11462F282FA6
:10296000672F8A859B850E94C8118A859B85019661
:102970009B878A8792E0C90ED11CACCFF30181916D
:102980003F01F601A0A8A81ABB0881A8F301818520
:10299000881A9908AA9C9001AB9C300D300D112427
:1029A000889CC001899C900D900D1124820F931F6B
:1029B0000E94120F082F6091DE0521E0620F08F4DB
:1029C0006FEFF301EE0FFF1FE45EF540838D948DF2
:1029D0000E94080F7C019401A501B101812FEE81B5
:1029E000FF8109951B01F981FF5FF983182FA9CF9A
:1029F00046E450E1BC0180E00C9428144FE550E11E
:102A0000BC0180E00C94281441E950E1BC0180E055
:102A10000C94281449EA50E1BC0180E00C9428147D
:102A20004FEB50E1BC0180E00C942814BF92CF9290
:102A3000DF92EF92FF920F931F93CF93DF937C016E
:102A4000FC01C08188E1C89FC02D112418E11C0F32
:102A5000012F153708F004E76091DB057091DC0564
:102A60008091DD050E947D11D62EC72EB82ED0E0B4
:102A7000C01770F081E0143708F080E0DF91CF914B
:102A80001F910F91FF90EF90DF90CF90BF9008952E
:102A9000FE01E45EFD4F8081F7019181892331F0D1
:102AA0002B2D4D2D6C2DCE010E94C8112196E0CF0B
:102AB000DF92EF92FF920F931F93CF93DF938C01DE
:102AC000FC01E45EFD4F8081682381F1D090DC053C
:102AD000D091DD05C091DB05EC2EF12C0E94B034C5
:102AE000282FC7018C549F4F68E671E00E9409347B
:102AF0008E199F0997FD03969595879595958795CE
:102B000023706C2F289F600D11247D2D8D2F0E9426
:102B10007D11462F282F672FC801DF91CF911F917C
:102B20000F91FF90EF90DF900C94C811DF91CF913F
:102B30001F910F91FF90EF90DF900895DF92EF9239
:102B4000FF920F931F93CF93DF938C01FC01C281FF
:102B5000C11125C06091DE0520E1620F08F46FEF1E
:102B60008091E0059091E1050E94080F6AE070E015
:102B70000E94F533892B51F40E94B03464E770E071
:102B80000E940934F80161810E9458158C2FDF9151
:102B9000CF911F910F91FF90EF90DF900895C0812A
:102BA00088E1C89FC02D112488E1D82EDC0E8D2D20
:102BB000F4E7FD1508F484E7D0E0E82EF12CCE15FB
:102BC000DF0534F0C1E0F3E7FD1500F7C0E0DECF2C
:102BD000F8016181CE010E9458152196F0CF1F9314
:102BE000CF93DF93EC01FC01E45EFD4F808168230D
:102BF000A1F00E94B034182F0E94B034612F782FBA
:102C00008091DD050E947D11462F282F672FCE0170
:102C1000DF91CF911F910C94C811DF91CF911F913B
:102C20000895DF92EF92FF920F931F93CF93DF935C
:102C30008C01FC01C281C11125C06091DE0520E13B
:102C4000620F08F46FEF8091E0059091E1050E941A
:102C5000080F65E070E00E94F533892B51F40E9463
:102C6000B03464E770E00E940934F80161810E9489
:102C7000EF158C2FDF91CF911F910F91FF90EF9067
:102C8000DF900895C08188E1C89FC02D112488E19C
:102C9000D82EDC0E8D2DF4E7FD1508F484E7D0E086
:102CA000E82EF12CCE15DF0534F0C1E0F3E7FD1579
:102CB00000F7C0E0DECFF8016181CE010E94EF1580
:102CC0002196F0CF6F927F928F929F92AF92BF9298
:102CD000CF92DF92EF92FF920F931F93CF93DF93E8
:102CE0006C01FC01C08188E1C89FC02D112448E11E
:102CF000B42EBC0E9B2CF4E7FB1510F434E7932E96
:102D00002091DE0530E050E040E06FEF7FEF80E0A3
:102D100090E00E941D347901D0E08E01000F111F58
:102D20000C5F1E4F22E8822EC915A0F081E093E7C8
:102D30009B1508F480E0DF91CF911F910F91FF90D8
:102D4000EF90DF90CF90BF90AF909F908F907F904B
:102D50006F900895FE01E45EFD4F8081F601918140
:102D6000892319F16090DC057090DD05A090DB05EA
:102D70004091E4054150042E000C550B47FF19C04B
:102D8000C7016091DE050E94080F682D282F621B85
:102D900008F460E06A0D762D872D0E947D11462F84
:102DA000282F672FCE010E94C81121960E5F1F4F5A
:102DB000BBCFFA01EC51FA4F9181F80180A9981329
:102DC0000AC0FA01EE0FFF1FEC51FA4F878D90A158
:102DD0008E159F05B0F241505109D0CFE091070404
:102DE000F09108040994CF93DF93FC019081C8E12E
:102DF0009C9FC00D11240E94B034D82F0E94B03483
:102E00006D2F782F8091DD050E947D11482F872F2F
:102E10000E94EE1681E0C43708F080E0DF91CF9188
:102E20000895CF92DF92EF92FF920F931F93CF936B
:102E3000DF93CDB7DEB72A970FB6F894DEBF0FBE8B
:102E4000CDBF182F062FF42E0E94361E882309F4BA
:102E50004BC0FF2009F457C0AE014F5F5F4F602F9A
:102E6000812F0E94A411F82EE090FA040F2D10E09B
:102E7000C8018E0D911D0B9764F18AE090E06C0102
:102E8000C01AD10AB80165507B4FA6018BEF94E0C0
:102E90000E94C034B8016B5F7A4FA60185E095E0CF
:102EA0000E94C034A601440F551FB801660F771F5A
:102EB000675E7A4F89E195E00E94C034B801615F96
:102EC0007A4FA6018FE095E00E94C034EA94E09228
:102ED000FA041091FA04DE01119640E0842F810F6C
:102EE000F41213C08093FA042A960FB6F894DEBF4A
:102EF0000FBECDBFDF91CF911F910F91FF90EF904B
:102F0000DF90CF900895F12CAFCF5D91252F30E069
:102F100090E0BC0166507B4FF901EE0FFF1FEC5CA7
:102F2000FE4F0081FB010183220F331FF901EC5F8B
:102F3000FE4F21A9FB012387558B880F991FFC01A8
:102F4000E650FB4F10A2178E4F5FC8CF08950E9426
:102F5000A6170C94FA0508950895CF93DF93FC010A
:102F6000C08188E1C89FC02D1124D8EEDC0FC53781
:102F700008F0C4E76C2F8D2F0E94AB176C2F8D2F9C
:102F8000DF91CF910C94AC174F925F926F927F922A
:102F90008F929F92AF92BF92CF92DF92EF92FF9269
:102FA000CF9360912D0570912E0580912F05909102
:102FB00030050E9492286B017C010E9477284B010A
:102FC0005C0180922D0590922E05A0922F05B09263
:102FD0003005A091FA04EAEFF4E08A2F90E04FEF79
:102FE0005FEF60E070E04C195D096E097F09A9137D
:102FF0002AC08093FA0480913105C0E0811108C095
:103000008091DA05C82FC37019F0C82FC695C695F0
:1030100080919302813009F440C0882339F18230D5
:1030200009F409C1833009F411C1CF91FF90EF90E9
:10303000DF90CF90BF90AF909F908F907F906F90D8
:103040005F904F900895278D30A12901712C612C3C
:10305000441555056605770520F481509F5F32962B
:10306000C6CF2C0D3D1D30A3278FF8CF10929402B0
:103070008092E0059092E105A092E205B092E3050E
:1030800083E3EAEFF4E0A4EEB5E001900D928A95B7
:10309000E1F781E080939302C8CF80919702C81333
:1030A00023C09091DA0593702091980230E081E07E
:1030B0009217130609F480E0817080939602809144
:1030C000DF0590919502981739F08093950240E0C2
:1030D00060E080E00E94EE16C83188F4EC2FF0E04A
:1030E000E15CFA4C0C943C3481E0E6CF809196028E
:1030F000882359F040E060E080E00E94EE1680E016
:1031000004C084E992E00E941615909194029F5F9A
:103110009093940281118BC082E0809393028091FE
:103120009602811184C0CC2309F48EC00E94A71797
:1031300084E992E0CF91FF90EF90DF90CF90BF9025
:10314000AF909F908F907F906F905F904F900C9476
:10315000AD1784E992E00E942713D7CF84E992E06B
:103160000E94C412D2CF84E992E00E945312CDCFC4
:1031700084E992E00E942B13C8CF84E992E00E9478
:103180002F13C3CF84E992E00E943313BECF84E9AA
:1031900092E00E945712B9CF84E992E00E94C812CF
:1031A000B4CF84E992E00E94CC12AFCF84E992E0E0
:1031B0000E945B12AACF84E992E00E949E13A5CFE1
:1031C00084E992E00E94A213A0CF84E992E00E94D9
:1031D0009E159BCF84E992E00E94111696CF84E958
:1031E00092E00E94241491CF84E992E00E94F814A6
:1031F0008CCF84E992E00E94FE1487CF84E992E0AC
:103200000E94041582CF84E992E00E940A157DCFC6
:1032100084E992E00E94101578CF84E992E00E9440
:10322000621673CF84E992E00E94F3166ECFCC232E
:1032300009F4FBCE7BCFC09397028091DA058370AF
:10324000809398020E94C31183E024CF6091E0052F
:103250007091E1058091E2059091E3050E9492282A
:10326000603171058105910508F4DFCE109293025B
:10327000DCCEE0910304F091040409951092E4057A
:10328000E3E0F6E08FEF9FEF8193919326E0E73143
:10329000F207D1F71092FA04E9E1F5E08FEF9FEF22
:1032A0008193919325E0ED32F207D1F70E94012737
:1032B000811104C00E949B270E948F110E947F11E0
:1032C0008091DA058C7F11F40C948F110895CF93BF
:1032D000C82F882329F040E060E080E00E94EE16CD
:1032E000C0933105CF9108959091DA0521E092279E
:1032F0009093DA051092930281110C94871108952E
:1033000081E00C9474198091DA05837011F41092A5
:1033100093028091DA058C7F81608093DA050895AD
:103320000E9483190C9487118091DA0583700895A7
:103330009091DA05937099F0811109C0946090938F
:10334000DA0510929302662351F00C9487118831AC
:1033500010F09C65F4CF880F880F982BF0CF08955C
:1033600061E00C949819682F9091DA0596959695DE
:1033700081E0890F883108F081E00C94981981E090
:103380000C94B319682F9091DA05969596958FEF66
:10339000890F09F487E10C94981981E00C94C21903
:1033A0009091DA05937061F08093DB056093DC0502
:1033B000433308F042E34093DD0521110C9487115B
:1033C000089521E00C94D019AAEDB5E01196EC9186
:1033D0001197F0E0282F13964C91139712966C9149
:1033E000CF0108960C94D01981E00C94E419EAED11
:1033F000F5E09181282F43816281E92FE850FF0B8E
:10340000CF010C94D01981E00C94F719EAEDF5E0A6
:10341000628120E1620F08F46FEF9181282F4381D0
:10342000892F90E00C94D01981E00C94061AEAEDF3
:10343000F5E0628120E1621B08F460E09181282FB1
:103440004381892F90E00C94D01981E00C94171AD5
:10345000EAEDF5E0438120E1420F08F44FEF91815E
:10346000282F6281892F90E00C94D01981E00C9470
:10347000281AEAEDF5E0438120E1421B08F440E020
:103480009181282F6281892F90E00C94D01981E0DE
:103490000C94391A8093DE050C9487112091DE0577
:1034A00030E1230F08F42FEF2093DE0581110C94F7
:1034B0008711089581E00C944E1A2091DE0530E1C9
:1034C000231B08F420E02093DE0581110C94871162
:1034D000089581E00C945D1A0895FC01EE0FFF1F22
:1034E000E80FF91FE95EF94F618340832283089555
:1034F000E7E1F6E0818360834283339697E0E33728
:10350000F907C1F7089564E770E087E196E00C944D
:103510001F1BFA01811101C0FB0109940F931F9336
:10352000CF938C01FB01C281CC2309F486C00E9499
:10353000D32682720B3CFCE51F0709F472C060F5CC
:10354000063CECE51E0709F458C080F4043C9CE5F9
:10355000190709F448C008F04BC0033C1C4509F4A6
:103560003FC08C2FCF911F910F910895083C9CE58F
:10357000190709F44CC008F445C0093CFCE51F07D5
:1035800009F44AC047E45AE166E37AE10A3C1C4583
:1035900041F70E94891A1EC0013DECE51E0798F410
:1035A0000F3CFCE51F07B0F40D3C9CE51907F1F159
:1035B00049E65AE16AE57AE10E3C1C4550F381E0A8
:1035C0000E94B01907C0073DFCE51F0728F4023D23
:1035D0001C4588F1C0E0C5CF0E351D45D9F3C1CFDC
:1035E0000E948019F7CF4DEC59E16FEB79E1D1CF13
:1035F0004FEB59E16DEC79E1CCCF43E05AE164EF58
:1036000079E1C7CF44EF59E163E07AE1C2CF45E207
:103610005AE164E17AE1BDCF44E15AE165E27AE141
:10362000B8CF46E35AE167E47AE1B3CF4AE55AE11D
:1036300069E67AE1AECF8AE0C3CFC1E092CF539A78
:103640004BB1477F5BB15860EFB7F8949B01220FF5
:10365000331F260F371F280F391F2817390741F44A
:10366000EFBF8FE594E00197F1F700C000000895E7
:10367000DC016D91CD0178E05BB9000000C067FF0F
:103680004BB9660F000000C000C000C04BB900C0BD
:103690007A9591F7E2CF0C94570325982D9A2498A8
:1036A0002C9A83B185FB882780F91C9905C090E08E
:1036B000892B80933405089592E0FACFE091340588
:1036C000EE0FEE0FE093340543B145FB882780F9F8
:1036D00043B144FB222720F944FF02C022E030E03E
:1036E000822BE82BE0933405EF70F0E0E55FFB4FB1
:1036F000808190913305890F8093330520E08430D9
:1037000054F0809132058F5F8093320560E080E055
:103710000E944B1B21E0809133058D3F54F4809132
:10372000320581508093320561E080E00E944B1B9E
:1037300021E080913305082E000C990B64E070E0C5
:103740000E94093480933305822F08950F931F93AD
:10375000CF93DF93C42FD22FFC0182818823C9F03D
:10376000409337050E946B2890933605809335056A
:1037700080E28C0F883008F050C0C77081E001C033
:10378000880FCA95EAF7DF91CF911F910F910C94A2
:10379000BA1F10913705141335C0809135059091EB
:1037A00036050E948328883C910560F5C0E2CD0F64
:1037B0001D17B9F080E2810F883040F4177081E066
:1037C00001C0880F1A95EAF70E94C11FC83048F45B
:1037D00081E09D2F977001C0880F9A95EAF70E94AB
:1037E000BA1F802F0E94B21FC830B8F4D77081E092
:1037F00001C0880FDA95EAF7DF91CF911F910F9101
:103800000C94C11F80E28C0F883038F4C77081E0BF
:1038100001C0880FCA95EAF7EFCFDF91CF911F91D2
:103820000F9108950F939C01CB01243F4CE5340781
:1038300059F1A8F4293DFCE53F0701F12A3D4CE58B
:103840003407D1F1283D3C4591F406E221EE41EEEA
:1038500068ED7CE50E94A61B80E00F910895263F4D
:10386000FCE53F07E9F0B0F0273F3C45F9F0FC01EB
:103870008281882339F110923705EFCF07E225EED8
:1038800045EE69ED7CE5E6CF06E221EE40EE64EF21
:103890007CE5E0CF07E225EE44EE65EF7CE5DACF8C
:1038A00006E221EE42EE66EF7CE5D4CF07E225EE9C
:1038B00046EE67EF7CE5CECF08E221E045EE6AED0B
:1038C0007CE5C8CF81E0C9CFCF93DF93EC01FB014A
:1038D0008281882309F419C1C230FCE5DF07C0F1F9
:1038E000C6319CE5D90730F09E012B5F3C4529305D
:1038F000310570F50E9414279093C9058093C8057F
:10390000C031ECE5DE0709F4CFC008F05BC0C83079
:103910008CE5D80709F4B6C088F5C430ECE5DE07BD
:1039200009F4A8C0C0F4C2308CE5D80709F49CC0E3
:103930008091C8058260C330DC4509F498C080914D
:10394000C8059091C9050E9422270E94BD2180E0F0
:10395000DF91CF9108958091C8058061C630ECE574
:10396000DE0709F484C08091C8058860C730DC4553
:1039700008F47DC08091C805806279C0CC308CE5A8
:10398000D80709F489C070F48091C8058C60CA30EA
:10399000ECE5DE0709F46BC008F478C08091C80537
:1039A0008E7F65C0CE308CE5D80709F479C0809150
:1039B000C8058B7FCF30DC4508F459C08091C8051D
:1039C0008F7E55C0CC3FECE5DE0709F457C030F5DB
:1039D000C3318CE5D80709F46FC078F4C131ECE548
:1039E000DE0709F465C0C231DC4509F0A8CF0E94AA
:1039F000BD218091C8058F773AC0C5318CE5D807C5
:103A000009F462C008F476C08091C9058160CB3F9B
:103A1000DC4509F094CF8093C90591CFC115FDE530
:103A2000DF0709F44DC088F48091C9058D7FCE3F32
:103A30009CE5D90781F38091C9058E7FCF3FDC4596
:103A400050F38091C9058360E6CFC230FDE5DF0702
:103A500009F459C008F444C080E0C330DD4509F0E2
:103A60006ECF0E949D276BCF8091C80581608093A7
:103A7000C80565CF8091C8058460F9CF8091C905DC
:103A80008260C9CF8091C8058064F1CF0E94BD21BA
:103A90008091C8058068EBCF8091C8058D7FE7CF06
:103AA0008091C805877FE3CF8091C8058F7DDFCFE8
:103AB0008091C8058F7BDBCF8091C805837FD7CFEE
:103AC0008091C9058C7FA7CF8091C80582FB99277B
:103AD00090F921E0922790FB82F990FB83F9C7CF00
:103AE0008091C905982F909591708E7F892B90FBBE
:103AF00081F991CF0E94BD219091C805892F97FB34
:103B000087F98058B4CF81E0ACCF81E021CFCF934B
:103B1000DF93EB0186319C4511F50E94D3269A81F3
:103B2000992399F08A7A91E009F490E0909338050E
:103B3000811109C089E20E94A0260E94B42680E07B
:103B4000DF91CF91089585E3F6CF809138058111FB
:103B500004C089E20E94A726F0CF85E3FBCF81E075
:103B6000EFCF90933E0580933D050895E0913D058C
:103B7000F0913E05309721F00190F081E02D0994FD
:103B800080E00895E0913D05F0913E05309721F0E9
:103B90000280F381E02D0994089520913B05309136
:103BA0003C052817390771F090933C0580933B053D
:103BB000E0913D05F0913E05309721F00680F781B8
:103BC000E02D099408952091390530913A05281780
:103BD000390771F090933A0580933905E0913D05DE
:103BE000F0913E05309721F00084F185E02D099495
:103BF00008950E94772860934E0570934F05809337
:103C000050059093510560934A0570934B0580933E
:103C10004C0590934D0508950E94772860934E05BA
:103C200070934F058093500590935105609346051E
:103C3000709347058093480590934905089585B78B
:103C4000806885BF85B7806885BF08950895089509
:103C50000C94261E0C94B1030E941F1E89EF96E25D
:103C60000E94E3280E94271E0C94281E81E00895DC
:103C70000C94361E089508950E943A1E0C943B1E23
:103C80000E9462280E94BD0A0E944D1B0C942A1EAD
:103C90009F92AF92BF92CF92DF92EF92FF920F93DB
:103CA0001F93CF93DF93CDB7DEB72A970FB6F89463
:103CB000DEBF0FBECDBF0E94F00A81110E94F91D28
:103CC00080E4A82E85E0B82E10E000E0902E802F32
:103CD0000E94970AD82EF501F1905F01F81216C0E4
:103CE0000F5F1F4F0630110589F78FEF89838A8395
:103CF0001B820E946B288160782F9D838C83498171
:103D00005A816B818D810E94F61E32C08091BC0564
:103D100081FD0E949D0A8F2D8D25F12CEE24E394C8
:103D2000982F9E2109F44AC00E94381EDE20CC2420
:103D3000C394D11001C0C12C882379F0FE829F82E8
:103D4000C8860E946B288160782F9A8789874E8168
:103D50005F8168858A850E94F61EF801E05CFA4F53
:103D60008081E826E0824C2D6F2D892D0E9411174D
:103D70000E94C4170E945E1B81110E940C1E0E94AB
:103D8000250E0E94B61D90913F058917E9F00E940B
:103D9000B61D80933F052A960FB6F894DEBF0FBE7E
:103DA000CDBFDF91CF911F910F91FF90EF90DF90EA
:103DB000CF90BF90AF909F900C948B08F394EE0C33
:103DC000F8E0FF12ADCF8CCF2A960FB6F894DEBF85
:103DD0000FBECDBFDF91CF911F910F91FF90EF905C
:103DE000DF90CF90BF90AF909F900895DF92EF92B9
:103DF000FF920F931F93CF93DF93CDB7DEB72B972F
:103E00000FB6F894DEBF0FBECDBF7A878B87F42E36
:103E1000052F162FE72ED82E61110E94F3261E8241
:103E20001D827E2DEC82DD824F2D502F612F8D2D36
:103E30009E812B960FB6F894DEBF0FBECDBFDF91EB
:103E4000CF911F910F91FF90EF90DF900C9433244E
:103E5000FC01808191810C947226CF93C82F882316
:103E600009F43FC08CEF8C0F813AA0F46C2F809145
:103E7000990290919A020E94A227882329F08C2F00
:103E80000E94A7260E94B4268C2F0E94A026CF91C4
:103E90000C94B42680E28C0F883048F4C77081E01F
:103EA00001C0880FCA95EAF70E94D626F0CFEBE54D
:103EB000EC0FE33040F4F0E0E75BFB4F808190E0F3
:103EC000CF910C94CD1DC85AC73158F4EC2FF0E0B7
:103ED000EE0FFF1FE55EFB4F80819181CF910C9427
:103EE000E31DCF910895882329F19CEF980F913A13
:103EF00020F40E94A7260C94B42690E2980F9830E4
:103F000050F4877091E001C0990F8A95EAF7892FE4
:103F10000E94DC26F0CF9BE5980F933020F490E0D0
:103F200080E00C94CD1D885A873120F490E080E029
:103F30000C94E31D08951F93CF93DF93182FEB018B
:103F40000E942D1F209731F4812FDF91CF911F9177
:103F50000C94731F8FE99FE00197F1F700C00000F8
:103F60002197F0CF6AE070E0893311F460E570E0EA
:103F70000C949B1F882321F00E94D6260C94B42613
:103F80000895882321F00E94DC260C94B42608951D
:103F9000CF92DF92EF92FF920F931F93CF93DF9315
:103FA000DC01C62F972F12962C91129715964C91E3
:103FB0001597342F32953F70872F82958F70082F79
:103FC00010E08C3090F5F801E95AFA4C0C943C342E
:103FD000D72FDF70907F11F0D295D07F2223A9F0E8
:103FE000DD2359F080E28C0F883010F0C11109C038
:103FF0008D2F0E94D6260E94B4268C2F0E942D1F42
:1040000014C08D2F0E94E626F6CF8C2F0E94731FBE
:10401000DD2359F080E28C0F883010F0C11117C0F9
:104020008D2F0E94DC260E94B4260850110904300E
:10403000110508F046C10E94B61DDF91CF911F9176
:104040000F91FF90EF90DF90CF900C948B088D2F05
:104050000E94EC26E8CF872F8F70907F903211F06E
:104060008295807FC13061F4222329F03630E8F652
:104070000E94BA1FDACF3530C0F60E94C11FD5CFDB
:10408000222341F03323A1F340FFB7CF4F701596A1
:104090004C93EECF332389F3C93309F00AC12FEFD4
:1040A00087EE93E0215080409040E1F700C000008F
:1040B0008C2F0E94731FB9CF872F869586958370AA
:1040C00061F0813009F0B1CF862F9370211102C0C9
:1040D00090E080E00E94E31DA8CF862F937021110D
:1040E00002C090E080E00E94CD1D9FCF872F83709B
:1040F00009F044C0211199CF862F8295869587704B
:10410000880F880F6F70C62ED12CF12CE12C082E51
:1041100004C0CC0CDD1CEE1CFF1C0A94D2F740E05E
:1041200050E0BA01C4FF0FC04FE050E060E070E023
:1041300004C0440F551F661F771F8A95D2F740951C
:10414000509560957095292F269526952370CB0163
:10415000BA016C297D298E299F29223049F058F413
:10416000213019F00E94F12460CF0E94DF245DCF3E
:104170000E9403255ACF0E94DD2457CF8695222323
:1041800011F0872F8170882309F44FCF8C2F8295EF
:1041900086958770880F880F6C2F6F70C62ED12C74
:1041A000F12CE12C082E04C0CC0CDD1CEE1CFF1CF5
:1041B0000A94D2F740E050E0BA01C4FF0FC04FE0CC
:1041C00050E060E070E004C0440F551F661F771F89
:1041D0008A95D2F74095509560957095292F269530
:1041E00026952370CB01BA016C297D298E299F2940
:1041F000223049F058F4213019F00E94B62515CF2D
:104200000E94A42512CF0E94C8250FCF0E94192515
:104210000CCFD72FDF70222329F08D2F0E943F254E
:104220008C2F26CF862F0E94C11F8D2F0E946025C4
:10423000FCCE613F19F148F4603F91F0222369F10F
:104240003111DBCE892F8F711DC0623FF1F0633FCA
:10425000A9F72223F9F0872F8F710E942A25E5CE36
:10426000222341F0353008F0E0CE892F8F710E9473
:104270008325DBCE363008F0D8CEF7CF872F8F716D
:104280002223A1F20E943F25D0CE872F8F712223B7
:10429000C9F3CCCF0E942525C8CE332379F0C9338A
:1042A00041F49FEF27EE83E0915020408040E1F7FA
:1042B000FDCE8FE39CE90197F1F7F8CE892F8F713E
:1042C000B5CFDF91CF911F910F91FF90EF90DF90CD
:1042D000CF9008950F931F93CF93DF93EC016881E4
:1042E00079818A810E947C268C010E94DA250E94B5
:1042F000DC24B801CE01DF91CF911F910F910C9476
:10430000C81FCF93DF93EC018B819C81892B29F00F
:104310008881998189238F3F19F4DF91CF91089586
:10432000CE010E943C088823C1F3CE010E946A217D
:10433000CE01DF91CF910C941908882321F00E94BF
:10434000E6260C94B4260895882321F00E94EC26DA
:104350000C94B426089590E080E00E94CD1D90E07A
:1043600080E00E94E31D0E94F3260E94F6260C9432
:10437000B4260E94AE260C94AB210E94E3260C9436
:10438000B921E92FE295EF70E250EE3070F4F0E0E1
:10439000ED59FA4C0C943C34803F19F020F4883EDF
:1043A00020F481E00895843FE1F380E00895883EA1
:1043B000C0F3813FD1F7F5CF93FB882780F90895AB
:1043C0000E9472260C94C121CF93DF9300D000D0BD
:1043D0000F92CDB7DEB70F900F900F900F900F9008
:1043E000DF91CF910895CF93DF9300D000D000D01C
:1043F000CDB7DEB726960FB6F894DEBF0FBECDBFA1
:10440000DF91CF9108951F93CF93DF93C091530510
:1044100016E0809154058C1304C0DF91CF911F9159
:104420000895D0E01C9FF0011D9FF00D1124EB5A60
:10443000FA4F4081518162817381848195810E940C
:10444000F3212196C770E5CF4091850550918605EF
:1044500060918705709188058091890590918A0502
:104460000C94F3211F93CF93DF9380918A05807F73
:10447000A9F480918705882389F080915305C09124
:1044800054056091850570918605A0918805B091CD
:104490008905D62FD72316E0C81304C0DF91CF912A
:1044A0001F91089590E0109711F0DF3F19F40196E5
:1044B0008770F2CF189F9001199F300D1124F901D8
:1044C000EB5AFA4F41814713F2CF40814613EFCFA9
:1044D00042814111ECCF438154814A1B5B0B483C24
:1044E000510528F780918A058F70806180938A0535
:1044F000F901E65AFA4F80818F708061808385E8E8
:1045000095E00E948121DF91CF911F910C940322AD
:10451000AF92BF92CF92DF92EF92FF920F931F93D1
:10452000CF93DF93CDB7DEB761970FB6F894DEBFB8
:104530000FBECDBF8C0185E0F801DE011D96019014
:104540000D928A95E1F7F80140815181E28085E87A
:10455000C82E85E0D82E6091880570918905611577
:10456000710509F461C19091850520918605892F17
:1045700082238F3F09F458C1A380B480F09087054F
:10458000F501E61BF70BFF2009F4FCC080918A05BA
:10459000382F307FE83CF10508F0B2C0311179C006
:1045A000FE2C251323C0941321C0E1101FC08F706F
:1045B000806180938A050E942422C6010E94812185
:1045C00080918A05F80185838F2D61960FB6F89446
:1045D000DEBF0FBECDBFDF91CF911F910F91FF9036
:1045E000EF90DF90CF90BF90AF900895AB2829F067
:1045F000842F85238F3F09F033C180E0F82FF170BD
:10460000DF2E80FF3CC0809153052091540536E099
:10461000821315C04D875E878D859E850E94722608
:10462000292F22952F702230F0F0243018F59F703A
:10463000F1F0F8019581907FD1F4D12C1EC090E06B
:10464000389FF001399FF00D1124EB5AFA4F618128
:10465000651306C06081641303C062816E110FC0D0
:1046600001968770D5CF9F7011F0882331F3805E5B
:10467000883018F3C8010E948121FD2CA5CFEE20BF
:1046800009F4A2CF80918A05816080938A05F12C7C
:104690009BCF251306C0941304C0F801EE2009F443
:1046A0008DC04D875E878D859E850E94E021882381
:1046B00019F1EE2009F180918A05803270F0209185
:1046C00085053091860538872F831986BB86AA8693
:1046D0008C87CE0107960E94812186E0F801A5E82B
:1046E000B5E001900D928A95E1F70E9432220E9476
:1046F0002422FF24F39468CFC8010E948121F9CFBE
:10470000311113C07A2DB98AA88A6E2D89890E9429
:10471000E42185E895E00E94812186E0F60111926E
:104720008A95E9F70E942422B2CF25130FC0941373
:104730000DC0E1100BC0F8018583C8010E948121E2
:1047400086E0F60111928A95E9F73ECF4D875E87A4
:104750008D859E850E94E021882371F2EE2061F212
:1047600080918A05803208F4B8CF20918505309178
:1047700086053A8329831B82BD82AC828E83CE015B
:104780000196A9CFE83CF10508F041C0FE2CEE20CF
:1047900009F4B2CF25132AC0941328C080918A054A
:1047A00080FD1BC0982F907FC1F0F8018583903F5A
:1047B00031F0982F907F905F8F70892B8583C8018F
:1047C0000E94812186E0F801A5E8B5E001900D92F4
:1047D0008A95E1F70E942422F7CE86E0F801A5E849
:1047E000B5E001900D928A95E1F7EECE4D875E8798
:1047F0008D859E850E94E02181116FCF80918A0571
:10480000816080938A05C8010E948121DDCE7A2DC6
:10481000B98AA88A6E2D89890E94E42186E0F60172
:1048200011928A95E9F7D6CFEE2009F465CF4D872E
:104830005E878D859E850E94E021F82E882309F4ED
:104840005BCF86E0F801A5E8B5E001900D928A956E
:10485000E1F785E895E00E94281F0E943222BACF36
:1048600081E08E25CBCE1F93CF93DF93CDB7DEB7FC
:104870002C970FB6F894DEBF0FBECDBF4F8358877D
:1048800069877A878B879C87CE0107960E9488224A
:10489000882369F08A859B85892B39F04F8158855B
:1048A000842F85238F3F09F071C016E05FC086E03A
:1048B000FE013796DE01119601900D928A95E1F77F
:1048C0008A859B85892B89F38F81988589238F3FE2
:1048D00061F32091540530E0C90101968770992752
:1048E000409153054817190671F40E94BD2110929A
:1048F00054051092530586E0E5E8F5E0DF011D92CE
:104900008A95E9F7D2CF96E0929FD001939FB00DA0
:104910001124AB5ABA4FFE01319601900D929A952F
:10492000E1F7809354050E940322BFCF819FC0010D
:1049300011248B5A9A4F0E9488228823E9F0E09133
:1049400053051E9FF0011124EB5AFA4F408151810B
:1049500062817381848195810E94F3218091530546
:1049600090E00196877099278093530580915305B5
:10497000909154058913DACF2C960FB6F894DEBFC8
:104980000FBECDBFDF91CF911F91089569857A85C4
:104990008B859C850E94F32188CF08950C94CD24AB
:1049A0000E94CE246093AD057093AE058093AF0551
:1049B0009093B0050C94AB2108950C94D0240F93E0
:1049C0001F930091AD051091AE052091AF05309178
:1049D000B005602B712B822B932B1F910F910C94A0
:1049E000D0240F931F930091AD051091AE05209137
:1049F000AF053091B00560237123822393231F916B
:104A00000F910C94D0240F931F930091AD0510913A
:104A1000AE052091AF053091B00560277127822740
:104A200093271F910F910C94D0240C94CD240C94B7
:104A300015250E9417256093A9057093AA058093F8
:104A4000AB059093AC050C94AB2160E070E0CB011A
:104A50000C9419250F931F9341E050E060E070E043
:104A60008A019B0104C0000F111F221F331F8A956A
:104A7000D2F7C901B8011F910F910C9419250F931A
:104A80001F9341E050E060E070E004C0440F551F08
:104A9000661F771F8A95D2F78091A9059091AA0584
:104AA000A091AB05B091AC058A019B01082B192B95
:104AB0002A2B3B2BC901B8011F910F910C9419258A
:104AC0000F931F9341E050E060E070E004C0440F9A
:104AD000551F661F771F8A95D2F7CB01BA016095E3
:104AE0007095809590950091A9051091AA05209147
:104AF000AB053091AC0560237123822393231F9172
:104B00000F910C9419250F931F9341E050E060E042
:104B100070E004C0440F551F661F771F8A95D2F7B7
:104B20008091A9059091AA05A091AB05B091AC0523
:104B30008A019B01082719272A273B27C901B801A9
:104B40001F910F910C9419250F931F930091A905A4
:104B50001091AA052091AB053091AC05602B712B0B
:104B6000822B932B1F910F910C9419250F931F9358
:104B70000091A9051091AA052091AB053091AC05D3
:104B800060237123822393231F910F910C94192585
:104B90000F931F930091A9051091AA052091AB05D1
:104BA0003091AC0560277127822793271F910F91C1
:104BB0000C9419250895990F990F990F890F982F23
:104BC000977041E001C0440F9A95EAF78695869563
:104BD000869595E0899FF0011124E557FA4F30E062
:104BE00020E070E05191DF011197CB01022E02C04D
:104BF000969587950A94E2F781708195852784239D
:104C000085278C932F5F3F4F2530310559F7089545
:104C1000990F990F990F890F982F97708695869500
:104C2000869525E0829FF0011124E557FA4F50E068
:104C300040E080E0219130E0092E02C036952795B2
:104C40000A94E2F721703327042E01C0220F0A9440
:104C5000EAF7822B4F5F5F4F4530510559F70895B2
:104C6000BF92CF92DF92EF92FF920F931F93CF9359
:104C7000DF938C01C090A905D090AA05E090AB0508
:104C8000F090AC058091AD059091AE05A091AF0577
:104C9000B091B005C82AD92AEA2AFB2ACFE1D0E090
:104CA000BC2ED701C6010C2E04C0B695A7959795CA
:104CB00087950A94D2F780FD0EC0219788F7B12C12
:104CC0008B2DDF91CF911F910F91FF90EF90DF908F
:104CD000CF90BF900895B8018C2F0E94A80801972B
:104CE00061F3EECFCF93DF93EC010E943026BE013B
:104CF000DF91CF910C94A8081F93CF93DF93EB0122
:104D000090915205992331F0CB01DF91CF911F9102
:104D10000C947226882379F0CB010E943026182F3C
:104D2000682FCE010E94DB25BE01812FDF91CF913C
:104D30001F910C94A808CB010E940826182FF4CFCD
:104D4000682F8091990290919A020C94D827682F2D
:104D50008091990290919A020C94DA27809199029D
:104D600090919A020C94DC27E0919902F0919A02BA
:104D70008091BB058083E0919902F0919A02808135
:104D80009091BA05892B8083E0919902F0919A0263
:104D900080819091B905892B8083809199029091AF
:104DA0009A020C94C21D8091BB0508959091BB0599
:104DB000892B8093BB05089580959091BB0598231E
:104DC0009093BB0508951092BB0508959091BA0584
:104DD000892B8093BA05089580959091BA05982300
:104DE0009093BA0508951092BA0508951092B905E6
:104DF000089580E008956FEF7FEF90E080E00C94DD
:104E0000153590E080E00E94E13421E08A3E9E4F1B
:104E100009F020E0822F089582E090E00C94D934CC
:104E200083E090E00C94D934CF9384E090E00E942A
:104E3000D934C82F82E290E00E94D934982F8C2F69
:104E4000CF910895CF93C92F682F84E090E00E94FE
:104E5000F7346C2F82E290E0CF910C94F734AB01E1
:104E6000BC018FE090E00C94093560E070E0CB016C
:104E70000E942F270C94A3036AEE7EEF90E080E05F
:104E80000E94153560E082E090E00E94F73460E017
:104E900083E090E00E94F7341092AD051092AE05C9
:104EA0001092AF051092B00560E084E090E00E949F
:104EB000F73460E082E290E00E94F73460E085E041
:104EC00090E00E94F73460E086E090E00E94F734C2
:104ED0006FEF87E090E00E94F73440E050E0BA01C5
:104EE00088E090E00E94093560E08DE090E00E944B
:104EF000F73440E050E0BA0188E190E00E940935C3
:104F000060E087E190E00E94F73440E050E0BA01B1
:104F10008CE190E00E94093570E060E080E290E072
:104F20000E94153540E050E0BA0188E190E00E940F
:104F300009350C9435270C943C27682F8EE090E0BF
:104F40000C94F734662349F0FC01329608962191BF
:104F5000261729F0E817F907D1F780E0089581E0D6
:104F600008959C01FC0132969FEF80E04191461725
:104F700051F09F3F19F4411101C0982F8F5F863087
:104F8000A9F79F3F09F40895290F311D97FD3A9520
:104F9000F90162830895FC01329608962191261347
:104FA00003C0DF0111971C92E817F907B9F70895BC
:104FB0000C94B1270C94CB27029626E0FC011192A9
:104FC0002A95E9F70895089508950C94E4278091AF
:104FD0006808843061F10E94E52780E00E948B0818
:104FE00081E00E9467191092BD0588E190E020E4FD
:104FF0000FB6F894A895809360000FBE20936000D0
:1050000083B7817F846083BF83B7816083BF7894D7
:10501000889583B78E7F83BF0FB6F894A89580914B
:105020006000886180936000109260000FBE089558
:105030000895CF930E94E3270E94F00A0E94182847
:10504000C0E08C2F0E94970A811105C0CF5FC63047
:10505000C1F7CF91089581E0FCCF08950C942D28DD
:105060000E94BD210E94B61D0E948B0880E00E9414
:1050700067190C942E281F921FB61F9211248F932C
:105080009F93AF93BF938091BD05811113C0809111
:10509000730790917407A0917507B09176074196B8
:1050A000A11DB11D8093730790937407A09375079A
:1050B000B0937607BF91AF919F918F911F901FBEC4
:1050C0001F90189582E084BD93E095BD9AEF97BD3F
:1050D00080936E0008952FB7F89480917307909194
:1050E0007407A0917507B09176072FBF08952FB769
:1050F000F89460917307709174078091750790918F
:1051000076072FBF08959C014FB7F89480917307DD
:1051100090917407A0917507B09176074FBF821BDD
:10512000930B0895CF92DF92EF92FF922FB7F894EE
:10513000C0907307D0907407E0907507F0907607E1
:105140002FBFA7019601261B370B480B590BCA012D
:10515000B901FF90EF90DF90CF90089578941F925F
:105160001FB61F9211248F939F93AF93BF9380918B
:10517000730790917407A0917507B0917607019617
:10518000A11DB11D8093730790937407A0937507B9
:10519000B0937607BF91AF919F918F911F901FBEE3
:1051A0001F90189587E797E7909301088093000870
:1051B00088E19AE00FB6F894A895809360000FBE3E
:1051C00090936000FFCF90935D0480935C040895FA
:1051D000881F8827881F089591E0883F08F490E091
:1051E000892F0895982F907F903BE9F040F49039F3
:1051F000D1F0903AC1F09038B1F080E00895903D40
:1052000019F020F4903CC9F782E00895903E59F0DF
:10521000903F99F7815F8F3080F7E82FF0E0E45BF3
:10522000FB4F8081089583E008950F93022F0F773D
:10523000242F2F776F70462F406BDC01ED91FC918E
:1052400063E070E009950F9108950F93022F0F7797
:10525000242F2F776F70462F4069DC01ED91FC9170
:1052600063E070E009950F9108950F93022F0F7777
:10527000242F2F776F70462F4068DC01ED91FC9151
:1052800063E070E009950F9108950F931F93411506
:1052900020E2520744F49A01305E4115504E2CF43E
:1052A00030E020E002C02FEF3FE38901000F012F23
:1052B000001F110B11952F776F70462F406EDC0188
:1052C000ED91FC9163E070E009951F910F910895B5
:1052D000FC01738362830895FC01758F648F0895C8
:1052E000CF93DF93EC011DA21FA21EA2BC01685D3B
:1052F0007F4F40EC88519F4F0E947B2B1B821A826C
:105300001D821C821F821E82198618861B861A86A1
:105310001D861C861F861E86198A188A1B8A1A8A71
:105320001D8A1C8A1F8A1E8A198E188E1B8E1A8E41
:105330001D8E1C8E1F8E1E8E19A218A2DF91CF917A
:105340000895EF92FF920F931F93CF93DF93EA019B
:105350008A01060F111D88519F4F7C01C017D1078C
:1053600039F4DF91CF911F910F91FF90EF90089545
:105370006991C7010E94822BF1CFFC017183608388
:105380000895FC0171A360A30895AF92BF92CF92DC
:10539000DF92EF92FF920F931F93CF93DF9300D092
:1053A0000F92CDB7DEB77C016B01142FB22EA02E69
:1053B000DC0195968C9195978430A9F55A96ED91DC
:1053C000FC913097E9F1CB01019763E070E00E9416
:1053D000F533CB01880F991F860F971F4983BA8237
:1053E0000B834C2D481B9E012F5F3F4FBC01C70113
:1053F0000995D7015E96ED91FC91309731F00A2D19
:105400002B2D412FB601C70109950F900F900F90DA
:10541000DF91CF911F910F91FF90EF90DF90CF9090
:10542000BF90AF9008956230710509F455C06330A4
:10543000710599F06130710509F481C0D12CC12C3E
:10544000D7015C96ED91FC91309799F20A2D2B2DA6
:10545000412FB601C7010995CCCF842F807F803AB8
:1054600011F148F48038D1F0803951F7D701149602
:10547000ED91FC910AC0803ED9F0803FF1F0803B75
:10548000F9F6D7011296ED91FC913097C9F2123FCF
:10549000E9F02A2D4B2D612F6F701BC0D701169696
:1054A000ED91FC91F2CFD7011896ED91FC91EDCFE3
:1054B000D7011A96ED91FC91E8CF423F09F6D7014A
:1054C0001C96ED91FC91309709F4BACF2A2D4B2D03
:1054D00062EFC70109958DCF842F807F803DB1F0A9
:1054E000803FC9F0803C09F0ABCFD7011E96ED910B
:1054F000FC91309709F4A4CF812F8D7F4B2D612F24
:105500006F70813F89F0C701099573CFD70150961D
:10551000ED91FC91EECF433F51F4D7015296ED91BE
:10552000FC91309709F48CCF4B2D612FECCF413F8C
:1055300009F086CFD7015496ED91FC91F2CF842FDC
:105540000E94EC28882359F0D7015696ED91FC91E2
:10555000309709F475CF612FC70109954ACF163FDF
:1055600009F06ECFD7015896ED91FC91F1CFFF92E3
:105570000F931F93CF93DF93EC01162F862F0E947A
:10558000EC28882391F0FDA081E08DA300E020E0CD
:10559000412F61E070E0CE010E94C529FDA2DF919C
:1055A000CF911F910F91FF900895812F0E94E828BD
:1055B0004DA1882309F443C0443029F01AA381E0A7
:1055C00090E09FA38EA3812F0E94F228813051F09A
:1055D0008823A9F0823089F0833079F01DA21FA2C0
:1055E0001EA2DDCF8DA300E020E0412F61E070E03E
:1055F000CE010E94C5291DA2D2CF8DA3D0CF103FCE
:10560000B1F0173F59F72EA13FA1C90163E070E047
:105610000E94F533FE01E80FF91F12A3B9016F5F75
:105620007F4F7FA36EA30CA12BA14AA1E1CF84E001
:105630008DA31AA381E090E09FA38EA3B0CF442353
:1056400009F4ADCF2EA13FA1C90163E070E00E9433
:10565000F533FE01E80FF91F12A3B9016F5F7F4F09
:105660007FA36EA38130910569F0029709F097CF6F
:105670000CA12BA14AA1CE010E94C5298DA1843085
:10568000C9F68DCF00E0423009F089CFF2CFCF923A
:10569000DF92EF92FF920F931F93CF93DF93EC0172
:1056A000E8A1F9A1309709F009956E0188EEC80EBE
:1056B000D11CC6010E94B12B10E000E0E82EF12CB5
:1056C0000E151F0548F0DF91CF911F910F91FF90AC
:1056D000EF90DF90CF90089560E0C6010E94C52B47
:1056E000682FCE010E94B72A61E0C6010E94D52B27
:1056F0000F5F1F4FE5CFFC014283748363831182E8
:10570000108208951F93CF93DF93EC01162F0E9410
:10571000EC2B482F298130E0C90101966A8170E0A5
:105720000E94093458815817190641F4842F0E94A9
:10573000EF2B80E0DF91CF911F9108958B819C81A9
:10574000280F391FF9011083898190E001966A8141
:1057500070E00E9409348983842F0E94EF2B81E03E
:10576000E9CFCF93DF93EC010E94EC2B9981288144
:10577000921740F0C92FC21B0E94EF2B8C2FDF9194
:10578000CF910895CA819C0FF5CFFC018081860FCF
:105790009927991F628170E00E9409342381348126
:1057A000280F391FF901808108951F93CF93DF934C
:1057B000EC01162F0E94EC2B282F8881810F99274E
:1057C000991F6A8170E00E9409348883822FDF91DB
:1057D000CF911F910C94EF2B8FB7F89408958FBF42
:1057E0000895089508950F931F93CF93DF9300D0EA
:1057F00000D000D00F92CDB7DEB78C01CE0101965C
:105800000E94512E81110BC027960FB6F894DEBF6F
:105810000FBECDBFDF91CF911F910F9108958A8167
:105820000E94F2289A819D839B819E839C819F8305
:1058300081110AC08981843079F0873069F086301F
:1058400069F08530D9F681E0AE014B5F5F4F682F7C
:10585000C8010E94A129D2CF83E0F6CF82E0F4CF25
:10586000DF92EF92FF920F931F93CF93DF9300D0BD
:1058700000D0CDB7DEB77B01142FD22E4A832B8305
:105880000C83842F0E94F228811129C082E0E8163F
:10589000F10401F183E0E816F10439F0EA94EF280D
:1058A00069F485E0173F21F404C087E0073F09F061
:1058B00084E08983CE0101960E944C2E0F900F90B8
:1058C0000F900F90DF91CF911F910F91FF90EF906C
:1058D000DF90089587EFD812EBCF86E0EACF1295DC
:1058E0001F701983E7CF0E949E0B87E797E00E9405
:1058F000702960E37CE287E797E00E94BD2963EFAF
:105900007BE287E797E00E94C12961EF7BE287E7AE
:1059100097E00E946C2962EF7BE287E797E00C94A6
:1059200068299B01409168084430C1F4FC019181D1
:105930009F709093E90050E040E064E070E0C9019E
:105940000E94152F81110BC09091E80095FD07C0B2
:105950009091E8009E779093E800089582E0089582
:1059600020916808243091F4FC0181818F7080932C
:10597000E9009091F3008091F200892B49F0809129
:10598000E8008E778093E8000C94C33082E008959D
:1059900080E00895FC0180916808843059F4918179
:1059A0009F709093E9008091E80080FF03C0CF01D1
:1059B0000C94B02C08959B0140916808443011F07C
:1059C00080E00895FC0196819F709093E90080919A
:1059D000E80082FFF5CF8091E80085FFF1CF50E02D
:1059E00040E064E070E0C9010E94642F8091E8000B
:1059F00085FD05C08091E8008B778093E80081E009
:105A000008958091C60508950895CF93DF9300D03F
:105A10000F92CDB7DEB790916808943019F589835D
:105A20007B836A8382E08093E9008FEF9091E800A6
:105A3000815095FD06C095ED9A95F1F70000811112
:105A4000F5CF8091E80085FF0DC050E040E063E0B5
:105A500070E0CE0101960E94152F8091E8008E77AC
:105A60008093E8000F900F900F90DF91CF910895F1
:105A7000BC0184E00C94052DBC0183E00C94052D41
:105A8000CF93DF93EC0181E08093E9008FEF909159
:105A9000E800815095FD06C095ED9A95F1F700005C
:105AA0008111F5CF8091E80085FF14C050E040E0FF
:105AB00068E070E0CE010E94152F8091E8008E779B
:105AC0008093E80088E0FE01AEEBB5E001900D9216
:105AD0008A95E1F7DF91CF91089580916708811150
