:100000000C948E030C94AB030C94AB030C94AB03D5
:100010000C94AB030C94AB030C94AB030C94AB03A8
:100020000C94AB030C94AB030C94E72B0C94A32B14
:100030000C94E42C0C94AB030C94AB030C94AB0326
:100040000C94AB030C94AB030C94AB030C94AB0378
:100050000C94AB030C94C02C0C94AB030C94AB032A
:100060000C94AB030C94AB030C94AB030C94AB0358
:100070000C94AB030C94AB030C94AB030C94AB0348
:100080000C94AB030C94AB030C94AB030C94AB0338
:100090000C94AB030C94AB030C94AB030C94AB0328
:1000A0000C94AB030C94AB030C94AB030000000066
:1000B0000000000000000000000000000000000040
:1000C0000000000000000000000000000000000030
:1000D0007E0F00D4FFFFFFC7000000780000000083
:1000E000000000002A2B2800000000000000000093
:1000F0000000000000000029000000002C1E342039
:10010000212224342627252E362D3738271E1F205E
:100110002122232425263333362E37381F040506A3
:100120000708090A0B0C0D0E0F10111213141516E7
:100130001718191A1B1C1D2F3130232D35040506E5
:100140000708090A0B0C0D0E0F10111213141516C7
:100150001718191A1B1C1D2F3130354C6368726F2C
:100160006D61746F6E656D696E693A7061727479F4
:10017000204020302E32322E322D32362D6737621B
:10018000333338322D6469727479207C20323032F6
:10019000332D30392D31322D32323A34363A323035
:1001A00000A8478E71407E417E8F711B711C718645
:1001B000711D711E711F71207121712271237100D7
:1001C000002471257126712771287129712A710007
:1001D000002B712C712D712E712F713071317100C6
:1001E0000032713371347135713671377138710085
:1001F0000039713A713B713C713D713E713F710044
:100200000001000100407E417E0100647E657E01A8
:1002100000667E677E687E697E6A7E6B7E6C7E008D
:10022000006D7E6E7E6F7E2771287129712A7100A4
:10023000002B712C712D712E712F71307131710065
:100240000032713371347135713671377138710024
:100250000039713A713B713C713D713E713F7100E3
:100260000001000100407E417E0100647E657E0148
:1002700000667E677E687E697E6A7E6B7E6C7E002D
:10028000006D7E6E7E6F7E707E717E727E737E00EC
:1002900000747E757E2D712E712F71307131710059
:1002A00000327133713471357136713771387100C4
:1002B0000039713A713B713C713D713E713F710083
:1002C0000001000100407E417E0100647E657E01E8
:1002D00000667E677E687E697E6A7E6B7E6C7E00CD
:1002E000006D7E6E7E6F7E707E717E727E737E008C
:1002F00000747E757E767E777E787E797E7A7E004B
:10030000007B7E337134713571367137713871000D
:100310000039713A713B713C713D713E713F710022
:10032000000100010064716571010001000100011C
:1003300000010001000100010001000100010000B6
:1003400000010001000100010001000100010000A6
:100350000001000100010001000100010001000096
:100360000001000100010001000100010001000086
:100370000001000100010001000100010001000076
:1003800000A8478E71407E417E8F713F713E71861D
:10039000713D713C713B713A71397138713771003F
:1003A00000367135713471337132713171307100D1
:1003B000002F712E712D712C712B712A71297100F2
:1003C0000028712771267125712471237122710013
:1003D00000217120711F711E711D711C711B710034
:1003E000000100010065716471010001000100015C
:1003F00000010001000100010001000100010000F6
:1004000000010001000100010001000100010000E5
:1004100000010001000100010001000100010000D5
:1004200000010001000100010001000100010000C5
:1004300000010001000100010001000100010000B5
:100440000001007171557156717271477E437E00D3
:10045000000000447E0000457E0000000000000017
:1004600000000000002678487E25780000247800EF
:100470000000002378497E2A7800002978000000D7
:100480000028784A7E277800002278000021780032
:10049000000000037C467E427E000020784B7E00F8
:1004A00000A900AA000100010001000100010001F3
:1004B0000001000100A900AA00010001002178222A
:1004C00078000101010101010101010202020202A1
:1004D00002020202030303030303030304040404EC
:1004E00004040405050505050606060606070707B4
:1004F000070708080808090909090A0A0A0B0B0B6B
:100500000C0C0C0D0D0D0E0E0E0F0F0F1010111107
:10051000111212131314141515161617171818198B
:10052000191A1A1B1B1C1D1D1E1E1F2020212222F2
:10053000232424252626272829292A2B2C2D2D2E35
:100540002F30313232333435363738393A3B3C3D4F
:100550003E3F404142434445464748494A4C4D4E40
:100560004F50515354555658595A5B5D5E5F616206
:1005700064656668696B6C6D6F7072737577787A95
:100580007B7D7E8082838587888A8C8E8F919395F0
:1005900096989A9C9EA0A2A3A5A7A9ABADAFB1B314
:1005A000B5B7BABCBEC0C2C4C6C9CBCDCFD1D4D6F4
:1005B000D8DBDDDFE2E4E7E9EBEEF0F3F5F8FAFD96
:1005C000FF05010980A101850319012AB700150162
:1005D00026B700950175108100C0050C0901A10125
:1005E000850419012AA002150126A00295017510A3
:1005F0008100C005010906A101050719E029E715D9
:100600000025019508750181029501750881010594
:1006100007190029FF150026FF00950675088100BF
:100620000508190129051500250195057501910297
:10063000950175039101C009029F00040100A0FA11
:100640000904000001030101000921110100012238
:1006500044000705810308000109040100010300AB
:100660000000092111010001223200070582032048
:100670000001080B02020101000009040200000150
:10068000010000092401000109000103090403001D
:1006900002010300000724010001410006240201B9
:1006A00001000624020202000924030103010201E1
:1006B00000092403020401010100090504024000AD
:1006C0000500000525010101090583024000050020
:1006D0000005250101031201000200000008EDFEE3
:1006E000B4F40100010200011E03630068007200FF
:1006F0006F006D00610074006F006E0065006D009A
:1007000069006E00690000000E0333006100720092
:1007100061006800740000000403090411241FBE76
:10072000CFEFDAE0DEBFCDBF28E0A0E2B4E001C049
:100730001D92AE36B207E1F714E0A0E0B1E0E2E8C6
:10074000F8E602C005900D92A032B107D9F70E94D9
:100750000B2D0C94BE330C9400009091660893709E
:1007600061F081110BC09460909366081092230190
:100770008091650881608093650808958D3210F03E
:10078000906BF2CF880F880F982BEECF9091660870
:10079000937071F08093670860936808433308F0A2
:1007A00042E3409369088091650881608093650801
:1007B00008950F931F939B01305E8901000F012F55
:1007C000001F110B11952F77482F406EE091750790
:1007D000F091760763E070E085E797E009951F9157
:1007E0000F9108950F93262F042F0F77482F406BFA
:1007F000E0917507F091760763E070E085E797E098
:1008000009950F910895482F20913D079091040775
:1008100057E0291302C080E0089530E0529FF001B4
:10082000539FF00D1124EB5FF84F8181681306C0D0
:100830008081481303C085818111EECF2F5F3F4F28
:100840002770E7CFA3E0B0E0E8E2F4E00C946A326E
:100850007C01162FD42EC22E80919A07843071F518
:10086000E0918F07F09190073097C1F1C701019790
:1008700063E070E00E943232CB01880F991F860F2F
:10088000971F19834A83CB824E2D481B9E012F5FF1
:100890003F4FBC0185E797E00995E0919307F09100
:1008A0009407309739F00C2D2D2D412FB70185E796
:1008B00097E009952396E8E00C94863282E0E816EA
:1008C000F10409F45AC083E0E816F104A9F081E0CC
:1008D000E816F10409F484C0F12CE12CE0919107B1
:1008E000F09192073097C9F20C2D2D2D412FB701B1
:1008F00085E797E00995D1CF862F807F803A11F167
:1009000088F48038D1F0E0917907F0917A07803946
:1009100029F7309719F3123F49F12C2D4D2D612FF6
:100920006F7027C0803E99F0803FB1F0E09177076B
:10093000F0917807803B91F6ECCFE0917B07F09146
:100940007C07E7CFE0917D07F0917E07E2CFE09151
:100950007F07F0918007DDCF623F09F0BFCFE091C4
:100960008107F0918207309709F4B8CF2C2D4D2DD7
:1009700062EF85E797E0099590CF862F807F803DD5
:10098000B9F0803FD1F0E0918307F0918407803C7B
:1009900009F0A4CF309709F4A1CF812F8D7F4D2D81
:1009A000612F6F70813FC9F085E797E0099575CF9A
:1009B000E0918507F0918607EDCFE0918707F091F0
:1009C0008807633F39F0613F09F088CFE0918907DC
:1009D000F0918A07309709F481CF4D2D612FE4CF34
:1009E000E0918B07F0918C07683F38F4663F09F07F
:1009F00075CFE0918D07F0918E07309709F46ECF97
:100A0000612F85E797E0099548CFE8EDF0E0808118
:100A10008E7F80831092E2001092DA001092E10043
:100A2000A0EEB0E08C9181608C9380818F77808381
:100A300019BCA7EDB0E08C918E7F8C9380818F7E66
:100A400080831092ED0608952091E4003091E50036
:100A500095E6A9012091EC00822F817020FF06C04D
:100A60008091E80080FF06C080E008952091E800B2
:100A700022FD1AC08091FA06882389F0853089F01A
:100A80008091EB0085FD0FC02091E4003091E500DE
:100A900042175307F9F29150E1F684E0089582E09D
:100AA000089583E0089581E00895EF92FF920F93F7
:100AB0001F93CF937C018B010E942405C82F8111C5
:100AC00017C08091E80085FD0BC08091E8008E770B
:100AD0008093E8000E942405882399F3C82F08C05A
:100AE000F70181917F018093F1000150110949F7CD
:100AF0008C2FCF911F910F91FF90EF9008958091CF
:100B0000FC0687FF13C08091E80082FF06C0809139
:100B1000E8008B778093E80004C08091FA06811189
:100B2000F2CF08958091FA068823D9F38091E800E6
:100B300080FFF8CF8091E8008E77ECCF982F9093CC
:100B4000E900242F762F50E0891731F07091EC00E6
:100B50002091ED005091F00021FD07C09F5F97307C
:100B600071F78093E90081E008953091EB003E7FBA
:100B70003093EB003091ED003D7F3093ED003091EC
:100B8000EB0031603093EB007093EC002093ED00AC
:100B90005093F0002091EE0027FDE0CF80E0089513
:100BA000B0E0A0E0E6EDF5E00C946A32C8EDD0E0EC
:100BB00088818F7E8883E7EDF0E08081816080838B
:100BC00084E082BF81E08093ED0688818E7F8883F8
:100BD00002EE10E0F80110821092DA0081EEC82EC9
:100BE000D12CF601108288818F7788838881806874
:100BF000888388818F7D888319BC1092FA061092B1
:100C0000FB061092F9061092F80690EEE92EF12CF0
:100C1000F70180818B7F808388818160888342E0B7
:100C200060E080E00E949E05F60180818E7F8083D7
:100C3000F801808181608083808188608083F701F2
:100C400080818E7F8083888180618883CDB7DEB785
:100C5000E8E00C948632FC01809102079091030732
:100C600086179707A0F06115710529F49091E800A7
:100C70009E779093E80090E06115710551F4911111
:100C800008C08091E80082FF34C080E00895BC0174
:100C9000F2CF8091FA068823C1F18530C1F18091AD
:100CA000E80083FD30C08091E80082FDEACF8091AA
:100CB000E80080FFE1CF8091F3002091F200382F0F
:100CC0006115710519F02830310558F091E0283090
:100CD000310509F090E02091E8002E772093E8009C
:100CE000CBCF81918093F100615071092F5F3F4F0D
:100CF000E7CF8091FA06882341F0853041F080915A
:100D0000E80083FFBECF81E0089582E0089583E08C
:100D1000089508958091EF0608959C014FB7F894C7
:100D20008091E9069091EA06A091EB06B091EC065D
:100D30004FBF821B930B08952FB7F8946091E9067B
:100D40007091EA068091EB069091EC062FBF089512
:100D50002FB7F8948091E9069091EA06A091EB06EE
:100D6000B091EC062FBF08959C01FC0132969FEFD5
:100D700080E04191461751F09F3F19F4411101C0A5
:100D8000982F8F5F8630A9F79F3F09F40895290FA8
:100D9000311D97FD3A95F90162830895A3E0B0E013
:100DA000E4EDF6E00C9470322091E6063091E7060F
:100DB00028173907A1F09093E7068093E606E091A3
:100DC000E406F091E506309751F024E029839B83F7
:100DD0008A830680F781E02DCE010196099523963E
:100DE000E2E00C948C32A3E0B0E0E9EFF6E00C9482
:100DF00070322091E2063091E30628173907A1F0FE
:100E00009093E3068093E206E091E406F091E50614
:100E1000309751F023E029839B838A830680F781F2
:100E2000E02DCE01019609952396E2E00C948C32D8
:100E3000E091E406F091E506309729F00190F08109
:100E4000E02D0995089580E00895FA01811101C00F
:100E5000FB0109950895FC01EE0FFF1FDF01A80FAC
:100E6000B91FAA57BA4F11963C911197361307C074
:100E70003C91341304C012963C91321751F031E08A
:100E800030938505E80FF91FEA57FA4F61834083D5
:100E900022830895FF920F931F93CF93DF93182F10
:100EA000062FF42ED0E0C0E02F2D402F612FCE0171
:100EB0000E942B072196C437D105B1F7CDB7DEB715
:100EC000E5E00C948932109285050895E6E6F8E095
:100ED00024813AE0231B08F420E0248380916508F4
:100EE0008160809365080895E6E6F8E024813AE0A1
:100EF000230F08F42FEF248380916508816080938D
:100F000065080895E6E6F8E0438128E0421B08F40E
:100F100040E08181628190E00E94C6030895E6E688
:100F2000F8E0438128E0420F08F44FEF81816281AD
:100F300090E00E94C6030895E6E6F8E0628128E0AA
:100F4000621B08F460E08181438190E00E94C60347
:100F50000895E6E6F8E0628128E0620F08F46FEF9A
:100F60008181438190E00E94C6030895E6E6F8E09F
:100F70008181438162818850990B0E94C603089544
:100F8000E6E6F8E0818190E04381628108960E9464
:100F9000C60308958091660886958695815009F468
:100FA0008CE20E94AD03089580916608869586952F
:100FB0008F5F8D3208F081E00E94AD030895EF92BB
:100FC000FF920F931F930E0D1F2D111D9A0157FFB6
:100FD00003C031952195310994E0220F331F9A9572
:100FE000E1F72F3F310519F014F02FEF30E0200F1B
:100FF000311F2F3F310519F010F02FEF30E0209511
:10100000382F320F08F43FEF832F1F910F91FF907D
:10101000EF900895EF92FF920F939701201B3109F3
:101020002F3F310519F010F02FEF30E02095382FC9
:10103000320F08F43FEF832F0F91FF90EF90089548
:10104000EF92FF920F939701201B31092F3F31053B
:1010500019F010F02FEF30E0322F3095482F430F6A
:1010600008F44FEF842F620F0F91FF90EF900895D7
:10107000EF92FF920F93972F093438F4B701601B5A
:1010800071096F3F710519F010F06FEF70E0485F64
:101090005F4F4131510540F0A901485F5F4F413139
:1010A000510510F06FEF70E06095482F460F08F47F
:1010B0004FEF842F37FF02C02D5F3F4F35952795A7
:1010C0003595279560916708620F792F0F91FF90F2
:1010D000EF900895EF92FF920F931F930E0D1F2D27
:1010E000111DF90137FF03C0F195E195F10924E0E5
:1010F000EE0FFF1F2A95E1F7EF3FF10519F014F00D
:10110000EFEFF0E09A0157FF03C0319521953109C7
:1011100094E0220F331F9A95E1F72E173F070CF446
:10112000F901E00FF11FEF3FF10519F010F0EFEFBB
:10113000F0E0E095282F3E2F230F08F42FEF822FA9
:101140001F910F91FF90EF900895EF92FF920F93F0
:10115000970195E0099F200D311D11242F3F310586
:1011600019F010F02FEF30E02095382F320F08F4EF
:101170003FEF832F0F91FF90EF90089522E8241BFB
:1011800008F420E0620F08954095282F429F412DDA
:101190001124842F0895E42FF0E0EE0FFF1FEC538D
:1011A000FD4F9081921B97FD9195292F38E1239F48
:1011B000212D1124620F08950F931F9310E0F80161
:1011C000EE0FFF1FEC53FD4F90819C5797FD9195BB
:1011D000000F111FF801EC56FD4F01A90052110B31
:1011E0002003F001219FF00D112408E310E0091BFA
:1011F000110997FD139540039001419F300D112473
:10120000E20FF31F9F01220F331F2E0F3F1F37FFE7
:1012100002C021583F4F220F232F221F330B620F92
:101220001F910F9108950F931F93522F10E0F80113
:10123000EE0FFF1FEC56FD4FA1A9A052BB0B9D0165
:101240005203F001539FF00D1124000F111FD8011C
:10125000AC53BD4F0C910C57110B40039001419FB3
:10126000300D11242E0F3F1F37FF02C0215C3F4F6E
:1012700096E0359527959A95E1F7620F1F910F91AA
:1012800008950F931F93522F10E0F801EE0FFF1FE8
:10129000EC56FD4FA1A9A052BB0B9D015203F001DA
:1012A000539FF00D1124000F111FD801AC53BD4FF7
:1012B0000C910C57110B40039001419F300D1124EC
:1012C0002E0F3F1F37FF02C021583F4F220F232F01
:1012D000221F330B620F1F910F910895EF920F930E
:1012E000972F23E0029FB0011124759567956E0D2D
:1012F000792F0F91EF900895322F50E0FA01EE0F01
:10130000FF1FEC56FD4F91A9905297FD9195440F08
:10131000551FFA01EC53FD4F2081231B330B290F7E
:10132000311D97FD3A95620F0895E42FF0E0EE0F1E
:10133000FF1FEC56FD4F61A9621B0895E42FF0E0FA
:10134000EE0FFF1FEC53FD4F6081621B0895622F6B
:101350000895E42FF0E0EE0FFF1FEC53FD4F4081A6
:1013600034EE439F412D1124E82FF0E050E0445E1D
:101370005F4FDA01A21BB1099D01B7FF03C0319590
:101380002195310993E0220F331F9A95E1F7AF01C0
:10139000421B530B9A0157FD20E0582F259F212D0A
:1013A0001124822F0895E42FF0E0EE0FFF1FEC537D
:1013B000FD4F408134EE439F412D1124E72FF0E093
:1013C00050E0445E5F4FDA01A21BB1099D01B7FFF7
:1013D00003C031952195310993E0220F331F9A956F
:1013E000E1F7AF01421B530B9A0157FD20E0279F05
:1013F000212D1124722F08950E944A0708950E94FA
:101400002B070895FC019B01009729F480E077FFEA
:101410002BC080E80895AC0197FF04C044275527EE
:10142000481B590BB901640F751F37FD10C0241BF1
:10143000350BC901A5E0880F991FAA95E1F70E9415
:10144000463280E2861BF7FF0FC081950895CB01DD
:1014500065E0880F991F6A95E1F7BA01621B730B6B
:101460000E94463280E6EECF0895EF920F93CF931D
:10147000DF93D72FC82FC9010E19BA010E94020AA3
:10148000602F681B7D2F8C2FDF91CF910F91EF90F4
:1014900008950F93CF93DF93D72FC82FC901BA01B7
:1014A0000E94020A682F600F7D2F8C2FDF91CF9151
:1014B0000F910895EF920F931F93CF93DF93D62F41
:1014C000C72F182FC9010E19010FBA010E94020A75
:1014D000081B202F219F212D1124822F6D2F7C2F5F
:1014E000DF91CF911F910F91EF900895EF920F939D
:1014F0001F93CF93DF93D62F172FC82FC9010E1933
:10150000070FBA010E94020A702F781B719F712D7C
:1015100011246D2F8C2FDF91CF911F910F91EF90A0
:1015200008950F931F93CF93DF93D62FC72F182FB4
:10153000C901212F201B022FBA010E94020A982FF5
:10154000990F990F891B800F282F219F212D11247E
:10155000822F6D2F7C2FDF91CF911F910F910895D6
:101560000F931F93CF93DF93D62F172FC82FC90147
:10157000272F201B022FBA010E94020A982F990FD1
:10158000990F782F791B700F719F712D11246D2F7A
:101590008C2FDF91CF911F910F910895E82F86FD39
:1015A000E0952E2F2F7086FD2F5FE695E695E69548
:1015B000E670F0E0E35EFD4F9181929F902D212D2A
:1015C000112492959F702295207F922B2081920F5B
:1015D00087FD919580E8890F08950F931F93CF930E
:1015E000DF938B01D82FC42F822F0E94CE0AEC2FBD
:1015F000F0E0EE0FFF1FEC53FD4F90819058890FE4
:1016000087FD8195880F682F2CE0629F612D112442
:10161000600F712F8D2FDF91CF911F910F91089542
:1016200040911B0150911C0125E038E0429FC00110
:10163000439F900D529F900D1124875E994C90937B
:101640001C0180931B01890F0895AC018230910524
:1016500008F408959FEF413E8EE1580740F49A0147
:1016600095E0369527959A95E1F798E0920F61E01D
:10167000E62FE90FFF27FF1F9F0135952795822F42
:10168000229FF001239FF00DF00D11244E175F07EC
:1016900038F49FEF920F961758F78FEF860F089543
:1016A0002F3FE9F361E0620FF6CF0F93CF93DF9303
:1016B000D72FC82F47FD41958EE390E0841B9109F9
:1016C00047FD9395889FB001899F700D700D11247F
:1016D000229FC001239F900D900D1124860F971F0C
:1016E0000E94250B982F990F890F682F600F7D2F6F
:1016F0008C2FDF91CF910F91089530E020E0869FED
:10170000212D969F200D311D1124C9010895AF92FE
:10171000BF92CF92DF92FF920F931F93CF93DF93ED
:10172000362F472FE82FF0E0EF53FB4F71110FC01A
:10173000E4918E2F2E2F6E2F722FDF91CF911F915C
:101740000F91FF90DF90CF90BF90AF900895C72F7B
:10175000D0E02491F22E022F10E056E0659FC001E8
:101760001124EFEFF0E0BF010E943232832F90E0AE
:10177000880F991F35E5369FD001379FB00D112492
:101780008A1B9B0B982F990F980F6F01CC1ADD0ABB
:10179000C09ED001C19EB00DD09EB00D11248B2FE4
:1017A000499FA0011124452F55276F01C41AD50A5E
:1017B000C09EA001C19E500DD09E500D11245F010E
:1017C000A91AB108AC9E6001AD9ED00CBC9ED00C95
:1017D0001124CD2CDD24EC19FD09E09FE001E19FEF
:1017E000D00DF09FD00D1124ED2F62307105A1F0C6
:1017F00050F46115710509F49ECF6130710581F0D7
:10180000EB2F852F98CF6430710569F080F066303A
:10181000710509F490CFF4CFE22F2B2F8D2F8BCFB2
:10182000E22F252F88CFEB2F822F2D2F84CF2B2F28
:101830008F2DE52F80CFB0E0A0E0E1E2FCE00C943A
:101840006B328C01FC01E455FC4F8081682349F127
:10185000D0906808D0916908C0916708EC2EF12CEF
:101860000E94100B282FC7018C549F4F68E671E02F
:101870000E9446328E199F0997FD0396959587958C
:101880009595879523706C2F289F600D11247D2DD1
:101890008D2F0E94870B462F282F672FC8010E948B
:1018A000FF09CDB7DEB7E7E00C9487322F923F9265
:1018B0005F926F927F928F929F92AF92BF92CF92E0
:1018C000DF92EF92FF920F931F93CF93DF93CDB7E9
:1018D000DEB72A970FB6F894DEBF0FBECDBF8B835D
:1018E0007E836D832091200188E1289F802D112423
:1018F0008F83885E89838A83853710F034E73A8343
:10190000809142078C83FF81EF2FF0E0FA87E9870F
:10191000CF01880F991F9C012C563D4F69013B81D7
:10192000832F90E0FC013196F887EF838A819985B7
:101930009817E8F081E0E981E43708F080E02A9622
:101940000FB6F894DEBF0FBECDBFDF91CF911F91D0
:101950000F91FF90EF90DF90CF90BF90AF909F904E
:101960008F907F906F905F903F902F900895E985C2
:10197000FA85E455FC4F8081909121018923F1F093
:1019800020906708309068082F8138852E5B384F8B
:1019900039015B8010E0FC815F16D0F0209169086E
:1019A000129F112D1124B101812F0E94870B462F08
:1019B000282F672F89859A850E94FF0929853A85F6
:1019C0002F5F3F4F3A87298732E0C30ED11CAECF3D
:1019D000F30181913F01F601A0A8A81ABB0881A8D4
:1019E000F3018185881A9908AA9C9001AB9C300D5F
:1019F000300D1124889CC001899C900D900D1124FC
:101A0000820F931F0E94250B082F60916A0821E026
:101A1000620F08F46FEFF301EE0FFF1FE254F7407F
:101A2000838D948D0E947D0B7C019401A501B101F1
:101A3000812FED81FE8109951B015394182FABCFA7
:101A4000B0E0A0E0E6E2FDE00C946A328C01C091C7
:101A5000200188E1C89FC02D112428E1D22EDC0E80
:101A6000CD2C24E72D1510F494E7C92E20916A0897
:101A700031E0230F08F42FEF30E050E040E06FEF4B
:101A80007FEF80E090E00E945B337901D0E02C2F63
:101A9000CC1550F081E0F3E7FD1508F480E0CDB7F8
:101AA000DEB7E8E00C948632FE01E455FC4F8081FD
:101AB00090912101892311F1409142074150042E58
:101AC000000C550B47FF1CC0C70160916A0821E05C
:101AD000620F08F46FEF0E947D0BAC016091670804
:101AE0007091680880916908F80109950E94870B38
:101AF000462F282F672FCE010E94FF092196C7CFBE
:101B0000FA01EE5BF84F858982130AC0FA01EE0FE5
:101B1000FF1FEE5BF84F878D90A18E159F05A8F2F1
:101B200041505109CFCFB0E0A0E0E9E9FDE00C94CD
:101B30006B327C01C091200188E1C89FC02D112427
:101B400018E11C0F012F153708F004E760916A08AF
:101B50006695669521E0620F08F46FEF80913E076D
:101B600090913F070E947D0BD82ED0E0C01748F01F
:101B700081E0143708F080E0CDB7DEB7E7E00C94E1
:101B80008732FE01E455FC4F808190912101892329
:101B900091F06091670870916808809169082D2D17
:101BA0004C2FF70109950E94870B462F282F672F8E
:101BB000CE010E94FF092196D9CFB0E0A0E0E3EE6C
:101BC000FDE00C9467326C01C091200188E1C89F50
:101BD000C02D112418E11C0FB12E153710F034E779
:101BE000B32E60916A086695669580913E07909144
:101BF0003F070E947D0BF82E80E48F0D0E94CE0AD5
:101C000090E8A92EA80E8F2D0E94CE0A20E8922ED1
:101C1000980ED0E0CB1548F081E0143708F080E052
:101C2000CDB7DEB7EBE00C948332FE01E455FC4FF8
:101C30008081909121018923A1F0609167087091C2
:101C4000680880916908EF2C0C2F292D4A2DF60188
:101C500009950E94870B462F282F672FCE010E94DF
:101C6000FF092196D7CFB0E0A0E0E9E3FEE00C94B5
:101C700063323C01C091200188E1C89FC02D11242E
:101C800018E11C0FF12E153710F034E7F32E609198
:101C90006A08669580913E0790913F070E947D0BF0
:101CA000582ED0E0CE01880F991F9C012C563D4F35
:101CB0006901CF1548F081E0143708F080E0CDB716
:101CC000DEB7EFE00C947F32FE01E455FC4F8081DB
:101CD00090912101892379F1F60180A9282F2C57B1
:101CE000330B590181A9E82FE052FF0B4F01AA9C49
:101CF0009001AB9C300D300D1124EE9FC001EF9F81
:101D0000900D900D1124820F931F0E94250B082F18
:101D1000609167087091680880916908E52C9401CA
:101D2000A501F30109950E94870B462F282F672FE5
:101D3000CE010E94FF09F2E0CF0ED11C2196B9CF4F
:101D4000B0E0A0E0E6EAFEE00C9468326C01C091DD
:101D5000200188E1C89FC02D112418E11C0FB12E6D
:101D6000153710F034E7B32E60916A0866958091BC
:101D70003E0790913F070E947D0BA82ED0E0CE0138
:101D8000880F991F9C012C563D4F7901CB1548F0C7
:101D900081E0143708F080E0CDB7DEB7EAE00C94BC
:101DA0008432FE01E455FC4F80819091210189230A
:101DB000C1F0F70121A92052330B40A94C57550B14
:101DC0006091670870916808809169080A2DF60192
:101DD00009950E94870B462F282F672FCE010E945E
:101DE000FF09F2E0EF0EF11C2196D0CF1F93CF93A5
:101DF000DF93EC01FC01E455FC4F80816823B1F0D6
:101E00000E94100B182F0E94100B20E8829FC00127
:101E100011247FE7790F612F809169080E94870B59
:101E2000462F282F672FCE010E94FF09DF91CF9107
:101E30001F91089584E0809312058FE78093130526
:101E4000809114058078806480931405EAECF4E0B6
:101E50008FEF819395E0E231F907D9F71092C90429
:101E60001092C8041092C7041092C60408950895F1
:101E70000895982F907F903BE9F040F49039D1F08D
:101E8000903AC1F09038B1F080E00895903D19F09B
:101E900020F4903CC9F782E00895903E59F0903FBD
:101EA00099F7815F8F3080F7E82FF0E0E25FFD4F18
:101EB0008081089583E00895A7E0B0E0E2E6FFE0C6
:101EC0000C946A328C0108511F4F8091FA068430BD
:101ED00009F087C0809115018F708093E90080918F
:101EE000E80082FF7EC08091E80085FF7AC00E94F2
:101EF0002405811113C084E0E82EF12CCE01019657
:101F00006C018091E80085FD61C08091E8008B77CD
:101F10008093E8000E942405882399F38091E800CB
:101F200085FD05C08091E8008B778093E800FA80FA
:101F30008F2D0E94390F282FFD828B818E838C81FB
:101F40008F8321110BC08981843041F1873031F1B9
:101F5000863031F121E0853009F0B7CF30E0E5E09F
:101F6000F0E0EC0FFD1FE30FF11DF0804FB7F89488
:101F7000D8011196EC911197F0E0CF0101961296DD
:101F80006C9170E00E944632D8015C915817190696
:101F900049F44FBF3F5F321710F397CF23E0DECFF6
:101FA00022E0DCCF13968D919C911497E80FF91FD6
:101FB000F08211968C91119790E0019612966C9197
:101FC00070E00E944632F8018183E3CF8091F100F6
:101FD000D6018D936D01B1E0EB1AF10809F091CFB4
:101FE0009DCF2796E8E00C948632A4E0B0E0EBEFBA
:101FF000FFE00C946B327B01142FD22E4A832B838B
:102000000C83842F0E94390F81113AC082E0E816B8
:10201000F10489F183E0E816F10441F081E0E8166B
:10202000F10429F5173F29F485E004C087E0073F54
:1020300009F084E089838091FA068430C1F48091AC
:1020400010018F708093E90050E040E064E070E0A0
:10205000CE0101960E945505811109C08091E800CA
:1020600085FD05C08091E8008E778093E800249676
:10207000E7E00C94873287EFD812DBCF86E0DACF27
:1020800012951F701983D7CF80E00895F894E82F38
:10209000E295EF70F0E031A1282F2F7081E090E001
:1020A00001C0880F2A95EAF7982F9095932391A362
:1020B00092A1892B82A3789408959091690492FF4C
:1020C00010C041E0282F2471243009F040E031E0B5
:1020D000282F2871283009F030E0431711F02CE048
:1020E000822793FF10C041E0282F2471243109F08A
:1020F00040E031E0282F2871283109F030E0431703
:1021000011F02CE0822730916A0430FF10C051E0BA
:10211000282F2171213009F050E041E0282F28714B
:10212000283009F040E0541711F029E0822731FFF0
:1021300010C041E0282F2171213109F040E031E049
:10214000282F2871283109F030E0431711F029E0D9
:10215000822794FD877E089582389105B9F1B0F405
:102160008133910509F47DC048F48932910509F461
:102170006DC08A32910509F47BC0089585339105BD
:1021800009F45FC08933910509F10895833E9105F3
:10219000D9F138F4803E910529F1823E910579F11B
:1021A0000895863E9105D9F1873E910509F43EC018
:1021B000843E910541F520916A0421FF24C080915D
:1021C000690484FD19C087EE90E0089520916904A8
:1021D000237009F05AC020916A0423FF14C089E2D9
:1021E00090E008952091690420FD38C030916A0480
:1021F00030FF09C024FF43C090E080E008952091A3
:10220000690422FDF7CF08952091690422FD3AC0A8
:1022100030916A0430FD39C024FFF5CFEDCF209115
:10222000690423FFF0CF24FDE7CFCDCF20916904CF
:1022300023FD2EC030916A0431FFEECF84EE90E092
:1022400008952091690425FFDECFC9CF209169044C
:1022500025FD21C020916A0423FFD5CF89E390E0BA
:10226000D2CF2091690426FFCECF8AE290E0089574
:102270002091690426FFC7CF81E390E0089583EEA3
:1022800090E0089582EE90E0089580EE90E0089549
:1022900086EE90E0089585E390E008957630C8F4E6
:1022A000683088F5883090F5E72FF0E096E0899F58
:1022B000E00DF11D112483E0EE0FFF1F8A95E1F779
:1022C000E60FF11DEE0FFF1FEF55FE4F8591949124
:1022D00008957D3F59F4611116C08830B8F494E038
:1022E000899FF0011124EF55FB4FF0CF7C3F59F44B
:1022F000611109C0883050F494E0899FF0011124E5
:10230000ED55FB4FE3CF80E090E0089581E0FCCFF6
:102310001F93CF93DF930E94AC10EC01C11580E5B1
:10232000D807F0F5C11580E4D80708F0AAC0C03E70
:10233000D10520F5CD3CD10508F090C0C83AD105B3
:1023400078F4C53AD10508F081C0C130D10519F142
:10235000209709F1C430D105F0F4D0E0C0E01BC0F3
:10236000C33CD105D0F7C85AD0E0CC0FDD1FC6540E
:10237000DE4F0990D881C02DD4640DC0C11580E214
:10238000D80708F0C9C0C11581E0D80708F068C0B7
:10239000C83ED10510F7CE01DF91CF911F9108956E
:1023A000C03682E5D80718F5C03482E5D80708F0B2
:1023B00079C0C03282E5D80708F06DC0C11582E54A
:1023C000D80708F48FC02C2F2695269580E2289FE9
:1023D000900111248C2F8370C1E0D0E002C0CC0F9B
:1023E000DD1F8A95E2F7C22BD32BDD68D4CFC03C2A
:1023F00082E5D807F8F4C03A82E5D80708F067C04C
:10240000C03882E5D80708F0A8CF2C2F269526954E
:10241000277080E2289F900111248C2F8370C1E0E7
:10242000D0E002C0CC0FDD1F8A95E2F7C22BD32B80
:10243000DA68B1CFC03E82E5D80708F08ECFDC2F36
:10244000CC27CC27DF71C06FD06AA5CFC55AD0E0AA
:10245000C954DE4FC881D0E0D0649DCFD0659BCFFA
:102460008D2F0E945D10182FCE0199270E94AC106D
:10247000C12FD0E0DC2FCC27CC27DF71C82BD92B84
:102480008ACFCE0199270E94AC10CC27DF70C82BD1
:10249000D92BD06A80CFCF71D0E0DC2FCC27C16F91
:1024A000D06A79CF2C2F26952695277080E2289F19
:1024B000900111248C2F8370C1E0D0E002C0CC0FBA
:1024C000DD1F8A95E2F7C22BD32BDC6864CF8C2FFB
:1024D0008F710E945D10C82FD0E0DC2FCC27CC2755
:1024E000DF7159CF8C2F8F710E945D1055E0D6950A
:1024F000C7955A95E1F7CF70D0E0DC2FCC27282F75
:1025000030E084FF05C044E0220F331F4A95E1F715
:10251000C22BD32BD0693FCF8D2F8F710E945D10BE
:10252000182FCE0199270E94AC10C12FD0E0DC2FCC
:10253000CC27CC27DF71C82BD92BD0622CCF809130
:102540003D0790910407981301C008958F5F87702D
:10255000FACFB0E0A0E0EFEAF2E10C9469327C013E
:10256000009182051091830580915C0490915D0437
:10257000082B192BCFE0D0E0CC24C394D12CBC2E57
:10258000C6010C2E02C0880F991F0A94E2F780231F
:102590009123892B49F4219790F7B12C8B2DCDB73E
:1025A000DEB7E9E00C948532B7018C2F0E944E1102
:1025B0000E948811019779F3F1CFCF93DF93EC015B
:1025C0000E94A912BE010E944E110E948811DF9143
:1025D000CF910895A82FA77023E0969587952A9507
:1025E000E1F7880F991F880F991FFB01E80FF91F6A
:1025F00050E040E080E0219130E00A2E02C03695A4
:1026000027950A94E2F721703327042E01C0220F88
:102610000A94EAF7822B4F5F5F4F4430510559F718
:102620000895963070F4883098F448E0949F9001B3
:10263000112463E374E0820F932F911D0E94EA122C
:1026400008959C5F923020F46FE274E090E0F6CF42
:1026500080E00895262F277091E001C0990F2A95F8
:10266000EAF723E0769567952A95E1F7660F771FDD
:10267000660F771FFA01E60FF71F50E040E0682F62
:1026800070E08191DF0111979B01042E02C0369505
:1026900027950A94E2F721702195282729232827D6
:1026A0002C934F5F5F4F4430510559F70895282F01
:1026B000862F963068F4283050F438E0939FB001AC
:1026C0001124620F711D43E354E00E942A13089500
:1026D0009C5F9230E0F7622F70E04FE254E0F5CF5C
:1026E0009093830580938205089521E030E002C035
:1026F000220F331F8A95E2F720953095809182054D
:1027000090918305822393230E947013089521E002
:1027100030E002C0220F331F8A95E2F780918205D4
:1027200090918305822B932B0E94701308959093B0
:102730005D0480935C040895FC0124812223C1F090
:10274000808191810E94DD1292959F70963091F068
:1027500058F4925F9F70923058F4803F19F030F433
:10276000883E30F481E008959A5FF4CF843FD1F33E
:1027700080E00895883EB0F3813FD1F7F3CFA6E023
:10278000B0E0E5ECF3E10C946F3249835A83498160
:102790005A819923A1F0222391F0CA010E94A91223
:1027A000182F682F89819A810E94571369817A8135
:1027B000812F0E944E112696E3E00C948B32CA01C1
:1027C0000E941113182FF2CFB0E0A0E0EAEEF3E17F
:1027D0000C946B32082FF62EE42E8091060188238C
:1027E000E9F080912B0419E0811101C01CE0D0E0D8
:1027F000C0E08CE0D82E80912B04FE01D89EE00D25
:10280000F11D1124E95DFE4F80812E2D4F2D602F8B
:1028100090E00E94FF092196C11768F3CDB7DEB79B
:10282000E7E00C94873280912D04823109F128F47D
:10283000882341F08C3091F00895883119F1843269
:1028400059F1089580912C04882329F081E190E0CA
:102850000E947013089581E090E0FACF80912C04DB
:10286000882319F082E190E0F3CF82E090E0F0CF8E
:1028700080912C04882319F084E190E0E9CF84E072
:1028800090E0E6CF80912C04882319F088E190E055
:10289000DFCF88E090E0DCCF80912C04882319F012
:1028A00080E690E0D5CF80E290E0D2CFE2E1F5E0A3
:1028B00080818F70808310922B0481E080930501CA
:1028C0000895E2E1F5E08081807F82608083E3E12A
:1028D000F5E0808180788567808381E090E00E94C8
:1028E000971381E090E00E9470134FEF6FEF8AEA38
:1028F00090E00E94C6038FE00E94AD031092060193
:1029000008959B01BA019091FA069430E1F4809306
:10291000E9009FEF8091E800915085FD06C085EDAC
:102920008A95F1F700009111F5CF8091E80085FFBD
:102930000AC050E040E0C9010E9455058091E800BE
:102940008E778093E800089543E050E0BC0182E078
:102950000E9481140895CF93DF93EC0148E050E08A
:10296000BC0181E00E94811488E0FE01A0EFB6E086
:1029700001900D928A95E1F7DF91CF9108958091B2
:102980008505882341F1539A3BB1377F2BB12860ED
:102990004FB7F89486E895E0FC015191CF0168E0CB
:1029A0002BB9000000C057FF3BB9550F000000C015
:1029B00000C000C03BB900C06A9591F7F6E0823EC6
:1029C0009F0751F74FBF8FE594E00197F1F700C0E3
:1029D0000000109285050895E6E6F8E085E380831F
:1029E0008091240190912501A091260181839283F9
:1029F000A3838FE784838FEF858348E050E068E10D
:102A000070E0CF010E942733109265080895B0E06E
:102A1000A0E0EDE0F5E10C946332182F80911E01E7
:102A2000811323C090916608937020911D0130E0BE
:102A300081E09217130609F480E0817080932201EF
:102A400080916B0890912101981739F080932101B2
:102A500040E060E080E00E94FC091D3260F4E12F5C
:102A6000F0E0E054FC4C0C945A3281E0E6CF8091C7
:102A70002201811102C080E03EC140E060E080E0C0
:102A80000E94FC09F8CFC091200188E1C89FC02DA9
:102A9000112408E10C0FF02E053710F0F4E7FF2E9B
:102AA0006091670870916808809169080E94870B9F
:102AB000E62ED72EC82ED0E0CF1528F081E00437BF
:102AC00008F419C1D8CFFE01E455FC4F80819091E4
:102AD0002101892331F02C2D4E2D6D2DCE010E9428
:102AE000FF092196E9CFC091200188E1C89FC02D40
:102AF000112408E10C0FF02E053710F0E4E7FE2E4C
:102B0000D0906808E0906908D09167086D2F7D2DFE
:102B10008E2D0E94870BC62EB72EA82E60916A08B4
:102B20006D0F7D2D8E2D0E94870BE62ED72E982EB1
:102B3000D0E0CF1518F6FE01E455FC4F908180914E
:102B40002101892359F0292D4E2D6D2D90FD03C0B3
:102B50002A2D4C2D6B2DCE010E94FF092196E9CF25
:102B6000C091200188E1C89FC02D112408E10C0FFD
:102B7000E02E053710F074E7E72ED0906808C0907B
:102B8000690820916A0860E4F62E3F2D329F312DAE
:102B90001124F32ED0E0CE1508F090CFFE01E455BD
:102BA000FC4F8081909121018923B9F0FE01EE0F45
:102BB000FF1FEC56FD4F81A982958F7060916708C9
:102BC0008F9D600D11247D2D8C2D0E94870B462F2B
:102BD000282F672FCE010E94FF092196DCCFC091DC
:102BE000200188E1C89FC02D112408E10C0FE02EC0
:102BF000053710F044E7E42ED0906808C0906908CB
:102C000020916A0830E4F32E3F2D329F312D11249C
:102C1000F32ED0E0CE1508F051CFFE01E455FC4F65
:102C20008081909121018923D9F0FE01EE0FFF1FD1
:102C3000EC56FD4F60A9F69EB001112495E0759504
:102C400067959A95E1F780916708680F7D2D8C2D27
:102C50000E94870B462F282F672FCE010E94FF0965
:102C60002196D8CFC091200188E1C89FC02D1124A2
:102C700008E10C0FF02E053710F0B4E7FB2EE090C2
:102C80006708D0916808D090690860916A086695D5
:102C90006695669580913E0790913F070E947D0B57
:102CA0000E94CE0A805887FD8195880F282F3D2DE0
:102CB000239F212D1124822F6E2D7D2F0E94870BA3
:102CC000E62ED72EC82ED0E0CF1508F0F7CEFE01A5
:102CD000E455FC4F808190912101892331F02C2D06
:102CE0004E2D6D2DCE010E94FF092196EDCF83ED73
:102CF00099E00E94930D909120019F5F9093200195
:102D000081110CC082E08093230180912201811106
:102D100005C0111103C083E080932301CDB7DEB756
:102D2000EFE00C947F3289EA99E0E3CF80EB9AE000
:102D30000E94A00EE0CF81E99AE0FACF86E79AE000
:102D40000E94330ED8CF8AE59AE0FACF87EA99E05D
:102D5000D0CF8EE999E0CDCF85E999E0CACF8CE755
:102D600099E0C7CF8EE699E0EBCF85E59BE0E0CF19
:102D700089E49AE0DDCF85E39AE0E2CF81E499E04F
:102D80000E94DD0DB8CF83E199E0FACF8CED98E099
:102D9000F7CFC091200188E1C89FC02D112408E120
:102DA0000C0F80912201811120C060916A0820E1FE
:102DB000620F08F46FEF80913E0790913F070E94E9
:102DC0007D0B6AE070E00E943232892B09F076CEEA
:102DD0000E94100BA4E78A9FC00111246091210179
:102DE000892F90E00E941B0C69CE802F053708F0D8
:102DF00084E7D0E0E82EF12CCE15DF050CF05ECE96
:102E000060912101CE010E941B0C2196F5CFC0914B
:102E1000200188E1C89FC02D112408E10C0F80918A
:102E20002201811120C060916A0820E1620F08F43C
:102E30006FEF80913E0790913F070E947D0B65E008
:102E400070E00E943232892B09F038CE0E94100BBC
:102E5000B4E78B9FC001112460912101892F90E07C
:102E60000E94F60E2BCE802F053708F084E7D0E0C5
:102E7000E82EF12CCE15DF050CF020CE609121015B
:102E8000CE010E94F60E2196F5CFC091200188E177
:102E9000C89FC02D112408E10C0FF02E053710F04B
:102EA000A4E7FA2ED0906808E0906908D0916708EE
:102EB00060916A0866956695669580913E07909147
:102EC0003F070E947D0B0E94CE0A805887FD8195A6
:102ED000880F682F2CE0629F612D11246D0F7D2DCE
:102EE0008E2D0E94870BE62ED72EC82ED0E0CF1550
:102EF00008F0E4CDFE01E455FC4F80819091210162
:102F0000892331F02C2D4E2D6D2DCE010E94FF090D
:102F10002196EDCF8DEE9AE0ECCE8BEC98E0E9CEE9
:102F2000B090200188E1B89EB02C1124F8E1AF2EBA
:102F3000AB0C8A2CF4E7FA1510F4E4E78E2E80919E
:102F40002201882361F040E060E080E00E94FC09FB
:102F5000EBE1F5E080E3DF011D928A95E9F78091CE
:102F60002001811115C080911705909118050E94CC
:102F70008D0621E08931910508F420E020931605A3
:102F8000499730F00E94A806909318058093170582
:102F9000C12C912CD12C65E5662E7AEA772E55242A
:102FA000539405C0A7E1A91508F454C0D12C2D2DC8
:102FB00030E0B8E0CB9EE0011124FE01EC56FD4F5D
:102FC000E20FF31FE080EB1408F43CC0E81408F0B3
:102FD00039C09394F12CF701E455FC4F8081909116
:102FE0002101892309F42EC0C55EDA4FC20FD31F19
:102FF0000881302F262D321B08F430E070916808CC
:10300000272D200F08F42FEF40916908822F880F99
:10301000820F8E5F282F249F212D1124822F672D50
:10302000631B0E94870B462F282F672FC7010E9422
:10303000FF0980911605882329F0352D031B08F41C
:1030400000E00883D39488E0D812B1CFC39496E00F
:10305000C912A8CF81E0B3E7BA1508F04CCE0BCD6A
:1030600000916908E3E00E9FE0011124D695C79511
:10307000D695C7955C2EA02EB12C8FEF90E0B501B0
:103080000E944632762E80912201882371F040E022
:1030900060E080E00E94FC09EBE1F5E080E3DF0105
:1030A0001D928A95E9F710921A05809119058F5F94
:1030B00080931905F12CE12CAC1ABD0A6701612C33
:1030C000D701A55EBA4F4D0180911A05862909F0F6
:1030D00045C00E94E332853595400CF03FC0F401B5
:1030E0000083F601EC56FD4FE081EF3FD1F0D601B1
:1030F000A55EBA4F2C91F0E0521608F040C030E0C7
:103100002C1B3D0B2C9FC0012D9F900D3C9F900DC3
:103110001124B5010E943232262F402FCF010E9488
:10312000FF096394F8E0CF0ED11C26E06212CCCFE9
:103130003FEFE31AF30A88E0E816F10409F0BECF86
:1031400080911905781202C01092190580911A0514
:103150008F5F8D31F0F480931A058DCCF601E55E1A
:10316000FA4F8081882309F4BCCF801708F0B9CFCB
:10317000909119057912B5CF81508083B2CF029F0B
:10318000C0011124BE010E943232462F20E060E0CF
:10319000C5CF10921A052BE335E085E043E255E0F8
:1031A0009FEF900FABE1B5E0F901853041F49896BF
:1031B0006C919897061303C098969C93989760819A
:1031C000601710F090830087119631964A175B07BD
:1031D00061F78150285031098111E4CF4CCC84EC47
:1031E00098E00E94200D87CD8EEB98E0FACF809179
:1031F000420721E0382F321B08F430E0832F65EAC4
:1032000078E00E94560C77CD65EA78E080E0F9CF4F
:103210008091420721E0382F321B08F430E0832FE1
:103220006AE678E0EECF6AE678E0F0CF8091420778
:1032300021E0382F321B08F430E0832F68E378E078
:10324000E0CF68E378E0E2CF8091420721E0382FB9
:10325000321B08F430E0832F60E278E0D2CF60E2E6
:1032600078E0D4CF8091420721E0382F321B08F458
:1032700030E0832F6AE078E0C4CF6AE078E0C6CF20
:103280006FED77E0C3CFC091200188E1C89FC02DCA
:10329000112408E10C0FA02E053710F044E7A42EEE
:1032A00020916A0830E050E040E06FEF7FEF80E06F
:1032B00090E00E945B336901D0E0CE01880F991F36
:1032C000DC01AC56BD4F7D0132E8932ECA1508F0E3
:1032D000F5CBFE01E455FC4F8081909121018923BB
:1032E00019F17090680880906908B0906708409163
:1032F00042074150042E000C550B47FF1AC0C6016F
:1033000060916A080E947D0B692D282F621B08F4CA
:1033100060E06B0D772D882D0E94870B462F282F9C
:10332000672FCE010E94FF09219632E0E30EF11CC7
:10333000CDCFFA01EE5BF84F9181F70180A9981388
:103340000AC0FA01EE0FFF1FEE5BF84F878D90A1C8
:103350008C159D05A8F241505109CFCF90912001C5
:10336000C8E19C9FC00D11240E94E332D82F0E9417
:10337000E3326D2F782F809169080E94870B482FC8
:10338000872F0E94FC0981E0C43708F4B4CC73CBCA
:10339000B0E0A0E0EEECF9E10C946232C0907E0562
:1033A000D0907F05E0908005F09081058FB7F8946C
:1033B0004090E9065090EA066090EB067090EC06AB
:1033C0008FBF530142018C189D08AE08BF080E94B0
:1033D0009C0660937E0570937F0580938005909393
:1033E0008105A0914B05EBE4F5E02A2F30E04FEF8B
:1033F000C40ED41EE11CF11CC418D508E608F70859
:10340000A31320C020934B0520918405C0E0211117
:1034100008C020916608C22FC37019F0C22FC6954C
:10342000C695209123012130B9F12223F1F02230F9
:1034300009F456C1233009F45EC1CDB7DEB7E0E12F
:103440000C947E32478D50A12A01712C612CC4143A
:10345000D504E604F70420F421503F5F3296D0CF24
:10346000480D591D50A3478FF8CF1092200160934B
:103470003E0770933F07809340079093410783E393
:10348000EBE4F5E0A2E4B7E001900D928A95E1F754
:1034900081E080932301D1CF8C2F0E940715CC238C
:1034A00061F280912001853041F680916608837039
:1034B00021F280918205909183058231910509F472
:1034C000D0C0D8F48430910509F402C158F4813099
:1034D000910509F4A7C0029709F0AFCF40E063E37C
:1034E00080E0C2C08830910509F4F6C0419709F028
:1034F000A4CF40E069E183E398C08032910509F4EC
:1035000097C000F58431910509F4C6C0489709F0C9
:1035100094CF40E069E183E30E94E41320E040E0BF
:1035200063E38DE190E00E94FF0920E040E063E367
:1035300082E490E00E94FF0920E040E063E387E638
:1035400090E0A7C08036910509F4BFC008F475CF9C
:1035500080589109C1E0D0E08138910508F06DCF25
:1035600029E143E360E0CE010E94FF092196C530C6
:10357000D105B1F729E143E360E085E090E00E94E6
:10358000FF0929E143E360E086E090E00E94FF0943
:1035900029E143E360E087E090E00E94FF0905E253
:1035A00012E08DE6E82E82E0F82E98E2C92E92E035
:1035B000D92EE801899126E041E26BE290E00E9479
:1035C000FF098BA120E043E360E090E00E94FF0947
:1035D0008DA920E043E360E090E00E94FF09F7013D
:1035E00081917F0120E043E360E090E00E94FF09C9
:1035F000F70183A120E043E363E390E00E94FF0929
:10360000CC16DD06B9F6F80181A129E143E360E0BB
:1036100090E00E94FF090A5F1F4FF2E003371F0787
:1036200091F70BCF46E061E28BE20E94E41305CFF5
:1036300040E063E383E30E94E41320E040E063E3BF
:1036400087E190E00E94FF0920E040E063E38CE323
:1036500090E00E94FF0920E040E063E381E690E013
:1036600018C040E069E183E30E94E41320E040E0F9
:1036700063E383E290E00E94FF0920E040E063E31F
:1036800088E490E00E94FF0920E040E063E38DE6DB
:1036900090E00E94FF09D1CE40E069E183E30E94FF
:1036A000E41320E040E063E380E290E00E94FF0941
:1036B00020E040E063E385E490E00E94FF0920E021
:1036C00040E063E38AE690E0E4CF40E069E1B2CF16
:1036D00040E063E380E0E3CF40E063E380E01CCFC1
:1036E000C0931E0180916608837080931D010E9423
:1036F000BF1483E0CECE80916508882351F048E066
:1037000050E068E170E086E698E00E94273310926E
:10371000650840913E0750913F07609140077091C6
:1037200041072FB7F8948091E9069091EA06A0919D
:10373000EB06B091EC062FBF841B950BA60BB70BC5
:103740004097A105B10508F478CE1092230175CEFB
:10375000A6E0B0E0EEEAFBE10C9467328E010F5F69
:103760001F4F86E0F80111928A95E9F780EFC82E85
:1037700081E0D82EF12CE12CAA24A394B12CF601DF
:1037800081916F018F3F09F443C0F894E82FE295CF
:10379000EF70F0E021A18F70A50102C0440F551F0A
:1037A0008A95E2F7CA01922F982B91A392A1809556
:1037B000892382A3789400C0E6EFF1E0912C31E0F8
:1037C00021912F3F09F465C0A22FA295AF70B0E000
:1037D00090968C9190E02F7002C0959587952A95D0
:1037E000E2F780FD56C0832F982A330F51E0EE3F59
:1037F000F50731F7F601319780818F3F11F00E9474
:10380000461080EA8A95F1F7F801EE0DFF1D9082CF
:10381000EFEFEE1AFE0AF6E0EF16F10409F0AFCF73
:1038200046E050E0B80183E694E00E94F332892B31
:1038300091F186E0F801A3E6B4E001900D928A953B
:10384000E1F781E0809362040E94A80690936104EE
:103850008093600480916004909161040E948D06C1
:103860000597E8F046E050E063E674E084EB94E00E
:103870000E94F332892BC1F086E0E3E6F4E0A4EB8A
:10388000B4E001900D928A95E1F781E01092620414
:1038900007C080E0A9CF809162048111DBCF80E076
:1038A0002696EBE00C94833280E0F0CF80915B04AD
:1038B00090915A04892B8093220448E050E062E5FD
:1038C00074E082E294E00E94F332892BA9F088E050
:1038D000E2E2F4E0A2E5B4E001900D928A95E1F70E
:1038E000E091E406F091E506309731F00280F38133
:1038F000E02D82E294E00995089510925B04E4E2E1
:10390000F4E086E0DF011D928A95E9F790E080E01F
:103910000E94F30690E080E00E94CE0610925A04C6
:103920000E94561C0895AAE2B0E0E9E9FCE10C947B
:103930006F328CEF96E02091F100FC012193CF01D2
:10394000F7E084309F07B9F78091FD06833009F4D2
:1039500070C0B8F4813009F447C0823009F4B1C0B6
:103960008091E80083FF88C28091FC069091FD065B
:103970009A3008F081C2E92FF0E0E351FC4C0C943E
:103980005A328A3009F48CC08B3009F46FC0893008
:1039900039F78091FC06813219F7809100079091E8
:1039A00001070297E8F68091E800877F8093E8009E
:1039B0008091E80082FF38C09091F3008091F2007E
:1039C000029731F48091F100813011F0863021F4BA
:1039D0008091F1008093EF068091E8008B778093CF
:1039E000E8000E947F05BCCF8091FC06813A09F077
:1039F000B7CF8091E800877F8093E800809100072F
:103A000090910107892B61F468E080EF96E070E007
:103A10000E942B068091E8008B778093E800A0CF6E
:103A200060E090E080E0F3CF8091FA068111C0CF92
:103A300097CF8091FC06813A09F092CF80910007E0
:103A400090910107892B09F08BCF8091E800877F47
:103A50008093E8008091E80080FFFCCF80911F01F7
:103A60008093F1008091E8008E77B9CF8091FC06B9
:103A7000813209F075CF8091000790910107892B61
:103A800009F06ECF8091E800877F8093E8000E9464
:103A90007F058091FE0680931F010E947D1C60CFF0
:103AA0008091FC06813209F05BCF8091E800877F2E
:103AB0008093E8000E947F058091FF068093EE06C8
:103AC0004FCF8091FC06813A09F04ACF8091E800FF
:103AD000877F8093E8008091E80080FFFCCF809191
:103AE000EE06BECF803899F0823809F0C5C18091CA
:103AF00000078F70873008F0BFC18093E900809184
:103B0000EB0085FB882780F91092E90006C08091C0
:103B1000F8069091F906911182609091E800977FE4
:103B20009093E8008093F1001092F1008091E800FA
:103B30008E779EC1882309F48CC1823009F09CC124
:103B40008091FE0681118FC1809100078F702FEF49
:103B5000280F263008F090C18093E9002091EB00F7
:103B600020FF81C1933031F48091EB00806280931B
:103B7000EB0079C19091EB0090619093EB0021E014
:103B800030E001C0220F8A95EAF72093EA001092F4
:103B9000EA008091EB008860EACF81116DC110913D
:103BA000FE061F778091E3008078812B8093E300ED
:103BB0008091E800877F8093E8000E947F058091D4
:103BC000E80080FFFCCF8091E30080688093E300F1
:103BD00082E0111183E08093FA064EC18058823052
:103BE00008F04AC18091FE069091FF068C3D23E0CB
:103BF0009207A1F583E08A838AE289834FB7F8941C
:103C0000DE01139620E03EE051E2E32FF0E0509316
:103C10005700E49120FF03C0E295EF703F5FEF7023
:103C20008E2F90E0EA30C0F0C7968D939D932F5F62
:103C3000243159F74FBF8091E800877F8093E800D7
:103C40006AE270E0CE0101960E942B068091E800A6
:103C50008B778093E80010C1C096E7CF40910007B2
:103C600050910107292F33272330310509F444C02F
:103C700078F52130310509F46FC08FE990E0E7E372
:103C8000F6E02230310509F0F7C02091E800277FE7
:103C90002093E800209102073091030782179307D1
:103CA00008F49C0140E02115310509F064C0411180
:103CB00062C08091E80082FDC9CF8091FA06882316
:103CC00029F2853019F28091E80083FFF2CFBECF50
:103CD00021323105A9F12232310509F0CDC041155B
:103CE000510509F443C04130510509F0C5C082E3D4
:103CF00090E0E1ECF5E0C9CF992781309105C1F062
:103D0000009759F0029709F0B7C0E8EEF6E0E491A9
:103D10008E2F90E0E8EEF6E007C0E8E1F7E0E491EE
:103D20008E2F90E0E8E1F7E0009709F4A5C0ADCF51
:103D3000E8E0F7E0E4918E2F90E0E8E0F7E0F4CFE0
:103D40004115510571F04130510509F095C089E0E8
:103D500090E0E2E6F6E099CF82E190E0E6EDF6E071
:103D600094CF89E090E0E9E4F6E08FCF84E490E03E
:103D7000E3EFF5E08ACF8091FA06882309F466CF55
:103D8000853009F463CF8091E80083FD5FCF809197
:103D9000E80082FD8ECF8091E80080FF84CF909173
:103DA000F3008091F2002115310519F0883091055A
:103DB00050F041E0089709F040E08091E8008E77EC
:103DC0008093E80070CF44914093F10031962150E8
:103DD00031090196E8CF803809F04EC08091E800A3
:103DE000877F8093E8008091FB068093F1009ECE50
:103DF000811142C01091FE061230F0F58091E8006A
:103E0000877F8093E8001093FB060E947F051123B3
:103E100011F084E005C08091E30087FDFACF81E0D6
:103E20008093FA0642E061EC81E00E949E0542E246
:103E300061EC82E00E949E0542E361E883E00E941B
:103E40009E0542E360E884E00E949E058091FA06A8
:103E500013C08091FE06813079F481E0933009F03F
:103E600080E08093F9061092E9008091E800877F56
:103E70008093E8000E947F058091E80083FF0AC0DC
:103E80008091E800877F8093E8008091EB0080625A
:103E90008093EB00AA96E3E00C948B320E947D1C89
:103EA0002FEF84E39CE0215080409040E1F700C078
:103EB000000088E19AE00FB6F894A895809360001E
:103EC0000FBE90936000FFCF882341F080959091C2
:103ED0005B04892380935B040E94561C0895882309
:103EE00039F090915B04982B90935B040E94561CD0
:103EF00008958823C1F19CEF980F913A78F4E4E299
:103F0000F4E09191891303C0DF0111971C9244E002
:103F1000EA32F407B1F70E94561C089590E2980F18
:103F2000983088F4877021E030E0A90102C0440F86
:103F3000551F8A95E2F7CA01809590915B04892309
:103F400080935B04E8CF9BE5980F933028F490E0D2
:103F500080E00E94F3060895885A8B3120F490E0A7
:103F600080E00E94CE060895CF93C82F8823B1F039
:103F70008CEF8C0F813A00F5E4E2F4E08AE294E001
:103F8000DF012D91C21761F08A179B07D1F76C2FC3
:103F900082E294E00E94B4060E94561CCF910895DC
:103FA0002191C21303C0DF0111971C928E179F0746
:103FB000B9F70E94561CEBCF80E28C0F883068F472
:103FC000C77021E030E001C0220FCA95EAF7809166
:103FD0005B04822B80935B04DFCFEBE5EC0FE330D7
:103FE00040F4F0E0E954FE4F808190E00E94F30637
:103FF000D5CFC85ACB3190F6EC2FF0E0EE0FFF1F73
:10400000E654FE4F808191810E94CE06C7CF1F9358
:10401000CF93DF93182FD0E0C0E0893311F4C0E5CF
:10402000D0E0812F0E94B41F209739F4812F0E9485
:10403000791FDF91CF911F9108958FE99FE001973C
:10404000F1F700C000002197EFCF0F931F93CF939C
:10405000DF93C62FD42F022FFC0185818823A9F07E
:10406000609364080E94A806909363088093620896
:10407000C77081E001C0880FCA95EAF70E946F1FE0
:10408000DF91CF911F910F9108958091640868137B
:1040900032C080916208909163080E948D06883C2E
:1040A000910548F510E21D0FCD17B9F080E28C0F95
:1040B000883040F4C77081E001C0880FCA95EAF7E4
:1040C0000E94641F183048F481E09D2F977001C052
:1040D000880F9A95EAF70E946F1F802F0E94072091
:1040E000183070F6D77081E001C0880FDA95EAF7D2
:1040F0000E94641FC5CFC77081E001C0880FCA95B8
:10410000EAF7F6CFA8E0B0E0E8E8F0E20C9470320D
:1041100066EE7EEF90E080E00E94553360E082E042
:1041200090E00E94373360E083E090E00E943733F4
:1041300010925D0410925C0460E074E184E090E011
:104140000E94553360E086E090E00E9437336FEFC5
:1041500087E090E00E94373340E050E0BA0188E009
:1041600090E00E94493360E084E290E00E9437339F
:1041700060E087E190E00E94373360E08CE090E0FF
:104180000E94373360E08DE090E00E94373319825F
:104190001A821B821C821D821E821F82188648E0A2
:1041A00050E068E170E0CE0101960E94273340E0C4
:1041B00050E0BA0180E290E00E94493340E050E0D4
:1041C000BA018FE090E00E9449330E941A0F80915B
:1041D0006608837011F410922301809166088C7F29
:1041E000816080936608809165088160809365088E
:1041F0008FE780936A080E9461142896E2E00C948D
:104200008C32B0E0A0E0E7E0F1E20C9464327C0193
:10421000FC018481882309F496C321E04081518107
:104220006281738195810E94BF13EC018634FEE7A1
:104230009F0709F4B7C008F060C082343EE79307D7
:1042400009F4EFC1B8F580349E4709F48BC1C1343D
:104250008EE7D80709F4C6C1C338F1E7DF0708F0D5
:10426000C3C2C33721E7D20708F0EDC3C43631E734
:10427000D30708F062C2C73541E7D40708F097C3F7
:10428000C53551E7D50708F040C2CB3481E7D807E0
:1042900008F06FC3C33091E7D90708F01EC3FE01D1
:1042A000E851FC47E730F10508F073C1E950FC4CD8
:1042B0000C945A32F7018581C434FEE7DF0709F414
:1042C00046C108F4BAC1882309F463C120912A04C5
:1042D00081E0282720932A049091130580911405EA
:1042E000222309F4F8C1906890931305887F809386
:1042F000140583E0809304014CC18A343EE79307A0
:1043000009F411C190F4F7018581C834FEE7DF0795
:1043100009F4FFC008F4F1C0882309F43AC10E94EF
:10432000561410922C0482E1FBC08B343EE79307B5
:1043300009F403C185394EE7940708F08DCF409109
:104340000401009113050F778C5490E09C012559CE
:104350003B4F6901F9012081F7018581882309F428
:10436000C2C12F3F09F078CF10911205812F8F70B5
:1043700015951595159515951C54FCE08F9F100DFE
:1043800011241C0F212F2F774F704069E091750782
:10439000F091760763E070E085E797E00995F60114
:1043A00010835ACFF7018581882309F4F2C00CE508
:1043B00011E08AE0682EF8012491222309F4E9C073
:1043C000213009F043C031968491813039F40E5F79
:1043D0001F4FF80184910E94072008C0823049F4E1
:1043E0000E5F1F4FF80184910E94B41F0F5F1F4F93
:1043F000E2CF833039F40E5F1F4FF80184910E94A1
:10440000791FF4CF843009F076C00E5F1F4FF8019A
:10441000249190E080E0F80131962053330B2A304C
:10442000310548F0019710F3EFE9FFE03197F1F71C
:1044300000C00000F7CF689EA001699E500D1124B6
:10444000C901840F951F24918F01E5CFE22FF0E081
:10445000E452FF4F7490822F86958695869590E062
:10446000FC01E453FF4FA4902770B12C022E02C030
:10447000B594A7940A94E2F731E0A322BB24FC018F
:10448000E454FF4F8490912C022E02C0959487949F
:104490000A94E2F741E084229924FC01E455FF4F9D
:1044A000C490D12C02C0D594C7942A95E2F751E06C
:1044B000C522DD24A114B10419F081EE0E94B41FBD
:1044C0008114910419F086EE0E94B41F872D0E947A
:1044D00007208114910419F086EE0E94791FA1141F
:1044E000B10419F081EE0E94791FC114D10409F4BE
:1044F0007DCF8CE270CF8F0179CF882309F449C03A
:104500000E94561410922C0410922D040E94131431
:1045100040C08823F1F10E94561410922C048CE0C4
:1045200080932D04F3CFF7018581882391F10E94B8
:10453000561410922C0488E1F3CFF701858188236B
:1045400041F10E94561410922C0484E2E9CF882392
:1045500001F10E94561480912C0491E089278093E8
:104560002C04D4CFF7018581882399F080918205AE
:10457000909183058430910529F058F501970297B1
:1045800008F06ACE80912B04882351F181508093EA
:104590002B04F7019581992309F450C61092640801
:1045A0009E0130572332310508F031C684E090E097
:1045B0000E94213390936A0480936904FE01E150C4
:1045C000F047E232F10508F027C3E250FC4C0C94AE
:1045D0005A3288309105B1F2809709F03DCED2CFA2
:1045E0008BE0D5CFF7018581882399F280918205F0
:1045F000909183058430910529F050F4019702973A
:1046000008F02ACE80912B048B3048F48F5FBFCF07
:1046100088309105B9F3809709F01ECEF3CF80E082
:10462000B6CFF7018581882309F4B3CF80910601C5
:1046300091E0892780930601ACCF882309F4A9CFA4
:10464000209182053091830580911205243931052E
:1046500031F088F42159310922303105A8F49091C4
:10466000050121E029272093050190932B0499232C
:1046700001F1806F1FC0203A310519F1203E31054C
:1046800071F02839310559F31092050191E09093AA
:104690002B04806F8093120590932C0437CF909158
:1046A000050121E0922790930501992331F01092A2
:1046B0002B048F70809312056CCF9BE090932B049A
:1046C000D8CF109205019BE090932B04806F8093CC
:1046D000120581E044CF9F7790931305887F8093E4
:1046E000140582E007CE2F3F61F02F774F704068AE
:1046F000E0917507F091760763E070E085E797E059
:1047000009958FEFF6018083A7CDC535E1E7DE0778
:1047100009F43DC1C635F1E7DF0709F0C0CDF70167
:104720008581882309F40FC180911205982F9F700D
:10473000993008F008C19F5F34C1C13721E7D20723
:10474000B8F5C63631E7D30708F051C1C43641E7A2
:10475000D40709F438C1C53651E7D50709F09FCD14
:10476000F7018581882309F4EEC020911205822F7C
:10477000859585958595859586300CF0E4C091E00A
:10478000980F9295907F9595959595959595392F3C
:104790003295307F2F70232B2093120518160CF0C2
:1047A000D2C097FFD0C08295807F922F9F70FBC0B0
:1047B000C137DC0709F42DC1C23791E7D90709F0E9
:1047C0006ECDF7018581882309F4BDC08091130562
:1047D000982F9F779F3709F4B6C0933708F031C1FF
:1047E000935F9F7780782BC1C938E1E7DE0709F432
:1047F00086C1D0F5C53821E7D20709F458C1E8F4DD
:10480000C33841E7D40709F433C1C43851E7D507A9
:1048100009F045CDF7018581882309F494C02091E2
:104820001305322F331F3327331F90911405892F1F
:104830008770880F832B8F5F2DC1F70125818091B1
:10484000130590911405C738F1E7DF0709F443C158
:1048500008F04BC140E021114FE7881F8827881FCF
:104860009770990F60E433C1CC3841E7D40709F45D
:1048700068C190F4CA3881E7D80709F450C1CB3831
:1048800091E7D90709F00BCDF7018581811157C157
:104890008FEF8093C80457C0CE38E1E7DE0709F4F4
:1048A00089C108F470C1CF3821E7D20709F0F7CCED
:1048B00080911305982F991F9927991F80911405AE
:1048C0008770880F892BF70195816FEF7FE199231E
:1048D00009F481C10E94D90336C000911305802FCD
:1048E000881F8827881F409114054770440F482B64
:1048F0000F778C2F835090E0FC01E653FB4F6F0144
:104900002081F7018581882319F12F3FE1F48091FF
:104910001205982F9F70859585958595859583506F
:10492000FCE09F9F800D1124C80F2C2F2F7740692A
:10493000E0917507F091760763E070E085E797E016
:104940000995F601C083CDB7DEB7EEE00C94803256
:104950002F3F59F02F774068E0917507F091760767
:1049600063E070E085E797E009958FEFF6018083BB
:10497000EACFF7018581882331F3CB54EC2FEF7018
:10498000C0911205C07FCE2BC0931205DCCFF7017A
:1049900085818823C1F280911205982F9F7099F22A
:1049A000915F9F70807F892B80931205CCCFF70198
:1049B0008581882341F2CD55EC2FE295E07FC091AF
:1049C0001205CF70E0CFF7018581882309F4BBCFB2
:1049D00080911205982F95959595959595959B3F66
:1049E0000CF4B1CF915F9295907F8F70DCCFF7017F
:1049F0008581882309F4A7CFC656ECE0CE9FE02D31
:104A00001124EF77C0911305C078CE2BC093130506
:104A10009ACFF7018581882309F495CF80911305FA
:104A2000982F9F7709F48FCF80789F3721F485677F
:104A30008093130588CF9D30D8F39D509F77892BA5
:104A4000F7CF8F67F5CFF7018581882309F47BCFF6
:104A5000C35780911305C0FB87F980931305C69552
:104A6000C77080911405887FC82BC09314056BCF45
:104A7000F7018581882309F466CF20911305322F31
:104A8000331F3327331F90911405892F8770880FA8
:104A9000832B815F382F3F7080FB27F9209313050C
:104AA000832F8695987F982B909314054CCFF70110
:104AB0008581882309F447CF90911305991F992781
:104AC000991F809114058770880F40E06BE7892B50
:104AD0000E94F20338CF40E021114FE7881F88275A
:104AE000881F9770990F61E4F2CF40E021114FE7E2
:104AF000881F8827881F9770990F62E4E8CFF70115
:104B0000858140E081114FE790911305991F992706
:104B1000991F809114058770880F63E4D8CFF7013F
:104B2000858140E081114FE790911305991F9927E6
:104B3000991F809114058770880F64E4C8CF81E0C5
:104B4000A8CEF7018581882309F4FDCE9091140544
:104B5000292F2695269526952F7081E0820F8F703C
:104B6000880F880F880F9778892B80931405982FCA
:104B7000987709F0E8CE220F220F220F8778822B38
:104B800080931405E0CEF7018581882309F4DBCEFC
:104B900080911405982F987709F4D5CE982F969583
:104BA00096959695915F9F70990F990F990F8778B9
:104BB000892BE6CF80911305982F991F9927991F6C
:104BC000809114058770880F892BF701958160E02B
:104BD00070EE91117FCE70E060E07CCE26E241EE77
:104BE00061EEC7010E942520AECE27E245EE65EEBC
:104BF000F8CF26E241EE60EEF4CF27E245EE64EE18
:104C0000F0CF26E241EE62EEECCF27E245EE66EE13
:104C1000E8CF28E241E0EBCF809169048160809386
:104C2000690495C080916A04886080936A048FC08B
:104C3000809169048260F3CF809169048460EFCF32
:104C4000809169048860EBCF80916A048160EDCF28
:104C500080916A048260E9CF809169048061DFCF2E
:104C6000809169048062DBCF809169048064D7CF32
:104C70000E947D1C809169048068D1CF8091690475
:104C80008C60CDCF80916A048360CFCF809169041E
:104C90008E7FC5CF80916A04877FC7CF80916904DA
:104CA0008D7FBDCF809169048B7FB9CF80916904DE
:104CB000877FB5CF80916A048E7FB7CF80916A04D9
:104CC0008D7FB3CF809169048F7EA9CF80916904D5
:104CD0008F7DA5CF809169048F7BA1CF0E947D1C21
:104CE000809169048F779BCF80916904837F97CFF0
:104CF00080916A048C7F99CF8091690482FB992707
:104D000090F921E0922790FB82F990FB83F987CFFD
:104D100080916A04982F909591708E7F892B90FBDB
:104D200081F983CF90916904892F8F7B96FF8064EE
:104D300076CF0E947D1C90916904892F97FB87F99B
:104D400080586DCF61E08EE090E00E943733609133
:104D5000690470916A0484E090E00E9455330E94D7
:104D60007D1CF1CD60E0EFCF90916904892F8F7E9B
:104D700094FF806154CF90916904892F8E7F90FFBA
:104D800081604DCF90916A04892F877F93FF88605F
:104D90004CCF80912E0481110EC089E2E4E2F4E050
:104DA0009191891303C0DF0111971C9224E0EA322C
:104DB000F207B1F740C285E3F1CF8091660891E038
:104DC000892780936608109223018091650881608D
:104DD00080936508B8CD4AEC57E064ED77E00E9417
:104DE0002507B1CD44ED57E06AEC77E0F8CF46EB0C
:104DF00057E060EC77E0F3CF40EC57E066EB77E00C
:104E0000EECF4CE957E069EA77E0E9CF49EA57E0AD
:104E10006CE977E0E4CF42E857E06FE877E0DFCF76
:104E20004FE857E062E877E0DACF46E657E064E71C
:104E300077E0D5CF44E757E066E677E0D0CF81E072
:104E40000E94AD0380CD85E0FBCF8DE0F9CF82E1FC
:104E5000F7CFC1303CE7D30749F1C3304CE7D40763
:104E6000F9F0C115DC4721F50E947D1C8FEF94E31A
:104E7000ECE081509040E040E1F700C0000087E79F
:104E800097E7909301088093000888E19AE00FB6B5
:104E9000F894A895809360000FBE90936000FFCFB8
:104EA0006FEF7FEF90E080E00E9455330E944E1F2D
:104EB000F701C081D181992309F1CE010E94A91285
:104EC000182F682FCE010E945713BE01812F0E9418
:104ED0004E110E948811C82FD82EF70125813681E6
:104EE00032953F70892F82958F70082F10E08C309B
:104EF000E8F5F801E05EFB4C0C945A32CE010E94BA
:104F00001113182FE2CFD92FDF70907F11F0D295B7
:104F1000D07F8C2F2223C9F0DD2369F090E29C0F13
:104F2000983010F0C1110BC080915B04D82BD09346
:104F30005B040E94561C8C2F0E94B41F17C08091E6
:104F40005A04D82BD0935A04F4CF0E94791FDD2342
:104F500069F0D095C05EC83010F0D11019C08091B2
:104F60005B04D823D0935B040E94561C085011099F
:104F70000430110510F40E94180720E0F701408169
:104F8000518162817381848195810E94BF13DBCC42
:104F900080915A04D823D0935A04E6CF892F8F707A
:104FA000907F903211F08295807FF1E0DF120CC08B
:104FB000222329F03630D0F60E946F1FD7CF35302C
:104FC000A8F60E94641FD2CF222319F03323A1F345
:104FD000B2CF3323B1F3C93349F42FEF37EE43E0B7
:104FE000215030404040E1F700C000008C2F0E946B
:104FF000791FBCCF892F86958695837061F08130AB
:1050000009F0B4CF8C2F9370211102C080E090E0A2
:105010000E94CE06ABCF8C2F9370211102C080E08E
:1050200090E00E94F306A2CF892F837009F042C05E
:1050300021119CCF8C2F829586958770880F880FC1
:105040002C2F2F7030E0082E02C0220F331F0A943D
:10505000E2F750E040E0C4FF09C04FE050E002C07A
:10506000440F551F8A95E2F7409550959695969571
:1050700093709230A9F080F460915C0470915D04AB
:10508000913041F0C901842B952B862397230E94F0
:1050900097136CCF262B372BC901842B952BF7CF79
:1050A000C901842B952B20915C0430915D048227EB
:1050B0009327EDCF8695222311F0892F81708823C5
:1050C00009F454CF8C2F829586958770880F880FAE
:1050D0002C2F2F7030E0082E02C0220F331F0A94AD
:1050E000E2F750E040E0C4FF09C04FE050E002C0EA
:1050F000440F551F8A95E2F74095509596959695E1
:1051000093709230A9F080F46091820570918305CC
:10511000913041F0C901842B952B862397230E945F
:10512000701324CF262B372BC901842B952BF7CF57
:10513000C901842B952B209182053091830582270C
:105140009327EDCFD92FDF70222329F08D2F0E94D6
:1051500087138C2F31CF8C2F0E94641F8D2F0E94BC
:10516000751304CF8C2F51EFC51791F15C1750F0D8
:10517000E0EFCE17D1F02223D1F13111DCCE892F0F
:105180008F712AC0F2EFCF1751F143EFC413F3CF61
:10519000222351F19F7121E030E0F90102C0EE0FAE
:1051A000FF1F9A95E2F7CF01BACF222369F035307D
:1051B00008F0DCCE292F2F7181E090E002C0880F2B
:1051C000991F2A95E2F7B7CF363008F0CFCEF2CF4D
:1051D000892F8F71222319F20E948713C7CE892F3E
:1051E0008F712223C9F3BBCF90E080E098CF3323A7
:1051F00059F0893309F0FACEFFEF27EE33E0F15092
:1052000020403040E1F7F0CE892F8F71A8CFC63112
:10521000FCE7DF0709F01DCE80915B048A7A91E0FC
:1052200009F490E090932E0469E2811165E382E233
:1052300094E00E94B4060E94561C85CBC6312CE730
:10524000D20709F4A6CD80915B048272FE01E05280
:10525000F847E531F10508F02BCEE45DFB4C0C94EA
:105260005A32CF93DF9380915104807F09F04DC073
:1052700080915004882309F448C0E0913D07509183
:105280000407C0914C04D0914B0460914D0470917F
:105290004E0447E05E17C9F18E2F90E0E49FF001C5
:1052A0001124EB5FF84F2481222391F1489FF001F4
:1052B000499FF00D1124DF01AB5FB84F11962C917F
:1052C00011972C1325C02C912D1322C015962C91CB
:1052D000159721111DC012962D913C91261B370B5D
:1052E000283C3105A8F4809151048F70806180932F
:1052F0005104E55FF84F80818F70806180838BE47B
:1053000094E00E9401210E949F12DF91CF910895A5
:10531000FC013196E770BECFA4E1B0E0E2E9F9E22A
:105320000C9466328C0186E0F801DE011F96019034
:105330000D928A95E1F7F8018481E5809BE4A92E1E
:1053400094E0B92E90914F04911128C0882319F14F
:10535000EE20F1F0C8010E949C13F82E8823C1F0C2
:1053600087E0F801D50101900D928A95E1F78091CF
:105370004F04813031F480914B0490914C040E9491
:10538000DD120E9431298F2D6496ECE00C9482325C
:10539000C8010E940121FF24F394F5CFD080C18081
:1053A00082809380F090500420914D0430914E04FF
:1053B000A401421B530BFF2009F4D9C0483C5105FE
:1053C00008F092C08823F9F290914C048091510426
:1053D000282F207F09F056C0C91214C090914B04A9
:1053E000D91210C0E11048C08F70806180935104C1
:1053F0008BE494E00E94012180915104F80186839E
:10540000F12CC1CFE11038C06C2D8D2D0E9403040A
:105410006C2D8D2D0E940304E82E8111F1CFDF86C3
:10542000C88A8F8598890E94DD12292F22952F70B6
:10543000243058F49F70223088F0992399F0F801B5
:105440009681907F79F4FE2C9ECF2A5F2F702230B8
:1054500068F0C8010E940121EF2CF5CF992311F0CB
:10546000882389F3805E883070F3F3CF803F58F350
:10547000815F833070F7E7CF809151048160809322
:105480005104BECFC91207C090914B04D91203C07A
:10549000EE2009F48DC0C8010E949C13882309F4F2
:1054A00077CFEE2009F474CF80915104803288F0D8
:1054B00020914B0430914C04398728879B868A863B
:1054C00090914F049C871D868E87CE0108960E947E
:1054D000012187E0F801ABE4B4E001900D928A95D8
:1054E000E1F70E94312957CF90915104292F207F55
:1054F00051F48BE494E00E94012187E0F5011192C0
:105500008A95E9F77DCF882309F43DCF80914C043B
:105510008C1110C080914B04D8120CC0E1100AC04D
:105520009683C8010E94012187E0F50111928A95B6
:10553000E9F729CFC8010E949C13882309F428CFDA
:10554000EE2009F425CF80915104803210F2209191
:105550004B0430914C043A8329839C828B82909136
:105560004F049D831E828F83CE010196B0CF483CAD
:105570005105D0F6882309F40ECFFE2CEE2009F455
:1055800007CF80914C048C1120C080914B04D8121D
:105590001CC08091510480FD0FC0982F907F61F056
:1055A0008683903F31F0982F907F905F8F70892B8A
:1055B0008683C8010E94012187E0F801ABE4B4E0D2
:1055C00001900D928A95E1F7DECEC8010E949C13EE
:1055D00081117FCF80915104816080935104C80173
:1055E0000E940121D0CEABE1B0E0E9EFFAE20C94E9
:1055F0006E324E8B5F8B688F798F8A8F9B8F192FBE
:10560000911110925A041D8A86E0FE017696DE0101
:105610001F9601900D928A95E1F70A8D002341F0C3
:1056200021E04F85588969897A89C8010E94BF1392
:105630000B8B1C8B87E0FE013F96DE0118960190D4
:105640000D928A95E1F7CE0108960E948C2981116E
:105650000CC087E0FE013896DE01119601900D9294
:105660008A95E1F78C8581110BC017E080913D0789
:1056700090910407891331C06B96E4E00C948A3250
:105680002091040730E0C901019687709927409165
:105690003D074817190699F097E0929FD001939F14
:1056A000B00D1124AB5FB84FFE01319601900D9201
:1056B0009A95E1F7809304070E949F12D6CF0E942B
:1056C0007D1C1092040710923D0787E0EBE4F4E0A4
:1056D000DF011D928A95E9F7C8CF819FC00111248F
:1056E0008B5F984F0E948C29882331F280913D076F
:1056F00090E001968770992780933D07B7CFA6E089
:10570000B0E0E5E8FBE20C946E320E94A8068C0142
:1057100080915E0490915F048017910781F0198257
:105720001A820E94A806682F49815A81792F80E049
:1057300090E00E94F32A10935F0400935E04269683
:10574000E4E00C948A321F920F920FB60F9211244C
:105750002F933F934F935F936F937F938F939F9379
:10576000AF93BF93CF93DF93EF93FF93D091E90073
:10577000DF708091EC00C82FC17080FDC0E81092EE
:10578000E9008091F000877F8093F00078940E9478
:10579000931C1092E9008091F00088608093F000E3
:1057A000CD2BCF70C093E900FF91EF91DF91CF91A6
:1057B000BF91AF919F918F917F916F915F914F9129
:1057C0003F912F910F900FBE0F901F9018951F9231
:1057D0000F920FB60F9211242F933F934F935F9325
:1057E0006F937F938F939F93AF93BF93EF93FF93A9
:1057F0008091E10082FF09C08091E20082FF05C034
:105800008091E1008B7F8093E1008091DA0080FF3E
:1058100024C08091D80080FF20C08091DA008E7F64
:105820008093DA008091D90080FF9DC080E189BD1E
:1058300082E189BD09B400FEFDCF81E08093FA06C4
:105840008091ED06811109C00E9405050E94D005D6
:105850008091E20084608093E2008091E10080FF0B
:1058600017C08091E20080FF13C08091E2008E7F1C
:105870008093E2008091E20080618093E200809159
:10588000D80080628093D80019BC85E08093FA0626
:105890008091E10084FF2BC08091E20084FF27C04B
:1058A00080E189BD82E189BD89B5982F917080FF23
:1058B000FBCF8091D8008F7D8093D8008091E1004C
:1058C0008F7E8093E1008091E2008F7E8093E200E2
:1058D0008091E20081608093E2008091FB06882342
:1058E00009F447C084E08093FA068091FA0680911B
:1058F000E10083FF27C08091E20083FF23C08091F5
:10590000E100877F8093E10082E08093FA061092A5
:10591000FB068091E1008E7F8093E1008091E200A0
:105920008E7F8093E2008091E20080618093E200AC
:1059300042E060E080E00E949E058091F000886077
:105940008093F000FF91EF91BF91AF919F918F9164
:105950007F916F915F914F913F912F910F900FBE6B
:105960000F901F90189519BC1092FA061092ED0630
:1059700074CF8091E30087FD93E09093FA06B5CF52
:1059800078941F921FB61F9211248F939F93AF9309
:10599000BF938091E9069091EA06A091EB06B09141
:1059A000EC060196A11DB11D8093E9069093EA06CD
:1059B000A093EB06B093EC06BF91AF919F918F91AE
:1059C0001F901FBE1F9018951F921FB61F92112483
:1059D0008F939F93AF93BF938091E806811113C07B
:1059E0008091E9069091EA06A091EB06B091EC0651
:1059F0004196A11DB11D8093E9069093EA06A093FC
:105A0000EB06B093EC06BF91AF919F918F911F90E1
:105A10001FBE1F901895CDB7DEB7A9970FB6F894A3
:105A2000DEBF0FBECDBF85B7806885BF85B78068F4
:105A300085BF0E941A0F10929A0710929C0710922D
:105A40009B0780EC80935F088DE997E09093610855
:105A50008093600810925E0810925D0810927A0799
:105A60001092790710927C0710927B0710927E07A4
:105A700010927D071092800710927F071092820784
:105A80001092810710928407109283071092860764
:105A900010928507109288071092870710928A0744
:105AA0001092890710928C0710928B0710928E0724
:105AB00010928D071092900710928F071092940702
:105AC0001092930785EF9FE0909376078093750778
:105AD0008CE59FE0909396078093950788E39FE07D
