:100000000C945F020C94A6020C94A6020C94A60217
:100010000C94A6020C94A6020C94A6020C94A602C0
:100020000C94A6020C94A6020C949C260C947027A7
:100030000C94011D0C94A6020C94A6020C94A6022A
:100040000C94A6020C94A6020C94A6020C94A60290
:100050000C94A6020C94581D0C94A6020C94A602B3
:100060000C94A6020C94A6020C94A6020C94A60270
:100070000C94A6020C94A6020C94A6020C94A60260
:100080000C94A6020C94A6020C94A6020C94A60250
:100090000C94A6020C94A6020C94A6020C94A60240
:1000A0000C94A6020C94A6020C94A602A843B95C78
:1000B000625D635DBA5C3B5C3C5CB15C3D5C3E5C3C
:1000C0003F5C405C415C425C435CAA00445C455C34
:1000D000465C475C485C495C4A5CA9004B5C4C5CF4
:1000E0004D5C4E5C4F5C505C515C0000525C535C5C
:1000F000545C555C565C575C585C0000595C5A5C1B
:100100005B5C5C5C5D5C5E5C5F5C00000100010050
:10011000905C915C01000100010001000100010000
:1001200001000100010001000100010001000100C7
:1001300001000100010001000100010001000100B7
:1001400001000100010001000100000001000100A8
:100150000100010001000100010000000100010098
:100160000100010001000100010000000100000089
:10017000000000000000000000000100000000007E
:10018000000000000000000000000100000000006E
:10019000000000000000000000000100000000005E
:1001A000000000000000000000000000000000004F
:1001B000000000000000000000000000000000003F
:1001C00000000000000000000000000001009C5C36
:1001D000815C825C9D5C655D665D00000252000092
:1001E000000000000000000000000000000000000F
:1001F00000000000000000000000000000000000FF
:1002000000000000000000000000000000000000EE
:10021000C85C0000C65C0000CC5C00000000CA5C4A
:100220000000C45C0000645D0000000000000000ED
:10023000000000002A2B2800000000000000000041
:100240000000000000000029000000002C1E3420E7
:10025000212224342627252E362D3738271E1F200D
:100260002122232425263333362E37381F04050652
:100270000708090A0B0C0D0E0F1011121314151696
:100280001718191A1B1C1D2F3130232D3504050694
:100290000708090A0B0C0D0E0F1011121314151676
:1002A0001718191A1B1C1D2F3130354C0000000087
:1002B000000000000000000000000000000000003E
:1002C000000000000000000000000000000000002E
:1002D0007E0F00D4FFFFFFC7000000781E036300FD
:1002E000680072006F006D00610074006F006E00A6
:1002F00065006D0069006E00690000000E033300A8
:1003000061007200610068007400000004030904C9
:100310000902BF00050100A0FA0904000001030161
:100320000100092111010001224000070581030895
:10033000000A090401000203000000092111010064
:100340000122220007058203200001070503032084
:10035000000109040200010300000009211101004D
:1003600001227B000705840320000A080B03020119
:10037000010000090403000001010000092401003C
:10038000010900010409040400020103000007241C
:1003900001000141000624020101000624020202BC
:1003A00000092403010301020100092403020401DE
:1003B00001010009050602400005000005250101B4
:1003C0000109058502400005000005250101031211
:1003D00001000200000008EDFEB4F401000102007B
:1003E000010660FF0961A1010962150026FF009561
:1003F00020750881020963150026FF009520750805
:100400009102C005010902A10185020901A10005AF
:1004100009190129081500250195087501810205B2
:1004200001093009311581257F950275088106097A
:10043000381581257F950175088106050C0A38025B
:100440001581257F950175088106C0C005010980C9
:10045000A101850319012AB700150126B7009501EE
:1004600075108100C0050C0901A101850419012A3C
:10047000A002150126A002950175108100C005019A
:100480000906A101050719E029E7150025019508CE
:10049000750181029501750881010507190029FF81
:1004A000150026FF00950675088100050819012929
:1004B00005950575019102950175039101C01124FF
:1004C0001FBECFEFDAE0DEBFCDBF04B603FE27C00C
:1004D0008091BE039091BF03A091C003B091C1036E
:1004E0008730904BA740B04BD1F41092BE031092CE
:1004F000BF031092C0031092C10314BE84B7877F5C
:1005000084BF0FB6F894A8958091600088618093AD
:100510006000109260000FBEE0E0F8E3099511E082
:10052000A0E0B1E0EEEBF3E502C005900D92A83C2F
:10053000B107D9F723E0A8ECB1E001C01D92AE3BB2
:10054000B207E1F70E946E110C94A6290C940000EA
:10055000882311F0815008958BE008958B3010F4BA
:100560008F5F089580E00895DF92EF92FF920F93DE
:100570001F93CF93DF9300D000D000D0CDB7DEB76C
:10058000082F162F0E94D616D82E8823D1F00111DD
:1005900018C084E0189FF0011124EF5DFE4FF08039
:1005A000E280C7010E942609B7010E9441198C010F
:1005B000E982FA820C329CE5190790F4C8010E9486
:1005C000A6038D2D26960FB6F894DEBF0FBECDBFC5
:1005D000DF91CF911F910F91FF90EF90DF900895E1
:1005E00081E08B83BE016F5F7F4FC8010E94A51120
:1005F0008FE39CE90197F1F700C000001B82BE0168
:100600006F5F7F4FC8010E94A511DBCFECEBF2E0DA
:100610008081807F8260808381E00C947908ECEB9C
:10062000F2E080818F7080831092CA010895833632
:100630002DE5920711F128F482369D4599F081E06D
:10064000089585362DE5920739F086369D45B9F730
:100650000E940F0382E003C00E940F0381E00E940A
:100660007908EDCFFB018281882349F38091CA018B
:100670000E94A8028093CA01E2CFFB0182818823F5
:10068000F1F28091CA010E94AE02F4CF9C013A952A
:1006900021153F4150F5FC01EE27F170BC016627A2
:1006A0007270AC01442754709C012227387094FF6B
:1006B0000EC080E1EF2B09F480E0672B09F0806227
:1006C000452B09F08064232B89F08068089581E030
:1006D000EF2B09F480E0672B09F08260452B09F0CD
:1006E0008460232B19F08860089580E00895CF93EB
:1006F000DF93EC010E9446039E01205E3109283001
:10070000310510F0209739F40E944C068C2FDF91B0
:10071000CF910C94B0050E940208F8CFCF93DF93DD
:10072000EC010E94FE05CE010E9446039E01205E60
:1007300031092830310510F0CD2B21F4DF91CF9114
:100740000C945306DF91CF910C940908CF93DF935B
:10075000EC010E9477038FE39CE90197F1F700C059
:100760000000CE01DF91CF910C948E0381E00895BB
:100770000C94170308950C94BA031F93CF93DF933F
:1007800000D000D00F92CDB7DEB749835A836B8378
:100790003091CB0189819A8131111DC06623B9F056
:1007A0002223A9F00E942609182F682F89819A8197
:1007B0000E94D10869817A81812F0F900F900F904C
:1007C0000F900F90DF91CF911F910C9441190E94CF
:1007D000FE08182FEFCF0E94260969817A81EDCF9C
:1007E000FC01262F408151816281738184810C94A8
:1007F000BD0381E00895CF93DF93EC0160E00E9498
:10080000F003BE01DF91CF910C94BB03E1E0F0E077
:10081000DF0102C0AA0FBB1F6A95E2F7BD01DF012D
:1008200002C0AA0FBB1F4A95E2F76A2B01C0EE0F68
:100830002A95EAF7962F9823961302C08E2B0895D7
:10084000E0958E230895242F462F682F8091DE0196
:100850000E9406040C948E080E9412100E946405E7
:100860000C942D100C94301008950E9426080E94BC
:1008700034042FEF84E39CE0215080409040E1F766
:1008800000C000000C947C1D0F931F93CF93DF9347
:10089000EC0161E00E94F0038C01BE010E94881708
:1008A000882389F1BE01C8010E94B803882359F149
:1008B000BE01C8010E94A511882329F1BE01C8010B
:1008C0000E94781A8823F9F0BE01C8010E94CA1A52
:1008D0008823C9F0BE01C8010E94ED1B882399F04E
:1008E0008A81882339F001158CE5180751F00E3DF7
:1008F0001C4579F0CE01DF91CF911F910F910C949F
:10090000B6030E94350480E0DF91CF911F910F91D3
:1009100008950E94420DF7CFDF92EF92FF920F935E
:100920001F93CF93DF93E82FF0E0E45DFD4FD49069
:10093000282F26952695269530E0F901E453FD4FA2
:100940000491877010E0082E02C0159507950A944F
:10095000E2F701701127F901E454FD4FE490F12C06
:10096000082E02C0F594E7940A94E2F791E0E92298
:10097000FF24F901E455FD4FC491D0E002C0D595A4
:10098000C7958A95E2F7C170DD270115110519F0A9
:1009900081EE0E94B005E114F10419F086EE0E9488
:1009A000B0058D2D0E944406EF2819F086EE0E94B6
:1009B000FE05012B19F081EE0E94FE05CD2B51F0B2
:1009C0008CE2DF91CF911F910F91FF90EF90DF901C
:1009D0000C944406DF91CF911F910F91FF90EF90FF
:1009E000DF900895EF92FF920F931F93CF93DF93C1
:1009F000EC01162F0AE08881882309F454C0813065
:100A000009F04EC08981813099F47E0122E0E20E26
:100A1000F11C8A810E944406E7012196812F8150B2
:100A200050F3EFE9FFE03197F1F700C00000F7CF96
:100A3000823041F47E0182E0E80EF11C8A810E943E
:100A4000B005EACF833041F47E01E2E0EE0EF11C06
:100A50008A810E94FE05E0CF843011F02196DDCF1F
:100A60002A81229690E080E0AE014F5F5F4F2053D5
:100A7000330B2A30310548F0019778F2EFE9FFE0B7
:100A80003197F1F700C00000F7CF089FB001099F30
:100A9000700D1124C901860F971F2981EA01E4CF47
:100AA0000E948C04BACFDF91CF911F910F91FF90DC
:100AB000EF90089560E00C94F20408950C945D05A5
:100AC00081E008950C9460050895CF93C82F0E948B
:100AD0005E058C2FCF910C946205CF93DF93CDB739
:100AE000DEB72B970FB6F894DEBF0FBECDBF4F8396
:100AF000588769877A878B8761110E94920C1E82C2
:100B00001D8285E0FE013796DE01119601900D925F
:100B10008A95E1F78C819D81892B89F449815A81DD
:100B20006B817C818D819E810E94A50B2B960FB6D7
:100B3000F894DEBF0FBECDBFDF91CF9108958981BC
:100B40009A8189238F3F51F3CE0101960E94F903C8
:100B50008111E4CFEBCFFC01808191810C9453098A
:100B6000CF93C82F882309F447C08CEF8C0F813AAC
:100B7000A0F46C2F80910001909101010E946D1CE6
:100B8000882329F08C2F0E94460C0E94530C8C2F36
:100B90000E943F0CCF910C94530C80E28C0F883054
:100BA00048F4C77081E001C0880FCA95EAF70E9437
:100BB000750CF0CFEBE5EC0FE33040F4F0E0E95AD0
:100BC000FE4F808190E0CF910C94411CE8E5EC0F42
:100BD000E73150F4F0E0EE0FFF1FE75DFE4F80813C
:100BE0009181CF910C94571CC03F30F08C2F0E9404
:100BF000CE14CF910C94A115CF910895882361F163
:100C00009CEF980F913A20F40E94460C0C94530CE0
:100C100090E2980F983050F4877091E001C0990FDE
:100C20008A95EAF7892F0E947B0CF0CF9BE5980FFD
:100C3000933020F490E080E00C94411C98E5980FEC
:100C4000973120F490E080E00C94571C803F20F016
:100C50000E9428150C94A11508951F93CF93DF933C
:100C6000182FEB010E94B005209731F4812FDF91FE
:100C7000CF911F910C94FE058FE99FE00197F1F74A
:100C800000C000002197F0CF6AE070E0893311F4D2
:100C900060E570E00C942D06882321F00E94750C0D
:100CA0000C94530C0895882321F00E947B0C0C9423
:100CB000530C08950F931F93CF93DF93DC01062FFE
:100CC000972F12962C91129715964C911597342FB9
:100CD00032953F70872F82958F70C82FD0E08C306F
:100CE00090F5FE01E855F64D0C944A29172F1F7018
:100CF000907F11F01295107F2223A9F0112359F053
:100D000080E2800F883010F0011109C0812F0E940D
:100D1000750C0E94530C802F0E94B00514C0812FC7
:100D20000E94850CF6CF802F0E94FE05112359F0FA
:100D300080E2800F883010F0011111C0812F0E94D5
:100D40007B0C0E94530C2897249708F023C10E9423
:100D50001C1CDF91CF911F910F910C946505812F81
:100D60000E948B0CEECF872F8F70907F903211F006
:100D70008295807F013061F4222329F0363018F704
:100D80000E944C06E0CF3530F0F60E945306DBCFD0
:100D9000222341F03323A1F340FFBDCF4F701596BE
:100DA0004C93EECF332389F3093309F0EBC02FEFD7
:100DB00087EE93E0215080409040E1F700C00000B2
:100DC000802F0E94FE05BFCF872F86958695837062
:100DD00061F0813009F0B7CF862F9370211102C0E6
:100DE00090E080E00E94571CAECF862F93702111B7
:100DF00002C090E080E00E94411CA5CF862F2223F4
:100E000029F00E94CE140E94A1159DCF0E942815A2
:100E1000FACF872F837081F5211195CF862F829588
:100E200086958770880F880F462F4F70082E01C057
:100E3000440F0A94EAF7262F207164FF07C02FE0C1
:100E400030E001C0220F8A95EAF720959695969595
:100E50009370822F842B923049F058F4913019F01E
:100E60000E94800870CF0E947B086DCF0E94850889
:100E70006ACF0E94790867CF8695222311F0872FC9
:100E80008170882309F45FCF802F829586958770C3
:100E9000880F880F402F4F70082E01C0440F0A940E
:100EA000EAF7202F207104FF07C02FE030E001C0D7
:100EB000220F8A95EAF72095969596959370822F42
:100EC000842B923049F058F4913019F00E94C608F2
:100ED0003ACF0E94C10837CF0E94CB0834CF0E947E
:100EE0008E0831CF172F1F70222329F0812F0E94E7
:100EF0009F08802F45CF862F0E945306812F0E9486
:100F0000AA0821CF613F19F148F4603F91F02223F4
:100F100069F1311100CF892F8F711DC0623FF1F04F
:100F2000633FA9F72223F9F0872F8F710E9497085A
:100F30000ACF222341F0353008F005CF892F8F7179
:100F40000E94B60800CF363008F0FDCEF7CF872FCD
:100F50008F712223A1F20E949F08F5CE872F8F71F7
:100F60002223C9F3CCCF0E949408EDCE332379F02D
:100F7000093341F49FEF27EE83E0915020408040F9
:100F8000E1F71CCF8FE39CE90197F1F717CF892F89
:100F90008F71B5CFDF91CF911F910F9108950F936E
:100FA0001F93CF93DF93EC01688179818A810E943E
:100FB0005D098C010E94D0080E947808B801CE011A
:100FC000DF91CF911F910F910C945A06CF93DF932D
:100FD000EC018B819C81892B29F08881998189235F
:100FE0008F3F19F4DF91CF910895CE010E94440400
:100FF0008823C1F3CE010E94CF07CE01DF91CF91AC
:101000000C94FB03882321F00E94850C0C94530C54
:101010000895882321F00E948B0C0C94530C0895A2
:1010200090E080E00E94411C90E080E00E94571C0C
:101030000E94920C0E94950C0E94530C0E94C816AC
:101040000C94A1150E944D0C0C9410080E94820C67
:101050000C942208E92FE295EF70E250EE3070F424
:10106000F0E0EC54F64D0C944A29803F19F020F43E
:10107000883E20F481E00895843FE1F380E0089504
:10108000883EC0F3813FD1F7F5CF93FB882780F9E5
:101090000895FC01808191810E9453090C942A08D3
:1010A000CF93DF9300D000D00F92CDB7DEB70F9073
:1010B0000F900F900F900F90DF91CF910895CF93E5
:1010C000DF9300D000D000D0CDB7DEB726960FB6A4
:1010D000F894DEBF0FBECDBFDF91CF910895089584
:1010E0000C946F080E9470088093DF010C94100824
:1010F00008950C9472089091DF01892B0C9472086A
:101100009091DF0189230C9472089091DF01892767
:101110000C9472080C946F080C948A080E948C0836
:101120008093DE010C94100880E00C948E0891E00E
:1011300001C0990F8A95EAF7892F0C948E0821E057
:1011400030E001C0220F8A95EAF78091DE01822B00
:101150000C948E0821E030E001C0220F8A95EAF756
:1011600020958091DE0182230C948E0821E030E0EE
:1011700001C0220F8A95EAF78091DE0182270C9444
:101180008E089091DE01892B0C948E089091DE01DF
:1011900089230C948E089091DE0189270C948E0887
:1011A0000895990F990F990F890F982F977041E023
:1011B00001C0440F9A95EAF786958695869593E047
:1011C000899FF0011124E453FE4F30E020E070E0ED
:1011D0005191DF011197CB01022E02C096958795A0
:1011E0000A94E2F7817081958527842385278C9363
:1011F0002F5F3F4F2330310559F70895990F990F0D
:10120000990F890F982F977086958695869523E07C
:10121000829FF0011124E453FE4F50E040E080E053
:10122000219130E0092E02C0369527950A94E2F705
:1012300021703327042E01C0220F0A94EAF7822B73
:101240004F5F5F4F4330510559F70895CF92DF92BA
:10125000FF920F931F93CF93DF936C010091DE01F8
:101260008091DF01082BC7E0D0E010E0FC2EC80120
:101270000C2E02C0959587950A94E2F780FD0CC06C
:101280002197A0F7F12C8F2DDF91CF911F910F9116
:10129000FF90DF90CF900895B6018C2F0E941A0F17
:1012A000019771F3F0CFCF93DF93EC010E942609F1
:1012B000BE01DF91CF910C941A0F1F93CF93DF9350
:1012C000EB019091CB01992331F0CB01DF91CF91CC
:1012D0001F910C945309882379F0CB010E942609B1
:1012E000182F682FCE010E94D108BE01812FDF91F7
:1012F000CF911F910C941A0FCB010E94FE08182F5A
:10130000F4CF1F93CF93DF93C091E00116E080915B
:10131000E1018C1304C0DF91CF911F910895D0E0BB
:101320001C9FF0011D9FF00D1124EE51FE4F4081D6
:10133000518162817381848195810E945F08219629
:10134000C770E5CF409112025091130260911402D0
:101350007091150280911602909117020C945F080B
:101360001F93CF93DF9380911702807FA9F4809120
:101370001402882389F08091E001C091E10160911D
:10138000120270911302A0911502B0911602D62F8D
:10139000D72316E0C81304C0DF91CF911F910895A1
:1013A00090E0109711F0DF3F19F401968770F2CFAB
:1013B000189F9001199F300D1124F901EE51FE4F35
:1013C00041814713F2CF40814613EFCF4281411153
:1013D000ECCF438154814A1B5B0B483C510528F7F5
:1013E000809117028F70806180931702F901E95193
:1013F000FE4F80818F708061808382E192E00E9445
:10140000E607DF91CF911F910C948109AF92BF92B3
:10141000CF92DF92EF92FF920F931F93CF93DF93C0
:10142000CDB7DEB761970FB6F894DEBF0FBECDBF64
:101430008C0185E0F801DE011D9601900D928A95E0
:10144000E1F7F801E28082E1C82E82E0D82E6091B7
:101450001502709116026115710509F45AC1909137
:10146000120220911302892F82238F3F09F451C168
:1014700040815181A380B480F0901402F501E61BF5
:10148000F70BFF2009F4F6C080911702382F307F48
:10149000E83CF10508F0AFC0311179C0FE2C2513EE
:1014A00023C0941321C0E1101FC08F70806180930E
:1014B00017020E94A209C6010E94E6078091170246
:1014C000F80185838F2D61960FB6F894DEBF0FBEAD
:1014D000CDBFDF91CF911F910F91FF90EF90DF90E3
:1014E000CF90BF90AF900895AB2829F0842F85232B
:1014F0008F3F09F027C180E0F82FF170DF2E80FFC9
:101500003CC08091E0012091E10136E0821315C0DA
:101510004D875E878D859E850E945309292F2295D0
:101520002F702230F0F0243018F59F70F1F0F801A0
:101530009581907FD1F4D12C1EC090E0389FF001AE
:10154000399FF00D1124EE51FE4F6181651306C0E5
:101550006081641303C06281E6120FC00196877038
:10156000D5CF9F7011F0882331F3805E883018F357
:10157000C8010E94E607FD2CA5CFEE2009F4A2CFFA
:1015800080911702816080931702F12C9BCF251365
:1015900006C0941304C0F801EE2009F487C0C80106
:1015A0000E944908882319F1EE2009F18091170261
:1015B000803270F0209112023091130238872F830D
:1015C0001986BB86AA868C87CE0107960E94E607FD
:1015D00086E0F801A2E1B2E001900D928A95E1F770
:1015E0000E94B0090E94A209FF24F3946BCFC801A6
:1015F0000E94E607F9CF311113C07A2DB98AA88A63
:101600006E2D89890E94500882E192E00E94E607CF
:1016100086E0F60111928A95E9F70E94A209B5CFFA
:1016200025130FC094130DC0E1100BC0F801858382
:10163000C8010E94E60786E0F60111928A95E9F753
:1016400041CFC8010E944908882389F2EE2079F22F
:1016500080911702803208F4BBCF209112023091A2
:1016600013023A8329831B82BD82AC828E83CE0112
:101670000196ACCFE83CF10508F03EC0FE2CEE2010
:1016800009F4B5CF25132AC0941328C080911702FE
:1016900080FD1BC0982F907FC1F0F8018583903F9B
:1016A00031F0982F907F905F8F70892B8583C801D0
:1016B0000E94E60786E0F801A2E1B2E001900D92F7
:1016C0008A95E1F70E94A209FDCE86E0F801A2E129
:1016D000B2E001900D928A95E1F7F4CEC8010E9424
:1016E0004908811175CF809117028160809317029C
:1016F000C8010E94E607E6CE7A2DB98AA88A6E2D27
:1017000089890E94500886E0F60111928A95E9F7CE
:10171000D9CFEE2009F46BCFC8010E944908F82EFA
:10172000882309F464CF86E0F801A2E1B2E00190D9
:101730000D928A95E1F782E192E00E94AB050E944A
:10174000B009C0CF81E08E25D7CE1F93CF93DF9312
:10175000CDB7DEB72C970FB6F894DEBF0FBECDBF66
:101760004F83588769877A878B879C87CE01079636
:101770000E94060A882369F08A859B85892B39F0A7
:101780004F815885842F85238F3F09F071C016E063
:101790005FC086E0FE013796DE01119601900D9242
:1017A0008A95E1F78A859B85892B89F38F819885B6
:1017B00089238F3F61F32091E10130E0C901019657
:1017C000877099274091E0014817190671F40E942B
:1017D00026081092E1011092E00186E0E2E1F2E0D9
:1017E000DF011D928A95E9F7D2CF96E0929FD00152
:1017F000939FB00D1124AE51BE4FFE013196019062
:101800000D929A95E1F78093E1010E948109BFCF83
:10181000819FC00111248E519E4F0E94060A882389
:10182000E9F0E091E0011E9FF0011124EE51FE4F1E
:101830004081518162817381848195810E945F081A
:101840008091E00190E00196877099278093E001F4
:101850008091E0019091E1018913DACF2C960FB6C7
:10186000F894DEBF0FBECDBFDF91CF911F910895D9
:1018700069857A858B859C850E945F0888CF682F53
:1018800080910001909101010C94A31C682F80911C
:101890000001909101010C94A51C80910001909190
:1018A00001010C94A71CE0910001F09101018091CD
:1018B00022028083E0910001F091010180819091EA
:1018C0002102892B8083E0910001F0910101808148
:1018D00090912002892B80838091000190910101D9
:1018E0000C94281C80912202089590912202892B49
:1018F00080932202089580959091220298239093DC
:101900002202089510922202089590912102892BBB
:1019100080932102089580959091210298239093BD
:101920002102089510922102089510922002089534
:101930006FEF7FEF90E080E00C94902990E080E0E2
:101940000E946C29893E9E4F11F40C94311780E05F
:10195000089582E090E00C94642983E090E00C9478
:101960006429CF9384E090E00E946429C82F82E22A
:1019700090E00E946429982F8C2FCF910895CF93E7
:10198000C92F682F84E090E00E9472296C2F82E2B8
:1019900090E0CF910C947229AB01BC018FE090E0F4
:1019A0000C948429AB01BC0183E190E00C94842960
:1019B00060E070E0CB010C94D20C60E070E0CB01F1
:1019C0000E94CC0C0C94D80C69EE7EEF90E080E085
:1019D0000E94902960E082E090E00E94722960E01D
:1019E00083E090E00E9472291092DF0160E084E0C1
:1019F00090E00E94722960E082E290E00E947229E9
:101A000060E085E090E00E94722960E086E090E06E
:101A10000E9472296FEF87E090E00E94722940E0F7
:101A200050E0BA0188E090E00E94842960E08DE0F7
:101A300090E00E94722940E050E0BA0188E190E015
:101A40000E94842960E087E190E00E94722940E0D2
:101A500050E0BA018CE190E00E94842970E060E0DF
:101A600080E290E00E94902940E050E0BA0188E1D5
:101A700090E00E94842980E00E944A170E9470171B
:101A80000C94DD0C0C94E40C682F8EE090E00C9428
:101A900072290E943D1D609332027093330280933D
:101AA00034029093350260932E0270932F0280933C
:101AB00030029093310208950E943D1D60933202DE
:101AC00070933302809334029093350260932A021C
:101AD00070932B0280932C0290932D02089585B76A
:101AE000806885BF85B7806885BF0895089508958B
:101AF0000C94760D0C9406030E946F0D88EF9FE006
:101B00000E948D1D0E94770D0C94780D81E0089540
:101B10000C94860D089508950E948A0D0C948B0DE7
:101B20000E94281D0E947F170E94DE100E94D81676
:101B30000C947A0DAF92BF92CF92DF92EF92FF9208
:101B40000F931F93CF93DF93CDB7DEB72A970FB6CE
:101B5000F894DEBF0FBECDBF0E94EF1081110E942E
:101B6000490D84E2A82E82E0B82E10E000E0C02EDD
:101B7000802F0E943210E82EF501F1905F01F816D7
:101B800009F455C08091360281FD0E9438108F2DD6
:101B90008E25D12CFF24F394982F9F2109F442C065
:101BA0000E94880D882399F0DE82CF82EF2081E0A9
:101BB00009F480E088870E94311D8160782F9A8720
:101BC00089874E815F8168858A850E946D05F8014D
:101BD000EC5DFD4F8081F826F0820E94E9168111AC
:101BE0000E945C0D0E94BC150E9400140E941C1CE7
:101BF00090912302891791F10E941C1C809323026B
:101C00002A960FB6F894DEBF0FBECDBFDF91CF91FD
:101C10001F910F91FF90EF90DF90CF90BF90AF900A
:101C20000C946505D394FF0CF8E0DF12B5CF0F5F7D
:101C30001F4F0630110509F09ACF8FEF89838A83F1
:101C40001B820E94311D8160782F9D838C83498186
:101C50005A816B818D810E946D05BFCF2A960FB688
:101C6000F894DEBF0FBECDBFDF91CF911F910F91D2
:101C7000FF90EF90DF90CF90BF90AF900895CF93FB
:101C8000DF930E941E0FEC01811520E5920760F59D
:101C9000811530E4930708F07AC08F3B910580F4FA
:101CA000883A910508F066C0853A910508F05AC057
:101CB0008430910588F4019779F0D0E0C0E00CC041
:101CC0008F3F910509F060F4803F910508F05DC0F9
:101CD000805E9109089788F7CE01DF91CF91089532
:101CE00081159042C8F3E9CFC11584E5D807A0F467
:101CF000C11593E5D90708F07BC0C11522E5D207CD
:101D000008F065C0C11531E5D30708F443C0DC2FE6
:101D1000CC27C16FD06AE0CFC1154AE5D40770F473
:101D2000C11589E5D80708F077C0C11598E5D9072E
:101D300020F2DC2FCC27C06FD06ACECFCE019056D8
:101D40008115904208F0B9CF8D2F8F710E94B50F89
:101D500090E0982F882788279F719C012C2BE90100
:101D6000D062BACFC55AD0E0C857DE4FC881D0E0A4
:101D7000D064B2CFC85AD0E0CC0FDD1FC65ADE4FB8
:101D80000990D881C02DD464A7CFD065A5CFDF70CE
:101D9000D06AA2CFCE0164E0969587956A95E1F767
:101DA00083702C2F26952695237040E2249F900166
:101DB0001124382B8C2F8370C1E0D0E002C0CC0FEF
:101DC000DD1F8A95E2F7C22BD32BDC6885CFCE01CD
:101DD0008370992721E030E002C0220F331F8A95DB
:101DE000E2F7C695C69580E2C89FE0011124EBCFCB
:101DF000CE018370992721E030E002C0220F331F0B
:101E00008A95E2F7C695C69590E2C99FE001112434
:101E1000C22BD32BDA6860CF8C2F8F700E94B50F46
:101E200034E0D695C7953A95E1F7CF709C2FEC0139
:101E3000D06952CF0E9441190C943F0E823891050F
:101E4000B1F1B0F48133910509F475C048F48932D9
:101E5000910509F469C08A32910509F473C00895A7
:101E60008533910509F459C08933910501F108952D
:101E7000833E9105A9F138F4803E9105F9F0823E48
:101E8000910549F10895863E9105A9F1873E910596
:101E9000C9F1843E910519F52091AF0221FF1FC0C1
:101EA0008091AE0284FD14C087EE90E008952091E9
:101EB000AE022370A1F080EE90E008952091AE0272
:101EC00020FD47C03091AF0230FF09C024FF44C05D
:101ED00090E080E004C02091AE0222FDF7CF08958B
:101EE0002091AE0222FD3BC03091AF0230FDE3CF26
:101EF00024FFF5CFEDCF2091AE0223FFF0CF24FDDC
:101F0000E7CFD2CF2091AE0223FD2CC03091AF029B
:101F100031FFEECF84EE90E008952091AE0225FFD0
:101F2000DECF89E290E008952091AE0225FFD7CF61
:101F300085E390E008952091AE0226FFD0CF8AE29B
:101F400090E008952091AE0226FFC9CF81E390E092
:101F5000089589E390E0089583EE90E0089582EE7D
:101F600090E0089586EE90E008959091AE0292FF81
:101F700006C0282F28712830F9F4877F846093FFEA
:101F800006C0282F28712831F1F4877E84612091C2
:101F9000AF0220FF06C0382F38713830D9F4877F60
:101FA000816021FF06C0282F28712831D1F4877E57
:101FB000816194FD877E0895282F24712430F9F6DD
:101FC0008B7F8860DCCF282F2471243101F78B7E32
:101FD0008861DDCF382F3171313019F78E7F8860FD
:101FE000E0CF282F2171213121F78E7E8861E1CF4A
:101FF00080E008950C94980C0E94EF108FE39CE908
:102000000197F1F700C000000E94EF1080E00E94ED
:10201000321080FF04C00E94FA0F0C947C1D0895BA
:102020000C94FC0F0E949E0C811102C00E94420D74
:102030000E94A90C809336020E94B10C9093AF02CB
:102040008093AE020E9410100E94AD0C0E9479088D
:102050008091DE010C948C0808950C942C10089546
:102060000C942F10E82FF0E0EA54FD4F8081089582
:10207000089580EA8A95F1F7089500C008950C94B8
:102080003910F894E82FE295EF70F0E031A1282F95
:102090002F7081E090E001C0880F2A95EAF7982F11
:1020A0009095932391A392A1892B82A3789408956C
:1020B000CF93DF93C3E9D1E089918F3F11F00E9464
:1020C000411081E0C939D807B9F7CBE8D1E089914F
:1020D0008F3F11F00E94411081E0C339D807B9F752
:1020E000DF91CF910895CF92DF92EF92FF920F93FD
:1020F0001F93CF93DF93EC01D62E062F10E0C8017B
:102100008D569E4F7C01FC0180818F3F09F44BC0AE
:10211000F894E82FE295EF70F0E091A18F7021E044
:1021200030E001C0220F8A95EAF7892F822B81A324
:1021300082A12095282322A378940E943D10EBE8E9
:10214000F1E030E020E0C12C51E041914F3FA1F19E
:10215000A42FA295AF70B0E090968C9190E04F7054
:1021600002C0959587954A95E2F780FD25C0852F99
:10217000022E01C0880F0A94EAF7C82A2F5F3F4F4A
:102180002830310511F7F70180818F3F11F00E944F
:10219000411061E0C11001C060E08D2D0E943F1030
:1021A000C00FD11FC882DF91CF911F910F91FF9077
:1021B000EF90DF90CF90089580E0DFCF0E9458101D
:1021C000E0EBF2E0A6EBB2E011921D9282E0E63B7A
:1021D000F807D1F786E00E9437110C942C04FF9287
:1021E0000F931F93CF93DF9300D000D000D0CDB7D3
:1021F000DEB78E010F5F1F4F86E0F80111928A95BE
:10220000E9F7F12C6F2DC8010E947310F394F6E0EA
:10221000FF12F8CF46E050E0B80180EB92E00E9458
:102220005729FF24F394009709F4F12C892B41F0EE
:1022300086E0F801A0EBB2E001900D928A95E1F7FB
:102240002F2D46E066EB72E080EB92E00E943811A1
:102250000E9432048F2D26960FB6F894DEBF0FBE73
:10226000CDBFDF91CF911F910F91FF9008950895F9
:10227000FF920F931F93CF93DF93F82E092F162F02
:10228000D72FC42F222349F081E0809339020E9486
:10229000311D909338028093370280913902882350
:1022A000A1F080913702909138020E94491D059754
:1022B00060F0EF2DF02FA12FBD2FCE0FDF2FD11DFE
:1022C000EC17FD0741F410923902DF91CF911F9175
:1022D0000F91FF90089581918D93F2CF0E94AE1CD3
:1022E0000E944D230E9468230E947A230E948C0D35
:1022F000FBCF84E08093BC028FE78093BD02809186
:10230000BE02807880648093BE02EEE3F2E08FEF3D
:10231000819392E0E638F907D9F710923D021092C6
:102320003C0210923B0210923A0208959091BC0236
:10233000292F2F7095959595959595959F523CE0F1
:10234000239F900D1124890F0895FF920F931F93DF
:10235000CF93DF93FB018E3A2CE5920708F085C0FE
:102360008E394CE5940708F08DC180392CE5920731
:1023700050F583384CE5940708F040C181382CE5CE
:10238000920760F487374CE5940708F01FC18F323D
:102390002CE5920708F0DFC0C1E011C181384CE59F
:1023A000940709F420C182389C45B1F782818823C3
:1023B00009F4EBC08091BC02982F9F70993008F00F
:1023C000E4C09F5F19C18C394CE59407A0F58239B0
:1023D0002CE5920708F02FC180394CE5940709F4E9
:1023E00018C181399C45C1F68281882309F4CDC08A
:1023F0002091BC02822F859585958595859586309F
:102400000CF0C3C091E0980F9295907F95959595AB
:1024100095959595392F3295307F2F70232B2093EA
:10242000BC0218160CF0B1C097FFAFC08295807F38
:10243000922F9F70D4C08C394CE5940709F409C1E0
:102440008D399C4509F0A8CF8281882309F49DC06D
:102450008091BD02982F9F779F3709F496C09337DC
:1024600008F00EC1935F9F77F2C0843B4CE5940760
:1024700009F466C1C8F5803B4CE5940709F432C104
:10248000D8F48E3A4CE5940709F40EC18F3A9C4576
:1024900009F082CF8281882309F477C02091BD02A0
:1024A000322F331F3327331F9091BE02892F87703D
:1024B000880F832B8F5F09C16091BD023091BE02EE
:1024C0002281823B4CE5940709F42EC108F420C117
:1024D00021112FE7862F881F8827881F632F677099
:1024E000660F682B42E40FC1873B2CE5920709F485
:1024F0003AC180F4853B2CE5920709F421C1863B63
:102500009C4509F049CF828181112BC18FEF8093C7
:102510003C023BC0893B2CE5920709F45AC108F400
:1025200043C18A3B9C4509F037CFC2816091BD020F
:10253000862F881F8827881F6091BE026770660FEC
:10254000682BCC2309F455C14FEF5FE184EC92E096
:102550000E94EF1D1AC02091BD02322F331F332776
:10256000331FD091BE02D770DD0FD32BF22EE8942B
:10257000F7F8C28101ED080F10E0025C1D4FF80171
:102580004081CC2389F04F3F11F0C0E018C00E9479
:102590009611C82F2F2D482F6D2F84EC92E00E94AA
:1025A000CF1DF801C083F1CF4F3F31F02F2D6D2F9C
:1025B00084EC92E00E94DF1D8FEFF80180838C2F66
:1025C000DF91CF911F910F91FF90089522812223D7
:1025D000E1F28757982F9F708091BC02807F892BF2
:1025E0008093BC02D2CF8281882379F28091BC0291
:1025F000982F9F7051F2915F9F70F0CF228122231C
:1026000021F28958982F9295907F8091BC028F700B
:10261000E6CF8281882309F4B8CF8091BC02982F3D
:1026200095959595959595959B3F0CF4AECF915FBB
:102630009295907FECCF2281222309F4A6CF825974
:102640009EE0899F902D11249F778091BD02807814
:1026500015C08281882309F498CF8091BD02982FFC
:102660009F7709F492CF80789F3721F48567809314
:10267000BD028BCF9D30D8F39D509F77892BF7CF2C
:102680008F67F5CF2281222309F47FCF8E59909155
:10269000BD0280FB97F99093BD028695877090915B
:1026A000BE02987F892B7DC08281882309F46DCF7B
:1026B0002091BD02322F331F3327331F9091BE026A
:1026C000892F8770880F832B815F382F3F7080FBA5
:1026D00027F92093BD02832F8695987F982B90939E
:1026E000BE0253CF8281882309F44FCF6091BD028F
:1026F000862F881F8827881F6091BE026770660F2B
:10270000682B20E04BE784EC92E00E94BF1D3DCF98
:1027100021112FE7862F881F8827881F632F677056
:10272000660F682B40E4EFCF21112FE7862F881F1B
:102730008827881F632F6770660F682B41E4E3CFFB
:10274000828120E081112FE76091BD02862F881FD2
:102750008827881F6091BE026770660F682B43E46C
:10276000D2CF81E0D4CE8281882309F40ECF90911C
:10277000BE02292F2695269526952F7081E0820F7F
:102780008F70880F880F880F9778892B8093BE02EF
:10279000982F987709F0F9CE220F220F220F877811
:1027A000822B8093BE02F1CE8281882309F4EDCE84
:1027B0008091BE02982F987709F4E7CE982F9695CE
:1027C00096959695915F9F70990F990F990F8778BD
:1027D00069CFC2816091BD02862F881F8827881F1C
:1027E0006091BE026770660F682B40E050EEC11129
:1027F000ADCE50E040E084EC92E00E94EF1DDFCED1
:1028000084EC92E00E94F11F80913A0290913B0289
:102810000E94491D2091BE022695269526952F706F
:102820002817190609F0A0F50E94311D90933B026C
:1028300080933A0280913C02882351F16091BD025D
:10284000862F881F8827881F6091BE026770660FD9
:10285000682B20913D0241E084EC92E00E94BF1D74
:1028600080913C0290913D0287FF0DC0482F552773
:1028700041950CF45095941715062CF410923D02D6
:1028800010923C020895890F87FD03C080933D029A
:1028900008958FE7FBCF80918C0280FF12C060917A
:1028A000070185E0689FB0011124759567957595BE
:1028B000679560387105A8F561157105A1F1862F3E
:1028C000089581FF09C06091070185E0689FB0010C
:1028D000112475956795EDCF6091070182FD0AC0BF
:1028E00080918B028823D1F09091060160910701BD
:1028F000891728F085E0689FB0011124DACF869F00
:10290000B001112485E0869F9001879F300D11242E
:10291000692F70E0C9010E943629CBCF65E070E0D5
:10292000CECF8FE7089581E0089580918C0280FFDB
:102930000CC06091030170E075956795759567957A
:102940006115710549F1862F089581FF06C06091D8
:10295000030170E075956795F3CF6091030182FDE7
:102960000BC090918A029923A1F06091020180919D
:102970000301961738F0682F70E06038710500F396
:102980008FE70895899FC001112470E00E943629C5
:10299000F4CF61E070E0D7CF81E00895803F31F45B
:1029A0000E944B148195809390020895813F19F401
:1029B0000E944B14F8CF823F31F40E944B14819552
:1029C00080938F020895833F19F40E944B14F8CF2F
:1029D000893F29F40E9495148093910208958A3FBB
:1029E00021F40E9495148195F7CF8B3F31F40E941A
:1029F000951481958093920208958C3F19F40E945A
:102A00009514F8CF9CE0980F953070F4845F990B83
:102A100021E030E001C0220F8A95EAF780918E0212
:102A2000822B80938E0208958D3F31F480918C0229
:102A3000816080938C0208958E3F21F480918C02F6
:102A40008260F7CF8F3FB9F780918C028460F1CF1D
:102A500040918F02803F59F48091900287FF0DC012
:102A60001092900241110BC010928B0208C0813F5E
:102A700081F48091900218169CF3442381F0809198
:102A8000910290919202892B09F05AC010928A0209
:102A90000895823F49F447FFF0CF10928F02809152
:102AA00090028111ECCFE0CF833F19F41416ACF300
:102AB000E4CF90919102893F29F41916F4F610920F
:102AC0009102DBCF8A3F19F497FFD7CFF8CF9091CF
:102AD00092028B3F29F497FFD0CF10929202CDCF74
:102AE0008C3F19F41916CCF3C8CF9CE0980F9530A1
:102AF00090F4845F990B21E030E0B90102C0660FC9
:102B0000771F8A95E2F7CB01809590918E028923F9
:102B100080938E02B2CF8D3F31F480918C028E7FF4
:102B200080938C02AACF8E3F21F480918C028D7FFE
:102B3000F7CF8F3F09F0A1CF80918C028B7FF0CF30
:102B400008950E94311D9C0190918F028091900206
:102B5000982B21F030938902209388029091910262
:102B600080919202982B21F0309387022093860265
:102B70008DE892E00C94331CEF92FF920F931F9319
:102B8000CF93DF9300D000D000D0CDB7DEB786E082
:102B9000EDE8F2E0DE01119601900D928A95E1F7E1
:102BA000E0908F02F09090020091910210919202B9
:102BB00010928F0210929002109291021092920243
:102BC0008E2D8F2991F080918802909189020E9428
:102BD000491DAC0190918B02992309F43FC080916B
:102BE00008018417150608F447C0802F812B91F047
:102BF00080918602909187020E94491DAC019091BC
:102C00008A02992309F477C080910401841715067C
:102C100008F47FC080918F0290919002892B90914F
:102C20009102892B90919202892B11F00E94A1159B
:102C300086E0FE013196ADE8B2E001900D928A95F2
:102C4000E1F726960FB6F894DEBF0FBECDBFDF9139
:102C5000CF911F910F91FF90EF900895209109015E
:102C60008AE0289F900111242417350708F0BDCF72
:102C70009F5F90938B0202C09F3FD1F7EE2059F0E7
:102C80000E944B149FEF1E140CF491E0899F802D3D
:102C9000112480938F02FF2059F00E944B149FEF64
:102CA0001F140CF491E0899F802D112480939002D1
:102CB00030918F02332309F498CF20919002222380
:102CC00009F493CF45EB3403C0011124992359F043
:102CD00090938F0245EB240390011124332339F0A4
:102CE0003093900282CF81E080938F02F3CF81E016
:102CF000809390027ACF209105018AE0289F90016D
:102D000011242417350708F085CF9F5F90938A021E
:102D100002C09F3FD1F7002359F00E9495149FEF06
:102D200010160CF491E0899F802D1124809391025C
:102D3000112359F00E9495149FEF11160CF491E0A5
:102D4000899F802D11248093920230919102332328
:102D500009F460CF20919202222309F45BCF45EB66
:102D60003403C0011124992359F09093910245EB4B
:102D7000240390011124332339F0309392024ACF77
:102D800081E080939102F3CF81E08093920242CF61
:102D900086E0EDE8F2E0DF011D928A95E9F71092F6
:102DA0008B0210928A0210928C02089581E008959D
:102DB00025982D9A24982C9A83B185FB882780F931
:102DC0001C9905C090E0892B80939502089592E0AC
:102DD000FACFE0919502EE0FEE0FE093950243B12A
:102DE00045FB882780F943B144FB222720F944FFA3
:102DF00002C022E030E0822BE82BE0939502EF70D6
:102E0000F0E0E756FE4F808190919402890F809305
:102E1000940220E0843054F0809193028F5F80937D
:102E2000930260E080E00E94B40221E0809194026D
:102E30008D3F54F48091930281508093930261E01E
:102E400080E00E94B40221E080919402082E000CE0
:102E5000990B64E070E00E94362980939402822FDF
:102E6000089583E290E00E946429813289F484E22B
:102E700090E00E946429893059F485E290E00E9434
:102E8000642991E0823109F090E0892F81700895E2
:102E900080E0FCCFCF93C82F6FEF811161E283E216
:102EA00090E00E9472296FEFC11169E084E290E026
:102EB0000E9472296FEFC11162E185E290E0CF912B
:102EC0000C947229089586E290E00E946429682F8C
:102ED00070E090E080E0089586E290E00C94722922
:102EE00080E00E944A1760E070E0CB010E946C17FE
:102EF0000E94B9180E94A51981E00C944A170E94FB
:102F000062170E943117811102C00C947017089546
:102F1000CF93FB01C281CC2309F19C0122513F4593
:102F20002031310520F582510E94B519C0E08C2F67
:102F3000CF91089581E00E949F0843E062E081E024
:102F40000E942304F3CF81E00E94AA0843E062E0DC
:102F500081E00E942304EBCF82E0F6CF8031FFE5D1
:102F60009F0789F381319F45B9F3C1E0E0CF8031FC
:102F7000EFE59E07F9F281319F45C9F682E0DBCF8C
:102F80002FEFFC0120830895EF92FF920F931F9380
:102F9000CF93DF93EC01062FE881E150E33108F095
:102FA0005EC0F0E0EE53F64D0C944A29198289E098
:102FB0008A83602FCE01DF91CF911F910F91FF90F7
:102FC000EF900C942E228981823069F0833071F069
:102FD0008130D9F40E943D1D0E9450296A837B8371
:102FE0008C839D83E6CF0E946317F6CF7E0182E03B
:102FF000E80EF11C10E0812F0E943210F70181933E
:103000007F011F5F1630B9F7D4CF602FCE010E9429
:10301000C017CFCF89818230C1F76A817B818C81D3
:103020009D810E9450290E946C17C3CF4B816A81F9
:1030300089810E948B189827892798279D838C83E4
:10304000B8CF2C813D813227232732274B816A81DB
:1030500089810E94A418ADCF0E94B918AACF8FEF22
:103060008883A7CF0E944E198983A3CF0E9450194D
:103070009827892798279A8389839BCF6B8170E053
:1030800089819A81AE014C5F5F4F982789279827E5
:103090000E9453198ECF6B8170E089819A81AE01B5
:1030A0004C5F5F4F9827892798270E947A1981CF14
:1030B0000E94A5197ECF0E947818D6CF6B8170E050
:1030C00089819A81AE014C5F5F4F982789279827A5
:1030D0000E94F1186ECF6B8170E089819A81AE01F8
:1030E0004C5F5F4F9827892798270E94171961CF57
:1030F00084E0089590E1699FB001112450E0440FED
:10310000551F640F751F90E6899F600D711D112476
:10311000CB01879608950F931F93CF93DF930E945F
:103120007A188C010E946429C82FD0E0DC2FCC27AC
:10313000C80101960E9464299E01282BC901DF91D4
:10314000CF911F910F9108950F931F93CF93DF930A
:10315000122F032F0E947A18EC01602F0E9472290F
:10316000612FCE010196DF91CF911F910F910C94A9
:103170007229AF92BF92CF92DF92EF92FF921F938C
:10318000CF93DF938CEAC82E80E0D82ED0E0760172
:10319000C0E014C0F50125913491412F6C2F8D2F83
:1031A0000E94A41882E0A80EB11C1F5F183091F78E
:1031B00080E1E80EF11CCF5FC63019F0570110E036
:1031C000E9CFDF5F80E6C80ED11CD43001F7DF9174
:1031D000CF911F91FF90EF90DF90CF90BF90AF9075
:1031E0000895EF92FF920F931F93CF93DF93EC011B
:1031F0008A017C01E60EF71ECE018796CE15DF050B
:1032000039F4DF91CF911F910F91FF90EF900895C6
:10321000C03821E0D20740F40E946429F80180837D
:103220000F5F1F4F2196E8CFF8011082F9CFCF92A0
:10323000DF92EF92FF920F931F93CF93DF937C0166
:103240006A018C01060F171FEC01CE018796C0178B
:10325000D10749F4DF91CF911F910F91FF90EF902B
:10326000DF90CF900895C03821E0D20740F4FE01EE
:10327000EE19FF09EC0DFD1D60810E947229219657
:10328000E4CF462F843038F4763028F4683018F4D0
:10329000672F0C948B1890E080E0089580E10895EA
:1032A00089E592E00895EF92FF920F931F93CF93D9
:1032B000DF93EC018A017C01E60EF71ECE018955F1
:1032C0009E4FCE15DF0539F4DF91CF911F910F91FD
:1032D000FF90EF900895C93522E0D20740F40E9494
:1032E0006429F80180830F5F1F4F2196E7CFF80113
:1032F0001082F9CFCF92DF92EF92FF920F931F933C
:10330000CF93DF937C016A018C01060F171FEC013C
:10331000CE0189559E4FC017D10749F4DF91CF9157
:103320001F910F91FF90EF90DF90CF900895C935D6
:1033300022E0D20740F4FE01EE19FF09EC0DFD1D5D
:1033400060810E9472292196E3CFCF93DF93C7EA71
:10335000D1E060E0CE010E9472292196C11584E07F
:10336000D807B9F7DF91CF910895DF92EF92FF92DE
:103370000F931F93CF93DF9300D000D0CDB7DEB76C
:10338000F82E8FE08F1540F08FEF93E00E946429B4
:1033900007EA11E08823C1F00F900F900F900F9073
:1033A000DF91CF911F910F91FF90EF90DF900895E3
:1033B000011584E0180781F3C8010E946429811176
:1033C00001C0FA940F5F1F4FF110F2CF19821A82D9
:1033D0001B821C82DD24D39478018FEFE81AF80A4F
:1033E000C8010E94642989831A828823A9F29FEF69
:1033F000980F933078F48A83D9820E5F1F4FC701EC
:103400000E9464298B83882339F2CE0101960E94A1
:103410005A05E2CF8701F9CF0F931F93CF93DF9324
:10342000C42FD22FFC0182818823C9F040939802D7
:103430000E94311D909397028093960280E28C0F38
:10344000883008F050C0C77081E001C0880FCA956D
:10345000EAF7DF91CF911F910F910C944C061091D8
:103460009802141335C080919602909197020E94A1
:10347000491D883C910560F5C0E2CD0F1D17B9F0DC
:1034800080E2810F883040F4177081E001C0880F1E
:103490001A95EAF70E945306C83048F481E09D2F40
:1034A000977001C0880F9A95EAF70E944C06802F0A
:1034B0000E944406C830B8F4D77081E001C0880F7C
:1034C000DA95EAF7DF91CF911F910F910C94530693
:1034D00080E28C0F883038F4C77081E001C0880F1B
:1034E000CA95EAF7EFCFDF91CF911F910F91089521
:1034F0000F939C01CB01233F4CE5340759F1A8F40D
:10350000283DFCE53F0701F1293D4CE53407D1F1A9
:10351000273D3C4591F406E221EE41EE67ED7CE566
:103520000E940C1A80E00F910895253FFCE53F07AB
:10353000E9F0B0F0263F3C45F9F0FC018281882398
:1035400039F110929802EFCF07E225EE45EE68EDD3
:103550007CE5E6CF06E221EE40EE63EF7CE5E0CFCE
:1035600007E225EE44EE64EF7CE5DACF06E221EED9
:1035700042EE65EF7CE5D4CF07E225EE46EE66EF3E
:103580007CE5CECF08E221E045EE69ED7CE5C8CFD1
:1035900081E0C9CFCF93DF93EC01FB0182818823C7
:1035A00009F419C1C230FCE5DF07C0F1C6319CE562
:1035B000D90730F09E012A5F3C452930310570F56E
:1035C0000E94B10C9093AF028093AE02C031ECE543
:1035D000DE0709F4CFC008F05BC0C8308CE5D8071F
:1035E00009F4B6C088F5C430ECE5DE0709F4A8C0DC
:1035F000C0F4C2308CE5D80709F49CC08091AE02BB
:103600008260C330DC4509F498C08091AE0290918D
:10361000AF020E94BF0C0E94260880E0DF91CF918C
:1036200008958091AE028061C630ECE5DE0709F4B2
:1036300084C08091AE028860C730DC4508F47DC04C
:103640008091AE02806279C0CC308CE5D80709F455
:1036500089C070F48091AE028C60CA30ECE5DE0760
:1036600009F46BC008F478C08091AE028E7F65C00B
:10367000CE308CE5D80709F479C08091AE028B7FFB
:10368000CF30DC4508F459C08091AE028F7E55C022
:10369000CB3FECE5DE0709F457C030F5C3318CE5CC
:1036A000D80709F46FC078F4C131ECE5DE0709F4FE
:1036B00065C0C231DC4509F0A8CF0E942608809180
:1036C000AE028F773AC0C5318CE5D80709F462C0E5
:1036D00008F476C08091AF028160CA3FDC4509F0F2
:1036E00094CF8093AF0291CFCF3FFCE5DF0709F481
:1036F0004DC088F48091AF028D7FCD3F9CE5D90706
:1037000081F38091AF028E7FCE3FDC4550F38091F4
:10371000AF028360E6CFC130FDE5DF0709F459C091
:1037200008F444C080E0C230DD4509F06ECF0E944D
:10373000440D6BCF8091AE0281608093AE0265CF65
:103740008091AE028460F9CF8091AF028260C9CFD0
:103750008091AE028064F1CF0E9426088091AE0273
:103760008068EBCF8091AE028D7FE7CF8091AE0273
:10377000877FE3CF8091AE028F7DDFCF8091AE0255
:103780008F7BDBCF8091AE02837FD7CF8091AF025A
:103790008C7FA7CF8091AE0282FB992790F921E020
:1037A000922790FB82F990FB83F9C7CF8091AF02FB
:1037B000982F909591708E7F892B90FB81F991CFF6
:1037C0000E9426089091AE02892F97FB87F98058B6
:1037D000B4CF81E0ACCF81E021CFCF93DF93EB0179
:1037E00086319C4511F50E94720C9A81992399F0BB
:1037F0008A7A91E009F490E090939902811109C0CE
:1038000089E20E943F0C0E94530C80E0DF91CF912F
:10381000089585E3F6CF80919902811104C089E271
:103820000E94460CF0CF85E3FBCF81E0EFCF909371
:103830009F0280939E020895E0919E02F0919F0264
:10384000309721F00190F081E02D099480E00895F7
:10385000E0919E02F0919F02309721F00280F38167
:10386000E02D09940895E0919E02F0919F02309717
:1038700039F022E0DC012C930480F581E02D0994DD
:10388000089520919C0230919D022817390771F00C
:1038900090939D0280939C02E0919E02F0919F0282
:1038A000309721F00680F781E02D0994089520914A
:1038B0009A0230919B022817390771F090939B026E
:1038C00080939A02E0919E02F0919F02309721F03E
:1038D0000084F185E02D09940895662349F0FC01E8
:1038E000329608962191261729F0E817F907D1F7A3
:1038F00080E0089581E008959C01FC0132969FEFDD
:1039000080E04191461751F09F3F19F4411101C0E9
:10391000982F8F5F8630A9F79F3F09F40895290FEC
:10392000311D97FD3A95F90162830895FC013296A5
:1039300008962191261303C0DF0111971C92E81706
:10394000F907B9F708950C947C1C0C94961C029608
:1039500026E0FC0111922A95E9F70895089508954B
:1039600008950C94B01C8091B503843049F10E94F5
:10397000B11C80E00E9465051092A00288E190E0F1
:1039800020E40FB6F894A895809360000FBE2093B2
:10399000600083B7817F846083BF83B7816083BF0A
:1039A0007894889583B78E7F83BF0FB6F894A895D7
:1039B00080916000886180936000109260000FBE6B
:1039C00008950895CF930E94AF1C0E94EF100E94AB
:1039D000E11CC0E08C2F0E943210811105C0CF5F26
:1039E000C630C1F7CF91089581E0FCCF08950C94C3
:1039F000F61C0E9426080E941C1C0E9465050C945F
:103A0000F71C1F921FB61F9211248F939F93AF93A1
:103A1000BF938091A002811113C08091C002909148
:103A2000C102A091C202B091C3024196A11DB11D75
:103A30008093C0029093C102A093C202B093C302CC
:103A4000BF91AF919F918F911F901FBE1F901895AE
:103A500082E084BD93E095BD9AEF97BD80936E00A0
:103A600008952FB7F8948091C0029091C102A0915F
:103A7000C202B091C3022FBF08952FB7F89460918E
:103A8000C0027091C1028091C2029091C3022FBF07
:103A900008959C014FB7F8948091C0029091C102A3
:103AA000A091C202B091C3024FBF821B930B089535
:103AB00078941F921FB61F9211248F939F93AF93F8
:103AC000BF938091C0029091C102A091C202B091B7
:103AD000C3020196A11DB11D8093C0029093C10243
:103AE000A093C202B093C302BF91AF919F918F91F7
:103AF0001F901FBE1F90189587E797E790930108C6
:103B00008093000888E19AE00FB6F894A895809316
:103B100060000FBE90936000FFCF9093C901809327
:103B2000C8010895881F8827881F089591E0883F5D
:103B300008F490E0892F0895982F907F903BE9F04A
:103B400040F49039D1F0903AC1F09038B1F080E073
:103B50000895903D19F020F4903CC9F782E0089553
:103B6000903E59F0903F99F7815F8F3080F7E82FB2
:103B7000F0E0E755FE4F8081089583E008950F93AC
:103B8000022F0F77242F2F776F70462F406BDC01A9
:103B9000ED91FC9163E070E009950F9108950F930A
:103BA000022F0F77242F2F776F70462F4069DC018B
:103BB000ED91FC9163E070E009950F9108950F93EA
:103BC000022F0F77242F2F776F70462F4068DC016C
:103BD000ED91FC9163E070E009950F9108950F93CA
:103BE0001F93411520E2520744F49A01305E4115BB
:103BF000504E2CF430E020E002C02FEF3FE389016B
:103C0000000F012F001F110B11952F776F70462F9A
:103C1000406EDC01ED91FC9163E070E009951F912D
:103C20000F910895FC01738362830895FC01758FE1
:103C3000648F0895CF93DF93EC011DA21FA21EA2F3
:103C4000BC01685D7F4F40EC88519F4F0E9425204A
:103C50001B821A821D821C821F821E821986188670
:103C60001B861A861D861C861F861E86198A188A40
:103C70001B8A1A8A1D8A1C8A1F8A1E8A198E188E10
:103C80001B8E1A8E1D8E1C8E1F8E1E8E19A218A2C0
:103C9000DF91CF910895EF92FF920F931F93CF93EF
:103CA000DF93EA018A01060F111D88519F4F7C01A5
:103CB000C017D10739F4DF91CF911F910F91FF9079
:103CC000EF9008956991C7010E942C20F1CFFC016B
:103CD000718360830895FC0171A360A30895AF927E
:103CE000BF92CF92DF92EF92FF920F931F93CF93E9
:103CF000DF9300D00F92CDB7DEB77C016B01142F9C
:103D0000B22EA02EDC0195968C9195978430A9F562
:103D10005A96ED91FC913097E9F1CB01019763E060
:103D200070E00E942229CB01880F991F860F971FF0
:103D30004983BA820B834C2D481B9E012F5F3F4F56
:103D4000BC01C7010995D7015E96ED91FC913097B2
:103D500031F00A2D2B2D412FB601C70109950F9087
:103D60000F900F90DF91CF911F910F91FF90EF90E7
:103D7000DF90CF90BF90AF9008956230710509F445
:103D800055C06330710599F06130710509F481C047
:103D9000D12CC12CD7015C96ED91FC91309799F212
:103DA0000A2D2B2D412FB601C7010995CCCF842FA9
:103DB000807F803A11F148F48038D1F0803951F792
:103DC000D7011496ED91FC910AC0803ED9F0803F56
:103DD000F1F0803BF9F6D7011296ED91FC91309706
:103DE000C9F2123FE9F02A2D4B2D612F6F701BC0D5
:103DF000D7011696ED91FC91F2CFD7011896ED916F
:103E0000FC91EDCFD7011A96ED91FC91E8CF423F9E
:103E100009F6D7011C96ED91FC91309709F4BACFC1
:103E20002A2D4B2D62EFC70109958DCF842F807FFE
:103E3000803DB1F0803FC9F0803C09F0ABCFD701A5
:103E40001E96ED91FC91309709F4A4CF812F8D7FC0
:103E50004B2D612F6F70813F89F0C701099573CF9A
:103E6000D7015096ED91FC91EECF433F51F4D7012D
:103E70005296ED91FC91309709F48CCF4B2D612F28
:103E8000ECCF413F09F086CFD7015496ED91FC91DC
:103E9000F2CF842F0E94961D882359F0D7015696A1
:103EA000ED91FC91309709F475CF612FC701099509
:103EB0004ACF163F09F06ECFD7015896ED91FC918D
:103EC000F1CFFF920F931F93CF93DF93EC01162F47
:103ED000862F0E94961D882391F0FDA081E08DA37E
:103EE00000E020E0412F61E070E0CE010E946F1EF3
:103EF000FDA2DF91CF911F910F91FF900895812F27
:103F00000E94921D4DA1882309F443C0443029F03A
:103F10001AA381E090E09FA38EA3812F0E949C1D95
:103F2000813051F08823A9F0823089F0833079F014
:103F30001DA21FA21EA2DDCF8DA300E020E0412F15
:103F400061E070E0CE010E946F1E1DA2D2CF8DA352
:103F5000D0CF103FB1F0173F59F72EA13FA1C901B3
:103F600063E070E00E942229FE01E80FF91F12A30E
:103F7000B9016F5F7F4F7FA36EA30CA12BA14AA154
:103F8000E1CF84E08DA31AA381E090E09FA38EA3EC
:103F9000B0CF442309F4ADCF2EA13FA1C90163E006
:103FA00070E00E942229FE01E80FF91F12A3B90157
:103FB0006F5F7F4F7FA36EA38130910569F00297F9
:103FC00009F097CF0CA12BA14AA1CE010E946F1E30
:103FD0008DA18430C9F68DCF00E0423009F089CF41
:103FE000F2CFCF92DF92EF92FF920F931F93CF9376
:103FF000DF93EC01E8A1F9A1309709F009956E0172
:1040000088EEC80ED11CC6010E945B2010E000E0C3
:10401000E82EF12C0E151F0548F0DF91CF911F916E
:104020000F91FF90EF90DF90CF90089560E0C60170
:104030000E946F20682FCE010E94611F61E0C601BF
:104040000E947F200F5F1F4FE5CFFC0142837483E6
:1040500063831182108208951F93CF93DF93EC0145
:10406000162F0E949620482F298130E0C901019621
:104070006A8170E00E94362958815817190641F468
:10408000842F0E94992080E0DF91CF911F910895A5
:104090008B819C81280F391FF9011083898190E061
:1040A00001966A8170E00E9436298983842F0E94DC
:1040B000992081E0E9CFCF93DF93EC010E94962015
:1040C00099812881921740F0C92FC21B0E94992024
:1040D0008C2FDF91CF910895CA819C0FF5CFFC0101
:1040E0008081860F9927991F628170E00E9436298E
:1040F00023813481280F391FF901808108951F938E
:10410000CF93DF93EC01162F0E949620282F8881F1
:10411000810F9927991F6A8170E00E943629888350
:10412000822FDF91CF911F910C9499208FB7F89433
:1041300008958FBF0895089508950F931F93CF9307
:10414000DF9300D000D000D00F92CDB7DEB78C0146
:10415000CE0101960E94482381110BC027960FB60D
:10416000F894DEBF0FBECDBFDF91CF911F910F91AD
:1041700008958A810E949C1D9A819D839B819E83C4
:104180009C819F8381110AC08981843079F08730B6
:1041900069F0863069F08530D9F681E0AE014B5F79
:1041A0005F4F682FC8010E944B1ED2CF83E0F6CF2D
:1041B00082E0F4CFDF92EF92FF920F931F93CF93A1
:1041C000DF9300D000D0CDB7DEB77B01142FD22E05
:1041D0004A832B830C83842F0E949C1D811129C04C
:1041E00082E0E816F10401F183E0E816F10439F009
:1041F000EA94EF2869F485E0173F21F404C087E0D2
:10420000073F09F084E08983CE0101960E94432391
:104210000F900F900F900F90DF91CF911F910F9102
:10422000FF90EF90DF90089587EFD812EBCF86E0F4
:10423000EACF12951F701983E7CF0E94791184ECA1
:1042400092E00E941A1E6AED70E284EC92E00E94F5
:10425000671E6DE970E284EC92E00E946B1E6BE9D0
:1042600070E284EC92E00E94161E6CE970E284EC2D
:1042700092E00C94121E9B014091B5034430C1F4AE
:10428000FC0191819F709093E90050E040E064E070
:1042900070E0C9010E94422481110BC09091E80096
:1042A00095FD07C09091E8009E779093E8000895EF
:1042B00082E008952091B503243091F4FC018181BE
:1042C0008F708093E9009091F3008091F200892B28
:1042D00049F08091E8008E778093E8000C94F025F7
:1042E00082E0089580E00895FC018091B503843058
:1042F00059F491819F709093E9008091E80080FFCC
:1043000003C0CF010C945A2108959B014091B5033D
:10431000443011F080E00895FC0196819F709093E5
:10432000E9008091E80082FFF5CF8091E80085FFE9
:10433000F1CF50E040E064E070E0C9010E949124B8
:104340008091E80085FD05C08091E8008B7780931F
:10435000E80081E008958091AC0208959091B50342
:10436000943029F58093A1027093A3026093A20276
:104370009093E9008FEF9091E800815095FD06C081
:1043800095ED9A95F1F700008111F5CF8091E80045
:1043900085FF0DC050E040E063E070E081EA92E00C
:1043A0000E9442248091E8008E778093E80008956F
:1043B000BC0184E00C94AE21BC0183E00C94AE21DE
:1043C0009C0184E08093E9009FEF8091E800915088
:1043D00085FD06C085ED8A95F1F700009111F5CFB6
:1043E0008091E80085FF0CC050E040E066E070E09E
:1043F000C9010E9442248091E8008E778093E800F2
:104400000895CF93DF93EC0181E08093E9008FEF73
:104410009091E800815095FD06C095ED9A95F1F7D1
:1044200000008111F5CF8091E80085FF14C050E0B5
:1044300040E068E070E0CE010E9442248091E800F4
:104440008E778093E80088E0FE01A4EAB2E0019054
:104450000D928A95E1F7DF91CF910895CF93FC01FA
:10446000603221F58091B503843001F5C091E900F7
:10447000CF702091EC00922F917020FD90E8C92B15
:1044800082E08093E9008091E80080FF0CC050E05A
:1044900040E060E270E0CF010E9442248091E80099
:1044A0008E778093E800CF70C093E900CF91089594
:1044B0008091B403811109C00E9421260E947E26AA
:1044C0008091E20084608093E20008951092B4032A
:1044D000089508950895089542E061EC81E00E94F6
:1044E0009D2542E261EC84E00E949D2542E261EC60
:1044F00082E00E949D2542E260EC83E00E949D25BF
:1045000042E361E885E00E949D2542E361E886E0A0
:104510000C949D258091B703833009F461C030F479
:104520008130D1F1823009F49DC008958A3009F4B8
:1045300089C08B3009F46FC0893009F050C0809178
:10454000B603813209F04BC08091BA039091BB034E
:10455000009719F0029709F042C08091E800877F28
:104560008093E8008091E80082FF35C09091F300CD
:104570008091F200029729F48091F1008B7F8130C5
:1045800021F48091F1008093AC028091E8008B7758
:104590008093E8000C94D1258091B603813AF9F418
:1045A0008091E800877F8093E8008091BA03909122
:1045B000BB03892B61F468E084EA92E070E00E941A
:1045C000E0248091E8008B778093E800089560E014
:1045D00090E080E0F3CF8091B5038111C3CF0895BF
:1045E0008091B603813AD9F78091BA039091BB03C9
:1045F000892BA9F78091E800877F8093E80080915C
:10460000E80080FFFCCF809120018093F100809131
:10461000E8008E77BDCF8091B603813201F780919B
:10462000BA039091BB03892BD1F68091E800877F74
:104630008093E8000E94D1258091B80380932001E7
:104640000C9426088091B603813249F68091E800E7
:10465000877F8093E8000E94D1258091B9038093E1
:10466000AD0208958091B603813A09F0B8CF8091E8
:10467000E800877F8093E8008091E80080FFFCCF0E
:104680008091AD02C2CFBC018AE091E00C943B2145
:10469000BC018AE091E00C9485210E941D2184B721
:1046A000877F84BF0FB6F894A895809160008861D9
:1046B00080936000109260000FBE80E890E00FB61B
:1046C000F89480936100909361000FBE0C947C0D70
:1046D0000E9421260E947E26E2EEF0E08081846026
:1046E000808378940E9407290E94900D86E191E0D2
:1046F0000C94171CCF93DF93CDB7DEB7A0970FB6FE
:10470000F894DEBF0FBECDBF8091B503853031F484
:104710008091B5038530B1F10E94F91C0E949A0D79
:104720008AE091E00E9474218091B503843009F5FC
:1047300083E08093E9008091E80082FF1AC08091B5
:10474000E80090E085FF09C050E040E060E270E0E2
:10475000CE0101960E94912491E08091E8008B7730
:104760008093E800992329F060E2CE0101960E942F
:10477000C417A0960FB6F894DEBF0FBECDBFDF9171
:10478000CF9108950E94B31C8091B303882309F44C
:10479000BFCF0E94E21C882309F4BACF0E942C24C8
:1047A0000E942608B5CF0C94D523292F3327233018
:1047B000310521F168F42130310509F443C022307C
:1047C000310509F444C090E080E030E020E026C0EC
:1047D0002132310551F122323105A9F763307105DB
:1047E00090F7FB01EE0FFF1FE554FE4F2081318152
:1047F00068547E4FFB01808190E010C09927813082
:10480000910581F0009729F00297E9F6ECEDF2E0CE
:1048100002C0ECE0F3E0849190E09F01FA01318363
:1048200020830895ECEFF2E0F6CF6330710558F67F
:10483000660F771FFB01EF53FE4F2081318189E026
:1048400090E0ECCF82E190E02FEC33E0E7CF8FEB0C
:1048500090E020E133E0E2CF80E189BD82E189BDD3
:1048600009B400FEFDCF8091D8008F7D8093D800E1
:104870008091E00082608093E0008091E00081FD03
:10488000FCCF0895AF92BF92CF92DF92FF920F9329
:104890001F93CF93DF936C01EB018A010E94F025F7
:1048A000F82E811123C00115110539F0F80180811E
:1048B0009181C81BD90BC80ED91EB12CA12C2097F1
:1048C000A9F08091E80085FD22C08091E8008E77F4
:1048D0008093E80001151105A1F0F8018081918114
:1048E000A80EB91EB182A08285E0F82E8F2DDF912F
:1048F000CF911F910F91FF90DF90CF90BF90AF901D
:1049000008950E94F0258823D1F2F82EEFCFF6010A
:1049100081916F018093F1002197FFEFAF1ABF0AD9
:10492000CECFAF92BF92CF92DF92FF920F931F93A1
:10493000CF93DF936C01EB018A010E94F025F82EE2
:10494000811123C00115110539F0F8018081918191
:10495000C81BD90BC80ED91EB12CA12C2097A9F0C9
:104960008091E80085FD22C08091E8008B778093DC
:10497000E80001151105A1F0F80180819181A80ED0
:10498000B91EB182A08285E0F82E8F2DDF91CF91E4
:104990001F910F91FF90DF90CF90BF90AF9008953F
:1049A0000E94F0258823D1F2F82EEFCF8091F100FC
:1049B000F60181936F012197FFEFAF1ABF0ACECFA7
:1049C000FC018091BC039091BD0386179707A0F06E
:1049D0006115710529F49091E8009E779093E800A5
:1049E00090E06115710551F4911108C08091E800C3
:1049F00082FF34C080E00895BC01F2CF8091B503FE
:104A00008823C1F18530C1F18091E80083FD30C079
:104A10008091E80082FDEACF8091E80080FFE1CF3D
:104A20008091F3002091F200382F6115710519F083
:104A30002830310558F091E02830310509F090E038
:104A40002091E8002E772093E800CBCF81918093CE
:104A5000F100615071092F5F3F4FE7CF8091B5039F
:104A6000882341F0853041F08091E80083FFBECF7C
:104A700081E0089582E0089583E00895FC0180912B
:104A8000BC039091BD0386179707A0F061157105CF
:104A900029F48091E8008E778093E80090E061151A
:104AA000710551F4911108C08091E80082FF35C072
:104AB00080E00895BC01F2CF8091B5038823C9F14D
:104AC0008530C9F18091E80083FD31C08091E80014
:104AD00082FDEACF8091E80080FFE1CF8091F30072
:104AE0002091F200382F6115710519F02830310539
:104AF00058F091E02830310509F090E08091E8000D
:104B00008E778093E800CBCF84918093F10031962B
:104B1000615071092F5F3F4FE6CF8091B503882325
:104B200041F0853041F08091E80083FFBDCF81E006
:104B3000089582E0089583E00895982F973028F033
:104B40008F708093E90081E008959093E900242F0D
:104B5000762F50E0981731F07091EC002091ED0025
:104B60005091F00021FD02C09F5FE8CF3091EB0033
:104B70003E7F3093EB003091ED003D7F3093ED00B0
:104B80003091EB0031603093EB007093EC00209398
:104B9000ED005093F0002091EE0027FDE5CF80E07E
:104BA00008958091B60387FF13C08091E80082FFCB
:104BB00006C08091E8008B778093E80004C0809164
:104BC000B5038111F2CF08958091B5038823D9F3FD
:104BD0008091E80080FFF8CF8091E8008E77ECCFDD
:104BE0002091E4003091E50095E6A9012091EC00C8
:104BF000822F817020FF06C08091E80080FF06C0F0
:104C000080E008952091E80022FD1AC08091B5034C
:104C1000882389F0853089F08091EB0085FD0FC0F5
:104C20002091E4003091E50042175307F9F29150CA
:104C3000E1F684E0089582E0089583E0089581E03C
:104C400008950E948F260E949726E0EEF0E0808172
:104C500081608083E8EDF0E080818F77808319BCEC
:104C6000A7EDB0E08C918E7F8C9380818F7E8083C6
:104C70001092B40308950F931F93CF93DF930E9474
:104C80008F260E949726C8EDD0E088818F77888391
:104C900088818068888388818F7D888319BC109281
:104CA000B5031092B1031092B3031092B20300EE59
:104CB00010E0F80180818B7F808388818160888308
:104CC00042E060E080E00E949D25E1EEF0E080811E
:104CD0008E7F8083E2EEF0E080818160808380813E
:104CE00088608083F80180818E7F808388818061E5
:104CF0008883DF91CF911F910F910895E8EDF0E047
:104D000080818F7E8083E7EDF0E080818160808309
:104D100084E082BF81E08093B4030C943B26E8EDED
:104D2000F0E080818E7F80831092E20008951092DF
:104D3000DA001092E10008951F920F920FB60F92C1
:104D400011242F933F934F935F936F937F938F9390
:104D50009F93AF93BF93EF93FF938091E10082FF06
:104D60000BC08091E20082FF07C08091E1008B7F41
:104D70008093E1000E9406298091DA0080FF19C02B
:104D80008091D80080FF15C08091DA008E7F8093DB
:104D9000DA008091D90080FF96C080E189BD82E170
:104DA00089BD09B400FEFDCF81E08093B5030E9468
:104DB00058228091E10080FF19C08091E20080FFBD
:104DC00015C08091E2008E7F8093E2008091E20026
:104DD00080618093E2008091D80080628093D80047
:104DE00019BC85E08093B5030E946A228091E1009E
:104DF00084FF2BC08091E20084FF27C080E189BD41
:104E000082E189BD89B5982F917080FFFBCF809199
:104E1000D8008F7D8093D8008091E1008F7E8093B1
:104E2000E1008091E2008F7E8093E2008091E200B9
:104E300081608093E2008091B103882309F449C026
:104E400084E08093B5030E946B228091E10083FF90
:104E500029C08091E20083FF25C08091E100877F17
:104E60008093E10082E08093B5031092B1038091BA
:104E7000E1008E7F8093E1008091E2008E7F80933D
:104E8000E2008091E20080618093E20042E060E015
:104E900080E00E949D258091F00088608093F00062
:104EA0000E946922FF91EF91BF91AF919F918F91E5
:104EB0007F916F915F914F913F912F910F900FBE16
:104EC0000F901F90189519BC1092B5030E9466228E
:104ED00070CF8091E30087FD93E09093B503B3CF4B
:104EE0001F920F920FB60F9211242F933F934F935F
:104EF0005F936F937F938F939F93AF93BF93CF9362
:104F0000DF93EF93FF93D091E900DF708091EC0085
:104F1000C82FC17080FDC0E81092E9008091F000B8
:104F2000877F8093F00078940E94B4271092E90064
:104F30008091F00088608093F000CD2BCF70C093FB
:104F4000E900FF91EF91DF91CF91BF91AF919F91D8
:104F50008F917F916F915F914F913F912F910F9022
:104F60000FBE0F901F9018951F93CF93DF93CDB76F
:104F7000DEB7AA970FB6F894DEBF0FBECDBF86EBA3
:104F800093E02091F100FC012193CF01F3E08E3BEF
:104F90009F07B9F70E948A228091E80083FF1EC113
:104FA0008091B6039091B7039A3008F017C1E92FAA
:104FB000F0E0EB52F64D0C944A29803899F0823893
:104FC00009F00CC18091BA038F70873008F006C1D8
:104FD0008093E9008091EB0085FB882780F910928F
:104FE000E90006C08091B2039091B30391118260F1
:104FF0009091E800977F9093E8008093F1001092E1
:10500000F1008091E8008E77E5C0882309F4D3C0D1
:10501000823009F0E3C08091B8038111D6C080913D
:10502000BA038F702FEF280F263008F0D7C0809377
:10503000E9002091EB0020FFC8C0933031F480914B
:10504000EB0080628093EB00C0C09091EB00906118
:105050009093EB0021E030E001C0220F8A95EAF73F
:105060002093EA001092EA008091EB008860EACF7A
:105070008111B4C01091B8031F778091E30080784C
:10508000812B8093E3008091E800877F8093E80084
:105090000E94D1258091E80080FFFCCF8091E30041
:1050A00080688093E30082E0111183E08093B50370
:1050B00095C08058823008F091C08091B8039091DB
:1050C000B9038C3D23E09207A1F583E08A838AE24D
:1050D00089834FB7F894DE01139620E03EE051E259
:1050E000E32FF0E050935700E49120FF03C0E295D6
:1050F000EF703F5FEF708E2F90E0EA30C0F0C79600
:105100008D939D932F5F243159F74FBF8091E80015
:10511000877F8093E8006AE270E0CE0101960E94EA
:10512000E0248091E8008B778093E80057C0C09618
:10513000E7CF6091BA037091BB03AE014F5F5F4F41
:105140000E94D323BC01892B09F448C09091E80048
:10515000977F9093E80089819A810E943E25E1CF54
:105160008038E1F58091E800877F8093E8008091A6
:10517000B1038093F10045CF811130C09091B80305
:10518000923060F58091E800877F8093E8009093EB
:10519000B1030E94D1258091B103882311F084E0EE
:1051A00005C08091E30087FDFACF81E08093B503CD
:1051B0000E946C2213C08091B803813079F481E0A1
:1051C000933009F080E08093B3031092E90080915E
:1051D000E800877F8093E8000E94D1258091E80055
:1051E00083FF0AC08091E800877F8093E800809168
:1051F000EB0080628093EB00AA960FB6F894DEBFB6
:105200000FBECDBFDF91CF911F9108950895CF9329
:105210008091B5038823A1F0C091E900CF709091EF
:10522000EC00892F817090FD80E8C82B1092E90076
:105230008091E80083FD0E94B427CF70C093E900FD
:10524000CF910895AA1BBB1B51E107C0AA1FBB1F2A
:10525000A617B70710F0A61BB70B881F991F5A9502
:10526000A9F780959095BC01CD01089597FB072E75
:1052700016F4009407D077FD09D00E94222907FC7C
:1052800005D03EF4909581959F4F08957095619556
:105290007F4F0895EE0FFF1F0590F491E02D0994C4
:1052A0006927962769277827872778270895FB019C
:1052B000DC0104C08D910190801921F441505040CF
:1052C000C8F7881B990B0895F999FECF92BD81BD4F
:1052D000F89A992780B50895A8E1B0E042E050E03F
:1052E0000C949829262FF999FECF92BD81BDF89A8A
:1052F000019700B4021639F01FBA20BD0FB6F8941A
:10530000FA9AF99A0FBE08950396272F0E947329DF
:105310000E947229252F0E947329242F0C9473292F
:105320000196272F0E9473290C947229DC01CB016E
:10533000FC01F999FECF06C0F2BDE1BDF89A3196A5
:1053400000B40D9241505040B8F70895F894FFCF43
:1053500076067606B306B306E406FE06A306A306A3
:105360000907720782078207350835083E083E089C
:1053700040083E083E083E083508350845083E0806
:105380003E084508D617E3170A18161821182C18D6
:105390002F182F182F182F182F18321836183E18BC
:1053A0004B1858185B185E186B18DD270528EE2877
:0E53B0000528EE2838285928EE28B028BC28F9
:1053BE0018022808641E140A321E048540000001DB
:1053CE00064000000100AB210122E021DC21D821A2
:1053DE00010100070002000700E200E900EA00B543
:1053EE0000B600B700CD008301CC008A0192019473
:1053FE00012102230224022502260227022A02B3D9
:10540E0000B4006F007000818283E200E900EA00C0
:10541E00B500B600B700CD008301CC008A01920121
:10542E0094012102230224022502260227022A02C7
:10543E00B300B4006F007000818283F4F5F6F7318B
:10544E00333236C6976694909100FF01000100003A
:10545E00FFFF0000010001FF000203020000010037
:10546E00010101010100010140227B7E04E10303E1
:08547E000422033B035B030061
:00000001FF
