:100000000C9402030C9449030C9449030C94490387
:100010000C9449030C9449030C9449030C94490330
:100020000C9449030C9449030C946A310C943E32AD
:100030000C9436280C9449030C9449030C944903FE
:100040000C9449030C9449030C9449030C94490300
:100050000C9449030C94A9280C9449030C9449036B
:100060000C9449030C9449030C9449030C944903E0
:100070000C9449030C9449030C9449030C944903D0
:100080000C9449030C9449030C9449030C944903C0
:100090000C9449030C9449030C9449030C944903B0
:1000A0000C9449030C9449030C944903A847BA5C87
:1000B0005F5D605DBB5C475C485CB25C495C4A5C10
:1000C0004B5C4C5C4D5C4E5C4F5CAA00505C515CE0
:1000D000525C535C545C555C565CA900575C585CA0
:1000E000595C5A5C5B5C5C5C5D5C00005E5C5F5C08
:1000F000605C615C625C635C645C0000655C665CC7
:10010000675C685C695C6A5C6B5C00000100010014
:100110005F5D605D0100825D835D0100845D855DE2
:10012000865D875D885D895D8A5D01008B5D8C5D84
:100130008D5D535C545C555C565C0100575C585CAB
:10014000595C5A5C5B5C5C5C5D5C00005E5C5F5CA7
:10015000605C615C625C635C645C0000655C665C66
:10016000675C685C695C6A5C6B5C000001000100B4
:100170005F5D605D0100825D835D0100845D855D82
:10018000865D875D885D895D8A5D01008B5D8C5D24
:100190008D5D8E5D8F5D905D915D0100925D935DE3
:1001A000595C5A5C5B5C5C5C5D5C00005E5C5F5C47
:1001B000605C615C625C635C645C0000655C665C06
:1001C000675C685C695C6A5C6B5C00000100010054
:1001D0005F5D605D0100825D835D0100845D855D22
:1001E000865D875D885D895D8A5D01008B5D8C5DC4
:1001F0008D5D8E5D8F5D905D915D0100925D935D83
:10020000945D955D965D975D985D0000995D5F5C7E
:10021000605C615C625C635C645C0000655C665CA5
:10022000675C685C695C6A5C6B5C000001000100F3
:10023000905C915C010001000100010001000100DF
:1002400001000100010001000100010001000100A6
:100250000100010001000100010001000100010096
:100260000100010001000100010000000100010087
:100270000100010001000100010000000100010077
:10028000010001000100010001000000A847BA5C64
:100290005F5D605DBB5C6B5C6A5CB25C695C685CAA
:1002A000675C665C655C645C635CAA00625C615C64
:1002B000605C5F5C5E5C5D5C5C5CA9005B5C5A5C86
:1002C000595C585C575C565C555C0000545C535C50
:1002D000525C515C505C4F5C4E5C00004D5C4C5C71
:1002E0004B5C4A5C495C485C475C000001000100D3
:1002F000915C905C0100010001000100010001001F
:1003000001000100010001000100010001000100E5
:1003100001000100010001000100010001000100D5
:1003200001000100010001000100000001000100C6
:1003300001000100010001000100000001000100B6
:1003400001000100010001000100000001009D5CAE
:10035000815C825C9E5C655D625D00000000635DA7
:100360000000645D000000000000000000000000CC
:10037000C95C665DC85C0000C75C00000000C65C2C
:10038000675DCD5C0000CC5C00000000CB5C685D6C
:10039000CA5C0000C55C0000C45C00000000DF5CBB
:1003A0000000615D0000C35C695D000000010101A7
:1003B0000101010101010202020202020202020322
:1003C00003030303030303040404040404040505F2
:1003D00005050506060606060707070707080808B5
:1003E00008090909090A0A0A0B0B0B0C0C0C0D0D64
:1003F0000D0E0E0E0F0F0F101011111112121313FC
:100400001414151516161717181819191A1A1B1B74
:100410001C1D1D1E1E1F20202122222324242526D0
:1004200026272829292A2B2C2D2D2E2F3031323208
:10043000333435363738393A3B3C3D3E3F40414214
:10044000434445464748494A4C4D4E4F50515354FA
:10045000555658595A5B5D5E5F61626465666869AE
:100460006B6C6D6F7072737577787A7B7D7E80822E
:10047000838587888A8C8E8F91939596989A9C9E77
:10048000A0A2A3A5A7A9ABADAFB1B3B5B7BABCBE87
:10049000C0C2C4C6C9CBCDCFD1D4D6D8DBDDDFE254
:1004A000E4E7E9EBEEF0F3F5F8FAFDFF1E03630075
:1004B000680072006F006D00610074006F006E00D4
:1004C00065006D0069006E00690000000E033300D6
:1004D00061007200610068007400000004030904F8
:1004E00009029F00040100A0FA09040000010301B1
:1004F00001000921110100012240000705810308C4
:10050000000A090401000103000000092111010093
:10051000012232000705820320000A080B020201B3
:10052000010000090402000001010000092401008B
:10053000010900010309040300020103000007246C
:10054000010001410006240201010006240202020A
:10055000000924030103010201000924030204012C
:100560000101000905040240000500000525010104
:100570000109058302400005000005250101031261
:1005800001100100000008EDFEB4F40100010200BA
:100590000105010980A101850319012AB700150190
:1005A00026B700950175108100C0050C0901A10155
:1005B000850419012AA002150126A00295017510D3
:1005C0008100C005010906A101050719E029E71509
:1005D00000250195087501810295017508810105C5
:1005E00007190029FF150026FF00950675088100F0
:1005F00005081901290595057501910295017503F5
:100600009101C00011241FBECFEFDAE0DEBFCDBFE5
:1006100004B603FE27C08091710890917208A091E2
:100620007308B09174088730904BA740B04BD1F459
:100630001092710810927208109273081092740848
:1006400014BE84B7877F84BF0FB6F894A8958091B5
:100650006000886180936000109260000FBEE0E04F
:10066000F8E3099514E0A0E0B1E0ECEEFAE602C090
:1006700005900D92AC35B107D9F728E0ACE5B4E0B0
:1006800001C01D92A137B207E1F70E94512E0C94D0
:1006900038350C940000882311F0815008958BE0C8
:1006A00008958B3010F48F5F089580E00895EF92E5
:1006B000FF920F931F93CF93DF9300D000D000D011
:1006C000CDB7DEB7811118C084E0689FF001112416
:1006D000EB54FD4FF080E280C7010E942B26B7014A
:1006E0000E9490088C01E982FA820C329CE519077D
:1006F00088F4C8010E94C30781E026960FB6F894DB
:10070000DEBF0FBECDBFDF91CF911F910F91FF9044
:10071000EF90089581E08B83BE016F5F7F4FC8012A
:100720000E94C70B8FE39CE90197F1F700C000001E
:100730001B82BE016F5F7F4FC8010E94C70BDCCFD9
:100740000E948D198FE70E94471A4FEF6FEF8AEAD8
:1007500090E00E94DE1987E00C94AD198091D605D7
:10076000807F82608093D6058091D70580788567E9
:100770008093D705E0E6F4E08FEF819394E0E93AC7
:10078000F907D9F761E070E080E090E00E94D8249A
:1007900061E070E080E090E00E94142587E00E9414
:1007A000AD19109290020895E6EDF5E080818F700A
:1007B00080831092A90481E08093910208950E94A1
:1007C000D40310925F040895FF920F931F93CF9369
:1007D000DF93082F6A561091D7051F77862F90E078
:1007E000E901C80FD91F3881FA0122812223A9F01B
:1007F0003F3F69F4815D934A0E94B80BF82E212F88
:10080000482F602F87E797E00E942029F882DF9128
:10081000CF911F910F91FF9008953F3F39F0212F05
:10082000432F602F87E797E00E9430298FEF88835E
:10083000EECF80915E04823141F128F4882341F0AB
:100840008C30A9F00895883171F18432D1F1089586
:1008500080915F04882331F061E170E080E090E0F6
:100860000C94142561E070E080E090E0F9CF809175
:100870005F04882329F062E170E080E090E0F0CF2F
:1008800062E070E080E090E0EBCF80915F0488232D
:1008900029F064E170E080E090E0E2CF64E070E095
:1008A00080E090E0DDCF80915F04882329F068E14B
:1008B00070E080E090E0D4CF68E070E080E090E00D
:1008C000CFCF80915F04882329F060E670E080E05C
:1008D00090E0C6CF60E270E080E090E0C1CFFB0125
:1008E00085362DE5920709F457C090F581362DE540
:1008F000920709F4D8C058F48F352DE5920709F412
:100900007CC080369D4509F4A4C081E00895228111
:1009100083363DE5930709F464C008F4CFC0222371
:10092000A1F32091AA0481E028272093AA049091A2
:10093000D7058091D805222309F41EC190689093B1
:10094000D705887F8093D80583E080939202DDCF1E
:1009500088362DE59207A9F170F486362DE59207C9
:1009600031F187369D4589F68281882371F20E9494
:10097000DF0382E123C089362DE5920751F1833BE5
:100980003DE5930710F620E634E0AB01BC01809111
:1009900092020E94E403B9CF8281882309F4B5CF83
:1009A0000E94DF0310925E040E941904AECF828180
:1009B000882309F4AACF0E94DF038CE080935E04B1
:1009C000F3CF8281882309F4A0CF0E94DF0388E15E
:1009D000F5CF8281882309F498CF0E94DF0384E257
:1009E000EDCF222309F491CF0E94D40380915F04BC
:1009F00091E0892780935F04D7CF8281882309F40F
:100A000084CF8091A9059091AA05A091AB05B091E2
:100A1000AC0584309105A105B10549F078F4019742
:100A2000A109B1090297A105B10508F06ECF809127
:100A3000A9040E944B038093A90467CF88309105D5
:100A4000A105B105A1F38097A105B10509F05DCF1E
:100A5000EECF8281882309F458CF8091A905909127
:100A6000AA05A091AB05B091AC0584309105A10514
:100A7000B10549F068F40197A109B1090297A105F0
:100A8000B10508F042CF8091A9040E945103D3CF51
:100A900088309105A105B105B1F38097A105B10595
:100AA00009F033CFF0CF8281882309F42ECF8091D3
:100AB000900291E089278093900227CF222309F4A6
:100AC00024CF4091A9055091AA056091AB05709182
:100AD000AC058091D605443951056105710551F089
:100AE000A8F4415951096109710942305105610564
:100AF0007105D8F49091910221E029272093910269
:100B00009093A904992331F1806F25C0403A510593
:100B10006105710539F1403E51056105710581F0AE
:100B2000483951056105710529F31092910291E050
:100B30009093A904806F8093D60590935F0434CF7F
:100B40009091910221E0922790939102992331F0A4
:100B50001092A9048F708093D605D7CE9BE0909316
:100B6000A904D2CF109291029BE09093A904806FC8
:100B70008093D60581E03ECF9F779093D705887FFD
:100B80008093D80582E0E1CEDF92EF92FF920F933F
:100B90001F93CF93DF93082FF62EE42E80919002BF
:100BA0008823E9F08091A90419E0811101C01CE0BB
:100BB000D0E0C0E08CE0D82E8091A904FE01D89E40
:100BC000E00DF11D1124E45DFC4F80812E2D4F2D91
:100BD000602F90E00E94C5112196C11768F3DF9144
:100BE000CF911F910F91FF90EF90DF900895EF92BA
:100BF000FF920F931F93CF93DF930E949119882345
:100C000009F18091A9059091AA05A091AB05B09139
:100C1000AC0582319105A105B10509F4E0C038F5B4
:100C200084309105A105B10509F426C190F4813005
:100C30009105A105B10509F4B4C00297A105B1055C
:100C400009F407C1DF91CF911F910F91FF90EF90B1
:100C5000089588309105A105B10509F420C1419797
:100C6000A105B10579F740E069E183E39DC08032D9
:100C70009105A105B10509F49FC0E8F484319105FF
:100C8000A105B10509F4BFC04897A105B105D1F68A
:100C900040E069E183E30E94C405C5E0D3E08991A7
:100CA00020E040E063E390E00E94C511F3E0C8302B
:100CB000DF07A9F7C7CF80369105A105B10509F473
:100CC000B5C008F4BFCF80589109A109B109C1E0AE
:100CD000D0E081389105A105B10508F0B3CF29E135
:100CE00043E360E0CE010E94C5112196C530D105D5
:100CF000B1F78091C00229E143E360E090E00E94F7
:100D0000C5118091C60229E143E360E090E00E94B2
:100D1000C5118091CC0229E143E360E090E00E949C
:100D2000C5110DEB12E085E0E82E83E0F82EE80116
:100D3000899126E041E26BE290E00E94C5118BA10F
:100D400020E043E360E090E00E94C5118DA920E01F
:100D500043E360E090E00E94C511F70181917F01BB
:100D600020E043E360E090E00E94C511F70183A119
:100D700020E043E363E390E00E94C511F2E0C03C51
:100D8000DF07B1F6F80181A129E143E360E090E0DB
:100D90000E94C5110A5F1F4FF3E00B301F0791F748
:100DA00051CF46E061E28BE2DF91CF911F910F912D
:100DB000FF90EF900C94C40540E063E383E30E944E
:100DC000C405C9E2D3E0899120E040E063E390E00C
:100DD0000E94C51183E0CC32D807A9F733CF40E099
:100DE00069E183E30E94C405C1EED2E004EE12E0A3
:100DF000899120E040E063E390E00E94C5110C1768
:100E00001D07B1F71FCF40E069E183E30E94C405ED
:100E1000C3EFD2E0899120E040E063E390E00E94DC
:100E2000C511E2E0C63FDE07A9F70CCF40E069E15B
:100E300083E30E94C405C9E2D3E0899120E040E049
:100E400063E390E00E94C51183E0CC32D807A9F794
:100E5000F9CE40E063E380E00E94C405C1EED2E039
:100E6000899120E040E063E390E00E94C511E2E058
:100E7000C43EDE07A9F7E6CE40E063E380E00E94CF
:100E8000C405C3EFD2E0899120E040E063E390E045
:100E90000E94C511F2E0C63FDF07A9F7D3CE40E0BC
:100EA00063E380E00E94C405C5E0D3E0899120E0BF
:100EB00040E063E390E00E94C51183E0C830D807AA
:100EC000A9F7C0CECF93DF939C013A9521153F41FE
:100ED00068F5EC01CC27D170DC01AA27B270AC0117
:100EE000442754709C012227387094FF11C080E180
:100EF000CD2B09F480E0AB2B09F08062452B09F083
:100F00008064232B09F08068FB01DF91CF91099465
:100F100081E0CD2B09F480E0AB2B09F08260452BFA
:100F200009F08460232B81F38860EECFDF91CF91AD
:100F30000895CF93DF93EC01805E9109089720F02C
:100F400068E971E2209711F465EB7FE1CE010E9420
:100F500062078C2FDF91CF910C94281FCF93DF93E2
:100F6000EC010E946E1FCE01805E9109089720F06F
:100F70006FE971E2209711F46CEB7FE1CE01DF9114
:100F8000CF910C946207CF93DF93EC010E949907F5
:100F90008FE39CE90197F1F700C00000CE01DF91DB
:100FA000CF910C94AE0781E008950C946F040895DE
:100FB0000C94D7071F93CF93DF9300D000D00F92EC
:100FC000CDB7DEB749835A836B833091520589814F
:100FD0009A8131111DC06623B9F02223A9F00E9425
:100FE0002B26182F682F89819A810E94D625698126
:100FF0007A81812F0F900F900F900F900F90DF91BB
:10100000CF911F910C9490080E940326182FEFCFC8
:101010000E942B2669817A81EDCFFC01262F408129
:1010200051816281738184810C94DA07CF93DF93BD
:10103000EC0160E00E940D08BE01DF91CF910C949D
:10104000D8070E946A0A0E9436190C948F0A0C94E1
:10105000920A08950E94B8210E9429082FEF84E384
:101060009CE0215080409040E1F700C000000C94CB
:10107000CD280F931F93CF93DF93EC0161E00E9483
:101080000D088C01BE010E94D507882389F1BE019D
:10109000C8010E94C70B882359F1BE01C8010E94F4
:1010A0000D1C882329F1BE01C8010E945F1C882302
:1010B000F9F0BE01C8010E94821D8823C9F0BE015B
:1010C000C8010E948B1A882399F08A81882339F0FD
:1010D00001158CE5180751F00F3D1C4579F0CE0144
:1010E000DF91CF911F910F910C94D3070E942A0892
:1010F00080E0DF91CF911F910F9108950E94962774
:10110000F7CF08950C94810881E008950C94840829
:10111000CF93C82F0E9482088C2FCF910C94860801
:10112000E72FF0E096E0899FE00DF11D112483E0A8
:10113000EE0FFF1F8A95E1F7E60FF11DEE0FFF1F7F
:10114000E455FF4F859194910895CF93DF930E94CA
:1011500090080E947809EC01811521E5920778F545
:10116000811530E5930708F076C08F3B910580F438
:10117000883A910508F064C0853A910508F058C096
:101180008430910588F4019779F0D0E0C0E00CC07C
:101190008115904268F4C11581E0D80728F4CE018A
:1011A000805E9109089788F7CE01DF91CF9108956D
:1011B000C11590E4D90748F3DF70D06AF5CF8115E7
:1011C00024E5920778F4811533E5930708F06FC0A2
:1011D000811542E5940708F05AC0D82FCC27C16F7B
:1011E000D06AE2CFC1158AE5D80770F4C11599E538
:1011F000D90708F06FC0C11528E5D20730F2DC2FFF
:10120000CC27C06FD06AD0CFCE01905681159042C6
:1012100008F0BBCF8D2F8F710E940F0A90E0982F9E
:10122000882788279F719C012C2BE901D062BCCFB5
:10123000C55AD0E0C651DC4FC881D0E0D064B4CFED
:10124000C85AD0E0CC0FDD1FC454DC4F0990D881C0
:10125000C02DD464A9CF64E0969587956A95E1F78F
:1012600083702C2F26952695237040E2249F9001B1
:101270001124382B8C2F8370C1E0D0E002C0CC0F3A
:10128000DD1F8A95E2F7C22BD32BDC688DCF8370EC
:10129000992721E030E002C0220F331F8A95E2F740
:1012A000C695C69580E2C89FE0011124ECCF8370FB
:1012B000992721E030E002C0220F331F8A95E2F720
:1012C000C695C69590E2C99FE0011124C22BD32B8D
:1012D000DA686ACF8C2F8F700E940F0A34E0D6959F
:1012E000C7953A95E1F7CF709C2FEC01D0695CCFA0
:1012F00082389105B1F1B0F48133910509F475C0DC
:1013000048F48932910509F469C08A32910509F4DB
:1013100073C008958533910509F459C08933910547
:1013200001F10895833E9105A9F138F4803E9105BD
:10133000F9F0823E910549F10895863E9105A9F1A3
:10134000873E9105C9F1843E910519F52091C905A3
:1013500021FF1FC08091C80584FD14C087EE90E076
:1013600008952091C8052370A1F080EE90E00895C3
:101370002091C80520FD47C03091C90530FF09C044
:1013800024FF44C090E080E004C02091C80522FD05
:10139000F7CF08952091C80522FD3BC03091C905C3
:1013A00030FDE3CF24FFF5CFEDCF2091C80523FF1B
:1013B000F0CF24FDE7CFD2CF2091C80523FD2CC06C
:1013C0003091C90531FFEECF84EE90E00895209171
:1013D000C80525FFDECF89E290E008952091C80579
:1013E00025FFD7CF85E390E008952091C80526FF1B
:1013F000D0CF8AE290E008952091C80526FFC9CF9A
:1014000081E390E0089589E390E0089583EE90E011
:10141000089582EE90E0089586EE90E00895909110
:10142000C80592FF06C0282F28712830F9F4877F5D
:10143000846093FF06C0282F28712831F1F4877E3D
:1014400084612091C90520FF06C0382F38713830DB
:10145000D9F4877F816021FF06C0282F28712831A9
:10146000D1F4877E816194FD877E0895282F2471B1
:101470002430F9F68B7F8860DCCF282F247124314B
:1014800001F78B7E8861DDCF382F3171313019F74C
:101490008E7F8860E0CF282F2171213121F78E7E49
:1014A0008861E1CF0C94F6260E94ED0A8FE39CE957
:1014B0000197F1F700C000000E94ED0A80E00E9451
:1014C000940A80FF04C00E94520A0C94CD2808950B
:1014D0000C94540A0E94FC26811102C00E94962797
:1014E0000E9407278093BC050E940F279093C9058F
:1014F0008093C8050E94680A0E940B27682F70E03D
:1015000090E080E00E94D8246091A9057091AA051E
:101510008091AB059091AC050C94122508950C9424
:101520008E0A08950C94910AE82FF0E0E053FA4FE8
:1015300080810895089580EA8A95F1F7089500C0A2
:1015400008950C949B0AF894E82FE295EF70F0E070
:1015500031A1282F2F7081E090E001C0880F2A95DB
:10156000EAF7982F9095932391A392A1892B82A3B8
:10157000789408950F931F93CF93DF9386EC0E9486
:10158000A30A87E90E94A30A86E60E94A30A84E9C7
:101590000E94A30A80E90E94A30A81E90E94A30A8B
:1015A000CDEED3E005EF13E089910E94A30A0C175A
:1015B0001D07D1F7EAECF5E0A0EDB5E011921D9220
:1015C00085E0E03DF807D1F786E00E94640BDF91EB
:1015D000CF911F910F910C942108CF92DF92EF923F
:1015E000FF920F931F93CF93DF93C5EFD3E00AECE5
:1015F00015E0D12CEE24E394F12C8991F894E82F96
:10160000E295EF70F0E021A18F70A70102C0440FB6
:10161000551F8A95E2F7CA01922F982B91A392A1A8
:101620008095892382A378940E949F0AEDEEF3E0CF
:1016300030E020E0C12C4191A42FA295AF70B0E022
:1016400090968C9190E04F7002C0959587954A9541
:10165000E2F780FD35C08E2D022E01C0880F0A945E
:10166000EAF7C82A2F5F3F4F2830310521F7FE01E6
:10167000319780810E94A30A0E94A10AF80180810B
:10168000C81601F1C08281E0D82A0F5F1F4FF3E036
:10169000CB3FDF0709F0B1CF2D2D46E060ED75E0BF
:1016A0008AEC95E00E94650B0E9427088D2DDF9142
:1016B000CF911F910F91FF90EF90DF90CF90089501
:1016C00080E0CFCF80E0E0CF0895FF920F931F938B
:1016D000CF93DF93F82E092F162FD72FC42F222355
:1016E00049F081E08093AD040E9466289093AC0499
:1016F0008093AB048091AD048823A1F08091AB046A
:101700009091AC040E947E28069760F0EF2DF02F98
:10171000A12FBD2FCE0FDF2FD11DEC17FD0741F4F8
:101720001092AD04DF91CF911F910F91FF9008951A
:1017300081918D93F2CF84E08093D6058FE78093DB
:10174000D7058091D805807880648093D805E2EB36
:10175000F4E08FEF819394E0EA3FF907D9F7109214
:10176000B1041092B0041092AF041092AE04089528
:101770009091D605292F2F709595959595959595CE
:101780009F523CE0239F900D1124890F0895FF92F2
:101790000F931F93CF93DF93FB018F3A2CE59207B2
:1017A00008F085C08F394CE5940708F08DC1803969
:1017B0002CE5920750F583384CE5940708F040C1BA
:1017C00081382CE5920760F487374CE5940708F0E0
:1017D0001FC18F322CE5920708F0DFC0C1E011C1B4
:1017E00081384CE5940709F420C182389C45B1F753
:1017F0008281882309F4EBC08091D605982F9F70D1
:10180000993008F0E4C09F5F19C18D394CE5940709
:10181000A0F582392CE5920708F02FC180394CE5FC
:10182000940709F418C181399C45C1F68281882347
:1018300009F4CDC02091D605822F85958595859593
:10184000859586300CF0C3C091E0980F9295907FFB
:101850009595959595959595392F3295307F2F7063
:10186000232B2093D60518160CF0B1C097FFAFC0FC
:101870008295807F922F9F70D4C08D394CE594075C
:1018800009F409C18E399C4509F0A8CF82818823CB
:1018900009F49DC08091D705982F9F779F3709F451
:1018A00096C0933708F00EC1935F9F77F2C0853BD7
:1018B0004CE5940709F466C1C8F5813B4CE59407F3
:1018C00009F432C1D8F48F3A4CE5940709F40EC1FB
:1018D000803B9C4509F082CF8281882309F477C040
:1018E0002091D705322F331F3327331F9091D8050E
:1018F000892F8770880F832B8F5F09C16091D7056F
:101900003091D8052281833B4CE5940709F42EC120
:1019100008F420C121112FE7862F881F8827881FF0
:10192000632F6770660F682B42E40FC1883B2CE57C
:10193000920709F43AC180F4863B2CE5920709F43A
:1019400021C1873B9C4509F049CF828181112BC180
:101950008FEF8093B0043BC08A3B2CE5920709F4DB
:101960005AC108F443C18B3B9C4509F037CFC28173
:101970006091D705862F881F8827881F6091D8051A
:101980006770660F682BCC2309F455C14FEF5FE1F8
:1019900087E797E00E9440291AC02091D705322F8F
:1019A000331F3327331FD091D805D770DD0FD32BCA
:1019B000F22EE894F7F8C28101ED080F10E00E5402
:1019C0001B4FF8014081CC2389F04F3F11F0C0E05C
:1019D00018C00E94B80BC82F2F2D482F6D2F87E7F6
:1019E00097E00E942029F801C083F1CF4F3F31F0EA
:1019F0002F2D6D2F87E797E00E9430298FEFF80198
:101A000080838C2FDF91CF911F910F91FF900895CC
:101A100022812223E1F28757982F9F708091D6056B
:101A2000807F892B8093D605D2CF8281882379F25B
:101A30008091D605982F9F7051F2915F9F70F0CFE3
:101A40002281222321F28958982F9295907F8091AC
:101A5000D6058F70E6CF8281882309F4B8CF8091B4
:101A6000D605982F95959595959595959B3F0CF452
:101A7000AECF915F9295907FECCF2281222309F423
:101A8000A6CF82599CE0899F902D11249F77809149
:101A9000D705807815C08281882309F498CF80917A
:101AA000D705982F9F7709F492CF80789F3721F43C
:101AB00085678093D7058BCF9D30D8F39D509F7756
:101AC000892BF7CF8F67F5CF2281222309F47FCFAF
:101AD0008F599091D70580FB97F99093D7058695FC
:101AE00087709091D805987F892B7DC0828188234B
:101AF00009F46DCF2091D705322F331F3327331FC1
:101B00009091D805892F8770880F832B815F382F9C
:101B10003F7080FB27F92093D705832F8695987F08
:101B2000982B9093D80553CF8281882309F44FCF07
:101B30006091D705862F881F8827881F6091D80558
:101B40006770660F682B20E04BE787E797E00E94FD
:101B500010293DCF21112FE7862F881F8827881F46
:101B6000632F6770660F682B40E4EFCF21112FE7DA
:101B7000862F881F8827881F632F6770660F682B42
:101B800041E4E3CF828120E081112FE76091D70506
:101B9000862F881F8827881F6091D8056770660F79
:101BA000682B43E4D2CF81E0D4CE8281882309F42C
:101BB0000ECF9091D805292F2695269526952F7022
:101BC00081E0820F8F70880F880F880F9778892B9C
:101BD0008093D805982F987709F0F9CE220F220F1D
:101BE000220F8778822B8093D805F1CE82818823BB
:101BF00009F4EDCE8091D805982F987709F4E7CEB7
:101C0000982F969596959695915F9F70990F990F3D
:101C1000990F877869CFC2816091D705862F881F79
:101C20008827881F6091D8056770660F682B40E091
:101C300050EEC111ADCE50E040E087E797E00E9442
:101C40004029DFCE87E797E00E94422B8091AE04C7
:101C50009091AF040E947E282091D8052695269564
:101C600026952F702817190609F0A0F50E946628FE
:101C70009093AF048093AE048091B004882351F117
:101C80006091D705862F881F8827881F6091D80507
:101C90006770660F682B2091B10441E087E797E0F9
:101CA0000E9410298091B0049091B10487FF0DC06B
:101CB000482F552741950CF45095941715062CF490
:101CC0001092B1041092B0040895890F87FD03C0EB
:101CD0008093B10408958FE7FBCFEF92FF920F93AB
:101CE0001F93CF93DF93EB01E82FD11110C0442352
:101CF00021F0F0E0E455FC4FE4916E2F7E2F8E2F03
:101D0000DF91CF911F910F91FF90EF9008950D2FCC
:101D100010E0282F30E0442329F024553C4FF901EE
:101D2000249130E0F6E0CF9FC0011124EFEFF0E006
:101D3000BF010E94F033AB018C2F90E0880F991FF8
:101D4000A5E5A49FB001A59F700D1124861B970BDC
:101D5000982F990F980FBF01601B710B629FD001E4
:101D6000639FB00D729FB00D11248B2F9D9FB0010A
:101D70001124672F7727EF01C61BD70BBE01629F87
:101D8000E001639FD00D729FD00D11247F01E91AED
:101D9000F108E09EB001E19E700DF09E700D1124DF
:101DA000672F7727E61BF70BE29F8001E39F100D5B
:101DB000F29F100D1124E12F722F4230510599F03E
:101DC00048F44115510569F04130510581F0EB2F80
:101DD0008D2F07C04430510569F080F04630510521
:101DE000B1F76E2F8DCFE22F7B2F812FFACFE22F0D
:101DF0007D2FF7CFEB2F822F712FF3CF7B2F822FE9
:101E0000ED2FEFCF41E00C946D0E30E020E0869F87
:101E1000212D969F200D311D1124C9010895AC017B
:101E20008230910508F408959FEF413E8EE15807F6
:101E300040F49A0195E0369527959A95E1F798E058
:101E4000920F61E0E62FE90FFF27FF1F9F013595F5
:101E50002795822F229FF001239FF00DF00D112472
:101E60004E175F0738F49FEF920F961758F78FEFD2
:101E7000860F08952F3FE9F361E0620FF6CFE82F58
:101E800086FDE0952E2F2F7086FD2F5FE695E69557
:101E9000E695E670F0E0E550FC4F9181929F902D21
:101EA000212D112492959F702295207F922B2081C5
:101EB000920F87FD919580E8890F0895E42FF0E057
:101EC000EE0FFF1FEC5CFE4F408134EE439F412D2F
:101ED0001124E82FF0E050E0445E5F4FDA01A21BCE
:101EE000B1099D01B7FF03C031952195310993E0F8
:101EF000220F331F9A95E1F7AF01421B530B9A0152
:101F000057FD20E0582F259F212D1124822F089561
:101F1000622F0895E42FF0E0EE0FFF1FEC5FFE4FFD
:101F200061A9621B0895322F50E0FA01EE0FFF1FE6
:101F3000EC5FFE4F91A9905297FD9195440F551F6C
:101F4000FA01EC5CFE4F2081231B330B290F311D5E
:101F500097FD3A95620F0895EF920F93972F23E024
:101F6000029FB0011124759567956E0D792F0F9121
:101F7000EF9008950F93CF93DF93D72FC82F47FD8E
:101F800041958EE390E0841B910947FD9395889FCE
:101F9000B001899F700D700D1124229FC001239FF5
:101FA000900D900D1124860F971F0E940F0F982FF0
:101FB000990F890F682F600F7D2F8C2FDF91CF91A4
:101FC0000F9108950F931F93522F10E0F801EE0F19
:101FD000FF1FEC5FFE4FA1A9A052BB0B9D01520356
:101FE000F001539FF00D1124000F111FD801AC5CBC
:101FF000BE4F0C910C57110B40039001419F300DC7
:1020000011242E0F3F1F37FF02C021583F4F220FD0
:10201000232F221F330B620F1F910F9108950F93EF
:102020001F93522F10E0F801EE0FFF1FEC5FFE4FE1
:10203000A1A9A052BB0B9D015203F001539FF00DCB
:102040001124000F111FD801AC5CBE4F0C910C572E
:10205000110B40039001419F300D11242E0F3F1FA3
:1020600037FF02C0215C3F4F96E0359527959A9542
:10207000E1F7620F1F910F91089522E8241B08F4E5
:1020800020E0620F0895EF92FF920F93970195E081
:10209000099F200D311D11242F3F310519F010F03B
:1020A0002FEF30E02095382F320F08F43FEF832FC9
:1020B0000F91FF90EF900895EF92FF920F93972F5B
:1020C000093438F4B701601B71096F3F710519F0CD
:1020D00010F06FEF70E0485F5F4F4131510540F005
:1020E000A901485F5F4F4131510510F06FEF70E07B
:1020F0006095482F460F08F44FEF842F37FF02C03A
:102100002D5F3F4F35952795359527956091DB05D8
:10211000620F792F0F91FF90EF900895EF92FF9249
:102120000F939701201B31092F3F310519F010F053
:102130002FEF30E0322F3095482F430F08F44FEF48
:10214000842F620F0F91FF90EF900895EF92FF920E
:102150000F939701201B31092F3F310519F010F023
:102160002FEF30E02095382F320F08F43FEF832F08
:102170000F91FF90EF900895EF92FF920F931F93AE
:102180000E0D1F2D111D9A0157FF03C0319521958A
:10219000310994E0220F331F9A95E1F72F3F310563
:1021A00019F014F02FEF30E0200F311F2F3F3105D1
:1021B00019F010F02FEF30E02095382F320F08F48F
:1021C0003FEF832F1F910F91FF90EF900895FC0137
:1021D0009B01009729F480E077FF2BC080E80895E9
:1021E000AC0197FF04C044275527481B590BB90180
:1021F000640F751F37FD10C0241B350BC901A5E006
:10220000880F991FAA95E1F70E94043480E2861B8B
:10221000F7FF0FC081950895CB0165E0880F991FE6
:102220006A95E1F7BA01621B730B0E94043480E6E1
:10223000EECF08950F931F93CF93DF93D62FC72F21
:10224000182FC901212F201B022FBA010E94E7106D
:10225000982F990F990F891B800F282F219F212DCF
:102260001124822F6D2F7C2FDF91CF911F910F9121
:102270000895EF920F931F93CF93DF93D62FC72F1D
:10228000182FC9010E19010FBA010E94E710081B8F
:10229000202F219F212D1124822F6D2F7C2FDF9144
:1022A000CF911F910F91EF9008950F93CF93DF93EC
:1022B000D72FC82FC901BA010E94E710682F600FFD
:1022C0007D2F8C2FDF91CF910F910895EF920F9377
:1022D000CF93DF93D72FC82FC9010E19BA010E94DF
:1022E000E710602F681B7D2F8C2FDF91CF910F910E
:1022F000EF9008950C94020F46E050E06CE170E01E
:102300008AED95E00C94C43446E050E06CE170E056
:102310008AED95E00C94E234EAEDF5E085E0808307
:102320008091B2029091B302A091B4028183928312
:10233000A3838FE784838FEF85830C94841180E0DF
:1023400008950F931F93CF93DF93C82FD62F8A0141
:102350000E949F1198E0C99FB00111246C5F7E4FCD
:102360006D0F711DFB0190819F3F29F0F801E80F6F
:10237000F11D90838F5FDF91CF911F910F91089591
:10238000E0910904F0910A040994E0910504F091A8
:10239000060409943F924F925F926F927F928F92C0
:1023A0009F92AF92BF92CF92DF92EF92FF920F93E4
:1023B0001F93CF93DF933C012B01FC01C08188E187
:1023C000C89FC02D112418E11C0FF12E153710F0F5
:1023D00034E7F32E6091DE0566958091E0059091DB
:1023E000E1050E94050F382ED0E0CE01880F991F1D
:1023F0009C012C5F3E4F6901CF15B0F081E014378E
:1024000008F080E0DF91CF911F910F91FF90EF9046
:10241000DF90CF90BF90AF909F908F907F906F9004
:102420005F904F903F900895FE01E45EFD4F8081E4
:10243000F3019181892379F1F60180A9282F2C5786
:10244000330B590181A9E82FE052FF0B4F01AA9CE1
:102450009001AB9C300D300D1124EE9FC001EF9F19
:10246000900D900D1124820F931F0E940F0F082FC3
:102470006091DB057091DC058091DD05E32C940112
:10248000A501F20109950E947A11462F282F672F86
:10249000CE010E94C511F2E0CF0ED11C2196ACCF27
:1024A00069E371E10C94CA116CEA7FE00C94CA11E3
:1024B00066E671E10C94CA118F929F92AF92BF921F
:1024C000CF92DF92EF92FF920F931F93CF93DF9300
:1024D0005C016B01FC01C08188E1C89FC02D112403
:1024E00018E11C0F912E153710F034E7932E6091F0
:1024F000DE0566958091E0059091E1050E94050F4B
:10250000882ED0E0CE01880F991F9C012C5F3E4F92
:102510007901C91588F081E0143708F080E0DF9177
:10252000CF911F910F91FF90EF90DF90CF90BF90D0
:10253000AF909F908F900895FE01E45EFD4F8081E3
:10254000F50191818923C1F0F70121A92052330BB4
:1025500040A94C57550B6091DB057091DC058091CB
:10256000DD05082DF60109950E947A11462F282FC6
:10257000672FCE010E94C511F2E0EF0EF11C2196EB
:10258000C8CF6AE171E10C945C126AEB7FE00C94B5
:102590005C1265E571E10C945C12BF92CF92DF9200
:1025A000EF92FF920F931F93CF93DF937C018B01E8
:1025B000FC01C08188E1C89FC02D112498E1D92E6B
:1025C000DC0ECD2CF4E7FD1510F484E7C82E6091E5
:1025D000DE056695669521E0620F08F46FEF809145
:1025E000E0059091E1050E94050FB82ED0E0CC15D2
:1025F00078F081E093E79D1508F480E0DF91CF91BA
:102600001F910F91FF90EF90DF90CF90BF900895B2
:10261000FE01E45EFD4F8081F7019181892391F0F5
:102620006091DB057091DC058091DD052B2D4C2F31
:10263000F80109950E947A11462F282F672FCE01A5
:102640000E94C5112196D3CF6EE57FE00C94CD1288
:1026500068E87FE00C94CD126AE87FE00C94CD121C
:1026600063E97FE00C94CD127F928F929F92AF929C
:10267000BF92CF92DF92EF92FF920F931F93CF936F
:10268000DF935C016B01FC01C08188E1C89FC02D14
:10269000112418E11C0F912E153710F034E7932EFA
:1026A0006091DE05669566958091E0059091E10563
:1026B0000E94050FF82E80E48F0D0E943F0F90E8D6
:1026C000892E880E8F2D0E943F0F20E8722E780EE3
:1026D000D0E0C91590F081E0143708F080E0DF9178
:1026E000CF911F910F91FF90EF90DF90CF90BF900F
:1026F000AF909F908F907F900895FE01E45EFD4F14
:102700008081F50191818923A1F06091DB057091B1
:10271000DC058091DD05EF2C0C2F272D482DF601CF
:1027200009950E947A11462F282F672FCE010E940B
:10273000C5112196CECF62EE7FE00C9434136FE08A
:1027400070E10C943413AF92BF92CF92DF92EF926C
:10275000FF920F931F93CF93DF938C017B01FC01BA
:10276000C08188E1C89FC02D112428E1B22EBC0E83
:10277000AB2CF4E7FB1510F494E7A92E2091DE05AD
:1027800031E0230F08F42FEF30E050E040E06FEF2E
:102790007FEF80E090E00E9418346901D0E02C2F98
:1027A000CA1580F081E0F3E7FB1508F480E0DF91C3
:1027B000CF911F910F91FF90EF90DF90CF90BF903E
:1027C000AF900895FE01E45EFD4F8081F801918194
:1027D000892311F14091E4054150042E000C550B62
:1027E00047FF1CC0C6016091DE0521E0620F08F4BE
:1027F0006FEF0E94050FAC016091DB057091DC0565
:102800008091DD05F70109950E947A11462F282F46
:10281000672FCE010E94C5112196C1CFFA01EC515C
:10282000FA4F858982130AC0FA01EE0FFF1FEC519F
:10283000FA4F878D90A18C159D05A8F24150510942
:10284000CFCF6DE370E10C94A3132F923F924F9280
:102850005F926F927F928F929F92AF92BF92CF9230
:10286000DF92EF92FF920F931F93CF93DF93CDB739
:10287000DEB72B970FB6F894DEBF0FBECDBF8C83AB
:102880002B015F834E83FB01F08188E1F89F802D4F
:1028900011248983885E8A838B83853710F024E72F
:1028A0002B833091E4053D839981892F90E09B87AC
:1028B0008A87880F991FFC01EC5FFE4F6F01FC8136
:1028C0008F2F90E09C012F5F3F4F39872887EB8146
:1028D000FA85FE17F0F081E02A81243708F080E0C5
:1028E0002B960FB6F894DEBF0FBECDBFDF91CF9110
:1028F0001F910F91FF90EF90DF90CF90BF90AF901E
:102900009F908F907F906F905F904F903F902F900F
:102910000895EA85FB85E45EFD4F8081F201918197
:10292000892301F12090DB053090DC05288539856D
:102930002C513A4F39013C81398310E029813D8186
:102940002317C8F02091DD05129F112D1124B1012C
:10295000812F0E947A11462F282F672F8A859B8509
:102960000E94C5118A859B8501969B878A8792E084
:10297000C90ED11CACCFF30181913F01F601A0A893
:10298000A81ABB0881A8F3018185881A9908AA9C16
:102990009001AB9C300D300D1124889CC001899CA6
:1029A000900D900D1124820F931F0E940F0F082F7E
:1029B0006091DE0521E0620F08F46FEFF301EE0F86
:1029C000FF1FE45EF540838D948D0E94050F7C010E
:1029D0009401A501B101812FEE81FF8109951B01B1
:1029E000F981FF5FF983182FA9CF43E450E1BC01BF
:1029F00080E00C9425144CE550E1BC0180E00C947F
:102A000025144EE850E1BC0180E00C94251446EA00
:102A100050E1BC0180E00C9425144CEB50E1BC016A
:102A200080E00C942514BF92CF92DF92EF92FF9238
:102A30000F931F93CF93DF937C01FC01C08188E14A
:102A4000C89FC02D112418E11C0F012F153708F065
:102A500004E76091DB057091DC058091DD050E9443
:102A60007A11D62EC72EB82ED0E0C01770F081E0B4
:102A7000143708F080E0DF91CF911F910F91FF9004
:102A8000EF90DF90CF90BF900895FE01E45EFD4F80
:102A90008081F7019181892331F02B2D4D2D6C2DF3
:102AA000CE010E94C5112196E0CFDF92EF92FF92F6
:102AB0000F931F93CF93DF938C01FC01E45EFD4FD6
:102AC0008081682381F1D090DC05D091DD05C09133
:102AD000DB05EC2EF12C0E94AB34282FC7018C545F
:102AE0009F4F68E671E00E9404348E199F0997FD9C
:102AF0000396959587959595879523706C2F289FBC
:102B0000600D11247D2D8D2F0E947A11462F282FC4
:102B1000672FC801DF91CF911F910F91FF90EF9028
:102B2000DF900C94C511DF91CF911F910F91FF9011
:102B3000EF90DF900895DF92EF92FF920F931F9333
:102B4000CF93DF938C01FC01C281C11125C060913C
:102B5000DE0520E1620F08F46FEF8091E0059091AF
:102B6000E1050E94050F6AE070E00E94F033892BB6
:102B700051F40E94AB3464E770E00E940434F80121
:102B800061810E9455158C2FDF91CF911F910F917C
:102B9000FF90EF90DF900895C08188E1C89FC02D1D
:102BA000112488E1D82EDC0E8D2DF4E7FD1508F4F4
:102BB00084E7D0E0E82EF12CCE15DF0534F0C1E03B
:102BC000F3E7FD1500F7C0E0DECFF8016181CE012B
:102BD0000E9455152196F0CF1F93CF93DF93EC0100
:102BE000FC01E45EFD4F80816823A1F00E94AB34BC
:102BF000182F0E94AB34612F782F8091DD050E9441
:102C00007A11462F282F672FCE01DF91CF911F9188
:102C10000C94C511DF91CF911F910895DF92EF922F
:102C2000FF920F931F93CF93DF938C01FC01C2811E
:102C3000C11125C06091DE0520E1620F08F46FEF3D
:102C40008091E0059091E1050E94050F65E070E03C
:102C50000E94F033892B51F40E94AB3464E770E09A
:102C60000E940434F80161810E94EC158C2FDF91E1
:102C7000CF911F910F91FF90EF90DF900895C08149
:102C800088E1C89FC02D112488E1D82EDC0E8D2D3F
:102C9000F4E7FD1508F484E7D0E0E82EF12CCE151A
:102CA000DF0534F0C1E0F3E7FD1500F7C0E0DECF4B
:102CB000F8016181CE010E94EC152196F0CF6F9250
:102CC0007F928F929F92AF92BF92CF92DF92EF92BC
:102CD000FF920F931F93CF93DF936C01FC01C08190
:102CE00088E1C89FC02D112448E1B42EBC0E9B2C56
:102CF000F4E7FB1510F434E7932E2091DE0530E065
:102D000050E040E06FEF7FEF80E090E00E941834E9
:102D10007901D0E08E01000F111F0C5F1E4F22E8D9
:102D2000822EC915A0F081E093E79B1508F480E09E
:102D3000DF91CF911F910F91FF90EF90DF90CF9097
:102D4000BF90AF909F908F907F906F900895FE01FD
:102D5000E45EFD4F8081F6019181892319F1609035
:102D6000DC057090DD05A090DB054091E405415045
:102D7000042E000C550B47FF19C0C7016091DE05FA
:102D80000E94050F682D282F621B08F460E06A0D71
:102D9000762D872D0E947A11462F282F672FCE017E
:102DA0000E94C51121960E5F1F4FBBCFFA01EC5157
:102DB000FA4F9181F80180A998130AC0FA01EE0F29
:102DC000FF1FEC51FA4F878D90A18E159F05B0F231
:102DD00041505109D0CFE0910704F09108040994C3
:102DE000CF93DF93FC019081C8E19C9FC00D11241B
:102DF0000E94AB34D82F0E94AB346D2F782F809176
:102E0000DD050E947A11482F872F0E94EB1681E082
:102E1000C43708F080E0DF91CF910895CF92DF9220
:102E2000EF92FF920F931F93CF93DF93CDB7DEB74F
:102E30002A970FB6F894DEBF0FBECDBF182F062F0E
:102E4000F42E0E94311E882309F44BC0FF2009F4A0
:102E500057C0AE014F5F5F4F602F812F0E94A111BD
:102E6000F82EE090FA040F2D10E0C8018E0D911D90
:102E70000B9764F18AE090E06C01C01AD10AB801A6
:102E800065507B4FA6018BEF94E00E94BB34B801E4
:102E90006B5F7A4FA60185E095E00E94BB34A601E6
:102EA000440F551FB801660F771F675E7A4F89E19F
:102EB00095E00E94BB34B801615F7A4FA6018FE0B4
:102EC00095E00E94BB34EA94E092FA041091FA046F
:102ED000DE01119640E0842F810FF41213C080931D
:102EE000FA042A960FB6F894DEBF0FBECDBFDF916D
:102EF000CF911F910F91FF90EF90DF90CF900895A9
:102F0000F12CAFCF5D91252F30E090E0BC016650F1
:102F10007B4FF901EE0FFF1FEC5CFE4F0081FB01C0
:102F20000183220F331FF901EC5FFE4F21A9FB0142
:102F30002387558B880F991FFC01E650FB4F10A289
:102F4000178E4F5FC8CF08950E94A3170C94F70502
:102F500008950895CF93DF93FC01C08188E1C89F55
:102F6000C02D1124D8EEDC0FC53708F0C4E76C2F54
:102F70008D2F0E94A8176C2F8D2FDF91CF910C946D
:102F8000A9174F925F926F927F928F929F92AF920A
:102F9000BF92CF92DF92EF92FF92CF9360912D0577
:102FA00070912E0580912F05909130050E948D28FB
:102FB0006B017C010E9472284B015C0180922D05FF
:102FC00090922E05A0922F05B0923005A091FA04A0
:102FD000EAEFF4E08A2F90E04FEF5FEF60E070E0FF
:102FE0004C195D096E097F09A9132AC08093FA0460
:102FF00080913105C0E0811108C08091DA05C82FA9
:10300000C37019F0C82FC695C69580919302813080
:1030100009F440C0882339F1823009F409C18330B2
:1030200009F411C1CF91FF90EF90DF90CF90BF9046
:10303000AF909F908F907F906F905F904F9008958A
:10304000278D30A12901712C612C44155505660589
:10305000770520F481509F5F3296C6CF2C0D3D1D21
:1030600030A3278FF8CF109294028092E0059092BF
:10307000E105A092E205B092E30583E3EAEFF4E014
:10308000A4EEB5E001900D928A95E1F781E080937E
:103090009302C8CF80919702C81323C09091DA059C
:1030A00093702091980230E081E09217130609F4A2
:1030B00080E08170809396028091DF059091950267
:1030C000981739F08093950240E060E080E00E941C
:1030D000EB16C83188F4EC2FF0E0E65CFA4C0C9467
:1030E000373481E0E6CF80919602882359F040E0A2
:1030F00060E080E00E94EB1680E004C084E992E08A
:103100000E941315909194029F5F909394028111F5
:103110008BC082E08093930280919602811184C0DB
:10312000CC2309F48EC00E94A41784E992E0CF91C9
:10313000FF90EF90DF90CF90BF90AF909F908F90D7
:103140007F906F905F904F900C94AA1784E992E063
:103150000E942413D7CF84E992E00E94C112D2CFFB
:1031600084E992E00E945012CDCF84E992E00E945F
:103170002813C8CF84E992E00E942C13C3CF84E9BE
:1031800092E00E943013BECF84E992E00E94541274
:10319000B9CF84E992E00E94C512B4CF84E992E0ED
:1031A0000E94C912AFCF84E992E00E945812AACFC0
:1031B00084E992E00E949B13A5CF84E992E00E94EB
:1031C0009F13A0CF84E992E00E949B159BCF84E9D6
:1031D00092E00E940E1696CF84E992E00E9421149C
:1031E00091CF84E992E00E94F5148CCF84E992E0BB
:1031F0000E94FB1487CF84E992E00E94011582CFE0
:1032000084E992E00E9407157DCF84E992E00E9454
:103210000D1578CF84E992E00E945F1673CF84E9A0
:1032200092E00E94F0166ECFCC2309F4FBCE7BCF48
:10323000C09397028091DA058370809398020E9470
:10324000C01183E024CF6091E0057091E105809189
:10325000E2059091E3050E948D286031710581059A
:10326000910508F4DFCE10929302DCCEE0910304C6
:10327000F091040409951092E405E3E0F6E08FEF85
:103280009FEF8193919326E0E731F207D1F71092F7
:10329000FA04E9E1F5E08FEF9FEF8193919325E048
:1032A000ED32F207D1F70E94FC26811104C00E9482
:1032B00096270E948C110E947C118091DA058C7FE8
:1032C00011F40C948C110895CF93C82F882329F002
:1032D00040E060E080E00E94EB16C0933105CF91A2
:1032E00008959091DA0521E092279093DA051092E3
:1032F000930281110C948411089581E00C9471194A
:103300008091DA05837011F4109293028091DA05AE
:103310008C7F81608093DA0508950E9480190C9457
:1033200084118091DA05837008959091DA05937085
:1033300099F0811109C094609093DA05109293027C
:10334000662351F00C948411883110F09C65F4CF01
:10335000880F880F982BF0CF089561E00C94951991
:10336000682F9091DA059695969581E0890F8831BE
:1033700008F081E00C94951981E00C94B019682F45
:103380009091DA05969596958FEF890F09F487E16C
:103390000C94951981E00C94BF199091DA05937003
:1033A00061F08093DB056093DC05433308F042E372
:1033B0004093DD0521110C948411089521E00C94B3
:1033C000CD19AAEDB5E01196EC911197F0E0282FF8
:1033D00013964C91139712966C91CF0108960C940A
:1033E000CD1981E00C94E119EAEDF5E09181282FE7
:1033F00043816281E92FE850FF0BCF010C94CD1976
:1034000081E00C94F419EAEDF5E0628120E1620FAD
:1034100008F46FEF9181282F4381892F90E00C945D
:10342000CD1981E00C94031AEAEDF5E0628120E108
:10343000621B08F460E09181282F4381892F90E07E
:103440000C94CD1981E00C94141AEAEDF5E0438157
:1034500020E1420F08F44FEF9181282F6281892FDC
:1034600090E00C94CD1981E00C94251AEAEDF5E07A
:10347000438120E1421B08F440E09181282F6281C2
:10348000892F90E00C94CD1981E00C94361A80932A
:10349000DE050C9484112091DE0530E1230F08F441
:1034A0002FEF2093DE0581110C948411089581E0A3
:1034B0000C944B1A2091DE0530E1231B08F420E028
:1034C0002093DE0581110C948411089581E00C9401
:1034D0005A1A0895FC01EE0FFF1FE80FF91FE95E6D
:1034E000F94F6183408322830895E7E1F6E0818309
:1034F00060834283339697E0E337F907C1F7089575
:1035000064E770E087E196E00C941C1BFA018111DE
:1035100001C0FB0109940F931F93CF938C01FB0112
:10352000C281CC2309F486C00E94CE2682720B3C55
:10353000FCE51F0709F472C060F5063CECE51E07C8
:1035400009F458C080F4043C9CE5190709F448C00C
:1035500008F04BC0033C1C4509F43FC08C2FCF91B1
:103560001F910F910895083C9CE5190709F44CC080
:1035700008F445C0093CFCE51F0709F44AC044E4CF
:103580005AE163E37AE10A3C1C4541F70E94861A3E
:103590001EC0013DECE51E0798F40F3CFCE51F073B
:1035A000B0F40D3C9CE51907F1F146E65AE167E5F8
:1035B0007AE10E3C1C4550F381E00E94AD1907C032
:1035C000073DFCE51F0728F4023D1C4588F1C0E0DB
:1035D000C5CF0E351D45D9F3C1CF0E947D19F7CF58
:1035E0004AEC59E16CEB79E1D1CF4CEB59E16AEC53
:1035F00079E1CCCF40E05AE161EF79E1C7CF41EF0B
:1036000059E160E07AE1C2CF42E25AE161E17AE158
:10361000BDCF41E15AE162E27AE1B8CF43E35AE13A
:1036200064E47AE1B3CF47E55AE166E67AE1AECFEA
:103630008AE0C3CFC1E092CF539A4BB1477F5BB1D1
:103640005860EFB7F8949B01220F331F260F371FE6
:10365000280F391F2817390741F4EFBF8FE594E091
:103660000197F1F700C000000895DC016D91CD01D4
:1036700078E05BB9000000C067FF4BB9660F00003F
:1036800000C000C000C04BB900C07A9591F7E2CFEE
:1036900025982D9A24982C9A83B185FB882780F948
:1036A0001C9905C090E0892B80933405089592E021
:1036B000FACFE0913405EE0FEE0FE093340543B1FD
:1036C00045FB882780F943B144FB222720F944FFBA
:1036D00002C022E030E0822BE82BE0933405EF704B
:1036E000F0E0E55FFB4F808190913305890F809377
:1036F000330520E0843054F0809132058F5F809351
:10370000320560E080E00E94570321E0809133059C
:103710008D3F54F48091320581508093320561E0F1
:1037200080E00E94570321E080913305082E000CB1
:10373000990B64E070E00E94043480933305822F7B
:1037400008950F931F93CF93DF93C42FD22FFC01C3
:1037500082818823C9F0409337050E9466289093A0
:1037600036058093350580E28C0F883008F050C014
:10377000C77081E001C0880FCA95EAF7DF91CF9149
:103780001F910F910C94B51F10913705141335C07C
:1037900080913505909136050E947E28883C9105E0
:1037A00060F5C0E2CD0F1D17B9F080E2810F8830BF
:1037B00040F4177081E001C0880F1A95EAF70E9463
:1037C000BC1FC83048F481E09D2F977001C0880F5E
:1037D0009A95EAF70E94B51F802F0E94AD1FC8304E
:1037E000B8F4D77081E001C0880FDA95EAF7DF916D
:1037F000CF911F910F910C94BC1F80E28C0F8830E9
:1038000038F4C77081E001C0880FCA95EAF7EFCF9E
:10381000DF91CF911F910F9108950F939C01CB01E0
:10382000243F4CE5340759F1A8F4293DFCE53F0756
:1038300001F12A3D4CE53407D1F1283D3C4591F496
:1038400006E221EE41EE68ED7CE50E94A11B80E0DE
:103850000F910895263FFCE53F07E9F0B0F0273FC0
:103860003C45F9F0FC018281882339F1109237053B
:10387000EFCF07E225EE45EE69ED7CE5E6CF06E207
:1038800021EE40EE64EF7CE5E0CF07E225EE44EE6A
:1038900065EF7CE5DACF06E221EE42EE66EF7CE5ED
:1038A000D4CF07E225EE46EE67EF7CE5CECF08E207
:1038B00021E045EE6AED7CE5C8CF81E0C9CFCF932A
:1038C000DF93EC01FB018281882309F419C1C23026
:1038D000FCE5DF07C0F1C6319CE5D90730F09E0159
:1038E0002B5F3C452930310570F50E940F279093DE
:1038F000C9058093C805C031ECE5DE0709F4CFC0E7
:1039000008F05BC0C8308CE5D80709F4B6C088F56C
:10391000C430ECE5DE0709F4A8C0C0F4C2308CE581
:10392000D80709F49CC08091C8058260C330DC458B
:1039300009F498C08091C8059091C9050E941D277F
:103940000E94B82180E0DF91CF9108958091C80551
:103950008061C630ECE5DE0709F484C08091C805BB
:103960008860C730DC4508F47DC08091C80580625E
:1039700079C0CC308CE5D80709F489C070F4809107
:10398000C8058C60CA30ECE5DE0709F46BC008F4AA
:1039900078C08091C8058E7F65C0CE308CE5D80791
:1039A00009F479C08091C8058B7FCF30DC4508F4DD
:1039B00059C08091C8058F7E55C0CC3FECE5DE072D
:1039C00009F457C030F5C3318CE5D80709F46FC04E
:1039D00078F4C131ECE5DE0709F465C0C231DC459D
:1039E00009F0A8CF0E94B8218091C8058F773AC00E
:1039F000C5318CE5D80709F462C008F476C080911F
:103A0000C9058160CB3FDC4509F094CF8093C9059F
:103A100091CFC115FDE5DF0709F44DC088F4809111
:103A2000C9058D7FCE3F9CE5D90781F38091C905FB
:103A30008E7FCF3FDC4550F38091C9058360E6CF90
:103A4000C230FDE5DF0709F459C008F444C080E046
:103A5000C330DD4509F06ECF0E9498276BCF80916F
:103A6000C80581608093C80565CF8091C8058460D2
:103A7000F9CF8091C9058260C9CF8091C805806463
:103A8000F1CF0E94B8218091C8058068EBCF80916A
:103A9000C8058D7FE7CF8091C805877FE3CF8091F0
:103AA000C8058F7DDFCF8091C8058F7BDBCF8091EC
:103AB000C805837FD7CF8091C9058C7FA7CF809120
:103AC000C80582FB992790F921E0922790FB82F9A3
:103AD00090FB83F9C7CF8091C905982F909591707D
:103AE0008E7F892B90FB81F991CF0E94B821909114
:103AF000C805892F97FB87F98058B4CF81E0ACCFF8
:103B000081E021CFCF93DF93EB0186319C4511F506
:103B10000E94CE269A81992399F08A7A91E009F43D
:103B200090E090933805811109C089E20E949B269C
:103B30000E94AF2680E0DF91CF91089585E3F6CF14
:103B400080913805811104C089E20E94A226F0CF3D
:103B500085E3FBCF81E0EFCF90933E0580933D0559
:103B60000895E0913D05F0913E05309721F00190D8
:103B7000F081E02D099480E00895E0913D05F091F9
:103B80003E05309721F00280F381E02D09940895DD
:103B900020913B0530913C052817390771F090932F
:103BA0003C0580933B05E0913D05F0913E05309743
:103BB00021F00680F781E02D0994089520913905C0
:103BC00030913A052817390771F090933A058093A0
:103BD0003905E0913D05F0913E05309721F00084D4
:103BE000F185E02D099408950E94722860934E0596
:103BF00070934F05809350059093510560934A054B
:103C000070934B0580934C0590934D0508950E9449
:103C1000722860934E0570934F05809350059093E2
:103C2000510560934605709347058093480590932E
:103C30004905089585B7806885BF85B7806885BFC9
:103C40000895089508950C94211E0C94AE030E94CB
:103C50001A1E84EF96E20E94DE280E94221E0C9417
:103C6000231E81E008950C94311E089508950E944A
:103C7000351E0C94361E0E945D280E94BA0A0E94CE
:103C8000481B0C94251E9F92AF92BF92CF92DF9259
:103C9000EF92FF920F931F93CF93DF93CDB7DEB7D1
:103CA0002A970FB6F894DEBF0FBECDBF0E94ED0A73
:103CB00081110E94F41D80E4A82E85E0B82E10E04A
:103CC00000E0902E802F0E94940AD82EF501F190EA
:103CD0005F01F81216C00F5F1F4F0630110589F7FC
:103CE0008FEF89838A831B820E9466288160782FE8
:103CF0009D838C8349815A816B818D810E94F11E45
:103D000032C08091BC0581FD0E949A0A8F2D8D25BD
:103D1000F12CEE24E394982F9E2109F44AC00E94CE
:103D2000331EDE20CC24C394D11001C0C12C8823C3
:103D300079F0FE829F82C8860E9466288160782F73
:103D40009A8789874E815F8168858A850E94F11EE6
:103D5000F801E05CFA4F8081E826E0824C2D6F2D5F
:103D6000892D0E940E170E94C1170E94591B8111B4
:103D70000E94071E0E94220E0E94B11D90913F05D5
:103D80008917E9F00E94B11D80933F052A960FB66E
:103D9000F894DEBF0FBECDBFDF91CF911F910F9181
:103DA000FF90EF90DF90CF90BF90AF909F900C94DA
:103DB0008808F394EE0CF8E0FF12ADCF8CCF2A9672
:103DC0000FB6F894DEBF0FBECDBFDF91CF911F912C
:103DD0000F91FF90EF90DF90CF90BF90AF909F90AA
:103DE0000895DF92EF92FF920F931F93CF93DF938B
:103DF000CDB7DEB72B970FB6F894DEBF0FBECDBFA1
:103E00007A878B87F42E052F162FE72ED82E611177
:103E10000E94EE261E821D827E2DEC82DD824F2DB9
:103E2000502F612F8D2D9E812B960FB6F894DEBFFB
:103E30000FBECDBFDF91CF911F910F91FF90EF90FB
:103E4000DF900C942E24FC01808191810C946D26CE
:103E5000CF93C82F882309F43FC08CEF8C0F813A91
:103E6000A0F46C2F8091990290919A020E949D2754
:103E7000882329F08C2F0E94A2260E94AF268C2F27
:103E80000E949B26CF910C94AF2680E28C0F883045
:103E900048F4C77081E001C0880FCA95EAF70E9414
:103EA000D126F0CFEBE5EC0FE33040F4F0E0E75B38
:103EB000FB4F808190E0CF910C94C81DC85AC73148
:103EC00058F4EC2FF0E0EE0FFF1FE55EFB4F808112
:103ED0009181CF910C94DE1DCF910895882329F113
:103EE0009CEF980F913A20F40E94A2260C94AF26E2
:103EF00090E2980F983050F4877091E001C0990FCC
:103F00008A95EAF7892F0E94D726F0CF9BE5980F74
:103F1000933020F490E080E00C94C81D885A8731DB
:103F200020F490E080E00C94DE1D08951F93CF9361
:103F3000DF93182FEB010E94281F209731F4812F67
:103F4000DF91CF911F910C946E1F8FE99FE0019735
:103F5000F1F700C000002197F0CF6AE070E08933EC
:103F600011F460E570E00C94961F882321F00E9404
:103F7000D1260C94AF260895882321F00E94D726DD
:103F80000C94AF260895CF92DF92EF92FF920F9399
:103F90001F93CF93DF93DC01C62F972F12962C919E
:103FA000129715964C911597342F32953F70872FA5
:103FB00082958F70082F10E08C3090F5F801EE5A42
:103FC000FA4C0C943734D72FDF70907F11F0D295D4
:103FD000D07F2223A9F0DD2359F080E28C0F8830B6
:103FE00010F0C11109C08D2F0E94D1260E94AF266A
:103FF0008C2F0E94281F14C08D2F0E94E126F6CF1F
:104000008C2F0E946E1FDD2359F080E28C0F8830C8
:1040100010F0C11117C08D2F0E94D7260E94AF2625
:10402000085011090430110508F046C10E94B11D65
:10403000DF91CF911F910F91FF90EF90DF90CF9084
:104040000C9488088D2F0E94E726E8CF872F8F7069
:10405000907F903211F08295807FC13061F42223ED
:1040600029F03630E8F60E94B51FDACF3530C0F6B9
:104070000E94BC1FD5CF222341F03323A1F340FF80
:10408000B7CF4F7015964C93EECF332389F3C933D6
:1040900009F00AC12FEF87EE93E021508040904055
:1040A000E1F700C000008C2F0E946E1FB9CF872F50
:1040B00086958695837061F0813009F0B1CF862FA7
:1040C0009370211102C090E080E00E94DE1DA8CF15
:1040D000862F9370211102C090E080E00E94C81DDD
:1040E0009FCF872F837009F044C0211199CF862F6D
:1040F000829586958770880F880F6F70C62ED12C99
:10410000F12CE12C082E04C0CC0CDD1CEE1CFF1C95
:104110000A94D2F740E050E0BA01C4FF0FC04FE06C
:1041200050E060E070E004C0440F551F661F771F29
:104130008A95D2F74095509560957095292F2695D0
:1041400026952370CB01BA016C297D298E299F29E0
:10415000223049F058F4213019F00E94EC2460CF4D
:104160000E94DA245DCF0E94FE245ACF0E94D824F8
:1041700057CF8695222311F0872F8170882309F469
:104180004FCF8C2F829586958770880F880F6C2F64
:104190006F70C62ED12CF12CE12C082E04C0CC0C53
:1041A000DD1CEE1CFF1C0A94D2F740E050E0BA017F
:1041B000C4FF0FC04FE050E060E070E004C0440F67
:1041C000551F661F771F8A95D2F7409550956095C9
:1041D0007095292F269526952370CB01BA016C295D
:1041E0007D298E299F29223049F058F4213019F079
:1041F0000E94B12515CF0E949F2512CF0E94C32592
:104200000FCF0E9414250CCFD72FDF70222329F067
:104210008D2F0E943A258C2F26CF862F0E94BC1FFF
:104220008D2F0E945B25FCCE613F19F148F4603F61
:1042300091F0222369F13111DBCE892F8F711DC0DE
:10424000623FF1F0633FA9F72223F9F0872F8F71C6
:104250000E942525E5CE222341F0353008F0E0CE3E
:10426000892F8F710E947E25DBCE363008F0D8CEA4
:10427000F7CF872F8F712223A1F20E943A25D0CE4B
:10428000872F8F712223C9F3CCCF0E942025C8CE5F
:10429000332379F0C93341F49FEF27EE83E0915047
:1042A00020408040E1F7FDCE8FE39CE90197F1F7D4
:1042B000F8CE892F8F71B5CFDF91CF911F910F91DC
:1042C000FF90EF90DF90CF9008950F931F93CF93BF
:1042D000DF93EC01688179818A810E9477268C01C5
:1042E0000E94D5250E94D724B801CE01DF91CF913D
:1042F0001F910F910C94C31FCF93DF93EC018B811F
:104300009C81892B29F08881998189238F3F19F419
:10431000DF91CF910895CE010E9439088823C1F31F
:10432000CE010E946521CE01DF91CF910C94160839
:10433000882321F00E94E1260C94AF26089588235B
:1043400021F00E94E7260C94AF26089590E080E0CB
:104350000E94C81D90E080E00E94DE1D0E94EE26B3
:104360000E94F1260C94AF260E94A9260C94A62147
:104370000E94DE260C94B421E92FE295EF70E25002
:10438000EE3070F4F0E0E25AFA4C0C943734803F8F
:1043900019F020F4883E20F481E00895843FE1F391
:1043A00080E00895883EC0F3813FD1F7F5CF93FBBD
:1043B000882780F908950E946D260C94BC21CF9324
:1043C000DF9300D000D00F92CDB7DEB70F900F90E3
:1043D0000F900F900F90DF91CF910895CF93DF93BF
:1043E00000D000D000D0CDB7DEB726960FB6F89437
:1043F000DEBF0FBECDBFDF91CF9108951F93CF9346
:10440000DF93C091530516E0809154058C1304C0CE
:10441000DF91CF911F910895D0E01C9FF0011D9F67
:10442000F00D1124EB5AFA4F408151816281738162
:10443000848195810E94EE212196C770E5CF40913D
:10444000850550918605609187057091880580915A
:10445000890590918A050C94EE211F93CF93DF93E9
:1044600080918A05807FA9F480918705882389F04F
:1044700080915305C0915405609185057091860522
:10448000A0918805B0918905D62FD72316E0C813CF
:1044900004C0DF91CF911F91089590E0109711F023
:1044A000DF3F19F401968770F2CF189F9001199F92
:1044B000300D1124F901EB5AFA4F41814713F2CF25
:1044C00040814613EFCF42814111ECCF43815481AB
:1044D0004A1B5B0B483C510528F780918A058F7079
:1044E000806180938A05F901E65AFA4F80818F70C6
:1044F0008061808385E895E00E947C21DF91CF91E7
:104500001F910C94FE21AF92BF92CF92DF92EF9257
:10451000FF920F931F93CF93DF93CDB7DEB76197D1
:104520000FB6F894DEBF0FBECDBF8C0185E0F80159
:10453000DE011D9601900D928A95E1F7F801408108
:104540005181E28085E8C82E85E0D82E60918805EB
:10455000709189056115710509F461C19091850516
:1045600020918605892F82238F3F09F458C1A380AB
:10457000B480F0908705F501E61BF70BFF2009F4E6
:10458000FCC080918A05382F307FE83CF10508F0A7
:10459000B2C0311179C0FE2C251323C0941321C061
:1045A000E1101FC08F70806180938A050E941F22D6
:1045B000C6010E947C2180918A05F80185838F2D98
:1045C00061960FB6F894DEBF0FBECDBFDF91CF91DD
:1045D0001F910F91FF90EF90DF90CF90BF90AF9021
:1045E0000895AB2829F0842F85238F3F09F033C12C
:1045F00080E0F82FF170DF2E80FF3CC080915305E2
:104600002091540536E0821315C04D875E878D8555
:104610009E850E946D26292F22952F702230F0F062
:10462000243018F59F70F1F0F8019581907FD1F456
:10463000D12C1EC090E0389FF001399FF00D11245D
:10464000EB5AFA4F6181651306C06081641303C0A1
:1046500062816E110FC001968770D5CF9F7011F0E7
:10466000882331F3805E883018F3C8010E947C21D2
:10467000FD2CA5CFEE2009F4A2CF80918A058160A0
:1046800080938A05F12C9BCF251306C0941304C098
:10469000F801EE2009F48DC04D875E878D859E85DB
:1046A0000E94DB21882319F1EE2009F180918A050F
:1046B000803270F0209185053091860538872F83F0
:1046C0001986BB86AA868C87CE0107960E947C211C
:1046D00086E0F801A5E8B5E001900D928A95E1F732
:1046E0000E942D220E941F22FF24F39468CFC8014C
:1046F0000E947C21F9CF311113C07A2DB98AA88A82
:104700006E2D89890E94DF2185E895E00E947C2139
:1047100086E0F60111928A95E9F70E941F22B2CF36
:1047200025130FC094130DC0E1100BC0F801858351
:10473000C8010E947C2186E0F60111928A95E9F772
:104740003ECF4D875E878D859E850E94DB21882325
:1047500071F2EE2061F280918A05803208F4B8CFC0
:1047600020918505309186053A8329831B82BD827D
:10477000AC828E83CE010196A9CFE83CF10508F00A
:1047800041C0FE2CEE2009F4B2CF25132AC09413A9
:1047900028C080918A0580FD1BC0982F907FC1F0B2
:1047A000F8018583903F31F0982F907F905F8F7054
:1047B000892B8583C8010E947C2186E0F801A5E849
:1047C000B5E001900D928A95E1F70E941F22F7CE85
:1047D00086E0F801A5E8B5E001900D928A95E1F731
:1047E000EECE4D875E878D859E850E94DB218111EF
:1047F0006FCF80918A05816080938A05C8010E94ED
:104800007C21DDCE7A2DB98AA88A6E2D89890E94F5
:10481000DF2186E0F60111928A95E9F7D6CFEE20E6
:1048200009F465CF4D875E878D859E850E94DB21CB
:10483000F82E882309F45BCF86E0F801A5E8B5E0FF
:1048400001900D928A95E1F785E895E00E94231F7B
:104850000E942D22BACF81E08E25CBCE1F93CF931D
:10486000DF93CDB7DEB72C970FB6F894DEBF0FBE3F
:10487000CDBF4F83588769877A878B879C87CE0106
:1048800007960E948322882369F08A859B85892B5D
:1048900039F04F815885842F85238F3F09F071C0EF
:1048A00016E05FC086E0FE013796DE0111960190AA
:1048B0000D928A95E1F78A859B85892B89F38F81F3
:1048C000988589238F3F61F32091540530E0C90119
:1048D000019687709927409153054817190671F47E
:1048E0000E94B821109254051092530586E0E5E825
:1048F000F5E0DF011D928A95E9F7D2CF96E0929F0D
:10490000D001939FB00D1124AB5ABA4FFE013196DE
:1049100001900D929A95E1F7809354050E94FE2133
:10492000BFCF819FC00111248B5A9A4F0E948322CE
:104930008823E9F0E09153051E9FF0011124EB5A02
:10494000FA4F4081518162817381848195810E94F7
:10495000EE218091530590E001968770992780930E
:10496000530580915305909154058913DACF2C9605
:104970000FB6F894DEBF0FBECDBFDF91CF911F9170
:10498000089569857A858B859C850E94EE2188CF64
:1049900008950C94C8240E94C9246093AD057093B7
:1049A000AE058093AF059093B0050C94A6210895B1
:1049B0000C94CB240F931F930091AD051091AE057D
:1049C0002091AF053091B005602B712B822B932B7A
:1049D0001F910F910C94CB240F931F930091AD0561
:1049E0001091AE052091AF053091B0056023712381
:1049F000822393231F910F910C94CB240F931F9329
:104A00000091AD051091AE052091AF053091B00534
:104A100060277127822793271F910F910C94CB2435
:104A20000C94C8240C9410250E9412256093A905AB
:104A30007093AA058093AB059093AC050C94A621C6
:104A400060E070E0CB010C9414250F931F9341E0BC
:104A500050E060E070E08A019B0104C0000F111F6C
:104A6000221F331F8A95D2F7C901B8011F910F91F8
:104A70000C9414250F931F9341E050E060E070E028
:104A800004C0440F551F661F771F8A95D2F7809187
:104A9000A9059091AA05A091AB05B091AC058A013A
:104AA0009B01082B192B2A2B3B2BC901B8011F9105
:104AB0000F910C9414250F931F9341E050E060E098
:104AC00070E004C0440F551F661F771F8A95D2F708
:104AD000CB01BA0160957095809590950091A905DC
:104AE0001091AA052091AB053091AC05602371238C
:104AF000822393231F910F910C9414250F931F93DE
:104B000041E050E060E070E004C0440F551F661FB4
:104B1000771F8A95D2F78091A9059091AA05A09157
:104B2000AB05B091AC058A019B01082719272A27FC
:104B30003B27C901B8011F910F910C9414250F93C5
:104B40001F930091A9051091AA052091AB05309102
:104B5000AC05602B712B822B932B1F910F910C9422
:104B600014250F931F930091A9051091AA05209178
:104B7000AB053091AC0560237123822393231F91F1
:104B80000F910C9414250F931F930091A905109178
:104B9000AA052091AB053091AC05602771278227CB
:104BA00093271F910F910C9414250895990F990F35
:104BB000990F890F982F977041E001C0440F9A9583
:104BC000EAF786958695869595E0899FF0011124F0
:104BD000E557FA4F30E020E070E05191DF01119786
:104BE000CB01022E02C0969587950A94E2F7817058
:104BF00081958527842385278C932F5F3F4F253010
:104C0000310559F70895990F990F990F890F982F2A
:104C1000977086958695869525E0829FF0011124F0
:104C2000E557FA4F50E040E080E0219130E0092E56
:104C300002C0369527950A94E2F721703327042E97
:104C400001C0220F0A94EAF7822B4F5F5F4F453075
:104C5000510559F70895BF92CF92DF92EF92FF92DC
:104C60000F931F93CF93DF938C01C090A905D09031
:104C7000AA05E090AB05F090AC058091AD05909150
:104C8000AE05A091AF05B091B005C82AD92AEA2A8D
:104C9000FB2ACFE1D0E0BC2ED701C6010C2E04C008
:104CA000B695A795979587950A94D2F780FD0EC083
:104CB000219788F7B12C8B2DDF91CF911F910F9108
:104CC000FF90EF90DF90CF90BF900895B8018C2FA8
:104CD0000E94A508019761F3EECFCF93DF93EC011B
:104CE0000E942B26BE01DF91CF910C94A5081F9343
:104CF000CF93DF93EB0190915205992331F0CB01D3
:104D0000DF91CF911F910C946D26882379F0CB0110
:104D10000E942B26182F682FCE010E94D625BE0197
:104D2000812FDF91CF911F910C94A508CB010E9498
:104D30000326182FF4CF682F8091990290919A0240
:104D40000C94D327682F8091990290919A020C9429
:104D5000D5278091990290919A020C94D727E091DF
:104D60009902F0919A028091BB058083E0919902AB
:104D7000F0919A0280819091BA05892B8083E0910D
:104D80009902F0919A0280819091B905892B8083D4
:104D90008091990290919A020C94BD1D8091BB055F
:104DA00008959091BB05892B8093BB05089580954C
:104DB0009091BB0598239093BB0508951092BB0575
:104DC00008959091BA05892B8093BA05089580952E
:104DD0009091BA0598239093BA0508951092BA0558
:104DE00008951092B905089580E008956FEF7FEF60
:104DF00090E080E00C94103590E080E00E94DC347C
:104E000021E08A3E9E4F09F020E0822F089582E043
:104E100090E00C94D43483E090E00C94D434CF939D
:104E200084E090E00E94D434C82F82E290E00E9497
:104E3000D434982F8C2FCF910895CF93C92F682FFA
:104E400084E090E00E94F2346C2F82E290E0CF91F7
:104E50000C94F234AB01BC018FE090E00C9404356B
:104E600060E070E0CB010E942A270C94A0036AEE58
:104E70007EEF90E080E00E94103560E082E090E0FC
:104E80000E94F23460E083E090E00E94F2341092DD
:104E9000AD051092AE051092AF051092B00560E01E
:104EA00084E090E00E94F23460E082E290E00E94B0
:104EB000F23460E085E090E00E94F23460E086E049
:104EC00090E00E94F2346FEF87E090E00E94F234AD
:104ED00040E050E0BA0188E090E00E94043560E0D4
:104EE0008DE090E00E94F23440E050E0BA0188E1A9
:104EF00090E00E94043560E087E190E00E94F23487
:104F000040E050E0BA018CE190E00E94043570E08E
:104F100060E080E290E00E94103540E050E0BA018D
:104F200088E190E00E9404350C9430270C943727D8
:104F3000682F8EE090E00C94F234662349F0FC0177
:104F4000329608962191261729F0E817F907D1F72C
:104F500080E0089581E008959C01FC0132969FEF66
:104F600080E04191461751F09F3F19F4411101C073
:104F7000982F8F5F8630A9F79F3F09F40895290F76
:104F8000311D97FD3A95F90162830895FC0132962F
:104F900008962191261303C0DF0111971C92E81790
:104FA000F907B9F708950C94AC270C94C62702961C
:104FB00026E0FC0111922A95E9F7089508950895D5
:104FC0000C94DF2780916808843061F10E94E0270B
:104FD00080E00E94880881E00E9464191092BD055B
:104FE00088E190E020E40FB6F894A89580936000E3
:104FF0000FBE2093600083B7817F846083BF83B737
:10500000816083BF7894889583B78E7F83BF0FB606
:10501000F894A89580916000886180936000109258
:1050200060000FBE08950895CF930E94DE270E946E
:10503000ED0A0E941328C0E08C2F0E94940A81116F
:1050400005C0CF5FC630C1F7CF91089581E0FCCF96
:1050500008950C9428280E94B8210E94B11D0E9436
:10506000880880E00E9464190C9429281F921FB6BA
:105070001F9211248F939F93AF93BF938091BD058F
:10508000811113C08091730790917407A0917507E7
:10509000B09176074196A11DB11D8093730790933F
:1050A0007407A0937507B0937607BF91AF919F9156
:1050B0008F911F901FBE1F90189582E084BD93E0D2
:1050C00095BD9AEF97BD80936E0008952FB7F89421
:1050D0008091730790917407A0917507B09176073E
:1050E0002FBF08952FB7F8946091730770917407DC
:1050F00080917507909176072FBF08959C014FB757
:10510000F8948091730790917407A0917507B091FE
:1051100076074FBF821B930B0895CF92DF92EF92D9
:10512000FF922FB7F894C0907307D0907407E09067
:105130007507F09076072FBFA7019601261B370B46
:10514000480B590BCA01B901FF90EF90DF90CF9047
:10515000089578941F921FB61F9211248F939F93E6
:10516000AF93BF938091730790917407A0917507D7
:10517000B09176070196A11DB11D8093730790939E
:105180007407A0937507B0937607BF91AF919F9175
:105190008F911F901FBE1F90189587E797E79093F8
:1051A00001088093000888E19AE00FB6F894A8956A
:1051B000809360000FBE90936000FFCF90935D04DA
:1051C00080935C040895881F8827881F089591E0C4
:1051D000883F08F490E0892F0895982F907F903BA6
:1051E000E9F040F49039D1F0903AC1F09038B1F044
:1051F00080E00895903D19F020F4903CC9F782E0DA
:105200000895903E59F0903F99F7815F8F3080F775
:10521000E82FF0E0E45BFB4F8081089583E0089580
:105220000F93022F0F77242F2F776F70462F406B2D
:10523000DC01ED91FC9163E070E009950F91089518
:105240000F93022F0F77242F2F776F70462F40690F
:10525000DC01ED91FC9163E070E009950F910895F8
:105260000F93022F0F77242F2F776F70462F4068F0
:10527000DC01ED91FC9163E070E009950F910895D8
:105280000F931F93411520E2520744F49A01305EB8
:105290004115504E2CF430E020E002C02FEF3FE3E8
:1052A0008901000F012F001F110B11952F776F70CF
:1052B000462F406EDC01ED91FC9163E070E00995B2
:1052C0001F910F910895FC01738362830895FC017F
:1052D000758F648F0895CF93DF93EC011DA21FA2F9
:1052E0001EA2BC01685D7F4F40EC88519F4F0E9419
:1052F000762B1B821A821D821C821F821E821986B7
:1053000018861B861A861D861C861F861E86198A8D
:10531000188A1B8A1A8A1D8A1C8A1F8A1E8A198E5D
:10532000188E1B8E1A8E1D8E1C8E1F8E1E8E19A21D
:1053300018A2DF91CF910895EF92FF920F931F93E0
:10534000CF93DF93EA018A01060F111D88519F4F09
:105350007C01C017D10739F4DF91CF911F910F91D4
:10536000FF90EF9008956991C7010E947D2BF1CFC6
:10537000FC01718360830895FC0171A360A308950B
:10538000AF92BF92CF92DF92EF92FF920F931F9353
:10539000CF93DF9300D00F92CDB7DEB77C016B01C6
:1053A000142FB22EA02EDC0195968C919597843007
:1053B000A9F55A96ED91FC913097E9F1CB0101974F
:1053C00063E070E00E94F033CB01880F991F860FD5
:1053D000971F4983BA820B834C2D481B9E012F5F78
:1053E0003F4FBC01C7010995D7015E96ED91FC9135
:1053F000309731F00A2D2B2D412FB601C7010995A9
:105400000F900F900F90DF91CF911F910F91FF9010
:10541000EF90DF90CF90BF90AF900895623071050C
:1054200009F455C06330710599F06130710509F4D4
:1054300081C0D12CC12CD7015C96ED91FC913097A5
:1054400099F20A2D2B2D412FB601C7010995CCCF1A
:10545000842F807F803A11F148F48038D1F0803970
:1054600051F7D7011496ED91FC910AC0803ED9F016
:10547000803FF1F0803BF9F6D7011296ED91FC9157
:105480003097C9F2123FE9F02A2D4B2D612F6F7032
:105490001BC0D7011696ED91FC91F2CFD70118965B
:1054A000ED91FC91EDCFD7011A96ED91FC91E8CFEB
:1054B000423F09F6D7011C96ED91FC91309709F413
:1054C000BACF2A2D4B2D62EFC70109958DCF842FBE
:1054D000807F803DB1F0803FC9F0803C09F0ABCFC8
:1054E000D7011E96ED91FC91309709F4A4CF812F3E
:1054F0008D7F4B2D612F6F70813F89F0C70109951A
:1055000073CFD7015096ED91FC91EECF433F51F40C
:10551000D7015296ED91FC91309709F48CCF4B2D29
:10552000612FECCF413F09F086CFD7015496ED9122
:10553000FC91F2CF842F0E94E728882359F0D701ED
:105540005696ED91FC91309709F475CF612FC70104
:1055500009954ACF163F09F06ECFD7015896ED91C5
:10556000FC91F1CFFF920F931F93CF93DF93EC0148
:10557000162F862F0E94E728882391F0FDA081E056
:105580008DA300E020E0412F61E070E0CE010E9499
:10559000C029FDA2DF91CF911F910F91FF90089537
:1055A000812F0E94E3284DA1882309F443C0443091
:1055B00029F01AA381E090E09FA38EA3812F0E947F
:1055C000ED28813051F08823A9F0823089F08330B2
:1055D00079F01DA21FA21EA2DDCF8DA300E020E066
:1055E000412F61E070E0CE010E94C0291DA2D2CF00
:1055F0008DA3D0CF103FB1F0173F59F72EA13FA197
:10560000C90163E070E00E94F033FE01E80FF91F6A
:1056100012A3B9016F5F7F4F7FA36EA30CA12BA1D3
:105620004AA1E1CF84E08DA31AA381E090E09FA37B
:105630008EA3B0CF442309F4ADCF2EA13FA1C90161
:1056400063E070E00E94F033FE01E80FF91F12A33F
:10565000B9016F5F7F4F7FA36EA38130910569F021
:10566000029709F097CF0CA12BA14AA1CE010E946D
:10567000C0298DA18430C9F68DCF00E0423009F0F9
:1056800089CFF2CFCF92DF92EF92FF920F931F93C9
:10569000CF93DF93EC01E8A1F9A1309709F00995C8
:1056A0006E0188EEC80ED11CC6010E94AC2B10E022
:1056B00000E0E82EF12C0E151F0548F0DF91CF9188
:1056C0001F910F91FF90EF90DF90CF90089560E0D1
:1056D000C6010E94C02B682FCE010E94B22A61E051
:1056E000C6010E94D02B0F5F1F4FE5CFFC01428304
:1056F000748363831182108208951F93CF93DF9385
:10570000EC01162F0E94E72B482F298130E0C901B8
:1057100001966A8170E00E94043458815817190676
:1057200041F4842F0E94EA2B80E0DF91CF911F91FA
:1057300008958B819C81280F391FF901108389817D
:1057400090E001966A8170E00E9404348983842F7E
:105750000E94EA2B81E0E9CFCF93DF93EC010E9416
:10576000E72B99812881921740F0C92FC21B0E9414
:10577000EA2B8C2FDF91CF910895CA819C0FF5CF32
:10578000FC018081860F9927991F628170E00E9439
:10579000043423813481280F391FF9018081089551
:1057A0001F93CF93DF93EC01162F0E94E72B282F36
:1057B0008881810F9927991F6A8170E00E940434C3
:1057C0008883822FDF91CF911F910C94EA2B8FB7A2
:1057D000F89408958FBF0895089508950F931F9327
:1057E000CF93DF9300D000D000D00F92CDB7DEB7BB
:1057F0008C01CE0101960E944C2E81110BC0279680
:105800000FB6F894DEBF0FBECDBFDF91CF911F91D1
:105810000F9108958A810E94ED289A819D839B8132
:105820009E839C819F8381110AC08981843079F095
:10583000873069F0863069F08530D9F681E0AE01B5
:105840004B5F5F4F682FC8010E949C29D2CF83E035
:10585000F6CF82E0F4CFDF92EF92FF920F931F9387
:10586000CF93DF9300D000D0CDB7DEB77B01142FEC
:10587000D22E4A832B830C83842F0E94ED28811122
:1058800029C082E0E816F10401F183E0E816F10492
:1058900039F0EA94EF2869F485E0173F21F404C059
:1058A00087E0073F09F084E08983CE0101960E94DA
:1058B000472E0F900F900F900F90DF91CF911F9177
:1058C0000F91FF90EF90DF90089587EFD812EBCF04
:1058D00086E0EACF12951F701983E7CF0E949B0BD9
:1058E00087E797E00E946B296BE27CE287E797E00D
:1058F0000E94B8296EEE7BE287E797E00E94BC2900
:105900006CEE7BE287E797E00E9467296DEE7BE211
:1059100087E797E00C9463299B0140916808443025
:10592000C1F4FC0191819F709093E90050E040E048
:1059300064E070E0C9010E94102F81110BC09091AA
:10594000E80095FD07C09091E8009E779093E800ED
:10595000089582E0089520916808243091F4FC01B4
:1059600081818F708093E9009091F3008091F20023
:10597000892B49F08091E8008E778093E8000C94A1
:10598000BE3082E0089580E00895FC0180916808AF
:10599000843059F491819F709093E9008091E800E0
:1059A00080FF03C0CF010C94AB2C08959B01409164
:1059B0006808443011F080E00895FC0196819F70E2
:1059C0009093E9008091E80082FFF5CF8091E80094
:1059D00085FFF1CF50E040E064E070E0C9010E9433
:1059E0005F2F8091E80085FD05C08091E8008B77EE
:1059F0008093E80081E008958091C6050895089598
:105A0000CF93DF9300D00F92CDB7DEB790916808A7
:105A1000943019F589837B836A8382E08093E9005F
:105A20008FEF9091E800815095FD06C095ED9A9515
:105A3000F1F700008111F5CF8091E80085FF0DC0DE
:105A400050E040E063E070E0CE0101960E94102F2C
:105A50008091E8008E778093E8000F900F900F9070
:105A6000DF91CF910895BC0184E00C94002DBC011E
:105A700083E00C94002DCF93DF93EC0181E08093C1
:105A8000E9008FEF9091E800815095FD06C095EDFB
:105A90009A95F1F700008111F5CF8091E80085FF1C
:105AA00014C050E040E068E070E0CE010E94102F8A
:105AB0008091E8008E778093E80088E0FE01AEEBED
:105AC000B5E001900D928A95E1F7DF91CF910895AD
:105AD00080916708811109C00E94EF300E944C310B
