:100000000C94DC020C94F9020C94F9020C94F902A1
:100010000C94F9020C94F9020C94F9020C94F90274
:100020000C94F9020C94F9020C94F5280C94B12864
:100030000C94F2290C94F9020C94F9020C94F90234
:100040000C94F9020C94F9020C94F9020C94F90244
:100050000C94F9020C94CE290C94F9020C94F90238
:100060000C94F9020C94F9020C94F9020C94F90224
:100070000C94F9020C94F9020C94F9020C94F90214
:100080000C94F9020C94F9020C94F9020C94F90204
:100090000C94F9020C94F9020C94F9020C94F902F4
:1000A0000C94F9020C94F9020C94F90205010980F0
:1000B000A101850319012AB700150126B700950192
:1000C00075108100C0050C0901A101850419012AE0
:1000D000A002150126A002950175108100C00660DE
:1000E000FF0961A1010962150026FF00952075082E
:1000F00081020963150026FF00952075089102C052
:1001000005010906A101050719E029E715002501E8
:10011000950875018102950175088101050719008F
:1001200029FF150026FF00950675088100050819AE
:10013000012905950575019102950175039101C08D
:1001400000000000000000000000000000000000AF
:10015000000000000000000000000000000000009F
:10016000000000007E0F00D4FFFFFFC700000078F2
:1001700000000000000000002A2B28000000000002
:100180000000000000000000000000290000000046
:100190002C1E3420212224342627252E362D3738B4
:1001A000271E1F202122232425263333362E3738BD
:1001B0001F0405060708090A0B0C0D0E0F1011127B
:1001C000131415161718191A1B1C1D2F3130232D47
:1001D000350405060708090A0B0C0D0E0F10111245
:1001E000131415161718191A1B1C1D2F3130354CF6
:1001F0006368726F6D61746F6E656D696E693A7672
:100200006961204020302E31372E362D38312D6750
:100210003666616566362D6469727479207C203299
:100220003032322D30382D30392D32303A35353AA2
:100230003535000001010101010101010102020245
:100240000202020202020303030303030303040482
:10025000040404040405050505050606060606074C
:100260000707070708080808090909090A0A0A0B05
:100270000B0B0C0C0C0D0D0D0E0E0E0F0F0F1010A6
:10028000111111121213131414151516161717182D
:100290001819191A1A1B1B1C1D1D1E1E1F20202198
:1002A0002222232424252626272829292A2B2C2DDF
:1002B0002D2E2F30313232333435363738393A3B00
:1002C0003C3D3E3F404142434445464748494A4CF5
:1002D0004D4E4F50515354555658595A5B5D5E5FC1
:1002E000616264656668696B6C6D6F707273757757
:1002F000787A7B7D7E8082838587888A8C8E8F91B9
:10030000939596989A9C9EA0A2A3A5A7A9ABADAFE2
:10031000B1B3B5B7BABCBEC0C2C4C6C9CBCDCFD1CC
:10032000D4D6D8DBDDDFE2E4E7E9EBEEF0F3F5F875
:10033000FAFDFFA843B95C805F815FBA5C475C4807
:100340005CB15C495C4A5C4B5C4C5C4D5C4E5C4F08
:100350005CAA00505C515C525C535C545C555C562A
:100360005CA900575C585C595C5A5C5B5C5C5C5DEA
:100370005C00005E5C5F5C605C615C625C635C6452
:100380005C0000655C665C675C685C695C6A5C6B11
:100390005C000001000100905C915C010001000123
:1003A0000001000100010001000100010001000145
:1003B0000001000100010001000100010001000135
:1003C0000001000100010001000100010001000125
:1003D0000000000100010001000100010001000116
:1003E0000000000100010001000100010001000106
:1003F00000000001000100010001000100010001F6
:1004000000010001000100010001000100010001E4
:1004100000010001000100010001000100010001D4
:1004200000010001000100010001000100010001C4
:1004300000000001000100010001000100010001B5
:1004400000000001000100010001000100010001A5
:1004500000000001009C5C815C825C9D5C855F8388
:100460005F00000252845F000000000000000000F6
:1004700000C45C00000000C85C0000C75C0000C64F
:100480005CC35C0000C55C0000CC5C0000CB5C0081
:10049000000000CA5C0000C95C0000C45C0000C32E
:1004A0005C00000000DE5C865F825F0000C25C00D2
:1004B0000000000902BF00050100A0FA09040000C5
:1004C000010301010009211101000122400007057B
:1004D0008103080001090401000203000000092152
:1004E00011010001222200070582032000010705F7
:1004F0000303200001090402000103000000092198
:100500001101000122320007058403200001080BBD
:1005100003020101000009040300000101000009B9
:100520002401000109000104090404000201030080
:1005300000072401000141000624020101000624F5
:10054000020202000924030103010201000924033D
:100550000204010101000905060240000500000532
:10056000250101010905850240000500000525015E
:1005700001031201000200000008EDFEB4F40100C6
:10058000010200011E036300680072006F006D002D
:10059000610074006F006E0065006D0069006E0000
:1005A000690000000E033300610072006100680002
:1005B000740000000403090411241FBECFEFDAE029
:1005C000DEBFCDBF27E0A0E3B4E001C01D92A83E8E
:1005D000B207E1F714E0A0E0B1E0E8E8F4E602C019
:1005E00005900D92A033B107D9F70E94192A0C94F7
:1005F000E8310C9400000F931F939B01305E89013A
:10060000000F012F001F110B11952F77482F406EFF
:10061000E091F806F091F90663E070E088EF96E06B
:1006200009951F910F9108950F93262F042F0F778F
:10063000482F406BE091F806F091F90663E070E016
:1006400088EF96E009950F910895A3E0B0E0EBE202
:10065000F3E00C9494307C01162FD42EC22E80919E
:100660001D07843071F5E0911207F0911307309760
:10067000C1F1C701019763E070E00E945530CB01E2
:10068000880F991F860F971F19834A83CB824E2D9F
:10069000481B9E012F5F3F4FBC0188EF96E00995F4
:1006A000E0911607F0911707309739F00C2D2D2D9A
:1006B000412FB70188EF96E009952396E8E00C9466
:1006C000B03082E0E816F10409F45AC083E0E8167D
:1006D000F104A9F081E0E816F10409F484C0F12CDA
:1006E000E12CE0911407F09115073097C9F20C2D19
:1006F0002D2D412FB70188EF96E00995D1CF862F98
:10070000807F803A11F188F48038D1F0E091FC06C6
:10071000F091FD06803929F7309719F3123F49F11E
:100720002C2D4D2D612F6F7027C0803E99F0803F9A
:10073000B1F0E091FA06F091FB06803B91F6ECCF28
:10074000E091FE06F091FF06E7CFE0910007F091FF
:100750000107E2CFE0910207F0910307DDCF623F8E
:1007600009F0BFCFE0910407F0910507309709F435
:10077000B8CF2C2D4D2D62EF88EF96E0099590CFE4
:10078000862F807F803DB9F0803FD1F0E091060751
:10079000F0910707803C09F0A4CF309709F4A1CF6E
:1007A000812F8D7F4D2D612F6F70813FC9F088EFB4
:1007B00096E0099575CFE0910807F0910907EDCF14
:1007C000E0910A07F0910B07633F39F0613F09F0B0
:1007D00088CFE0910C07F0910D07309709F481CF95
:1007E0004D2D612FE4CFE0910E07F0910F07683F88
:1007F00038F4663F09F075CFE0911007F0911107CA
:10080000309709F46ECF612F88EF96E0099548CFB5
:10081000E8EDF0E080818E7F80831092E2001092FC
:10082000DA001092E100A0EEB0E08C9181608C9330
:1008300080818F77808319BCA7EDB0E08C918E7F8B
:100840008C9380818F7E80831092A30608952091DF
:10085000E4003091E50095E6A9012091EC00822F9B
:10086000817020FF06C08091E80080FF06C080E014
:1008700008952091E80022FD1AC08091B0068823D7
:1008800089F0853089F08091EB0085FD0FC02091C3
:10089000E4003091E50042175307F9F29150E1F678
:1008A00084E0089582E0089583E0089581E008954A
:1008B000EF92FF920F931F93CF937C018B010E94C5
:1008C0002704C82F811117C08091E80085FD0BC057
:1008D0008091E8008E778093E8000E9427048823A7
:1008E00099F3C82F08C0F70181917F018093F1002F
:1008F0000150110949F78C2FCF911F910F91FF9053
:10090000EF900895EF92FF920F931F93CF937C0186
:100910008B010E942704C82F811117C08091E80025
:1009200085FD0BC08091E8008B778093E8000E94E2
:100930002704882399F3C82F08C08091F100F7019C
:1009400081937F010150110949F78C2FCF911F919D
:100950000F91FF90EF9008958091B20687FF13C02A
:100960008091E80082FF06C08091E8008B77809339
:10097000E80004C08091B0068111F2CF0895809103
:10098000B0068823D9F38091E80080FFF8CF8091EA
:10099000E8008E77ECCF982F9093E900242F762FE4
:1009A00050E0891731F07091EC002091ED005091EA
:1009B000F00021FD07C09F5F973071F78093E90039
:1009C00081E008953091EB003E7F3093EB00309151
:1009D000ED003D7F3093ED003091EB0031603093BE
:1009E000EB007093EC002093ED005093F000209109
:1009F000EE0027FDE0CF80E00895B0E0A0E0E3E066
:100A0000F5E00C949430C8EDD0E088818F7E888327
:100A1000E7EDF0E080818160808384E082BF81E047
:100A20008093A30688818E7F888302EE10E0F80110
:100A300010821092DA0081EEC82ED12CF6011082BD
:100A400088818F77888388818068888388818F7D7B
:100A5000888319BC1092B0061092B1061092AF06AE
:100A60001092AE0690EEE92EF12CF70180818B7F7B
:100A7000808388818160888342E060E080E00E941A
:100A8000CB04F60180818E7F8083F80180818160B4
:100A90008083808188608083F70180818E7F80835E
:100AA000888180618883CDB7DEB7E8E00C94B030F0
:100AB000FC018091B8069091B90686179707A0F0BF
:100AC0006115710529F49091E8009E779093E800F4
:100AD00090E06115710551F4911108C08091E80012
:100AE00082FF34C080E00895BC01F2CF8091B0064F
:100AF0008823C1F18530C1F18091E80083FD30C0C9
:100B00008091E80082FDEACF8091E80080FFE1CF8C
:100B10008091F3002091F200382F6115710519F0D2
:100B20002830310558F091E02830310509F090E087
:100B30002091E8002E772093E800CBCF819180931D
:100B4000F100615071092F5F3F4FE7CF8091B006F0
:100B5000882341F0853041F08091E80083FFBECFCB
:100B600081E0089582E0089583E00895089508954E
:100B70008091A506089508950895982F907F903B41
:100B8000E9F040F49039D1F0903AC1F09038B1F0EA
:100B900080E00895903D19F020F4903CC9F782E080
:100BA0000895903E59F0903F99F7815F8F3080F71C
:100BB000E82FF0E0EA57FD4F8081089583E0089523
:100BC000A7E0B0E0E6EEF5E00C9497308C01085118
:100BD0001F4F8091B006843009F06CC080911B01DA
:100BE0008F708093E9008091E80082FF63C080915C
:100BF000E80085FF5FC050E040E064E070E0CE01B7
:100C000001960E9482048091E80085FD05C08091D4
:100C1000E8008B778093E800FA808F2D0E94BD0555
:100C2000282FFD828B818E838C818F8321110AC0B6
:100C30008981843039F1873029F1863029F121E02A
:100C4000853039F630E0E5E0F0E0EC0FFD1FE30F12
:100C5000F11DF0804FB7F894D8011196EC911197DF
:100C6000F0E0CF01019612966C9170E00E9469301D
:100C7000D8015C915817190649F44FBF3F5F3217EE
:100C800010F3A7CF23E0DECF22E0DCCF13968D91C7
:100C90009C911497E80FF91FF08211968C9111978F
:100CA00090E0019612966C9170E00E946930F80114
:100CB0008183E3CF2796E5E00C94B330A4E0B0E065
:100CC000E4E6F6E00C9495307B01142FD22E4A8393
:100CD0002B830C83842F0E94BD0581113AC082E0D2
:100CE000E816F10489F183E0E816F10441F081E0AF
:100CF000E816F10429F5173F29F485E004C087E0E0
:100D0000073F09F084E089838091B0068430C1F404
:100D1000809116018F708093E90050E040E064E01C
:100D200070E0CE0101960E945804811109C08091A3
:100D3000E80085FD05C08091E8008E778093E8008B
:100D40002496E7E00C94B13087EFD812DBCF86E031
:100D5000DACF12951F701983D7CF87E797E7909363
:100D600001088093000888E19AE00FB6F894A895EE
:100D7000809360000FBE90936000FFCF9C014FB73F
:100D8000F89480919C0690919D06A0919E06B0914A
:100D90009F064FBF821B930B08952FB7F894609165
:100DA0009C0670919D0680919E0690919F062FBF94
:100DB00008952FB7F89480919C0690919D06A0917C
:100DC0009E06B0919F062FBF08959C01FC013296AC
:100DD0009FEF80E04191461751F09F3F19F4411178
:100DE00001C0982F8F5F8630A9F79F3F09F40895BF
:100DF000290F311D97FD3A95F901628308952091DD
:100E0000990630919A062817390771F090939A063F
:100E100080939906E0919706F0919806309721F01B
:100E20000084F185E02D0995089520919506309173
:100E300096062817390771F09093960680939506C9
:100E4000E0919706F0919806309721F00680F7819F
:100E5000E02D09950895E0919706F0919806309756
:100E600029F00190F081E02D0995089580E0089522
:100E7000FA01811101C0FB0109950895E9E3F5E04C
:100E8000818360834283339696E0E539F907C1F7A1
:100E90000895FC01EE0FFF1FE80FF91FE75CFA4F02
:100EA0006183408322830895EEEBF6E0248130E1F4
:100EB000231B08F420E0248380913805816080930F
:100EC00038050895EEEBF6E0248130E1230F08F4B5
:100ED0002FEF248380913805816080933805089531
:100EE0009091BE06937071F08093BF066093C00628
:100EF000433308F042E34093C10680913805822BCA
:100F0000809338050895EEEBF6E0438120E1421B23
:100F100008F440E0818121E0628190E00E94700746
:100F20000895EEEBF6E0438120E1420F08F44FEF25
:100F3000818121E0628190E00E9470070895EEEBCC
:100F4000F6E0628120E1621B08F460E0818121E02B
:100F5000438190E00E9470070895EEEBF6E0628115
:100F600020E1620F08F46FEF818121E0438190E07E
:100F70000E9470070895EEEBF6E0818121E0438145
:100F800062818850990B0E9470070895EEEBF6E09D
:100F9000818190E021E04381628108960E94700780
:100FA00008959091BE06937061F081110BC094601A
:100FB0009093BE061092140180913805862B809381
:100FC000380508958A3210F0946AF2CF880F880F9E
:100FD000982BEECF8091BE0686958695815009F4B8
:100FE00089E261E00E94D10708958091BE0686954E
:100FF00086958F5F8A3208F081E061E00E94D10718
:1010000008958091BE06837011F4109214018091AE
:10101000BE068C7F81608093BE060895EF92FF929A
:101020000F931F930E0D1F2D111D9A0157FF03C023
:1010300031952195310994E0220F331F9A95E1F7FC
:101040002F3F310519F014F02FEF30E0200F311F42
:101050002F3F310519F010F02FEF30E02095382F99
:10106000320F08F43FEF832F1F910F91FF90EF9005
:101070000895EF92FF920F939701201B31092F3FA4
:10108000310519F010F02FEF30E02095382F320F96
:1010900008F43FEF832F0F91FF90EF900895EF92A8
:1010A000FF920F939701201B31092F3F310519F053
:1010B00010F02FEF30E0322F3095482F430F08F417
:1010C0004FEF842F620F0F91FF90EF900895EF92F2
:1010D000FF920F93972F093438F4B701601B710901
:1010E0006F3F710519F010F06FEF70E0485F5F4FD0
:1010F0004131510540F0A901485F5F4F4131510531
:1011000010F06FEF70E06095482F460F08F44FEF36
:10111000842F37FF02C02D5F3F4F359527953595BA
:1011200027956091BF06620F792F0F91FF90EF9086
:101130000895EF92FF920F931F930E0D1F2D111D17
:10114000F90137FF03C0F195E195F10924E0EE0FB5
:10115000FF1F2A95E1F7EF3FF10519F014F0EFEFCB
:10116000F0E09A0157FF03C031952195310994E0D1
:10117000220F331F9A95E1F72E173F070CF4F90160
:10118000E00FF11FEF3FF10519F010F0EFEFF0E085
:10119000E095282F3E2F230F08F42FEF822F1F9169
:1011A0000F91FF90EF900895EF92FF920F939701A8
:1011B00095E0099F200D311D11242F3F310519F0B5
:1011C00010F02FEF30E02095382F320F08F43FEF6A
:1011D000832F0F91FF90EF90089522E8241B08F4CD
:1011E00020E0620F08954095282F429F412D112441
:1011F000842F0895E42FF0E0EE0FFF1FEC52FD4F17
:101200009081921B97FD9195292F38E1239F212DE5
:101210001124620F08950F931F9310E0F801EE0F51
:10122000FF1FEC52FD4F90819C5797FD9195000F49
:10123000111FF801EC55FD4F01A90052110B2003BD
:10124000F001219FF00D112408E310E0091B1109A2
:1012500097FD139540039001419F300D1124E20F3B
:10126000F31F9F01220F331F2E0F3F1F37FF02C0B6
:1012700021583F4F220F232F221F330B620F1F9144
:101280000F9108950F931F93522F10E0F801EE0F66
:10129000FF1FEC55FD4FA1A9A052BB0B9D015203AE
:1012A000F001539FF00D1124000F111FD801AC5213
:1012B000BD4F0C910C57110B40039001419F300D15
:1012C00011242E0F3F1F37FF02C0215C3F4F96E0D5
:1012D000359527959A95E1F7620F1F910F91089523
:1012E0000F931F93522F10E0F801EE0FFF1FEC55E4
:1012F000FD4FA1A9A052BB0B9D015203F001539FCA
:10130000F00D1124000F111FD801AC52BD4F0C91EC
:101310000C57110B40039001419F300D11242E0FEB
:101320003F1F37FF02C021583F4F220F232F221F9C
:10133000330B620F1F910F910895EF920F93972F28
:1013400023E0029FB0011124759567956E0D792FEA
:101350000F91EF900895322F50E0FA01EE0FFF1F2A
:10136000EC55FD4F91A9905297FD9195440F551F53
:10137000FA01EC52FD4F2081231B330B290F311D45
:1013800097FD3A95620F0895E42FF0E0EE0FFF1FEE
:10139000EC55FD4F61A9621B0895E42FF0E0EE0FBC
:1013A000FF1FEC52FD4F6081621B0895622F08956C
:1013B000E42FF0E0EE0FFF1FEC52FD4F408134EEC2
:1013C000439F412D1124E82FF0E050E0445E5F4F31
:1013D000DA01A21BB1099D01B7FF03C03195219528
:1013E000310993E0220F331F9A95E1F7AF01421BB9
:1013F000530B9A0157FD20E0582F259F212D1124D2
:10140000822F0895E42FF0E0EE0FFF1FEC52FD4F06
:10141000408134EE439F412D1124E72FF0E050E04E
:10142000445E5F4FDA01A21BB1099D01B7FF03C003
:1014300031952195310993E0220F331F9A95E1F7F9
:10144000AF01421B530B9A0157FD20E0279F212D2E
:101450001124722F08950E943E0708950E944907A3
:101460000895FC019B01009729F480E077FF2BC0D1
:1014700080E80895AC0197FF04C044275527481B16
:10148000590BB901640F751F37FD10C0241B350BB4
:10149000C901A5E0880F991FAA95E1F70E9469305C
:1014A00080E2861BF7FF0FC081950895CB0165E0B0
:1014B000880F991F6A95E1F7BA01621B730B0E94AE
:1014C000693080E6EECF0895EF920F93CF93DF93CC
:1014D000D72FC82FC9010E19BA010E94310A602FF7
:1014E000681B7D2F8C2FDF91CF910F91EF90089586
:1014F0000F93CF93DF93D72FC82FC901BA010E9452
:10150000310A682F600F7D2F8C2FDF91CF910F91C3
:101510000895EF920F931F93CF93DF93D62FC72F8A
:10152000182FC9010E19010FBA010E94310A081BB8
:10153000202F219F212D1124822F6D2F7C2FDF91B1
:10154000CF911F910F91EF900895EF920F931F93FA
:10155000CF93DF93D62F172FC82FC9010E19070F6E
:10156000BA010E94310A702F781B719F712D1124CE
:101570006D2F8C2FDF91CF911F910F91EF900895D8
:101580000F931F93CF93DF93D62FC72F182FC90127
:10159000212F201B022FBA010E94310A982F990F88
:1015A000990F891B800F282F219F212D1124822F15
:1015B0006D2F7C2FDF91CF911F910F9108950F9385
:1015C0001F93CF93DF93D62F172FC82FC901272F33
:1015D000201B022FBA010E94310A982F990F990FF0
:1015E000782F791B700F719F712D11246D2F8C2F07
:1015F000DF91CF911F910F910895E82F86FDE0951F
:101600002E2F2F7086FD2F5FE695E695E695E67006
:10161000F0E0E15FFD4F9181929F902D212D1124EB
:1016200092959F702295207F922B2081920F87FDAB
:10163000919580E8890F08950F931F93CF93DF93BF
:101640008B01D82FC42F822F0E94FD0AEC2FF0E0CF
:10165000EE0FFF1FEC52FD4F90819058890F87FDD0
:101660008195880F682F2CE0629F612D1124600FF7
:10167000712F8D2FDF91CF911F910F910895AC01A4
:101680008230910508F408959FEF413E8EE158079E
:1016900040F49A0195E0369527959A95E1F798E000
:1016A000920F61E0E62FE90FFF27FF1F9F0135959D
:1016B0002795822F229FF001239FF00DF00D11241A
:1016C0004E175F0738F49FEF920F961758F78FEF7A
:1016D000860F08952F3FE9F361E0620FF6CF0F9375
:1016E000CF93DF93D72FC82F47FD41958EE390E02E
:1016F000841B910947FD9395889FB001899F700DC8
:10170000700D1124229FC001239F900D900D112474
:10171000860F971F0E943F0B982F990F890F682FF4
:10172000600F7D2F8C2FDF91CF910F91089530E0C6
:1017300020E0869F212D969F200D311D1124C90187
:101740000895AF92BF92CF92DF92FF920F931F93B3
:10175000CF93DF93362F472FE82FF0E0ED5CFD4F5E
:1017600071110FC0E4918E2F2E2F6E2F722FDF91EB
:10177000CF911F910F91FF90DF90CF90BF90AF90CE
:101780000895C72FD0E02491F22E022F10E056E0EA
:10179000659FC0011124EFEFF0E0BF010E945530BA
:1017A000832F90E0880F991F35E5369FD001379F32
:1017B000B00D11248A1B9B0B982F990F980F6F0166
:1017C000CC1ADD0AC09ED001C19EB00DD09EB00DD6
:1017D00011248B2F499FA0011124452F55276F01FC
:1017E000C41AD50AC09EA001C19E500DD09E500DB6
:1017F00011245F01A91AB108AC9E6001AD9ED00C06
:10180000BC9ED00C1124CD2CDD24EC19FD09E09FE9
:10181000E001E19FD00DF09FD00D1124ED2F62303B
:101820007105A1F050F46115710509F49ECF613086
:10183000710581F0EB2F852F98CF6430710569F029
:1018400080F06630710509F490CFF4CFE22F2B2F92
:101850008D2F8BCFE22F252F88CFEB2F822F2D2F8F
:1018600084CF2B2F8F2DE52F80CF2F923F925F9229
:101870006F927F928F929F92AF92BF92CF92DF92A0
:10188000EF92FF920F931F93CF93DF93CDB7DEB705
:101890002A970FB6F894DEBF0FBECDBF8B837E8331
:1018A0006D832091220188E1289F802D11248F8350
:1018B000885E89838A83853710F034E73A83809184
:1018C000C4068C83FF81EF2FF0E0FA87E987CF0110
:1018D000880F991F9C012C553D4F69013B81832F37
:1018E00090E0FC013196F887EF838A8199859817FB
:1018F000E8F081E0E981E43708F080E02A960FB64D
:10190000F894DEBF0FBECDBFDF91CF911F910F9135
:10191000FF90EF90DF90CF90BF90AF909F908F900F
:101920007F906F905F903F902F900895E985FA85A2
:10193000E454FC4F8081909123018923F1F02090A1
:10194000BF063090C0062F8138852C53394F39019E
:101950005B8010E0FC815F16D0F02091C106129FE1
:10196000112D1124B101812F0E94A10B462F282F88
:10197000672F89859A850E942E0A29853A852F5FCF
:101980003F4F3A87298732E0C30ED11CAECFF30117
:1019900081913F01F601A0A8A81ABB0881A8F30114
:1019A0008185881A9908AA9C9001AB9C300D300D56
:1019B0001124889CC001899C900D900D1124820FE8
:1019C000931F0E943F0B082F6091C20621E0620F17
:1019D00008F46FEFF301EE0FFF1FE45CF640838D18
:1019E000948D0E94970B7C019401A501B101812F78
:1019F000ED81FE8109951B015394182FABCFB0E008
:101A0000A0E0E5E0FDE00C9494308C01C09122014F
:101A100088E1C89FC02D112428E1D22EDC0ECD2CE8
:101A200024E72D1510F494E7C92E2091C20631E069
:101A3000230F08F42FEF30E050E040E06FEF7FEF2E
:101A400080E090E00E9485317901D0E02C2FCC1508
:101A500050F081E0F3E7FD1508F480E0CDB7DEB784
:101A6000E8E00C94B030FE01E454FC4F808190918A
:101A70002301892311F14091C4064150042E000C2A
:101A8000550B47FF1CC0C7016091C20621E0620FE1
:101A900008F46FEF0E94970BAC016091BF06709144
:101AA000C0068091C106F80109950E94A10B462F3E
:101AB000282F672FCE010E942E0A2196C7CFFA0148
:101AC000EC53F94F858982130AC0FA01EE0FFF1F0C
:101AD000EC53F94F878D90A18E159F05A8F24150C8
:101AE0005109CFCFB0E0A0E0E8E7FDE00C949530DD
:101AF0007C01C091220188E1C89FC02D112418E10A
:101B00001C0F012F153708F004E76091C206669597
:101B1000669521E0620F08F46FEF8091BA0690910C
:101B2000BB060E94970BD82ED0E0C01748F081E08A
:101B3000143708F080E0CDB7DEB7E7E00C94B130A1
:101B4000FE01E454FC4F808190912301892391F0A0
:101B50006091BF067091C0068091C1062D2D4C2F5B
:101B6000F70109950E94A10B462F282F672FCE0160
:101B70000E942E0A2196D9CFB0E0A0E0E2ECFDE071
:101B80000C9491306C01C091220188E1C89FC02D56
:101B9000112418E11C0FB12E153710F034E7B32EC5
:101BA0006091C206669566958091BA069091BB06D3
:101BB0000E94970BF82E80E48F0D0E94FD0A90E89A
:101BC000A92EA80E8F2D0E94FD0A20E8922E980EB5
:101BD000D0E0CB1548F081E0143708F080E0CDB7B5
:101BE000DEB7EBE00C94AD30FE01E454FC4F808195
:101BF000909123018923A1F06091BF067091C006E6
:101C00008091C106EF2C0C2F292D4A2DF601099544
:101C10000E94A10B462F282F672FCE010E942E0A6B
:101C20002196D7CFB0E0A0E0E8E1FEE00C948D3043
:101C30003C01C091220188E1C89FC02D112418E108
:101C40001C0FF12E153710F034E7F32E6091C20609
:101C500066958091BA069091BB060E94970B582E0C
:101C6000D0E0CE01880F991F9C012C553D4F690192
:101C7000CF1548F081E0143708F080E0CDB7DEB72B
:101C8000EFE00C94A930FE01E454FC4F8081909168
:101C90002301892379F1F60180A9282F2C57330BD2
:101CA000590181A9E82FE052FF0B4F01AA9C900136
:101CB000AB9C300D300D1124EE9FC001EF9F900DB5
:101CC000900D1124820F931F0E943F0B082F6091EB
:101CD000BF067091C0068091C106E52C9401A50154
:101CE000F30109950E94A10B462F282F672FCE01E3
:101CF0000E942E0AF2E0CF0ED11C2196B9CFB0E09F
:101D0000A0E0E5E8FEE00C9492306C01C091220165
:101D100088E1C89FC02D112418E11C0FB12E153782
:101D200010F034E7B32E6091C20666958091BA0632
:101D30009091BB060E94970BA82ED0E0CE01880F91
:101D4000991F9C012C553D4F7901CB1548F081E03E
:101D5000143708F080E0CDB7DEB7EAE00C94AE307F
:101D6000FE01E454FC4F8081909123018923C1F04E
:101D7000F70121A92052330B40A94C57550B609114
:101D8000BF067091C0068091C1060A2DF601099523
:101D90000E94A10B462F282F672FCE010E942E0AEA
:101DA000F2E0EF0EF11C2196D0CF84E08093FC048A
:101DB0008FE78093FD048091FE0480788064809397
:101DC000FE04E4EBF4E08FEF819394E0EC3FF9073D
:101DD000D9F71092B3041092B2041092B104109289
:101DE000B004089580E00895F894E82FE295EF702C
:101DF000F0E031A1282F2F7081E090E001C0880F22
:101E00002A95EAF7982F9095932391A392A1892B75
:101E100082A37894089590919B0492FF06C0282F86
:101E200028712830F9F4877F846093FF06C0282F3B
:101E300028712831F1F4877E846120919C0420FF71
:101E400006C0382F38713830D9F4877F816021FF80
:101E500006C0282F28712831D1F4877E816194FD36
:101E6000877E0895282F24712430F9F68B7F8860AF
:101E7000DCCF282F2471243101F78B7E8861DDCFE0
:101E8000382F3171313019F78E7F8860E0CF282FDD
:101E90002171213121F78E7E8861E1CFCF93DF93CD
:101EA000EC018238910581F1B0F58133910509F497
:101EB00091C020F58932910509F485C08A9709F40B
:101EC00090C0C11521E5D20708F0AAC0C11530E5C0
:101ED000D30708F0F2C0CF3BD10508F089C0C83A5B
:101EE000D10508F0DFC0C53AD10508F0D3C0C43031
:101EF000D105F8F4C130D105E1F040C0853391053A
:101F000009F45AC0C997E9F680919B04837089F05F
:101F1000C0EED0E00EC0833E910599F170F4803E92
:101F2000910501F1823E910561F680919B0482FD4D
:101F300021C0CE01DF91CF910895863E910561F1D8
:101F4000873E910571F1843E910509F0BACF8091E9
:101F50009C0481FFEECF80919B04C7EED0E084FD0E
:101F60000DC0E7CF80919B0480FDF7C090919C0449
:101F700090FFDFCFC3EED0E084FFDBCFD0E0C0E046
:101F8000D8CF80919B0482FDEBC090919C0490FD82
:101F9000BFCF84FFCECFF2CF80919B0483FDDDCFF6
:101FA000C8CF80919B0483FDDEC090919C0491FF7B
:101FB000F0CFC4EED0E0BDCF80919B0485FFB9CFB8
:101FC000C9E2D0E0B6CF80919B0485FFB2CFC5E3D4
:101FD000D0E0AFCF80919B0486FFABCFCAE2D0E0C8
:101FE000A8CF80919B0486FFA4CFC1E3D0E0A1CF0E
:101FF000C11540E2D40760F4C11581E0D80708F0AC
:1020000098CFCE01805E9109089708F492CFB6CFA1
:10201000C11590E4D90708F4B1CFDF70D06A89CF39
:10202000C11524E5D20778F4C11533E5D30708F0CC
:1020300072C0C11542E5D40708F05CC0DC2FCC2784
:10204000C16FD06A76CFC1158AE5D80778F4C1157B
:1020500099E5D90708F073C0C11528E5D20708F43F
:102060008DCFDC2FCC27C06FD06A63CFCE019056C6
:102070008115904208F082CF8D2F8F710E940B0F37
:1020800090E0982F882788279F719C012C2BE901CD
:10209000D0624FCFC55AD0E0C854DE4FC881D0E0DF
:1020A000D06447CFC85AD0E0CC0FDD1FC554DE4FF7
:1020B0000990D881C02DD4643CCFCE0164E09695C0
:1020C00087956A95E1F783702C2F269526952370C6
:1020D00040E2249F90011124382B8C2F8370C1E0A3
:1020E000D0E002C0CC0FDD1F8A95E2F7C22BD32BC4
:1020F000DC681FCFCE018370992721E030E002C059
:10210000220F331F8A95E2F7C695C69580E2C89FD5
:10211000E0011124EBCFCE018370992721E030E05C
:1021200002C0220F331F8A95E2F7C695C69590E24A
:10213000C99FE0011124C22BD32BDA68FACE8C2F71
:102140008F700E940B0F34E0D695C7953A95E1F752
:10215000CF709C2FEC01D069ECCEC9E3D0E0E9CE82
:10216000C2EED0E0E6CEC6EED0E0E3CE80918604AB
:1021700090915504981301C008958F5F8770FACF2E
:10218000963080F5883070F548E0949F90011124D6
:10219000820F932F911D682F677023E09695879586
:1021A0002A95E1F7FC01EE0FFF1FE80FF91FE35C32
:1021B000FB4F50E040E080E0219130E0062E02C06D
:1021C000369527950A94E2F721703327042E01C033
:1021D000220F0A94EAF7822B4F5F5F4F433051057D
:1021E00059F7089580E00895963098F5883088F57D
:1021F00048E0949F90011124820F932F911D282F66
:10220000277041E001C0440F2A95EAF723E0969534
:1022100087952A95E1F7FC01EE0FFF1FE80FF91FE4
:10222000E35CFB4F90E080E070E05191DF0111979B
:102230009B01082E02C0369527950A94E2F721707B
:1022400021952527242325272C930196833091055A
:1022500061F70895B0E0A0E0E0E3F1E10C9495307F
:10226000082FF62EE42E809105018823E9F0809155
:102270003A0419E0811101C01CE0D0E0C0E08CE01C
:10228000D82E80913A04FE01D89EE00DF11D112454
:10229000E85DFE4F80812E2D4F2D602F90E00E9433
:1022A0002E0A2196C11768F3CDB7DEB7E7E00C948C
:1022B000B1308093A0067093A2066093A10680912E
:1022C000B0068430F9F48093E9008FEF9091E80034
:1022D000815095FD06C095ED9A95F1F700008111AA
:1022E000F5CF8091E80085FF0DC050E040E063E04D
:1022F00070E080EA96E00E9458048091E8008E77B2
:102300008093E8000895BC0184E00E94591108956B
:10231000BC0183E00E9459110895CF93DF93EC0133
:1023200081E08093E9008FEF9091E800815095FD66
:1023300006C095ED9A95F1F700008111F5CF8091D7
:10234000E80085FF14C050E040E068E070E0CE0196
:102350000E9458048091E8008E778093E80088E01E
:10236000FE01A6EAB6E001900D928A95E1F7DF91B1
:10237000CF910895539A3BB1377F2BB128604FB767
:10238000F89489E395E0FC015191CF0168E02BB905
:10239000000000C057FF3BB9550F000000C000C04F
:1023A00000C03BB900C06A9591F7F6E085399F07F8
:1023B00051F74FBF8FE594E00197F1F700C000009F
:1023C0000895CF93DF93C7EAD1E060E0CE010E9489
:1023D00061312196C11584E0D807B9F7DF91CF911B
:1023E00008951F93CF93DF93122F8430E0F466306B
:1023F000D0F44830C0F490E1699FE001112450E02E
:10240000440F551FC40FD51F90E6899FC00DD11DE5
:102410001124632FCE0187960E946131612FCE0176
:1024200088960E946131DF91CF911F910895AF92FC
:10243000BF92CF92DF92EF92FF921F93CF93DF93E1
:1024400083E3C82E83E0D82ED0E07601C0E014C02C
:10245000F50125913491412F6C2F8D2F0E94F111A0
:1024600082E0A80EB11C1F5F183091F780E1E80EE2
:10247000F11CCF5FC63019F0570110E0E9CFDF5FE4
:1024800080E6C80ED11CD43001F7DF91CF911F91A7
:10249000FF90EF90DF90CF90BF90AF900895CF93D3
:1024A000C82F6FEF811162E283E290E00E946131F8
:1024B0006FEFC11168E084E290E00E9461316FEF3C
:1024C000C11169E085E290E00E946131CF910895E9
:1024D00080E00E944F1260E086E290E00E9461314D
:1024E0000E9417120E94E11181E00E944F1208958C
:1024F0000F931F93CF93DF93843030F5663020F530
:10250000483010F520E1629F8001112450E0440F13
:10251000551F040F151F30E6839F000D111D112458
:10252000C80187960E944331C82FD0E0DC2FCC270A
:10253000C80188960E9443319E01282BC901DF9172
:10254000CF911F910F91089590E080E0F8CF462F32
:10255000843040F4763030F4683020F4672F0E94E5
:102560007812089590E080E00895CF92DF92FF9274
:102570000F931F93CF93DF936C010091F706809127
:102580009104082BC7E0D0E010E0FC2EC8010C2E0F
:1025900002C0959587950A94E2F780FD0CC02197BB
:1025A000A0F7F12C8F2DDF91CF911F910F91FF900C
:1025B000DF90CF900895B6018C2F0E94A7120E9441
:1025C0004E0F019761F3EECFCF93DF93EC010E94A2
:1025D000B512BE010E94A7120E944E0FDF91CF914B
:1025E0000895FC01808191810E94E41292959F7070
:1025F000963091F058F4925F9F70923058F4803F7B
:1026000019F030F4883E30F481E008959A5FF4CFF9
:10261000843FD1F380E00895883EB0F3813FD1F745
:10262000F3CF83E290E00E944331823289F484E266
:1026300090E00E944331883059F485E290E00E9496
:10264000433191E0893009F090E0892F817008953D
:1026500080E0FCCFCF9384E090E00E944331C82F0C
:1026600082E290E00E944331982F8C2FCF91089501
:102670001F93CF93DF93EC01FC01E454FC4F808166
:102680006823B1F00E940D31182F0E940D318F7711
:10269000782F20E8720F08F47FEF612F8091C10638
:1026A0000E94A10B462F282F672FCE010E942E0AD1
:1026B000DF91CF911F910895B0E0A0E0E2E6F3E151
:1026C0000C9495308C01FC01E454FC4F808168230C
:1026D00049F1D090C006D091C106C091BF06EC2E42
:1026E000F12C0E940D31282FC7018C549F4F68E6B2
:1026F00071E00E9469308E199F0997FD03969595A8
:1027000087959595879523706C2F289F600D1124D0
:102710007D2D8D2F0E94A10B462F282F672FC801DA
:102720000E942E0ACDB7DEB7E7E00C94B130B0E0DE
:10273000A0E0EDE9F3E10C948F30182F80911301A4
:10274000811323C09091BE0693702091120130E056
:1027500081E09217130609F480E0817080932401D0
:102760008091C30690912301981739F0809323013B
:1027700040E060E080E00E942B0A1A3260F4E12F12
:10278000F0E0E651FE4C0C947D3081E0E6CF809184
:102790002401811102C0C0E059C140E060E080E046
:1027A0000E942B0AF8CFC091220188E1C89FC02D5A
:1027B000112408E10C0FF02E053710F094E7F92EE4
:1027C0006091BF067091C0068091C1060E94A10B66
:1027D000E62ED72EC82ED0E0CF1528F0C1E0043762
:1027E00008F434C1D8CFFE01E454FC4F80819091AD
:1027F0002301892331F02C2D4E2D6D2DCE010E9409
:102800002E0A2196E9CFC091220188E1C89FC02DF0
:10281000112408E10C0FE02E053710F084E7E82EB4
:10282000D090C006C090C1062091C206D0E4FD2E13
:102830003F2D329F312D1124F32ED0E0CE1570F6AE
:10284000FE01E454FC4F8081909123018923B9F06B
:10285000FE01EE0FFF1FEC55FD4F81A982958F7091
:102860006091BF068F9D600D11247D2D8C2D0E94DF
:10287000A10B462F282F672FCE010E942E0A2196EA
:10288000DDCFC091220188E1C89FC02D112408E14D
:102890000C0FE02E053710F0A4E7EA2ED090C0060A
:1028A000C090C1062091C206F0E4FF2E3F2D329F5A
:1028B000312D1124F32ED0E0CE1508F08FCFFE017C
:1028C000E454FC4F8081909123018923D9F0FE01CB
:1028D000EE0FFF1FEC55FD4F60A9F69EB0011124CD
:1028E000E5E075956795EA95E1F78091BF06680F79
:1028F0007D2D8C2D0E94A10B462F282F672FCE01F6
:102900000E942E0A2196D8CFC091220188E1C89F4B
:10291000C02D112408E10C0FF02E053710F064E7EC
:10292000F62EE090BF06D091C006D090C10660910F
:10293000C2066695669566958091BA069091BB062B
:102940000E94970B0E94FD0A805887FD8195880F91
:10295000282F3D2D239F212D1124822F6E2D7D2F79
:102960000E94A10BE62ED72EC82ED0E0CF1508F07E
:1029700035CFFE01E454FC4F8081909123018923DF
:1029800031F02C2D4E2D6D2DCE010E942E0A219658
:10299000EDCF82E09AE00E94720D07C088ED99E0C9
:1029A000FACF8FED9AE00E947F0EC82F4FC080ECC7
:1029B0009AE0F9CF85EA9AE00E94120EF6CF89E8F4
:1029C0009AE0FACF86ED99E0E6CF8DEC99E0E3CF7F
:1029D00084EC99E0E0CF8BEA99E0DDCF8DE999E0D6
:1029E000EBCF8FE69BE0DFCF88E79AE0DCCF84E691
:1029F0009AE0E2CF80E799E00E94BC0DD6CF82E456
:102A000099E0FACF8BE099E0F7CFC0912401C11192
:102A100035C06091C20620E1620F08F46FEF80912B
:102A2000BA069091BB060E94970B6AE070E00E9484
:102A30005530892B09F0AFCE0E940D3164E770E06C
:102A40000E946930609123010E945C1380912201F1
:102A50008F5F80932201C1110CC082E0809314012A
:102A600080912401811105C0111103C083E080937E
:102A70001401CDB7DEB7EDE00C94AB30C09122016C
:102A800088E1C89FC02D112408E10C0F802F053765
:102A900008F084E7D0E0E82EF12CCE15DF050CF02D
:102AA0009DCE60912301CE010E945C132196F5CF4B
:102AB000C0912401C1111EC06091C20620E1620FC5
:102AC00008F46FEF8091BA069091BB060E94970BB5
:102AD00065E070E00E945530892B09F05CCE0E94C1
:102AE0000D3164E770E00E946930609123010E941B
:102AF0003813ACCFC091220188E1C89FC02D1124AA
:102B000008E10C0F802F053708F084E7D0E0E82EAD
:102B1000F12CCE15DF050CF061CE60912301CE01C2
:102B20000E9438132196F5CFC091220188E1C89FF9
:102B3000C02D112408E10C0FF02E053710F054E7DA
:102B4000F52ED090C006E090C106D091BF066091EE
:102B5000C2066695669566958091BA069091BB0609
:102B60000E94970B0E94FD0A805887FD8195880F6F
:102B7000682F2CE0629F612D11246D0F7D2D8E2D0D
:102B80000E94A10BE62ED72EC82ED0E0CF1508F05C
:102B900025CEFE01E454FC4F8081909123018923CE
:102BA00031F02C2D4E2D6D2DCE010E942E0A219636
:102BB000EDCF8CE19BE0EFCE8AEF98E0ECCE83EF97
:102BC00098E00E94FF0CF1CE8DEE98E0FACF809154
:102BD000C40621E0382F321B08F430E0832F64ED67
:102BE00078E00E94350CE1CE64ED78E080E0F9CF2A
:102BF0008091C40621E0382F321B08F430E0832F87
:102C000069E978E0EECF69E978E0F0CF8091C40619
:102C100021E0382F321B08F430E0832F67E678E09C
:102C2000E0CF67E678E0E2CF8091C40621E0382F5C
:102C3000321B08F430E0832F6FE478E0D2CF6FE4EA
:102C400078E0D4CF8091C40621E0382F321B08F4FD
:102C500030E0832F69E378E0C4CF69E378E0C6CF42
:102C60006EE078E0C3CFC091220188E1C89FC02DFB
:102C7000112408E10C0FB02E053710F044E7B42EF4
:102C80002091C20630E050E040E06FEF7FEF80E03F
:102C900090E00E9485317901D0E0CE01880F991F24
:102CA000FC01EC55FD4F6F0132E8A32ECB1508F067
:102CB00095CDFE01E454FC4F80819091230189233E
:102CC00019F18090C0069090C1067090BF064091A7
:102CD000C4064150042E000C550B47FF1AC0C70113
:102CE0006091C2060E94970B6A2D282F621B08F480
:102CF00060E0670D782D892D0E94A10B462F282FAB
:102D0000672FCE010E942E0A219632E0C30ED11CFD
:102D1000CDCFFA01EC53F94F9181F60180A99813B8
:102D20000AC0FA01EE0FFF1FEC53F94F878D90A1F7
:102D30008E159F05A8F241505109CFCF90912201E5
:102D4000D8E19D9FD00D11240E940D31C82F0E9403
:102D50000D316C2F782F8091C1060E94A10B482F56
:102D6000872F0E942B0AC1E0D43708F46FCE13CD11
:102D700046E050E06CE170E08EEB96E00E9451314D
:102D80001092380508954F925F926F927F928F92C2
:102D90009F92AF92BF92CF92DF92EF92FF92CF932A
:102DA000DF93C0903305D0903405E0903505F09066
:102DB00036058FB7F89440909C0650909D06609021
:102DC0009E0670909F068FBF530142018C189D088C
:102DD000AE08BF080E94CD0660933305709334059A
:102DE0008093350590933605A0910005E0E0F5E06D
:102DF0002A2F30E04FEFC40ED41EE11CF11CC41882
:102E0000D508E608F708A3132BC0209300052091EE
:102E10003705C0E0211108C02091BE06C22FC37043
:102E200019F0C22FC695C69520911401213009F4DE
:102E300041C0222341F1223009F49BC0233009F420
:102E4000A3C0DF91CF91FF90EF90DF90CF90BF9024
:102E5000AF909F908F907F906F905F904F9008956C
:102E6000478D50A12A01712C612CC414D504E604AD
:102E7000F70420F421503F5F3296C5CF480D591D0D
:102E800050A3478FF8CF109222016093BA06709337
:102E9000BB068093BC069093BD0683E3E0E0F5E0BB
:102EA000A4ECB6E001900D928A95E1F781E0809361
:102EB0001401C7CF8C2F0E949713CC2311F280915D
:102EC000BE06837009F4BDCF8091F706833009F404
:102ED0004CC048F4813009F0B4CF46E061E28BE2A7
:102EE0000E942A11AECF8850C1E0D0E0893008F0AE
:102EF000A8CF29E143E360E0CE010E942E0A21968B
:102F0000C530D105B1F729E143E360E085E090E009
:102F10000E942E0A29E143E360E086E090E00E94EF
:102F20002E0A26E041E26BE289E290E00E942E0A3E
:102F300026E041E26BE28EE490E00E942E0A26E059
:102F400041E26BE283E790E00E942E0AC7E1D2E003
:102F500089A129E143E360E090E00E942E0A2696D1
:102F600082E0C536D807A1F76CCF40E069E183E382
:102F7000B7CFC09313018091BE0683708093120176
:102F80000E94BA1183E093CF8091380581110E948D
:102F9000B8164091BA065091BB066091BC0670917C
:102FA000BD062FB7F89480919C0690919D06A09144
:102FB0009E06B0919F062FBF841B950BA60BB70BE7
:102FC0004097A105B10508F43CCF1092140139CF08
:102FD000EEEBF6E081E3808380912501909126015C
:102FE000A091270181839283A3838FE784838FEF4E
:102FF00085830E94B81608958091900490918F0463
:10300000892B8093320448E050E067E874E082E363
:1030100094E00E941D31892BA9F088E0E2E3F4E0FE
:10302000A7E8B4E001900D928A95E1F7E091970648
:10303000F0919806309731F00280F381E02D82E321
:1030400094E00995089590E080E00E94150790E0D3
:1030500080E00E94FF0610928F040E94FC170895E2
:103060008093F7060E94231808958091F706982F01
:103070009670963021F488600E9430180895877FFA
:10308000FBCF21E030E001C0220F8A95EAF72095BE
:103090008091F70682230E943018089521E030E0E5
:1030A00001C0220F8A95EAF78091F706822B0E94D1
:1030B0003018089580913B04882321F083E00E941A
:1030C0003018089581E0FBCF809391040E9423186B
:1030D0000895ECEFF4E08081807F82608083EDEFE3
:1030E000F4E0808180788567808381E00E946418A5
:1030F00081E00E94301861E088E20E94D1070895C3
:1031000010929004E4E3F4E086E0DF011D928A95DA
:10311000E9F70E9423180895AAE2B0E0E2E9F8E195
:103120000C94993082EB96E02091F100DC012D9314
:10313000CD01B6E08A3B9B07B9F78091B306833097
:1031400009F472C0B8F4813009F449C0823009F43E
:10315000B3C08091E80083FF96C28091B20690913F
:10316000B3069A3008F08FC2E92FF0E0EC5EFD4C18
:103170000C947D308A3009F48EC08B3009F471C014
:10318000893039F78091B206813219F78091B606FD
:103190009091B706009711F00297D9F68091E80058
:1031A000877F8093E8008091E80082FF38C090918B
:1031B000F3008091F200029731F48091F1008130A8
:1031C00011F0863021F48091F1008093A506809162
:1031D000E8008B778093E8000E94AC04BACF80911E
:1031E000B206813A09F0B5CF8091E800877F8093DD
:1031F000E8008091B6069091B706892B61F468E0EB
:1032000086EA96E070E00E9458058091E8008B778E
:103210008093E8009ECF60E090E080E0F3CF809163
:10322000B0068111C0CF95CF8091B206813A09F0E6
:1032300090CF8091B6069091B706892B09F089CF7F
:103240008091E800877F8093E8008091E80080FF0C
:10325000FCCF809121018093F1008091E8008E776E
:10326000B9CF8091B206813209F073CF8091B60652
:103270009091B706892B09F06CCF8091E800877F89
:103280008093E8000E94AC048091B40680932101F1
:103290000E9480185ECF8091B206813209F059CF2A
:1032A0008091E800877F8093E8000E94AC048091C1
:1032B000B5068093A4064DCF8091B206813A09F0FD
:1032C00048CF8091E800877F8093E8008091E800F4
:1032D00080FFFCCF8091A406BECF803899F0823861
:1032E00009F0D1C18091B6068F70873008F0CBC14C
:1032F0008093E9008091EB0085FB882780F910928C
:10330000E90006C08091AE069091AF0691118260EF
:103310009091E800977F9093E8008093F1001092DD
:10332000F1008091E8008E77AAC1882309F498C142
:10333000823009F0A8C18091B40681119BC18091AF
:10334000B6068F702FEF280F263008F09CC18093AF
:10335000E9002091EB0020FF8DC1933031F4809182
:10336000EB0080628093EB0085C19091EB0090614F
:103370009093EB0021E030E001C0220F8A95EAF73C
:103380002093EA001092EA008091EB008860EACF77
:10339000811179C11091B4061F778091E300807884
:1033A000812B8093E3008091E800877F8093E80081
:1033B0000E94AC048091E80080FFFCCF8091E30084
:1033C00080688093E30082E0111183E08093B0066F
:1033D0005AC18058823008F056C12091B40630910D
:1033E000B5062C3DE3E03E07A1F583E08A838AE23F
:1033F00089834FB7F894DE01139620E03EE051E256
:10340000E32FF0E050935700E49120FF03C0E295D2
:10341000EF703F5FEF708E2F90E0EA30C0F0C796FC
:103420008D939D932F5F243159F74FBF8091E80012
:10343000877F8093E8006AE270E0CE0101960E94E7
:1034400058058091E8008B778093E8001CC1C096F6
:10345000E7CF8091B6069091B706432F55274330AA
:10346000510509F44AC078F54130510509F47AC094
:103470008FEB90E0E3EBF4E04230510509F003C13B
:103480002091E800277F2093E8002091B806309132
:10349000B9068217930708F49C0140E02115310515
:1034A00009F065C0411163C08091E80082FDC9CF79
:1034B0008091B006882329F2853019F28091E800C6
:1034C00083FFF2CFBECF4132510509F43CC04232F6
:1034D000510509F0D8C08330910508F0D4C0FC0133
:1034E000EE0FFF1FE856FD4F0190F081E02D8B5647
:1034F0009D4FDC018C9190E01AC0332721303105BB
:10350000D1F02115310561F02230310509F0BBC041
:10351000E4E8F5E0E4918E2F90E0E4E8F5E007C000
:10352000E4EBF5E0E4918E2F90E0E4EBF5E000971A
:1035300009F4A9C0A5CFE4EAF5E0E4918E2F90E06C
:10354000E4EAF5E0F4CF8330910508F09CC0880FE1
:10355000991FFC01E256FD4F0190F081E02D89E0BA
:1035600090E08ECF82E190E0E2E7F5E089CF8091B4
:10357000B006882309F465CF853009F462CF8091C5
:10358000E80083FD5ECF8091E80082FD8DCF8091C1
:10359000E80080FF83CF9091F3008091F200211525
:1035A000310519F08830910550F041E0089709F095
:1035B00040E08091E8008E778093E8006FCF4491DF
:1035C0004093F1003196215031090196E8CF8038BF
:1035D00009F059C08091E800877F8093E8008091CE
:1035E000B1068093F1009DCE81114DC01091B406BB
:1035F000123008F048C08091E800877F8093E8008F
:103600001093B1060E94AC04112311F084E005C0B0
:103610008091E30087FDFACF81E08093B00642E01D
:1036200061EC81E00E94CB0442E261EC84E00E9404
:10363000CB0442E261EC82E00E94CB0442E260EC07
:1036400083E00E94CB0442E361E885E00E94CB0462
:1036500042E361E886E00E94CB048091B00613C08B
:103660008091B406813079F481E0933009F080E0F4
:103670008093AF061092E9008091E800877F8093E5
:10368000E8000E94AC048091E80083FF0AC08091AA
:10369000E800877F8093E8008091EB008062809350
:1036A000EB00AA96E3E00C94B5300E9480182FEF4F
:1036B00084E39CE0215080409040E1F700C000008E
:1036C00088E19AE00FB6F894A895809360000FBE49
:1036D00090936000FFCF882341F0809590919004F3
:1036E0008923809390040E94FC170895882339F061
:1036F00090919004982B909390040E94FC17089549
:103700008823C1F19CEF980F913A78F4E4E3F4E058
:103710009191891303C0DF0111971C9244E0EA33B1
:10372000F407B1F70E94FC17089590E2980F9830C3
:1037300088F4877021E030E0A90102C0440F551FD2
:103740008A95E2F7CA01809590919004892380932D
:103750009004E8CF9BE5980F933028F490E080E048
:103760000E9415070895885A873120F490E080E080
:103770000E94FF060895CF93C82F8823B1F08CEFE5
:103780008C0F813A00F5E4E3F4E08AE394E0DF0192
:103790002D91C21761F08A179B07D1F76C2F82E336
:1037A00094E00E94E5060E94FC17CF9108952191B4
:1037B000C21303C0DF0111971C928E179F07B9F740
:1037C0000E94FC17EBCF80E28C0F883068F4C77042
:1037D00021E030E001C0220FCA95EAF78091900401
:1037E000822B80939004DFCFEBE5EC0FE33040F4C5
:1037F000F0E0E854FE4F808190E00E941507D5CF9D
:10380000C85AC73190F6EC2FF0E0EE0FFF1FE554D9
:10381000FE4F808191810E94FF06C7CF1F93CF93F7
:10382000DF93182FCAE0D0E0893311F4C0E5D0E06F
:10383000812F0E94BB1B8FE99FE00197F1F700C029
:1038400000002197C1F7812F0E94801BDF91CF914B
:103850001F9108950F931F93CF93DF93C62FD42FFB
:10386000022FFC0182818823A9F06093E7070E9460
:10387000D9069093E6078093E507C77081E001C001
:10388000880FCA95EAF70E94761BDF91CF911F91AE
:103890000F9108958091E707681332C08091E50782
:1038A0009091E6070E94BE06883C910548F510E21B
:1038B0001D0FCD17B9F080E28C0F883040F4C7702F
:1038C00081E001C0880FCA95EAF70E946B1B18308F
:1038D00048F481E09D2F977001C0880F9A95EAF710
:1038E0000E94761B802F0E940E1C183070F6D77035
:1038F00081E001C0880FDA95EAF70E946B1BC5CF03
:10390000C77081E001C0880FCA95EAF7F6CFB0E032
:10391000A0E0EDE8FCE10C949530E82FF0E0E059F0
:10392000FE4FD490282F26952695269530E0F90154
:10393000E05AFE4F0491877010E0082E02C01595E2
:1039400007950A94E2F701701127F901E05BFE4F39
:10395000E490F12C082E02C0F594E7940A94E2F763
:1039600091E0E922FF24F901E05CFE4FC491D0E030
:1039700002C0D595C7958A95E2F7C170DD2701157C
:10398000110519F081EE0E94BB1BE114F10419F03E
:1039900086EE0E94BB1B8D2D0E940E1CE114F104CB
:1039A00019F086EE0E94801B0115110519F081EEB9
:1039B0000E94801BCD2B19F08CE20E940E1CCDB70B
:1039C000DEB7E7E00C94B13090E080E00E944B312C
:1039D000883E9E4F19F40E941113089580E00895C7
:1039E00068EE7EEF90E080E00E947F3160E082E050
:1039F00090E00E94613160E083E090E00E946131DC
:103A00001092910460E084E090E00E94613164E0F3
:103A100082E290E00E94613160E085E090E00E94E7
:103A2000613160E086E090E00E9461316FEF87E0F5
:103A300090E00E94613140E050E0BA0188E090E0FF
:103A40000E94733160E08DE090E00E94613140E0BF
:103A500050E0BA0188E190E00E94733160E087E1B4
:103A600090E00E94613140E050E0BA018CE190E0CA
:103A70000E94733170E060E080E290E00E947F314C
:103A800040E050E0BA0188E190E00E94733180E0AC
:103A90000E944F120E94681240E050E0BA018FE08D
:103AA00090E00E9473310E94D50E0E94010880911F
:103AB00038058160809338058FE78093C20621E046
:103AC0004FEF6FEF8AEA90E00E9470070E9469183A
:103AD0000895A5E0B0E0EFE6FDE10C9491307C01A3
:103AE000FC0183819481892B31F08081918189232C
:103AF0008F3F09F070C72596EBE00C94AD300E9423
:103B0000B512182F682F89819A810E94F41069815B
:103B10007A81812F0E94A7128C01F701928199234B
:103B200009F44EC7980122513F452031310508F074
:103B300032C78FEF93E00E9443318111DCCF0251F5
:103B400037EAE32EFF24F394011135C01C821B8257
:103B5000DD24D3942AE0C22E87010F5F1F4FC701D7
:103B60000E94433189831A82882329F29FEF980F9C
:103B7000933080F58A83D98232E0E30EF11CC801CC
:103B80000E9443318B83882309F4B5CF8E010F5FE8
:103B90001F4FF80180818823F9F2813009F052C06B
:103BA000918182819130C1F40E5F1F4F0E940E1CE3
:103BB0000F5F1F4FEECFE114F4E0FF0609F49BCF37
:103BC000C7010E944331811101C001502FEFE21A59
:103BD000F20ABACF7801DACF923029F40E5F1F4F84
:103BE0000E94BB1BE5CF933029F40E5F1F4F0E944C
:103BF000801BDECF943019F00F5F1F4FD9CF0E5FBF
:103C00001F4F30E020E0B8016F5F7F4FF801418126
:103C10008053990B8A30910550F02150310940F2C0
:103C20008FE99FE00197F1F700C00000F6CFC29E38
:103C3000F001C39EF00D11249C012E0F3F1F842F15
:103C40008B01E1CF0E94871CB3CF81E00E944E1808
:103C500003C081E00E9441180E9435184CCF82E0D9
:103C6000F5CF992309F493C080EFA82E81E0B82EF8
:103C70009AE0992EF5018491882309F488C0813057
:103C800009F050C06501FFEFCF1ADF0AF6018491F9
:103C9000813069F46501F2E0CF0ED11CF601849108
:103CA0000E940E1C56012FEFA21AB20AE3CF8230F7
:103CB00049F46501F2E0CF0ED11CF60184910E9417
:103CC000BB1BF0CF833049F46501F2E0CF0ED11C6D
:103CD000F60184910E94801BE5CF843019F76501BD
:103CE000F2E0CF0ED11CF601249190E080E0F601C5
:103CF00031962053330B2A30310548F0019790F26A
:103D0000EFE9FFE03197F1F700C00000F7CF989E90
:103D1000A001999E500D1124C901840F951F249173
:103D20006F01E5CF0E94871C6501BCCF992379F113
:103D30008091FC048F708093FC0410923A0481E01F
:103D40008093040110923B040E945A1820C09923CA
:103D5000F1F08091FC048F708093FC0410923A047F
:103D600091E09093040180913B04892780933B0468
:103D7000EBCF992361F08091F706813041F4809177
:103D80003A04882309F454C0815080933A04F7011F
:103D90009281992309F430C61092E7070330FDE5BC
:103DA0001F0708F01AC30A3F2CE5120738F49801E0
:103DB00022503C452431310508F019C30E942A13D2
:103DC00090939C0480939B0401315CE5150709F4F2
:103DD000EBC308F065C309307CE5170709F4D2C3CB
:103DE00008F030C305309CE5190709F4C3C308F097
:103DF00015C30330FCE51F0709F4B2C308F0B6C3CE
:103E000080919B04816002303CE5130709F4ABC349
:103E100060919B0410919C0484E090E00E946131C9
:103E2000612F82E290E00E9461310E94801863CE8F
:103E30008BE0ABCF992309F4AACF8091F7068130AC
:103E400009F0A5CF80913A048B3010F48F5F9DCF9D
:103E500080E09BCF992309F49ACF8091050191E0EE
:103E600089278093050193CF992309F490CF9091EE
:103E7000F7068091FC049B3081F49091040121E0CD
:103E800029272093040190933A04992321F0806F0D
:103E90008093FC047CCF8F70FBCF1092040191E0E3
:103EA00090933A04806F8093FC0490933B044CCF32
:103EB0000E3A3CE5130708F09EC00E394CE5140796
:103EC00008F0CFC100395CE5150708F045C003389C
:103ED0006CE5160708F07DC101387CE5170720F571
:103EE00007378CE5180708F057C10F32ECE51E07BD
:103EF00008F008C1033F6CE5160709F45FC208F03B
:103F0000EEC0083D8CE5180709F454C2093D9CE554
:103F1000190709F45FC2073DECE51E0709F037CF2A
:103F200026E241EE61EEEAC00138FCE51F0709F424
:103F300040C102382CE51207E9F6992309F4DBCDDC
:103F40008091FC048F70893008F0D5CD8F5F8F7021
:103F50009091FC04907F39C10C393CE5130790F532
:103F600002394CE5140708F051C100395CE515072A
:103F700009F43AC101396CE5160709F0BBCF992362
:103F800009F4B9CD9091FC049595959595959595E5
:103F900096300CF0B0CD21E0290F2295207F259599
:103FA000259525952595322F3295307F8091FC04FB
:103FB0008F70832B8093FC0419160CF09CCD27FF87
:103FC0009ACD20C10C397CE5170709F42FC10D39B2
:103FD0008CE5180709F08ECF992309F48CCD8091D8
:103FE000FD04982F9F779F3709F485CD933708F00C
:103FF00036C1935F2EC1043BECE51E0709F485C171
:10400000C8F5003B2CE5120709F45BC1D8F40E3A61
:104010004CE5140709F438C10F3A5CE5150709F0BF
:1040200069CF992309F467CD2091FD04322F331F06
:104030003327331F9091FE04892F8770880F832BBD
:104040008F5F32C18091FD042091FE04023B6CE53C
:10405000160709F446C108F04EC140E091114FE740
:10406000881F8827881F2770220F60E4822B0E94F8
:10407000140341CD073B8CE5180709F454C180F4C3
:10408000053BFCE51F0709F440C1063B2CE5120780
:1040900009F030CF8FEF911181E08093B2042BCDE6
:1040A000093B3CE5130709F473C108F45CC10A3B02
:1040B0005CE5150709F01ECF8091FD04282F221F13
:1040C0002227221F8091FE048770880F822B6FEFBA
:1040D0007FE1992309F46BC10E94FB020CCD053FDF
:1040E000FCE51F0709F472C108F46CC127E245EE34
:1040F00066EE063F3CE5130709F049CEC7010E9472
:104100002A1CF9CC8091FD04282F221F2227221F70
:104110004091FE044770440F422B8F7721ED200F12
:1041200030E0B9016C547B4F7B01FB012081992366
:1041300009F12F3F09F0DFCC1091FC04912F9F7003
:1041400015951595159515951F52FCE09F9F100D1F
:104150001124100F212F2F774069E091F806F0917C
:10416000F906082F63E070E088EF96E00995F70103
:104170001083C1CC2F3F61F02F774068E091F806A3
:10418000F091F906082F63E070E088EF96E009955A
:104190008FEFF7018083AFCC992309F4ACCC07579C
:1041A000802F8F700091FC04007F082B0093FC048B
:1041B000A2CC992309F49FCC8091FC04982F9F7086
:1041C00009F499CC915F9F70807F892B8093FC04C8
:1041D00092CC992309F48FCC0958802F8295807F47
:1041E0000091FC040F70E1CF992309F484CC8091F5
:1041F000FC04982F95959595959595959B3F0CF476
:104200007ACC915F9295907F8F70DFCF992309F4DC
:1042100072CC02598EE0089F802D11248F77009177
:10422000FD040078082B0093FD0465CC992309F464
:1042300062CC8091FD04982F9F7709F45CCC9F3766
:1042400029F4807885678093FD0455CC9D3028F053
:104250009D509F778078892BF6CF8078F4CF8F6739
:10426000F2CF992309F447CC0E598091FD0400FB4D
:1042700087F98093FD04069507708091FE04887F7E
:10428000082B0093FE0437CC992309F434CC2091F9
:10429000FD04322F331F3327331F9091FE04892FE3
:1042A0008770880F832B815F382F3F7080FB27F941
:1042B0002093FD04832F8695987F982B9093FE047E
:1042C0001ACC992309F417CC9091FD04991F9927D2
:1042D000991F8091FE048770880F40E06BE7892B5F
:1042E000C6CE40E091114FE7881F8827881F2770AE
:1042F000220F61E4BBCE40E091114FE7881F882771
:10430000881F2770220F62E4B1CE40E091114FE781
:104310009091FD04991F9927991F8091FE04877041
:10432000880F63E4DCCF992309F4E5CB9091FE0478
:10433000292F2695269526952F7081E0820F8F7064
:10434000880F880F880F9778892B8093FE04982F09
:10435000987709F0D0CB220F220F220F8778822B7B
:104360008093FE04C8CB992309F4C5CB8091FE0449
:10437000982F987709F4BFCB982F96959695969598
:10438000915F9F70990F990F990F8778892BE8CFCC
:104390008091FD04282F221F2227221F8091FE04D6
:1043A0008770880F822B60E070EE911195CE70E0DF
:1043B00060E092CE27E245EE65EEA0CE26E241EE29
:1043C00060EE9CCE27E245EE64EE98CE26E241EE0A
:1043D00062EE94CE28E241E0EFCF01363DE51307CF
:1043E00009F4ECCC053A4DE5140709F4E7CC0631A5
:1043F0008CE5180709F08DC3809190048A7A91E0CA
:1044000009F490E090933C0469E2811165E382E352
:1044100094E00E94E5060E94FC176DCB80919B04FE
:10442000806207304CE5140709F49DC080919B041D
:10443000806108305CE5150708F495C080919B0405
:10444000806491C080919B048B7F0D306CE51607D2
:1044500009F489C088F40B308CE5180709F498C07A
:1044600080919B048C600C309CE5190708F47BC09C
:1044700080919B048D7F77C080919B048F7E0F304D
:10448000ECE51E0709F46FC080919B04877F003123
:10449000FCE51F0708F467C080919B048F7D63C013
:1044A0000D3F2CE5120709F47BC058F505314CE5AA
:1044B000140709F483C098F480919B04837F03312F
:1044C0006CE5160709F44FC008F472C00E9480180A
:1044D00090919B04892F97FB87F9805844C00B3F2C
:1044E0008CE5180709F44AC008F056C080919C0476
:1044F00081600A3FECE51E0709F08ACC80939C049A
:1045000087CC0130FDE51F0709F464C0C0F4809139
:104510009C048C7F0F3F3CE5130781F380919C0442
:10452000836001154DE5140748F380919C04982F92
:10453000909591708E7F892B90FB81F9DFCF0136AA
:104540005DE5150709F44CC0053A6DE5160709F459
:104550004EC002307DE5170709F05ACC60E03BC041
:1045600080919B04826080939B0452CC80919B0439
:104570008460F9CF80919B048860F5CF80919C0482
:104580008260BCCF0E94801880919B048068EBCF32
:1045900080919B048E7FE7CF80919C048E7FAECF6D
:1045A00080919C048D7FAACF80919B048F7BDBCF71
:1045B0000E94801880919B048F77D5CF80919B04B7
:1045C00082FB992790F921E0922790FB82F990FBDA
:1045D00083F9C9CF61E08EE090E00E94613118CC90
:1045E00090919B04892F8F7E94FF8061BCCF909126
:1045F0009B04892F8E7F90FF8160B5CF80913C0412
:1046000081110FC089E2E4E3F4E02AE334E0919100
:10461000891303C0DF0111971C922E173F07B9F7CA
:10462000FACE85E3F0CF8091BE0691E08927809392
:10463000BE06109214018091380581608093380580
:104640005ACA4AEE57E065EF77E00E94380753CA2E
:1046500045EF57E06AEE77E0F8CF4BEB57E066ECBA
:1046600077E0F3CF46EC57E06BEB77E0EECF4FE926
:1046700057E06DEA77E0E9CF4DEA57E06FE977E080
:10468000E4CF41E957E063E877E0DFCF44E557E066
:1046900062E677E0DACF42E657E064E577E0D5CF2F
:1046A00061E081E00E94D10726CA61E08CE0FACF88
:1046B0000E94F01C0E94551BC8010E94C010D82EF9
:1046C000CAC1092F0F70907F11F00295007F812FD2
:1046D0002223C9F0002369F090E2910F983010F086
:1046E00011110BC080919004082B009390040E943C
:1046F000FC17812F0E94BB1B17C080918F04082BD1
:1047000000938F04F4CF0E94801B002369F0009572
:10471000105E183010F0B11012C080919004082380
:10472000009390040E94FC17F8E0CF1AD10824E00F
:10473000C216D10408F0DFC90E942B07DCC98091A2
:104740008F04082300938F04EDCF892F8F70907F03
:10475000903211F08295807FF1E0BF120CC02223CD
:1047600029F0363008F70E94761BDECF3530E0F6B0
:104770000E946B1BD9CF222341F03323A1F340FFCA
:10478000B8CF4F70F7014583EECF332389F3193348
:1047900069F4FFEF27EE33E0F15020403040E1F7BD
:1047A00000C00000812F0E94801BBECF8FE39CE9D8
:1047B0000197F1F7F5CF892F86958695837061F083
:1047C000813009F0B1CF812F9370211102C090E0A8
:1047D00080E00E94FF06A8CF812F9370211102C0B4
:1047E00090E080E00E9415079FCF892F8370A1F58C
:1047F00021119ACF812F829586958770880F880F17
:10480000412F4F70082E01C0440F0A94EAF7212F60
:10481000207114FF07C02FE030E001C0220F8A95FD
:10482000EAF72095969596959370923081F0822FB5
:10483000842B933030F480919104913029F0242B13
:1048400082230E94641870CF842B822BFACF242BF2
:10485000809191048227F5CF8695222311F0892F2C
:104860008170882309F460CF812F829586958770A7
:10487000880F880F412F4F70082E01C0440F0A94F3
:10488000EAF7212F207114FF07C02FE030E001C0AC
:10489000220F8A95EAF72095969596959370923017
:1048A00081F0822F842B933030F48091F706913081
:1048B00029F0242B82230E94301836CF842B822BA0
:1048C000FACF242B8091F7068227F5CF092F0F709E
:1048D000222329F0802F0E944E18812F44CF812F50
:1048E0000E946B1B802F0E9441181ECF812FE1EF89
:1048F0001E1789F1E11750F0F0EF1F17B9F02223CE
:10490000B1F13111F6CE892F8F7129C042EF141702
:1049100049F153EF1513F3CF80E0222361F29F7129
:1049200081E001C0880F9A95EAF7C5CF222379F07C
:10493000353008F0F9CE292F2F7181E090E001C0C9
:10494000880F2A95EAF79091F7068927B4CF363079
:1049500008F0EACEF0CF892F8F71222321F20E9436
:104960004E18E2CE892F8F712223C9F3BCCF332397
:1049700079F0893341F46FEF77EE83E06150704056
:104980008040E1F70DCFEFE3FCE93197F1F708CF75
:10499000892F8F71A8CF00313FE5130709F455C95E
:1049A00001314FE5140709F45AC9F801E058FF45F1
:1049B000E730F10508F07CCAE25EFD4C0C947D30D6
:1049C00000315FE5150709F444C901316FE51607A9
:1049D00061F782E03FC985E0DE01119601900D92FA
:1049E0008A95E1F7F701228189819A81211187C88F
:1049F0000E94C010182F8BC80631FCE51F0709F470
:104A0000FDCD8091900482720A3C2CE5120709F4D6
:104A100038CE08F051C0053C4CE5140709F41DCE12
:104A2000A8F5033C6CE5160709F40BCE08F010CE90
:104A3000023C8CE5180709F4F6CDF70100811181DD
:104A4000992309F439CEC8010E94B512D82E682FD7
:104A5000C8010E94F410B8018D2D0E94A7120E9477
:104A60004E0F182FB82EF70122814581342F329531
:104A70003F70892F82958F70C82ED12C8C3008F012
:104A800053CEF601EB5DFD4C0C947D30073CECE51C
:104A90001E0709F4ECCD08F4E5CD083C2CE512071F
:104AA00009F4EACD43E857E061E977E0093C3CE5E9
:104AB000130709F4CACDC1CF0F3C4CE5140709F424
:104AC000F4CDA0F40C3C6CE5160709F4E4CD08F431
:104AD000DDCD0D3C8CE5180709F4E2CD61E084E002
:104AE0000E3CECE51E0709F4DDCDA7CF063DFCE545
:104AF0001F0748F461E081E1013D2CE5120708F44D
:104B0000D1CD0C947B1D0D35100711F40C947B1D39
:104B100094CF0E3D4CE5140709F4CACD073A5DE584
:104B2000150709F4C7CD01151C4509F086CF0E9471
:104B300080189FEFE4E3FCE09150E040F040E1F7A3
:104B400000C000000E94AD061F93CF93DF938091B9
:104B50005404807F09F049C080915104882309F4EE
:104B600044C080918604D091550460914F047091A7
:104B70005004A0915204B0915304C62FC72316E0ED
:104B8000D81799F190E0109711F0CF3F19F40196E2
:104B90008770F6CF189F9001199F300D1124F901ED
:104BA000EA5AFB4F41814713F2CF40814613EFCFC2
:104BB00042814111ECCF438154814A1B5B0B483C3D
:104BC000510528F7809154048F70806180935404BC
:104BD000F901E55AFB4F80818F70806180838FE4FB
:104BE00094E00E94691D0E94B610DF91CF911F9141
:104BF0000895A1E1B0E0EFEFF5E20C9492308C0162
:104C000085E0F801DE011D9601900D928A95E1F78D
:104C1000F801E2808FE4A82E84E0B82E609152045F
:104C2000709153046115710509F426C190914F04E8
:104C300040915004892F84238F3F09F41DC12081A6
:104C40003181C380D480F0905104F601E61BF70B4C
:104C5000FF2009F4DCC080915404582F507FE83CB9
:104C6000F10508F09FC051116BC0FE2C431314C016
:104C7000921312C0E11010C08F70806180935404B1
:104C8000C5010E94691D80915404F80185838F2D10
:104C90006196EAE00C94AE30C114D10429F0822F61
:104CA00083238F3F09F003C180E0F82FF170DF2EDE
:104CB00080FF3CC0809186044091550456E08413E7
:104CC00015C02D873E878D859E850E94E412292F71
:104CD00022952F702230F0F0243018F59F70F1F0FB
:104CE000F8019581907FD1F4D12C1EC090E0589F9F
:104CF000F001599FF00D1124EA5AFB4F61813613E0
:104D000006C06081261303C06281E6120FC00196BF
:104D10008770D5CF9F7011F0882331F3805E883083
:104D200018F3C8010E94691DFD2CB1CFEE2009F4D3
:104D3000AECF80915404816080935404F12CA7CFAE
:104D4000431306C0921304C0F801EE2009F479C0A1
:104D5000C8010E94F112882309F1EE20F9F0809138
:104D60005404803270F020914F0430915004388701
:104D70002F831986DB86CA868C87CE0107960E9410
:104D8000691D86E0F801AFE4B4E001900D928A95C8
:104D9000E1F70E94A425FF24F39479CFC8010E9473
:104DA000691DF9CF51110AC08FE494E00E94691D7A
:104DB00086E0F50111928A95E9F7C0CF43130FC041
:104DC00092130DC0E1100BC0F8018583C8010E9449
:104DD000691D86E0F50111928A95E9F758CFC8015F
:104DE0000E94F1128823D1F2EE20C1F28091540486
:104DF000803238F220914F04309150043A83298355
:104E00001B82DD82CC828E83CE010196B8CFE83C36
:104E1000F105F8F6FE2CEE2009F243131FC09213A1
:104E20001DC08091540480FD10C0982F907F69F0C0
:104E3000F8018583903F31F0982F907F905F8F70BD
:104E4000892B8583C8010E94691D86E0F801AFE4C3
:104E5000B4E001900D928A95E1F719CFC8010E9444
:104E6000F11281118ECF809154048160809354049B
:104E7000C8010E94691D0BCFEE2009F48FCFC80135
:104E80000E94F112F82E882309F488CF86E0F801F9
:104E9000AFE4B4E001900D928A95E1F780914F0460
:104EA000909150040E94E4120E94A425F0CE81E06B
:104EB0008E25FBCEA7E1B0E0E0E6F7E20C94993056
:104EC0004B8B5C8B6D8B7E8B8F8B611110928F0463
:104ED0001A8A198A85E0FE017396DE011D960190FB
:104EE0000D928A95E1F786E0FE013D96DE01179668
:104EF00001900D928A95E1F7CE0107960E94F9255F
:104F0000882359F016E08091860490915504891306
:104F100043C06796E3E00C94B53086E0FE01379617
:104F2000DE01119601900D928A95E1F78A859B85A5
:104F3000892B41F38F81988589238F3F19F3209125
:104F4000550430E0C9010196877099274091860485
:104F50004817190671F40E94801810925504109297
:104F6000860486E0EFE4F4E0DF011D928A95E9F71C
:104F7000C9CF96E0929FD001939FB00D1124AA5AF9
:104F8000BB4FFE01319601900D929A95E1F7809307
:104F900055040E94B610B6CF819FC00111248A5AD1
:104FA0009B4F0E94F925882309F4B3CF8091860492
:104FB00090E001968770992780938604A4CFABE098
:104FC000B0E0E5EEF7E20C9491308E010F5F1F4FD9
:104FD00086E0F80111928A95E9F789EEC82E81E002
:104FE000D82EF12CE12CAA24A394B12CF6018191A6
:104FF0006F018F3F09F443C0F894E82FE295EF70FA
:10500000F0E021A18F70A50102C0440F551F8A95C1
:10501000E2F7CA01922F982B91A392A18095892340
:1050200082A3789400C0EFEEF1E0912C31E0219161
:105030002F3F09F46EC0A22FA295AF70B0E09096FA
:105040008C9190E02F7002C0959587952A95E2F794
:1050500080FD5FC0832F982A330F51E0E73FF507AB
:1050600031F7F601319780818F3F11F00E94F40EE5
:1050700080EA8A95F1F7F801EE0DFF1D9082EFEFBF
:10508000EE1AFE0AF6E0EF16F10409F0AFCF46E0A3
:1050900050E0B80185E994E00E941D31FF24F394AB
:1050A000009709F4F12C892BB1F186E0F801A5E90C
:1050B000B4E001900D928A95E1F781E08093940429
:1050C0000E94D90690939304809392048091920455
:1050D000909193040E94BE06059708F18091950473
:1050E0008093AA04809196048093AB0480919704E6
:1050F0008093AC04809198048093AD0480919904CE
:105100008093AE0480919A048093AF04109294042B
:1051100006C080E0A0CF809194048111D7CF809108
:10512000A4048823A9F08695C1F087E08F8382E0EC
:10513000888719860E94D9068160782F9B878A8785
:105140001092A4044F81588569858B850E945A2747
:105150008F2D2B96EBE00C94AD3087E08F8381E0B0
:10516000E7CF1F920F920FB60F9211242F933F9308
:105170004F935F936F937F938F939F93AF93BF935F
:10518000CF93DF93EF93FF93D091E900DF7080918D
:10519000EC00C82FC17080FDC0E81092E90080913A
:1051A000F000877F8093F00078940E948C18109212
:1051B000E9008091F00088608093F000CD2BCF70E3
:1051C000C093E900FF91EF91DF91CF91BF91AF9133
:1051D0009F918F917F916F915F914F913F912F910F
:1051E0000F900FBE0F901F9018951F920F920FB641
:1051F0000F9211242F933F934F935F936F937F935D
:105200008F939F93AF93BF93EF93FF938091E100B0
:1052100082FF09C08091E20082FF05C08091E10019
:105220008B7F8093E1008091DA0080FF24C0809121
:10523000D80080FF20C08091DA008E7F8093DA0052
:105240008091D90080FF9DC080E189BD82E189BD48
:1052500009B400FEFDCF81E08093B0068091A306E3
:10526000811109C00E9408040E94FD048091E2009F
:1052700084608093E2008091E10080FF17C08091FC
:10528000E20080FF13C08091E2008E7F8093E200F5
:105290008091E20080618093E2008091D80080627A
:1052A0008093D80019BC85E08093B0068091E1001E
:1052B00084FF2BC08091E20084FF27C080E189BD7C
:1052C00082E189BD89B5982F917080FFFBCF8091D5
:1052D000D8008F7D8093D8008091E1008F7E8093ED
:1052E000E1008091E2008F7E8093E2008091E200F5
:1052F00081608093E2008091B106882309F447C061
:1053000084E08093B0068091B0068091E10083FF35
:1053100027C08091E20083FF23C08091E100877F56
:105320008093E10082E08093B0061092B1068091F4
:10533000E1008E7F8093E1008091E2008E7F809378
:10534000E2008091E20080618093E20042E060E050
:1053500080E00E94CB048091F00088608093F00090
:10536000FF91EF91BF91AF919F918F917F916F913D
:105370005F914F913F912F910F900FBE0F901F9013
:10538000189519BC1092B0061092A30674CF8091A4
:10539000E30087FD93E09093B006B5CF78941F9219
:1053A0001FB61F9211248F939F93AF93BF93809149
:1053B0009C0690919D06A0919E06B0919F06019635
:1053C000A11DB11D80939C0690939D06A0939E06FF
:1053D000B0939F06BF91AF919F918F911F901FBE79
:1053E0001F9018951F921FB61F9211248F939F93A1
:1053F000AF93BF9380919B06811113C080919C064F
:1054000090919D06A0919E06B0919F064196A11D88
:10541000B11D80939C0690939D06A0939E06B09329
:105420009F06BF91AF919F918F911F901FBE1F90BC
:105430001895CDB7DEB7AB970FB6F894DEBF0FBEA9
:10544000CDBF85B7806885BF85B7806885BF0E945E
:10545000D50E10921D0710921F0710921E0780ECA8
:105460008093E20780E297E09093E4078093E3075C
:105470001092E1071092E0071092FD061092FC06D0
:105480001092FF061092FE0610920107109200077C
:10549000109203071092020710920507109204075A
:1054A000109207071092060710920907109208073A
:1054B00010920B0710920A0710920D0710920C071A
:1054C00010920F0710920E071092110710921007FA
:1054D00010921307109212071092170710921607D6
:1054E0008EE596E09093F9068093F80680EE95E0BD
:1054F00090931907809318078CEB95E0909315070C
:10550000809314078BEB95E09093FB068093FA064B
:1055100084B7877F84BF0FB6F894A8958091600008
:10552000886180936000109260000FBE80E890E078
:105530000FB6F89480936100909361000FBE82EFE4
:105540009EE090933104809330040E9408040E94EE
:10555000FD048091E20084608093E2007894809161
:10556000B0068823A1F01091E9001F709091EC0023
:10557000892F817090FD80E8182B1092E9008091AE
:10558000E80083FD0E948C181F701093E90082E0F0
:1055900084BD93E095BD9AEF97BD80936E000E9405
:1055A0001113811102C00E94681209EE11E0D801A6
:1055B0008D918D018F3F11F00E94F40EB1E00F3EEE
:1055C0001B07A9F70FEE11E087EFE82E81E0F82E18
:1055D000F80181918F018F3F11F00E94F40EE016C7
:1055E000F106B1F786E0EAEAF4E0DF01282F1D9228
:1055F0002A95E9F7E5E9F4E0DF011D928A95E9F7DC
:105600000E94E41C811102C00E94F01C82E090E024
:105610000E94433180939D040E942A1390939C041E
:1056200080939B040E94DF27EFE3FCE93197F1F7B9
:1056300000C000000E94DF278091AA0480FF08C0FC
:105640006FEF7FEF90E080E00E947F310E94AD0617
:1056500083E090E00E9443310E9464181092C406D7
:10566000E3EEF6E08FEF9FEF8193919326E0E73F23
:10567000F207D1F710920005EFE1F5E083E395E042
:105680002FEF3FEF219331938E179F07D9F70E9499
:10569000E41C811104C00E94F01C0E94E81746E03F
:1056A00050E06CE170E08EEB96E00E943331109296
:1056B00038058091BE068C7F11F40E94E81781E0C6
:1056C0008093A70425982D9A24982C9A8FE891E02E
:1056D0000197F1F700C000002091A70448EA54E0C8
:1056E000FA018E2F841B821708F47AC10E94691870
:1056F00086E091E0909398068093970618E1612EDA
:10570000712C8AEA94E0A6E0A80FABA704E0802EF3
:10571000912C8091B006853089F400E4FF24F39445
:10572000B3E0EB2E10E18091B006853009F464C13E
:105730000E9480180E942B07109237050E94DF27D5
:1057400081110E94CD06AAEAB4E0EEE9F4E010E08F
:1057500000E0902FDD9081918D1509F4B2C18D2567
:10576000F12CEE24E394282F2E2109F4A5C1F9A2EF
:105770009AA3DE2081E009F480E08BA30E94D90681
:105780008160782F9DA38CA349A15AA16BA18DA103
:105790000E945A27F801E256FB4F8081E826E082FA
:1057A000DD2089F0F801A3E0EE0FFF1FAA95E1F7D5
:1057B000EC55FD4FEF0DF11D8081D12C8F3F19F07D
:1057C000382EDD24D3940D2D10E080910005800F3C
:1057D000912F911D0B976CF18AE090E07C01E01A0B
:1057E000F10AB8016F5F7A4FA70181E095E00E944E
:1057F0002A31B801655F7A4FA7018BE095E00E94DE
:105800002A31A701440F551FB801660F771F615E4B
:105810007A4F8FE195E00E942A31B8016B5E7A4F92
:10582000A70185E195E00E942A318AE08D198093D5
:1058300000058091000590E0232D30E0D901AA0FEA
:10584000BB1FBD016C527D4F9D012B523D4F41E06E
:10585000480F9D1508F41BC1809300050E94C316D4
:10586000D12CC12C42E0A42EBB24B3948091A70478
:10587000D81608F43DC1C1100E94CD06E09118076A
:10588000F0911907309719F088EF96E009959FB7C6
:10589000F8940091E1078091E007081708F4A4C18B
:1058A000081B9FBFF12CE12C10E083E0A82EB12C47
:1058B000CC24C394D12C22242394E016F10608F4BE
:1058C00097C18091B0049091B1040E94BE062091CE
:1058D000FE042695269526952F702817190609F09F
:1058E00060F50E94D9069093B1048093B004809132
:1058F000B204882311F19091FD04991F9927991FF3
:105900008091FE048770880F4091B30461E0892B79
:105910000E9414038091B2049091B30487FF1EC2C9
:10592000A82FBB27A1950CF4B0959A171B060CF075
:1059300015C21092B3041092B2040E942B079091EA
:10594000A90489138093A9048091B0068430E1F4FE
:10595000809116018F708093E9009091E80090FF8C
:1059600013C09091B006943079F48093E90090913F
:10597000F3008091F200892B39F08091E8008E7756
:105980008093E8000E9427048091B006843009F0DB
:10599000C0CE83E08093E9008091E80082FFB9CE19
:1059A0008091E80090E085FF09C050E040E060E2AF
:1059B00070E0CE0101960E94820491E08091E8009F
:1059C0008B778093E800992309F4A3CEE981E15015
:1059D000E33108F028C2F0E0EF5CFD4C0C947D3020
:1059E00083B185FB882780F91C9904C090E0892B3E
:1059F000819377CE92E0FBCF8091B006843009F49A
:105A000036C00E94C3168091370581110DC00E94D7
:105A10009713109213018091BE0683708093120138
:105A20000E94BA11E0921401F092370510929B0681
:105A30000FB6F894A895609260000FBE00936000C6
:105A400083B7817F846083BF83B7816083BF78948D
:105A5000889583B78E7F83BF0FB6F894A895809101
:105A60006000886180936000109260000FBE80919A
:105A7000AF06882309F457CE0E94DF27EAEAF4E054
:105A800081918111F2C2BBA5BE13FACF4CCE90E03A
:105A9000FC01E050FB4FDB015C915183D9015C912B
:105AA0005387358A880F991FFC01E050FB4F10A2E5
:105AB000178E91E0842FCBCEF394EE0C28E0F212F7
:105AC00052CE0F5F1F4F0630110509F042CE8FEF07
:105AD0008EA38FA318A60E94D9068160782F9AA75B
