:100000000C9402030C9449030C9449030C94490387
:100010000C9449030C9449030C9449030C94490330
:100020000C9449030C9449030C941F300C94F33046
:100030000C94B1260C9449030C9449030C94490385
:100040000C9449030C9449030C9449030C94490300
:100050000C9449030C9424270C9449030C944903F1
:100060000C9449030C9449030C9449030C944903E0
:100070000C9449030C9449030C9449030C944903D0
:100080000C9449030C9449030C9449030C944903C0
:100090000C9449030C9449030C9449030C944903B0
:1000A0000C9449030C9449030C944903A847BA5C87
:1000B000295D2A5DBB5C475C485CB25C495C4A5C7C
:1000C0004B5C4C5C4D5C4E5C4F5C0000505C515C8A
:1000D000525C535C545C555C565C0000575C585C49
:1000E000595C5A5C5B5C5C5C5D5C00005E5C5F5C08
:1000F000605C615C625C635C645C0000655C665CC7
:10010000675C685C695C6A5C6B5C00000100010014
:10011000295D2A5D01004C5D4D5D01004E5D4F5D26
:10012000505D515D525D535D545D0000555D565DFF
:10013000575D535C545C555C565C0000575C585CE2
:10014000595C5A5C5B5C5C5C5D5C00005E5C5F5CA7
:10015000605C615C625C635C645C0000655C665C66
:10016000675C685C695C6A5C6B5C000001000100B4
:10017000295D2A5D01004C5D4D5D01004E5D4F5DC6
:10018000505D515D525D535D545D0000555D565D9F
:10019000575D585D595D5A5D5B5D00005C5D5D5D5E
:1001A000595C5A5C5B5C5C5C5D5C00005E5C5F5C47
:1001B000605C615C625C635C645C0000655C665C06
:1001C000675C685C695C6A5C6B5C00000100010054
:1001D000295D2A5D01004C5D4D5D01004E5D4F5D66
:1001E000505D515D525D535D545D0000555D565D3F
:1001F000575D585D595D5A5D5B5D00005C5D5D5DFE
:100200005E5D5F5D605D615D625D0000635D5F5CC2
:10021000605C615C625C635C645C0000655C665CA5
:10022000675C685C695C6A5C6B5C000001000100F3
:10023000905C915C010001000100010001000100DF
:1002400001000100010001000100000001000100A7
:100250000100010001000100010000000100010097
:100260000100010001000100010000000100010087
:100270000100010001000100010000000100010077
:10028000010001000100010001000000A847BA5C64
:10029000295D2A5DBB5C6B5C6A5C0100695C685C23
:1002A000675C665C655C645C635C0000625C615C0E
:1002B000605C5F5C5E5C5D5C5C5C00005B5C5A5C2F
:1002C000595C585C575C565C555C0000545C535C50
:1002D000525C515C505C4F5C4E5C00004D5C4C5C71
:1002E0004B5C4A5C495C485C475C000001000100D3
:1002F000915C905C0100010001000100010001001F
:1003000001000100010001000100000001000100E6
:1003100001000100010001000100000001000100D6
:1003200001000100010001000100000001000100C6
:1003300001000100010001000100000001000100B6
:1003400001000100010001000100000001009D5CAE
:10035000815C825C9E5C2F5D2C5D010000002D5D48
:1003600000002E5D00000000000000000000000002
:10037000C95C305DC85C0000C75C00000000C65C62
:10038000315DCD5C0000CC5C00000000CB5C325DD8
:10039000CA5C0000C55C0000C45C00000000DF5CBB
:1003A00000002B5D0000C35C335D00000001010113
:1003B0000101010101010202020202020202020322
:1003C00003030303030303040404040404040505F2
:1003D00005050506060606060707070707080808B5
:1003E00008090909090A0A0A0B0B0B0C0C0C0D0D64
:1003F0000D0E0E0E0F0F0F101011111112121313FC
:100400001414151516161717181819191A1A1B1B74
:100410001C1D1D1E1E1F20202122222324242526D0
:1004200026272829292A2B2C2D2D2E2F3031323208
:10043000333435363738393A3B3C3D3E3F40414214
:10044000434445464748494A4C4D4E4F50515354FA
:10045000555658595A5B5D5E5F61626465666869AE
:100460006B6C6D6F7072737577787A7B7D7E80822E
:10047000838587888A8C8E8F91939596989A9C9E77
:10048000A0A2A3A5A7A9ABADAFB1B3B5B7BABCBE87
:10049000C0C2C4C6C9CBCDCFD1D4D6D8DBDDDFE254
:1004A000E4E7E9EBEEF0F3F5F8FAFDFF1E03630075
:1004B000680072006F006D00610074006F006E00D4
:1004C00065006D0069006E00690000000E033300D6
:1004D00061007200610068007400000004030904F8
:1004E00009029F00040100A0FA09040000010301B1
:1004F00001000921110100012240000705810308C4
:10050000000A090401000103000000092111010093
:10051000012232000705820320000A080B020201B3
:10052000010000090402000001010000092401008B
:10053000010900010309040300020103000007246C
:10054000010001410006240201010006240202020A
:10055000000924030103010201000924030204012C
:100560000101000905040240000500000525010104
:100570000109058302400005000005250101031261
:1005800001100100000008EDFEB4F40100010200BA
:100590000105010980A101850319012AB700150190
:1005A00026B700950175108100C0050C0901A10155
:1005B000850419012AA002150126A00295017510D3
:1005C0008100C005010906A101050719E029E71509
:1005D00000250195087501810295017508810105C5
:1005E00007190029FF150026FF00950675088100F0
:1005F00005081901290595057501910295017503F5
:100600009101C00011241FBECFEFDAE0DEBFCDBFE5
:1006100004B603FE27C08091680890916908A091F4
:100620006A08B0916B088730904BA740B04BD1F46B
:10063000109268081092690810926A0810926B086C
:1006400014BE84B7877F84BF0FB6F894A8958091B5
:100650006000886180936000109260000FBEE0E04F
:10066000F8E3099514E0A0E0B1E0ECE7F8E602C099
:1006700005900D92A435B107D9F728E0A4E5B4E0C0
:1006800001C01D92A836B207E1F70E94042D0C9418
:10069000ED330C940000882311F0815008958BE015
:1006A00008958B3010F48F5F089580E008950E94C4
:1006B00050188FE70E940A194FEF6FEF8AEA90E017
:1006C0000E94A11886E10C9470188091CC05807F5F
:1006D00082608093CC058091CD058078856780937A
:1006E000CD05E8E5F4E08FEF819394E0E13AF90776
:1006F000D9F761E070E080E090E00E945A2361E069
:1007000070E080E090E00C949623ECECF5E08081C2
:100710008F7080831092A10481E0809391020895EC
:100720000E948503109257040895FF920F931F9320
:10073000CF93DF93082F64531091CD051F77862F39
:1007400090E0E901C80FD91F3881FA0122812223E4
:10075000A9F03F3F69F4815D934A0E94D00AF82EC8
:10076000212F482F602F8EE697E00E94D327F88232
:10077000DF91CF911F910F91FF9008953F3F39F086
:10078000212F432F602F8EE697E00E94E3278FEF03
:100790008883EECF80915604823141F128F488237A
:1007A00041F08C30A9F00895883171F18432D1F193
:1007B000089580915704882331F061E170E080E072
:1007C00090E00C94962361E070E080E090E0F9CF37
:1007D00080915704882329F062E170E080E090E086
:1007E000F0CF62E070E080E090E0EBCF80915704C2
:1007F000882329F064E170E080E090E0E2CF64E0DB
:1008000070E080E090E0DDCF80915704882329F0EC
:1008100068E170E080E090E0D4CF68E070E080E0D4
:1008200090E0CFCF80915704882329F060E670E0F4
:1008300080E090E0C6CF60E270E080E090E0C1CF61
:10084000FB018F322DE5920709F457C090F58B32EA
:100850002DE5920709F4D8C058F489322DE59207A6
:1008600009F47CC08A329D4509F4A4C081E0089552
:1008700022818D323DE5930709F464C008F4CFC0AE
:100880002223A1F32091A20481E028272093A2042F
:100890009091CD058091CE05222309F41EC1906868
:1008A0009093CD05887F8093CE0583E0809392025C
:1008B000DDCF82332DE59207A9F170F480332DE569
:1008C000920731F181339D4589F68281882371F247
:1008D0000E94900382E123C083332DE5920751F1FA
:1008E0008D373DE5930710F628E534E0AB01BC01F8
:1008F000809192020E949503B9CF8281882309F4E6
:10090000B5CF0E949003109256040E94CA03AECF46
:100910008281882309F4AACF0E9490038CE08093FF
:100920005604F3CF8281882309F4A0CF0E9490035C
:1009300088E1F5CF8281882309F498CF0E94900343
:1009400084E2EDCF222309F491CF0E9485038091A8
:10095000570491E0892780935704D7CF8281882359
:1009600009F484CF8091A1059091A205A091A305DF
:10097000B091A40584309105A105B10549F078F442
:100980000197A109B1090297A105B10508F06ECF41
:100990008091A1040E944B038093A10467CF88300B
:1009A0009105A105B105A1F38097A105B10509F055
:1009B0005DCFEECF8281882309F458CF8091A105C5
:1009C0009091A205A091A305B091A4058430910552
:1009D000A105B10549F068F40197A109B109029791
:1009E000A105B10508F042CF8091A1040E945103F6
:1009F000D3CF88309105A105B105B1F38097A1054A
:100A0000B10509F033CFF0CF8281882309F42ECFCE
:100A10008091900291E089278093900227CF222332
:100A200009F424CF4091A1055091A2056091A3053E
:100A30007091A4058091CC0544395105610571057B
:100A400051F0A8F441595109610971094230510529
:100A500061057105D8F49091910221E02927209336
:100A600091029093A104992331F1806F25C0403AFF
:100A700051056105710539F1403E5105610571056A
:100A800081F0483951056105710529F310929102F1
:100A900091E09093A104806F8093CC0590935704CC
:100AA00034CF9091910221E0922790939102992363
:100AB00031F01092A1048F708093CC05D7CE9BE0CB
:100AC0009093A104D2CF109291029BE09093A10445
:100AD000806F8093CC0581E03ECF9F779093CD05CA
:100AE000887F8093CE0582E0E1CEDF92EF92FF9285
:100AF0000F931F93CF93DF93082FF62EE42E809150
:100B000090028823E9F08091A10419E0811101C0CD
:100B10001CE0D0E0C0E08CE0D82E8091A104FE0162
:100B2000D89EE00DF11D1124EC5DFC4F80812E2D2F
:100B30004F2D602F90E00E94DB102196C11768F3C3
:100B4000DF91CF911F910F91FF90EF90DF9008956B
:100B5000EF92FF920F931F93CF93DF930E9454184D
:100B6000882309F18091A1059091A205A091A30588
:100B7000B091A40582319105A105B10509F4E0C049
:100B800038F584309105A105B10509F426C190F42A
:100B900081309105A105B10509F4B4C00297A10502
:100BA000B10509F407C1DF91CF911F910F91FF901B
:100BB000EF90089588309105A105B10509F420C191
:100BC0004197A105B10579F740E069E183E39DC054
:100BD00080329105A105B10509F49FC0E8F4843184
:100BE0009105A105B10509F4BFC04897A105B1055C
:100BF000D1F640E069E183E30E947505CDEFD2E0D4
:100C0000899120E040E063E390E00E94DB10F3E094
:100C1000C030DF07A9F7C7CF80369105A105B10520
:100C200009F4B5C008F4BFCF80589109A109B109F2
:100C3000C1E0D0E081389105A105B10508F0B3CF3E
:100C400029E143E360E0CE010E94DB102196C5302C
:100C5000D105B1F78091B80229E143E360E090E06B
:100C60000E94DB108091BE0229E143E360E090E046
:100C70000E94DB108091C40229E143E360E090E030
:100C80000E94DB1005EB12E08DEFE82E82E0F82EDB
:100C9000E801899126E041E26BE290E00E94DB10DE
:100CA0008BA120E043E360E090E00E94DB108DA97F
:100CB00020E043E360E090E00E94DB10F7018191C7
:100CC0007F0120E043E360E090E00E94DB10F70149
:100CD00083A120E043E363E390E00E94DB10F2E0B5
:100CE000C83BDF07B1F6F80181A129E143E360E0E9
:100CF00090E00E94DB100A5F1F4FF3E003301F07F4
:100D000091F751CF46E061E28BE2DF91CF911F91E5
:100D10000F91FF90EF900C94750540E063E383E33F
:100D20000E947505C1E2D3E0899120E040E063E3D1
:100D300090E00E94DB1083E0C432D807A9F733CFDC
:100D400040E069E183E30E947505C9EDD2E00CED56
:100D500012E0899120E040E063E390E00E94DB1024
:100D60000C171D07B1F71FCF40E069E183E30E9434
:100D70007505CBEED2E0899120E040E063E390E09E
:100D80000E94DB10E2E0CE3EDE07A9F70CCF40E088
:100D900069E183E30E947505C1E2D3E0899120E017
:100DA00040E063E390E00E94DB1083E0C432D807A8
:100DB000A9F7F9CE40E063E380E00E947505C9ED34
:100DC000D2E0899120E040E063E390E00E94DB10F4
:100DD000E2E0CC3DDE07A9F7E6CE40E063E380E049
:100DE0000E947505CBEED2E0899120E040E063E3FC
:100DF00090E00E94DB10F2E0CE3EDF07A9F7D3CEF1
:100E000040E063E380E00E947505CDEFD2E0899178
:100E100020E040E063E390E00E94DB1083E0C0301C
:100E2000D807A9F7C0CE811106C089EA611101C0B7
:100E30008AEA0E943D1E81E0089581E008950C94A5
:100E4000200408950C9421071F93CF93DF9300D0C3
:100E500000D00F92CDB7DEB749835A836B833091B0
:100E60004A0589819A8131111DC06623B9F0222378
:100E7000A9F00E94AD24182F682F89819A810E94C1
:100E8000582469817A81812F0F900F900F900F90D5
:100E90000F90DF91CF911F910C94E0070E94852461
:100EA000182FEFCF0E94AD2469817A81EDCFFC012C
:100EB000262F408151816281738184810C942407A3
:100EC000CF93DF93EC0160E00E945707BE01DF91F2
:100ED000CF910C9422070E9460270E947E258111E9
:100EE00002C00E9417260E9406180C94A3090C94B5
:100EF000A60908950E943A200E9479072FEF84E303
:100F00009CE0215080409040E1F700C000000C942C
:100F100048270F931F93CF93DF93EC0161E00E946A
:100F200057078C01BE010E941F07882389F1BE016B
:100F3000C8010E94DF0A882359F1BE01C8010E943E
:100F40009B1A882329F1BE01C8010E94ED1A88234B
:100F5000F9F0BE01C8010E94101C8823C9F0BE012F
:100F6000C8010E944E19882399F08A81882339F09C
:100F700001158CE5180751F00F3D1C4579F0CE01A5
:100F8000DF91CF911F910F910C941D070E947A075A
:100F900080E0DF91CF911F910F9108950E94172655
:100FA000F7CF08950C94D10781E008950C94D407ED
:100FB000CF93C82F0E94D2078C2FCF910C94D607C5
:100FC000E72FF0E096E0899FE00DF11D112483E00A
:100FD000EE0FFF1F8A95E1F7E60FF11DEE0FFF1FE1
:100FE000E455FF4F859194910895CF93DF930E942C
:100FF000E0070E94C808EC01811521E5920778F509
:10100000811530E5930708F076C08F3B910580F499
:10101000883A910508F064C0853A910508F058C0F7
:101020008430910588F4019779F0D0E0C0E00CC0DD
:101030008115904268F4C11581E0D80728F4CE01EB
:10104000805E9109089788F7CE01DF91CF910895CE
:10105000C11590E4D90748F3DF70D06AF5CF811548
:1010600024E5920778F4811533E5930708F06FC003
:10107000811542E5940708F05AC0D82FCC27C16FDC
:10108000D06AE2CFC1158AE5D80770F4C11599E599
:10109000D90708F06FC0C11528E5D20730F2DC2F60
:1010A000CC27C06FD06AD0CFCE0190568115904228
:1010B00008F0BBCF8D2F8F710E945F0990E0982FB1
:1010C000882788279F719C012C2BE901D062BCCF17
:1010D000C55AD0E0CE51DC4FC881D0E0D064B4CF47
:1010E000C85AD0E0CC0FDD1FCC54DC4F0990D8811A
:1010F000C02DD464A9CF64E0969587956A95E1F7F1
:1011000083702C2F26952695237040E2249F900112
:101110001124382B8C2F8370C1E0D0E002C0CC0F9B
:10112000DD1F8A95E2F7C22BD32BDC688DCF83704D
:10113000992721E030E002C0220F331F8A95E2F7A1
:10114000C695C69580E2C89FE0011124ECCF83705C
:10115000992721E030E002C0220F331F8A95E2F781
:10116000C695C69590E2C99FE0011124C22BD32BEE
:10117000DA686ACF8C2F8F700E945F0934E0D695B1
:10118000C7953A95E1F7CF709C2FEC01D0695CCF01
:1011900082389105B1F1B0F48133910509F475C03D
:1011A00048F48932910509F469C08A32910509F43D
:1011B00073C008958533910509F459C089339105A9
:1011C00001F10895833E9105A9F138F4803E91051F
:1011D000F9F0823E910549F10895863E9105A9F105
:1011E000873E9105C9F1843E910519F520916D075F
:1011F00021FF1FC080916C0784FD14C087EE90E032
:10120000089520916C072370A1F080EE90E008957E
:1012100020916C0720FD47C030916D0730FF09C059
:1012200024FF44C090E080E004C020916C0722FDC0
:10123000F7CF089520916C0722FD3BC030916D07D8
:1012400030FDE3CF24FFF5CFEDCF20916C0723FFD6
:10125000F0CF24FDE7CFD2CF20916C0723FD2CC027
:1012600030916D0731FFEECF84EE90E0089520912C
:101270006C0725FFDECF89E290E0089520916C078E
:1012800025FFD7CF85E390E0089520916C0726FFD6
:10129000D0CF8AE290E0089520916C0726FFC9CF55
:1012A00081E390E0089589E390E0089583EE90E073
:1012B000089582EE90E0089586EE90E00895909172
:1012C0006C0792FF06C0282F28712830F9F4877F19
:1012D000846093FF06C0282F28712831F1F4877E9F
:1012E000846120916D0720FF06C0382F3871383097
:1012F000D9F4877F816021FF06C0282F287128310B
:10130000D1F4877E816194FD877E0895282F247112
:101310002430F9F68B7F8860DCCF282F24712431AC
:1013200001F78B7E8861DDCF382F3171313019F7AD
:101330008E7F8860E0CF282F2171213121F78E7EAA
:101340008861E1CF08950C94A20908950C94A50931
:10135000E82FF0E0EA53FA4F80810895089580EA7B
:101360008A95F1F7089500C008950C94AF09F89498
:10137000E82FE295EF70F0E031A1282F2F7081E087
:1013800090E001C0880F2A95EAF7982F9095932353
:1013900091A392A1892B82A3789408950F931F9310
:1013A000CF93DF9386EC0E94B70987E90E94B709C3
:1013B00086E60E94B70984E90E94B70980E90E9485
:1013C000B70981E90E94B709C5EED3E00DEE13E03D
:1013D00089910E94B7090C171D07D1F7E0ECF5E0E1
:1013E000A6ECB5E011921D9285E0E63CF807D1F736
:1013F00086E00E947C0ADF91CF911F910F910C949F
:101400006B07BF92CF92DF92EF92FF920F931F93E1
:10141000CF93DF930DEE13E0C0ECD5E0C12CD12CBF
:10142000EE24E394F12CF80181918F01F894E82FD8
:10143000E295EF70F0E021A18F70A70102C0440F88
:10144000551F8A95E2F7CA01922F982B91A392A17A
:101450008095892382A378940E94B309E5EEF3E096
:1014600030E020E0B12C4191A42FA295AF70B0E004
:1014700090968C9190E04F7002C0959587954A9513
:10148000E2F780FD35C08E2D022E01C0880F0A9430
:10149000EAF7B82A2F5F3F4F2830310521F7F801CE
:1014A000319780810E94B70955E0C5120E94B509A5
:1014B0008881B816F9F0B88281E0D82AC3942196C1
:1014C00086E0C812B0CF2D2D46E066EC75E080ECCA
:1014D00095E00E947D0A0E9477078D2DDF91CF91C4
:1014E0001F910F91FF90EF90DF90CF90BF900895E4
:1014F00080E0CFCF80E0E1CF0895FF920F931F935C
:10150000CF93DF93F82E092F162FD72FC42F222326
:1015100049F081E08093A5040E94E1269093A40401
:101520008093A3048091A5048823A1F08091A30453
:101530009091A4040E94F926069760F0EF2DF02FF9
:10154000A12FBD2FCE0FDF2FD11DEC17FD0741F4CA
:101550001092A504DF91CF911F910F91FF900895F4
:1015600081918D93F2CF84E08093CC058FE78093B7
:10157000CD058091CE05807880648093CE05EAEA1F
:10158000F4E08FEF819394E0E23FF907D9F71092EE
:10159000A9041092A8041092A7041092A60408951A
:1015A0009091CC05292F2F709595959595959595AA
:1015B0009F523CE0239F900D1124890F0895FF92C4
:1015C0000F931F93CF93DF93FB018F3A2CE5920784
:1015D00008F085C08F394CE5940708F08DC180393B
:1015E0002CE5920750F583384CE5940708F040C18C
:1015F00081382CE5920760F487374CE5940708F0B2
:101600001FC18F322CE5920708F0DFC0C1E011C185
:1016100081384CE5940709F420C182389C45B1F724
:101620008281882309F4EBC08091CC05982F9F70AC
:10163000993008F0E4C09F5F19C18D394CE59407DB
:10164000A0F582392CE5920708F02FC180394CE5CE
:10165000940709F418C181399C45C1F68281882319
:1016600009F4CDC02091CC05822F8595859585956F
:10167000859586300CF0C3C091E0980F9295907FCD
:101680009595959595959595392F3295307F2F7035
:10169000232B2093CC0518160CF0B1C097FFAFC0D8
:1016A0008295807F922F9F70D4C08D394CE594072E
:1016B00009F409C18E399C4509F0A8CF828188239D
:1016C00009F49DC08091CD05982F9F779F3709F42D
:1016D00096C0933708F00EC1935F9F77F2C0853BA9
:1016E0004CE5940709F466C1C8F5813B4CE59407C5
:1016F00009F432C1D8F48F3A4CE5940709F40EC1CD
:10170000803B9C4509F082CF8281882309F477C011
:101710002091CD05322F331F3327331F9091CE05F3
:10172000892F8770880F832B8F5F09C16091CD054A
:101730003091CE052281833B4CE5940709F42EC1FC
:1017400008F420C121112FE7862F881F8827881FC2
:10175000632F6770660F682B42E40FC1883B2CE54E
:10176000920709F43AC180F4863B2CE5920709F40C
:1017700021C1873B9C4509F049CF828181112BC152
:101780008FEF8093A8043BC08A3B2CE5920709F4B5
:101790005AC108F443C18B3B9C4509F037CFC28145
:1017A0006091CD05862F881F8827881F6091CE0500
:1017B0006770660F682BCC2309F455C14FEF5FE1CA
:1017C0008EE697E00E94F3271AC02091CD05322FB4
:1017D000331F3327331FD091CE05D770DD0FD32BA6
:1017E000F22EE894F7F8C28101ED080F10E00655DB
:1017F0001B4FF8014081CC2389F04F3F11F0C0E02E
:1018000018C00E94D00AC82F2F2D482F6D2F8EE6AA
:1018100097E00E94D327F801C083F1CF4F3F31F00A
:101820002F2D6D2F8EE697E00E94E3278FEFF801B2
:1018300080838C2FDF91CF911F910F91FF9008959E
:1018400022812223E1F28757982F9F708091CC0547
:10185000807F892B8093CC05D2CF8281882379F237
:101860008091CC05982F9F7051F2915F9F70F0CFBF
:101870002281222321F28958982F9295907F80917E
:10188000CC058F70E6CF8281882309F4B8CF809190
:10189000CC05982F95959595959595959B3F0CF42E
:1018A000AECF915F9295907FECCF2281222309F4F5
:1018B000A6CF82599CE0899F902D11249F7780911B
:1018C000CD05807815C08281882309F498CF809156
:1018D000CD05982F9F7709F492CF80789F3721F418
:1018E00085678093CD058BCF9D30D8F39D509F7732
:1018F000892BF7CF8F67F5CF2281222309F47FCF81
:101900008F599091CD0580FB97F99093CD058695E1
:1019100087709091CE05987F892B7DC08281882326
:1019200009F46DCF2091CD05322F331F3327331F9C
:101930009091CE05892F8770880F832B815F382F78
:101940003F7080FB27F92093CD05832F8695987FE4
:10195000982B9093CE0553CF8281882309F44FCFE3
:101960006091CD05862F881F8827881F6091CE053E
:101970006770660F682B20E04BE78EE697E00E94C9
:10198000C3273DCF21112FE7862F881F8827881F67
:10199000632F6770660F682B40E4EFCF21112FE7AC
:1019A000862F881F8827881F632F6770660F682B14
:1019B00041E4E3CF828120E081112FE76091CD05E2
:1019C000862F881F8827881F6091CE056770660F55
:1019D000682B43E4D2CF81E0D4CE8281882309F4FE
:1019E0000ECF9091CE05292F2695269526952F70FE
:1019F00081E0820F8F70880F880F880F9778892B6E
:101A00008093CE05982F987709F0F9CE220F220FF8
:101A1000220F8778822B8093CE05F1CE8281882396
:101A200009F4EDCE8091CE05982F987709F4E7CE92
:101A3000982F969596959695915F9F70990F990F0F
:101A4000990F877869CFC2816091CD05862F881F55
:101A50008827881F6091CE056770660F682B40E06D
:101A600050EEC111ADCE50E040E08EE697E00E940E
:101A7000F327DFCE8EE697E00E94F5298091A60439
:101A80009091A7040E94F9262091CE0526952695CF
:101A900026952F702817190609F0A0F50E94E12657
:101AA0009093A7048093A6048091A804882351F101
:101AB0006091CD05862F881F8827881F6091CE05ED
:101AC0006770660F682B2091A90441E08EE697E0CD
:101AD0000E94C3278091A8049091A90487FF0DC09C
:101AE000482F552741950CF45095941715062CF462
:101AF0001092A9041092A8040895890F87FD03C0CD
:101B00008093A90408958FE7FBCFEF92FF920F9384
:101B10001F93CF93DF93EB01E82FD11110C0442323
:101B200021F0F0E0E455FC4FE4916E2F7E2F8E2FD4
:101B3000DF91CF911F910F91FF90EF9008950D2F9E
:101B400010E0282F30E0442329F024553C4FF901C0
:101B5000249130E0F6E0CF9FC0011124EFEFF0E0D8
:101B6000BF010E94A532AB018C2F90E0880F991F16
:101B7000A5E5A49FB001A59F700D1124861B970BAE
:101B8000982F990F980FBF01601B710B629FD001B6
:101B9000639FB00D729FB00D11248B2F9D9FB001DC
:101BA0001124672F7727EF01C61BD70BBE01629F59
:101BB000E001639FD00D729FD00D11247F01E91ABF
:101BC000F108E09EB001E19E700DF09E700D1124B1
:101BD000672F7727E61BF70BE29F8001E39F100D2D
:101BE000F29F100D1124E12F722F4230510599F010
:101BF00048F44115510569F04130510581F0EB2F52
:101C00008D2F07C04430510569F080F046305105F2
:101C1000B1F76E2F8DCFE22F7B2F812FFACFE22FDE
:101C20007D2FF7CFEB2F822F712FF3CF7B2F822FBA
:101C3000ED2FEFCF41E00C94850D30E020E0869F42
:101C4000212D969F200D311D1124C9010895AC014D
:101C50008230910508F408959FEF413E8EE15807C8
:101C600040F49A0195E0369527959A95E1F798E02A
:101C7000920F61E0E62FE90FFF27FF1F9F013595C7
:101C80002795822F229FF001239FF00DF00D112444
:101C90004E175F0738F49FEF920F961758F78FEFA4
:101CA000860F08952F3FE9F361E0620FF6CFE82F2A
:101CB00086FDE0952E2F2F7086FD2F5FE695E69529
:101CC000E695E670F0E0ED50FC4F9181929F902DEB
:101CD000212D112492959F702295207F922B208197
:101CE000920F87FD919580E8890F0895E42FF0E029
:101CF000EE0FFF1FEC5CFE4F408134EE439F412D01
:101D00001124E82FF0E050E0445E5F4FDA01A21B9F
:101D1000B1099D01B7FF03C031952195310993E0C9
:101D2000220F331F9A95E1F7AF01421B530B9A0123
:101D300057FD20E0582F259F212D1124822F089533
:101D4000622F0895E42FF0E0EE0FFF1FEC5FFE4FCF
:101D500061A9621B0895322F50E0FA01EE0FFF1FB8
:101D6000EC5FFE4F91A9905297FD9195440F551F3E
:101D7000FA01EC5CFE4F2081231B330B290F311D30
:101D800097FD3A95620F0895EF920F93972F23E0F6
:101D9000029FB0011124759567956E0D792F0F91F3
:101DA000EF9008950F93CF93DF93D72FC82F47FD60
:101DB00041958EE390E0841B910947FD9395889FA0
:101DC000B001899F700D700D1124229FC001239FC7
:101DD000900D900D1124860F971F0E94270E982FAB
:101DE000990F890F682F600F7D2F8C2FDF91CF9176
:101DF0000F9108950F931F93522F10E0F801EE0FEB
:101E0000FF1FEC5FFE4FA1A9A052BB0B9D01520327
:101E1000F001539FF00D1124000F111FD801AC5C8D
:101E2000BE4F0C910C57110B40039001419F300D98
:101E300011242E0F3F1F37FF02C021583F4F220FA2
:101E4000232F221F330B620F1F910F9108950F93C1
:101E50001F93522F10E0F801EE0FFF1FEC5FFE4FB3
:101E6000A1A9A052BB0B9D015203F001539FF00D9D
:101E70001124000F111FD801AC5CBE4F0C910C5700
:101E8000110B40039001419F300D11242E0F3F1F75
:101E900037FF02C0215C3F4F96E0359527959A9514
:101EA000E1F7620F1F910F91089522E8241B08F4B7
:101EB00020E0620F0895EF92FF920F93970195E053
:101EC000099F200D311D11242F3F310519F010F00D
:101ED0002FEF30E02095382F320F08F43FEF832F9B
:101EE0000F91FF90EF900895EF92FF920F93972F2D
:101EF000093438F4B701601B71096F3F710519F09F
:101F000010F06FEF70E0485F5F4F4131510540F0D6
:101F1000A901485F5F4F4131510510F06FEF70E04C
:101F20006095482F460F08F44FEF842F37FF02C00B
:101F30002D5F3F4F35952795359527956091D105B4
:101F4000620F792F0F91FF90EF900895EF92FF921B
:101F50000F939701201B31092F3F310519F010F025
:101F60002FEF30E0322F3095482F430F08F44FEF1A
:101F7000842F620F0F91FF90EF900895EF92FF92E0
:101F80000F939701201B31092F3F310519F010F0F5
:101F90002FEF30E02095382F320F08F43FEF832FDA
:101FA0000F91FF90EF900895EF92FF920F931F9380
:101FB0000E0D1F2D111D9A0157FF03C0319521955C
:101FC000310994E0220F331F9A95E1F72F3F310535
:101FD00019F014F02FEF30E0200F311F2F3F3105A3
:101FE00019F010F02FEF30E02095382F320F08F461
:101FF0003FEF832F1F910F91FF90EF900895FC0109
:102000009B01009729F480E077FF2BC080E80895BA
:10201000AC0197FF04C044275527481B590BB90151
:10202000640F751F37FD10C0241B350BC901A5E0D7
:10203000880F991FAA95E1F70E94B93280E2861BAA
:10204000F7FF0FC081950895CB0165E0880F991FB8
:102050006A95E1F7BA01621B730B0E94B93280E600
:10206000EECF08950F931F93CF93DF93D62FC72FF3
:10207000182FC901212F201B022FBA010E94FF0F28
:10208000982F990F990F891B800F282F219F212DA1
:102090001124822F6D2F7C2FDF91CF911F910F91F3
:1020A0000895EF920F931F93CF93DF93D62FC72FEF
:1020B000182FC9010E19010FBA010E94FF0F081B4A
:1020C000202F219F212D1124822F6D2F7C2FDF9116
:1020D000CF911F910F91EF9008950F93CF93DF93BE
:1020E000D72FC82FC901BA010E94FF0F682F600FB8
:1020F0007D2F8C2FDF91CF910F910895EF920F9349
:10210000CF93DF93D72FC82FC9010E19BA010E94B0
:10211000FF0F602F681B7D2F8C2FDF91CF910F91C8
:10212000EF9008950C941A0E45E050E06CE170E0D9
:1021300080ED95E00C94793345E050E06CE170E07F
:1021400080ED95E00C949733E0EDF5E085E0808339
:102150008091B2029091B302A091B40281839283E4
:10216000A3838FE784830C949C1080E008950F93E1
:102170001F93CF93DF93C82FD62F8A010E94B510EB
:1021800098E0C99FB00111246C5F7E4F6D0F711DE7
:10219000FB0190819F3F29F0F801E80FF11D90832A
:1021A0008F5FDF91CF911F910F910895E09101040E
:1021B000F09102040994E091FD03F091FE0309946B
:1021C0003F924F925F926F927F928F929F92AF92C7
:1021D000BF92CF92DF92EF92FF920F931F93CF9314
:1021E000DF933C012B01FC01C08188E1C89FC02D19
:1021F000112418E11C0FF12E153710F034E7F32EDF
:102200006091D40566958091D5059091D6050E9480
:102210001D0E382ED0E0CE01880F991F9C012C5F37
:102220003E4F6901CF15B0F081E0143708F080E02F
:10223000DF91CF911F910F91FF90EF90DF90CF90A2
:10224000BF90AF909F908F907F906F905F904F90D6
:102250003F900895FE01E45EFD4F8081F30191817E
:10226000892379F1F60180A9282F2C57330B5901C6
:1022700081A9E82FE052FF0B4F01AA9C9001AB9C73
:10228000300D300D1124EE9FC001EF9F900D900D89
:102290001124820F931F0E94270E082F6091D105F1
:1022A0007091D2058091D305E32C9401A501F20130
:1022B00009950E949210462F282F672FCE010E9469
:1022C000DB10F2E0CF0ED11C2196ACCF61E570E1BE
:1022D0000C94E01064EC7EE00C94E0106EE770E18A
:1022E0000C94E0108F929F92AF92BF92CF92DF92A8
:1022F000EF92FF920F931F93CF93DF935C016B01DB
:10230000FC01C08188E1C89FC02D112418E11C0F79
:10231000912E153710F034E7932E6091D405669511
:102320008091D5059091D6050E941D0E882ED0E093
:10233000CE01880F991F9C012C5F3E4F7901C91572
:1023400088F081E0143708F080E0DF91CF911F9191
:102350000F91FF90EF90DF90CF90BF90AF909F9044
:102360008F900895FE01E45EFD4F8081F50191811B
:102370008923C1F0F70121A92052330B40A94C5702
:10238000550B6091D1057091D2058091D305082D30
:10239000F60109950E949210462F282F672FCE0133
:1023A0000E94DB10F2E0EF0EF11C2196C8CF62E331
:1023B00070E10C94721162ED7EE00C9472116DE686
:1023C00070E10C947211BF92CF92DF92EF92FF9264
:1023D0000F931F93CF93DF936C017B01FC01C081AE
:1023E00088E1C89FC02D112418E11C0F012F15375B
:1023F00008F004E76091D405669566958091D5054F
:102400009091D6050E941D0EB82ED0E0C01770F036
:1024100081E0143708F080E0DF91CF911F910F9198
:10242000FF90EF90DF90CF90BF900895FE01E45EA3
:10243000FD4F8081F6019181892391F06091D10552
:102440007091D2058091D3052B2D4C2FF701099562
:102450000E949210462F282F672FCE010E94DB107A
:102460002196D4CF66E77EE00C94E31160EA7EE02B
:102470000C94E31162EA7EE00C94E3116BEA7EE0D7
:102480000C94E3117F928F929F92AF92BF92CF9262
:10249000DF92EF92FF920F931F93CF93DF935C0134
:1024A0006B01FC01C08188E1C89FC02D112418E197
:1024B0001C0F912E153710F034E7932E6091D40540
:1024C000669566958091D5059091D6050E941D0E62
:1024D000F82E80E48F0D0E94570E90E8892E880E0A
:1024E0008F2D0E94570E20E8722E780ED0E0C9156D
:1024F00090F081E0143708F080E0DF91CF911F91D8
:102500000F91FF90EF90DF90CF90BF90AF909F9092
:102510008F907F900895FE01E45EFD4F8081F5016C
:1025200091818923A1F06091D1057091D2058091AC
:10253000D305EF2C0C2F272D482DF60109950E946D
:102540009210462F282F672FCE010E94DB10219674
:10255000CECF6AEF7EE00C94421267E27FE00C94EB
:102560004212AF92BF92CF92DF92EF92FF920F93FF
:102570001F93CF93DF937C016B01FC01C08188E145
:10258000C89FC02D112428E1B22EBC0EAB2CF4E75D
:10259000FB1510F494E7A92E2091D40530E050E00B
:1025A00040E06FEF7FEF80E090E00E94CD32890144
:1025B000D0E02C2FCA1580F081E0F3E7FB1508F47A
:1025C00080E0DF91CF911F910F91FF90EF90DF900E
:1025D000CF90BF90AF900895FE01E45EFD4F8081E3
:1025E000F70191818923F1F04091D9054150042EE2
:1025F000000C550B47FF18C0C8016091D4050E941C
:102600001D0EAC016091D1057091D2058091D3056A
:10261000F60109950E949210462F282F672FCE01B0
:102620000E94DB102196C5CFFA01E752FA4F858947
:1026300082130AC0FA01EE0FFF1FE752FA4F878D8F
:1026400090A180179107C8F241505109D3CF65E599
:102650007FE00C94B1122F923F924F925F926F9253
:102660007F928F929F92AF92BF92CF92DF92EF9222
:10267000FF920F931F93CF93DF93CDB7DEB72B97C6
:102680000FB6F894DEBF0FBECDBF8C832B015F83E6
:102690004E83FB01F08188E1F89F802D112489830E
:1026A000885E8A838B83853710F024E72B833091F3
:1026B000D9053D839981892F90E09B878A87880F70
:1026C000991FFC01EC5FFE4F6F01FC818F2F90E0A2
:1026D0009C012F5F3F4F39872887EB81FA85FE17D2
:1026E000F0F081E02A81243708F080E02B960FB6C5
:1026F000F894DEBF0FBECDBFDF91CF911F910F9138
:10270000FF90EF90DF90CF90BF90AF909F908F9011
:102710007F906F905F904F903F902F900895EA8543
:10272000FB85E45EFD4F8081F2019181892301F1F7
:102730002090D1053090D2052885398527523A4F0F
:1027400039013C81398310E029813D812317C8F08C
:102750002091D305129F112D1124B101812F0E94C8
:102760009210462F282F672F8A859B850E94DB10A9
:102770008A859B8501969B878A8792E0C90ED11C2A
:10278000ACCFF30181913F01F601A0A8A81ABB08C4
:1027900081A8F3018185881A9908AA9C9001AB9CB5
:1027A000300D300D1124889CC001899C900D900D36
:1027B0001124820F931F0E94270E082FF301EE0FA2
:1027C000FF1FE95DF5406091D405838D948D0E94D3
:1027D0001D0E7C019401A501B101812FEE81FF81C5
:1027E00009951B01F981FF5FF983182FADCF4BE5E8
:1027F0005FE0BC0180E00C942B1344E75FE0BC0178
:1028000080E00C942B1346EA5FE0BC0180E00C945E
:102810002B134EEB5FE0BC0180E00C942B1344EDD6
:102820005FE0BC0180E00C942B13BF92CF92DF924B
:10283000EF92FF920F931F93CF93DF937C01FC01E4
:10284000C08188E1C89FC02D112418E11C0F012F01
:10285000153708F004E76091D1057091D205809199
:10286000D3050E949210D62EC72EB82ED0E0C017E6
:1028700070F081E0143708F080E0DF91CF911F9174
:102880000F91FF90EF90DF90CF90BF900895FE01E1
:10289000E45EFD4F8081F7019181892331F02B2D7A
:1028A0004D2D6C2DCE010E94DB102196E0CFDF92E2
:1028B000EF92FF920F931F93CF93DF938C01FC0154
:1028C000E45EFD4F8081682381F1D090D205D091E4
:1028D000D305C091D105EC2EF12C0E946033282F36
:1028E000C7018C549F4F68E671E00E94B9328E197F
:1028F0009F0997FD039695958795959587952370E4
:102900006C2F289F600D11247D2D8D2F0E94921019
:10291000462F282F672FC801DF91CF911F910F916C
:10292000FF90EF90DF900C94DB10DF91CF911F911F
:102930000F91FF90EF90DF900895DF92EF92FF925A
:102940000F931F93CF93DF938C01FC01C281C111C0
:1029500025C06091D40520E1620F08F46FEF8091EB
:10296000D5059091D6050E941D0E6AE070E00E9488
:10297000A532892B51F40E94603364E770E00E9415
:10298000B932F80161810E9457148C2FDF91CF91E9
:102990001F910F91FF90EF90DF900895C08188E123
:1029A000C89FC02D112488E1D82EDC0E8D2DF4E7B0
:1029B000FD1508F484E7D0E0E82EF12CCE15DF05F4
:1029C00034F0C1E0F3E7FD1500F7C0E0DECFF80119
:1029D0006181CE010E9457142196F0CF1F93CF93AF
:1029E000DF93EC01FC01E45EFD4F80816823A1F0E0
:1029F0000E946033182F0E946033612F782F8091DE
:102A0000D3050E949210462F282F672FCE01DF9109
:102A1000CF911F910C94DB10DF91CF911F910895FE
:102A2000DF92EF92FF920F931F93CF93DF938C016E
:102A3000FC01C281C11125C06091D40520E1620F63
:102A400008F46FEF8091D5059091D6050E941D0E78
:102A500065E070E00E94A532892B51F40E9460333A
:102A600064E770E00E94B932F80161810E94EE14BF
:102A70008C2FDF91CF911F910F91FF90EF90DF90FE
:102A80000895C08188E1C89FC02D112488E1D82E07
:102A9000DC0E8D2DF4E7FD1508F484E7D0E0E82E78
:102AA000F12CCE15DF0534F0C1E0F3E7FD1500F79A
:102AB000C0E0DECFF8016181CE010E94EE142196C4
:102AC000F0CF6F927F928F929F92AF92BF92CF92F0
:102AD000DF92EF92FF920F931F93CF93DF936C01DE
:102AE000FC01C08188E1C89FC02D112448E1B42EAB
:102AF000BC0E9B2CF4E7FB1510F434E7932E2091C9
:102B0000D40530E050E040E06FEF7FEF80E090E0F0
:102B10000E94CD327901D0E08E01000F111F0C5FB1
:102B20001E4F22E8822EC915A0F081E093E79B1585
:102B300008F480E0DF91CF911F910F91FF90EF900B
:102B4000DF90CF90BF90AF909F908F907F906F90CD
:102B50000895FE01E45EFD4F8081F6019181892395
:102B600019F16090D2057090D305A090D1054091E5
:102B7000D9054150042E000C550B47FF19C0C70161
:102B80006091D4050E941D0E682D282F621B08F449
:102B900060E06A0D762D872D0E949210462F282F17
:102BA000672FCE010E94DB1021960E5F1F4FBBCF17
:102BB000FA01E752FA4F9181F80180A998130AC0EF
:102BC000FA01EE0FFF1FE752FA4F878D90A18E1585
:102BD0009F05B0F241505109D0CFE091FF03F09131
:102BE00000040994CF92DF92EF92FF920F931F930C
:102BF000CF93DF93CDB7DEB72A970FB6F894DEBF39
:102C00000FBECDBF182F062FF42E0E94BF1C8823A5
:102C100009F44BC0FF2009F457C0AE014F5F5F4F6E
:102C2000602F812F0E94B710F82EE090F2040F2D34
:102C300010E0C8018E0D911D0B9764F18AE090E0C1
:102C40006C01C01AD10AB8016D507B4FA60183EF09
:102C500094E00E947033B80163507B4FA6018DEF62
:102C600094E00E947033A601440F551FB801660F0F
:102C7000771F6F5E7A4F81E195E00E947033B80153
:102C8000695F7A4FA60187E095E00E947033EA946D
:102C9000E092F2041091F204DE01119640E0842FDC
:102CA000810FF41213C08093F2042A960FB6F894A1
:102CB000DEBF0FBECDBFDF91CF911F910F91FF906F
:102CC000EF90DF90CF900895F12CAFCF5D91252F3D
:102CD00030E090E0BC016E507B4FF901EE0FFF1F1A
:102CE000EC5CFE4F0081FB010183220F331FF901D1
:102CF000EC5FFE4F21A9FB012387558B880F991F9D
:102D0000FC01EE50FB4F10A2178E4F5FC8CF089505
:102D10000E9487160C94A80508950895CF93DF9319
:102D2000FC01C08188E1C89FC02D1124D8EEDC0FC2
:102D3000C53708F0C4E76C2F8D2F0E948C166C2FBE
:102D40008D2FDF91CF910C948D164F925F926F92E1
:102D50007F928F929F92AF92BF92CF92DF92EF922B
:102D6000FF92CF93609125057091260580912705EC
:102D7000909128050E9408276B017C010E94ED2696
:102D80004B015C018092250590922605A0922705B3
:102D9000B0922805A091F204E2EFF4E08A2F90E0CF
:102DA0004FEF5FEF60E070E04C195D096E097F093D
:102DB000A9132AC08093F20480912905C0E08111F3
:102DC00008C08091D005C82FC37019F0C82FC695D0
:102DD000C69580919302813009F440C0882339F16F
:102DE000823009F4F5C0833009F4FDC0CF91FF9023
:102DF000EF90DF90CF90BF90AF909F908F907F909B
:102E00006F905F904F900895278D30A12901712C0C
:102E1000612C441555056605770520F481509F5FA8
:102E20003296C6CF2C0D3D1D30A3278FF8CF1092C0
:102E300094028092D5059092D605A092D705B092C3
:102E4000D80583E3E2EFF4E0A9EDB5E001900D923F
:102E50008A95E1F781E080939302C8CF8091970231
:102E6000C81316C09091D00593702091980230E05D
:102E700081E09217130609F480E081708093960236
:102E8000C73178F4EC2FF0E0E151FC4C0C94EC32BB
:102E900081E0F3CF882359F040E060E080E00E94B9
:102EA000ED1580E004C084E992E00E941514909131
:102EB00094029F5F90939402811186C082E0809378
:102EC00093028091960281117FC0CC2309F489C0BE
:102ED0000E94881684E992E0CF91FF90EF90DF90F6
:102EE000CF90BF90AF909F908F907F906F905F90AA
:102EF0004F900C948E1684E992E00E943212D7CF44
:102F000084E992E00E94D711D2CF84E992E00E9436
:102F10006611CDCF84E992E00E943612C8CF84E9D1
:102F200092E00E943A12C3CF84E992E00E943E12DE
:102F3000BECF84E992E00E946A11B9CF84E992E0A1
:102F40000E94DB11B4CF84E992E00E94DF11AFCF81
:102F500084E992E00E946E11AACF84E992E00E9477
:102F6000A912A5CF84E992E00E94AD12A0CF84E916
:102F700092E00E949D149BCF84E992E00E9410157C
:102F800096CF84E992E00E94271391CF84E992E0E2
:102F90000E94F7138CCF84E992E00E94FD1387CF43
:102FA00084E992E00E94031482CF84E992E00E94B7
:102FB00009147DCF84E992E00E940F1478CF84E950
:102FC00092E00E94611573CFCC2309F40FCF80CF1C
:102FD000C09397028091D0058370809398020E94DD
:102FE000D61083E038CF6091D5057091D6058091D9
:102FF000D7059091D8050E94082760317105810599
:10300000910508F4F3CE10929302F0CEE091FB0309
:10301000F091FC0309951092D905E8EFF5E08FEFE8
:103020009FEF8193919326E0EC30F207D1F7109255
:10303000F204E1E1F5E08FEF9FEF8193919325E0BA
:10304000E532F207D1F70E947E25811104C00E946B
:1030500017260E94A4100E9494108091D0058C7FA6
:1030600011F40C94A41008959091D00521E09227BA
:103070009093D0051092930281110C949C100895A6
:1030800081E00C9434188091D005837011F4109273
:1030900093028091D0058C7F81608093D005089544
:1030A0000E9443180C949C108091D0058370089561
:1030B0009091D005937099F0811109C0946090931C
:1030C000D00510929302662351F00C949C10873126
:1030D00010F09865F4CF880F880F982BF0CF0895E3
:1030E00061E00C945818682F9091D00596959695AC
:1030F00081E0890F873108F081E00C94581881E055
:103100000C947318682F9091D005969596958FEF33
:10311000890F09F486E10C94581881E00C94821808
:103120009091D005937061F08093D1056093D205A2
:10313000433308F042E34093D30521110C949C10D3
:10314000089521E00C949018A0EDB5E01196EC9153
:103150001197F0E0282F13964C91139712966C91CB
:10316000CF0108960C94901881E00C94A418E0ED1F
:10317000F5E09181282F43816281E92FE850FF0B10
:10318000CF010C94901881E00C94B718E0EDF5E0B5
:10319000628120E1620F08F46FEF9181282F438153
:1031A000892F90E00C94901881E00C94C618E0ED03
:1031B000F5E0628120E1621B08F460E09181282F34
:1031C0004381892F90E00C94901881E00C94D718DB
:1031D000E0EDF5E0438120E1420F08F44FEF9181EB
:1031E000282F6281892F90E00C94901881E00C9434
:1031F000E818E0EDF5E0438120E1421B08F440E0EF
:103200009181282F6281892F90E00C94901881E0A1
:103210000C94F9188093D4050C949C102091D4053B
:1032200030E1230F08F42FEF2093D40581110C9483
:103230009C10089581E00C940E192091D40530E182
:10324000231B08F420E02093D40581110C949C10DA
:10325000089581E00C941D190895FC01EE0FFF1FE5
:10326000E80FF91FE45FF94F6183408322830895DB
:10327000ECE0F6E0818360834283339697E0E836A2
:10328000F907C1F7089564E770E08CE096E00C94CC
:10329000A819FA01811101C0FB0109940F931F9332
:1032A000CF938C01FB01C281CC2309F44FC00E9453
:1032B00050258272F801E35CFC45E431F10538F4F5
:1032C000EA5FFB4C0C94EC320E944018C0E08C2F5B
:1032D000CF911F910F9108954DE858E16FE778E184
:1032E0000E944919F3CF4FE758E16DE878E1F8CF34
:1032F00043EC58E164EB78E1F3CF44EB58E163EC45
:1033000078E1EECF45EE58E164ED78E1E9CF44EDA8
:1033100058E165EE78E1E4CF47E059E166EF78E106
:10332000DFCF46EF58E167E079E1DACF49E259E1D2
:103330006AE179E1D5CF4AE159E169E279E1D0CF9B
:1033400081E00E947018C2CF8AE0FBCFC1E0BFCFFE
:10335000539A4BB1477F5BB15860EFB7F8949B012C
:10336000220F331F260F371F280F391F2817390741
:1033700041F4EFBF8FE594E00197F1F700C0000042
:103380000895DC016D91CD0178E05BB9000000C0CB
:1033900067FF4BB9660F000000C000C000C04BB90A
:1033A00000C07A9591F7E2CF0C94130725982D9AD7
:1033B00024982C9A83B185FB882780F91C9905C035
:1033C00090E0892B80932C05089592E0FACFE0914C
:1033D0002C05EE0FEE0FE0932C0543B145FB88273B
:1033E00080F943B144FB222720F944FF02C022E0C8
:1033F00030E0822BE82BE0932C05EF70F0E0ED5FDE
:10340000FB4F808190912B05890F80932B0520E045
:10341000843054F080912A058F5F80932A0560E004
:1034200080E00E94D41921E080912B058D3F54F457
:1034300080912A05815080932A0561E080E00E94F6
:10344000D41921E080912B05082E000C990B64E023
:1034500070E00E94B93280932B05822F08950F935C
:103460001F93CF93DF93C42FD22FFC018281882337
:10347000C9F040932F050E94E12690932E0580937A
:103480002D0580E28C0F883008F050C0C77081E0B5
:1034900001C0880FCA95EAF7DF91CF911F910F9174
:1034A0000C94451E10912F05141335C080912D05E5
:1034B00090912E050E94F926883C910560F5C0E2A6
:1034C000CD0F1D17B9F080E2810F883040F41770DE
:1034D00081E001C0880F1A95EAF70E944C1EC8309F
:1034E00048F481E09D2F977001C0880F9A95EAF704
:1034F0000E94451E802F0E943D1EC830B8F4D77030
:1035000081E001C0880FDA95EAF7DF91CF911F9132
:103510000F910C944C1E80E28C0F883038F4C770E9
:1035200081E001C0880FCA95EAF7EFCFDF91CF9114
:103530001F910F9108950F939C01CB01243F4CE5FF
:10354000340759F1A8F4293DFCE53F0701F12A3D74
:103550004CE53407D1F1283D3C4591F406E221EEDB
:1035600041EE68ED7CE50E942F1A80E00F910895EE
:10357000263FFCE53F07E9F0B0F0273F3C45F9F076
:10358000FC018281882339F110922F05EFCF07E2E9
:1035900025EE45EE69ED7CE5E6CF06E221EE40EE54
:1035A00064EF7CE5E0CF07E225EE44EE65EF7CE5D5
:1035B000DACF06E221EE42EE66EF7CE5D4CF07E2F9
:1035C00025EE46EE67EF7CE5CECF08E221E045EE42
:1035D0006AED7CE5C8CF81E0C9CFCF93DF93EC01E2
:1035E000FB018281882309F419C1C230FCE5DF07A1
:1035F000C0F1C6319CE5D90730F09E012B5F3C45F8
:103600002930310570F50E94912590936D078093C4
:103610006C07C031ECE5DE0709F4CFC008F05BC0F1
:10362000C8308CE5D80709F4B6C088F5C430ECE59D
:10363000DE0709F4A8C0C0F4C2308CE5D80709F44D
:103640009CC080916C078260C330DC4509F498C04F
:1036500080916C0790916D070E949F250E943A20EF
:1036600080E0DF91CF91089580916C078061C63032
:10367000ECE5DE0709F484C080916C078860C730F0
:10368000DC4508F47DC080916C07806279C0CC3045
:103690008CE5D80709F489C070F480916C078C60C0
:1036A000CA30ECE5DE0709F46BC008F478C08091FD
:1036B0006C078E7F65C0CE308CE5D80709F479C0E1
:1036C00080916C078B7FCF30DC4508F459C0809126
:1036D0006C078F7E55C0CC3FECE5DE0709F457C080
:1036E00030F5C3318CE5D80709F46FC078F4C131E7
:1036F000ECE5DE0709F465C0C231DC4509F0A8CF6E
:103700000E943A2080916C078F773AC0C5318CE5D2
:10371000D80709F462C008F476C080916D07816013
:10372000CB3FDC4509F094CF80936D0791CFC11555
:10373000FDE5DF0709F44DC088F480916D078D7FAA
:10374000CE3F9CE5D90781F380916D078E7FCF3FF7
:10375000DC4550F380916D078360E6CFC230FDE514
:10376000DF0709F459C008F444C080E0C330DD45E8
:1037700009F06ECF0E9419266BCF80916C07816093
:1037800080936C0765CF80916C078460F9CF80913E
:103790006D078260C9CF80916C078064F1CF0E9471
:1037A0003A2080916C078068EBCF80916C078D7F09
:1037B000E7CF80916C07877FE3CF80916C078F7D87
:1037C000DFCF80916C078F7BDBCF80916C07837F8D
:1037D000D7CF80916D078C7FA7CF80916C0782FB3C
:1037E000992790F921E0922790FB82F990FB83F9C9
:1037F000C7CF80916D07982F909591708E7F892B00
:1038000090FB81F991CF0E943A2090916C07892F0B
:1038100097FB87F98058B4CF81E0ACCF81E021CF0E
:10382000CF93DF93EB0186319C4511F50E94502523
:103830009A81992399F08A7A91E009F490E0909323
:103840003005811109C089E20E941D250E943125A1
:1038500080E0DF91CF91089585E3F6CF8091300528
:10386000811104C089E20E942425F0CF85E3FBCFBB
:1038700081E0EFCF90933605809335050895E09170
:103880003505F0913605309721F00190F081E02D5B
:10389000099480E00895E0913505F0913605309760
:1038A00021F00280F381E02D0994089520913305E1
:1038B000309134052817390771F0909334058093BF
:1038C0003305E0913505F0913605309721F00680FB
:1038D000F781E02D0994089520913105309132054A
:1038E0002817390771F09093320580933105E091E4
:1038F0003505F0913605309721F00084F185E02DF3
:10390000099408950E94ED2660934605709347053B
:103910008093480590934905609342057093430551
:10392000809344059093450508950E94ED26609389
:103930004605709347058093480590934905609329
:103940003E0570933F05809340059093410508958F
:1039500085B7806885BF85B7806885BF089508955D
:1039600008950C94AF1C0C9465030E94A81C86E774
:1039700095E20E9459270E94B01C0C94B11C81E072
:1039800008950C94BF1C089508950E94D8260E94A3
:10399000CE090E9474270E94D6190C94B31C9F92E2
:1039A000AF92BF92CF92DF92EF92FF920F931F934D
:1039B000CF93DF93CDB7DEB72A970FB6F894DEBF6B
:1039C0000FBECDBF0E94C31C0E94C41C0E94010AEE
:1039D00081110E94821C88E3A82E85E0B82E10E099
:1039E00000E0902E802F0E94A809D82EF501F190BA
:1039F0005F01F81216C00F5F1F4F0630110589F7DF
:103A00008FEF89838A831B820E94E1268160782F51
:103A10009D838C8349815A816B818D810E94811D98
:103A200032C08091B40581FD0E94AE098F2D8D2595
:103A3000F12CEE24E394982F9E2109F44AC00E94B1
:103A4000C11CDE20CC24C394D11001C0C12C88231A
:103A500079F0FE829F82C8860E94E1268160782FDD
:103A60009A8789874E815F8168858A850E94811D3A
:103A7000F801E85CFA4F8081E826E0824C2D6F2D3A
:103A8000892D0E94F2150E94A5160E94E719811146
:103A90000E94951C0E943A0D0E943F1C9091370590
:103AA0008917E9F00E943F1C809337052A960FB6CC
:103AB000F894DEBF0FBECDBFDF91CF911F910F9164
:103AC000FF90EF90DF90CF90BF90AF909F900C94BD
:103AD000D807F394EE0CF8E0FF12ADCF8CCF2A9606
:103AE0000FB6F894DEBF0FBECDBFDF91CF911F910F
:103AF0000F91FF90EF90DF90CF90BF90AF909F908D
:103B00000895DF92EF92FF920F931F93CF93DF936D
:103B1000CDB7DEB72B970FB6F894DEBF0FBECDBF83
:103B20007A878B87F42E052F162FE72ED82E61115A
:103B30000E9470251E821D827E2DEC82DD824F2D1B
:103B4000502F612F8D2D9E812B960FB6F894DEBFDE
:103B50000FBECDBFDF91CF911F910F91FF90EF90DE
:103B6000DF900C94B022FC01808191810C94EF24B1
:103B7000CF93C82F882309F43FC08CEF8C0F813A74
:103B8000A0F46C2F8091990290919A020E941E26B7
:103B9000882329F08C2F0E9424250E9431258C2F08
:103BA0000E941D25CF910C94312580E28C0F883026
:103BB00048F4C77081E001C0880FCA95EAF70E94F7
:103BC0005325F0CFEBE5EC0FE33040F4F0E0EF5B92
:103BD000FB4F808190E0CF910C94561CC85AC7319E
:103BE00058F4EC2FF0E0EE0FFF1FED5EFB4F8081ED
:103BF0009181CF910C946C1CCF910895882329F169
:103C00009CEF980F913A20F40E9424250C943125C2
:103C100090E2980F983050F4877091E001C0990FAE
:103C20008A95EAF7892F0E945925F0CF9BE5980FD6
:103C3000933020F490E080E00C94561C885A873131
:103C400020F490E080E00C946C1C08951F93CF93B7
:103C5000DF93182FEB010E94B81D209731F4812FBC
:103C6000DF91CF911F910C94FE1D8FE99FE001978A
:103C7000F1F700C000002197F0CF6AE070E08933CF
:103C800011F460E570E00C94261E882321F00E9458
:103C900053250C9431250895882321F00E9459253D
:103CA0000C9431250895CF92DF92EF92FF920F93FB
:103CB0001F93CF93DF93DC01C62F972F12962C9181
:103CC000129715964C911597342F32953F70872F88
:103CD00082958F70082F10E08C3090F5F801E65E29
:103CE000FB4C0C94EC32D72FDF70907F11F0D29503
:103CF000D07F2223A9F0DD2359F080E28C0F883099
:103D000010F0C11109C08D2F0E9453250E9431254A
:103D10008C2F0E94B81D14C08D2F0E946325F6CFF2
:103D20008C2F0E94FE1DDD2359F080E28C0F88301D
:103D300010F0C11117C08D2F0E9459250E94312506
:103D4000085011090430110508F046C10E943F1CBB
:103D5000DF91CF911F910F91FF90EF90DF90CF9067
:103D60000C94D8078D2F0E946925E8CF872F8F707C
:103D7000907F903211F08295807FC13061F42223D0
:103D800029F03630E8F60E94451EDACF3530C0F60D
:103D90000E944C1ED5CF222341F03323A1F340FFD4
:103DA000B7CF4F7015964C93EECF332389F3C933B9
:103DB00009F00AC12FEF87EE93E021508040904038
:103DC000E1F700C000008C2F0E94FE1DB9CF872FA5
:103DD00086958695837061F0813009F0B1CF862F8A
:103DE0009370211102C090E080E00E946C1CA8CF6B
:103DF000862F9370211102C090E080E00E94561C33
:103E00009FCF872F837009F044C0211199CF862F4F
:103E1000829586958770880F880F6F70C62ED12C7B
:103E2000F12CE12C082E04C0CC0CDD1CEE1CFF1C78
:103E30000A94D2F740E050E0BA01C4FF0FC04FE04F
:103E400050E060E070E004C0440F551F661F771F0C
:103E50008A95D2F74095509560957095292F2695B3
:103E600026952370CB01BA016C297D298E299F29C3
:103E7000223049F058F4213019F00E946E2360CFAF
:103E80000E945C235DCF0E9480235ACF0E945A2358
:103E900057CF8695222311F0872F8170882309F44C
:103EA0004FCF8C2F829586958770880F880F6C2F47
:103EB0006F70C62ED12CF12CE12C082E04C0CC0C36
:103EC000DD1CEE1CFF1C0A94D2F740E050E0BA0162
:103ED000C4FF0FC04FE050E060E070E004C0440F4A
:103EE000551F661F771F8A95D2F7409550956095AC
:103EF0007095292F269526952370CB01BA016C2940
:103F00007D298E299F29223049F058F4213019F05B
:103F10000E94332415CF0E94212412CF0E944524F1
:103F20000FCF0E9496230CCFD72FDF70222329F0CA
:103F30008D2F0E94BC238C2F26CF862F0E944C1ED3
:103F40008D2F0E94DD23FCCE613F19F148F4603FC4
:103F500091F0222369F13111DBCE892F8F711DC0C1
:103F6000623FF1F0633FA9F72223F9F0872F8F71A9
:103F70000E94A723E5CE222341F0353008F0E0CEA1
:103F8000892F8F710E940024DBCE363008F0D8CE06
:103F9000F7CF872F8F712223A1F20E94BC23D0CEAE
:103FA000872F8F712223C9F3CCCF0E94A223C8CEC2
:103FB000332379F0C93341F49FEF27EE83E091502A
:103FC00020408040E1F7FDCE8FE39CE90197F1F7B7
:103FD000F8CE892F8F71B5CFDF91CF911F910F91BF
:103FE000FF90EF90DF90CF9008950F931F93CF93A2
:103FF000DF93EC01688179818A810E94F9248C0128
:104000000E9457240E945923B801CE01DF91CF911D
:104010001F910F910C94531ECF93DF93EC018B8172
:104020009C81892B29F08881998189238F3F19F4FC
:10403000DF91CF910895CE010E9489078823C1F3B3
:10404000CE010E94F51FCE01DF91CF910C94600745
:1040500090E080E00E94561C90E080E00E946C1C82
:104060000E9470250E9473250C9431250E942B25F7
:104070000C9428200E9460250C943620E92FE295AC
:10408000EF70E250EE3070F4F0E0EA5DFB4C0C941F
:10409000EC32803F19F020F4883E20F481E008954E
:1040A000843FE1F380E00895883EC0F3813FD1F77B
:1040B000F5CF93FB882780F908950E94EF240C9494
:1040C0003E20CF93DF9300D000D00F92CDB7DEB764
:1040D0000F900F900F900F900F90DF91CF91089558
:1040E000CF93DF9300D000D000D0CDB7DEB72696B7
:1040F0000FB6F894DEBF0FBECDBFDF91CF9108950C
:104100001F93CF93DF93C0914B0516E080914C0530
:104110008C1304C0DF91CF911F910895D0E01C9FB4
:10412000F0011D9FF00D1124E35BFA4F4081518196
:1041300062817381848195810E9470202196C7706D
:10414000E5CF40917D0550917E0560917F0570918E
:10415000800580918105909182050C9470201F93B9
:10416000CF93DF9380918205807FA9F480917F05B2
:10417000882389F080914B05C0914C0560917D05A5
:1041800070917E05A0918005B0918105D62FD7232F
:1041900016E0C81304C0DF91CF911F91089590E0FD
:1041A000109711F0DF3F19F401968770F2CF189F36
:1041B0009001199F300D1124F901E35BFA4F418101
:1041C0004713F2CF40814613EFCF42814111ECCF2C
:1041D000438154814A1B5B0B483C510528F7809171
:1041E00082058F70806180938205F901EE5AFA4F43
:1041F00080818F70806180838DE795E00E940C2024
:10420000DF91CF911F910C948020AF92BF92CF92FB
:10421000DF92EF92FF920F931F93CF93DF93CDB76F
:10422000DEB761970FB6F894DEBF0FBECDBF8C012D
:1042300085E0F801DE011D9601900D928A95E1F767
:10424000F80140815181E2808DE7C82E85E0D82EAB
:1042500060918005709181056115710509F461C156
:1042600090917D0520917E05892F82238F3F09F44F
:1042700058C1A380B480F0907F05F501E61BF70BD1
:10428000FF2009F4FCC080918205382F307FE83C84
:10429000F10508F0B2C0311179C0FE2C251323C0FE
:1042A000941321C0E1101FC08F708061809382053C
:1042B0000E94A120C6010E940C2080918205F80175
:1042C00085838F2D61960FB6F894DEBF0FBECDBFEC
:1042D000DF91CF911F910F91FF90EF90DF90CF90E2
:1042E000BF90AF900895AB2829F0842F85238F3F8E
:1042F00009F033C180E0F82FF170DF2E80FF3CC061
:1043000080914B0520914C0536E0821315C04D87F6
:104310005E878D859E850E94EF24292F22952F7020
:104320002230F0F0243018F59F70F1F0F8019581FB
:10433000907FD1F4D12C1EC090E0389FF001399FBE
:10434000F00D1124E35BFA4F6181651306C06081B3
:10435000641303C062816E110FC001968770D5CFC0
:104360009F7011F0882331F3805E883018F3C80104
:104370000E940C20FD2CA5CFEE2009F4A2CF809145
:104380008205816080938205F12C9BCF251306C0A6
:10439000941304C0F801EE2009F48DC04D875E87A8
:1043A0008D859E850E945D20882319F1EE2009F1FC
:1043B00080918205803270F020917D0530917E05DC
:1043C00038872F831986BB86AA868C87CE010796ED
:1043D0000E940C2086E0F801ADE7B5E001900D9257
:1043E0008A95E1F70E94AF200E94A120FF24F39458
:1043F00068CFC8010E940C20F9CF311113C07A2D6B
:10440000B98AA88A6E2D89890E9461208DE795E07E
:104410000E940C2086E0F60111928A95E9F70E942D
:10442000A120B2CF25130FC094130DC0E1100BC013
:10443000F8018583C8010E940C2086E0F6011192E4
:104440008A95E9F73ECF4D875E878D859E850E94D0
:104450005D20882371F2EE2061F280918205803226
:1044600008F4B8CF20917D0530917E053A832983E9
:104470001B82BD82AC828E83CE010196A9CFE83C1F
:10448000F10508F041C0FE2CEE2009F4B2CF25134F
:104490002AC0941328C08091820580FD1BC0982FEC
:1044A000907FC1F0F8018583903F31F0982F907F85
:1044B000905F8F70892B8583C8010E940C2086E055
:1044C000F801ADE7B5E001900D928A95E1F70E9401
:1044D000A120F7CE86E0F801ADE7B5E001900D929E
:1044E0008A95E1F7EECE4D875E878D859E850E9489
:1044F0005D2081116FCF809182058160809382055C
:10450000C8010E940C20DDCE7A2DB98AA88A6E2DB2
:1045100089890E94612086E0F60111928A95E9F767
:10452000D6CFEE2009F465CF4D875E878D859E85B9
:104530000E945D20F82E882309F45BCF86E0F80105
:10454000ADE7B5E001900D928A95E1F78DE795E032
:104550000E94B31D0E94AF20BACF81E08E25CBCE42
:104560001F93CF93DF93CDB7DEB72C970FB6F89498
:10457000DEBF0FBECDBF4F83588769877A878B8791
:104580009C87CE0107960E940521882369F08A85C1
:104590009B85892B39F04F815885842F85238F3F48
:1045A00009F071C016E05FC086E0FE013796DE01BB
:1045B000119601900D928A95E1F78A859B85892B4A
:1045C00089F38F81988589238F3F61F320914C0572
:1045D00030E0C90101968770992740914B05481733
:1045E000190671F40E943A2010924C0510924B0566
:1045F00086E0EDE7F5E0DF011D928A95E9F7D2CF7D
:1046000096E0929FD001939FB00D1124A35BBA4F07
:10461000FE01319601900D929A95E1F780934C0539
:104620000E948020BFCF819FC0011124835B9A4FDD
:104630000E9405218823E9F0E0914B051E9FF001BF
:104640001124E35BFA4F408151816281738184813F
:1046500095810E94702080914B0590E001968770B3
:10466000992780934B0580914B0590914C058913B8
:10467000DACF2C960FB6F894DEBF0FBECDBFDF9118
:10468000CF911F91089569857A858B859C850E94BD
:10469000702088CF08950C944A230E944B23609386
:1046A000A5057093A6058093A7059093A8050C9483
:1046B000282008950C944D230F931F930091A50576
:1046C0001091A6052091A7053091A805602B712BAC
:1046D000822B932B1F910F910C944D230F931F93BB
:1046E0000091A5051091A6052091A7053091A80578
:1046F00060237123822393231F910F910C944D23E8
:104700000F931F930091A5051091A6052091A70571
:104710003091A80560277127822793271F910F9159
:104720000C944D230C944A230C9492230E949423BE
:104730006093A1057093A2058093A3059093A405AF
:104740000C94282060E070E0CB010C9496230F932A
:104750001F9341E050E060E070E08A019B0104C0DB
:10476000000F111F221F331F8A95D2F7C901B8010C
:104770001F910F910C9496230F931F9341E050E0EB
:1047800060E070E004C0440F551F661F771F8A95D4
:10479000D2F78091A1059091A205A091A305B091B7
:1047A000A4058A019B01082B192B2A2B3B2BC9013D
:1047B000B8011F910F910C9496230F931F9341E022
:1047C00050E060E070E004C0440F551F661F771F83
:1047D0008A95D2F7CB01BA01609570958095909536
:1047E0000091A1051091A2052091A3053091A40587
:1047F00060237123822393231F910F910C9496239E
:104800000F931F9341E050E060E070E004C0440F5C
:10481000551F661F771F8A95D2F78091A105909149
:10482000A205A091A305B091A4058A019B010827C8
:1048300019272A273B27C901B8011F910F910C9412
:1048400096230F931F930091A1051091A20520912B
:10485000A3053091A405602B712B822B932B1F9104
:104860000F910C9496230F931F930091A105109123
:10487000A2052091A3053091A40560237123822312
:1048800093231F910F910C9496230F931F930091E4
:10489000A1051091A2052091A3053091A4056027E0
:1048A0007127822793271F910F910C9496230895C7
:1048B000990F990F990F890F982F977041E001C0B8
:1048C000440F9A95EAF786958695869595E0899F97
:1048D000F0011124ED57FA4F30E020E070E05191E3
:1048E000DF011197CB01022E02C0969587950A949D
:1048F000E2F7817081958527842385278C932F5F2C
:104900003F4F2530310559F70895990F990F990FA9
:10491000890F982F977086958695869525E0829FBA
:10492000F0011124ED57FA4F50E040E080E0219172
:1049300030E0092E02C0369527950A94E2F72170DF
:104940003327042E01C0220F0A94EAF7822B4F5F0F
:104950005F4F4530510559F70895BF92CF92DF92CE
:10496000EF92FF920F931F93CF93DF938C01C09030
:10497000A105D090A205E090A305F090A405809138
:10498000A5059091A605A091A705B091A805C82AF4
:10499000D92AEA2AFB2ACFE1D0E0BC2ED701C601F2
:1049A0000C2E04C0B695A795979587950A94D2F7D3
:1049B00080FD0EC0219788F7B12C8B2DDF91CF9110
:1049C0001F910F91FF90EF90DF90CF90BF900895CF
:1049D000B8018C2F0E94F507019761F3EECFCF93BA
:1049E000DF93EC010E94AD24BE01DF91CF910C94C6
:1049F000F5071F93CF93DF93EB0190914A0599231D
:104A000031F0CB01DF91CF911F910C94EF248823DB
:104A100079F0CB010E94AD24182F682FCE010E949F
:104A20005824BE01812FDF91CF911F910C94F5077F
:104A3000CB010E948524182FF4CF682F8091990212
:104A400090919A020C945426682F8091990290912B
:104A50009A020C9456268091990290919A020C9495
:104A60005826E0919902F0919A028091B3058083D3
:104A7000E0919902F0919A0280819091B205892B80
:104A80008083E0919902F0919A0280819091B10522
:104A9000892B80838091990290919A020C944B1CEF
:104AA0008091B30508959091B305892B8093B30548
:104AB000089580959091B30598239093B305089538
:104AC0001092B30508959091B205892B8093B20599
:104AD000089580959091B20598239093B20508951A
:104AE0001092B20508951092B105089580E00895DE
:104AF0006FEF7FEF90E080E00C94C53390E080E0B2
:104B00000E94913321E08B3E9E4F09F020E0822FDE
:104B1000089582E090E00C94893383E090E00C9457
:104B20008933CF9384E090E00E948933C82F81E2DB
:104B300090E00E948933982F8C2FCF910895CF93C6
:104B4000C92F682F84E090E00E94A7336C2F81E288
:104B500090E0CF910C94A733AB01BC018FE090E0C3
:104B60000C94B93360E070E0CB010E94AC250C944A
:104B700057036BEE7EEF90E080E00E94C53360E06B
:104B800082E090E00E94A73360E083E090E00E9422
:104B9000A7331092A5051092A6051092A7051092B2
:104BA000A80560E084E090E00E94A73360E081E225
:104BB00090E00E94A73360E085E090E00E94A73378
:104BC00060E086E090E00E94A7336FEF87E090E01E
:104BD0000E94A73340E050E0BA0188E090E00E94D4
:104BE000B93360E08DE090E00E94A73340E050E0F0
:104BF000BA0188E190E00E94B93360E087E190E07B
:104C00000E94A73340E050E0BA018CE190E00E949E
:104C1000B93360E080E290E00E94A73340E050E0CA
:104C2000BA0188E190E00E94B9330C94B2250C944B
:104C3000B925682F8EE090E00C94A733662349F0E5
:104C4000FC01329608962191261729F0E817F907FA
:104C5000D1F780E0089581E008959C01FC0132962F
:104C60009FEF80E04191461751F09F3F19F44111A9
:104C700001C0982F8F5F8630A9F79F3F09F40895F0
:104C8000290F311D97FD3A95F90162830895FC01C2
:104C9000329608962191261303C0DF0111971C92CA
:104CA000E817F907B9F708950C942D260C944726B8
:104CB000029626E0FC0111922A95E9F708950895DD
:104CC00008950C94602680915F08843049F10E9419
:104CD000612680E00E94D8071092B50588E190E037
:104CE00020E40FB6F894A895809360000FBE20933F
:104CF000600083B7817F846083BF83B7816083BF97
:104D00007894889583B78E7F83BF0FB6F894A89563
:104D100080916000886180936000109260000FBEF7
:104D200008950895CF930E945F260E94010A0E9471
:104D30009126C0E08C2F0E94A809811105C0CF5F89
:104D4000C630C1F7CF91089581E0FCCF08950C944F
:104D5000A6260E943A200E943F1C0E94D8070C946D
:104D6000A7261F921FB61F9211248F939F93AF9374
:104D7000BF938091B505811113C080916807909110
:104D80006907A0916A07B0916B074196A11DB11DFB
:104D90008093680790936907A0936A07B0936B07A5
:104DA000BF91AF919F918F911F901FBE1F9018953B
:104DB00082E084BD93E095BD9AEF97BD80936E002D
:104DC00008952FB7F8948091680790916907A09192
:104DD0006A07B0916B072FBF08952FB7F8946091C1
:104DE00068077091690780916A0790916B072FBFE0
:104DF00008959C014FB7F8948091680790916907D6
:104E0000A0916A07B0916B074FBF821B930B089567
:104E1000CF92DF92EF92FF922FB7F894C09068077D
:104E2000D0906907E0906A07F0906B072FBFA70149
:104E30009601261B370B480B590BCA01B901FF908D
:104E4000EF90DF90CF90089578941F921FB61F9235
:104E500011248F939F93AF93BF9380916807909194
:104E60006907A0916A07B0916B070196A11DB11D5A
:104E70008093680790936907A0936A07B0936B07C4
:104E8000BF91AF919F918F911F901FBE1F9018955A
:104E900087E797E7909301088093000888E19AE0FC
:104EA0000FB6F894A895809360000FBE90936000B1
:104EB000FFCF909355048093540408950C94782563
:104EC0000E94010A8FE39CE90197F1F700C00000FE
:104ED0000E94010A80E00E94A80980FF04C00E948D
:104EE0005E270C94482708950E947E25811102C0F8
:104EF0000E9417260E9489258093B4050E9491255F
:104F000090936D0780936C070E948D25682F70E049
:104F100090E080E00E945A236091A1057091A20563
:104F20008091A3059091A4050C949423881F882751
:104F3000881F089591E0883F08F490E0892F089534
:104F4000982F907F903BE9F040F49039D1F0903A5F
:104F5000C1F09038B1F080E00895903D19F020F450
:104F6000903CC9F782E00895903E59F0903F99F740
:104F7000815F8F3080F7E82FF0E0EC5BFB4F8081A2
:104F8000089583E008950F93022F0F77242F2F7732
:104F90006F70462F406BDC01ED91FC9163E070E097
:104FA00009950F9108950F93022F0F77242F2F77D4
:104FB0006F70462F4069DC01ED91FC9163E070E079
:104FC00009950F9108950F93022F0F77242F2F77B4
:104FD0006F70462F4068DC01ED91FC9163E070E05A
:104FE00009950F9108950F931F93411520E25207E1
:104FF00044F49A01305E4115504E2CF430E020E02C
:1050000002C02FEF3FE38901000F012F001F110B9A
:1050100011952F776F70462F406EDC01ED91FC915A
:1050200063E070E009951F910F910895FC0173836F
:1050300062830895FC01758F648F0895CF93DF9389
:10504000EC011DA21FA21EA2BC01685D7F4F40ECB7
:1050500088519F4F0E94292A1B821A821D821C821E
:105060001F821E82198618861B861A861D861C863C
:105070001F861E86198A188A1B8A1A8A1D8A1C8A0C
:105080001F8A1E8A198E188E1B8E1A8E1D8E1C8EDC
:105090001F8E1E8E19A218A2DF91CF910895EF9254
:1050A000FF920F931F93CF93DF93EA018A01060FBC
:1050B000111D88519F4F7C01C017D10739F4DF9132
:1050C000CF911F910F91FF90EF9008956991C701C3
:1050D0000E94302AF1CFFC01718360830895FC01A6
:1050E00071A360A30895AF92BF92CF92DF92EF9227
:1050F000FF920F931F93CF93DF9300D00F92CDB702
:10510000DEB77C016B01142FB22EA02EDC01959628
:105110008C9195978430A9F55A96ED91FC91309732
:10512000E9F1CB01019763E070E00E94A532CB0169
:10513000880F991F860F971F4983BA820B834C2DC6
:10514000481B9E012F5F3F4FBC01C7010995D70146
:105150005E96ED91FC91309731F00A2D2B2D412F69
:10516000B601C70109950F900F900F90DF91CF9175
:105170001F910F91FF90EF90DF90CF90BF90AF9075
:1051800008956230710509F455C06330710599F0D6
:105190006130710509F481C0D12CC12CD7015C9616
:1051A000ED91FC91309799F20A2D2B2D412FB601EC
:1051B000C7010995CCCF842F807F803A11F148F444
:1051C0008038D1F0803951F7D7011496ED91FC91D8
:1051D0000AC0803ED9F0803FF1F0803BF9F6D7015C
:1051E0001296ED91FC913097C9F2123FE9F02A2D09
:1051F0004B2D612F6F701BC0D7011696ED91FC915E
:10520000F2CFD7011896ED91FC91EDCFD7011A9608
:10521000ED91FC91E8CF423F09F6D7011C96ED9144
:10522000FC91309709F4BACF2A2D4B2D62EFC701BC
:1052300009958DCF842F807F803DB1F0803FC9F0EC
:10524000803C09F0ABCFD7011E96ED91FC913097D1
:1052500009F4A4CF812F8D7F4B2D612F6F70813F7B
:1052600089F0C701099573CFD7015096ED91FC9154
:10527000EECF433F51F4D7015296ED91FC91309718
:1052800009F48CCF4B2D612FECCF413F09F086CF35
:10529000D7015496ED91FC91F2CF842F0E949A276A
:1052A000882359F0D7015696ED91FC91309709F477
:1052B00075CF612FC70109954ACF163F09F06ECF10
:1052C000D7015896ED91FC91F1CFFF920F931F9368
:1052D000CF93DF93EC01162F862F0E949A27882305
:1052E00091F0FDA081E08DA300E020E0412F61E07E
:1052F00070E0CE010E947328FDA2DF91CF911F9133
:105300000F91FF900895812F0E9496274DA1882329
:1053100009F443C0443029F01AA381E090E09FA330
:105320008EA3812F0E94A027813051F08823A9F0FD
:10533000823089F0833079F01DA21FA21EA2DDCF3A
:105340008DA300E020E0412F61E070E0CE010E94DB
:1053500073281DA2D2CF8DA3D0CF103FB1F0173F3D
:1053600059F72EA13FA1C90163E070E00E94A53268
:10537000FE01E80FF91F12A3B9016F5F7F4F7FA3F2
:105380006EA30CA12BA14AA1E1CF84E08DA31AA3A7
:1053900081E090E09FA38EA3B0CF442309F4ADCF6A
:1053A0002EA13FA1C90163E070E00E94A532FE0179
:1053B000E80FF91F12A3B9016F5F7F4F7FA36EA3A0
:1053C0008130910569F0029709F097CF0CA12BA1CC
:1053D0004AA1CE010E9473288DA18430C9F68DCFD9
:1053E00000E0423009F089CFF2CFCF92DF92EF9206
:1053F000FF920F931F93CF93DF93EC01E8A1F9A1E4
:10540000309709F009956E0188EEC80ED11CC601CF
:105410000E945F2A10E000E0E82EF12C0E151F0517
:1054200048F0DF91CF911F910F91FF90EF90DF90A7
:10543000CF90089560E0C6010E94732A682FCE01C4
:105440000E94652961E0C6010E94832A0F5F1F4FF9
:10545000E5CFFC0142837483638311821082089537
:105460001F93CF93DF93EC01162F0E949A2A482FA7
:10547000298130E0C90101966A8170E00E94B93249
:1054800058815817190641F4842F0E949D2A80E004
:10549000DF91CF911F9108958B819C81280F391F37
:1054A000F9011083898190E001966A8170E00E9481
:1054B000B9328983842F0E949D2A81E0E9CFCF935E
:1054C000DF93EC010E949A2A99812881921740F07B
:1054D000C92FC21B0E949D2A8C2FDF91CF91089566
:1054E000CA819C0FF5CFFC018081860F9927991FF7
:1054F000628170E00E94B93223813481280F391F04
:10550000F901808108951F93CF93DF93EC01162F4B
:105510000E949A2A282F8881810F9927991F6A81D2
:1055200070E00E94B9328883822FDF91CF911F9162
:105530000C949D2A8FB7F89408958FBF089508950D
:1055400008950F931F93CF93DF9300D000D000D026
:105550000F92CDB7DEB78C01CE0101960E94FF2CD1
:1055600081110BC027960FB6F894DEBF0FBECDBFDA
:10557000DF91CF911F910F9108958A810E94A027FA
:105580009A819D839B819E839C819F8381110AC008
:105590008981843079F0873069F0863069F0853010
:1055A000D9F681E0AE014B5F5F4F682FC8010E94C2
:1055B0004F28D2CF83E0F6CF82E0F4CFDF92EF9294
:1055C000FF920F931F93CF93DF9300D000D0CDB7FE
:1055D000DEB77B01142FD22E4A832B830C83842FBA
:1055E0000E94A027811129C082E0E816F10401F190
:1055F00083E0E816F10439F0EA94EF2869F485E0D5
:10560000173F21F404C087E0073F09F084E0898355
:10561000CE0101960E94FA2C0F900F900F900F90E0
:10562000DF91CF911F910F91FF90EF90DF90089540
:1056300087EFD812EBCF86E0EACF12951F7019835F
:10564000E7CF0E94B30A8EE697E00E941E286EED17
:105650007AE28EE697E00E946B2861EA7AE28EE6B3
:1056600097E00E946F286FE97AE28EE697E00E9449
:105670001A2860EA7AE28EE697E00C9416289B01DD
:1056800040915F084430C1F4FC0191819F70909378
:10569000E90050E040E064E070E0C9010E94C52DDF
:1056A00081110BC09091E80095FD07C09091E80032
:1056B0009E779093E800089582E0089520915F0816
:1056C000243091F4FC0181818F708093E9009091E6
:1056D000F3008091F200892B49F08091E8008E77E9
:1056E0008093E8000C94732F82E0089580E0089581
:1056F000FC0180915F08843059F491819F709093F0
:10570000E9008091E80080FF03C0CF010C945E2B7C
:1057100008959B0140915F08443011F080E00895A6
:10572000FC0196819F709093E9008091E80082FFD0
:10573000F5CF8091E80085FFF1CF50E040E064E0D4
:1057400070E0C9010E94142E8091E80085FD05C01B
:105750008091E8008B778093E80081E00895809144
:10576000BE0508950895CF93DF9300D00F92CDB773
:10577000DEB790915F08943019F589837B836A8343
:1057800082E08093E9008FEF9091E800815095FDD1
:1057900006C095ED9A95F1F700008111F5CF809143
:1057A000E80085FF0DC050E040E063E070E0CE010E
:1057B00001960E94C52D8091E8008E778093E800C5
:1057C0000F900F900F90DF91CF910895BC0184E06E
:1057D0000C94B32BBC0183E00C94B32BCF93DF93D9
:1057E000EC0181E08093E9008FEF9091E800815017
:1057F00095FD06C095ED9A95F1F700008111F5CF62
:105800008091E80085FF14C050E040E068E070E05F
:10581000CE010E94C52D8091E8008E778093E8002C
:1058200088E0FE01A6EBB5E001900D928A95E1F7C4
:10583000DF91CF91089580915E08811109C00E9487
:10584000A42F0E9401308091E20084608093E200E6
:10585000089510925E08089508950895089542E00D
:1058600061EC81E00E94202F42E261EC82E00E9424
:10587000202F42E361E883E00E94202F42E361E8A9
:1058800084E00C94202F80916108833009F45FC07C
:1058900030F48130C1F1823009F49BC008958A3020
:1058A00009F487C08B3009F46DC0893009F04EC00F
:1058B00080916008813209F049C08091640890911C
:1058C0006508029708F042C08091E800877F8093C6
:1058D000E8008091E80082FF35C09091F30080914C
:1058E000F200029729F48091F1008B7F813021F43E
:1058F0008091F1008093BE058091E8008B778093C2
:10590000E8000C94542F80916008813AF9F480915A
:10591000E800877F8093E800809164089091650893
:10592000892B61F468E086EB95E070E00E94632EBD
:105930008091E8008B778093E800089560E090E024
:1059400080E0F3CF80915F088111C3CF08958091EB
:105950006008813AD9F78091640890916508892B95
:10596000A9F78091E800877F8093E8008091E800A4
:1059700080FFFCCF8091B1028093F1008091E8001C
:105980008E77BDCF80916008813201F780916408E5
:1059900090916508892BD1F68091E800877F8093EC
:1059A000E8000E94542F809162088093B1020C9409
:1059B0003A2080916008813249F68091E800877F23
:1059C0008093E8000E94542F809163088093BF0564
:1059D000089580916008813A09F0B8CF8091E8007D
:1059E000877F8093E8008091E80080FFFCCF809162
:1059F000BF05C2CFBC018BE992E00C943F2BBC01E8
:105A00008BE992E00C94892B0E94212B84B7877F2D
:105A100084BF0FB6F894A895809160008861809348
:105A20006000109260000FBE80E890E00FB6F8941E
:105A300080936100909361000FBE0E94B51C0E948C
:105A4000A42F0E9401308091E20084608093E200E4
:105A500078940E948A320E94C51C87EA92E00E94D4
:105A60003A1C80915F088530C9F00E94CF1C8BE9F9
:105A700092E00E94782B0E94C31C0E94C41CF1CFAC
:105A80000E94632680915D08882341F00E9492263F
:105A9000882321F00E94AF2D0E943A2080915F0858
:105AA000853071F30E94A926E0CF0C94572D292F41
:105AB00033272330310519F168F42130310509F419
:105AC00044C02230310509F445C090E080E030E068
:105AD00020E025C02132310549F122323105A9F7F4
