:100000000C9402030C9449030C9449030C94490387
:100010000C9449030C9449030C9449030C94490330
:100020000C9449030C9449030C94A7290C9463295C
:100030000C94A22A0C9449030C9449030C94490390
:100040000C9449030C9449030C9449030C94490300
:100050000C9449030C947E2A0C9449030C94490394
:100060000C9449030C9449030C9449030C944903E0
:100070000C9449030C9449030C9449030C944903D0
:100080000C9449030C9449030C9449030C944903C0
:100090000C9449030C9449030C9449030C944903B0
:1000A0000C9449030C9449030C944903A847BA5C87
:1000B000635D645DBB5C475C485CB25C495C4A5C08
:1000C0004B5C4C5C4D5C4E5C4F5CAA00505C515CE0
:1000D000525C535C545C555C565CA900575C585CA0
:1000E000595C5A5C5B5C5C5C5D5C00005E5C5F5C08
:1000F000605C615C625C635C645C0000655C665CC7
:10010000675C685C695C6A5C6B5C00000100010014
:10011000635D645D0100865D875D0100885D895DCA
:100120008A5D8B5D8C5D8D5D8E5D01008F5D905D68
:10013000915D535C545C555C565C0100575C585CA7
:10014000595C5A5C5B5C5C5C5D5C00005E5C5F5CA7
:10015000605C615C625C635C645C0000655C665C66
:10016000675C685C695C6A5C6B5C000001000100B4
:10017000635D645D0100865D875D0100885D895D6A
:100180008A5D8B5D8C5D8D5D8E5D01008F5D905D08
:10019000915D925D935D945D955D0100965D975DC7
:1001A000595C5A5C5B5C5C5C5D5C00005E5C5F5C47
:1001B000605C615C625C635C645C0000655C665C06
:1001C000675C685C695C6A5C6B5C00000100010054
:1001D000635D645D0100865D875D0100885D895D0A
:1001E0008A5D8B5D8C5D8D5D8E5D01008F5D905DA8
:1001F000915D925D935D945D955D0100965D975D67
:10020000985D995D9A5D9B5D9C5D00009D5D5F5C66
:10021000605C615C625C635C645C0000655C665CA5
:10022000675C685C695C6A5C6B5C000001000100F3
:10023000905C915C010001000100010001000100DF
:1002400001000100010001000100010001000100A6
:100250000100010001000100010001000100010096
:100260000100010001000100010000000100010087
:100270000100010001000100010000000100010077
:10028000010001000100010001000000A847BA5C64
:10029000635D645DBB5C6B5C6A5CB25C695C685CA2
:1002A000675C665C655C645C635CAA00625C615C64
:1002B000605C5F5C5E5C5D5C5C5CA9005B5C5A5C86
:1002C000595C585C575C565C555C0000545C535C50
:1002D000525C515C505C4F5C4E5C00004D5C4C5C71
:1002E0004B5C4A5C495C485C475C000001000100D3
:1002F000915C905C0100010001000100010001001F
:1003000001000100010001000100010001000100E5
:1003100001000100010001000100010001000100D5
:1003200001000100010001000100000001000100C6
:1003300001000100010001000100000001000100B6
:1003400001000100010001000100000001009D5CAE
:10035000815C825C9E5C695D665D00000000675D9B
:100360000000685D000000000000C55C00000000A7
:10037000C95C6A5DC85C0000C75CC45C0000C65C08
:100380006B5DCD5C0000CC5C00000000CB5C6C5D64
:10039000CA5C0000C55C0000C45C00000000DF5CBB
:1003A0000000655D0000C35C6D5D0000000101019F
:1003B0000101010101010202020202020202020322
:1003C00003030303030303040404040404040505F2
:1003D00005050506060606060707070707080808B5
:1003E00008090909090A0A0A0B0B0B0C0C0C0D0D64
:1003F0000D0E0E0E0F0F0F101011111112121313FC
:100400001414151516161717181819191A1A1B1B74
:100410001C1D1D1E1E1F20202122222324242526D0
:1004200026272829292A2B2C2D2D2E2F3031323208
:10043000333435363738393A3B3C3D3E3F40414214
:10044000434445464748494A4C4D4E4F50515354FA
:10045000555658595A5B5D5E5F61626465666869AE
:100460006B6C6D6F7072737577787A7B7D7E80822E
:10047000838587888A8C8E8F91939596989A9C9E77
:10048000A0A2A3A5A7A9ABADAFB1B3B5B7BABCBE87
:10049000C0C2C4C6C9CBCDCFD1D4D6D8DBDDDFE254
:1004A000E4E7E9EBEEF0F3F5F8FAFDFF050109806A
:1004B000A101850319012AB700150126B70095018E
:1004C00075108100C0050C0901A101850419012ADC
:1004D000A002150126A002950175108100C005013A
:1004E0000906A101050719E029E71500250195086E
:1004F000750181029501750881010507190029FF21
:10050000150026FF009506750881000508190129C8
:1005100005950575019102950175039101C00902C8
:100520009F00040100A0FA0904000001030101007A
:100530000921110100012240000705810308000A7A
:10054000090401000103000000092111010001223A
:1005500032000705820320000A080B020201010095
:100560000009040200000101000009240100010942
:100570000001030904030002010300000724010035
:1005800001410006240201010006240202020009C2
:1005900024030103010201000924030204010101F3
:1005A00000090504024000050000052501010109BC
:1005B000058302400005000005250101031201002A
:1005C0000200000008EDFEB4F40100010200011E6B
:1005D000036300680072006F006D00610074006FBB
:1005E000006E0065006D0069006E00690000000E7D
:1005F00003330061007200610068007400000004B1
:100600000309040011241FBECFEFDAE0DEBFCDBF27
:1006100004B603FE27C08091250890912608A0917A
:100620002708B09128088730904BA740B04BD1F4F1
:100630001092250810922608109227081092280878
:1006400014BE84B7877F84BF0FB6F894A8958091B5
:100650006000886180936000109260000FBEE0E04F
:10066000F8E3099528E0A8E1B4E001C01D92A532A5
:10067000B207E1F714E0A0E0B1E0ECE9F5E602C072
:1006800005900D92A831B107D9F70E94C92A0C94A0
:100690007E320C94000090911F08937051F08111EC
:1006A00009C0946090931F081092230181E0809309
:1006B0001E0808958A3210F0946AF4CF880F880FCC
:1006C000982BF0CF90911F08937061F080932008D1
:1006D00060932108433308F042E34093220881E00D
:1006E00080931E0808950F931F939B01305E89012C
:1006F000000F012F001F110B11952F77482F406E0F
:10070000E0912E07F0912F0763E070E08EE297E012
:1007100009951F910F9108950F93262F042F0F779E
:10072000482F406BE0912E07F0912F0763E070E0B7
:100730008EE297E009950F910895CF92DF92EF92A4
:10074000FF920F931F93CF93DF9300D00F92CDB7FB
:10075000DEB77C01162FD42EC22E80915307843031
:10076000B9F5E0914807F0914907309709F440C086
:10077000C701019763E070E00E942931CB01880F27
:10078000991F860F971F19834A83CB824E2D481BD2
:100790009E012F5F3F4FBC018EE297E00995E091EB
:1007A0004C07F0914D07309739F00C2D2D2D412F2E
:1007B000B7018EE297E009950F900F900F90DF91AF
:1007C000CF911F910F91FF90EF90DF90CF90089500
:1007D00082E0E816F10409F45AC083E0E816F10457
:1007E000A9F081E0E816F10409F484C0F12CE12CB1
:1007F000E0914A07F0914B07309789F20C2D2D2D8F
:10080000412FB7018EE297E00995C9CF862F807FEF
:10081000803A11F188F48038D1F0E0913207F091FC
:100820003307803929F7309719F3123F49F12C2DFE
:100830004D2D612F6F7027C0803E99F0803FB1F041
:10084000E0913007F0913107803B91F6ECCFE091D9
:100850003407F0913507E7CFE0913607F09137077D
:10086000E2CFE0913807F0913907DDCF623F09F020
:10087000BFCFE0913A07F0913B07309709F4B8CF2A
:100880002C2D4D2D62EF8EE297E0099588CF862FB3
:10089000807F803DB9F0803FD1F0E0913C07F0913E
:1008A0003D07803C09F0A4CF309709F4A1CF812FF8
:1008B0008D7F4D2D612F6F70813FC9F08EE297E0E3
:1008C00009956DCFE0913E07F0913F07EDCFE091A4
:1008D0004007F0914107633F39F0613F09F088CF4D
:1008E000E0914207F0914307309709F481CF4D2DF5
:1008F000612FE4CFE0914407F0914507683F38F459
:10090000663F09F075CFE0914607F09147073097B1
:1009100009F46ECF612F8EE297E0099540CFE8EDA4
:10092000F0E080818E7F80831092E2001092DA00E6
:100930001092E100A0EEB0E08C9181608C938081F8
:100940008F77808319BCA7EDB0E08C918E7F8C935C
:1009500080818F7E80831092E00608952091E400CC
:100960003091E50095E6A9012091EC00822F81707D
:1009700020FF06C08091E80080FF06C080E0089557
:100980002091E80022FD1AC08091ED06882389F0AD
:10099000853089F08091EB0085FD0FC02091E40047
:1009A0003091E50042175307F9F29150E1F684E0E7
:1009B000089582E0089583E0089581E00895EF921C
:1009C000FF920F931F93CF937C018B010E94AE0483
:1009D000C82F811117C08091E80085FD0BC0809160
:1009E000E8008E778093E8000E94AE04882399F394
:1009F000C82F08C0F70181917F018093F100015059
:100A0000110949F78C2FCF911F910F91FF90EF9013
:100A100008958091EF0687FF13C08091E80082FF60
:100A200006C08091E8008B778093E80004C0809135
:100A3000ED068111F2CF08958091ED068823D9F358
:100A40008091E80080FFF8CF8091E8008E77ECCFAE
:100A5000982F9093E900242F762F50E0891731F0DA
:100A60007091EC002091ED005091F00021FD07C045
:100A70009F5F973071F78093E90081E0089530918E
:100A8000EB003E7F3093EB003091ED003D7F3093E3
:100A9000ED003091EB0031603093EB007093EC008F
:100AA0002093ED005093F0002091EE0027FDE0CF61
:100AB00080E00895CF92DF92EF92FF920F931F9301
:100AC000CF93DF93C8EDD0E088818F7E8883E7EDF8
:100AD000F0E080818160808384E082BF81E0809348
:100AE000E00688818E7F888302EE10E0F801108294
:100AF0001092DA0081EEC82ED12CF6011082888186
:100B00008F77888388818068888388818F7D8883B8
:100B100019BC1092ED061092EE061092EC0610929F
:100B2000EB0690EEE92EF12CF70180818B7F80831C
:100B300088818160888342E060E080E00E9428052F
:100B4000F60180818E7F8083F801808181608083BF
:100B5000808188608083F70180818E7F8083888197
:100B600080618883DF91CF911F910F91FF90EF906B
:100B7000DF90CF900895FC018091F5069091F606E4
:100B800086179707A0F06115710529F49091E80088
:100B90009E779093E80090E06115710551F49111F2
:100BA00008C08091E80082FF34C080E00895BC0155
:100BB000F2CF8091ED068823C1F18530C1F180919B
:100BC000E80083FD30C08091E80082FDEACF80918B
:100BD000E80080FFE1CF8091F3002091F200382FF0
:100BE0006115710519F02830310558F091E0283071
:100BF000310509F090E02091E8002E772093E8007D
:100C0000CBCF81918093F100615071092F5F3F4FED
:100C1000E7CF8091ED06882341F0853041F0809147
:100C2000E80083FFBECF81E0089582E0089583E06D
:100C3000089508958091E206089508950895982FE3
:100C4000907F903BE9F040F49039D1F0903AC1F0B8
:100C50009038B1F080E00895903D19F020F4903C78
:100C6000C9F782E00895903E59F0903F99F7815F6F
:100C70008F3080F7E82FF0E0E358FD4F8081089532
:100C800083E00895CF92DF92EF92FF920F931F932C
:100C9000CF93DF9300D000D000D00F92CDB7DEB756
:100CA0008C0108511F4F8091ED06843009F087C0F8
:100CB000809119018F708093E9008091E80082FF94
:100CC0007EC08091E80085FF7AC00E94AE04811149
:100CD00013C084E0E82EF12CCE0101966C018091C6
:100CE000E80085FD61C08091E8008B778093E80083
:100CF0000E94AE04882399F38091E80085FD05C029
:100D00008091E8008B778093E800FA808F2D0E9415
:100D10001F06282FFD828B818E838C818F8321116A
:100D20000BC08981843041F1873031F1863031F157
:100D300021E0853009F0B7CF30E0E5E0F0E0EC0FDE
:100D4000FD1FE30FF11DF0804FB7F894D801119605
:100D5000EC911197F0E0CF01019612966C9170E042
:100D60000E943D31D8015C915817190649F44FBFD4
:100D70003F5F321710F397CF23E0DECF22E0DCCFC6
:100D800013968D919C911497E80FF91FF08211969C
:100D90008C91119790E0019612966C9170E00E94F0
:100DA0003D31F8018183E3CF8091F100D6018D932D
:100DB0006D01B1E0EB1AF10809F091CF9DCF2796B4
:100DC0000FB6F894DEBF0FBECDBFDF91CF911F915C
:100DD0000F91FF90EF90DF90CF900895DF92EF9208
:100DE000FF920F931F93CF93DF9300D000D0CDB726
:100DF000DEB77B01142FD22E4A832B830C83842FE2
:100E00000E941F06811141C082E0E816F104C1F181
:100E100083E0E816F10439F0EA94EF2829F5173F4A
:100E200029F485E004C087E0073F09F084E0898366
:100E30008091ED068430C1F4809114018F7080930D
:100E4000E90050E040E064E070E0CE0101960E94CD
:100E5000DF04811109C08091E80085FD05C0809103
:100E6000E8008E778093E8000F900F900F900F901E
:100E7000DF91CF911F910F91FF90EF90DF90089538
:100E800087EFD812D3CF86E0D2CF12951F70198387
:100E9000CFCF9C014FB7F8948091D9069091DA0694
:100EA000A091DB06B091DC064FBF821B930B089527
:100EB0002FB7F8948091D9069091DA06A091DB06BD
:100EC000B091DC062FBF08959C01FC0132969FEF84
:100ED00080E04191461751F09F3F19F4411101C044
:100EE000982F8F5F8630A9F79F3F09F40895290F47
:100EF000311D97FD3A95F901628308952091D60638
:100F00003091D7062817390771F09093D706809350
:100F1000D606E091D406F091D506309721F00084F2
:100F2000F185E02D099408952091D2063091D306E1
:100F30002817390771F09093D3068093D206E09179
:100F4000D406F091D506309721F00680F781E02D88
:100F500009940895E091D406F091D506309721F0D8
:100F60000190F081E02D099480E00895FA0181114B
:100F700001C0FB010994E6E7F5E0818360834283C9
:100F8000339696E0E23DF907C1F70895FC01EE0FB4
:100F9000FF1FE80FF91FEA58FA4F6183408322834D
:100FA0000895EFE1F8E0248130E1231B08F420E00C
:100FB000248381E080931E080895EFE1F8E0248106
:100FC00030E1230F08F42FEF248381E080931E0883
:100FD0000895EFE1F8E0438120E1421B08F440E08E
:100FE0008181628190E00C946203EFE1F8E043813B
:100FF00020E1420F08F44FEF8181628190E00C9470
:101000006203EFE1F8E0628120E1621B08F460E036
:101010008181438190E00C946203EFE1F8E062810A
:1010200020E1620F08F46FEF8181438190E00C941E
:101030006203EFE1F8E08181438162818850990B7E
:101040000C946203EFE1F8E0818190E043816281DA
:1010500008960C94620380911F08869586958150AE
:1010600009F489E20C944B0380911F0886958695BC
:101070008F5F8A3208F081E00C944B03EF92FF926D
:101080000F931F930E0D1F2D111D9A0157FF03C0C3
:1010900031952195310994E0220F331F9A95E1F79C
:1010A0002F3F310519F014F02FEF30E0200F311FE2
:1010B0002F3F310519F010F02FEF30E02095382F39
:1010C000320F08F43FEF832F1F910F91FF90EF90A5
:1010D0000895EF92FF920F939701201B31092F3F44
:1010E000310519F010F02FEF30E02095382F320F36
:1010F00008F43FEF832F0F91FF90EF900895EF9248
:10110000FF920F939701201B31092F3F310519F0F2
:1011100010F02FEF30E0322F3095482F430F08F4B6
:101120004FEF842F620F0F91FF90EF900895EF9291
:10113000FF920F93972F093438F4B701601B7109A0
:101140006F3F710519F010F06FEF70E0485F5F4F6F
:101150004131510540F0A901485F5F4F41315105D0
:1011600010F06FEF70E06095482F460F08F44FEFD6
:10117000842F37FF02C02D5F3F4F3595279535955A
:10118000279560912008620F792F0F91FF90EF90C3
:101190000895EF92FF920F931F930E0D1F2D111DB7
:1011A000F90137FF03C0F195E195F10924E0EE0F55
:1011B000FF1F2A95E1F7EF3FF10519F014F0EFEF6B
:1011C000F0E09A0157FF03C031952195310994E071
:1011D000220F331F9A95E1F72E173F070CF4F90100
:1011E000E00FF11FEF3FF10519F010F0EFEFF0E025
:1011F000E095282F3E2F230F08F42FEF822F1F9109
:101200000F91FF90EF900895EF92FF920F93970147
:1012100095E0099F200D311D11242F3F310519F054
:1012200010F02FEF30E02095382F320F08F43FEF09
:10123000832F0F91FF90EF90089522E8241B08F46C
:1012400020E0620F08954095282F429F412D1124E0
:10125000842F0895E42FF0E0EE0FFF1FE454FD4FBC
:101260009081921B97FD9195292F38E1239F212D85
:101270001124620F08950F931F9310E0F801EE0FF1
:10128000FF1FE454FD4F90819C5797FD9195000FEF
:10129000111FF801E457FD4F01A90052110B200363
:1012A000F001219FF00D112408E310E0091B110942
:1012B00097FD139540039001419F300D1124E20FDB
:1012C000F31F9F01220F331F2E0F3F1F37FF02C056
:1012D00021583F4F220F232F221F330B620F1F91E4
:1012E0000F9108950F931F93522F10E0F801EE0F06
:1012F000FF1FE457FD4FA1A9A052BB0B9D01520354
:10130000F001539FF00D1124000F111FD801A454B8
:10131000BD4F0C910C57110B40039001419F300DB4
:1013200011242E0F3F1F37FF02C0215C3F4F96E074
:10133000359527959A95E1F7620F1F910F910895C2
:101340000F931F93522F10E0F801EE0FFF1FE45789
:10135000FD4FA1A9A052BB0B9D015203F001539F69
:10136000F00D1124000F111FD801A454BD4F0C9192
:101370000C57110B40039001419F300D11242E0F8B
:101380003F1F37FF02C021583F4F220F232F221F3C
:10139000330B620F1F910F910895EF920F93972FC8
:1013A00023E0029FB0011124759567956E0D792F8A
:1013B0000F91EF900895322F50E0FA01EE0FFF1FCA
:1013C000E457FD4F91A9905297FD9195440F551FF9
:1013D000FA01E454FD4F2081231B330B290F311DEB
:1013E00097FD3A95620F0895E42FF0E0EE0FFF1F8E
:1013F000E457FD4F61A9621B0895E42FF0E0EE0F62
:10140000FF1FE454FD4F6081621B0895622F089511
:10141000E42FF0E0EE0FFF1FE454FD4F408134EE67
:10142000439F412D1124E82FF0E050E0445E5F4FD0
:10143000DA01A21BB1099D01B7FF03C031952195C7
:10144000310993E0220F331F9A95E1F7AF01421B58
:10145000530B9A0157FD20E0582F259F212D112471
:10146000822F0895E42FF0E0EE0FFF1FE454FD4FAC
:10147000408134EE439F412D1124E72FF0E050E0EE
:10148000445E5F4FDA01A21BB1099D01B7FF03C0A3
:1014900031952195310993E0220F331F9A95E1F799
:1014A000AF01421B530B9A0157FD20E0279F212DCE
:1014B0001124722F08950C94BB070C94C607FC01ED
:1014C0009B01009729F480E077FF2BC080E8089506
:1014D000AC0197FF04C044275527481B590BB9019D
:1014E000640F751F37FD10C0241B350BC901A5E023
:1014F000880F991FAA95E1F70E943D3180E2861B73
:10150000F7FF0FC081950895CB0165E0880F991F03
:101510006A95E1F7BA01621B730B0E943D3180E6C8
:10152000EECF0895EF920F93CF93DF93D72FC82F6D
:10153000C9010E19BA010E945F0A602F681B7D2F36
:101540008C2FDF91CF910F91EF9008950F93CF9350
:10155000DF93D72FC82FC901BA010E945F0A682FF5
:10156000600F7D2F8C2FDF91CF910F910895EF9217
:101570000F931F93CF93DF93D62FC72F182FC90137
:101580000E19010FBA010E945F0A081B202F219F2C
:10159000212D1124822F6D2F7C2FDF91CF911F9150
:1015A0000F91EF900895EF920F931F93CF93DF93D6
:1015B000D62F172FC82FC9010E19070FBA010E9485
:1015C0005F0A702F781B719F712D11246D2F8C2F46
:1015D000DF91CF911F910F91EF9008950F931F937B
:1015E000CF93DF93D62FC72F182FC901212F201B90
:1015F000022FBA010E945F0A982F990F990F891B39
:10160000800F282F219F212D1124822F6D2F7C2FB9
:10161000DF91CF911F910F9108950F931F93CF9357
:10162000DF93D62F172FC82FC901272F201B022F7A
:10163000BA010E945F0A982F990F990F782F791B92
:10164000700F719F712D11246D2F8C2FDF91CF9111
:101650001F910F910895E82F86FDE0952E2F2F7092
:1016600086FD2F5FE695E695E695E670F0E0EB588F
:10167000FD4F9181929F902D212D112492959F7065
:101680002295207F922B2081920F87FD919580E8F3
:10169000890F08950F931F93CF93DF938B01D82F5A
:1016A000C42F822F0E942B0BEC2FF0E0EE0FFF1FB8
:1016B000E454FD4F90819058890F87FD8195880FE4
:1016C000682F2CE0629F612D1124600F712F8D2FE8
:1016D000DF91CF911F910F910895AC018230910558
:1016E00008F408959FEF413E8EE1580740F49A01B7
:1016F00095E0369527959A95E1F798E0920F61E08D
:10170000E62FE90FFF27FF1F9F0135952795822FB1
:10171000229FF001239FF00DF00D11244E175F075B
:1017200038F49FEF920F961758F78FEF860F0895B2
:101730002F3FE9F361E0620FF6CF0F93CF93DF9372
:10174000D72FC82F47FD41958EE390E0841B910968
:1017500047FD9395889FB001899F700D700D1124EE
:10176000229FC001239F900D900D1124860F971F7B
:101770000E946D0B982F990F890F682F600F7D2F96
:101780008C2FDF91CF910F91089530E020E0869F5C
:10179000212D969F200D311D1124C9010895AF926E
:1017A000BF92CF92DF92FF920F931F93CF93DF935D
:1017B000362F472FE82FF0E0E455FC4F71110FC092
:1017C000E4918E2F2E2F6E2F722FDF91CF911F91CC
:1017D0000F91FF90DF90CF90BF90AF900895C72FEB
:1017E000D0E02491F22E022F10E056E0659FC00158
:1017F0001124EFEFF0E0BF010E942931832F90E028
:10180000880F991F35E5369FD001379FB00D112401
:101810008A1B9B0B982F990F980F6F01CC1ADD0A2A
:10182000C09ED001C19EB00DD09EB00D11248B2F53
:10183000499FA0011124452F55276F01C41AD50ACD
:10184000C09EA001C19E500DD09E500D11245F017D
:10185000A91AB108AC9E6001AD9ED00CBC9ED00C04
:101860001124CD2CDD24EC19FD09E09FE001E19F5E
:10187000D00DF09FD00D1124ED2F62307105A1F035
:1018800050F46115710509F49ECF6130710581F046
:10189000EB2F852F98CF6430710569F080F06630AA
:1018A000710509F490CFF4CFE22F2B2F8D2F8BCF22
:1018B000E22F252F88CFEB2F822F2D2F84CF2B2F98
:1018C0008F2DE52F80CF2F923F925F926F927F9264
:1018D0008F929F92AF92BF92CF92DF92EF92FF9240
:1018E0000F931F93CF93DF93CDB7DEB72A970FB631
:1018F000F894DEBF0FBECDBF8B837E836D832091B6
:10190000200188E1289F802D11248F83885E8983A0
:101910008A83853710F034E73A838091FB068C8305
:10192000FF81EF2FF0E0FA87E987CF01880F991F39
:101930009C0124573D4F69013B81832F90E0FC01BE
:101940003196F887EF838A8199859817E8F081E0CE
:10195000E981E43708F080E02A960FB6F894DEBFFC
:101960000FBECDBFDF91CF911F910F91FF90EF90F0
:10197000DF90CF90BF90AF909F908F907F906F90AF
:101980005F903F902F900895E985FA85EC55FC4FC4
:101990008081909121018923F1F0209020083090DE
:1019A00021082F8138852550394F39015B8010E09F
:1019B000FC815F16D0F020912208129F112D112476
:1019C000B101812F0E94CF0B462F282F672F8985C9
:1019D0009A850E945D0A29853A852F5F3F4F3A8795
:1019E000298732E0C30ED11CAECFF30181913F01B4
:1019F000F601A0A8A81ABB0881A8F3018185881A5E
:101A00009908AA9C9001AB9C300D300D1124889C44
:101A1000C001899C900D900D1124820F931F0E948C
:101A20006D0B082F6091230821E0620F08F46FEF1F
:101A3000F301EE0FFF1FEB5FF640838D948D0E9444
:101A4000C50B7C019401A501B101812FED81FE81BF
:101A500009951B015394182FABCFCF92DF92EF92D1
:101A6000FF920F931F93CF93DF938C01C0912001BE
:101A700088E1C89FC02D112428E1D22EDC0ECD2C88
:101A800024E72D1510F494E7C92E2091230831E0A6
:101A9000230F08F42FEF30E050E040E06FEF7FEFCE
:101AA00080E090E00E941B327901D0E02C2FCC1511
:101AB00070F081E0F3E7FD1508F480E0DF91CF914D
:101AC0001F910F91FF90EF90DF90CF900895FE014E
:101AD000EC55FC4F808190912101892311F14091B7
:101AE000FB064150042E000C550B47FF1CC0C701DC
:101AF0006091230821E0620F08F46FEF0E94C50B8C
:101B0000AC01609120087091210880912208F801B1
:101B100009950E94CF0B462F282F672FCE010E94D8
:101B20005D0A2196C3CFFA01E550F94F85898213EA
:101B30000AC0FA01EE0FFF1FE550F94F878D90A103
:101B40008E159F05A8F241505109CFCFDF92EF9239
:101B5000FF920F931F93CF93DF937C01C0912001DD
:101B600088E1C89FC02D112418E11C0F012F1537E3
:101B700008F004E7609123086695669521E0620FFE
:101B800008F46FEF8091F7069091F8060E94C50B5C
:101B9000D82ED0E0C01760F081E0143708F080E064
:101BA000DF91CF911F910F91FF90EF90DF900895FB
:101BB000FE01EC55FC4F808190912101892391F029
:101BC0006091200870912108809122082D2D4C2FC2
:101BD000F70109950E94CF0B462F282F672FCE01C2
:101BE0000E945D0A2196D6CF9F92AF92BF92CF926C
:101BF000DF92EF92FF920F931F93CF93DF936C01CD
:101C0000C091200188E1C89FC02D112418E11C0F4C
:101C1000B12E153710F034E7B32E60912308669586
:101C200066958091F7069091F8060E94C50BF82EF4
:101C300080E48F0D0E942B0B90E8A92EA80E8F2D0B
:101C40000E942B0B20E8922E980ED0E0CB1580F04E
:101C500081E0143708F080E0DF91CF911F910F9160
:101C6000FF90EF90DF90CF90BF90AF909F9008953E
:101C7000FE01EC55FC4F8081909121018923A1F058
:101C8000609120087091210880912208EF2C0C2F80
:101C9000292D4A2DF60109950E94CF0B462F282F9A
:101CA000672FCE010E945D0A2196D0CF5F926F927E
:101CB0007F928F929F92AF92BF92CF92DF92EF92DC
:101CC000FF920F931F93CF93DF933C01C0912001AC
:101CD00088E1C89FC02D112418E11C0FF12E153783
:101CE00010F034E7F32E6091230866958091F70693
:101CF0009091F8060E94C50B582ED0E0CE01880FB7
:101D0000991F9C0124573D4F6901CF15A0F081E038
:101D1000143708F080E0DF91CF911F910F91FF9071
:101D2000EF90DF90CF90BF90AF909F908F907F907B
:101D30006F905F900895FE01EC55FC4F808190916B
:101D40002101892379F1F60180A9282F2C57330B23
:101D5000590181A9E82FE052FF0B4F01AA9C900185
:101D6000AB9C300D300D1124EE9FC001EF9F900D04
:101D7000900D1124820F931F0E946D0B082F60910C
:101D800020087091210880912208E52C9401A5017A
:101D9000F30109950E94CF0B462F282F672FCE0104
:101DA0000E945D0AF2E0CF0ED11C2196AECFAF9219
:101DB000BF92CF92DF92EF92FF920F931F93CF9338
:101DC000DF936C01C091200188E1C89FC02D1124D0
:101DD00018E11C0FB12E153710F034E7B32E6091C7
:101DE000230866958091F7069091F8060E94C50B2E
:101DF000A82ED0E0CE01880F991F9C0124573D4F9B
:101E00007901CB1578F081E0143708F080E0DF919C
:101E1000CF911F910F91FF90EF90DF90CF90BF90E7
:101E2000AF900895FE01EC55FC4F80819091210107
:101E30008923C1F0F70121A92052330B40A94C5747
:101E4000550B6091200870912108809122080A2D7D
:101E5000F60109950E94CF0B462F282F672FCE0140
:101E60000E945D0AF2E0EF0EF11C2196CACF84E0D9
:101E7000809372058FE78093730580917405807855
:101E8000806480937405EAE2F5E08FEF819395E03A
:101E9000E237F907D9F71092290510922805109218
:101EA000270510922605089580E00895F894E82FFC
:101EB000E295EF70F0E031A1282F2F7081E090E0E3
:101EC00001C0880F2A95EAF7982F9095932391A344
:101ED00092A1892B82A3789408959091870492FF10
:101EE00006C0282F28712830F9F4877F846093FF7B
:101EF00006C0282F28712831F1F4877E8461209153
:101F0000880420FF06C0382F38713830D9F4877F15
:101F1000816021FF06C0282F28712831D1F4877EE7
:101F2000816194FD877E0895282F24712430F9F66D
:101F30008B7F8860DCCF282F2471243101F78B7EC2
:101F40008861DDCF382F3171313019F78E7F88608D
:101F5000E0CF282F2171213121F78E7E8861E1CFDA
:101F6000CF93DF93EC018238910581F1B0F5813395
:101F7000910509F491C020F58932910509F485C0D5
:101F80008A9709F490C0C11521E5D20708F0AAC0CC
:101F9000C11530E5D30708F0F2C0CF3BD10508F0FA
:101FA00089C0C83AD10508F0DFC0C53AD10508F0AC
:101FB000D3C0C430D105F8F4C130D105E1F040C040
:101FC0008533910509F45AC0C997E9F680918704D1
:101FD000837089F0C0EED0E00EC0833E910599F188
:101FE00070F4803E910501F1823E910561F6809189
:101FF000870482FD21C0CE01DF91CF910895863EF6
:10200000910561F1873E910571F1843E910509F0DA
:10201000BACF8091880481FFEECF80918704C7EE0C
:10202000D0E084FD0DC0E7CF8091870480FDF7C02C
:102030009091880490FFDFCFC3EED0E084FFDBCF28
:10204000D0E0C0E0D8CF8091870482FDEBC09091B2
:10205000880490FDBFCF84FFCECFF2CF809187045C
:1020600083FDDDCFC8CF8091870483FDDEC09091D2
:10207000880491FFF0CFC4EED0E0BDCF80918704FB
:1020800085FFB9CFC9E2D0E0B6CF8091870485FF44
:10209000B2CFC5E3D0E0AFCF8091870486FFABCF4E
:1020A000CAE2D0E0A8CF8091870486FFA4CFC1E325
:1020B000D0E0A1CFC11540E2D40760F4C11581E0A2
:1020C000D80708F098CFCE01805E9109089708F4F0
:1020D00092CFB6CFC11590E4D90708F4B1CFDF7025
:1020E000D06A89CFC11524E5D20778F4C11533E54C
:1020F000D30708F072C0C11542E5D40708F05CC0F0
:10210000DC2FCC27C16FD06A76CFC1158AE5D807FE
:1021100078F4C11599E5D90708F073C0C11528E511
:10212000D20708F48DCFDC2FCC27C06FD06A63CFE5
:10213000CE0190568115904208F082CF8D2F8F717D
:102140000E946D0F90E0982F882788279F719C012F
:102150002C2BE901D0624FCFC55AD0E0C954DE4FD5
:10216000C881D0E0D06447CFC85AD0E0CC0FDD1F83
:10217000C654DE4F0990D881C02DD4643CCFCE0127
:1021800064E0969587956A95E1F783702C2F2695E4
:102190002695237040E2249F90011124382B8C2F28
:1021A0008370C1E0D0E002C0CC0FDD1F8A95E2F75A
:1021B000C22BD32BDC681FCFCE018370992721E07F
:1021C00030E002C0220F331F8A95E2F7C695C6950C
:1021D00080E2C89FE0011124EBCFCE0183709927E4
:1021E00021E030E002C0220F331F8A95E2F7C69546
:1021F000C69590E2C99FE0011124C22BD32BDA6867
:10220000FACE8C2F8F700E946D0F34E0D695C79553
:102210003A95E1F7CF709C2FEC01D069ECCEC9E381
:10222000D0E0E9CEC2EED0E0E6CEC6EED0E0E3CE1E
:1022300080917F0490917E04892B90917D04892B5D
:1022400080931A04E091D406F091D506309731F0CE
:102250000280F381E02D8AE194E009940895809151
:102260007C0490914B04981301C008958F5F877090
:10227000FACF8F929F92AF92BF92CF92DF92EF925E
:10228000FF920F931F93CF93DF938090150590904B
:102290001605A0901705B090180540918004509144
:1022A00081046091820470918304842A952AA62A6D
:1022B000B72ACFE1D0E0E92EF12C26E0C22E082F7C
:1022C00010E0DC2ED501C4010C2E04C0B695A795F4
:1022D000979587950A94D2F780FD11C0219788F7CA
:1022E000D12C8D2DDF91CF911F910F91FF90EF9009
:1022F000DF90CF90BF90AF909F908F900895CC9E2D
:10230000F001CD9EF00D1124EE0DFF1D83E0EE0FC8
:10231000FF1F8A95E1F7E00FF11FEE0FFF1FE45555
:10232000FF4F859194910E94B00F0197B9F2D9CFD8
:10233000CF93DF93EC010E94391196E0899FF00161
:102340001124ED0FF11D83E0EE0FFF1F8A95E1F7D9
:10235000EC0FF11DEE0FFF1FE455FF4F8591949197
:10236000DF91CF910C94B00F990F990F990F890FAE
:10237000982F977086958695869525E0829FF00127
:102380001124E95DFB4F50E040E080E0219130E016
:10239000092E02C0369527950A94E2F7217033275B
:1023A000042E01C0220F0A94EAF7822B4F5F5F4F81
:1023B0004530510559F70895990F990F990F890FD5
:1023C000982F977041E001C0440F9A95EAF78695DF
:1023D0008695869595E0899FF0011124E95DFB4F74
:1023E00030E020E070E05191DF011197CB01022E27
:1023F00002C0969587950A94E2F7817081958527AA
:10240000842385278C932F5F3F4F2530310559F763
:102410000895FC01808191810E949811292F2F70CD
:1024200092959F7092509E3078F4E92FF0E0E0583A
:10243000FD4C0C945131803F19F020F4883E20F47B
:1024400081E00895843FE1F380E00895883EC0F381
:10245000813FD1F7F5CF822F869586958695089591
:1024600090E080E00E94940790E080E00E947E0768
:1024700010927E0410927D040C941811609315053F
:102480007093160580931705909318050C943012DD
:102490000F931F9341E050E060E070E004C0440FF0
:1024A000551F661F771F8A95D2F7CB01BA01609539
:1024B00070958095909500911505109116052091C5
:1024C00017053091180560237123822393231F91F0
:1024D0000F910C943E120F931F9341E050E060E087
:1024E00070E004C0440F551F661F771F8A95D2F70E
:1024F0008091150590911605A0911705B0911805CA
:102500008A019B01082B192B2A2B3B2BC901B801EF
:102510001F910F910C943E1260938004709381047C
:1025200080938204909383040C943012882341F0AA
:10253000809590917F04892380937F040C941811D7
:102540000895882339F090917F04982B90937F040D
:102550000C94181108958823B1F19CEF980F913ACB
:1025600070F4ECE1F4E09191891303C0DF0111975D
:102570001C9244E0E232F407B1F70C94181190E297
:10258000980F983088F4877021E030E0A90102C0EC
:10259000440F551F8A95E2F7CA01809590917F04F8
:1025A000892380937F04E9CF9BE5980F933020F433
:1025B00090E080E00C949407885A873120F490E0F2
:1025C00080E00C947E070895CF93C82F882309F4E8
:1025D0004EC08CEF8C0F813AF8F4ECE1F4E082E22B
:1025E00094E0DF012D91C21759F08A179B07D1F7AC
:1025F0006C2F8AE194E00E946407CF910C9418112B
:102600002191C21303C0DF0111971C928E179F07FF
:10261000B9F70E941811ECCF80E28C0F883068F473
:10262000C77021E030E001C0220FCA95EAF780911F
:102630007F04822B80937F04E0CFEBE5EC0FE33047
:1026400040F4F0E0E954FE4F808190E0CF910C948B
:102650009407C85AC73158F4EC2FF0E0EE0FFF1F73
:10266000E654FE4F80819181CF910C947E07CF91EB
:102670000895DF92EF92FF920F931F93CF93DF9312
:10268000082FF62EE42E809106018823E9F0809130
:10269000230419E0811101C01CE0D0E0C0E08CE00F
:1026A000D82E80912304FE01D89EE00DF11D112447
:1026B000E95DFE4F80812E2D4F2D602F90E00E940E
:1026C0005D0A2196C11768F3DF91CF911F910F9199
:1026D000FF90EF90DF90089580912504823141F1C1
:1026E00028F4882341F08C30A9F00895883171F1E5
:1026F0008432D1F1089580912404882331F061E17E
:1027000070E080E090E00C943E1261E070E080E0C8
:1027100090E0F9CF80912404882329F062E170E0F1
:1027200080E090E0F0CF62E070E080E090E0EBCFFE
:1027300080912404882329F064E170E080E090E037
:10274000E2CF64E070E080E090E0DDCF809124048F
:10275000882329F068E170E080E090E0D4CF68E061
:1027600070E080E090E0CFCF80912404882329F0AE
:1027700060E670E080E090E0C6CF60E270E080E06C
:1027800090E0C1CFE2E7F5E080818F708083109206
:10279000230481E0809305010895E2E7F5E080815C
:1027A000807F82608083E3E7F5E0808180788567C1
:1027B000808361E070E080E090E00E948C1261E034
:1027C00070E080E090E00E943E128EE00E944B0399
:1027D0001092060108951F93CF93DF93C62FD42F35
:1027E000122FFC018281882399F060931D080E94BA
:1027F000580790931C0880931B08C77081E001C0A4
:10280000880FCA95EAF7DF91CF911F910C94A1121E
:1028100080911D08681343C080911B0890911C088B
:102820000E944907883C9105D0F5CD17C9F080E298
:102830008C0F883040F4C77081E001C0880FCA95C2
:10284000EAF70E94961280E28D0F883048F481E00A
:102850009D2F977001C0880F9A95EAF70E94A112E8
:10286000812F0E94E4128AE090E0EFE9FFE03197C7
:10287000F1F700C000000197C1F7812F0E94AB1251
:1028800080E28D0F883090F4D77081E001C0880F0E
:10289000DA95EAF7DF91CF911F910C949612C770E9
:1028A00081E001C0880FCA95EAF7F4CFDF91CF919C
:1028B0001F9108959091ED06943031F58093DD06D7
:1028C0007093DF066093DE0682E08093E9008FEF6D
:1028D0009091E800815095FD06C095ED9A95F1F72D
:1028E00000008111F5CF8091E80085FF0DC050E018
:1028F00040E063E070E08DED96E00E94DF0480919F
:10290000E8008E778093E8000895BC0184E00C9481
:102910005A14BC0183E00C945A14CF93DF93EC015A
:1029200081E08093E9008FEF9091E800815095FD60
:1029300006C095ED9A95F1F700008111F5CF8091D1
:10294000E80085FF14C050E040E068E070E0CE0190
:102950000E94DF048091E8008E778093E80088E091
:10296000FE01A3EEB6E001900D928A95E1F7DF91AA
:10297000CF910895539A3BB1377F2BB128604FB761
:10298000F89486E795E0FC015191CF0168E02BB9FE
:10299000000000C057FF3BB9550F000000C000C049
:1029A00000C03BB900C06A9591F7F6E0823D9F07F1
:1029B00051F74FBF8FE594E00197F1F700C0000099
:1029C00008951F93CF93DF93EC01FC01EC55FC4F6E
:1029D00080816823C9F00E94A331182F0E94A3317F
:1029E0008F77782F20E8720F08F47FEF612F8091A6
:1029F00022080E94CF0B462F282F672FCE01DF9190
:102A0000CF911F910C945D0ADF91CF911F91089592
:102A1000DF92EF92FF920F931F93CF93DF938C017E
:102A2000FC01EC55FC4F8081682381F1D090210896
:102A3000D0912208C0912008EC2EF12C0E94A331E5
:102A4000282FC7018C549F4F68E671E00E943D31EA
:102A50008E199F0997FD039695958795959587956E
:102A600023706C2F289F600D11247D2D8D2F0E94C7
:102A7000CF0B462F282F672FC801DF91CF911F91D1
:102A80000F91FF90EF90DF900C945D0ADF91CF9152
:102A90001F910F91FF90EF90DF9008957F928F929A
:102AA0009F92AF92BF92CF92DF92EF92FF920F93DD
:102AB0001F93CF93DF93182F80911201811323C0AE
:102AC00090911F0893702091110130E081E09217DE
:102AD000130609F480E0817080932201809124081C
:102AE00090912101981739F08093210140E060E036
:102AF00080E00E945B0A1A3260F4E12FF0E0E257B6
:102B0000FD4C0C94513181E0E6CF8091220181117E
:102B100002C0C0E059C140E060E080E00E945B0A72
:102B2000F8CFC091200188E1C89FC02D112408E191
:102B30000C0FF02E053710F094E7F92E6091200865
:102B400070912108809122080E94CF0BE62ED72E8B
:102B5000C82ED0E0CF1528F0C1E0043708F434C106
:102B6000D8CFFE01EC55FC4F808190912101892343
:102B700031F02C2D4E2D6D2DCE010E945D0A219637
:102B8000E9CFC091200188E1C89FC02D112408E140
:102B90000C0FE02E053710F084E7E82ED0902108C6
:102BA000C090220820912308D0E4FD2E3F2D329FB3
:102BB000312D1124F32ED0E0CE1570F6FE01EC5528
:102BC000FC4F8081909121018923B9F0FE01EE0F25
:102BD000FF1FE457FD4F81A982958F7060912008F7
:102BE0008F9D600D11247D2D8C2D0E94CF0B462FC3
:102BF000282F672FCE010E945D0A2196DDCFC0915C
:102C0000200188E1C89FC02D112408E10C0FE02E9F
:102C1000053710F0A4E7EA2ED0902108C0902208D2
:102C200020912308F0E4FF2E3F2D329F312D1124F7
:102C3000F32ED0E0CE1508F08FCFFE01EC55FC4FFF
:102C40008081909121018923D9F0FE01EE0FFF1FB1
:102C5000E457FD4F60A9F69EB0011124E5E075959B
:102C60006795EA95E1F780912008680F7D2D8C2DFE
:102C70000E94CF0B462F282F672FCE010E945D0A9E
:102C80002196D8CFC091200188E1C89FC02D112482
:102C900008E10C0FF02E053710F064E7F62EE090F7
:102CA0002008D0912108D0902208609123086695D1
:102CB000669566958091F7069091F8060E94C50B7F
:102CC0000E942B0B805887FD8195880F282F3D2D62
:102CD000239F212D1124822F6E2D7D2F0E94CF0B3B
:102CE000E62ED72EC82ED0E0CF1508F035CFFE0146
:102CF000EC55FC4F808190912101892331F02C2DDE
:102D00004E2D6D2DCE010E945D0A2196EDCF82E3FE
:102D10009AE00E94A60D07C088E09AE0FACF8DE005
:102D20009BE00E94D70EC82F4FC08EEE9AE0F9CFDD
:102D300083ED9AE00E94560EF6CF87EB9AE0FACF29
:102D400086E09AE0E6CF8DEF99E0E3CF84EF99E05B
:102D5000E0CF8BED99E0DDCF8DEC99E0EBCF8DE905
:102D60009BE0DFCF86EA9AE0DCCF82E99AE0E2CF0F
:102D700080EA99E00E94F40DD6CF82E799E0FACF7D
:102D80008BE399E0F7CFC0912201C1113EC0609161
:102D9000230820E1620F08F46FEF8091F70690910D
:102DA000F8060E94C50B6AE070E00E942931892B69
:102DB00009F0AFCE0E94A33164E770E00E943D317C
:102DC000609121010E940815809120018F5F8093FE
:102DD0002001C1110CC082E0809323018091220167
:102DE000811105C0111103C083E080932301DF919D
:102DF000CF911F910F91FF90EF90DF90CF90BF90F8
:102E0000AF909F908F907F900895C091200188E1AE
:102E1000C89FC02D112408E10C0F802F053708F042
:102E200084E7D0E0E82EF12CCE15DF050CF094CE2F
:102E300060912101CE010E9408152196F5CFC09125
:102E40002201C1111EC06091230820E1620F08F425
:102E50006FEF8091F7069091F8060E94C50B65E030
:102E600070E00E942931892B09F053CE0E94A331D2
:102E700064E770E00E943D31609121010E94E114FD
:102E8000A3CFC091200188E1C89FC02D112408E183
:102E90000C0F802F053708F084E7D0E0E82EF12CE6
:102EA000CE15DF050CF058CE60912101CE010E94B5
:102EB000E1142196F5CFC091200188E1C89FC02D73
:102EC000112408E10C0FF02E053710F054E7F52E11
:102ED000D0902108E0902208D0912008609123082A
:102EE0006695669566958091F7069091F8060E9422
:102EF000C50B0E942B0B805887FD8195880F682F8A
:102F00002CE0629F612D11246D0F7D2D8E2D0E946E
:102F1000CF0BE62ED72EC82ED0E0CF1508F01CCE52
:102F2000FE01EC55FC4F808190912101892331F005
:102F30002C2D4E2D6D2DCE010E945D0A2196EDCFD8
:102F40008AE49BE0E6CE8AE299E0E3CE83E299E070
:102F50000E942D0DE8CE8DE199E0FACF8091FB061D
:102F600021E0382F321B08F430E0832F64E079E051
:102F70000E94630CD8CE64E079E080E0F9CF8091C4
:102F8000FB0621E0382F321B08F430E0832F69EC78
:102F900078E0EECF69EC78E0F0CF8091FB0621E09D
:102FA000382F321B08F430E0832F67E978E0E0CF58
:102FB00067E978E0E2CF8091FB0621E0382F321BF1
:102FC00008F430E0832F6FE778E0D2CF6FE778E046
:102FD000D4CF8091FB0621E0382F321B08F430E07B
:102FE000832F69E678E0C4CF69E678E0C6CF6EE368
:102FF00078E0C3CFC091200188E1C89FC02D112483
:1030000008E10C0FB02E053710F044E7B42E2091E4
:10301000230830E050E040E06FEF7FEF80E090E089
:103020000E941B327901D0E0CE01880F991FFC016C
:10303000E457FD4F6F0132E8A32ECB1508F08CCD7D
:10304000FE01EC55FC4F808190912101892319F1FB
:103050008090210890902208709020084091FB06F3
:103060004150042E000C550B47FF1AC0C701609158
:1030700023080E94C50B6A2D282F621B08F460E00C
:10308000670D782D892D0E94CF0B462F282F672F93
:10309000CE010E945D0A219632E0C30ED11CCDCF35
:1030A000FA01E550F94F9181F60180A998130AC001
:1030B000FA01EE0FFF1FE550F94F878D90A18E1595
:1030C0009F05A8F241505109CFCF90912001D8E13E
:1030D0009D9FD00D11240E94A331C82F0E94A331BF
:1030E0006C2F782F809122080E94CF0B482F872FBA
:1030F0000E945B0AC1E0D43708F466CE0ACDEFE146
:10310000F8E081E380838091240190912501A091D2
:10311000260181839283A3838FE784838FEF858346
:1031200046E050E06CE170E0CF010C94E731CF93C2
:1031300084E090E00E94D931C82F82E290E00E94A2
:10314000D931982F8C2FCF91089569EE7EEF90E0C2
:1031500080E00E94153260E082E090E00E94F7314A
:1031600060E083E090E00E94F731109280041092BA
:103170008104109282041092830460E084E090E065
:103180000E94F73160E082E290E00E94F73160E057
:1031900085E090E00E94F73160E086E090E00E94D8
:1031A000F7316FEF87E090E00E94F73140E050E0A8
:1031B000BA0188E090E00E94093260E08DE090E082
:1031C0000E94F73140E050E0BA0188E190E00E94AF
:1031D000093260E087E190E00E94F73140E050E082
:1031E000BA018CE190E00E94093270E060E080E278
:1031F00090E00E94153240E050E0BA0188E190E092
:103200000E94093240E050E0BA018FE090E00E9455
:1032100009320E94370F80911F08837011F41092B9
:10322000230180911F088C7F816080931F0881E0BB
:1032300080931E088FE7809323084FEF6FEF8AEA91
:1032400090E00E9462030C94CD1310927F04ECE195
:10325000F4E086E0DF011D928A95E9F70C943012C4
:103260001F93CF93DF93CDB7DEB7AA970FB6F8942D
:10327000DEBF0FBECDBF8FEE96E02091F100FC01C6
:103280002193CF01F6E0873F9F07B9F78091F006C1
:10329000833009F46FC0B8F4813009F446C082303D
:1032A00009F4B0C08091E80083FF85C28091EF06E9
:1032B0009091F0069A3008F07EC2E92FF0E0E854D1
:1032C000FD4C0C9451318A3009F48BC08B3009F4D9
:1032D0006EC0893039F78091EF06813219F78091FD
:1032E000F3069091F4060297E8F68091E800877F54
:1032F0008093E8008091E80082FF37C09091F3004E
:103300008091F200029729F48091F1008B7F813047
:1033100021F48091F1008093E2068091E8008B77A0
:103320008093E8000E940905BDCF8091EF06813AA5
:1033300009F0B8CF8091E800877F8093E800809102
:10334000F3069091F406892B61F468E083EE96E031
:1033500070E00E94BB058091E8008B778093E800C5
:10336000A1CF60E090E080E0F3CF8091ED06811185
:10337000C1CF98CF8091EF06813A09F093CF809129
:10338000F3069091F406892B09F08CCF8091E80028
:10339000877F8093E8008091E80080FFFCCF8091D8
:1033A0001F018093F1008091E8008E77B9CF809162
:1033B000EF06813209F076CF8091F3069091F40602
:1033C000892B09F06FCF8091E800877F8093E80018
:1033D0000E9409058091F10680931F010E94251922
:1033E00061CF8091EF06813209F05CCF8091E800D7
:1033F000877F8093E8000E9409058091F206809300
:10340000E10650CF8091EF06813A09F04BCF8091D1
:10341000E800877F8093E8008091E80080FFFCCF80
:103420008091E106BECF803899F0823809F0C3C19F
:103430008091F3068F70873008F0BDC18093E9005A
:103440008091EB0085FB882780F91092E90006C087
:103450008091EB069091EC06911182609091E800CA
:10346000977F9093E8008093F1001092F100809193
:10347000E8008E779CC1882309F48AC1823009F064
:103480009AC18091F10681118DC18091F3068F70F0
:103490002FEF280F263008F08EC18093E90020918D
:1034A000EB0020FF7FC1933031F48091EB0080620C
:1034B0008093EB0077C19091EB0090619093EB00CB
:1034C00021E030E001C0220F8A95EAF72093EA005C
:1034D0001092EA008091EB008860EACF81116BC105
:1034E0001091F1061F778091E3008078812B809303
:1034F000E3008091E800877F8093E8000E9409053F
:103500008091E80080FFFCCF8091E3008068809389
:10351000E30082E0111183E08093ED064CC18058F6
:10352000823008F048C18091F1069091F2068C3DFE
:1035300023E09207A1F583E08A838AE289834FB76B
:10354000F894DE01139620E03EE051E2E32FF0E034
:1035500050935700E49120FF03C0E295EF703F5F66
:10356000EF708E2F90E0EA30C0F0C7968D939D9358
:103570002F5F243159F74FBF8091E800877F8093F8
:10358000E8006AE270E0CE0101960E94BB058091DE
:10359000E8008B778093E8000EC1C096E7CF40919A
:1035A000F3065091F406292F33272330310509F40F
:1035B00044C078F52130310509F46FC08FE990E0FF
:1035C000EEE1F5E02230310509F0F5C02091E80088
:1035D000277F2093E8002091F5063091F6068217A8
:1035E000930708F49C0140E02115310509F064C0FF
:1035F000411162C08091E80082FDC9CF8091ED0643
:10360000882329F2853019F28091E80083FFF2CFF8
:10361000BECF21323105A9F12232310509F0CBC0EC
:103620004115510509F443C04130510509F0C3C0AB
:1036300082E390E0ECEAF4E0C9CF9927813091056C
:10364000C1F0009759F0029709F0B5C0EFECF5E032
:10365000E4918E2F90E0EFECF5E007C0EFEFF5E09E
:10366000E4918E2F90E0EFEFF5E0009709F4A3C00E
:10367000ADCFEFEEF5E0E4918E2F90E0EFEEF5E0C8
:10368000F4CF4115510571F04130510509F093C057
:1036900089E090E0E9E4F5E099CF82E190E0EDEB9C
:1036A000F5E094CF89E090E0E0E3F5E08FCF80E4AF
:1036B00090E0EEEDF4E08ACF8091ED06882309F4E6
:1036C00066CF853009F463CF8091E80083FD5FCF3A
:1036D0008091E80082FD8ECF8091E80080FF84CF4A
:1036E0009091F3008091F2002115310519F0883096
:1036F000910550F041E0089709F040E08091E80022
:103700008E778093E80070CF44914093F10031961A
:10371000215031090196E8CF803809F04CC08091E2
:10372000E800877F8093E8008091EE068093F100A7
:103730009ECE811140C01091F1061230E0F58091CB
:10374000E800877F8093E8001093EE060E94090549
:10375000112311F084E005C08091E30087FDFACFCA
:1037600081E08093ED0642E061EC81E00E94280553
:1037700042E261EC82E00E94280542E361E883E0D6
:103780000E94280542E361E884E00E94280513C0F6
:103790008091F106813079F481E0933009F080E086
:1037A0008093EC061092E9008091E800877F809377
:1037B000E8000E9409058091E80083FF0AC080911B
:1037C000E800877F8093E8008091EB00806280931F
:1037D000EB00AA960FB6F894DEBF0FBECDBFDF9107
:1037E000CF911F9108958F929F92AF92BF92CF92E7
:1037F000DF92EF92FF920F931F93CF93DF9300D04E
:1038000000D00F92CDB7DEB76C01FC0183819481AB
:10381000892B41F010810181812F80238F3F11F08E
:103820000C94E5250F900F900F900F900F90DF9163
:10383000CF911F910F91FF90EF90DF90CF90BF90AD
:10384000AF909F908F9008950E943911F82E682FA5
:1038500089819A810E94DC11E02FF0E026E0F29E3F
:10386000E00DF11D112473E0EE0FFF1F7A95E1F7D3
:10387000E10FF11DEE0FFF1FE455FF4FE590F490AF
:1038800039E6E3163DE5F30609F4F3C008F093C00A
:1038900055E6E5165DE5F50609F4EBC108F067C0ED
:1038A00093E6E9169DE5F90609F41DC1E4E6EE1676
:1038B000EDE5FE0609F4AFC1FFEAEF16FCE5FF06F1
:1038C00008F0D3C22FE9E2162CE5F20608F01CC47A
:1038D00030E9E3163CE5F30608F069C243E8E41674
:1038E0004CE5F40608F0C0C351E8E5165CE5F506C2
:1038F00008F043C287E7E8168CE5F80608F091C3A4
:103900009FE2E9169CE5F90608F042C334EFE3169E
:103910003CE5F30609F4D8C408F028C359EDE516D0
:103920005CE5F50609F4CCC48AEDE8168CE5F806EA
:1039300009F4D6C498EDE9169CE5F90609F0F6C03D
:1039400026E241EE61EEC6010F900F900F900F90AE
:103950000F90DF91CF911F910F91FF90EF90DF902B
:10396000CF90BF90AF909F908F900C94EB13F60187
:103970008281F7E6EF16FDE5FF0609F4A9C008F419
:1039800084C1882309F4D2C02091220481E0282731
:10399000209322049091730580917405222309F4E9
:1039A000D2C1906890937305887F8093740583E0FB
:1039B00080930401BBC03CE6E3163DE5F30609F441
:1039C00073C0B8F45AE6E5165DE5F50609F45FC084
:1039D0008BE6E8168DE5F80609F06ECFF6018281D8
:1039E000882309F4A3C00E94C2131092240482E128
:1039F00058C09DE6E9169DE5F90609F45FC0E7EBBE
:103A0000EE16EDE5FE0608F057CF40910401009157
:103A100073050F7782E98E0D90E09C0121573B4F93
:103A20005901F9012081F6018281882309F493C1AB
:103A30002F3F09F041CF10917205812F8F7015959E
:103A40001595159515951E56FCE08F9F100D1124A8
:103A50001E0D212F2F774F704069E0912E07F091B6
:103A60002F0763E070E08EE297E00995F50110837F
:103A700023CFF6018281882309F458C00E94C21323
:103A800010922404109225040E946C134FC0F6017A
:103A90008281882309F44AC00E94C2131092240430
:103AA0008CE080932504F0CFF60182818823F1F128
:103AB0000E94C2131092240488E1F3CFF6018281A0
:103AC0008823A1F10E94C2131092240484E2E9CF5A
:103AD000882361F10E94C2138091240491E0892718
:103AE00080932404D1CFF60182818823F9F080915C
:103AF000150590911605A0911705B0911805843011
:103B00009105A105B10551F008F077C00197A10911
:103B1000B1090297A105B10508F0CECE809123042A
:103B2000882309F476C0815080932304F6019281A2
:103B3000992311F40C94F82510921D08F4E0EF1667
:103B4000FDE5FF0608F0CFC32BEFE2162CE5F206E9
:103B500038F4970122503C452431310508F0C9C39F
:103B60000E949718909388048093870440E1E4169C
:103B70004CE5F40609F4B7C408F025C488E0E8165B
:103B80008CE5F80609F49DC408F0F1C3E4E0EE16F4
:103B9000ECE5FE0609F487C408F0D3C322E0E21680
:103BA0002CE5F20609F479C480918704826033E041
:103BB000E3163CE5F30609F473C4609187041091A1
:103BC000880484E090E00E94F731612F82E290E067
:103BD0000E94F7310F900F900F900F900F90DF9190
:103BE000CF911F910F91FF90EF90DF90CF90BF90FA
:103BF000AF909F908F900C94251988309105A10566
:103C0000B10509F48BCF8097A105B10509F054CE19
:103C100085CF8BE089CFF6018281882309F486CF96
:103C20008091150590911605A0911705B091180582
:103C300084309105A105B10549F070F40197A109FF
:103C4000B1090297A105B10508F036CE8091230491
:103C50008B3068F48F5F68CF88309105A105B1057E
:103C6000A9F38097A105B10509F026CEEFCF80E03A
:103C70005BCFF6018281882309F458CF8091060139
:103C800091E089278093060151CF882309F44ECF14
:103C90004091150550911605609117057091180512
:103CA00080917205443951056105710551F0A8F400
:103CB0004159510961097109423051056105710588
:103CC000D8F49091050121E02927209305019093D4
:103CD0002304992331F1806F25C0403A51056105D5
:103CE000710539F1403E51056105710581F0483992
:103CF00051056105710529F31092050191E090933A
:103D00002304806F8093720590932404BDCE90911C
:103D1000050121E0922790930501992331F010923B
:103D200023048F708093720501CF9BE0909323044E
:103D3000D2CF109205019BE090932304806F809373
:103D4000720581E0CDCE9F7790937305887F809335
:103D5000740582E02DCE2F3F61F02F774F704068C1
:103D6000E0912E07F0912F0763E070E08EE297E07C
:103D700009958FEFF50180839FCDE1E8EE16ECE524
:103D8000FE0609F45FC1F2E8EF16FCE5FF0609F054
:103D9000BDCDF6018281882309F444CD809172055E
:103DA000982F9F70993008F03DCD9F5F57C12DE946
:103DB000E2162CE5F206D0F532E9E3163CE5F3060F
:103DC00008F074C140E9E4164CE5F40609F45AC160
:103DD00051E9E5165CE5F50609F098CDF60182811A
:103DE000882309F41FCD20917205822F8595859532
:103DF0008595859586300CF015CD91E0980F9295BC
:103E0000907F9595959595959595392F3295307F1D
:103E10002F70232B2093720518160CF003CD97FFFB
:103E200001CD8295807F922F9F701AC18DE9E8168F
:103E30008CE5F80609F44EC19EE9E9169CE5F90601
:103E400009F064CDF6018281882309F4EBCC8091DE
:103E50007305982F9F779F3709F4E4CC933708F0C8
:103E600051C1935F9F7780784BC1E5EBEE16ECE58F
:103E7000FE0609F4B5C108F03EC021EBE2162CE5C0
:103E8000F20609F475C1F8F44FEAE4164CE5F406BD
:103E900009F44FC150EBE5165CE5F50609F036CDA7
:103EA000F6018281882309F4BDCC20917305322F5D
:103EB000331F3327331F90917405892F8770880F24
:103EC000832B8F5F48C1F601228180917305909109
:103ED0007405F3EBEF16FCE5FF0609F46DC108F07D
:103EE00075C140E021114FE7881F8827881F977010
:103EF000990F60E44DC148EBE4164CE5F40609F473
:103F000081C1A0F486EBE8168CE5F80609F468C1D7
:103F100097EBE9169CE5F90609F0F8CCF6018281E9
:103F200081116EC18FEF809328057CCCEAEBEE16F1
:103F3000ECE5FE0609F49EC108F486C12BEBE216FF
:103F40002CE5F20609F0E2CC80917305982F991FB9
:103F50009927991F809174058770880F892BF60126
:103F600092816FEF7FE1911198C195C1E6EFEE1656
:103F7000ECE5FE0609F4B0C108F4AAC127EFE21689
:103F80002CE5F20609F0D2CD27E245EE66EEDBCC59
:103F900000917305802F881F8827881F4091740522
:103FA0004770440F482B0F7781ED8E0D90E0FC0198
:103FB000E65DFA4F5F012081F6018281882301F1DD
:103FC0002F3F09F02FCC80917205982F9F70859517
:103FD0008595859585958F52FCE09F9F800D1124D6
:103FE000E80E2E2D2F774069E0912E07F0912F07D4
:103FF00063E070E08EE297E00995F501E08212CC73
:104000002F3F59F02F774068E0912E07F0912F074E
:1040100063E070E08EE297E009958FEFF501808311
:1040200001CCF6018281882309F4FCCBF9E8EF0E7C
:104030002E2D2F70E22E80917205807FE82AE0926B
:104040007205F0CBF6018281882309F4EBCB8091D5
:104050007205982F9F7009F4E5CB915F9F70807F68
:10406000892B80937205DECBF6018281882309F4C7
:10407000D9CBF7E7EF0EE29460EFE622809172056C
:104080008F70DCCFF6018281882309F4CBCB80913D
:104090007205982F95959595959595959B3F0CF460
:1040A000C1CB915F9295907F8F70DACFF6018281BC
:1040B000882309F4B7CBFEE6EF0E8CE0E89EE02CF7
:1040C0001124E894E7F8809173058078E82AE0925B
:1040D0007305A8CBF6018281882309F4A3CB8091D4
:1040E0007305982F9F7709F49DCB80789F3721F433
:1040F00085678093730596CB9D30D8F39D509F774D
:10410000892BF7CF8F67F5CFF6018281882309F4D9
:1041100089CBF1E6EF0E80917305E0FA87F9809381
:1041200073058E2D8695877090917405987F892BE5
:1041300088C0F6018281882309F474CB209173052D
:10414000322F331F3327331F90917405892F8770C7
:10415000880F832B815F382F3F7080FB27F92093D6
:104160007305832F8695987F982B909374055ACB6F
:10417000F6018281882309F455CB90917305991F2C
:104180009927991F809174058770880F40E06BE72D
:10419000892B0F900F900F900F900F90DF91CF9180
:1041A0001F910F91FF90EF90DF90CF90BF90AF9055
:1041B0009F908F900C948C0340E021114FE7881F53
:1041C0008827881F9770990F61E4E2CF40E02111A2
:1041D0004FE7881F8827881F9770990F62E4D8CF10
:1041E000F601828140E081114FE790917305991F9C
:1041F0009927991F809174058770880F63E4C8CF51
:1042000081E091CEF6018281882309F40BCB909155
:104210007405292F2695269526952F7081E0820F0B
:104220008F70880F880F880F9778892B809374057B
:10423000982F987709F0F6CA220F220F220F87785D
:10424000822B80937405EECAF6018281882309F4DB
:10425000E9CA80917405982F987709F4E3CA982FDA
:10426000969596959695915F9F70990F990F990FD6
:1042700087785DCF80917305982F991F9927991F93
:10428000809174058770880F892BF601928160E018
:1042900070EE911102C070E060E00F900F900F90EF
:1042A0000F900F90DF91CF911F910F91FF90EF90A2
:1042B000DF90CF90BF90AF909F908F900C9473033E
:1042C00027E245EE65EE3FCB26E241EE60EE3BCBCA
:1042D00027E245EE64EE37CB26E241EE62EE33CBC9
:1042E00028E241E0EFCF32E6E3163DE5F30609F4BC
:1042F00037CC26E1E2162CE5F20609F01BC18091CD
:104300007F048A7A91E009F490E09093260469E2B0
:10431000811165E38AE194E00E9464070F900F9099
:104320000F900F900F90DF91CF911F910F91FF9001
:10433000EF90DF90CF90BF90AF909F908F900C94B4
:10434000181180918704806146E0E4164CE5F4067C
:1043500009F4A6C080918704886057E0E5165CE503
:10436000F50608F49DC080918704806299C08CE0B6
:10437000E8168CE5F80609F4AEC078F4809187045D
:104380008C60EAE0EE16ECE5FE0609F489C008F45C
:104390009CC0809187048E7F83C080918704877F33
:1043A0002EE0E2162CE5F20609F47AC0809187042B
:1043B0008B7F3FE0E3163CE5F30608F471C0809183
:1043C00087048F7E6DC04DEFE4164CE5F40609F4CA
:1043D00086C0A0F584E1E8168CE5F80609F497C0DC
:1043E00098F4E2E1EE16ECE5FE0609F480C0809157
:1043F00087048F7BF3E1EF16FCE5FF0608F450C05D
:1044000080918704837F4CC02BEFE2162CE5F206E7
:1044100009F44DC008F051C045E1E4164CE5F4063E
:1044200009F0CBCB8091870482FB992790F921E09A
:10443000922790FB82F990FB83F932C051E0E51698
:104440005DE5F50609F459C098F48091880483600D
:104450009FEFE9169CE5F90669F1809188048D7F4C
:10446000E114EDE5FE0630F1809188048C7F22C0D6
:10447000F3E0EF16FDE5FF0609F458C008F450C05C
:1044800032E6E3163DE5F30609F097CB90918704F9
:10449000892F8F7E94FF806103C0809187048160A3
:1044A000809387048ACB809187048460F9CF8091C0
:1044B000880481608093880480CB80918804826026
:1044C000F9CF809187048064EBCF0E9425198091F9
:1044D00087048068E5CF809187048D7FE1CF80914C
:1044E00088048E7FE7CF809187048F7DD9CF0E948B
:1044F0002519809187048F77D3CF80918804982FD6
:10450000909591708E7F892B90FB81F9D3CF0E947B
:10451000251990918704892F97FB87F98058C0CF80
:1045200061E08EE090E00E94F73147CB60E0F9CF88
:1045300085E369C3992361F180917F0482724BEC1A
:10454000E4164CE5F40609F4F4C008F087C0E6EC84
:10455000EE16ECE5FE0609F4D8C008F054C024ECD1
:10456000E2162CE5F20609F4C6C008F0C9C043EC17
:10457000E4164CE5F40609F4B3C0E1148CE5F80642
:1045800009F4EAC0EFEDEE16ECE5FE0609F400C111
:10459000F60110810181812F992309F40CC1902F1C
:1045A0000E943911F82E682F812F902F0E94DC1164
:1045B000E02FF0E026E0F29EE00DF11D112443E033
:1045C000EE0FFF1F4A95E1F7E10FF11DEE0FFF1F00
:1045D000E455FF4F859194910E94B00F182FB82E8B
:1045E000F60122814581342F32953F70892F8295C3
:1045F0008F70E82EF12C8C3008F015C1F701EE53C6
:10460000FD4C0C94513158ECE5165CE5F50609F4C7
:1046100086C008F47FC0F9ECEF16FCE5FF0609F44C
:1046200083C049EE57E065EF77E02AECE2162CE50F
:10463000F20609F0A2CF0F900F900F900F900F90FD
:10464000DF91CF911F910F91FF90EF90DF90CF906E
:10465000BF90AF909F908F900C94B60730EDE3160B
:104660003CE5F30609F476C040F55DECE5165CE543
:10467000F50609F468C008F461C0FEECEF16FCE52D
:10468000FF0609F465C084E02FECE2162CE5F20683
:1046900009F073CF0F900F900F900F900F90DF9154
:1046A000CF911F910F91FF90EF90DF90CF90BF902F
:1046B000AF909F908F900C944B0337EDE3163CE541
:1046C000F30638F481E142EDE4164CE5F40610F30C
:1046D000A9C85EE5E5165DE5F50609F4A3C84DCF6A
:1046E00080911F0891E0892780931F081092230171
:1046F00090931E0897C84BE258E064E378E09BCFA4
:1047000044E358E06BE278E096CF49E158E062E29A
:1047100078E091CF42E258E069E178E08CCF41E067
:1047200058E06DE078E087CF4DE058E061E078E058
:1047300082CF45EF57E069EE77E07DCF41ED57E05E
:104740006DED77E078CF4DED57E061ED77E073CF19
:1047500081E0A0CF8CE09ECF0E942519FFEF24E3DB
:104760003CE0F15020403040E1F700C0000087E716
:1047700097E7909301088093000888E19AE00FB6CC
:10478000F894A895809360000FBE90936000FFCFCF
:104790000F900F900F900F900F90DF91CF911F917E
:1047A0000F91FF90EF90DF90CF90BF90AF909F90D0
:1047B0008F900C94A518902F0E94B411F82EF8CE6B
:1047C000092F0F70907F11F00295007F812F222317
:1047D000C9F0002369F090E2910F983010F01111A8
:1047E0000BC080917F04082B00937F040E94181156
:1047F000812F0E94E41217C080917E04082B009341
:104800007E04F4CF0E94AB12002369F00095105E85
:10481000183010F0B11035C080917F040823009348
:104820007F040E94181198E0E91AF108E4E0EE16FE
:10483000F10410F40E94AA0785E0F601DE0111964A
:1048400001900D928A95E1F789819A810E94B411B5
:10485000EA81F0E026E0829FE00DF11D1124CF01F6
:1048600023E0880F991F2A95E1F7E981E80FF92FD6
:10487000F11DEE0FFF1FE455FF4F859194910C94AD
:10488000121C80917E04082300937E04CACF892FD6
:104890008F70907F903211F08295807FF1E0BF128F
:1048A0000EC0222331F0363008F0BDCF0E94A11295
:1048B000BACF353008F0B7CF0E949612B4CF22237A
:1048C00041F0332399F340FF93CF4F70F6014583B6
:1048D000EDCF332389F3193309F06FC1FFEF27EED2
:1048E00033E0F15020403040E1F700C00000812F5C
:1048F0000E94AB1298CF892F86958695837061F0C0
:10490000813009F090CF812F9370211102C090E087
:1049100080E00E947E0787CF812F9370211102C013
:1049200090E080E00E9494077ECF892F837009F089
:1049300065C0211178CF812F829586958770880F69
:10494000880F612F6F70862E912CB12CA12C082E10
:1049500004C0880C991CAA1CBB1C0A94D2F740E026
:1049600050E0BA0114FF0FC04FE050E060E070E08B
:1049700004C0440F551F661F771F8A95D2F74095D4
:10498000509560957095969596959370923019F123
:10499000D8F4009180041091810420918204309118
:1049A0008304913069F0482959296A297B29CB0170
:1049B000BA0160237123822393230E948C1233CF88
:1049C000802A912AA22AB32ACB01BA01682979291F
:1049D0008A299B29F2CF482959296A297B290091E4
:1049E0008004109181042091820430918304CB01D2
:1049F000BA016027712782279327DFCF869522236C
:104A000011F0892F8170882309F40DCF812F8295B1
:104A100086958770880F880F612F6F70862E912C76
:104A2000B12CA12C082E04C0880C991CAA1CBB1CFC
:104A30000A94D2F740E050E0BA0114FF0FC04FE0F3
:104A400050E060E070E004C0440F551F661F771F00
:104A50008A95D2F740955095609570959695969564
:104A60009370923019F1D8F4009115051091160544
:104A70002091170530911805913069F0482959297E
:104A80006A297B29CB01BA016023712382239323F6
:104A90000E943E12C8CE802A912AA22AB32ACB01B4
:104AA000BA01682979298A299B29F2CF48295929ED
:104AB0006A297B290091150510911605209117058B
:104AC00030911805CB01BA016027712782279327FF
:104AD000DFCF092F0F70222329F0802F0E946B1245
:104AE000812FE4CE812F0E949612802F0E944812BF
:104AF0009ACE812FE1EF1E1709F442C0E11758F05A
:104B0000F0EF1F17F1F0222309F44BC0311170CEE2
:104B1000892F8F713AC042EF1417D1F153EF15135B
:104B2000F2CF2223D1F1292F2F7161E070E080E0D4
:104B300090E004C0660F771F881F991F2A95D2F74F
:104B4000A7CF2223C9F0353008F06DCE292F2F7161
:104B500061E070E080E090E004C0660F771F881F7E
:104B6000991F2A95D2F700911505109116052091ED
:104B7000170530911805A8CF363008F054CEE6CF8F
:104B8000892F8F71222309F4B1CF0E946B124BCE73
:104B9000892F8F712223C9F3A9CF60E070E0CB0188
:104BA00077CF332379F0893341F48FEF97EEE3E049
:104BB00081509040E040E1F798CE8FE39CE9019767
:104BC000F1F793CE892F8F7191CF85E0DE01119699
:104BD00001900D928A95E1F7F601228189819A81EF
:104BE00021110C94241C0E94B411F82E0C942C1C3E
:104BF000F6E1EF16FCE5FF0609F0CACC8091260429
:104C0000811196CC89E2ECE1F4E022E234E091916A
:104C1000891303C0DF0111971C922E173F07B9F7C4
:104C20007DCB1F93CF93DF9380914A04807FA9F4BB
:104C300080914704882389F080917C04D0914B04B3
:104C40006091450470914604A0914804B0914904D4
:104C5000C62FC72316E0D81304C0DF91CF911F9150
:104C6000089590E0109711F0CF3F19F401968770E6
:104C7000F2CF189F9001199F300D1124F901E45BC8
:104C8000FB4F41814713F2CF40814613EFCF428162
:104C90004111ECCF438154814A1B5B0B483C5105C9
:104CA00028F780914A048F70806180934A04F9014B
:104CB000EF5AFB4F80818F708061808385E494E0A0
:104CC0000E94F31BDF91CF911F910C942F11AF9293
:104CD000BF92CF92DF92EF92FF920F931F93CF93E9
:104CE000DF93CDB7DEB761970FB6F894DEBF0FBE86
:104CF000CDBF8C0185E0F801DE011D9601900D927B
:104D00008A95E1F7F801E28085E4A82E84E0B82EC8
:104D100060914804709149046115710509F432C12C
:104D20009091450440914604892F84238F3F09F4D4
:104D300029C120813181C380D480F0904704F601DD
:104D4000E61BF70BFF2009F4E8C080914A04582FB6
:104D5000507FE83CF10508F0ABC0511177C0FE2C44
:104D6000431321C092131FC0E1101DC08F708061DA
:104D700080934A04C5010E94F31B80914A04F80104
:104D800085838F2D61960FB6F894DEBF0FBECDBF21
:104D9000DF91CF911F910F91FF90EF90DF90CF9017
:104DA000BF90AF900895CD2829F0822F83238F3FA5
:104DB00009F003C180E0F82FF170DF2E80FF3CC0C6
:104DC00080917C0440914B0456E0841315C02D87DC
:104DD0003E878D859E850E949811292F22952F70E0
:104DE0002230F0F0243018F59F70F1F0F801958131
:104DF000907FD1F4D12C1EC090E0589FF001599FB4
:104E0000F00D1124E45BFB4F6181361306C0608115
:104E1000261303C06281E6120FC001968770D5CFBA
:104E20009F7011F0882331F3805E883018F3C80139
:104E30000E94F31BFD2CA5CFEE2009F4A2CF809198
:104E40004A04816080934A04F12C9BCF431306C02F
:104E5000921304C0F801EE2009F479C0C8010E9441
:104E60000912882309F1EE20F9F080914A0480327A
:104E700070F0209145043091460438872F831986BD
:104E8000DB86CA868C87CE0107960E94F31B86E0DC
:104E9000F801A5E4B4E001900D928A95E1F70E9433
:104EA0001126FF24F3946DCFC8010E94F31BF9CFA4
:104EB00051110AC085E494E00E94F31B86E0F501DD
:104EC00011928A95E9F7C0CF43130FC092130DC01A
:104ED000E1100BC0F8018583C8010E94F31B86E036
:104EE000F50111928A95E9F74CCFC8010E94091289
:104EF0008823D1F2EE20C1F280914A04803238F248
:104F000020914504309146043A8329831B82DD8237
:104F1000CC828E83CE010196B8CFE83CF105F8F63D
:104F2000FE2CEE2009F243131FC092131DC0809186
:104F30004A0480FD10C0982F907F69F0F8018583A6
:104F4000903F31F0982F907F905F8F70892B8583F1
:104F5000C8010E94F31B86E0F801A5E4B4E00190CB
:104F60000D928A95E1F70DCFC8010E9409128111B7
:104F70008ECF80914A04816080934A04C8010E94C8
:104F8000F31BFFCEEE2009F48FCFC8010E94091257
:104F9000F82E882309F488CF86E0F801A5E4B4E070
:104FA00001900D928A95E1F7809145049091460415
:104FB0000E9498110E941126E4CE81E08E25FBCE3E
:104FC0001F93CF93DF93CDB7DEB767970FB6F894F3
:104FD000DEBF0FBECDBF4B8B5C8B6D8B7E8B8F8B03
:104FE000611110927E041A8A198A85E0FE01739677
:104FF000DE011D9601900D928A95E1F786E0FE0193
:105000003D96DE01179601900D928A95E1F7CE014B
:1050100007960E946726882389F016E080917C0419
:1050200090914B04891349C067960FB6F894DEBF80
:105030000FBECDBFDF91CF911F91089586E0FE0195
:105040003796DE01119601900D928A95E1F78A85D7
:105050009B85892B11F38F81988589238F3FE9F2F6
:1050600020914B0430E0C901019687709927409147
:105070007C044817190671F40E94251910924B04FC
:1050800010927C0486E0E5E4F4E0DF011D928A954D
:10509000E9F7C3CF96E0929FD001939FB00D112402
:1050A000A45BBB4FFE01319601900D929A95E1F7FA
:1050B00080934B040E942F11B0CF819FC001112417
:1050C000845B9B4F0E946726882309F4ADCF8091B3
:1050D0007C0490E001968770992780937C049ECF92
:1050E0009F92AF92BF92CF92DF92EF92FF920F9377
:1050F0001F93CF93DF93CDB7DEB72B970FB6F894FE
:10510000DEBF0FBECDBF8E010F5F1F4F86E0F801DF
:1051100011928A95E9F788EEC82E81E0D82EF12CFD
:10512000E12CAA24A394B12CF60181916F018F3F49
:1051300009F449C0F894E82FE295EF70F0E021A15E
:105140008F70A50102C0440F551F8A95E2F7CA016E
:10515000922F982B91A392A18095892382A3789472
:1051600000C0EEEEF1E030E020E0912C41914F3FA5
:1051700009F473C0A42FA295AF70B0E090968C9103
:1051800090E04F7002C0959587954A95E2F780FDB3
:1051900064C08A2D022E01C0880F0A94EAF7982A6B
:1051A0002F5F3F4F2830310509F7F6013197808195
:1051B0008F3F11F00E94560F50EA5A95F1F7F8010F
:1051C000EE0DFF1D90828FEFE81AF80AE6E0EE166A
:1051D000F10409F0A9CF46E050E0B80189E894E075
:1051E0000E94B331FF24F394009709F4F12C892B2A
:1051F000B1F186E0F801A9E8B4E001900D928A953A
:10520000E1F781E0809386040E945807909385041B
:105210008093840480918404909185040E944907BE
:10522000059708F1809189048093D80480918A04BD
:105230008093D90480918B048093DA0480918C044C
:105240008093DB0480918D048093DC0480918E0434
:105250008093DD041092860406C080E0A0CF809188
:1052600086048111D7CF80911A058823A9F08695ED
:1052700031F187E08F8382E0888719860E94580782
:105280008160782F9B878A8710921A054F815885F5
:1052900069858B850E94E0278F2D2B960FB6F89499
:1052A000DEBF0FBECDBFDF91CF911F910F91FF9059
:1052B000EF90DF90CF90BF90AF909F90089587E0E0
:1052C0008F8381E0D9CF1F920F920FB60F921124D6
:1052D0002F933F934F935F936F937F938F939F93FE
:1052E000AF93BF93CF93DF93EF93FF93D091E900F8
:1052F000DF708091EC00C82FC17080FDC0E8109273
:10530000E9008091F000877F8093F00078940E94FC
:1053100030191092E9008091F00088608093F000CD
:10532000CD2BCF70C093E900FF91EF91DF91CF912A
:10533000BF91AF919F918F917F916F915F914F91AD
:105340003F912F910F900FBE0F901F9018951F92B5
:105350000F920FB60F9211242F933F934F935F93A9
:105360006F937F938F939F93AF93BF93EF93FF932D
:105370008091E10082FF09C08091E20082FF05C0B8
:105380008091E1008B7F8093E1008091DA0080FFC3
:1053900024C08091D80080FF20C08091DA008E7FE9
:1053A0008093DA008091D90080FF9BC080E189BDA5
:1053B00082E189BD09B400FEFDCF81E08093ED0656
:1053C0008091E006811109C00E948F040E945A0555
:1053D0008091E20084608093E2008091E10080FF90
:1053E00017C08091E20080FF13C08091E2008E7FA1
:1053F0008093E2008091E20080618093E2008091DE
:10540000D80080628093D80019BC85E08093ED06B7
:105410008091E10084FF29C08091E20084FF25C0D3
:1054200080E189BD82E189BD89B5982F917080FFA7
:10543000FBCF8091D8008F7D8093D8008091E100D0
:105440008F7E8093E1008091E2008F7E8093E20066
:105450008091E20081608093E2008091EE068823D3
:1054600009F445C084E08093ED068091E10083FF5C
:1054700027C08091E20083FF23C08091E100877FF5
:105480008093E10082E08093ED061092EE06809119
:10549000E1008E7F8093E1008091E2008E7F809317
:1054A000E2008091E20080618093E20042E060E0EF
:1054B00080E00E9428058091F00088608093F000D1
:1054C000FF91EF91BF91AF919F918F917F916F91DC
:1054D0005F914F913F912F910F900FBE0F901F90B2
:1054E000189519BC1092ED061092E00676CF8091C7
:1054F000E30087FD93E09093ED06B7CF78941F9279
:105500001FB61F9211248F939F93AF93BF938091E7
:10551000D9069091DA06A091DB06B091DC060196DF
:10552000A11DB11D8093D9069093DA06A093DB06E6
:10553000B093DC06BF91AF919F918F911F901FBEDA
:105540001F9018951F921FB61F9211248F939F933F
:10555000AF93BF938091D806811113C08091D90673
:105560009091DA06A091DB06B091DC064196A11D70
:10557000B11D8093D9069093DA06A093DB06B09311
:10558000DC06BF91AF919F918F911F901FBE1F901E
:105590001895CDB7DEB764970FB6F894DEBF0FBE8F
:1055A000CDBF0E94370F10925307109255071092EB
:1055B000540780EC8093180886E597E090931A08CA
:1055C000809319081092170810921608109233074A
:1055D0001092320710923507109234071092370755
:1055E00010923607109239071092380710923B0735
:1055F00010923A0710923D0710923C0710923F0715
:1056000010923E07109241071092400710924307F4
:1056100010924207109245071092440710924707D4
:1056200010924607109249071092480710924D07B2
:1056300010924C078EEE96E090932F0780932E07E2
:1056400082E496E090934F0780934E078EE196E0B8
:1056500090934B0780934A078DE196E09093310732
:105660008093300784B7877F84BF0FB6F894A895DE
:1056700080916000886180936000109260000FBE8E
:1056800080E890E00FB6F8948093610090936100F9
:105690000FBE85B7806885BF85B7806885BF84E504
:1056A0009FE090931904809318040E948F040E9435
:1056B0005A058091E20084608093E20078948091A2
:1056C000ED068823A1F01091E9001F709091EC0085
:1056D000892F817090FD80E8182B1092E90080914D
:1056E000E80083FD0E9430191F701093E90082E0EA
:1056F00084BD93E095BD9AEF97BD80936E0008EE50
:1057000011E06EEEC62E61E0D62ED8018D918D018E
:105710008F3F11F00E94560FC016D106B1F70EEE62
:1057200011E0F80181918F018F3F11F00E94560F17
:10573000F1E0063F1F07A9F7E9E8F4E0A8EDB4E0BF
:1057400011921D9204E0EF38F007D1F790E080E06D
:105750000E94E131893E9E4F11F00E94A51882E01F
:1057600090E00E94D93180931F050E949718909372
:1057700088048093870483E090E00E94D931682FE9
:1057800070E090E080E00E948C121092FB06EAE14B
:10579000F7E08EE297E02FEF3FEF219331938E17E2
:1057A0009F07D9F71092DE04EDEFF4E081E195E078
:1057B0002FEF3FEF219331938E179F07D9F790E09A
:1057C00080E00E94E131893E9E4F21F00E94A518A1
:1057D0000E947F1846E050E06CE170E08FE198E0B5
:1057E0000E94C93180911F088C7F11F40E947F189C
:1057F00025982D9A24982C9A83B185FB882780F9C7
:105800001C9920C290E0892B80931D05EFE8F4E0FD
:1058100088ED94E02FEF21938E179F07E1F70E9408
:10582000CD1387E091E09093D5068093D40688ED60
:1058300094E006E0080F0C8BFF24F3948091ED06B2
:10584000853089F440E4D42E53E0C52E00E112E106
:105850008091ED06853009F4F7C10E9425190E9458
:10586000AA07109219050E947028882359F08FB753
:10587000F8944091D9065091DA066091DB06709158
:10588000DC068FBFE0E2F5E0A8EDB4E010E000E058
:10589000902FBD9081918B1509F43CC28B25D12CA2
:1058A000CC24C394282F2C2109F42FC2DE829F839D
:1058B000BC2081E009F480E088870E94580781605D
:1058C000782F9A8789874E815F8168858A850E94B3
:1058D000E027F801E05EFA4F8081C826C082BB2035
:1058E00089F0F80133E0EE0FFF1F3A95E1F7E45736
:1058F000FD4FED0DF11D8081B12C8F3F19F0E82E89
:10590000BB24B3940B2D10E08091DE04800F912F07
:10591000911D0B976CF18AE0C82ED12CC01AD10AC8
:10592000B80161527B4FA6018FED94E00E94C03117
:10593000B80167517B4FA60189EE94E00E94C03107
:10594000A601440F551FB801660F771F63507B4FA8
:105950008DEF94E00E94C031B8016D507B4FA601DD
:1059600083EF94E00E94C0318AE08B198093DE04BB
:105970008091DE0490E0AE2DB0E09D01220F331F38
:1059800024543D4FAA0FBB1FBD0163547D4F41E01E
:10599000480F9B1508F4A4C18093DE048091110583
:1059A00090911205A0911305B09114054FB7F8948A
:1059B0000091D9061091DA062091DB063091DC06C1
:1059C0004FBFB901A801481B590B6A0B7B0B488BD1
:1059D000598B6A8B7B8B4FB7F8948090D906909047
:1059E000DA06A090DB06B090DC064FBF809211056E
:1059F00090921205A0921305B09214056091DE04F6
:105A0000EEEDF4E0462F50E00197AF4FBF4F801B03
:105A1000910BA20BB30B651394C14093DE048091EC
:105A2000190510E0811108C080911F08182F13700C
:105A300019F0182F1695169580912301813009F4DD
:105A4000ABC1882309F492C1823009F4EEC28330DD
:105A500009F4F8C2E0911D05EE0FEE0FE0931D056D
:105A600083B185FB662460F81C9919C380E0862900
:105A7000E82BE0931D05EF70F0E0EB59FD4F8081BE
:105A800090911C05890F80931C0520E08430C4F0A0
:105A900080911B058F5F80931B0587E08983FA82C5
:105AA000FB820E9458078160782F9D838C83F0923F
:105AB0001A0549815A816B818D810E94E02721E07E
:105AC00080911C058D3FCCF480911B058150809303
:105AD0001B0587E0898312E01A83FB820E94580726
