:100000000C945F020C94A6020C94A6020C94A60217
:100010000C94A6020C94A6020C94A6020C94A602C0
:100020000C94A6020C94A6020C9498270C946C28AD
:100030000C94FE1D0C94A6020C94A6020C94A6022D
:100040000C94A6020C94A6020C94A6020C94A60290
:100050000C94A6020C94551E0C94A6020C94A602B5
:100060000C94A6020C94A6020C94A6020C94A60270
:100070000C94A6020C94A6020C94A6020C94A60260
:100080000C94A6020C94A6020C94A6020C94A60250
:100090000C94A6020C94A6020C94A6020C94A60240
:1000A0000C94A6020C94A6020C94A602A843B95C78
:1000B0005E5D5F5DBA5C3B5C3C5CB15C3D5C3E5C44
:1000C0003F5C405C415C425C435CAA00445C455C34
:1000D000465C475C485C495C4A5CA9004B5C4C5CF4
:1000E0004D5C4E5C4F5C505C515C0000525C535C5C
:1000F000545C555C565C575C585C0000595C5A5C1B
:100100005B5C5C5C5D5C5E5C5F5C00000100010050
:10011000905C915C01000100010001000100010000
:1001200001000100010001000100010001000100C7
:1001300001000100010001000100010001000100B7
:1001400001000100010001000100000001000100A8
:100150000100010001000100010000000100010098
:100160000100010001000100010000000100000089
:10017000000000000000000000000100000000007E
:10018000000000000000000000000100000000006E
:10019000000000000000000000000100000000005E
:1001A000000000000000000000000000000000004F
:1001B000000000000000000000000000000000003F
:1001C00000000000000000000000000001009C5C36
:1001D000815C825C9D5C615D625D01000252000099
:1001E000000000000000000000000000000000000F
:1001F00000000000000000000000000000000000FF
:1002000000000000000000000000000000000000EE
:10021000C85C0000C65C0000CC5C00000000CA5C4A
:100220000000C45C0000605D0000000000000000F1
:10023000000000002A2B2800000000000000000041
:100240000000000000000029000000002C1E3420E7
:10025000212224342627252E362D3738271E1F200D
:100260002122232425263333362E37381F04050652
:100270000708090A0B0C0D0E0F1011121314151696
:100280001718191A1B1C1D2F3130232D3504050694
:100290000708090A0B0C0D0E0F1011121314151676
:1002A0001718191A1B1C1D2F3130354C0000000087
:1002B000000000000000000000000000000000003E
:1002C000000000000000000000000000000000002E
:1002D0007E0F00D4FFFFFFC7000000781E036300FD
:1002E000680072006F006D00610074006F006E00A6
:1002F00065006D0069006E00690000000E033300A8
:1003000061007200610068007400000004030904C9
:100310000902BF00050100A0FA0904000001030161
:100320000100092111010001224000070581030895
:10033000000A090401000203000000092111010064
:100340000122220007058203200001070503032084
:10035000000109040200010300000009211101004D
:1003600001227B000705840320000A080B03020119
:10037000010000090403000001010000092401003C
:10038000010900010409040400020103000007241C
:1003900001000141000624020101000624020202BC
:1003A00000092403010301020100092403020401DE
:1003B00001010009050602400005000005250101B4
:1003C0000109058502400005000005250101031211
:1003D00001100100000008EDFEB4F401000102006C
:1003E000010660FF0961A1010962150026FF009561
:1003F00020750881020963150026FF009520750805
:100400009102C005010902A10185020901A10005AF
:1004100009190129081500250195087501810205B2
:1004200001093009311581257F950275088106097A
:10043000381581257F950175088106050C0A38025B
:100440001581257F950175088106C0C005010980C9
:10045000A101850319012AB700150126B7009501EE
:1004600075108100C0050C0901A101850419012A3C
:10047000A002150126A002950175108100C005019A
:100480000906A101050719E029E7150025019508CE
:10049000750181029501750881010507190029FF81
:1004A000150026FF00950675088100050819012929
:1004B00005950575019102950175039101C01124FF
:1004C0001FBECFEFDAE0DEBFCDBF04B603FE27C00C
:1004D0008091CD039091CE03A091CF03B091D00332
:1004E0008730904BA740B04BD1F41092CD031092BF
:1004F000CE031092CF031092D00314BE84B7877F2F
:1005000084BF0FB6F894A8958091600088618093AD
:100510006000109260000FBEE0E0F8E3099511E082
:10052000A0E0B1E0ECE9F5E502C005900D92A83C31
:10053000B107D9F723E0A8ECB1E001C01D92AD3CB2
:10054000B207E1F70E9452240C94952A0C94000003
:10055000882311F0815008958BE008958B3010F4BA
:100560008F5F089580E00895EF92FF920F931F939D
:10057000CF93DF9300D000D000D0CDB7DEB781118C
:1005800017C084E0689FF0011124EF5DFE4FF080FA
:10059000E280C7010E94EE1BB7010E9474108C011B
:1005A000E982FA828C32ECE59E0780F40E94AA036D
:1005B00081E026960FB6F894DEBF0FBECDBFDF9167
:1005C000CF911F910F91FF90EF90089581E08B8361
:1005D000BE016F5F7F4FC8010E94D8088AE090E09B
:1005E000EFE9FFE03197F1F700C000000197C1F794
:1005F0001B82BE016F5F7F4FC8010E94D808D8CF11
:10060000EBECF2E08081807F8260808361E070E0CB
:1006100080E090E00C949B1AEBECF2E080818F700C
:1006200080831092CA0108958F352DE5920741F11C
:1006300028F48E359D45C9F081E0089581362DE579
:10064000920751F082369D45B9F70E940C0362E093
:1006500070E080E090E006C00E940C0361E070E072
:1006600080E090E00E949B1AE7CFFB018281882303
:1006700019F38091CA010E94A8028093CA01DCCFBD
:10068000FB0182818823C1F28091CA010E94AE02DF
:10069000F4CFCF93DF939C013A9521153F4168F544
:1006A000EC01CC27D170DC01AA27B270AC01442741
:1006B00054709C012227387094FF11C080E1CD2B2B
:1006C00009F480E0AB2B09F08062452B09F08064CF
:1006D000232B09F08068FB01DF91CF91099481E021
:1006E000CD2B09F480E0AB2B09F08260452B09F09B
:1006F0008460232B81F38860EECFDF91CF91089542
:10070000CF93DF93EC01805E9109089720F067E5B5
:1007100077E1209711F469E675E1CE010E94490363
:100720008C2FDF91CF910C94CD14CF93DF93EC01FC
:100730000E941B15CE01805E9109089720F06EE59E
:1007400077E1209711F460E775E1CE01DF91CF9159
:100750000C944903CF93DF93EC010E9480038FE355
:100760009CE90197F1F700C00000CE01DF91CF9125
:100770000C94950381E008950C94140308950C944F
:10078000BE031F93CF93DF9300D000D00F92CDB75D
:10079000DEB749835A836B833091470289819A81FE
:1007A00031111DC06623B9F02223A9F00E94EE1B6F
:1007B000182F682F89819A810E94991B69817A81FB
:1007C000812F0F900F900F900F900F90DF91CF918E
:1007D0001F910C9474100E94C61B182FEFCF0E941B
:1007E000EE1B69817A81EDCFFC01262F408151817A
:1007F0006281738184810C94C103CF93DF93EC01F8
:1008000060E00E94F403BE01DF91CF910C94BF031E
:100810008F929F92AF92BF92CF92DF92EF92FF9210
:100820000F931F936B017C0181E090E0A0E0B0E0AA
:100830004C015D0104C0880C991CAA1CBB1C4A9584
:10084000D2F7B501A4014C015D0104C0880C991CCC
:10085000AA1CBB1C2A95D2F7482959296A297B2949
:1008600004C0880F991FAA1FBB1F0A95D2F78A01DF
:100870009B010C211D212E213F210417150726075E
:10088000370789F48C299D29AE29BF29BC01CD01E8
:100890001F910F91FF90EF90DF90CF90BF90AF909E
:1008A0009F908F90089580959095A095B0958C21FC
:1008B0009D21AE21BF21EACF0F93382F262F6091C3
:1008C0009E0270919F028091A0029091A102042F3C
:1008D000432F0E9408040F910C94D71A0E947B07A3
:1008E0000C94A0070C94A30708950E947B170E9404
:1008F00074042FEF84E39CE0215080409040E1F7A6
:1009000000C000000C94791E0F931F93CF93DF93C8
:10091000EC0161E00E94F4038C01BE010E94BB0E59
:10092000882389F1BE01C8010E94BC03882359F1C4
:10093000BE01C8010E94D808882329F1BE01C80160
:100940000E94AB118823F9F0BE01C8010E94FD117D
:100950008823C9F0BE01C8010E942013882399F0A2
:100960008A81882339F001158CE5180751F00E3D76
:100970001C4579F0CE01DF91CF911F910F910C941E
:10098000BA030E94750480E0DF91CF911F910F910F
:1009900008950E94641DF7CFDF92EF92FF920F93AC
:1009A0001F93CF93DF93E82FF0E0E45DFD4FD490E9
:1009B000282F26952695269530E0F901E453FD4F22
:1009C0000491877010E0082E02C0159507950A94CF
:1009D000E2F701701127F901E454FD4FE490F12C86
:1009E000082E02C0F594E7940A94E2F791E0E92218
:1009F000FF24F901E455FD4FC491D0E002C0D59524
:100A0000C7958A95E2F7C170DD270115110519F028
:100A100081EE0E94CD14E114F10419F086EE0E94DB
:100A2000CD148D2D0E946115EF2819F086EE0E94DD
:100A30001B15012B19F081EE0E941B15CD2B51F0D7
:100A40008CE2DF91CF911F910F91FF90EF90DF909B
:100A50000C946115DF91CF911F910F91FF90EF9052
:100A6000DF900895EF92FF920F931F93CF93DF9340
:100A7000EC01162F0AE08881882309F454C08130E4
:100A800009F04EC08981813099F47E0122E0E20EA6
:100A9000F11C8A810E946115E7012196812F815006
:100AA00050F3EFE9FFE03197F1F700C00000F7CF16
:100AB000823041F47E0182E0E80EF11C8A810E94BE
:100AC000CD14EACF833041F47E01E2E0EE0EF11C5A
:100AD0008A810E941B15E0CF843011F02196DDCF72
:100AE0002A81229690E080E0AE014F5F5F4F205355
:100AF000330B2A30310548F0019778F2EFE9FFE037
:100B00003197F1F700C00000F7CF089FB001099FAF
:100B1000700D1124C901860F971F2981EA01E4CFC6
:100B20000E94CC04BACFDF91CF911F910F91FF901B
:100B3000EF90089560E00C94320508950C949D05A3
:100B400081E008950C94A005CF93C82F0E949E05C4
:100B50008C2FCF910C94A205CF93DF930E94741039
:100B60000E948906EC01811520E5920760F5811548
:100B700030E4930708F07AC08F3B910580F4883AFF
:100B8000910508F066C0853A910508F05AC0843096
:100B9000910588F4019779F0D0E0C0E00CC08F3F58
:100BA000910509F060F4803F910508F05DC0805E1A
:100BB0009109089788F7CE01DF91CF9108958115AB
:100BC0009042C8F3E9CFC11584E5D807A0F4C11558
:100BD00093E5D90708F07BC0C11522E5D20708F0DC
:100BE00065C0C11531E5D30708F443C0DC2FCC271D
:100BF000C16FD06AE0CFC1154AE5D40770F4C115C2
:100C000089E5D80708F077C0C11598E5D90720F223
:100C1000DC2FCC27C06FD06ACECFCE019056811585
:100C2000904208F0B9CF8D2F8F710E94200790E07D
:100C3000982F882788279F719C012C2BE901D0626F
:100C4000BACFC55AD0E0C95ADE4FC881D0E0D064CF
:100C5000B2CFC85AD0E0CC0FDD1FC75DDE4F099080
:100C6000D881C02DD464A7CFD065A5CFDF70D06A5E
:100C7000A2CFCE0164E0969587956A95E1F78370DF
:100C80002C2F26952695237040E2249F9001112455
:100C9000382B8C2F8370C1E0D0E002C0CC0FDD1F59
:100CA0008A95E2F7C22BD32BDC6885CFCE01837007
:100CB000992721E030E002C0220F331F8A95E2F726
:100CC000C695C69580E2C89FE0011124EBCFCE0106
:100CD0008370992721E030E002C0220F331F8A95EC
:100CE000E2F7C695C69590E2C99FE0011124C22B98
:100CF000D32BDA6860CF8C2F8F700E94200734E0EE
:100D0000D695C7953A95E1F7CF709C2FEC01D06945
:100D100052CF82389105B1F1B0F48133910509F4D5
:100D200075C048F48932910509F469C08A32910589
:100D300009F473C008958533910509F459C08933C6
:100D4000910501F10895833E9105A9F138F4803EA3
:100D50009105F9F0823E910549F10895863E91058D
:100D6000A9F1873E9105C9F1843E910519F52091BD
:100D7000BE0221FF1FC08091BD0284FD14C087EE1A
:100D800090E008952091BD022370A1F080EE90E0E4
:100D900008952091BD0220FD47C03091BE0230FF72
:100DA00009C024FF44C090E080E004C02091BD024F
:100DB00022FDF7CF08952091BD0222FD3BC0309166
:100DC000BE0230FDE3CF24FFF5CFEDCF2091BD0271
:100DD00023FFF0CF24FDE7CFD2CF2091BD0223FD2A
:100DE0002CC03091BE0231FFEECF84EE90E008952A
:100DF0002091BD0225FFDECF89E290E00895209189
:100E0000BD0225FFD7CF85E390E008952091BD0274
:100E100026FFD0CF8AE290E008952091BD0226FF00
:100E2000C9CF81E390E0089589E390E0089583EECF
:100E300090E0089582EE90E0089586EE90E00895A7
:100E40009091BD0292FF06C0282F28712830F9F436
:100E5000877F846093FF06C0282F28712831F1F422
:100E6000877E84612091BE0220FF06C0382F387132
:100E70003830D9F4877F816021FF06C0282F287180
:100E80002831D1F4877E816194FD877E0895282FD3
:100E900024712430F9F68B7F8860DCCF282F2471F1
:100EA000243101F78B7E8861DDCF382F31713130ED
:100EB00019F78E7F8860E0CF282F2171213121F72B
:100EC0008E7E8861E1CF0C94950E0E94FE078FE321
:100ED0009CE90197F1F700C000000E94FE0780E046
:100EE0000E94A50780FF04C00E9463070C94791E2E
:100EF00008950C9465070E94BF1C811102C00E94D6
:100F0000641D0E94CA1C8093B1020E94D21C90935F
:100F1000BE028093BD020E9479070E94CE1C682FFA
:100F200070E090E080E00E949B1A60919E027091B8
:100F30009F028091A0029091A1020C94D51A08956D
:100F40000C949F0708950C94A207E82FF0E0EB5350
:100F5000FD4F80810895089580EA8A95F1F70895FC
:100F600000C008950C94AC07F894E82FE295EF7058
:100F7000F0E031A1282F2F7081E090E001C0880FB0
:100F80002A95EAF7982F9095932391A392A1892B04
:100F900082A3789408950F931F93CF93DF9386ECE9
:100FA0000E94B40787E90E94B40786E60E94B4074E
:100FB00084E90E94B40780E90E94B40781E90E9495
:100FC000B407CAE5D1E002E611E089910E94B407B6
:100FD0000C171D07D1F7EFEBF2E0A5ECB2E0119290
:100FE0001D9282E0E53CF807D1F786E00E94750883
:100FF000DF91CF911F910F910C946E04CF92DF92ED
:10100000EF92FF920F931F93CF93DF93C2E6D1E04D
:101010000FEB12E0D12CEE24E394F12C8991F8949B
:10102000E82FE295EF70F0E021A18F70A70102C0D8
:10103000440F551F8A95E2F7CA01922F982B91A36E
:1010400092A18095892382A378940E94B007EAE553
:10105000F1E030E020E0C12C4191A42FA295AF70C7
:10106000B0E090968C9190E04F7002C09595879576
:101070004A95E2F780FD35C08E2D022E01C0880F03
:101080000A94EAF7C82A2F5F3F4F2830310521F72D
:10109000FE01319780810E94B4070E94B207F801D7
:1010A0008081C81601F1C08281E0D82A0F5F1F4FEE
:1010B000F1E0C836DF0709F0B1CF2D2D46E065EC31
:1010C00072E08FEB92E00E9476080E9472048D2DF0
:1010D000DF91CF911F910F91FF90EF90DF90CF9014
:1010E000089580E0CFCF80E0E0CF0895FF920F9386
:1010F0001F93CF93DF93F82E092F162FD72FC42FCE
:10110000222349F081E08093CD010E942E1E90930E
:10111000CC018093CB018091CD018823A1F08091F7
:10112000CB019091CC010E94461E069760F0EF2DF6
:10113000F02FA12FBD2FCE0FDF2FD11DEC17FD07F4
:1011400041F41092CD01DF91CF911F910F91FF904B
:10115000089581918D93F2CF84E08093CB028FE745
:101160008093CC028091CD02807880648093CD0200
:10117000E2EDF1E08FEF819392E0EA31F907D9F7E0
:101180001092D1011092D0011092CF011092CE0195
:1011900008959091CB02292F2F709595959595954F
:1011A00095959F523CE0239F900D1124890F08953F
:1011B000FF920F931F93CF93DF93FB018E3A2CE5A1
:1011C000920708F085C08E394CE5940708F08DC170
:1011D00080392CE5920750F583384CE5940708F0E8
:1011E00040C181382CE5920760F487374CE59407BD
:1011F00008F01FC18F322CE5920708F0DFC0C1E074
:1012000011C181384CE5940709F420C182389C450E
:10121000B1F78281882309F4EBC08091CB02982F2B
:101220009F70993008F0E4C09F5F19C18C394CE57C
:101230009407A0F582392CE5920708F02FC1803978
:101240004CE5940709F418C181399C45C1F68281A7
:10125000882309F4CDC02091CB02822F85958595F6
:101260008595859586300CF0C3C091E0980F9295D6
:10127000907F9595959595959595392F3295307FD9
:101280002F70232B2093CB0218160CF0B1C097FFC0
:10129000AFC08295807F922F9F70D4C08C394CE56F
:1012A000940709F409C18D399C4509F0A8CF8281C2
:1012B000882309F49DC08091CC02982F9F779F3797
:1012C00009F496C0933708F00EC1935F9F77F2C080
:1012D000843B4CE5940709F466C1C8F5803B4CE5B6
:1012E000940709F432C1D8F48E3A4CE5940709F416
:1012F0000EC18F3A9C4509F082CF8281882309F480
:1013000077C02091CC02322F331F3327331F9091A7
:10131000CD02892F8770880F832B8F5F09C1609161
:10132000CC023091CD022281823B4CE5940709F436
:101330002EC108F420C121112FE7862F881F88278E
:10134000881F632F6770660F682B42E40FC1873BCD
:101350002CE5920709F43AC180F4853B2CE592070D
:1013600009F421C1863B9C4509F049CF8281811156
:101370002BC18FEF8093D0013BC0893B2CE59207B6
:1013800009F45AC108F443C18A3B9C4509F037CFA0
:10139000C2816091CC02862F881F8827881F6091A8
:1013A000CD026770660F682BCC2309F455C14FEF4F
:1013B0005FE183ED92E00E94EC1E1AC02091CC0206
:1013C000322F331F3327331FD091CD02D770DD0F5B
:1013D000D32BF22EE894F7F8C28101ED080F10E04C
:1013E0000E521E4FF8014081CC2389F04F3F11F07F
:1013F000C0E018C00E94C908C82F2F2D482F6D2F9C
:1014000083ED92E00E94CC1EF801C083F1CF4F3FE4
:1014100031F02F2D6D2F83ED92E00E94DC1E8FEFB7
:10142000F80180838C2FDF91CF911F910F91FF9056
:10143000089522812223E1F28757982F9F7080918F
:10144000CB02807F892B8093CB02D2CF82818823ED
:1014500079F28091CB02982F9F7051F2915F9F702B
:10146000F0CF2281222321F28958982F9295907FE4
:101470008091CB028F70E6CF8281882309F4B8CFA8
:101480008091CB02982F95959595959595959B3F35
:101490000CF4AECF915F9295907FECCF2281222306
:1014A00009F4A6CF82599EE0899F902D11249F7741
:1014B0008091CC02807815C08281882309F498CF6E
:1014C0008091CC02982F9F7709F492CF80789F3734
:1014D00021F485678093CC028BCF9D30D8F39D504B
:1014E0009F77892BF7CF8F67F5CF2281222309F4CD
:1014F0007FCF8E599091CC0280FB97F99093CC02CC
:10150000869587709091CD02987F892B7DC08281CE
:10151000882309F46DCF2091CC02322F331F33275B
:10152000331F9091CD02892F8770880F832B815FA5
:10153000382F3F7080FB27F92093CC02832F8695AC
:10154000987F982B9093CD0253CF8281882309F402
:101550004FCF6091CC02862F881F8827881F60910B
:10156000CD026770660F682B20E04BE783ED92E0B9
:101570000E94BC1E3DCF21112FE7862F881F882790
:10158000881F632F6770660F682B40E4EFCF21112F
:101590002FE7862F881F8827881F632F6770660FA5
:1015A000682B41E4E3CF828120E081112FE7609135
:1015B000CC02862F881F8827881F6091CD02677014
:1015C000660F682B43E4D2CF81E0D4CE828188239A
:1015D00009F40ECF9091CD02292F269526952695B8
:1015E0002F7081E0820F8F70880F880F880F977897
:1015F000892B8093CD02982F987709F0F9CE220F8E
:10160000220F220F8778822B8093CD02F1CE828128
:10161000882309F4EDCE8091CD02982F987709F4B4
:10162000E7CE982F969596959695915F9F70990F16
:10163000990F990F877869CFC2816091CC02862F6C
:10164000881F8827881F6091CD026770660F682BFE
:1016500040E050EEC111ADCE50E040E083ED92E0AD
:101660000E94EC1EDFCE83ED92E00E94EE2080917E
:10167000CE019091CF010E94461E2091CD02269569
:10168000269526952F702817190609F0A0F50E94B7
:101690002E1E9093CF018093CE018091D00188239C
:1016A00051F16091CC02862F881F8827881F609196
:1016B000CD026770660F682B2091D10141E083ED68
:1016C00092E00E94BC1E8091D0019091D10187FFD1
:1016D0000DC0482F552741950CF4509594171506C9
:1016E0002CF41092D1011092D0010895890F87FD3A
:1016F00003C08093D10108958FE7FBCF8091200232
:1017000080FF12C06091050185E0689FB00111243F
:10171000759567957595679560387105A8F561159C
:101720007105A1F1862F089581FF09C0609105011F
:1017300085E0689FB001112475956795EDCF6091A4
:10174000050182FD0AC080911F028823D1F090918B
:10175000040160910501891728F085E0689FB001B8
:101760001124DACF869FB001112485E0869F900175
:10177000879F300D1124692F70E0C9010E94322A21
:10178000CBCF65E070E0CECF8FE7089581E008957C
:101790008091200280FF0CC06091010170E075957E
:1017A0006795759567956115710549F1862F0895BF
:1017B00081FF06C06091010170E075956795F3CFD8
:1017C0006091010182FD0BC090911E029923A1F04E
:1017D0006091000180910101961738F0682F70E048
:1017E0006038710500F38FE70895899FC0011124C7
:1017F00070E00E94322AF4CF61E070E0D7CF81E040
:101800000895803F31F40E947E0B819580932402DD
:101810000895813F19F40E947E0BF8CF823F31F486
:101820000E947E0B8195809323020895833F19F4D3
:101830000E947E0BF8CF893F29F40E94C80B809349
:10184000250208958A3F21F40E94C80B8195F7CFA5
:101850008B3F31F40E94C80B819580932602089536
:101860008C3F19F40E94C80BF8CF9CE0980F95307C
:1018700070F4845F990B21E030E001C0220F8A955B
:10188000EAF780912202822B8093220208958D3FF5
:1018900031F48091200281608093200208958E3F70
:1018A00021F4809120028260F7CF8F3FB9F78091B9
:1018B00020028460F1CF40912302803F59F480914F
:1018C000240287FF0DC01092240241110BC0109218
:1018D0001F0208C0813F81F48091240218169CF3F6
:1018E000442381F08091250290912602892B09F0F2
:1018F0005AC010921E020895823F49F447FFF0CF6C
:1019000010922302809124028111ECCFE0CF833F1B
:1019100019F41416ACF3E4CF90912502893F29F411
:101920001916F4F610922502DBCF8A3F19F497FFBF
:10193000D7CFF8CF909126028B3F29F497FFD0CFD5
:1019400010922602CDCF8C3F19F41916CCF3C8CFD4
:101950009CE0980F953090F4845F990B21E030E083
:10196000B90102C0660F771F8A95E2F7CB01809517
:1019700090912202892380932202B2CF8D3F31F4CD
:10198000809120028E7F80932002AACF8E3F21F487
:10199000809120028D7FF7CF8F3F09F0A1CF8091FA
:1019A00020028B7FF0CF08950E942E1E9C01909103
:1019B000230280912402982B21F030931D02209362
:1019C0001C029091250280912602982B21F03093E1
:1019D0001B0220931A0281E292E00C946613EF92AC
:1019E000FF920F931F93CF93DF9300D000D000D0CE
:1019F000CDB7DEB786E0E1E2F2E0DE0111960190BC
:101A00000D928A95E1F7E0902302F0902402009174
:101A100025021091260210922302109224021092A5
:101A20002502109226028E2D8F2991F080911C02A2
:101A300090911D020E94461EAC0190911F029923B5
:101A400009F43FC0809106018417150608F447C0C9
:101A5000802F812B91F080911A0290911B020E949D
:101A6000461EAC0190911E02992309F477C0809123
:101A700002018417150608F47FC08091230290911B
:101A80002402892B90912502892B90912602892B83
:101A900011F00E94D40C86E0FE013196A1E2B2E082
:101AA00001900D928A95E1F726960FB6F894DEBF65
:101AB0000FBECDBFDF91CF911F910F91FF90EF909F
:101AC0000895209107018AE0289F9001112424178E
:101AD000350708F0BDCF9F5F90931F0202C09F3F64
:101AE000D1F7EE2059F00E947E0B9FEF1E140CF4EC
:101AF00091E0899F802D112480932302FF2059F0CB
:101B00000E947E0B9FEF1F140CF491E0899F802DA3
:101B100011248093240230912302332309F498CFB7
:101B200020912402222309F493CF45EB3403C00112
:101B30001124992359F09093230245EB240390013B
:101B40001124332339F03093240282CF81E0809333
:101B50002302F3CF81E0809324027ACF2091030106
:101B60008AE0289F900111242417350708F085CFBB
:101B70009F5F90931E0202C09F3FD1F7002359F050
:101B80000E94C80B9FEF10160CF491E0899F802DE6
:101B9000112480932502112359F00E94C80B9FEF56
:101BA00011160CF491E0899F802D11248093260258
:101BB00030912502332309F460CF2091260222239D
:101BC00009F45BCF45EB3403C0011124992359F08C
:101BD0009093250245EB240390011124332339F01F
:101BE000309326024ACF81E080932502F3CF81E033
:101BF0008093260242CF86E0E1E2F2E0DF011D920F
:101C00008A95E9F710921F0210921E02109220028C
:101C100008950C94B40225982D9A24982C9A83B197
:101C200085FB882780F91C9905C090E0892B80935B
:101C30002902089592E0FACFE0912902EE0FEE0F0B
:101C4000E093290243B145FB882780F943B144FB67
:101C5000222720F944FF02C022E030E0822BE82B4B
:101C6000E0932902EF70F0E0E859FE4F80819091F7
:101C70002802890F8093280220E0843054F080915C
:101C800027028F5F8093270260E080E00E94090EA8
:101C900021E0809128028D3F54F4809127028150E9
:101CA0008093270261E080E00E94090E21E080918C
:101CB0002802082E000C990B64E070E00E94322A82
:101CC00080932802822F089583E290E00E94532A95
:101CD000813289F484E290E00E94532A873059F4DB
:101CE00085E290E00E94532A91E0813109F090E072
:101CF000892F8170089580E0FCCFCF93C82F6FEFBC
:101D0000811161E283E290E00E94612A6FEFC111CC
:101D100067E084E290E00E94612A6FEFC11161E107
:101D200085E290E0CF910C94612A80E00E947D0EC4
:101D30000C94B91C089586E290E00E94532A682F03
:101D400070E090E080E0089586E290E00C94612AD3
:101D50000E949A0E0E94640E81110CC060E070E037
:101D6000CB010E94A40E0E94EC0F0E94D81081E0CB
:101D70000C947D0E0895CF93FB01C281CC2309F111
:101D80009C0122513F452031310520F582510E94AE
:101D9000E810C0E08C2FCF91089581E00E94FD1AD9
:101DA00043E062E081E00E945C04F3CF81E00E94A6
:101DB0001E1B43E062E081E00E945C04EBCF82E006
:101DC000F6CF8031FFE59F0789F381319F45B9F355
:101DD000C1E0E0CF8031EFE59E07F9F281319F4508
:101DE000C9F682E0DBCF2FEFFC0120830895EF924C
:101DF000FF920F931F93CF93DF93EC01062FE8819F
:101E0000E150E33108F05EC0F0E0E956F54D0C9486
:101E1000462A198289E08A83602FCE01DF91CF9113
:101E20001F910F91FF90EF900C94332389818230A2
:101E300069F0833071F08130D9F40E943A1E0E941B
:101E40004C2A6A837B838C839D83E6CF0E949B0E02
:101E5000F6CF7E0182E0E80EF11C10E0812F0E9497
:101E6000A507F70181937F011F5F1630B9F7D4CF23
:101E7000602FCE010E94F30ECFCF89818230C1F74F
:101E80006A817B818C819D810E944C2A0E94A40ED4
:101E9000C3CF4B816A8189810E94BE0F9827892711
:101EA00098279D838C83B8CF2C813D8132272327AF
:101EB00032274B816A8189810E94D70FADCF0E9462
:101EC000EC0FAACF8FEF8883A7CF0E948110898360
:101ED000A3CF0E9483109827892798279A83898304
:101EE0009BCF6B8170E089819A81AE014C5F5F4F1F
:101EF0009827892798270E9486108ECF6B8170E0E3
:101F000089819A81AE014C5F5F4F98278927982776
:101F10000E94AD1081CF0E94D8107ECF0E94AB0FDF
:101F2000D6CF6B8170E089819A81AE014C5F5F4FA3
:101F30009827892798270E9424106ECF6B8170E024
:101F400089819A81AE014C5F5F4F98278927982736
:101F50000E944A1061CF84E0089590E1699FB0012A
:101F6000112450E0440F551F640F751F90E6899FA0
:101F7000600D711D1124CB01879608950F931F9357
:101F8000CF93DF930E94AD0F8C010E94532AC82F7C
:101F9000D0E0DC2FCC27C80101960E94532A9E0175
:101FA000282BC901DF91CF911F910F9108950F93B5
:101FB0001F93CF93DF93122F032F0E94AD0FEC01DD
:101FC000602F0E94612A612FCE010196DF91CF918F
:101FD0001F910F910C94612AAF92BF92CF92DF9222
:101FE000EF92FF921F93CF93DF938CEAC82E80E08D
:101FF000D82ED0E07601C0E014C0F50125913491CF
:10200000412F6C2F8D2F0E94D70F82E0A80EB11C9C
:102010001F5F183091F780E1E80EF11CCF5FC630EA
:1020200019F0570110E0E9CFDF5F80E6C80ED11C40
:10203000D43001F7DF91CF911F91FF90EF90DF90A7
:10204000CF90BF90AF900895EF92FF920F931F93A0
:10205000CF93DF93EC018A017C01E60EF71ECE01DF
:102060008796CE15DF0539F4DF91CF911F910F913F
:10207000FF90EF900895C03821E0D20740F40E940D
:10208000532AF80180830F5F1F4F2196E8CFF80194
:102090001082F9CFCF92DF92EF92FF920F931F93AE
:1020A000CF93DF937C016A018C01060F171FEC01AF
:1020B000CE018796C017D10749F4DF91CF911F91C8
:1020C0000F91FF90EF90DF90CF900895C03821E0FE
:1020D000D20740F4FE01EE19FF09EC0DFD1D6081F1
:1020E0000E94612A2196E4CF462F843038F476305E
:1020F00028F4683018F4672F0C94BE0F90E080E04D
:10210000089580E1089589E592E00895EF92FF92A5
:102110000F931F93CF93DF93EC018A017C01E60EAE
:10212000F71ECE0189559E4FCE15DF0539F4DF919C
:10213000CF911F910F91FF90EF900895C93522E044
:10214000D20740F40E94532AF80180830F5F1F4F8B
:102150002196E7CFF8011082F9CFCF92DF92EF926C
:10216000FF920F931F93CF93DF937C016A018C0141
:10217000060F171FEC01CE0189559E4FC017D107DE
:1021800049F4DF91CF911F910F91FF90EF90DF9075
:10219000CF900895C93522E0D20740F4FE01EE1930
:1021A000FF09EC0DFD1D60810E94612A2196E3CF9D
:1021B000CF93DF93C7EAD1E060E0CE010E94612AAD
:1021C0002196C11584E0D807B9F7DF91CF91089522
:1021D000DF92EF92FF920F931F93CF93DF9300D084
:1021E00000D0CDB7DEB7F82E8FE08F1540F08FEF1F
:1021F00093E00E94532A07EA11E08823C1F00F9070
:102200000F900F900F90DF91CF911F910F91FF9042
:10221000EF90DF900895011584E0180781F3C8015D
:102220000E94532A811101C0FA940F5F1F4FF110D1
:10223000F2CF19821A821B821C82DD24D39478018A
:102240008FEFE81AF80AC8010E94532A89831A827C
:102250008823A9F29FEF980F933078F48A83D9826C
:102260000E5F1F4FC7010E94532A8B83882339F2C8
:10227000CE0101960E949A05E2CF8701F9CF0F9314
:102280001F93CF93DF93C42FD22FFC018281882329
:10229000C9F040932C020E942E1E90932B02809333
:1022A0002A0280E28C0F883008F050C0C77081E0AD
:1022B00001C0880FCA95EAF7DF91CF911F910F9166
:1022C0000C94691510912C02141335C080912A02C8
:1022D00090912B020E94461E883C910560F5C0E259
:1022E000CD0F1D17B9F080E2810F883040F41770D0
:1022F00081E001C0880F1A95EAF70E947015C83076
:1023000048F481E09D2F977001C0880F9A95EAF7F5
:102310000E946915802F0E946115C830B8F4D770EB
:1023200081E001C0880FDA95EAF7DF91CF911F9124
:102330000F910C94701580E28C0F883038F4C770C0
:1023400081E001C0880FCA95EAF7EFCFDF91CF9106
:102350001F910F9108950F939C01CB01233F4CE5F2
:10236000340759F1A8F4283DFCE53F0701F1293D68
:102370004CE53407D1F1273D3C4591F406E221EECE
:1023800041EE67ED7CE50E943F1180E00F910895DA
:10239000253FFCE53F07E9F0B0F0263F3C45F9F06A
:1023A000FC018281882339F110922C02EFCF07E2E1
:1023B00025EE45EE68ED7CE5E6CF06E221EE40EE47
:1023C00063EF7CE5E0CF07E225EE44EE64EF7CE5C9
:1023D000DACF06E221EE42EE65EF7CE5D4CF07E2EC
:1023E00025EE46EE66EF7CE5CECF08E221E045EE35
:1023F00069ED7CE5C8CF81E0C9CFCF93DF93EC01D5
:10240000FB018281882309F419C1C230FCE5DF0792
:10241000C0F1C6319CE5D90730F09E012A5F3C45EA
:102420002930310570F50E94D21C9093BE02809332
:10243000BD02C031ECE5DE0709F4CFC008F05BC097
:10244000C8308CE5D80709F4B6C088F5C430ECE58F
:10245000DE0709F4A8C0C0F4C2308CE5D80709F43F
:102460009CC08091BD028260C330DC4509F498C0F5
:102470008091BD029091BE020E94E01C0E947B17D9
:1024800080E0DF91CF9108958091BD028061C630D8
:10249000ECE5DE0709F484C08091BD028860C73096
:1024A000DC4508F47DC08091BD02806279C0CC30EB
:1024B0008CE5D80709F489C070F48091BD028C6066
:1024C000CA30ECE5DE0709F46BC008F478C08091EF
:1024D000BD028E7F65C0CE308CE5D80709F479C087
:1024E0008091BD028B7FCF30DC4508F459C08091CC
:1024F000BD028F7E55C0CB3FECE5DE0709F457C027
:1025000030F5C3318CE5D80709F46FC078F4C131D8
:10251000ECE5DE0709F465C0C231DC4509F0A8CF5F
:102520000E947B178091BD028F773AC0C5318CE540
:10253000D80709F462C008F476C08091BE028160B9
:10254000CA3FDC4509F094CF8093BE0291CFCF3FC4
:10255000FCE5DF0709F44DC088F48091BE028D7F51
:10256000CD3F9CE5D90781F38091BE028E7FCE3F9F
:10257000DC4550F38091BE028360E6CFC130FDE5BB
:10258000DF0709F459C008F444C080E0C230DD45DB
:1025900009F06ECF0E94661D6BCF8091BD028160F5
:1025A0008093BD0265CF8091BD028460F9CF809198
:1025B000BE028260C9CF8091BD028064F1CF0E94CB
:1025C0007B178091BD028068EBCF8091BD028D7F2B
:1025D000E7CF8091BD02877FE3CF8091BD028F7DE1
:1025E000DFCF8091BD028F7BDBCF8091BD02837FE7
:1025F000D7CF8091BE028C7FA7CF8091BD0282FB96
:10260000992790F921E0922790FB82F990FB83F9BA
:10261000C7CF8091BE02982F909591708E7F892BA5
:1026200090FB81F991CF0E947B179091BD02892F79
:1026300097FB87F98058B4CF81E0ACCF81E021CF00
:10264000CF93DF93EB0186319C4511F50E94911CDD
:102650009A81992399F08A7A91E009F490E0909315
:102660002D02811109C089E20E945E1C0E94721C29
:1026700080E0DF91CF91089585E3F6CF80912D0220
:10268000811104C089E20E94651CF0CF85E3FBCF75
:1026900081E0EFCF90933302809332020895E0916E
:1026A0003202F0913302309721F00190F081E02D59
:1026B000099480E00895E0913202F091330230975E
:1026C00021F00280F381E02D09940895E091320217
:1026D000F0913302309739F022E0DC012C93048032
:1026E000F581E02D09940895209130023091310256
:1026F0002817390771F09093310280933002E091EE
:102700003202F0913302309721F00680F781E02DFC
:102710000994089520912E0230912F02281739072D
:1027200071F090932F0280932E02E0913202F0918B
:102730003302309721F00084F185E02D099408954B
:102740000E943A1E609343027093440280934502B4
:102750009093460260933F0270934002809341023F
:102760009093420208950E943A1E60934302709330
:102770004402809345029093460260933B0270931B
:102780003C0280933D0290933E02089585B7806895
:1027900085BF85B7806885BF0895089508950C9416
:1027A000CD130C9400030E94C61387EB9CE10E949A
:1027B0008A1E0E94CE130C94CF1381E008950C94CE
:1027C000DD13089508950E94E1130C94E2130E9412
:1027D000251E0E94CB070E94A80E0E940B0E0C948F
:1027E000D113AF92BF92CF92DF92EF92FF920F93ED
:1027F0001F93CF93DF93CDB7DEB72A970FB6F89428
:10280000DEBF0FBECDBF0E94FE0781110E94A01344
:1028100085E3A82E82E0B82E10E000E0C02E802FC5
:102820000E94A507E82EF501F1905F01F81609F462
:1028300055C08091B10281FD0E94AB078F2D8E257E
:10284000D12CFF24F394982F9F2109F442C00E94B9
:10285000DF13882399F0DE82CF82EF2081E009F434
:1028600080E088870E942E1E8160782F9A87898752
:102870004E815F8168858A850E949614F801EB5C21
:10288000FD4F8081F826F0820E941C0E81110E946B
:10289000B3130E94EF0C0E94330B0E944F139091D0
:1028A0003402891791F10E944F13809334022A96C3
:1028B0000FB6F894DEBF0FBECDBFDF91CF911F9151
:1028C0000F91FF90EF90DF90CF90BF90AF900C945E
:1028D000A405D394FF0CF8E0DF12B5CF0F5F1F4FB4
:1028E0000630110509F09ACF8FEF89838A831B8206
:1028F0000E942E1E8160782F9D838C8349815A818E
:102900006B818D810E949614BFCF2A960FB6F894E2
:10291000DEBF0FBECDBFDF91CF911F910F91FF9012
:10292000EF90DF90CF90BF90AF900895DF92EF923D
:10293000FF920F931F93CF93DF93CDB7DEB72B9703
:102940000FB6F894DEBF0FBECDBF7A878B87F42E0B
:10295000052F162FE72ED82E61110E94B11C1E8262
:102960001D827E2DEC82DD824F2D502F612F8D2D0B
:102970009E812B960FB6F894DEBF0FBECDBFDF91C0
:10298000CF911F910F91FF90EF90DF900C94F11970
:10299000FC01808191810C94301CCF93C82F882337
:1029A00009F447C08CEF8C0F813AA0F46C2F809112
:1029B0000801909109010E946B1D882329F08C2F3A
:1029C0000E94651C0E94721C8C2F0E945E1CCF917D
:1029D0000C94721C80E28C0F883048F4C77081E040
:1029E00001C0880FCA95EAF70E94941CF0CFEBE56E
:1029F000EC0FE33040F4F0E0EA55FE4F808190E0C8
:102A0000CF910C947413E8E5EC0FE73150F4F0E04B
:102A1000EE0FFF1FE858FE4F80819181CF910C94FB
:102A20008A13C03F30F08C2F0E94010CCF910C9480
:102A3000D40CCF910895882361F19CEF980F913ABF
:102A400020F40E94651C0C94721C90E2980F983040
:102A500050F4877091E001C0990F8A95EAF7892FA9
:102A60000E949A1CF0CF9BE5980F933020F490E0E1
:102A700080E00C94741398E5980F973120F490E05F
:102A800080E00C948A13803F20F00E945B0C0C9431
:102A9000D40C08951F93CF93DF93182FEB010E945E
:102AA000CD14209731F4812FDF91CF911F910C9499
:102AB0001B158FE99FE00197F1F700C000002197F7
:102AC000F0CF6AE070E0893311F460E570E00C94B7
:102AD0004A15882321F00E94941C0C94721C0895BE
:102AE000882321F00E949A1C0C94721C0895CF92A6
:102AF000DF92EF92FF920F931F93CF93DF93DC014E
:102B0000C62F972F12962C91129715964C911597C8
:102B1000342F32953F70872F82958F70082F10E0E9
:102B20008C3090F5F801E655F54D0C94462AD72FD8
:102B3000DF70907F11F0D295D07F2223A9F0DD23A2
:102B400059F080E28C0F883010F0C11109C08D2F30
:102B50000E94941C0E94721C8C2F0E94CD1414C0E1
:102B60008D2F0E94A41CF6CF8C2F0E941B15DD23F5
:102B700059F080E28C0F883010F0C11117C08D2FF2
:102B80000E949A1C0E94721C085011090430110501
:102B900008F051C10E944F13DF91CF911F910F9107
:102BA000FF90EF90DF90CF900C94A4058D2F0E94A2
:102BB000AA1CE8CF872F8F70907F903211F08295FA
:102BC000807FC13061F4222329F03630E8F60E947C
:102BD0006915DACF3530C0F60E947015D5CF2223A3
:102BE00041F03323A1F340FFB7CF4F7015964C93BC
:102BF000EECF332389F3C93309F015C12FEF87EEE8
:102C000093E0215080409040E1F700C000008C2FFD
:102C10000E941B15B9CF872F86958695837061F02A
:102C2000813009F0B1CF862F9370211102C090E05E
:102C300080E00E948A13A8CF862F9370211102C0D2
:102C400090E080E00E9474139FCF862F222329F00A
:102C50000E94010C0E94D40C97CF0E945B0CFACF0B
:102C6000872F837009F044C021118ECF862F829563
:102C700086958770880F880F6F70C62ED12CF12C27
:102C8000E12C082E04C0CC0CDD1CEE1CFF1C0A94A9
:102C9000D2F740E050E0BA01C4FF0FC04FE050E06F
:102CA00060E070E004C0440F551F661F771F8A95CF
:102CB000D2F74095509560957095292F26952695C9
:102CC0002370CB01BA016C297D298E299F292230DE
:102CD00049F058F4213019F00E94AF1A55CF0E94E4
:102CE0009D1A52CF0E94C11A4FCF0E949B1A4CCFFF
:102CF0008695222311F0872F8170882309F444CF11
:102D00008C2F829586958770880F880F6C2F6F7037
:102D1000C62ED12CF12CE12C082E04C0CC0CDD1CCD
:102D2000EE1CFF1C0A94D2F740E050E0BA01C4FF49
:102D30000FC04FE050E060E070E004C0440F551F4A
:102D4000661F771F8A95D2F74095509560957095CC
:102D5000292F269526952370CB01BA016C297D2950
:102D60008E299F29223049F058F4213019F00E9411
:102D7000741B0ACF0E94621B07CF0E94861B04CFE0
:102D80000E94D71A01CFD72FDF70222329F08D2F71
:102D90000E94FD1A8C2F1BCF862F0E9470158D2F3D
:102DA0000E941E1BF1CE613F19F148F4603F91F083
:102DB000222369F13111D0CE892F8F711DC0623F5E
:102DC000F1F0633FA9F72223F9F0872F8F710E945A
:102DD000E81ADACE222341F0353008F0D5CE892F1B
:102DE0008F710E94411BD0CE363008F0CDCEF7CF88
:102DF000872F8F712223A1F20E94FD1AC5CE872F43
:102E00008F712223C9F3CCCF0E94E31ABDCE3323A6
:102E100079F0C93341F49FEF27EE83E091502040D1
:102E20008040E1F7F2CE8FE39CE90197F1F7EDCE18
:102E3000892F8F71B5CFDF91CF911F910F91FF90A7
:102E4000EF90DF90CF9008950F931F93CF93DF9370
:102E5000EC01688179818A810E943A1C8C010E9470
:102E6000981B0E949A1AB801CE01DF91CF911F9151
:102E70000F910C947715CF93DF93EC018B819C819C
:102E8000892B29F08881998189238F3F19F4DF915B
:102E9000CF910895CE010E9484048823C1F3CE010E
:102EA0000E942417CE01DF91CF910C94FD0388235B
:102EB00021F00E94A41C0C94721C0895882321F018
:102EC0000E94AA1C0C94721C089590E080E00E945D
:102ED000741390E080E00E948A130E94B11C0E944B
:102EE000B41C0E94721C0E94FB0D0C94D40C0E9416
:102EF0006C1C0C9465170E94A11C0C947717E92F89
:102F0000E295EF70E250EE3070F4F0E0EA54F54DE7
:102F10000C94462A803F19F020F4883E20F481E08A
:102F20000895843FE1F380E00895883EC0F3813F37
:102F3000D1F7F5CF93FB882780F908950E94301CC4
:102F40000C947F17CF93DF9300D000D00F92CDB7B2
:102F5000DEB70F900F900F900F900F90DF91CF91F1
:102F60000895CF93DF9300D000D000D0CDB7DEB767
:102F700026960FB6F894DEBF0FBECDBFDF91CF917E
:102F800008951F93CF93DF93C091480216E080917C
:102F900049028C1304C0DF91CF911F910895D0E0B6
:102FA0001C9FF0011D9FF00D1124E65BFD4F408139
:102FB000518162817381848195810E94B11721962C
:102FC000C770E5CF40917A0250917B0260917C02FC
:102FD00070917D0280917E0290917F020C94B117D6
:102FE0001F93CF93DF9380917F02807FA9F480911C
:102FF0007C02882389F080914802C0914902609147
:103000007A0270917B02A0917D02B0917E02D62F50
:10301000D72316E0C81304C0DF91CF911F91089504
:1030200090E0109711F0DF3F19F401968770F2CF0E
:10303000189F9001199F300D1124F901E65BFD4F97
:1030400041814713F2CF40814613EFCF42814111B6
:10305000ECCF438154814A1B5B0B483C510528F758
:1030600080917F028F70806180937F02F901E15B24
:10307000FD4F80818F70806180838AE792E00E949B
:103080003B17DF91CF911F910C94C117AF92BF9264
:10309000CF92DF92EF92FF920F931F93CF93DF9324
:1030A000CDB7DEB761970FB6F894DEBF0FBECDBFC8
:1030B0008C0185E0F801DE011D9601900D928A9544
:1030C000E1F7F80140815181E2808AE7C82E82E071
:1030D000D82E60917D0270917E026115710509F410
:1030E00061C190917A0220917B02892F82238F3FC8
:1030F00009F458C1A380B480F0907C02F501E61B6E
:10310000F70BFF2009F4FCC080917F02382F307F3D
:10311000E83CF10508F0B2C0311179C0FE2C25134E
:1031200023C0941321C0E1101FC08F708061809371
:103130007F020E94E217C6010E943B1780917F0226
:10314000F80185838F2D61960FB6F894DEBF0FBE10
:10315000CDBFDF91CF911F910F91FF90EF90DF9046
:10316000CF90BF90AF900895AB2829F0842F85238E
:103170008F3F09F033C180E0F82FF170DF2E80FF20
:103180003CC0809148022091490236E0821315C06C
:103190004D875E878D859E850E94301C292F229544
:1031A0002F702230F0F0243018F59F70F1F0F80104
:1031B0009581907FD1F4D12C1EC090E0389FF00112
:1031C000399FF00D1124E65BFD4F6181651306C048
:1031D0006081641303C062816E110FC00196877015
:1031E000D5CF9F7011F0882331F3805E883018F3BB
:1031F000C8010E943B17FD2CA5CFEE2009F4A2CFF9
:1032000080917F02816080937F02F12C9BCF2513F8
:1032100006C0941304C0F801EE2009F48DC04D8758
:103220005E878D859E850E949E17882319F1EE206A
:1032300009F180917F02803270F020917A02309102
:103240007B0238872F831986BB86AA868C87CE019E
:1032500007960E943B1786E0F801AAE7B2E00190CA
:103260000D928A95E1F70E94F0170E94E217FF2461
:10327000F39468CFC8010E943B17F9CF311113C0F6
:103280007A2DB98AA88A6E2D89890E94A2178AE7A9
:1032900092E00E943B1786E0F60111928A95E9F7C9
:1032A0000E94E217B2CF25130FC094130DC0E11096
:1032B0000BC0F8018583C8010E943B1786E0F60128
:1032C00011928A95E9F73ECF4D875E878D859E8561
:1032D0000E949E17882371F2EE2061F280917F0296
:1032E000803208F4B8CF20917A0230917B023A8381
:1032F00029831B82BD82AC828E83CE010196A9CF29
:10330000E83CF10508F041C0FE2CEE2009F4B2CFF4
:1033100025132AC0941328C080917F0280FD1BC012
:10332000982F907FC1F0F8018583903F31F0982F5E
:10333000907F905F8F70892B8583C8010E943B1717
:1033400086E0F801AAE7B2E001900D928A95E1F7D4
:103350000E94E217F7CE86E0F801AAE7B2E00190FA
:103360000D928A95E1F7EECE4D875E878D859E851D
:103370000E949E1781116FCF80917F0281608093A0
:103380007F02C8010E943B17DDCE7A2DB98AA88A38
:103390006E2D89890E94A21786E0F60111928A9506
:1033A000E9F7D6CFEE2009F465CF4D875E878D858E
:1033B0009E850E949E17F82E882309F45BCF86E035
:1033C000F801AAE7B2E001900D928A95E1F78AE749
:1033D00092E00E94C8140E94F017BACF81E08E25B7
:1033E000CBCE1F93CF93DF93CDB7DEB72C970FB61D
:1033F000F894DEBF0FBECDBF4F83588769877A87A9
:103400008B879C87CE0107960E944618882369F017
:103410008A859B85892B39F04F815885842F852398
:103420008F3F09F071C016E05FC086E0FE0137965D
:10343000DE01119601900D928A95E1F78A859B85B0
:10344000892B89F38F81988589238F3F61F32091A0
:10345000490230E0C90101968770992740914802DE
:103460004817190671F40E947B17109249021092B6
:10347000480286E0EAE7F2E0DF011D928A95E9F76B
:10348000D2CF96E0929FD001939FB00D1124A65BFE
:10349000BD4FFE01319601900D929A95E1F7809310
:1034A00049020E94C117BFCF819FC0011124865BD2
:1034B0009D4F0E9446188823E9F0E09148021E9F24
:1034C000F0011124E65BFD4F4081518162817381DF
:1034D000848195810E94B1178091480290E0019605
:1034E0008770992780934802809148029091490201
:1034F0008913DACF2C960FB6F894DEBF0FBECDBF7E
:10350000DF91CF911F91089569857A858B859C8580
:103510000E94B11788CF08950C948B1A0E948C1AC0
:103520006093A2027093A3028093A4029093A502D9
:103530000C94651708950C948E1A0F931F930091A5
:10354000A2021091A3022091A4023091A502602B47
:10355000712B822B932B1F910F910C948E1A0F932A
:103560001F930091A2021091A3022091A402309116
:10357000A50260237123822393231F910F910C9442
:103580008E1A0F931F930091A2021091A302209113
:10359000A4023091A50260277127822793271F91EB
:1035A0000F910C948E1A0C948B1A0C94D31A0E94BF
:1035B000D51A60939E0270939F028093A00290930D
:1035C000A1020C94651760E070E0CB010C94D71A4F
:1035D0000F931F9341E050E060E070E08A019B018F
:1035E00004C0000F111F221F331F8A95D2F7C90193
:1035F000B8011F910F910C94D71A0F931F9341E0BC
:1036000050E060E070E004C0440F551F661F771F54
:103610008A95D2F780919E0290919F02A091A0027C
:10362000B091A1028A019B01082B192B2A2B3B2B5D
:10363000C901B8011F910F910C94D71A0F931F93D2
:1036400041E050E060E070E004C0440F551F661F89
:10365000771F8A95D2F7CB01BA0160957095809556
:10366000909500919E0210919F022091A0023091AE
:10367000A10260237123822393231F910F910C9445
:10368000D71A0F931F9341E050E060E070E004C050
:10369000440F551F661F771F8A95D2F780919E02AF
:1036A00090919F02A091A002B091A1028A019B017A
:1036B000082719272A273B27C901B8011F910F9115
:1036C0000C94D71A0F931F9300919E0210919F02A2
:1036D0002091A0023091A102602B712B822B932BA1
:1036E0001F910F910C94D71A0F931F9300919E0274
:1036F00010919F022091A0023091A10260237123BA
:10370000822393231F910F910C94D71A0F931F9329
:1037100000919E0210919F022091A0023091A1027F
:1037200060277127822793271F910F910C94D71A36
:103730000895990F990F990F890F982F977041E06D
:1037400001C0440F9A95EAF786958695869595E08F
:10375000899FF0011124E058FD4F30E020E070E037
:103760005191DF011197CB01022E02C096958795EA
:103770000A94E2F7817081958527842385278C93AD
:103780002F5F3F4F2530310559F70895990F990F55
:10379000990F890F982F977086958695869525E0C5
:1037A000829FF0011124E058FD4F50E040E080E09E
:1037B000219130E0092E02C0369527950A94E2F750
:1037C00021703327042E01C0220F0A94EAF7822BBE
:1037D0004F5F5F4F4530510559F70895BF92CF9223
:1037E000DF92EF92FF920F931F93CF93DF938C01A1
:1037F000C0909E02D0909F02E090A002F090A102A3
:103800008091A2029091A302A091A402B091A5027E
:10381000C82AD92AEA2AFB2ACFE1D0E0BC2ED70158
:10382000C6010C2E04C0B695A795979587950A9466
:10383000D2F780FD0EC0219788F7B12C8B2DDF9138
:10384000CF911F910F91FF90EF90DF90CF90BF909D
:103850000895B8018C2F0E94AC05019761F3EECF5B
:10386000CF93DF93EC010E94EE1BBE01DF91CF915D
:103870000C94AC051F93CF93DF93EB01909147021B
:10388000992331F0CB01DF91CF911F910C94301C23
:10389000882379F0CB010E94EE1B182F682FCE01F0
:1038A0000E94991BBE01812FDF91CF911F910C9433
:1038B000AC05CB010E94C61B182FF4CF682F809156
:1038C0000801909109010C94A11D682F80910801B5
:1038D000909109010C94A31D809108019091090118
:1038E0000C94A51DE0910801F09109018091B002AE
:1038F0008083E0910801F091090180819091AF02ED
:10390000892B8083E0910801F091090180819091D9
:10391000AE02892B808380910801909109010C945B
:103920005B138091B00208959091B002892B80932F
:10393000B002089580959091B00298239093B002C0
:1039400008951092B00208959091AF02892B809350
:10395000AF02089580959091AF0298239093AF02A3
:1039600008951092AF0208951092AE02089580E07B
:1039700008956FEF7FEF90E080E00C947F2A90E055
:1039800080E00E945B2A21E08A3E9E4F09F020E001
:10399000822F089582E090E00C94532A83E090E017
:1039A0000C94532ACF9384E090E00E94532AC82FAE
:1039B00082E290E00E94532A982F8C2FCF91089595
:1039C000CF93C92F682F84E090E00E94612A6C2F6A
:1039D00082E290E0CF910C94612AAB01BC018FE0B0
:1039E00090E00C94732AAB01BC0183E190E00C944D
:1039F000732A60E070E0CB010C94F31C60E070E08F
:103A0000CB010E94ED1C0C94F91C6AEE7EEF90E055
:103A100080E00E947F2A60E082E090E00E94612ABC
:103A200060E083E090E00E94612A1092A20210926E
:103A3000A3021092A4021092A50260E084E090E03C
:103A40000E94612A60E082E290E00E94612A60E0C8
:103A500085E090E00E94612A60E086E090E00E94AC
:103A6000612A6FEF87E090E00E94612A40E050E019
:103A7000BA0188E090E00E94732A60E08DE090E057
:103A80000E94612A40E050E0BA0188E190E00E9483
:103A9000732A60E087E190E00E94612A40E050E0F4
:103AA000BA018CE190E00E94732A70E060E080E24D
:103AB00090E00E947F2A40E050E0BA0188E190E067
:103AC0000E94732A0C94FE1C0C94051D682F8EE036
:103AD00090E00C94612A662349F0FC013296089626
:103AE0002191261729F0E817F907D1F780E008950A
:103AF00081E008959C01FC0132969FEF80E04191A6
:103B0000461751F09F3F19F4411101C0982F8F5F64
:103B10008630A9F79F3F09F40895290F311D97FDBD
:103B20003A95F90162830895FC0132960896219135
:103B3000261303C0DF0111971C92E817F907B9F7A4
:103B400008950C947A1D0C94941D029626E0FC01B5
:103B500011922A95E9F70895089508950C94AD1DE2
:103B60008091C403843049F10E94AE1D80E00E9420
:103B7000A4051092B20288E190E020E40FB6F89418
:103B8000A895809360000FBE2093600083B7817F6B
:103B9000846083BF83B7816083BF7894889583B73F
:103BA0008E7F83BF0FB6F894A895809160008861DE
:103BB00080936000109260000FBE08950895CF9327
:103BC0000E94AC1D0E94FE070E94DE1DC0E08C2FEB
:103BD0000E94A507811105C0CF5FC630C1F7CF9104
:103BE000089581E0FCCF08950C94F31D0E947B178B
:103BF0000E944F130E94A4050C94F41D1F921FB63F
:103C00001F9211248F939F93AF93BF938091B20221
:103C1000811113C08091CF029091D002A091D10266
:103C2000B091D2024196A11DB11D8093CF02909315
:103C3000D002A093D102B093D202BF91AF919F91D5
:103C40008F911F901FBE1F90189582E084BD93E056
:103C500095BD9AEF97BD80936E0008952FB7F894A5
:103C60008091CF029091D002A091D102B091D20266
:103C70002FBF08952FB7F8946091CF027091D002B2
:103C80008091D1029091D2022FBF08959C014FB72D
:103C9000F8948091CF029091D002A091D102B0917E
:103CA000D2024FBF821B930B089578941F921FB6C8
:103CB0001F9211248F939F93AF93BF938091CF0254
:103CC0009091D002A091D102B091D2020196A11D93
:103CD000B11D8093CF029093D002A093D102B093F4
:103CE000D202BF91AF919F918F911F901FBE1F90E5
:103CF000189587E797E7909301088093000888E17B
:103D00009AE00FB6F894A895809360000FBE909348
:103D10006000FFCF9093C9018093C8010895881F68
:103D20008827881F089591E0883F08F490E0892F44
:103D30000895982F907F903BE9F040F49039D1F0AE
:103D4000903AC1F09038B1F080E00895903D19F0BC
:103D500020F4903CC9F782E00895903E59F0903FDE
:103D600099F7815F8F3080F7E82FF0E0E755FE4F3D
:103D70008081089583E008950F93022F0F77242FF9
:103D80002F776F70462F406BDC01ED91FC9163E063
:103D900070E009950F9108950F93022F0F77242F4C
:103DA0002F776F70462F4069DC01ED91FC9163E045
:103DB00070E009950F9108950F93022F0F77242F2C
:103DC0002F776F70462F4068DC01ED91FC9163E026
:103DD00070E009950F9108950F931F93411520E20C
:103DE000520744F49A01305E4115504E2CF430E0F5
:103DF00020E002C02FEF3FE38901000F012F001FD9
:103E0000110B11952F776F70462F406EDC01ED91ED
:103E1000FC9163E070E009951F910F910895FC01FA
:103E2000738362830895FC01758F648F0895CF9327
:103E3000DF93EC011DA21FA21EA2BC01685D7F4F93
:103E400040EC88519F4F0E9422211B821A821D82C2
:103E50001C821F821E82198618861B861A861D8662
:103E60001C861F861E86198A188A1B8A1A8A1D8A32
:103E70001C8A1F8A1E8A198E188E1B8E1A8E1D8E02
:103E80001C8E1F8E1E8E19A218A2DF91CF9108954D
:103E9000EF92FF920F931F93CF93DF93EA018A0172
:103EA000060F111D88519F4F7C01C017D10739F4AF
:103EB000DF91CF911F910F91FF90EF90089569913D
:103EC000C7010E942921F1CFFC017183608308950D
:103ED000FC0171A360A30895AF92BF92CF92DF92CD
:103EE000EF92FF920F931F93CF93DF9300D00F9227
:103EF000CDB7DEB77C016B01142FB22EA02EDC01F2
:103F000095968C9195978430A9F55A96ED91FC91F0
:103F10003097E9F1CB01019763E070E00E941E2A1F
:103F2000CB01880F991F860F971F4983BA820B8395
:103F30004C2D481B9E012F5F3F4FBC01C7010995C7
:103F4000D7015E96ED91FC91309731F00A2D2B2D23
:103F5000412FB601C70109950F900F900F90DF9187
:103F6000CF911F910F91FF90EF90DF90CF90BF9076
:103F7000AF9008956230710509F455C06330710542
:103F800099F06130710509F481C0D12CC12CD701A1
:103F90005C96ED91FC91309799F20A2D2B2D412FD3
:103FA000B601C7010995CCCF842F807F803A11F1EB
:103FB00048F48038D1F0803951F7D7011496ED914B
:103FC000FC910AC0803ED9F0803FF1F0803BF9F6C9
:103FD000D7011296ED91FC913097C9F2123FE9F0AA
:103FE0002A2D4B2D612F6F701BC0D7011696ED91B6
:103FF000FC91F2CFD7011896ED91FC91EDCFD7014E
:104000001A96ED91FC91E8CF423F09F6D7011C9634
:10401000ED91FC91309709F4BACF2A2D4B2D62EF28
:10402000C70109958DCF842F807F803DB1F0803FFF
:10403000C9F0803C09F0ABCFD7011E96ED91FC9101
:10404000309709F4A4CF812F8D7F4B2D612F6F7096
:10405000813F89F0C701099573CFD7015096ED9143
:10406000FC91EECF433F51F4D7015296ED91FC9174
:10407000309709F48CCF4B2D612FECCF413F09F0E5
:1040800086CFD7015496ED91FC91F2CF842F0E94F8
:10409000931E882359F0D7015696ED91FC913097E5
:1040A00009F475CF612FC70109954ACF163F09F072
:1040B0006ECFD7015896ED91FC91F1CFFF920F93FF
:1040C0001F93CF93DF93EC01162F862F0E94931E30
:1040D000882391F0FDA081E08DA300E020E0412F36
:1040E00061E070E0CE010E946C1FFDA2DF91CF91D4
:1040F0001F910F91FF900895812F0E948F1E4DA157
:10410000882309F443C0443029F01AA381E090E0E9
:104110009FA38EA3812F0E94991E813051F0882386
:10412000A9F0823089F0833079F01DA21FA21EA26F
:10413000DDCF8DA300E020E0412F61E070E0CE01F3
:104140000E946C1F1DA2D2CF8DA3D0CF103FB1F023
:10415000173F59F72EA13FA1C90163E070E00E940B
:104160001E2AFE01E80FF91F12A3B9016F5F7F4FEE
:104170007FA36EA30CA12BA14AA1E1CF84E08DA364
:104180001AA381E090E09FA38EA3B0CF442309F44B
:10419000ADCF2EA13FA1C90163E070E00E941E2AAD
:1041A000FE01E80FF91F12A3B9016F5F7F4F7FA3D4
:1041B0006EA38130910569F0029709F097CF0CA1A9
:1041C0002BA14AA1CE010E946C1F8DA18430C9F69B
:1041D0008DCF00E0423009F089CFF2CFCF92DF924D
:1041E000EF92FF920F931F93CF93DF93EC01E8A11F
:1041F000F9A1309709F009956E0188EEC80ED11C1F
:10420000C6010E94582110E000E0E82EF12C0E15A6
:104210001F0548F0DF91CF911F910F91FF90EF9014
:10422000DF90CF90089560E0C6010E946C21682F56
:10423000CE010E945E2061E0C6010E947C210F5FDA
:104240001F4FE5CFFC014283748363831182108288
:1042500008951F93CF93DF93EC01162F0E949321B3
:10426000482F298130E0C90101966A8170E00E94DF
:10427000322A58815817190641F4842F0E9496213A
:1042800080E0DF91CF911F9108958B819C81280F51
:10429000391FF9011083898190E001966A8170E0ED
:1042A0000E94322A8983842F0E94962181E0E9CFDF
:1042B000CF93DF93EC010E9493219981288192177B
:1042C00040F0C92FC21B0E9496218C2FDF91CF9105
:1042D0000895CA819C0FF5CFFC018081860F992734
:1042E000991F628170E00E94322A23813481280F55
:1042F000391FF901808108951F93CF93DF93EC015B
:10430000162F0E949321282F8881810F9927991FAA
:104310006A8170E00E94322A8883822FDF91CF91D8
:104320001F910C9496218FB7F89408958FBF08952C
:10433000089508950F931F93CF93DF9300D000D07B
:1043400000D00F92CDB7DEB78C01CE0101960E944E
:104350004D2481110BC027960FB6F894DEBF0FBE17
:10436000CDBFDF91CF911F910F9108958A810E9457
:10437000991E9A819D839B819E839C819F8381113D
:104380000AC08981843079F0873069F0863069F01D
:104390008530D9F681E0AE014B5F5F4F682FC801D1
:1043A0000E94481FD2CF83E0F6CF82E0F4CFDF92A5
:1043B000EF92FF920F931F93CF93DF9300D000D023
:1043C000CDB7DEB77B01142FD22E4A832B830C830B
:1043D000842F0E94991E811129C082E0E816F10401
:1043E00001F183E0E816F10439F0EA94EF2869F46A
:1043F00085E0173F21F404C087E0073F09F084E01F
:104400008983CE0101960E9448240F900F900F904F
:104410000F90DF91CF911F910F91FF90EF90DF9060
:10442000089587EFD812EBCF86E0EACF12951F7080
:104430001983E7CF0E94AC0883ED92E00E94171F1A
:1044400067ED71E283ED92E00E94641F6AE971E218
:1044500083ED92E00E94681F68E971E283ED92E0CB
:104460000E94131F69E971E283ED92E00C940F1F23
:104470009B014091C4034430C1F4FC0191819F70C1
:104480009093E90050E040E064E070E0C9010E94D0
:104490003E2581110BC09091E80095FD07C09091D9
:1044A000E8009E779093E800089582E008952091B7
:1044B000C403243091F4FC0181818F708093E90062
:1044C0009091F3008091F200892B49F08091E800EF
:1044D0008E778093E8000C94EC2682E0089580E0CB
:1044E0000895FC018091C403843059F491819F7038
:1044F0009093E9008091E80080FF03C0CF010C9405
:10450000572208959B014091C403443011F080E08C
:104510000895FC0196819F709093E9008091E800D6
:1045200082FFF5CF8091E80085FFF1CF50E040E0B9
:1045300064E070E0C9010E948D258091E80085FD4E
:1045400005C08091E8008B778093E80081E00895B2
:104550008091BB020895CF93DF9300D00F92CDB727
:10456000DEB79091C403943011F589837B836A830D
:104570009093E9008FEF9091E800815095FD06C07F
:1045800095ED9A95F1F700008111F5CF8091E80043
:1045900085FF0DC050E040E063E070E0CE01019681
:1045A0000E943E258091E8008E778093E8000F906E
:1045B0000F900F90DF91CF910895BC0184E00C948F
:1045C000AB22BC0183E00C94AB229C0184E080937D
:1045D000E9009FEF8091E800915085FD06C085EDD0
:1045E0008A95F1F700009111F5CF8091E80085FFE1
:1045F0000CC050E040E066E070E0C9010E943E253A
:104600008091E8008E778093E8000895CF93DF9340
:10461000EC0181E08093E9008FEF9091E8008150F8
:1046200095FD06C095ED9A95F1F700008111F5CF43
:104630008091E80085FF14C050E040E068E070E041
:10464000CE010E943E258091E8008E778093E8009D
:1046500088E0FE01A3EBB2E001900D928A95E1F7AC
:10466000DF91CF910895CF93FC01603221F58091C5
:10467000C403843001F5C091E900CF702091EC00B3
:10468000922F917020FD90E8C92B82E08093E90081
:104690008091E80080FF0CC050E040E060E270E0F4
:1046A000CF010E943E258091E8008E778093E8003C
:1046B000CF70C093E900CF9108958091C303811119
:1046C00009C00E941D270E947A278091E200846021
:1046D0008093E20008951092C30308950895089509
:1046E000089542E061EC81E00E94992642E261EC8B
:1046F00084E00E94992642E261EC82E00E949926C1
:1047000042E260EC83E00E94992642E361E885E0A2
:104710000E94992642E361E886E00C9499268091F4
:10472000C603833009F461C030F48130D1F18230A6
:1047300009F49DC008958A3009F489C08B3009F4CA
:104740006FC0893009F050C08091C503813209F0F3
:104750004BC08091C9039091CA03009719F002974A
:1047600009F042C08091E800877F8093E800809143
:10477000E80082FF35C09091F3008091F20002972B
:1047800029F48091F1008B7F813021F48091F10038
:104790008093BB028091E8008B778093E8000C94B3
:1047A000CD268091C503813AF9F48091E800877F96
:1047B0008093E8008091C9039091CA03892B61F42A
:1047C00068E083EB92E070E00E94DC258091E800D5
:1047D0008B778093E800089560E090E080E0F3CF6D
:1047E0008091C4038111C3CF08958091C503813A9C
:1047F000D9F78091C9039091CA03892BA9F78091B9
:10480000E800877F8093E8008091E80080FFFCCF7C
:10481000809120018093F1008091E8008E77BDCFD8
:104820008091C503813201F78091C9039091CA0339
:10483000892BD1F68091E800877F8093E8000E9461
:10484000CD268091C703809320010C947B17809123
:10485000C503813249F68091E800877F8093E800A4
:104860000E94CD268091C8038093BC020895809158
:10487000C503813A09F0B8CF8091E800877F809323
:10488000E8008091E80080FFFCCF8091BC02C2CF9D
:10489000BC018AE091E00C943822BC018AE091E0EE
:1048A0000C948222CDB7DEB7A0970FB6F894DEBF86
:1048B0000FBECDBF0E941A2284B7877F84BF0FB678
:1048C000F894A895809160008861809360001092B0
:1048D00060000FBE80E890E00FB6F894809361000E
:1048E000909361000FBE0E94D3130E941D270E9467
:1048F0007A278091E20084608093E20078940E949D
:10490000032A0E94E71386E191E00E944A1313E014
:104910008091C4038530D9F00E94F1138AE091E0C0
:104920000E9471228091C4038430C1F00E94E3137D
:10493000EFCF0E94B01D8091C203882341F00E94F6
:10494000DF1D882321F00E9428250E947B1780917B
:10495000C403853071F30E94F61DDECF1093E90089
:104960008091E80082FFE2CF8091E80090E085FF2F
:1049700009C050E040E060E270E0CE0101960E9484
:104980008D2591E08091E8008B778093E800992352
:1049900069F260E2CE0101960E94F70EC7CF0C9437
:1049A000D124292F33272330310521F168F4213018
:1049B000310509F443C02230310509F444C090E0C8
:1049C00080E030E020E026C02132310551F1223272
:1049D0003105A9F76330710590F7FB01EE0FFF1F5A
:1049E000E554FE4F2081318168547E4FFB01808168
:1049F00090E010C099278130910581F0009729F04F
:104A00000297E9F6ECEDF2E002C0ECE0F3E084910D
:104A100090E09F01FA01318320830895ECEFF2E0EA
:104A2000F6CF6330710558F6660F771FFB01EF5321
:104A3000FE4F2081318189E090E0ECCF82E190E06F
:104A40002FEC33E0E7CF8FEB90E020E133E0E2CFD3
:104A500080E189BD82E189BD09B400FEFDCF80916E
:104A6000D8008F7D8093D8008091E0008260809391
:104A7000E0008091E00081FDFCCF0895AF92BF92ED
:104A8000CF92DF92FF920F931F93CF93DF936C012E
:104A9000EB018A010E94EC26F82E811123C001153A
:104AA000110539F0F80180819181C81BD90BC80E1E
:104AB000D91EB12CA12C2097A9F08091E80085FD8A
:104AC00022C08091E8008E778093E80001151105DF
:104AD000A1F0F80180819181A80EB91EB182A08257
:104AE00085E0F82E8F2DDF91CF911F910F91FF90D0
:104AF000DF90CF90BF90AF9008950E94EC2688235E
:104B0000D1F2F82EEFCFF60181916F018093F10081
:104B10002197FFEFAF1ABF0ACECFAF92BF92CF92CD
:104B2000DF92FF920F931F93CF93DF936C01EB0102
:104B30008A010E94EC26F82E811123C0011511056F
:104B400039F0F80180819181C81BD90BC80ED91E9C
:104B5000B12CA12C2097A9F08091E80085FD22C0FE
:104B60008091E8008B778093E80001151105A1F092
:104B7000F80180819181A80EB91EB182A08285E0E2
:104B8000F82E8F2DDF91CF911F910F91FF90DF9025
:104B9000CF90BF90AF9008950E94EC268823D1F269
:104BA000F82EEFCF8091F100F60181936F012197EC
:104BB000FFEFAF1ABF0ACECFFC018091CB039091DB
:104BC000CC0386179707A0F06115710529F4909121
:104BD000E8009E779093E80090E06115710551F42C
:104BE000911108C08091E80082FF34C080E00895F0
:104BF000BC01F2CF8091C4038823C1F18530C1F19B
:104C00008091E80083FD30C08091E80082FDEACF0A
:104C10008091E80080FFE1CF8091F3002091F200C5
:104C2000382F6115710519F02830310558F091E0E1
:104C30002830310509F090E02091E8002E7720938C
:104C4000E800CBCF81918093F100615071092F5F13
:104C50003F4FE7CF8091C403882341F0853041F076
:104C60008091E80083FFBECF81E0089582E008953F
:104C700083E00895FC018091CB039091CC038617CB
:104C80009707A0F06115710529F48091E8008E77EF
:104C90008093E80090E06115710551F4911108C00E
:104CA0008091E80082FF35C080E00895BC01F2CF1A
:104CB0008091C4038823C9F18530C9F18091E8004F
:104CC00083FD31C08091E80082FDEACF8091E80049
:104CD00080FFE1CF8091F3002091F200382F611521
:104CE000710519F02830310558F091E02830310570
:104CF00009F090E08091E8008E778093E800CBCFB8
:104D000084918093F1003196615071092F5F3F4F7C
:104D1000E6CF8091C403882341F0853041F0809133
:104D2000E80083FFBDCF81E0089582E0089583E02D
:104D30000895982F973028F08F708093E90081E0D4
:104D400008959093E900242F762F50E0981731F0C2
:104D50007091EC002091ED005091F00021FD02C017
:104D60009F5FE8CF3091EB003E7F3093EB003091B6
:104D7000ED003D7F3093ED003091EB0031603093DA
:104D8000EB007093EC002093ED005093F000209125
:104D9000EE0027FDE5CF80E008958091C50387FFF1
:104DA00013C08091E80082FF06C08091E8008B77F5
:104DB0008093E80004C08091C4038111F2CF08956C
:104DC0008091C4038823D9F38091E80080FFF8CF55
:104DD0008091E8008E77ECCF2091E4003091E500DF
:104DE00095E6A9012091EC00822F817020FF06C07A
:104DF0008091E80080FF06C080E008952091E800DF
:104E000022FD1AC08091C403882389F0853089F07F
:104E10008091EB0085FD0FC02091E4003091E5000A
:104E200042175307F9F29150E1F684E0089582E0C9
:104E3000089583E0089581E008950E948B270E94E1
:104E40009327E0EEF0E0808181608083E8EDF0E080
:104E500080818F77808319BCA7EDB0E08C918E7F25
:104E60008C9380818F7E80831092C30308950F936B
:104E70001F93CF93DF930E948B270E949327C8ED47
:104E8000D0E088818F778883888180688883888153
:104E90008F7D888319BC1092C4031092C0031092B6
:104EA000C2031092C10300EE10E0F80180818B7FF5
:104EB000808388818160888342E060E080E00E9496
:104EC0009926E1EEF0E080818E7F8083E2EEF0E0D3
:104ED000808181608083808188608083F801808107
:104EE0008E7F8083888180618883DF91CF911F913D
:104EF0000F910895E8EDF0E080818F7E8083E7EDEB
:104F0000F0E080818160808384E082BF81E08093D3
:104F1000C3030C943727E8EDF0E080818E7F808317
:104F20001092E20008951092DA001092E1000895C4
:104F30001F920F920FB60F9211242F933F934F930E
:104F40005F936F937F938F939F93AF93BF93EF93F1
:104F5000FF938091E10082FF0BC08091E20082FF0D
:104F600007C08091E1008B7F8093E1000E94022ABC
:104F70008091DA0080FF19C08091D80080FF15C0B1
:104F80008091DA008E7F8093DA008091D90080FFD3
:104F900096C080E189BD82E189BD09B400FEFDCFE4
:104FA00081E08093C4030E945D238091E10080FF33
:104FB00019C08091E20080FF15C08091E2008E7FD1
:104FC0008093E2008091E20080618093E200809112
:104FD000D80080628093D80019BC85E08093C40318
:104FE0000E946F238091E10084FF2BC08091E2003A
:104FF00084FF27C080E189BD82E189BD89B5982FF2
:10500000917080FFFBCF8091D8008F7D8093D80076
:105010008091E1008F7E8093E1008091E2008F7E9D
:105020008093E2008091E20081608093E2008091B1
:10503000C003882309F449C084E08093C4030E941C
:1050400070238091E10083FF29C08091E20083FFFB
:1050500025C08091E100877F8093E10082E080930A
:10506000C4031092C0038091E1008E7F8093E10021
:105070008091E2008E7F8093E2008091E200806167
:105080008093E20042E060E080E00E9499268091F7
:10509000F00088608093F0000E946E23FF91EF91F2
:1050A000BF91AF919F918F917F916F915F914F9140
:1050B0003F912F910F900FBE0F901F90189519BC24
:1050C0001092C4030E946B2370CF8091E30087FD90
:1050D00093E09093C403B3CF1F920F920FB60F9239
:1050E00011242F933F934F935F936F937F938F93ED
:1050F0009F93AF93BF93CF93DF93EF93FF93D091A1
:10510000E900DF708091EC00C82FC17080FDC0E81D
:105110001092E9008091F000877F8093F0007894EE
:105120000E94B0281092E9008091F000886080937E
:10513000F000CD2BCF70C093E900FF91EF91DF918C
:10514000CF91BF91AF919F918F917F916F915F911F
:105150004F913F912F910F900FBE0F901F90189578
:105160001F93CF93DF93CDB7DEB7AA970FB6F8940E
:10517000DEBF0FBECDBF85EC93E02091F100FC01B6
:105180002193CF01F3E08D3C9F07B9F70E948F2355
:105190008091E80083FF1EC18091C5039091C603F2
:1051A0009A3008F017C1E92FF0E0EC53F54D0C945C
:1051B000462A803899F0823809F00CC18091C903E1
:1051C0008F70873008F006C18093E9008091EB0072
:1051D00085FB882780F91092E90006C08091C10301
:1051E0009091C203911182609091E800977F909313
:1051F000E8008093F1001092F1008091E8008E7732
:10520000E5C0882309F4D3C0823009F0E3C080915F
:10521000C7038111D6C08091C9038F702FEF280F6B
:10522000263008F0D7C08093E9002091EB0020FFE2
:10523000C8C0933031F48091EB0080628093EB0022
:10524000C0C09091EB0090619093EB0021E030E0C2
:1052500001C0220F8A95EAF72093EA001092EA0033
:105260008091EB008860EACF8111B4C01091C70330
:105270001F778091E3008078812B8093E3008091F9
:10528000E800877F8093E8000E94CD268091E800A7
:1052900080FFFCCF8091E30080688093E30082E090
:1052A000111183E08093C40395C08058823008F0C8
:1052B00091C08091C7039091C8038C3D23E0920771
:1052C000A1F583E08A838AE289834FB7F894DE01EF
:1052D000139620E03EE051E2E32FF0E050935700B8
:1052E000E49120FF03C0E295EF703F5FEF708E2FD7
:1052F00090E0EA30C0F0C7968D939D932F5F2431E4
:1053000059F74FBF8091E800877F8093E8006AE2F9
:1053100070E0CE0101960E94DC258091E8008B7739
:105320008093E80057C0C096E7CF6091C9037091A1
:10533000CA03AE014F5F5F4F0E94CF24BC01892B8F
:1053400009F448C09091E800977F9093E800898124
:105350009A810E943A26E1CF8038E1F58091E800F9
:10536000877F8093E8008091C0038093F10045CF50
:10537000811130C09091C703923060F58091E800B0
:10538000877F8093E8009093C0030E94CD26809190
:10539000C003882311F084E005C08091E30087FDFD
:1053A000FACF81E08093C4030E94712313C08091DF
:1053B000C703813079F481E0933009F080E0809375
:1053C000C2031092E9008091E800877F8093E80093
:1053D0000E94CD268091E80083FF0AC08091E800FA
:1053E000877F8093E8008091EB0080628093EB00E0
:1053F000AA960FB6F894DEBF0FBECDBFDF91CF9156
:105400001F9108950895CF938091C4038823A1F03C
:10541000C091E900CF709091EC00892F817090FDD0
:1054200080E8C82B1092E9008091E80083FD0E947B
:10543000B028CF70C093E900CF910895AA1BBB1B81
:1054400051E107C0AA1FBB1FA617B70710F0A61B84
:10545000B70B881F991F5A95A9F780959095BC01A5
:10546000CD01089597FB072E16F4009407D077FD21
:1054700009D00E941E2A07FC05D03EF49095819524
:105480009F4F0895709561957F4F0895EE0FFF1F10
:105490000590F491E02D09946927962769277827CC
:1054A000872778270895F999FECF92BD81BDF89A94
:1054B000992780B50895A8E1B0E042E050E00C944F
:1054C000872A262FF999FECF92BD81BDF89A0197C0
:1054D00000B4021639F01FBA20BD0FB6F894FA9A3C
:1054E000F99A0FBE08950396272F0E94622A0E9400
:1054F000612A252F0E94622A242F0C94622A019689
:10550000272F0E94622A0C94612ADC01CB01FC0146
:10551000F999FECF06C0F2BDE1BDF89A319600B40C
:105520000D9241505040B8F70895F894FFCF090FFD
:10553000160F3D0F490F540F5F0F620F620F620F7E
:10554000620F620F650F690F710F7E0F8B0F8E0F49
:10555000910F9E0F97159715DA15DA150B1625166C
:10556000C415C4153016C316D316D3168A178A1756
:105570009317931795179317931793178A178A17EB
:105580009A17931793179A17D9280129EA290129FD
:0C559000EA2934295529EA29AC29B82958
:10559C002808641E140A321EA6020485400000016D
:1055AC00064000000100A8220623E522E122DD22AC
:1055BC00010100070002000700E200E900EA00B563
:1055CC0000B600B700CD008301CC008A0192019493
:1055DC00012102230224022502260227022A02B3F9
:1055EC0000B4006F007000818283F4F5F6F731335C
:1055FC003236C6976694909100FF0100010000FFBF
:10560C00FF0000010001FF00E200E900EA00B50024
:10561C00B600B700CD008301CC008A019201940141
:10562C002102230224022502260227022A02B300A9
:10563C00B4006F007000818283020302000001003D
:10564C00010101010100010140227B7E04E1030301
:08565C000422033B035B030081
:00000001FF
