:100000000C94BB020C9402030C9402030C940203A4
:100010000C9402030C9402030C9402030C9402034C
:100020000C9402030C9402030C94D0290C948C2998
:100030000C94CD2A0C9402030C9402030C9402033A
:100040000C9402030C9402030C9402030C9402031C
:100050000C9402030C94A92A0C9402030C9402033E
:100060000C9402030C9402030C9402030C940203FC
:100070000C9402030C9402030C9402030C940203EC
:100080000C9402030C9402030C9402030C940203DC
:100090000C9402030C9402030C9402030C940203CC
:1000A0000C9402030C9402030C94020305010980D2
:1000B000A101850319012AB700150126B700950192
:1000C00075108100C0050C0901A101850419012AE0
:1000D000A002150126A002950175108100C00660DE
:1000E000FF0961A1010962150026FF00952075082E
:1000F00081020963150026FF00952075089102C052
:1001000005010906A101050719E029E715002501E8
:10011000950875018102950175088101050719008F
:1001200029FF150026FF00950675088100050819AE
:10013000012905950575019102950175039101C08D
:1001400000000000000000000000000000000000AF
:10015000000000000000000000000000000000009F
:10016000000000007E0F00D4FFFFFFC700000078F2
:1001700000000000000000002A2B28000000000002
:100180000000000000000000000000290000000046
:100190002C1E3420212224342627252E362D3738B4
:1001A000271E1F202122232425263333362E3738BD
:1001B0001F0405060708090A0B0C0D0E0F1011127B
:1001C000131415161718191A1B1C1D2F3130232D47
:1001D000350405060708090A0B0C0D0E0F10111245
:1001E000131415161718191A1B1C1D2F3130354CF6
:1001F00000010101010101010101020202020202EA
:1002000002020203030303030303030404040404BC
:100210000404050505050506060606060707070783
:100220000708080808090909090A0A0A0B0B0B0C38
:100230000C0C0D0D0D0E0E0E0F0F0F1010111111D5
:100240001212131314141515161617171818191956
:100250001A1A1B1B1C1D1D1E1E1F202021222223BB
:100260002424252626272829292A2B2C2D2D2E2FFC
:1002700030313232333435363738393A3B3C3D3E13
:100280003F404142434445464748494A4C4D4E4F02
:1002900050515354555658595A5B5D5E5F616264C4
:1002A000656668696B6C6D6F7072737577787A7B51
:1002B0007D7E8082838587888A8C8E8F91939596A8
:1002C000989A9C9EA0A2A3A5A7A9ABADAFB1B3B5C8
:1002D000B7BABCBEC0C2C4C6C9CBCDCFD1D4D6D8A4
:1002E000DBDDDFE2E4E7E9EBEEF0F3F5F8FAFDFF42
:1002F000A843B95CA55DA65DBA5C475C485CB15C8F
:10030000495C4A5C4B5C4C5C4D5C4E5C4F5CAA00AB
:10031000505C515C525C535C545C555C565CA9006B
:10032000575C585C595C5A5C5B5C5C5C5D5C0000D3
:100330005E5C5F5C605C615C625C635C645C000092
:10034000655C665C675C685C695C6A5C6B5C000051
:1003500001000100905C915C0100010001000100BE
:100360000100010001000100010001000100010085
:100370000100010001000100010001000100010075
:100380000100010001000100010001000100000066
:100390000100010001000100010001000100000056
:1003A0000100010001000100010001000100000046
:1003B0000100010001000100010001000100010035
:1003C0000100010001000100010001000100010025
:1003D0000100010001000100010001000100010015
:1003E0000100010001000100010001000100000006
:1003F00001000100010001000100010001000000F6
:1004000001000100010001000100010001000000E5
:1004100001009C5C815C825C9D5CAA5DA85D000023
:100420000252A95D00000000000000000000C45C52
:1004300000000000C85C0000C75C0000C65CC35C34
:100440000000C55C0000CC5C0000CB5C000000003C
:10045000CA5C0000C95C0000C45C0000C35C000012
:100460000000DE5C0000A75D0000C25C0000000030
:100470000902BF00050100A0FA0904000001030100
:100480000100092111010001224000070581030834
:10049000000A090401000203000000092111010003
:1004A0000122220007058203200001070503032023
:1004B00000010904020001030000000921110100EC
:1004C000012232000705840320000A080B03020101
:1004D00001000009040300000101000009240100DB
:1004E00001090001040904040002010300000724BB
:1004F000010001410006240201010006240202025B
:10050000000924030103010201000924030204017C
:100510000101000905060240000500000525010152
:1005200001090585024000050000052501010312AF
:1005300001000200000008EDFEB4F4010001020019
:10054000011E036300680072006F006D006100749B
:10055000006F006E0065006D0069006E00690000AC
:10056000000E033300610072006100680074000037
:1005700000040309040011241FBECFEFDAE0DEBF40
:10058000CDBF04B603FE27C08091D8079091D9074C
:10059000A091DA07B091DB078730904BA740B04BB2
:1005A000D1F41092D8071092D9071092DA0710925E
:1005B000DB0714BE84B7877F84BF0FB6F894A89575
:1005C00080916000886180936000109260000FBE8F
:1005D000E0E0F8E3099527E0A8E2B4E001C01D924D
:1005E000A83DB207E1F714E0A0E0B1E0ECECF4E6DE
:1005F00002C005900D92A832B107D9F70E94F42AE3
:100600000C9403320C9400009091D207937061F027
:1006100081110BC094609093D207109224018091B5
:10062000D10781608093D10708958A3210F0946ACF
:10063000F2CF880F880F982BEECF9091D20793704E
:1006400071F08093D3076093D407433308F042E3FB
:100650004093D5078091D10781608093D107089599
:100660000F931F939B01305E8901000F012F001F24
:10067000110B11952F77482F406EE091E106F09114
:10068000E20663E070E081EE96E009951F910F911C
:1006900008950F93262F042F0F77482F406BE0917A
:1006A000E106F091E20663E070E081EE96E00995E4
:1006B0000F910895CF92DF92EF92FF920F931F93C5
:1006C000CF93DF9300D00F92CDB7DEB77C01162F0A
:1006D000D42EC22E809106078430B9F5E091FB0636
:1006E000F091FC06309709F440C0C701019763E020
:1006F00070E00E94A730CB01880F991F860F971FCB
:1007000019834A83CB824E2D481B9E012F5F3F4F9A
:10071000BC0181EE96E00995E091FF06F09100079B
:10072000309739F00C2D2D2D412FB70181EE96E039
:1007300009950F900F900F90DF91CF911F910F911E
:10074000FF90EF90DF90CF90089582E0E816F104DB
:1007500009F45AC083E0E816F104A9F081E0E81634
:10076000F10409F484C0F12CE12CE091FD06F09134
:10077000FE06309789F20C2D2D2D412FB70181EE09
:1007800096E00995C9CF862F807F803A11F188F4D1
:100790008038D1F0E091E506F091E606803929F73E
:1007A000309719F3123F49F12C2D4D2D612F6F70A9
:1007B00027C0803E99F0803FB1F0E091E306F091D0
:1007C000E406803B91F6ECCFE091E706F091E80675
:1007D000E7CFE091E906F091EA06E2CFE091EB067F
:1007E000F091EC06DDCF623F09F0BFCFE091ED065E
:1007F000F091EE06309709F4B8CF2C2D4D2D62EF15
:1008000081EE96E0099588CF862F807F803DB9F0F4
:10081000803FD1F0E091EF06F091F006803C09F0C6
:10082000A4CF309709F4A1CF812F8D7F4D2D612F5B
:100830006F70813FC9F081EE96E009956DCFE09130
:10084000F106F091F206EDCFE091F306F091F40697
:10085000633F39F0613F09F088CFE091F506F091F0
:10086000F606309709F481CF4D2D612FE4CFE0914A
:10087000F706F091F806683F38F4663F09F075CF47
:10088000E091F906F091FA06309709F46ECF612FE6
:1008900081EE96E0099540CFE8EDF0E080818E7F13
:1008A00080831092E2001092DA001092E100A0EE34
:1008B000B0E08C9181608C9380818F77808319BCAC
:1008C000A7EDB0E08C918E7F8C9380818F7E8083AA
:1008D0001092920608952091E4003091E50095E68B
:1008E000A9012091EC00822F817020FF06C0809129
:1008F000E80080FF06C080E008952091E80022FD16
:100900001AC080919F06882389F0853089F08091F4
:10091000EB0085FD0FC02091E4003091E500421707
:100920005307F9F29150E1F684E0089582E00895CA
:1009300083E0089581E00895EF92FF920F931F9353
:10094000CF937C018B010E946B04C82F811117C0CB
:100950008091E80085FD0BC08091E8008E77809340
:10096000E8000E946B04882399F3C82F08C0F701A0
:1009700081917F018093F1000150110949F78C2F7B
:10098000CF911F910F91FF90EF900895EF92FF92FA
:100990000F931F93CF937C018B010E946B04C82F90
:1009A000811117C08091E80085FD0BC08091E8009F
:1009B0008B778093E8000E946B04882399F3C82FFB
:1009C00008C08091F100F70181937F010150110966
:1009D00049F78C2FCF911F910F91FF90EF900895C1
:1009E0008091A10687FF13C08091E80082FF06C0B6
:1009F0008091E8008B778093E80004C080919F0687
:100A00008111F2CF089580919F068823D9F38091B8
:100A1000E80080FFF8CF8091E8008E77ECCF982F28
:100A20009093E900242F762F50E0891731F07091D0
:100A3000EC002091ED005091F00021FD07C09F5F78
:100A4000973071F78093E90081E008953091EB00D1
:100A50003E7F3093EB003091ED003D7F3093ED0011
:100A60003091EB0031603093EB007093EC002093F9
:100A7000ED005093F0002091EE0027FDE0CF80E0E4
:100A80000895CF92DF92EF92FF920F931F93CF932F
:100A9000DF93C8EDD0E088818F7E8883E7EDF0E0BA
:100AA00080818160808384E082BF81E080939206B0
:100AB00088818E7F888302EE10E0F8011082109208
:100AC000DA0081EEC82ED12CF601108288818F7752
:100AD000888388818068888388818F7D888319BC1A
:100AE00010929F061092A00610929E0610929D06EC
:100AF00090EEE92EF12CF70180818B7F8083888135
:100B00008160888342E060E080E00E940F05F6018A
:100B100080818E7F8083F8018081816080838081E5
:100B200088608083F70180818E7F808388818061E7
:100B30008883DF91CF911F910F91FF90EF90DF900D
:100B4000CF900895FC018091A7069091A806861782
:100B50009707A0F06115710529F49091E8009E7740
:100B60009093E80090E06115710551F4911108C06F
:100B70008091E80082FF34C080E00895BC01F2CF8C
:100B800080919F068823C1F18530C1F18091E800F2
:100B900083FD30C08091E80082FDEACF8091E800BB
:100BA00080FFE1CF8091F3002091F200382F611592
:100BB000710519F02830310558F091E028303105E1
:100BC00009F090E02091E8002E772093E800CBCF49
:100BD00081918093F100615071092F5F3F4FE7CF02
:100BE00080919F06882341F0853041F08091E80094
:100BF00083FFBECF81E0089582E0089583E00895E9
:100C00000895089580919406089508950895982F61
:100C1000907F903BE9F040F49039D1F0903AC1F0E8
:100C20009038B1F080E00895903D19F020F4903CA8
:100C3000C9F782E00895903E59F0903F99F7815F9F
:100C40008F3080F7E82FF0E0E258FD4F8081089563
:100C500083E00895FF920F931F93CF93DF9300D00B
:100C600000D000D00F92CDB7DEB78C0108511F4FD6
:100C700080919F06843009F06CC080911A018F70BA
:100C80008093E9008091E80082FF63C08091E800D2
:100C900085FF5FC050E040E064E070E0CE01019667
:100CA0000E94C6048091E80085FD05C08091E8009F
:100CB0008B778093E800FA808F2D0E940706282FFB
:100CC000FD828B818E838C818F8321110AC0898163
:100CD000843039F1873029F1863029F121E08530DF
:100CE00039F630E0E5E0F0E0EC0FFD1FE30FF11D19
:100CF000F0804FB7F894D8011196EC911197F0E07D
:100D0000CF01019612966C9170E00E94BB30D80121
:100D10005C915817190649F44FBF3F5F321710F323
:100D2000A7CF23E0DECF22E0DCCF13968D919C91FC
:100D30001497E80FF91FF08211968C91119790E0AB
:100D4000019612966C9170E00E94BB30F80181838D
:100D5000E3CF27960FB6F894DEBF0FBECDBFDF916D
:100D6000CF911F910F91FF900895DF92EF92FF9224
:100D70000F931F93CF93DF9300D000D0CDB7DEB792
:100D80007B01142FD22E4A832B830C83842F0E9445
:100D90000706811141C082E0E816F104C1F183E049
:100DA000E816F10439F0EA94EF2829F5173F29F401
:100DB00085E004C087E0073F09F084E089838091E3
:100DC0009F068430C1F4809115018F708093E900F3
:100DD00050E040E064E070E0CE0101960E949C0487
:100DE000811109C08091E80085FD05C08091E8006F
:100DF0008E778093E8000F900F900F900F90DF9107
:100E0000CF911F910F91FF90EF90DF90089587EFA2
:100E1000D812D3CF86E0D2CF12951F701983CFCFCF
:100E200087E797E7909301088093000888E19AE0AC
:100E30000FB6F894A895809360000FBE9093600061
:100E4000FFCF9C014FB7F89480918B0690918C0650
:100E5000A0918D06B0918E064FBF821B930B089513
:100E60002FB7F89460918B0670918C0680918D0657
:100E700090918E062FBF08952FB7F89480918B061E
:100E800090918C06A0918D06B0918E062FBF08958B
:100E90009C01FC0132969FEF80E04191461751F092
:100EA0009F3F19F4411101C0982F8F5F8630A9F739
:100EB0009F3F09F40895290F311D97FD3A95F901D7
:100EC0006283089520918806309189062817390792
:100ED00071F09093890680938806E0918606F091E0
:100EE0008706309721F00084F185E02D099408955C
:100EF00020918406309185062817390771F0909368
:100F0000850680938406E0918606F09187063097E7
:100F100021F00680F781E02D09940895E09186067E
:100F2000F0918706309721F00190F081E02D09942F
:100F300080E00895FA01811101C0FB010994E8E203
:100F4000F5E0818360834283339696E0E438F907C5
:100F5000C1F70895FC01EE0FFF1FE80FF91FE85DD0
:100F6000FA4F6183408322830895E2EDF7E0248104
:100F700030E1231B08F420E024838091D1078160B5
:100F80008093D1070895E2EDF7E0248130E1230F4B
:100F900008F42FEF24838091D10781608093D107DB
:100FA0000895E2EDF7E0438120E1421B08F440E0C0
:100FB0008181628190E00C941D03E2EDF7E04381B2
:100FC00020E1420F08F44FEF8181628190E00C94A0
:100FD0001D03E2EDF7E0628120E1621B08F460E0AE
:100FE0008181438190E00C941D03E2EDF7E0628182
:100FF00020E1620F08F46FEF8181438190E00C944F
:101000001D03E2EDF7E08181438162818850990BF5
:101010000C941D03E2EDF7E0818190E04381628151
:1010200008960C941D038091D20786958695815071
:1010300009F489E20C9404038091D2078695869581
:101040008F5F8A3208F081E00C940403EF92FF92E4
:101050000F931F930E0D1F2D111D9A0157FF03C0F3
:1010600031952195310994E0220F331F9A95E1F7CC
:101070002F3F310519F014F02FEF30E0200F311F12
:101080002F3F310519F010F02FEF30E02095382F69
:10109000320F08F43FEF832F1F910F91FF90EF90D5
:1010A0000895EF92FF920F939701201B31092F3F74
:1010B000310519F010F02FEF30E02095382F320F66
:1010C00008F43FEF832F0F91FF90EF900895EF9278
:1010D000FF920F939701201B31092F3F310519F023
:1010E00010F02FEF30E0322F3095482F430F08F4E7
:1010F0004FEF842F620F0F91FF90EF900895EF92C2
:10110000FF920F93972F093438F4B701601B7109D0
:101110006F3F710519F010F06FEF70E0485F5F4F9F
:101120004131510540F0A901485F5F4F4131510500
:1011300010F06FEF70E06095482F460F08F44FEF06
:10114000842F37FF02C02D5F3F4F3595279535958A
:1011500027956091D307620F792F0F91FF90EF9041
:101160000895EF92FF920F931F930E0D1F2D111DE7
:10117000F90137FF03C0F195E195F10924E0EE0F85
:10118000FF1F2A95E1F7EF3FF10519F014F0EFEF9B
:10119000F0E09A0157FF03C031952195310994E0A1
:1011A000220F331F9A95E1F72E173F070CF4F90130
:1011B000E00FF11FEF3FF10519F010F0EFEFF0E055
:1011C000E095282F3E2F230F08F42FEF822F1F9139
:1011D0000F91FF90EF900895EF92FF920F93970178
:1011E00095E0099F200D311D11242F3F310519F085
:1011F00010F02FEF30E02095382F320F08F43FEF3A
:10120000832F0F91FF90EF90089522E8241B08F49C
:1012100020E0620F08954095282F429F412D112410
:10122000842F0895E42FF0E0EE0FFF1FE453FD4FED
:101230009081921B97FD9195292F38E1239F212DB5
:101240001124620F08950F931F9310E0F801EE0F21
:10125000FF1FE453FD4F90819C5797FD9195000F20
:10126000111FF801E456FD4F01A90052110B200394
:10127000F001219FF00D112408E310E0091B110972
:1012800097FD139540039001419F300D1124E20F0B
:10129000F31F9F01220F331F2E0F3F1F37FF02C086
:1012A00021583F4F220F232F221F330B620F1F9114
:1012B0000F9108950F931F93522F10E0F801EE0F36
:1012C000FF1FE456FD4FA1A9A052BB0B9D01520385
:1012D000F001539FF00D1124000F111FD801A453EA
:1012E000BD4F0C910C57110B40039001419F300DE5
:1012F00011242E0F3F1F37FF02C0215C3F4F96E0A5
:10130000359527959A95E1F7620F1F910F910895F2
:101310000F931F93522F10E0F801EE0FFF1FE456BA
:10132000FD4FA1A9A052BB0B9D015203F001539F99
:10133000F00D1124000F111FD801A453BD4F0C91C3
:101340000C57110B40039001419F300D11242E0FBB
:101350003F1F37FF02C021583F4F220F232F221F6C
:10136000330B620F1F910F910895EF920F93972FF8
:1013700023E0029FB0011124759567956E0D792FBA
:101380000F91EF900895322F50E0FA01EE0FFF1FFA
:10139000E456FD4F91A9905297FD9195440F551F2A
:1013A000FA01E453FD4F2081231B330B290F311D1C
:1013B00097FD3A95620F0895E42FF0E0EE0FFF1FBE
:1013C000E456FD4F61A9621B0895E42FF0E0EE0F93
:1013D000FF1FE453FD4F6081621B0895622F089543
:1013E000E42FF0E0EE0FFF1FE453FD4F408134EE99
:1013F000439F412D1124E82FF0E050E0445E5F4F01
:10140000DA01A21BB1099D01B7FF03C031952195F7
:10141000310993E0220F331F9A95E1F7AF01421B88
:10142000530B9A0157FD20E0582F259F212D1124A1
:10143000822F0895E42FF0E0EE0FFF1FE453FD4FDD
:10144000408134EE439F412D1124E72FF0E050E01E
:10145000445E5F4FDA01A21BB1099D01B7FF03C0D3
:1014600031952195310993E0220F331F9A95E1F7C9
:10147000AF01421B530B9A0157FD20E0279F212DFE
:101480001124722F08950C949F070C94AA07FC0155
:101490009B01009729F480E077FF2BC080E8089536
:1014A000AC0197FF04C044275527481B590BB901CD
:1014B000640F751F37FD10C0241B350BC901A5E053
:1014C000880F991FAA95E1F70E94BB3080E2861B26
:1014D000F7FF0FC081950895CB0165E0880F991F34
:1014E0006A95E1F7BA01621B730B0E94BB3080E67C
:1014F000EECF0895EF920F93CF93DF93D72FC82F9E
:10150000C9010E19BA010E94470A602F681B7D2F7E
:101510008C2FDF91CF910F91EF9008950F93CF9380
:10152000DF93D72FC82FC901BA010E94470A682F3D
:10153000600F7D2F8C2FDF91CF910F910895EF9247
:101540000F931F93CF93DF93D62FC72F182FC90167
:101550000E19010FBA010E94470A081B202F219F74
:10156000212D1124822F6D2F7C2FDF91CF911F9180
:101570000F91EF900895EF920F931F93CF93DF9306
:10158000D62F172FC82FC9010E19070FBA010E94B5
:10159000470A702F781B719F712D11246D2F8C2F8E
:1015A000DF91CF911F910F91EF9008950F931F93AB
:1015B000CF93DF93D62FC72F182FC901212F201BC0
:1015C000022FBA010E94470A982F990F990F891B81
:1015D000800F282F219F212D1124822F6D2F7C2FEA
:1015E000DF91CF911F910F9108950F931F93CF9388
:1015F000DF93D62F172FC82FC901272F201B022FAB
:10160000BA010E94470A982F990F990F782F791BDA
:10161000700F719F712D11246D2F8C2FDF91CF9141
:101620001F910F910895E82F86FDE0952E2F2F70C2
:1016300086FD2F5FE695E695E695E670F0E0E95FBA
:10164000FD4F9181929F902D212D112492959F7095
:101650002295207F922B2081920F87FD919580E823
:10166000890F08950F931F93CF93DF938B01D82F8A
:10167000C42F822F0E94130BEC2FF0E0EE0FFF1F00
:10168000E453FD4F90819058890F87FD8195880F15
:10169000682F2CE0629F612D1124600F712F8D2F18
:1016A000DF91CF911F910F910895AC018230910588
:1016B00008F408959FEF413E8EE1580740F49A01E7
:1016C00095E0369527959A95E1F798E0920F61E0BD
:1016D000E62FE90FFF27FF1F9F0135952795822FE2
:1016E000229FF001239FF00DF00D11244E175F078C
:1016F00038F49FEF920F961758F78FEF860F0895E3
:101700002F3FE9F361E0620FF6CF0F93CF93DF93A2
:10171000D72FC82F47FD41958EE390E0841B910998
:1017200047FD9395889FB001899F700D700D11241E
:10173000229FC001239F900D900D1124860F971FAB
:101740000E94550B982F990F890F682F600F7D2FDE
:101750008C2FDF91CF910F91089530E020E0869F8C
:10176000212D969F200D311D1124C9010895AF929E
:10177000BF92CF92DF92FF920F931F93CF93DF938D
:10178000362F472FE82FF0E0E051FE4F71110FC0C8
:10179000E4918E2F2E2F6E2F722FDF91CF911F91FC
:1017A0000F91FF90DF90CF90BF90AF900895C72F1B
:1017B000D0E02491F22E022F10E056E0659FC00188
:1017C0001124EFEFF0E0BF010E94A730832F90E0DB
:1017D000880F991F35E5369FD001379FB00D112432
:1017E0008A1B9B0B982F990F980F6F01CC1ADD0A5B
:1017F000C09ED001C19EB00DD09EB00D11248B2F84
:10180000499FA0011124452F55276F01C41AD50AFD
:10181000C09EA001C19E500DD09E500D11245F01AD
:10182000A91AB108AC9E6001AD9ED00CBC9ED00C34
:101830001124CD2CDD24EC19FD09E09FE001E19F8E
:10184000D00DF09FD00D1124ED2F62307105A1F065
:1018500050F46115710509F49ECF6130710581F076
:10186000EB2F852F98CF6430710569F080F06630DA
:10187000710509F490CFF4CFE22F2B2F8D2F8BCF52
:10188000E22F252F88CFEB2F822F2D2F84CF2B2FC8
:101890008F2DE52F80CF2F923F925F926F927F9294
:1018A0008F929F92AF92BF92CF92DF92EF92FF9270
:1018B0000F931F93CF93DF93CDB7DEB72A970FB661
:1018C000F894DEBF0FBECDBF8B837E836D832091E6
:1018D000210188E1289F802D11248F83885E8983D0
:1018E0008A83853710F034E73A838091AD068C8384
:1018F000FF81EF2FF0E0FA87E987CF01880F991F6A
:101900009C0124563D4F69013B81832F90E0FC01EF
:101910003196F887EF838A8199859817E8F081E0FE
:10192000E981E43708F080E02A960FB6F894DEBF2C
:101930000FBECDBFDF91CF911F910F91FF90EF9020
:10194000DF90CF90BF90AF909F908F907F906F90DF
:101950005F903F902F900895E985FA85EC54FC4FF5
:101960008081909122018923F1F02090D30730905B
:10197000D4072F8138852355394F39015B8010E01A
:10198000FC815F16D0F02091D507129F112D1124F4
:10199000B101812F0E94B70B462F282F672F898511
:1019A0009A850E94450A29853A852F5F3F4F3A87DD
:1019B000298732E0C30ED11CAECFF30181913F01E4
:1019C000F601A0A8A81ABB0881A8F3018185881A8E
:1019D0009908AA9C9001AB9C300D300D1124889C75
:1019E000C001899C900D900D1124820F931F0E94BD
:1019F000550B082F6091D60721E0620F08F46FEFB6
:101A0000F301EE0FFF1FED5AF640838D948D0E9477
:101A1000AD0B7C019401A501B101812FED81FE8107
:101A200009951B015394182FABCFCF92DF92EF9201
:101A3000FF920F931F93CF93DF938C01C0912101ED
:101A400088E1C89FC02D112428E1D22EDC0ECD2CB8
:101A500024E72D1510F494E7C92E2091D60731E024
:101A6000230F08F42FEF30E050E040E06FEF7FEFFE
:101A700080E090E00E94A0317901D0E02C2FCC15BD
:101A800070F081E0F3E7FD1508F480E0DF91CF917D
:101A90001F910F91FF90EF90DF90CF900895FE017E
:101AA000EC54FC4F808190912201892311F14091E7
:101AB000AD064150042E000C550B47FF1CC0C7015A
:101AC0006091D60721E0620F08F46FEF0E94AD0B22
:101AD000AC016091D3077091D4078091D507F801CC
:101AE00009950E94B70B462F282F672FCE010E9421
:101AF000450A2196C3CFFA01E355F94F8589821330
:101B00000AC0FA01EE0FFF1FE355F94F878D90A130
:101B10008E159F05A8F241505109CFCFDF92EF9269
:101B2000FF920F931F93CF93DF937C01C09121010C
:101B300088E1C89FC02D112418E11C0F012F153713
:101B400008F004E76091D6076695669521E0620F7C
:101B500008F46FEF8091A9069091AA060E94AD0B40
:101B6000D82ED0E0C01760F081E0143708F080E094
:101B7000DF91CF911F910F91FF90EF90DF9008952B
:101B8000FE01EC54FC4F808190912201892391F059
:101B90006091D3077091D4078091D5072D2D4C2FDC
:101BA000F70109950E94B70B462F282F672FCE010A
:101BB0000E94450A2196D6CF9F92AF92BF92CF92B4
:101BC000DF92EF92FF920F931F93CF93DF936C01FD
:101BD000C091210188E1C89FC02D112418E11C0F7C
:101BE000B12E153710F034E7B32E6091D607669505
:101BF00066958091A9069091AA060E94AD0BF82ED9
:101C000080E48F0D0E94130B90E8A92EA80E8F2D53
:101C10000E94130B20E8922E980ED0E0CB1580F096
:101C200081E0143708F080E0DF91CF911F910F9190
:101C3000FF90EF90DF90CF90BF90AF909F9008956E
:101C4000FE01EC54FC4F8081909122018923A1F088
:101C50006091D3077091D4078091D507EF2C0C2F9A
:101C6000292D4A2DF60109950E94B70B462F282FE2
:101C7000672FCE010E94450A2196D0CF5F926F92C6
:101C80007F928F929F92AF92BF92CF92DF92EF920C
:101C9000FF920F931F93CF93DF933C01C0912101DB
:101CA00088E1C89FC02D112418E11C0FF12E1537B3
:101CB00010F034E7F32E6091D60766958091A9065F
:101CC0009091AA060E94AD0B582ED0E0CE01880F4D
:101CD000991F9C0124563D4F6901CF15A0F081E06A
:101CE000143708F080E0DF91CF911F910F91FF90A2
:101CF000EF90DF90CF90BF90AF909F908F907F90AC
:101D00006F905F900895FE01EC54FC4F808190919C
:101D10002201892379F1F60180A9282F2C57330B52
:101D2000590181A9E82FE052FF0B4F01AA9C9001B5
:101D3000AB9C300D300D1124EE9FC001EF9F900D34
:101D4000900D1124820F931F0E94550B082F609154
:101D5000D3077091D4078091D507E52C9401A50194
:101D6000F30109950E94B70B462F282F672FCE014C
:101D70000E94450AF2E0CF0ED11C2196AECFAF9261
:101D8000BF92CF92DF92EF92FF920F931F93CF9368
:101D9000DF936C01C091210188E1C89FC02D1124FF
:101DA00018E11C0FB12E153710F034E7B32E6091F7
:101DB000D60766958091A9069091AA060E94AD0B60
:101DC000A82ED0E0CE01880F991F9C0124563D4FCC
:101DD0007901CB1578F081E0143708F080E0DF91CD
:101DE000CF911F910F91FF90EF90DF90CF90BF9018
:101DF000AF900895FE01EC54FC4F80819091220138
:101E00008923C1F0F70121A92052330B40A94C5777
:101E1000550B6091D3077091D4078091D5070A2D97
:101E2000F60109950E94B70B462F282F672FCE0188
:101E30000E94450AF2E0EF0EF11C2196CACF84E021
:101E40008093EC048FE78093ED048091EE0480781A
:101E500080648093EE04E4EAF4E08FEF819394E0F1
:101E6000EC3EF907D9F71092A3041092A204109245
:101E7000A1041092A004089580E00895F894E82F3A
:101E8000E295EF70F0E031A1282F2F7081E090E013
:101E900001C0880F2A95EAF7982F9095932391A374
:101EA00092A1892B82A3789408959091860492FF41
:101EB00006C0282F28712830F9F4877F846093FFAB
:101EC00006C0282F28712831F1F4877E8461209183
:101ED000870420FF06C0382F38713830D9F4877F47
:101EE000816021FF06C0282F28712831D1F4877E18
:101EF000816194FD877E0895282F24712430F9F69E
:101F00008B7F8860DCCF282F2471243101F78B7EF2
:101F10008861DDCF382F3171313019F78E7F8860BD
:101F2000E0CF282F2171213121F78E7E8861E1CF0A
:101F3000CF93DF93EC018238910581F1B0F58133C5
:101F4000910509F491C020F58932910509F485C005
:101F50008A9709F490C0C11521E5D20708F0AAC0FC
:101F6000C11530E5D30708F0F2C0CF3BD10508F02A
:101F700089C0C83AD10508F0DFC0C53AD10508F0DC
:101F8000D3C0C430D105F8F4C130D105E1F040C070
:101F90008533910509F45AC0C997E9F68091860402
:101FA000837089F0C0EED0E00EC0833E910599F1B8
:101FB00070F4803E910501F1823E910561F68091B9
:101FC000860482FD21C0CE01DF91CF910895863E27
:101FD000910561F1873E910571F1843E910509F00B
:101FE000BACF8091870481FFEECF80918604C7EE3F
:101FF000D0E084FD0DC0E7CF8091860480FDF7C05E
:102000009091870490FFDFCFC3EED0E084FFDBCF59
:10201000D0E0C0E0D8CF8091860482FDEBC09091E3
:10202000870490FDBFCF84FFCECFF2CF809186048E
:1020300083FDDDCFC8CF8091860483FDDEC0909103
:10204000870491FFF0CFC4EED0E0BDCF809186042D
:1020500085FFB9CFC9E2D0E0B6CF8091860485FF75
:10206000B2CFC5E3D0E0AFCF8091860486FFABCF7F
:10207000CAE2D0E0A8CF8091860486FFA4CFC1E356
:10208000D0E0A1CFC11540E2D40760F4C11581E0D2
:10209000D80708F098CFCE01805E9109089708F420
:1020A00092CFB6CFC11590E4D90708F4B1CFDF7055
:1020B000D06A89CFC11524E5D20778F4C11533E57C
:1020C000D30708F072C0C11542E5D40708F05CC020
:1020D000DC2FCC27C16FD06A76CFC1158AE5D8072F
:1020E00078F4C11599E5D90708F073C0C11528E542
:1020F000D20708F48DCFDC2FCC27C06FD06A63CF16
:10210000CE0190568115904208F082CF8D2F8F71AD
:102110000E94550F90E0982F882788279F719C0177
:102120002C2BE901D0624FCFC55AD0E0C854DE4F06
:10213000C881D0E0D06447CFC85AD0E0CC0FDD1FB3
:10214000C554DE4F0990D881C02DD4643CCFCE0158
:1021500064E0969587956A95E1F783702C2F269514
:102160002695237040E2249F90011124382B8C2F58
:102170008370C1E0D0E002C0CC0FDD1F8A95E2F78A
:10218000C22BD32BDC681FCFCE018370992721E0AF
:1021900030E002C0220F331F8A95E2F7C695C6953C
:1021A00080E2C89FE0011124EBCFCE018370992714
:1021B00021E030E002C0220F331F8A95E2F7C69576
:1021C000C69590E2C99FE0011124C22BD32BDA6897
:1021D000FACE8C2F8F700E94550F34E0D695C7959C
:1021E0003A95E1F7CF709C2FEC01D069ECCEC9E3B2
:1021F000D0E0E9CEC2EED0E0E6CEC6EED0E0E3CE4F
:102200008091810490918004892B90917F04892B87
:1022100080932A04E0918606F0918706309731F08A
:102220000280F381E02D8AE294E009940895809180
:102230007E0490914D04981301C008958F5F8770BC
:10224000FACF990F990F990F890F982F977086954C
:102250008695869523E0829FF0011124EB5CFB4F6D
:1022600050E040E080E0219130E0092E02C0369538
:1022700027950A94E2F721703327042E01C0220F1C
:102280000A94EAF7822B4F5F5F4F4330510559F7AD
:102290000895990F990F990F890F982F977041E022
:1022A00001C0440F9A95EAF786958695869593E046
:1022B000899FF0011124EB5CFB4F30E020E070E0DF
:1022C0005191DF011197CB01022E02C0969587959F
:1022D0000A94E2F7817081958527842385278C9362
:1022E0002F5F3F4F2330310559F7089590E080E08C
:1022F0000E94780790E080E00E94620710928004BC
:1023000010927F040C9400118093E0060C947611D7
:102310008091E006982F9670963019F488600C949E
:102320008411877FFCCF21E030E001C0220F8A9525
:10233000EAF720958091E00682230C94841121E035
:1023400030E001C0220F8A95EAF78091E006822BE7
:102350000C948411809382040C947611882341F0AC
:102360008095909181048923809381040C940011BD
:102370000895882339F090918104982B90938104DB
:102380000C94001108958823B1F19CEF980F913AB5
:1023900070F4ECE2F4E09191891303C0DF0111972E
:1023A0001C9244E0E233F407B1F70C94001190E280
:1023B000980F983088F4877021E030E0A90102C0BE
:1023C000440F551F8A95E2F7CA01809590918104C8
:1023D000892380938104E9CF9BE5980F933020F403
:1023E00090E080E00C947807885A873120F490E0E0
:1023F00080E00C9462070895CF93C82F882309F4D6
:102400004EC08CEF8C0F813AF8F4ECE2F4E082E3FA
:1024100094E0DF012D91C21759F08A179B07D1F77D
:102420006C2F8AE294E00E944807CF910C9400112F
:102430002191C21303C0DF0111971C928E179F07D1
:10244000B9F70E940011ECCF80E28C0F883068F45D
:10245000C77021E030E001C0220FCA95EAF78091F1
:102460008104822B80938104E0CFEBE5EC0FE33015
:1024700040F4F0E0E854FE4F808190E0CF910C945E
:102480007807C85AC73158F4EC2FF0E0EE0FFF1F61
:10249000E554FE4F80819181CF910C946207CF91DA
:1024A0000895DF92EF92FF920F931F93CF93DF93E4
:1024B000082FF62EE42E809105018823E9F0809103
:1024C000320419E0811101C01CE0D0E0C0E08CE0D2
:1024D000D82E80913204FE01D89EE00DF11D11240A
:1024E000E85DFE4F80812E2D4F2D602F90E00E94E1
:1024F000450A2196C11768F3DF91CF911F910F9183
:10250000FF90EF90DF90089580913304882319F0B5
:1025100083E00C94841181E0FCCFECEEF4E0808148
:10252000807F82608083EDEEF4E080818078856733
:10253000808381E00E94AA1181E00E94841188E2D8
:102540000C94040380938F06709391066093900619
:1025500080919F068430F9F48093E9008FEF909189
:10256000E800815095FD06C095ED9A95F1F70000C1
:102570008111F5CF8091E80085FF0DC050E040E06B
:1025800063E070E08FE896E00E949C048091E80090
:102590008E778093E8000895BC0184E00C94A21229
:1025A000BC0183E00C94A212CF93DF93EC0181E095
:1025B0008093E9008FEF9091E800815095FD06C06F
:1025C00095ED9A95F1F700008111F5CF8091E80023
:1025D00085FF14C050E040E068E070E0CE010E944A
:1025E0009C048091E8008E778093E80088E0FE01EB
:1025F000A5E9B6E001900D928A95E1F7DF91CF91C0
:102600000895539A3BB1377F2BB128604FB7F894A8
:1026100088E295E0FC015191CF0168E02BB9000000
:1026200000C057FF3BB9550F000000C000C000C0FC
:102630003BB900C06A9591F7F6E084389F0751F7DF
:102640004FBF8FE594E00197F1F700C000000895B7
:102650001F93CF93DF93182FCAE0D0E0893311F492
:10266000C0E5D0E0812F0E94FC118FE99FE0019727
:10267000F1F700C000002197C1F7812FDF91CF91C2
:102680001F910C94C3110F931F93CF93DF93C62F09
:10269000D42F022FFC0182818823A1F06093D00700
:1026A0000E943C079093CF078093CE07C77081E0CC
:1026B00001C0880FCA95EAF7DF91CF911F910F9162
:1026C0000C94B9118091D007681335C08091CE0762
:1026D0009091CF070E942107883C910560F510E298
:1026E0001D0FCD17B9F080E28C0F883040F4C77011
:1026F00081E001C0880FCA95EAF70E94AE11183038
:1027000048F481E09D2F977001C0880F9A95EAF7F1
:102710000E94B911802F0E942813183098F4D770A6
:1027200081E001C0880FDA95EAF7DF91CF911F9120
:102730000F910C94AE11C77081E001C0880FCA954B
:10274000EAF7F3CFDF91CF911F910F910895CF93C7
:10275000DF93C7EAD1E060E0CE010E947C31219690
:10276000C11584E0D807B9F7DF91CF9108956F9232
:102770007F928F929F92AF92BF92CF92DF92EF9211
:10278000FF920F931F93CF93DF9380EFC82E82E0C9
:10279000D82E07E910E0E801C056D10936011CC067
:1027A000F50185909490692DC7010E947C31682DB8
:1027B000C70101960E947C3182E0A80EB11C82E024
:1027C000E80EF11CCE15DF0559F780E1680E711C8B
:1027D00060960C171D0731F07E0180E1E81AF108C0
:1027E0005301DECF005A1F4F80E6C80ED11C0731BF
:1027F00082E0180781F6DF91CF911F910F91FF9032
:10280000EF90DF90CF90BF90AF909F908F907F9090
:102810006F900895CF93C82F6FEF811161E283E22B
:1028200090E00E947C316FEFC11162E184E290E0A0
:102830000E947C316FEFC11168E285E290E0CF9198
:102840000C947C3180E00E940A1460E086E290E003
:102850000E947C310E94B7130E94A71381E00C9460
:102860000A140F931F93CF93DF9320E1629FE0013F
:10287000112450E0440F551FC40FD51F30E6839F2D
:10288000C00DD11D1124CE0187960E945E31082F04
:1028900010E0102F0027CE0188960E945E3198012B
:1028A000282BC901DF91CF911F910F910895462FD9
:1028B000843038F4763028F4683018F4672F0C949C
:1028C000311490E080E00895CF92DF92FF920F9351
:1028D0001F93CF93DF936C010091E00680918204F7
:1028E000082BC7E0D0E010E0FC2EC8010C2E02C07F
:1028F000959587950A94E2F780FD0CC02197A0F783
:10290000F12C8F2DDF91CF911F910F91FF90DF90D0
:10291000CF900895B6018C2F0E9457140E94980FF3
:10292000019761F3EECFCF93DF93EC010E94641423
:10293000BE010E945714DF91CF910C94980FFC01B7
:10294000808191810E949314292F2F7092959F70FE
:1029500092509E3078F4E92FF0E0EB5FFD4C0C9440
:10296000CF30803F19F020F4883E20F481E00895B4
:10297000843FE1F380E00895883EC0F3813FD1F7C2
:10298000F5CF822F869586958695089583E290E00F
:102990000E945E31813289F484E290E00E945E31CF
:1029A000823159F485E290E00E945E3191E08832F4
:1029B00009F090E0892F8170089580E0FCCFCF93DB
:1029C00084E090E00E945E31C82F82E290E00E9495
:1029D0005E31982F8C2FCF9108951F93CF93DF9363
:1029E000EC01FC01EC54FC4F80816823C9F00E948B
:1029F0002831182F0E9428318F77782F20E8720F06
:102A000008F47FEF612F8091D5070E94B70B462F06
:102A1000282F672FCE01DF91CF911F910C94450A8B
:102A2000DF91CF911F910895DF92EF92FF920F9364
:102A30001F93CF93DF938C01FC01EC54FC4F8081FA
:102A4000682381F1D090D407D091D507C091D307E6
:102A5000EC2EF12C0E942831282FC7018C549F4F57
:102A600068E671E00E94BB308E199F0997FD0396BE
:102A7000959587959595879523706C2F289F600D68
:102A800011247D2D8D2F0E94B70B462F282F672FE5
:102A9000C801DF91CF911F910F91FF90EF90DF90D0
:102AA0000C94450ADF91CF911F910F91FF90EF9009
:102AB000DF9008957F928F929F92AF92BF92CF92B4
:102AC000DF92EF92FF920F931F93CF93DF93182F14
:102AD00080911301811323C09091D20793702091AC
:102AE000120130E081E09217130609F480E0817052
:102AF000809323018091D70790912201981739F094
:102B00008093220140E060E080E00E94430A1A3294
:102B100060F4E12FF0E0ED5EFD4C0C94CF3081E0ED
:102B2000E6CF80912301811102C0C0E059C140E08D
:102B300060E080E00E94430AF8CFC091210188E163
:102B4000C89FC02D112408E10C0FF02E053710F09E
:102B500094E7F92E6091D3077091D4078091D5073F
:102B60000E94B70BE62ED72EC82ED0E0CF1528F046
:102B7000C1E0043708F434C1D8CFFE01EC54FC4F57
:102B8000808190912201892331F02C2D4E2D6D2DC5
:102B9000CE010E94450A2196E9CFC091210188E12A
:102BA000C89FC02D112408E10C0FE02E053710F04E
:102BB00084E7E82ED090D407C090D5072091D6079F
:102BC000D0E4FD2E3F2D329F312D1124F32ED0E085
:102BD000CE1570F6FE01EC54FC4F808190912201DD
:102BE0008923B9F0FE01EE0FFF1FE456FD4F81A9C6
:102BF00082958F706091D3078F9D600D11247D2D7C
:102C00008C2D0E94B70B462F282F672FCE010E94D4
:102C1000450A2196DDCFC091210188E1C89FC02DD2
:102C2000112408E10C0FE02E053710F0A4E7EA2E7E
:102C3000D090D407C090D5072091D607F0E4FF2E9E
:102C40003F2D329F312D1124F32ED0E0CE1508F008
:102C50008FCFFE01EC54FC4F80819091220189239B
:102C6000D9F0FE01EE0FFF1FE456FD4F60A9F69E5E
:102C7000B0011124E5E075956795EA95E1F780913B
:102C8000D307680F7D2D8C2D0E94B70B462F282F60
:102C9000672FCE010E94450A2196D8CFC09121010D
:102CA00088E1C89FC02D112408E10C0FF02E0537D4
:102CB00010F064E7F62EE090D307D091D407D090BF
:102CC000D5076091D6076695669566958091A906A9
:102CD0009091AA060E94AD0B0E94130B805887FDAD
:102CE0008195880F282F3D2D239F212D1124822F80
:102CF0006E2D7D2F0E94B70BE62ED72EC82ED0E06A
:102D0000CF1508F035CFFE01EC54FC4F8081909137
:102D10002201892331F02C2D4E2D6D2DCE010E94E4
:102D2000450A2196EDCF8AE19AE00E948E0D07C0F8
:102D300080EF99E0FACF85EF9AE00E94BF0EC82F8E
:102D40004FC086ED9AE0F9CF8BEB9AE00E943E0EE1
:102D5000F6CF8FE99AE0FACF8EEE99E0E6CF85EED6
:102D600099E0E3CF8CED99E0E0CF83EC99E0DDCF03
:102D700085EB99E0EBCF85E89BE0DFCF8EE89AE02A
:102D8000DCCF8AE79AE0E2CF88E899E00E94DC0D88
:102D9000D6CF8AE599E0FACF83E299E0F7CFC091E8
:102DA0002301C1113EC06091D60720E1620F08F4F3
:102DB0006FEF8091A9069091AA060E94AD0B6AE080
:102DC00070E00E94A730892B09F0AFCE0E94283115
:102DD00064E770E00E94BB30609122010E941415EC
:102DE000809121018F5F80932101C1110CC082E08D
:102DF0008093240180912301811105C0111103C02A
:102E000083E080932401DF91CF911F910F91FF9078
:102E1000EF90DF90CF90BF90AF909F908F907F907A
:102E20000895C091210188E1C89FC02D112408E1B7
:102E30000C0F802F053708F084E7D0E0E82EF12C46
:102E4000CE15DF050CF094CE60912201CE010E94D8
:102E500014152196F5CFC0912301C1111EC06091B8
:102E6000D60720E1620F08F46FEF8091A9069091D8
:102E7000AA060E94AD0B65E070E00E94A730892B86
:102E800009F053CE0E94283164E770E00E94BB3005
:102E9000609122010E94ED14A3CFC091210188E12D
:102EA000C89FC02D112408E10C0F802F053708F0B2
:102EB00084E7D0E0E82EF12CCE15DF050CF058CEDB
:102EC00060912201CE010E94ED142196F5CFC091B0
:102ED000210188E1C89FC02D112408E10C0FF02EBC
:102EE000053710F054E7F52ED090D407E090D507C1
:102EF000D091D3076091D6076695669566958091C7
:102F0000A9069091AA060E94AD0B0E94130B80584F
:102F100087FD8195880F682F2CE0629F612D112419
:102F20006D0F7D2D8E2D0E94B70BE62ED72EC82E4D
:102F3000D0E0CF1508F01CCEFE01EC54FC4F808190
:102F400090912201892331F02C2D4E2D6D2DCE0133
:102F50000E94450A2196EDCF82E39BE0E6CE82E116
:102F600099E0E3CE8BE099E00E94150DE8CE85E074
:102F700099E0FACF8091AD0621E0382F321B08F49A
:102F800030E0832F6CEE78E00E944B0CD8CE6CEED4
:102F900078E080E0F9CF8091AD0621E0382F321B38
:102FA00008F430E0832F61EB78E0EECF61EB78E05E
:102FB000F0CF8091AD0621E0382F321B08F430E0CD
:102FC000832F6FE778E0E0CF6FE778E0E2CF809182
:102FD000AD0621E0382F321B08F430E0832F67E67E
:102FE00078E0D2CF67E678E0D4CF8091AD0621E0DB
:102FF000382F321B08F430E0832F61E578E0C4CF2E
:1030000061E578E0C6CF66E278E0C3CFC0912101E8
:1030100088E1C89FC02D112408E10C0FB02E0537A0
:1030200010F044E7B42E2091D60730E050E040E0A5
:103030006FEF7FEF80E090E00E94A0317901D0E057
:10304000CE01880F991FFC01E456FD4F6F0132E855
:10305000A32ECB1508F08CCDFE01EC54FC4F8081E3
:1030600090912201892319F18090D4079090D5077F
:103070007090D3074091AD064150042E000C550BC3
:1030800047FF1AC0C7016091D6070E94AD0B6A2D99
:10309000282F621B08F460E0670D782D892D0E94AF
:1030A000B70B462F282F672FCE010E94450A219685
:1030B00032E0C30ED11CCDCFFA01E355F94F918117
:1030C000F60180A998130AC0FA01EE0FFF1FE3551D
:1030D000F94F878D90A18E159F05A8F24150510997
:1030E000CFCF90912101D8E19D9FD00D11240E9456
:1030F0002831C82F0E9428316C2F782F8091D50756
:103100000E94B70B482F872F0E94430AC1E0D43793
:1031100008F466CE0ACD4F925F926F927F928F92A3
:103120009F92AF92BF92CF92DF92EF92FF92CF9396
:10313000DF93C0902305D0902405E0902505F09002
:1031400026058FB7F89440908B0650908C066090BF
:103150008D0670908E068FBF530142018C189D081A
:10316000AE08BF080E9430076093230570932405C2
:103170008093250590932605A091F004E0EFF4E0FC
:103180002A2F30E04FEFC40ED41EE11CF11CC418EE
:10319000D508E608F708A3132BC02093F00420916C
:1031A0002705C0E0211108C02091D207C22FC370AB
:1031B00019F0C22FC695C69520912401213009F43B
:1031C00041C0222341F1223009F4A8C0233009F480
:1031D000B0C0DF91CF91FF90EF90DF90CF90BF9084
:1031E000AF909F908F907F906F905F904F900895D9
:1031F000478D50A12A01712C612CC414D504E6041A
:10320000F70420F421503F5F3296C5CF480D591D79
:1032100050A3478FF8CF109221016093A9067093B5
:10322000AA068093AB069093AC0683E3E0EFF4E04C
:10323000ADEAB6E001900D928A95E1F781E08093C6
:103240002401C7CF8C2F0E945A15CC2311F28091F4
:10325000D207837009F4BDCF8091E006833009F472
:1032600059C0B0F4813009F0B4CF46E061E28BE29E
:10327000DF91CF91FF90EF90DF90CF90BF90AF9014
:103280009F908F907F906F905F904F900C94511211
:103290008850C1E0D0E0893008F09BCF29E143E3BA
:1032A00060E0CE010E94450A2196C530D105B1F7F4
:1032B00029E143E360E085E090E00E94450A29E1CE
:1032C00043E360E086E090E00E94450A26E041E2A8
:1032D0006BE289E290E00E94450A26E041E26BE25F
:1032E0008EE490E00E94450A26E041E26BE283E72B
:1032F00090E00E94450ACFE0D2E089A129E143E3B2
:1033000060E090E00E94450A269682E0CD35D8071D
:10331000A1F75FCF40E069E183E3AACFC093130137
:103320008091D2078370809312010E94011383E081
:1033300086CF8091D107882351F046E050E06CE1C0
:1033400070E082ED97E00E946C311092D1074091BD
:10335000A9065091AA066091AB067091AC062FB7F2
:10336000F89480918B0690918C06A0918D06B09177
:103370008E062FBF841B950BA60BB70B4097A1059C
:10338000B10508F426CF1092240123CFE2EDF7E037
:1033900081E380838091250190912601A0912701EE
:1033A00081839283A3838FE784838FEF858346E0B5
:1033B00050E06CE170E0CF010E946C311092D107B7
:1033C000089510928104ECE2F4E086E0DF011D92A2
:1033D0008A95E9F70C9476111F93CF93DF93CDB7BD
:1033E000DEB7AA970FB6F894DEBF0FBECDBF81EA55
:1033F00096E02091F100DC012D93CD01B6E0893AF1
:103400009B07B9F78091A206833009F472C0B8F423
:10341000813009F449C0823009F4B3C08091E800DA
:1034200083FF96C28091A1069091A2069A3008F07F
:103430008FC2E92FF0E0E35CFD4C0C94CF308A3072
:1034400009F48EC08B3009F471C0893039F780914E
:10345000A106813219F78091A5069091A6060097E2
:1034600011F00297D9F68091E800877F8093E800F9
:103470008091E80082FF38C09091F3008091F200C3
:10348000029731F48091F100813011F0863021F4FF
:103490008091F100809394068091E8008B7780936F
:1034A000E8000E94F004BACF8091A106813A09F0A9
:1034B000B5CF8091E800877F8093E8008091A506D2
:1034C0009091A606892B61F468E085E996E070E0AA
:1034D0000E94A2058091E8008B778093E8009ECF40
:1034E00060E090E080E0F3CF80919F068111C0CF33
:1034F00095CF8091A106813A09F090CF8091A506E1
:103500009091A606892B09F089CF8091E800877FEA
:103510008093E8008091E80080FFFCCF809120013B
:103520008093F1008091E8008E77B9CF8091A10659
:10353000813209F073CF8091A5069091A606892B60
:1035400009F06CCF8091E800877F8093E8000E94AB
:10355000F0048091A306809320010E94E1195ECFC0
:103560008091A106813209F059CF8091E800877FD0
:103570008093E8000E94F0048091A4068093930653
:103580004DCF8091A106813A09F048CF8091E800A3
:10359000877F8093E8008091E80080FFFCCF8091D6
:1035A0009306BECF803899F0823809F0D1C180915E
:1035B000A5068F70873008F0CBC18093E900809119
:1035C000EB0085FB882780F91092E90006C0809106
:1035D0009D0690919E06911182609091E800977FE0
:1035E0009093E8008093F1001092F1008091E80040
:1035F0008E77AAC1882309F498C1823009F0A8C146
:103600008091A30681119BC18091A5068F702FEF39
:10361000280F263008F09CC18093E9002091EB0030
:1036200020FF8DC1933031F48091EB008062809354
:10363000EB0085C19091EB0090619093EB0021E04D
:1036400030E001C0220F8A95EAF72093EA00109239
:10365000EA008091EB008860EACF811179C1109176
:10366000A3061F778091E3008078812B8093E3008D
:103670008091E800877F8093E8000E94F0048091A9
:10368000E80080FFFCCF8091E30080688093E30036
:1036900082E0111183E080939F065AC180588230E6
:1036A00008F056C12091A3063091A4062C3DE3E01A
:1036B0003E07A1F583E08A838AE289834FB7F894B5
:1036C000DE01139620E03EE051E2E32FF0E050935C
:1036D0005700E49120FF03C0E295EF703F5FEF7069
:1036E0008E2F90E0EA30C0F0C7968D939D932F5FA8
:1036F000243159F74FBF8091E800877F8093E8001D
:103700006AE270E0CE0101960E94A2058091E80075
:103710008B778093E8001CC1C096E7CF8091A50607
:103720009091A606432F55274330510509F44AC00E
:1037300078F54130510509F47AC08FEB90E0E0E76D
:10374000F4E04230510509F003C12091E800277FE1
:103750002093E8002091A7063091A80682179307CE
:1037600008F49C0140E02115310509F065C04111C4
:1037700063C08091E80082FDC9CF80919F068823B5
:1037800029F2853019F28091E80083FFF2CFBECF95
:103790004132510509F43CC04232510509F0D8C00C
:1037A0008330910508F0D4C0FC01EE0FFF1FE057F5
:1037B000FD4F0190F081E02D83579D4FDC018C91EE
:1037C00090E01AC0332721303105D1F021153105A1
:1037D00061F02230310509F0BBC0E1E4F5E0E4918D
:1037E0008E2F90E0E1E4F5E007C0E1E7F5E0E49139
:1037F0008E2F90E0E1E7F5E0009709F4A9C0A5CF8E
:10380000E1E6F5E0E4918E2F90E0E1E6F5E0F4CF1B
:103810008330910508F09CC0880F991FFC01EA567F
:10382000FD4F0190F081E02D89E090E08ECF82E1A4
:1038300090E0EFE2F5E089CF80919F06882309F4BC
:1038400065CF853009F462CF8091E80083FD5ECFBB
:103850008091E80082FD8DCF8091E80080FF83CFCA
:103860009091F3008091F2002115310519F0883014
:10387000910550F041E0089709F040E08091E800A0
:103880008E778093E8006FCF44914093F10031969A
:10389000215031090196E8CF803809F059C0809154
:1038A000E800877F8093E8008091A0068093F10074
:1038B0009DCE81114DC01091A306123008F048C072
:1038C0008091E800877F8093E8001093A0060E9413
:1038D000F004112311F084E005C08091E30087FD1E
:1038E000FACF81E080939F0642E061EC81E00E9484
:1038F0000F0542E261EC84E00E940F0542E261ECB8
:1039000082E00E940F0542E260EC83E00E940F0516
:1039100042E361E885E00E940F0542E361E886E04A
:103920000E940F0580919F0613C08091A3068130ED
:1039300079F481E0933009F080E080939E06109244
:10394000E9008091E800877F8093E8000E94F004FE
:103950008091E80083FF0AC08091E800877F809310
:10396000E8008091EB0080628093EB00AA960FB68E
:10397000F894DEBF0FBECDBFDF91CF911F910895A8
:1039800090E080E00E946631893E9E4F11F40C94D5
:10399000C61480E0089569EE7EEF90E080E00E941A
:1039A0009A3160E082E090E00E947C3160E083E048
:1039B00090E00E947C311092820460E084E090E00C
:1039C0000E947C3160E082E290E00E947C3160E005
:1039D00085E090E00E947C3160E086E090E00E940B
:1039E0007C316FEF87E090E00E947C3140E050E056
:1039F000BA0188E090E00E948E3160E08DE090E0B6
:103A00000E947C3140E050E0BA0188E190E00E94E1
:103A10008E3160E087E190E00E947C3140E050E030
:103A2000BA018CE190E00E948E3170E060E080E2AB
:103A300090E00E949A3140E050E0BA0188E190E0C5
:103A40000E948E3180E00E940A140E94221440E0FD
:103A500050E0BA018FE090E00E948E310E941F0F6B
:103A60008091D207837011F4109224018091D207C3
:103A70008C7F81608093D2078091D1078160809391
:103A8000D1078FE78093D6074FEF6FEF8AEA90E078
:103A90000E941D030C948D125F926F927F928F9201
:103AA0009F92AF92BF92CF92DF92EF92FF920F93CD
:103AB0001F93CF93DF9300D000D00F92CDB7DEB726
:103AC0007C01FC0183819481892B39F08081918173
:103AD00089238F3F11F00C948B250F900F900F903E
:103AE0000F900F90DF91CF911F910F91FF90EF906A
:103AF000DF90CF90BF90AF909F908F907F906F900E
:103B00005F9008950E946414182F682F89819A810C
:103B10000E94491169817A81812F0E9457148C017A
:103B2000F7019281992311F40C947F259801225179
:103B30003F452031310508F08AC78FEF93E00E949E
:103B40005E31025197EAA92EBB24B3948111C5CFEF
:103B5000011134C01C821B82662463948AE0582EB3
:103B600085010F5F1F4FC5010E945E3189831A8254
:103B7000882309F4B2CF9FEF980F933070F58A83B2
:103B8000698232E0A30EB11CC8010E945E318B83B2
:103B9000882309F4A2CF8E010F5F1F4FF801208107
:103BA0002223F1F2213009F052C0918182819130BB
:103BB000B1F40E5F1F4F0E94281317C0A114F4E048
:103BC000BF0609F48ACFC5010E945E31811101C090
:103BD00001502FEFA21AB20ABBCF5801DCCF9230AE
:103BE00039F40E5F1F4F0E94FC110F5F1F4FD6CF9D
:103BF000933029F40E5F1F4F0E94C311F6CF94300B
:103C000019F00F5F1F4FF1CF0E5F1F4F30E020E024
:103C1000B8016F5F7F4FF80141818053990B8A3063
:103C2000910550F02150310900F38FE99FE0019791
:103C3000F1F700C00000F6CF529EF001539EF00D48
:103C400011249C012E0F3F1F842F8B01E1CFE22F07
:103C5000F0E0E059FE4F7490822F86958695869508
:103C600090E0FC01E05AFE4FE4902770F12C022E08
:103C700002C0F594E7940A94E2F7E1E0EE22FF2413
:103C8000FC01E05BFE4FC490D12C022E02C0D59403
:103C9000C7940A94E2F7F1E0CF22DD24FC01E05C56
:103CA000FE4F8490912C02C0959487942A95E2F758
:103CB00021E082229924E114F10419F081EE0E949E
:103CC000FC11C114D10419F086EE0E94FC11872D5D
:103CD0000E942813CD2819F086EE0E94C311EF2808
:103CE00019F081EE0E94C311892809F47ECF8CE27D
:103CF00062CF81E00E949F1103C081E00E94931176
:103D00000F900F900F900F900F90DF91CF911F9118
:103D10000F91FF90EF90DF90CF90BF90AF909F906A
:103D20008F907F906F905F900C94881182E0E2CF2B
:103D3000093A7DE51707C1F008F4B3C00A3AEDE58A
:103D40001E0709F09FC6992379F18091EC048F70CA
:103D50008093EC041092320481E08093040110926D
:103D600033040E94841220C09923F1F08091EC0466
:103D70008F708093EC041092320491E090930401D0
:103D800080913304892780933304EBCF992361F02A
:103D90008091E006813041F480913204882309F457
:103DA00064C0815080933204F7019281992309F411
:103DB000C5C61092D0070330FDE51F0708F027C3E2
:103DC0000A3F2CE5120738F4980122503C45243173
:103DD000310508F021C30E94DF149093870480937B
:103DE000860400314CE5140709F4FCC308F078C3DD
:103DF00008306CE5160709F4E3C308F04AC3043041
:103E00008CE5180709F4CEC308F030C30230ECE5A6
:103E10001E0709F4C1C380918604826003301C45EB
:103E200009F4BDC3609186041091870484E090E09A
:103E30000E947C31612F82E290E00E947C310F90E1
:103E40000F900F900F900F90DF91CF911F910F91D6
:103E5000FF90EF90DF90CF90BF90AF909F908F90AA
:103E60007F906F905F900C94E1198BE09BCF99232A
:103E700009F49ACF8091E006813009F095CF8091C6
:103E800032048B3010F48F5F8DCF80E08BCF99237D
:103E900009F48ACF8091050191E08927809305017B
:103EA00083CF992309F480CF9091E0068091EC04B0
:103EB0009B3081F49091040121E029272093040193
:103EC00090933204992321F0806F8093EC046CCF9F
:103ED0008F70FBCF1092040191E090933204806FB9
:103EE0008093EC04909333043CCF01388CE51807A1
:103EF00009F467C10238ECE51E0709F0E6C599230D
:103F000009F4EBCD8091EC04982F9F70993008F064
:103F1000E4CD9F5F60C10C39FCE51F07A8F50239AD
:103F20002CE5120708F07AC100393CE5130709F4C3
:103F300063C101394CE5140709F0C7C5992309F499
:103F4000CCCD2091EC04822F85958595859585951E
:103F500086300CF0C2CD91E0980F9295907F9595A8
:103F6000959595959595392F3295307F2F70232B08
:103F70002093EC0418160CF0B0CD97FFAECD8295CF
:103F8000807F922F9F7029C10C395CE5150709F4D9
:103F900055C10D396CE5160709F097C5992309F449
:103FA0009CCD8091ED04982F9F779F3709F495CD94
:103FB000933708F059C1935F9F77807853C1043BD2
:103FC0007CE5170709F4A6C108F04CC0003BECE5FE
:103FD0001E0709F47BC1D8F40E3A2CE5120709F448
:103FE00058C10F3A3CE5130709F06FC5992309F44E
:103FF00074CD2091ED04322F331F3327331F90915E
:10400000EE04892F8770880F832B8F5F52C18091B8
:10401000ED042091EE04023B4CE5140709F466C15F
:1040200008F06EC140E091114FE7881F8827881F74
:104030002770220F60E4822B0F900F900F900F904B
:104040000F90DF91CF911F910F91FF90EF90DF9034
:10405000CF90BF90AF909F908F907F906F905F9028
:104060000C944903073B6CE5160709F461C180F421
:10407000053B8CE5180709F44DC1063BECE51E072E
:1040800009F023C58FEF911181E08093A20425CD23
:10409000093BFCE51F0709F480C108F469C10A3B2C
:1040A0003CE5130709F011C58091ED04282F221F6C
:1040B0002227221F8091EE048770880F822B6FEFDA
:1040C0007FE191117BC178C1053F9CE5190709F497
:1040D00097C108F491C127E245EE66EE063FFCE584
:1040E0001F0709F061CEC7010F900F900F900F903E
:1040F0000F90DF91CF911F910F91FF90EF90DF9084
:10410000CF90BF90AF909F908F907F906F905F9077
:104110000C9443138091ED04282F221F2227221F85
:104120004091EE044770440F422B8F7721ED200F12
:1041300030E0B9016C557B4F7B01FB012081992355
:1041400009F12F3F09F0C9CC1091EC04912F9F7019
:1041500015951595159515951F52FCE09F9F100D0F
:104160001124100F212F2F774069E091E106F09183
:10417000E206082F63E070E081EE96E00995F70112
:104180001083ABCC2F3F61F02F774068E091E106C0
:10419000F091E206082F63E070E081EE96E0099569
:1041A0008FEFF701808399CC992309F496CC0757B8
:1041B000802F8F700091EC04007F082B0093EC049B
:1041C0008CCC992309F489CC8091EC04982F9F70B2
:1041D00009F483CC915F9F70807F892B8093EC04DE
:1041E0007CCC992309F479CC0958802F8295807F63
:1041F0000091EC040F70E1CF992309F46ECC80910B
:10420000EC04982F95959595959595959B3F0CF475
:1042100064CC915F9295907F8F70DFCF992309F4E2
:104220005CCC02598EE0089F802D11248F7700917D
:10423000ED040078082B0093ED044FCC992309F48A
:104240004CCC8091ED04982F9F7709F446CC807870
:104250009F3721F485678093ED043FCC9D30D8F3E0
:104260009D509F77892BF7CF8F67F5CF992309F45E
:1042700034CC0E598091ED0400FB87F98093ED0456
:10428000069507708091EE04887F082B0093EE045A
:1042900024CC992309F421CC2091ED04322F331F33
:1042A0003327331F9091EE04892F8770880F832B5B
:1042B000815F382F3F7080FB27F92093ED04832F17
:1042C0008695987F982B9093EE0407CC992309F458
:1042D00004CC9091ED04991F9927991F8091EE04C9
:1042E0008770880F40E06BE7892BA6CE40E09111E4
:1042F0004FE7881F8827881F2770220F61E49BCE15
:1043000040E091114FE7881F8827881F2770220FF0
:1043100062E491CE40E091114FE79091ED04991F36
:104320009927991F8091EE048770880F63E4DCCF92
:10433000992309F4D2CB9091EE04292F2695269546
:1043400026952F7081E0820F8F70880F880F880F5D
:104350009778892B8093EE04982F987709F0BDCB3E
:10436000220F220F220F8778822B8093EE04B5CB89
:10437000992309F4B2CB8091EE04982F987709F431
:10438000ACCB982F969596959695915F9F70990FC7
:10439000990F990F8778892BE8CF8091ED04282F0A
:1043A000221F2227221F8091EE048770880F822B04
:1043B00060E070EE911102C070E060E00F900F902D
:1043C0000F900F900F90DF91CF911F910F91FF9061
:1043D000EF90DF90CF90BF90AF909F908F907F90A5
:1043E0006F905F900C94300327E245EE65EE7BCE34
:1043F00026E241EE60EE77CE27E245EE64EE73CE24
:1044000026E241EE62EE6FCE28E241E0EFCF0136C8
:104410003DE5130709F4DFCC8091810406316CE59A
:10442000160709F0A1C38A7A91E009F490E090930D
:10443000340469E2811165E38AE294E00E9448074E
:104440000F900F900F900F900F90DF91CF911F91D1
:104450000F91FF90EF90DF90CF90BF90AF909F9023
:104460008F907F906F905F900C94001180918604E4
:10447000806106302CE5120709F491C08091860412
:10448000886007301C4508F48AC0809186048062E9
:1044900086C0809186048D7F0C304CE5140709F4AA
:1044A0007EC070F4809186048C600A306CE516073B
:1044B00009F475C008F488C0809186048E7F6FC0AF
:1044C0000E308CE5180709F485C0809186048B7F37
:1044D0000F301C4508F463C0809186048F7E5FC056
:1044E0000C3FECE51E0709F479C068F504312CE5B2
:1044F000120709F48BC080F402314CE5140709F46B
:1045000075C0809186048F7B03311C4508F447C039
:1045100080918604837F43C00A3F6CE5160709F447
:1045200045C008F049C005311C4509F07BCC80919D
:10453000860482FB992790F921E0922790FB82F96B
:1045400090FB83F92CC001159DE5190709F454C0AF
:1045500088F48091870483600E3FFCE51F0749F1D2
:10456000809187048D7F0F3F1C4518F1809187044F
:104570008C7F1FC002303DE5130709F456C008F4D4
:104580004EC001361D4509F04DCC90918604892F0F
:104590008F7E94FF806103C0809186048160809348
:1045A000860440CC809186048460F9CF8091870492
:1045B00081608093870436CC809187048260F9CF34
:1045C000809186048064EBCF0E94E119809186047B
:1045D0008068E5CF80918604877FE1CF8091870452
:1045E0008E7FE7CF809186048F7DD9CF0E94E1191D
:1045F000809186048F77D3CF80918704982F9095F0
:1046000091708E7F892B90FB81F9D3CF0E94E119A5
:1046100090918604892F97FB87F98058C0CF61E07D
:104620008EE090E00E947C31FDCB60E0F9CF85E325
:104630008DC28091D20791E089278093D207109292
:1046400024018091D10781608093D10746CA43E15C
:1046500058E06CE178E00F900F900F900F900F9062
:10466000DF91CF911F910F91FF90EF90DF90CF904E
:10467000BF90AF909F908F907F906F905F900C94C1
:104680009A074CE158E063E178E0E5CF41E058E07B
:104690006AE078E0E0CF4AE058E061E078E0DBCF24
:1046A00049EE57E065EF77E0D6CF45EF57E069EE8A
:1046B00077E0D1CF4DED57E061ED77E0CCCF45EB22
:1046C00057E063EC77E0C7CF43EC57E065EB77E06A
:1046D000C2CF81E00F900F900F900F900F90DF915D
:1046E000CF911F910F91FF90EF90DF90CF90BF90EF
:1046F000AF909F908F907F906F905F900C94040389
:104700008CE0E8CF0E94E1199FEFE4E3FCE09150D8
:10471000E040F040E1F700C000000E9410070F9059
:104720000F900F900F900F90DF91CF911F910F91ED
:10473000FF90EF90DF90CF90BF90AF909F908F90C1
:104740007F906F905F900C94CB1CC8010E94211148
:10475000D82E3BC2092F0F70907F11F00295007F79
:10476000812F2223C9F0002369F090E2910F983045
:1047700010F011110BC080918104082B009381046B
:104780000E940011812F0E94FC1117C080918004AB
:10479000082B00938004F4CF0E94C311002369F01A
:1047A0000095105E183010F0B11025C08091810482
:1047B0000823009381040E940011F8E0CF1AD10869
:1047C00024E0C216D10408F088C90F900F900F9012
:1047D0000F900F90DF91CF911F910F91FF90EF906D
:1047E000DF90CF90BF90AF909F908F907F906F9011
:1047F0005F900C948E0780918004082300938004BE
:10480000DACF892F8F70907F903211F08295807F60
:10481000F1E0BF120CC0222329F0363070F60E945E
:10482000B911CBCF353048F60E94AE11C6CF222346
:1048300041F03323A1F340FFA5CF4F70F70145832B
:10484000EECF332389F3193369F4FFEF27EE33E01A
:10485000F15020403040E1F700C00000812F0E945D
:10486000C311ABCF8FE39CE90197F1F7F5CF892F07
:1048700086958695837061F0813009F09ECF812FF7
:104880009370211102C090E080E00E94620795CFF2
:10489000812F9370211102C090E080E00E94780780
:1048A0008CCF892F8370A1F5211187CF812F82951D
:1048B00086958770880F880F412F4F70082E01C092
:1048C000440F0A94EAF7212F207114FF07C02FE04C
:1048D00030E001C0220F8A95EAF7209596959695CB
:1048E0009370923081F0822F842B933030F480913A
:1048F0008204913029F0242B82230E94AA115DCFDB
:10490000842B822BFACF242B809182048227F5CF2F
:104910008695222311F0892F8170882309F44DCFC9
:10492000812F829586958770880F880F412F4F7051
:10493000082E01C0440F0A94EAF7212F207114FFBA
:1049400007C02FE030E001C0220F8A95EAF72095DA
:10495000969596959370923081F0822F842B9330A8
:1049600030F48091E006913029F0242B82230E94BC
:10497000841123CF842B822BFACF242B8091E00645
:104980008227F5CF092F0F70222329F0802F0E9454
:104990009F11812F44CF812F0E94AE11802F0E9442
:1049A00093110BCF812FE1EF1E1789F1E11750F022
:1049B000F0EF1F17B9F02223B1F13111E3CE892FA7
:1049C0008F7129C042EF141749F153EF1513F3CF3C
:1049D00080E0222361F29F7181E001C0880F9A95E7
:1049E000EAF7C5CF222379F0353008F0E6CE292F3B
:1049F0002F7181E090E001C0880F2A95EAF790912D
:104A0000E0068927B4CF363008F0D7CEF0CF892F13
:104A10008F71222321F20E949F11CFCE892F8F7197
:104A20002223C9F3BCCF332379F0893341F46FEFEC
:104A300077EE83E0615070408040E1F70DCFEFE307
:104A4000FCE93197F1F708CF892F8F71A8CF00319A
:104A50003FE5130709F44DC901314FE5140709F487
:104A600065C9073A3DE5130709F411CA08F060C9A2
:104A7000053A5DE5150709F489C9063A6DE516079B
:104A800009F4F5C90E3AFCE51F0708F098CA0E397B
:104A90002CE5120708F0EACB00393CE5130708F0D3
:104AA0003ACA03384CE5140708F09BCB01385CE5A3
:104AB000150708F01ACA07376CE5160708F074CB1B
:104AC0000F327CE5170708F025CB033F4CE51407B0
:104AD00009F48ECC08F0F8CA083D6CE5160709F415
:104AE00083CC093D7CE5170709F48ECC073D8CE5A6
:104AF000180709F059C926E241EE61EEF4CA003107
:104B00005FE5150709F4F9C801316FE5160709F0EB
:104B1000A8CF82E0F3C885E0DE01119601900D92E6
:104B20008A95E1F7F701228189819A8121110C94FC
:104B3000821D0E942111182F0C948A1D06311C45DC
:104B4000B1F580913404811172CD89E2ECE2F4E098
:104B500022E334E09191891303C0DF0111971C9285
:104B60002E173F07B9F76CCC82720A3C2CE512076E
:104B700009F4A0CD08F05AC0053C4CE5140709F42F
:104B800085CDF0F5033C6CE5160709F460CD08F01F
:104B900078CD023C8CE5180709F44BCD01157CE576
:104BA000170709F4AFCD0E3D1C4509F4B8CDF70148
:104BB00000811181992309F4C8CDC8010E946414B1
:104BC000D82E682FC8010E944911B8018D2D0E946E
:104BD00057140E94980F182FB82EF7012281458193
:104BE000342F32953F70892F82958F70C82ED12C2B
:104BF0008C3008F0E2CDF601E95BFD4C0C94CF302F
:104C0000073CECE51E0709F44BCD08F444CD083C05
:104C10002CE5120709F449CD41ED57E06DED77E041
:104C2000093C3CE5130709F416CDB8CF0F3C4CE521
:104C3000140709F465CD98F40C3C6CE5160709F4EB
:104C400043CD08F43CCD0D3C8CE5180709F441CD6B
:104C500084E00E3CECE51E0709F43CCD9FCF063DF9
:104C6000FCE51F0738F481E1013D1C4508F432CD15
:104C70000C946D1D0D35100711F40C946D1D8ECF25
:104C80001F93CF93DF9380914C04807FA9F4809190
:104C90004904882389F080917E04D0914D0460916D
:104CA000470470914804A0914A04B0914B04C62F68
:104CB000C72316E0D81304C0DF91CF911F91089548
:104CC00090E0109711F0CF3F19F401968770F2CF62
:104CD000189F9001199F300D1124F901E25BFB4FE1
:104CE00041814713F2CF40814613EFCF42814111FA
:104CF000ECCF438154814A1B5B0B483C510528F79C
:104D000080914C048F70806180934C04F901ED5ABE
:104D1000FB4F80818F708061808387E494E00E94E4
:104D20004C1DDF91CF911F910C941711AF92BF9240
:104D3000CF92DF92EF92FF920F931F93CF93DF9367
:104D4000CDB7DEB761970FB6F894DEBF0FBECDBF0B
:104D50008C0185E0F801DE011D9601900D928A9587
:104D6000E1F7F801E28087E4A82E84E0B82E609194
:104D70004A0470914B046115710509F432C1909198
:104D8000470440914804892F84238F3F09F429C1A7
:104D900020813181C380D480F0904904F601E61B64
:104DA000F70BFF2009F4E8C080914C04582F507F86
:104DB000E83CF10508F0ABC0511177C0FE2C43135D
:104DC00021C092131FC0E1101DC08F7080618093BD
:104DD0004C04C5010E944C1D80914C04F801858350
:104DE0008F2D61960FB6F894DEBF0FBECDBFDF9159
:104DF000CF911F910F91FF90EF90DF90CF90BF90D8
:104E0000AF900895CD2829F0822F83238F3F09F09A
:104E100003C180E0F82FF170DF2E80FF3CC080914D
:104E20007E0440914D0456E0841315C02D873E87C3
:104E30008D859E850E949314292F22952F702230F4
:104E4000F0F0243018F59F70F1F0F8019581907F13
:104E5000D1F4D12C1EC090E0589FF001599FF00D65
:104E60001124E25BFB4F6181361306C0608126137B
:104E700003C06281E6120FC001968770D5CF9F7084
:104E800011F0882331F3805E883018F3C8010E9446
:104E90004C1DFD2CA5CFEE2009F4A2CF80914C042F
:104EA000816080934C04F12C9BCF431306C0921376
:104EB00004C0F801EE2009F479C0C8010E949F14D3
:104EC000882309F1EE20F9F080914C04803270F0D3
:104ED000209147043091480438872F831986DB8658
:104EE000CA868C87CE0107960E944C1D86E0F80189
:104EF000A7E4B4E001900D928A95E1F70E94402664
:104F0000FF24F3946DCFC8010E944C1DF9CF5111BD
:104F10000AC087E494E00E944C1D86E0F5011192DE
:104F20008A95E9F7C0CF43130FC092130DC0E1106B
:104F30000BC0F8018583C8010E944C1D86E0F50175
:104F400011928A95E9F74CCFC8010E949F148823DB
:104F5000D1F2EE20C1F280914C04803238F22091DF
:104F60004704309148043A8329831B82DD82CC8236
:104F70008E83CE010196B8CFE83CF105F8F6FE2C01
:104F8000EE2009F243131FC092131DC080914C0400
:104F900080FD10C0982F907F69F0F8018583903FC5
:104FA00031F0982F907F905F8F70892B8583C80197
:104FB0000E944C1D86E0F801A7E4B4E001900D9238
:104FC0008A95E1F70DCFC8010E949F1481118ECF01
:104FD00080914C04816080934C04C8010E944C1D58
:104FE000FFCEEE2009F48FCFC8010E949F14F82E47
:104FF000882309F488CF86E0F801A7E4B4E00190A3
:105000000D928A95E1F780914704909148040E949F
:1050100093140E944026E4CE81E08E25FBCE1F93A0
:10502000CF93DF93CDB7DEB767970FB6F894DEBFA7
:105030000FBECDBF4B8B5C8B6D8B7E8B8F8B6111CD
:10504000109280041A8A198A85E0FE017396DE01A7
:105050001D9601900D928A95E1F786E0FE013D963E
:10506000DE01179601900D928A95E1F7CE01079621
:105070000E949626882389F016E080917E04909104
:105080004D04891349C067960FB6F894DEBF0FBE72
:10509000CDBFDF91CF911F91089586E0FE01379635
:1050A000DE01119601900D928A95E1F78A859B8524
:1050B000892B11F38F81988589238F3FE9F2209105
:1050C0004D0430E0C90101968770992740917E0414
:1050D0004817190671F40E94E11910924D041092BC
:1050E0007E0486E0E7E4F4E0DF011D928A95E9F7AB
:1050F000C3CF96E0929FD001939FB00D1124A25B85
:10510000BB4FFE01319601900D929A95E1F7809385
:105110004D040E941711B0CF819FC0011124825B02
:105120009B4F0E949626882309F4ADCF80917E0480
:1051300090E001968770992780937E049ECF9F927E
:10514000AF92BF92CF92DF92EF92FF920F931F9395
:10515000CF93DF93CDB7DEB72B970FB6F894DEBFB2
:105160000FBECDBF8E010F5F1F4F86E0F801119279
:105170008A95E9F789EEC82E81E0D82EF12CE12C32
:10518000AA24A394B12CF60181916F018F3F09F4F9
:1051900043C0F894E82FE295EF70F0E021A18F7002
:1051A000A50102C0440F551F8A95E2F7CA01922F4C
:1051B000982B91A392A18095892382A3789400C013
:1051C000EFEEF1E0912C31E021912F3F09F46EC018
:1051D000A22FA295AF70B0E090968C9190E02F70C6
:1051E00002C0959587952A95E2F780FD5FC0832FD1
:1051F000982A330F51E0E73FF50731F7F601319771
:1052000080818F3F11F00E943E0F80EA8A95F1F76E
:10521000F801EE0DFF1D9082EFEFEE1AFE0AF6E0A8
:10522000EF16F10409F0AFCF46E050E0B80188E88E
:1052300094E00E943831FF24F394009709F4F12C94
:10524000892BB1F186E0F801A8E8B4E001900D9255
:105250008A95E1F781E0809385040E943C07909352
:1052600084048093830480918304909184040E9439
:105270002107059708F18091880480939A04809112
:10528000890480939B0480918A0480939C0480917C
:105290008B0480939D0480918C0480939E04809164
:1052A0008D0480939F041092850406C080E0A0CFF7
:1052B000809185048111D7CF80918E048823A9F035
:1052C000869531F187E08F8382E0888719860E9476
:1052D0003C078160782F9B878A8710928E044F81CC
:1052E000588569858B850E940F288F2D2B960FB6C8
:1052F000F894DEBF0FBECDBFDF91CF911F910F910C
:10530000FF90EF90DF90CF90BF90AF909F90089567
:1053100087E08F8381E0D9CF1F920F920FB60F9253
:1053200011242F933F934F935F936F937F938F93AA
:105330009F93AF93BF93CF93DF93EF93FF93D0915E
:10534000E900DF708091EC00C82FC17080FDC0E8DB
:105350001092E9008091F000877F8093F0007894AC
:105360000E94EC191092E9008091F000886080930F
:10537000F000CD2BCF70C093E900FF91EF91DF914A
:10538000CF91BF91AF919F918F917F916F915F91DD
:105390004F913F912F910F900FBE0F901F90189536
:1053A0001F920F920FB60F9211242F933F934F939A
:1053B0005F936F937F938F939F93AF93BF93EF937D
:1053C000FF938091E10082FF09C08091E20082FF9B
:1053D00005C08091E1008B7F8093E1008091DA002D
:1053E00080FF24C08091D80080FF20C08091DA0027
:1053F0008E7F8093DA008091D90080FF9DC080E18C
:1054000089BD82E189BD09B400FEFDCF81E08093B2
:105410009F0680919206811109C00E944C040E944F
:1054200041058091E20084608093E2008091E10078
:1054300080FF17C08091E20080FF13C08091E200DE
:105440008E7F8093E2008091E20080618093E20091
:105450008091D80080628093D80019BC85E0809349
:105460009F068091E10084FF2BC08091E20084FFC1
:1054700027C080E189BD82E189BD89B5982F9170EF
:1054800080FFFBCF8091D8008F7D8093D8008091E2
:10549000E1008F7E8093E1008091E2008F7E809317
:1054A000E2008091E20081608093E2008091A0069A
:1054B000882309F447C084E080939F0680919F066B
:1054C0008091E10083FF27C08091E20083FF23C029
:1054D0008091E100877F8093E10082E080939F06C6
:1054E0001092A0068091E1008E7F8093E100809170
:1054F000E2008E7F8093E2008091E20080618093E1
:10550000E20042E060E080E00E940F058091F00040
:1055100088608093F000FF91EF91BF91AF919F91D0
:105520008F917F916F915F914F913F912F910F904C
:105530000FBE0F901F90189519BC10929F061092E5
:10554000920674CF8091E30087FD93E090939F06CD
:10555000B5CF78941F921FB61F9211248F939F93FB
:10556000AF93BF9380918B0690918C06A0918D068E
:10557000B0918E060196A11DB11D80938B0690936C
:105580008C06A0938D06B0938E06BF91AF919F912C
:105590008F911F901FBE1F9018951F921FB61F92CC
:1055A00011248F939F93AF93BF9380918A068111AB
:1055B00013C080918B0690918C06A0918D06B091BE
:1055C0008E064196A11DB11D80938B0690938C068B
:1055D000A0938D06B0938E06BF91AF919F918F914E
:1055E0001F901FBE1F901895CDB7DEB7AB970FB6B3
:1055F000F894DEBF0FBECDBF0E941F0F10920607AA
:10560000109208071092070780EC8093CB0789E07F
:1056100097E09093CD078093CC071092CA07109221
:10562000C9071092E6061092E5061092E80610925D
:10563000E7061092EA061092E9061092EC06109224
:10564000EB061092EE061092ED061092F006109204
:10565000EF061092F2061092F1061092F4061092E4
:10566000F3061092F6061092F5061092F8061092C4
:10567000F7061092FA061092F9061092FC061092A4
:10568000FB06109200071092FF0685EB96E09093C0
:10569000E2068093E1068AE296E090930207809307
:1056A000010786E096E09093FE068093FD0685E074
:1056B00096E09093E4068093E30684B7877F84BFE7
:1056C0000FB6F894A895809160008861809360007F
:1056D000109260000FBE80E890E00FB6F8948093BF
:1056E0006100909361000FBE85B7806885BF85B764
:1056F000806885BF8CE39FE0909329048093280401
:105700000E944C040E9441058091E20084608093D5
:10571000E200789480919F068823A1F01091E9001F
:105720001F709091EC00892F817090FD80E8182BFC
:105730001092E9008091E80083FD0E94EC191F702F
:105740001093E90082E084BD93E095BD9AEF97BD88
:1057500080936E000E94C614811102C00E94221420
:1057600009EE11E09FEEE92E91E0F92ED8018D911E
:105770008D018F3F11F00E943E0FE016F106B1F748
:105780000FEE11E087EFE82E81E0F82EF80181910D
:105790008F018F3F11F00E943E0FE016F106B1F726
:1057A00086E0EAE9F4E0DF01282F1D922A95E9F767
:1057B000E8E8F4E0DF011D928A95E9F70E94C01C39
:1057C000811102C00E94CB1C82E090E00E945E31F9
:1057D000809393040E94DF1490938704809386043F
:1057E0000E949F28EFE3FCE93197F1F700C0000029
:1057F0000E949F2880919A0480FF08C06FEF7FEF7E
:1058000090E080E00E949A310E94100783E090E0CF
:105810000E945E310E94AA111092AD06ECECF6E0F7
:105820008FEF9FEF8193919326E0E03EF207D1F74F
:105830001092F004EFE0F5E083E295E02FEF3FEF08
:10584000219331938E179F07D9F70E94C01C8111B5
:1058500004C00E94CB1C0E94C61946E050E06CE1D7
:1058600070E082ED97E00E944E311092D107809156
:10587000D2078C7F11F40E94C61925982D9A24987E
:105880002C9A83B185FB882780F91C99D4C190E0BC
:10589000892B809391040E948D1286E091E0909371
:1058A00087068093860618E1C12ED12C8AE994E000
:1058B00046E0480F4BA703E0E02EF12C80919F06B5
:1058C000853089F400E4BB24B394B3E0AB2E10E13F
:1058D00080919F06853009F4B0C10E94E1190E94B1
:1058E0008E07109227050E949F2881110E94300781
:1058F000AAE9B4E0E4E9F4E010E000E0902F9D9024
:105900008191891509F4FEC18925B12CAA24A3949B
:10591000282F2A2109F4F1C1B9A29AA39A2081E083
:1059200009F480E08BA30E943C078160782F9DA33F
:105930008CA349A15AA16BA18DA10E940F28F80147
:10594000EC56FB4F8081A826A082992089F0F801AF
:10595000A3E0EE0FFF1FAA95E1F7E456FD4FEB0D14
:10596000F11D8081912C8F3F19F0582E992493942A
:10597000092D10E08091F004800F912F911D0B975D
:105980006CF18AE090E05C01A01AB10AB8016F5096
:105990007B4FA50181EF94E00E944531B80165502D
:1059A0007B4FA5018BEF94E00E944531A501440F88
:1059B000551FB801660F771F615F7A4F8FE095E042
:1059C0000E944531B8016B5F7A4FA50185E095E0F3
:1059D0000E9445318AE089198093F0048091F00497
:1059E00090E0A52DB0E09D01220F331F24533D4FC1
:1059F000AA0FBB1FBD0163537D4F41E0480F9915AE
:105A000008F466C18093F0040E948B18E091910421
:105A1000EE0FEE0FE093910483B185FB662460F8EE
:105A20001C9987C180E08629E82BE0939104EF70F0
:105A3000F0E0E950FE4F808190919004890F8093AF
:105A4000900420E08430CCF080918F048F5F8093AD
:105A50008F0487E0898311E01A831B830E943C072F
:105A60008160782F9D838C8310938E0449815A81A5
:105A70006B818D810E940F2821E0809190048D3FE1
:105A8000D4F480918F04815080938F0487E08983C0
:105A900012E01A8381E08B830E943C078160782F9B
:105AA0009D838C8310938E0449815A816B818D81F3
:105AB0000E940F2821E080919004082E000C990B81
:105AC00064E070E00E94BB308093900421110E943A
:105AD0003007E0910107F0910207309719F081EE4D
