:100000000C9402030C9449030C9449030C94490387
:100010000C9449030C9449030C9449030C94490330
:100020000C9449030C9449030C94D72B0C94932BF8
:100030000C94D42C0C9449030C9449030C9449035C
:100040000C9449030C9449030C9449030C94490300
:100050000C9449030C94B02C0C9449030C94490360
:100060000C9449030C9449030C9449030C944903E0
:100070000C9449030C9449030C9449030C944903D0
:100080000C9449030C9449030C9449030C944903C0
:100090000C9449030C9449030C9449030C944903B0
:1000A0000C9449030C9449030C944903A847BA5C87
:1000B000A65DA75DBB5C475C485CB25C495C4A5C82
:1000C0004B5C4C5C4D5C4E5C4F5CAA00505C515CE0
:1000D000525C535C545C555C565CA900575C585CA0
:1000E000595C5A5C5B5C5C5C5D5C00005E5C5F5C08
:1000F000605C615C625C635C645C0000655C665CC7
:10010000675C685C695C6A5C6B5C00000100010014
:10011000A65DA75D0100C95DCA5D0100CB5DCC5D38
:10012000CD5DCE5DCF5DD05DD15D0100D25DD35D93
:10013000D45D535C545C555C565C0100575C585C64
:10014000595C5A5C5B5C5C5C5D5C00005E5C5F5CA7
:10015000605C615C625C635C645C0000655C665C66
:10016000675C685C695C6A5C6B5C000001000100B4
:10017000A65DA75D0100C95DCA5D0100CB5DCC5DD8
:10018000CD5DCE5DCF5DD05DD15D0100D25DD35D33
:10019000D45DD55DD65DD75DD85D0100D95DDA5DF2
:1001A000595C5A5C5B5C5C5C5D5C00005E5C5F5C47
:1001B000605C615C625C635C645C0000655C665C06
:1001C000675C685C695C6A5C6B5C00000100010054
:1001D000A65DA75D0100C95DCA5D0100CB5DCC5D78
:1001E000CD5DCE5DCF5DD05DD15D0100D25DD35DD3
:1001F000D45DD55DD65DD75DD85D0100D95DDA5D92
:10020000DB5DDC5DDD5DDE5DDF5D0000E05D5F5CD4
:10021000605C615C625C635C645C0000655C665CA5
:10022000675C685C695C6A5C6B5C000001000100F3
:10023000905C915C010001000100010001000100DF
:1002400001000100010001000100010001000100A6
:100250000100010001000100010001000100010096
:100260000100010001000100010000000100010087
:100270000100010001000100010000000100010077
:10028000010001000100010001000000A847BA5C64
:10029000A65DA75DBB5C6B5C6A5CB25C695C685C1C
:1002A000675C665C655C645C635CAA00625C615C64
:1002B000605C5F5C5E5C5D5C5C5CA9005B5C5A5C86
:1002C000595C585C575C565C555C0000545C535C50
:1002D000525C515C505C4F5C4E5C00004D5C4C5C71
:1002E0004B5C4A5C495C485C475C000001000100D3
:1002F000915C905C0100010001000100010001001F
:1003000001000100010001000100010001000100E5
:1003100001000100010001000100010001000100D5
:1003200001000100010001000100000001000100C6
:1003300001000100010001000100000001000100B6
:1003400001000100010001000100000001009D5CAE
:10035000815C825C9E5CAC5DA95D00000000AA5DD2
:100360000000AB5D000000000000C55C0000000064
:10037000C95CAD5DC85C0000C75CC45C0000C65CC5
:10038000AE5DCD5C0000CC5C00000000CB5CAF5DDE
:10039000CA5C0000C55C0000C45C00000000DF5CBB
:1003A0000000A85D0000C35CB05D00000001010119
:1003B0000101010101010202020202020202020322
:1003C00003030303030303040404040404040505F2
:1003D00005050506060606060707070707080808B5
:1003E00008090909090A0A0A0B0B0B0C0C0C0D0D64
:1003F0000D0E0E0E0F0F0F101011111112121313FC
:100400001414151516161717181819191A1A1B1B74
:100410001C1D1D1E1E1F20202122222324242526D0
:1004200026272829292A2B2C2D2D2E2F3031323208
:10043000333435363738393A3B3C3D3E3F40414214
:10044000434445464748494A4C4D4E4F50515354FA
:10045000555658595A5B5D5E5F61626465666869AE
:100460006B6C6D6F7072737577787A7B7D7E80822E
:10047000838587888A8C8E8F91939596989A9C9E77
:10048000A0A2A3A5A7A9ABADAFB1B3B5B7BABCBE87
:10049000C0C2C4C6C9CBCDCFD1D4D6D8DBDDDFE254
:1004A000E4E7E9EBEEF0F3F5F8FAFDFF050109806A
:1004B000A101850319012AB700150126B70095018E
:1004C00075108100C0050C0901A101850419012ADC
:1004D000A002150126A002950175108100C005013A
:1004E0000906A101050719E029E71500250195086E
:1004F000750181029501750881010507190029FF21
:10050000150026FF009506750881000508190129C8
:1005100005950575019102950175039101C00902C8
:100520009F00040100A0FA0904000001030101007A
:100530000921110100012240000705810308000A7A
:10054000090401000103000000092111010001223A
:1005500032000705820320000A080B020201010095
:100560000009040200000101000009240100010942
:100570000001030904030002010300000724010035
:1005800001410006240201010006240202020009C2
:1005900024030103010201000924030204010101F3
:1005A00000090504024000050000052501010109BC
:1005B000058302400005000005250101031201002A
:1005C0000200000008EDFEB4F40100010200011E6B
:1005D000036300680072006F006D00610074006FBB
:1005E000006E0065006D0069006E00690000000E7D
:1005F00003330061007200610068007400000004B1
:100600000309040011241FBECFEFDAE0DEBFCDBF27
:1006100004B603FE27C08091270890912808A09176
:100620002908B0912A088730904BA740B04BD1F4ED
:1006300010922708109228081092290810922A0870
:1006400014BE84B7877F84BF0FB6F894A8958091B5
:100650006000886180936000109260000FBEE0E04F
:10066000F8E3099528E0AAE1B4E001C01D92A732A1
:10067000B207E1F714E0A0E0B1E0E8E0F6E602C07E
:1006800005900D92AA31B107D9F70E94FB2C0C946A
:10069000B4320C94000090912108937061F08111A4
:1006A0000BC094609093210810922501809120083E
:1006B00081608093200808958A3210F0946AF2CF06
:1006C000880F880F982BEECF90912108937071F0CE
:1006D0008093220860932308433308F042E3409359
:1006E00024088091200881608093200808950F934A
:1006F0001F939B01305E8901000F012F001F110B1A
:1007000011952F77482F406EE0913007F091310717
:1007100063E070E080E397E009951F910F910895E1
:100720000F93262F042F0F77482F406BE09130074F
:10073000F091310763E070E080E397E009950F9155
:100740000895CF92DF92EF92FF920F931F93CF9372
:10075000DF9300D00F92CDB7DEB77C01162FD42ED9
:10076000C22E809155078430B9F5E0914A07F09187
:100770004B07309709F440C0C701019763E070E070
:100780000E945F31CB01880F991F860F971F198335
:100790004A83CB824E2D481B9E012F5F3F4FBC01E9
:1007A00080E397E00995E0914E07F0914F0730976D
:1007B00039F00C2D2D2D412FB70180E397E00995DD
:1007C0000F900F900F90DF91CF911F910F91FF909D
:1007D000EF90DF90CF90089582E0E816F10409F4DD
:1007E0005AC083E0E816F104A9F081E0E816F104AC
:1007F00009F484C0F12CE12CE0914C07F0914D07F5
:10080000309789F20C2D2D2D412FB70180E397E011
:100810000995C9CF862F807F803A11F188F48038FE
:10082000D1F0E0913407F0913507803929F73097FE
:1008300019F3123F49F12C2D4D2D612F6F7027C0F8
:10084000803E99F0803FB1F0E0913207F09133079C
:10085000803B91F6ECCFE0913607F0913707E7CF78
:10086000E0913807F0913907E2CFE0913A07F09133
:100870003B07DDCF623F09F0BFCFE0913C07F0912D
:100880003D07309709F4B8CF2C2D4D2D62EF80E352
:1008900097E0099588CF862F807F803DB9F0803F13
:1008A000D1F0E0913E07F0913F07803C09F0A4CFE2
:1008B000309709F4A1CF812F8D7F4D2D612F6F705F
:1008C000813FC9F080E397E009956DCFE091400743
:1008D000F0914107EDCFE0914207F0914307633F6C
:1008E00039F0613F09F088CFE0914407F091450766
:1008F000309709F481CF4D2D612FE4CFE091460769
:10090000F0914707683F38F4663F09F075CFE091F2
:100910004807F0914907309709F46ECF612F80E3C3
:1009200097E0099540CFE8EDF0E080818E7F8083ED
:100930001092E2001092DA001092E100A0EEB0E016
:100940008C9181608C9380818F77808319BCA7ED17
:10095000B0E08C918E7F8C9380818F7E808310920B
:10096000E20608952091E4003091E50095E6A901A2
:100970002091EC00822F817020FF06C08091E8005A
:1009800080FF06C080E008952091E80022FD1AC093
:100990008091EF06882389F0853089F08091EB0003
:1009A00085FD0FC02091E4003091E5004217530708
:1009B000F9F29150E1F684E0089582E0089583E031
:1009C000089581E00895EF92FF920F931F93CF93C4
:1009D0007C018B010E94B204C82F811117C0809145
:1009E000E80085FD0BC08091E8008E778093E800D9
:1009F0000E94B204882399F3C82F08C0F70181919F
:100A00007F018093F1000150110949F78C2FCF919C
:100A10001F910F91FF90EF9008958091F10687FF4D
:100A200013C08091E80082FF06C08091E8008B77B8
:100A30008093E80004C08091EF068111F2CF089501
:100A40008091EF068823D9F38091E80080FFF8CFEA
:100A50008091E8008E77ECCF982F9093E900242FB7
:100A6000762F50E0891731F07091EC002091ED0065
:100A70005091F00021FD07C09F5F973071F7809380
:100A8000E90081E008953091EB003E7F3093EB0068
:100A90003091ED003D7F3093ED003091EB003160FF
:100AA0003093EB007093EC002093ED005093F00036
:100AB0002091EE0027FDE0CF80E00895CF92DF92F5
:100AC000EF92FF920F931F93CF93DF93C8EDD0E087
:100AD00088818F7E8883E7EDF0E08081816080836C
:100AE00084E082BF81E08093E20688818E7F8883E4
:100AF00002EE10E0F80110821092DA0081EEC82EAA
:100B0000D12CF601108288818F7788838881806854
:100B1000888388818F7D888319BC1092EF0610929C
:100B2000F0061092EE061092ED0690EEE92EF12CF2
:100B3000F70180818B7F808388818160888342E098
:100B400060E080E00E942C05F60180818E7F80832A
:100B5000F801808181608083808188608083F701D3
:100B600080818E7F8083888180618883DF91CF91AF
:100B70001F910F91FF90EF90DF90CF900895FC01AF
:100B80008091F7069091F80686179707A0F06115F7
:100B9000710529F49091E8009E779093E80090E029
:100BA0006115710551F4911108C08091E80082FF30
:100BB00034C080E00895BC01F2CF8091EF06882315
:100BC000C1F18530C1F18091E80083FD30C0809192
:100BD000E80082FDEACF8091E80080FFE1CF8091BC
:100BE000F3002091F200382F6115710519F02830BB
:100BF000310558F091E02830310509F090E020915E
:100C0000E8002E772093E800CBCF81918093F1000C
:100C1000615071092F5F3F4FE7CF8091EF06882326
:100C200041F0853041F08091E80083FFBECF81E044
:100C3000089582E0089583E00895089508958091CD
:100C4000E406089508950895982F907F903BE9F069
:100C500040F49039D1F0903AC1F09038B1F080E092
:100C60000895903D19F020F4903CC9F782E0089572
:100C7000903E59F0903F99F7815F8F3080F7E82FD1
:100C8000F0E0E158FD4F8081089583E00895CF9210
:100C9000DF92EF92FF920F931F93CF93DF9300D0D9
:100CA00000D000D00F92CDB7DEB78C0108511F4F96
:100CB0008091EF06843009F087C080911B018F700E
:100CC0008093E9008091E80082FF7EC08091E80077
:100CD00085FF7AC00E94B204811113C084E0E82E1F
:100CE000F12CCE0101966C018091E80085FD61C078
:100CF0008091E8008B778093E8000E94B2048823FB
:100D000099F38091E80085FD05C08091E8008B771C
:100D10008093E800FA808F2D0E942406282FFD8200
:100D20008B818E838C818F8321110BC089818430CC
:100D300041F1873031F1863031F121E0853009F021
:100D4000B7CF30E0E5E0F0E0EC0FFD1FE30FF11D61
:100D5000F0804FB7F894D8011196EC911197F0E01C
:100D6000CF01019612966C9170E00E947331D80108
:100D70005C915817190649F44FBF3F5F321710F3C3
:100D800097CF23E0DECF22E0DCCF13968D919C91AC
:100D90001497E80FF91FF08211968C91119790E04B
:100DA000019612966C9170E00E947331F801818374
:100DB000E3CF8091F100D6018D936D01B1E0EB1A84
:100DC000F10809F091CF9DCF27960FB6F894DEBFBA
:100DD0000FBECDBFDF91CF911F910F91FF90EF908C
:100DE000DF90CF900895DF92EF92FF920F931F93C1
:100DF000CF93DF9300D000D0CDB7DEB77B01142FA7
:100E0000D22E4A832B830C83842F0E9424068111C7
:100E100041C082E0E816F104C1F183E0E816F10474
:100E200039F0EA94EF2829F5173F29F485E004C04A
:100E300087E0073F09F084E089838091EF068430E2
:100E4000C1F4809116018F708093E90050E040E07A
:100E500064E070E0CE0101960E94E304811109C0B4
:100E60008091E80085FD05C08091E8008E77809331
:100E7000E8000F900F900F900F90DF91CF911F918E
:100E80000F91FF90EF90DF90089587EFD812D3CFA6
:100E900086E0D2CF12951F701983CFCF9C014FB738
:100EA000F8948091DB069091DC06A091DD06B0916C
:100EB000DE064FBF821B930B08952FB7F8948091E5
:100EC000DB069091DC06A091DD06B091DE062FBF17
:100ED00008959C01FC0132969FEF80E041914617F6
:100EE00051F09F3F19F4411101C0982F8F5F863058
:100EF000A9F79F3F09F40895290F311D97FD3A95F1
:100F0000F901628308952091D8063091D9062817F7
:100F1000390771F09093D9068093D806E091D606F0
:100F2000F091D706309721F00084F185E02D0994E7
:100F300008952091D4063091D5062817390771F00D
:100F40009093D5068093D406E091D606F091D7060B
:100F5000309721F00680F781E02D09940895E09103
:100F6000D606F091D706309721F00190F081E02D60
:100F7000099480E00895FA01811101C0FB010994F0
:100F8000E8E7F5E0818360834283339696E0E43DB1
:100F9000F907C1F70895FC01EE0FFF1FE80FF91FD5
:100FA000E858FA4F6183408322830895E1E2F8E034
:100FB000248130E1231B08F420E024838091200861
:100FC0008160809320080895E1E2F8E0248130E117
:100FD000230F08F42FEF24838091200881608093F1
:100FE00020080895E1E2F8E0438120E1421B08F483
:100FF00040E08181628190E00C946403E1E2F8E0DA
:10100000438120E1420F08F44FEF8181628190E03B
:101010000C946403E1E2F8E0628120E1621B08F4D1
:1010200060E08181438190E00C946403E1E2F8E0A8
:10103000628120E1620F08F46FEF8181438190E0CB
:101040000C946403E1E2F8E081814381628188507D
:10105000990B0C946403E1E2F8E0818190E0438114
:10106000628108960C946403809121088695869588
:10107000815009F489E20C944B03809121088695F4
:1010800086958F5F8A3208F081E00C944B03EF92D3
:10109000FF920F931F930E0D1F2D111D9A0157FFE5
:1010A00003C031952195310994E0220F331F9A95A1
:1010B000E1F72F3F310519F014F02FEF30E0200F4A
:1010C000311F2F3F310519F010F02FEF30E0209540
:1010D000382F320F08F43FEF832F1F910F91FF90AD
:1010E000EF900895EF92FF920F939701201B310923
:1010F0002F3F310519F010F02FEF30E02095382FF9
:10110000320F08F43FEF832F0F91FF90EF90089577
:10111000EF92FF920F939701201B31092F3F31056A
:1011200019F010F02FEF30E0322F3095482F430F99
:1011300008F44FEF842F620F0F91FF90EF90089506
:10114000EF92FF920F93972F093438F4B701601B89
:1011500071096F3F710519F010F06FEF70E0485F93
:101160005F4F4131510540F0A901485F5F4F413168
:10117000510510F06FEF70E06095482F460F08F4AE
:101180004FEF842F37FF02C02D5F3F4F35952795D6
:101190003595279560912208620F792F0F91FF9066
:1011A000EF900895EF92FF920F931F930E0D1F2D56
:1011B000111DF90137FF03C0F195E195F10924E014
:1011C000EE0FFF1F2A95E1F7EF3FF10519F014F03C
:1011D000EFEFF0E09A0157FF03C0319521953109F7
:1011E00094E0220F331F9A95E1F72E173F070CF476
:1011F000F901E00FF11FEF3FF10519F010F0EFEFEB
:10120000F0E0E095282F3E2F230F08F42FEF822FD8
:101210001F910F91FF90EF900895EF92FF920F931F
:10122000970195E0099F200D311D11242F3F3105B5
:1012300019F010F02FEF30E02095382F320F08F41E
:101240003FEF832F0F91FF90EF90089522E8241B2A
:1012500008F420E0620F08954095282F429F412D09
:101260001124842F0895E42FF0E0EE0FFF1FE254C5
:10127000FD4F9081921B97FD9195292F38E1239F77
:10128000212D1124620F08950F931F9310E0F80190
:10129000EE0FFF1FE254FD4F90819C5797FD9195F3
:1012A000000F111FF801E257FD4F01A90052110B69
:1012B0002003F001219FF00D112408E310E0091B29
:1012C000110997FD139540039001419F300D1124A2
:1012D000E20FF31F9F01220F331F2E0F3F1F37FF17
:1012E00002C021583F4F220F232F221F330B620FC2
:1012F0001F910F9108950F931F93522F10E0F80143
:10130000EE0FFF1FE257FD4FA1A9A052BB0B9D019D
:101310005203F001539FF00D1124000F111FD8014B
:10132000A254BD4F0C910C57110B40039001419FEB
:10133000300D11242E0F3F1F37FF02C0215C3F4F9D
:1013400096E0359527959A95E1F7620F1F910F91D9
:1013500008950F931F93522F10E0F801EE0FFF1F17
:10136000E257FD4FA1A9A052BB0B9D015203F00112
:10137000539FF00D1124000F111FD801A254BD4F2F
:101380000C910C57110B40039001419F300D11241B
:101390002E0F3F1F37FF02C021583F4F220F232F30
:1013A000221F330B620F1F910F910895EF920F933D
:1013B000972F23E0029FB0011124759567956E0D5C
:1013C000792F0F91EF900895322F50E0FA01EE0F30
:1013D000FF1FE257FD4F91A9905297FD9195440F41
:1013E000551FFA01E254FD4F2081231B330B290FB7
:1013F000311D97FD3A95620F0895E42FF0E0EE0F4E
:10140000FF1FE257FD4F61A9621B0895E42FF0E032
:10141000EE0FFF1FE254FD4F6081621B0895622FA3
:101420000895E42FF0E0EE0FFF1FE254FD4F4081DE
:1014300034EE439F412D1124E82FF0E050E0445E4C
:101440005F4FDA01A21BB1099D01B7FF03C03195BF
:101450002195310993E0220F331F9A95E1F7AF01EF
:10146000421B530B9A0157FD20E0582F259F212D39
:101470001124822F0895E42FF0E0EE0FFF1FE254B5
:10148000FD4F408134EE439F412D1124E72FF0E0C2
:1014900050E0445E5F4FDA01A21BB1099D01B7FF26
:1014A00003C031952195310993E0220F331F9A959E
:1014B000E1F7AF01421B530B9A0157FD20E0279F34
:1014C000212D1124722F08950C94C0070C94CB0782
:1014D000FC019B01009729F480E077FF2BC080E896
:1014E0000895AC0197FF04C044275527481B590BAA
:1014F000B901640F751F37FD10C0241B350BC901DE
:10150000A5E0880F991FAA95E1F70E94733180E248
:10151000861BF7FF0FC081950895CB0165E0880F0A
:10152000991F6A95E1F7BA01621B730B0E94733130
:1015300080E6EECF0895EF920F93CF93DF93D72FEE
:10154000C82FC9010E19BA010E94680A602F681BD2
:101550007D2F8C2FDF91CF910F91EF9008950F93F6
:10156000CF93DF93D72FC82FC901BA010E94680A11
:10157000682F600F7D2F8C2FDF91CF910F910895F1
:10158000EF920F931F93CF93DF93D62FC72F182F70
:10159000C9010E19010FBA010E94680A081B202F09
:1015A000219F212D1124822F6D2F7C2FDF91CF9130
:1015B0001F910F91EF900895EF920F931F93CF9388
:1015C000DF93D62F172FC82FC9010E19070FBA01A5
:1015D0000E94680A702F781B719F712D11246D2F46
:1015E0008C2FDF91CF911F910F91EF9008950F9362
:1015F0001F93CF93DF93D62FC72F182FC901212F09
:10160000201B022FBA010E94680A982F990F990F88
:10161000891B800F282F219F212D1124822F6D2FB0
:101620007C2FDF91CF911F910F9108950F931F93FE
:10163000CF93DF93D62F172FC82FC901272F201B39
:10164000022FBA010E94680A982F990F990F782FDC
:10165000791B700F719F712D11246D2F8C2FDF91CD
:10166000CF911F910F910895E82F86FDE0952E2FC1
:101670002F7086FD2F5FE695E695E695E670F0E023
:10168000E85FFD4F9181929F902D212D112492951D
:101690009F702295207F922B2081920F87FD91953C
:1016A00080E8890F08950F931F93CF93DF938B01E9
:1016B000D82FC42F822F0E94340BEC2FF0E0EE0FB6
:1016C000FF1FE254FD4F90819058890F87FD81954F
:1016D000880F682F2CE0629F612D1124600F712FFD
:1016E0008D2FDF91CF911F910F910895AC01823022
:1016F000910508F408959FEF413E8EE1580740F4AC
:101700009A0195E0369527959A95E1F798E0920F22
:1017100061E0E62FE90FFF27FF1F9F013595279511
:10172000822F229FF001239FF00DF00D11244E1700
:101730005F0738F49FEF920F961758F78FEF860FD9
:1017400008952F3FE9F361E0620FF6CF0F93CF9337
:10175000DF93D72FC82F47FD41958EE390E0841B80
:10176000910947FD9395889FB001899F700D700D79
:101770001124229FC001239F900D900D1124860FEC
:10178000971F0E94760B982F990F890F682F600F73
:101790007D2F8C2FDF91CF910F91089530E020E0C5
:1017A000869F212D969F200D311D1124C90108957A
:1017B000AF92BF92CF92DF92FF920F931F93CF937E
:1017C000DF93362F472FE82FF0E0E455FC4F7111DF
:1017D0000FC0E4918E2F2E2F6E2F722FDF91CF919D
:1017E0001F910F91FF90DF90CF90BF90AF90089521
:1017F000C72FD0E02491F22E022F10E056E0659F13
:10180000C0011124EFEFF0E0BF010E945F31832F90
:1018100090E0880F991F35E5369FD001379FB00DB6
:1018200011248A1B9B0B982F990F980F6F01CC1ACC
:10183000DD0AC09ED001C19EB00DD09EB00D112416
:101840008B2F499FA0011124452F55276F01C41AE2
:10185000D50AC09EA001C19E500DD09E500D1124EE
:101860005F01A91AB108AC9E6001AD9ED00CBC9E70
:10187000D00C1124CD2CDD24EC19FD09E09FE001F2
:10188000E19FD00DF09FD00D1124ED2F6230710536
:10189000A1F050F46115710509F49ECF6130710516
:1018A00081F0EB2F852F98CF6430710569F080F0BF
:1018B0006630710509F490CFF4CFE22F2B2F8D2FD6
:1018C0008BCFE22F252F88CFEB2F822F2D2F84CF88
:1018D0002B2F8F2DE52F80CF2F923F925F926F920B
:1018E0007F928F929F92AF92BF92CF92DF92EF92B0
:1018F000FF920F931F93CF93DF93CDB7DEB72A9755
:101900000FB6F894DEBF0FBECDBF8B837E836D8391
:101910002091220188E1289F802D11248F83885EE9
:1019200089838A83853710F034E73A838091FD06F6
:101930008C83FF81EF2FF0E0FA87E987CF01880FD2
:10194000991F9C0122573D4F69013B81832F90E0F5
:10195000FC013196F887EF838A8199859817E8F022
:1019600081E0E981E43708F080E02A960FB6F89428
:10197000DEBF0FBECDBFDF91CF911F910F91FF90C2
:10198000EF90DF90CF90BF90AF909F908F907F901F
:101990006F905F903F902F900895E985FA85EA5502
:1019A000FC4F8081909123018923F1F0209022083F
:1019B000309023082F8138852350394F39015B80BF
:1019C00010E0FC815F16D0F020912408129F112DA9
:1019D0001124B101812F0E94D80B462F282F672F89
:1019E00089859A850E94660A29853A852F5F3F4F2F
:1019F0003A87298732E0C30ED11CAECFF301819123
:101A00003F01F601A0A8A81ABB0881A8F3018185AF
:101A1000881A9908AA9C9001AB9C300D300D1124B6
:101A2000889CC001899C900D900D1124820F931FFA
:101A30000E94760B082F6091250821E0620F08F4C0
:101A40006FEFF301EE0FFF1FED5FF640838D948D76
:101A50000E94CE0B7C019401A501B101812FED8183
:101A6000FE8109951B015394182FABCFCF92DF92C3
:101A7000EF92FF920F931F93CF93DF938C01C0914E
:101A8000220188E1C89FC02D112428E1D22EDC0E4E
:101A9000CD2C24E72D1510F494E7C92E20912508AC
:101AA00031E0230F08F42FEF30E050E040E06FEF1B
:101AB0007FEF80E090E00E9451327901D0E02C2F3E
:101AC000CC1570F081E0F3E7FD1508F480E0DF91BC
:101AD000CF911F910F91FF90EF90DF90CF900895DD
:101AE000FE01EA55FC4F808190912301892311F179
:101AF0004091FD064150042E000C550B47FF1CC0C1
:101B0000C7016091250821E0620F08F46FEF0E9481
:101B1000CE0BAC01609122087091230880912408BB
:101B2000F80109950E94D80B462F282F672FCE0168
:101B30000E94660A2196C3CFFA01E350F94F8589C6
:101B400082130AC0FA01EE0FFF1FE350F94F878D91
:101B500090A18E159F05A8F241505109CFCFDF9279
:101B6000EF92FF920F931F93CF93DF937C01C0916D
:101B7000220188E1C89FC02D112418E11C0F012FFC
:101B8000153708F004E7609125086695669521E011
:101B9000620F08F46FEF8091F9069091FA060E94A7
:101BA000CE0BD82ED0E0C01760F081E0143708F0DB
:101BB00080E0DF91CF911F910F91FF90EF90DF9028
:101BC0000895FE01EA55FC4F8081909123018923FD
:101BD00091F06091220870912308809124082D2DA6
:101BE0004C2FF70109950E94D80B462F282F672FFD
:101BF000CE010E94660A2196D6CF9F92AF92BF92E5
:101C0000CF92DF92EF92FF920F931F93CF93DF93C8
:101C10006C01C091220188E1C89FC02D112418E1F8
:101C20001C0FB12E153710F034E7B32E6091250844
:101C3000669566958091F9069091FA060E94CE0B02
:101C4000F82E80E48F0D0E94340B90E8A92EA80E88
:101C50008F2D0E94340B20E8922E980ED0E0CB15E9
:101C600080F081E0143708F080E0DF91CF911F9180
:101C70000F91FF90EF90DF90CF90BF90AF909F902B
:101C80000895FE01EA55FC4F80819091230189233C
:101C9000A1F0609122087091230880912408EF2C14
:101CA0000C2F292D4A2DF60109950E94D80B462F9D
:101CB000282F672FCE010E94660A2196D0CF5F920F
:101CC0006F927F928F929F92AF92BF92CF92DF924C
:101CD000EF92FF920F931F93CF93DF933C01C0913C
:101CE000220188E1C89FC02D112418E11C0FF12E9C
:101CF000153710F034E7F32E609125086695809132
:101D0000F9069091FA060E94CE0B582ED0E0CE0133
:101D1000880F991F9C0122573D4F6901CF15A0F0F4
:101D200081E0143708F080E0DF91CF911F910F918F
:101D3000FF90EF90DF90CF90BF90AF909F908F90EB
:101D40007F906F905F900895FE01EA55FC4F80816F
:101D500090912301892379F1F60180A9282F2C572E
:101D6000330B590181A9E82FE052FF0B4F01AA9CC8
:101D70009001AB9C300D300D1124EE9FC001EF9F00
:101D8000900D900D1124820F931F0E94760B082F47
:101D9000609122087091230880912408E52C940119
:101DA000A501F30109950E94D80B462F282F672F14
:101DB000CE010E94660AF2E0CF0ED11C2196AECF72
:101DC000AF92BF92CF92DF92EF92FF920F931F9349
:101DD000CF93DF936C01C091220188E1C89FC02D91
:101DE000112418E11C0FB12E153710F034E7B32E73
:101DF0006091250866958091F9069091FA060E94F7
:101E0000CE0BA82ED0E0CE01880F991F9C0122573F
:101E10003D4F7901CB1578F081E0143708F080E070
:101E2000DF91CF911F910F91FF90EF90DF90CF90B6
:101E3000BF90AF900895FE01EA55FC4F80819091CC
:101E400023018923C1F0F70121A92052330B40A9B6
:101E50004C57550B609122087091230880912408FB
:101E60000A2DF60109950E94D80B462F282F672FBF
:101E7000CE010E94660AF2E0EF0EF11C2196CACF55
:101E800084E0809338058FE78093390580913A0587
:101E90008078806480933A05E0EFF4E08FEF8193DF
:101EA00095E0E833F907D9F71092EF041092EE04A9
:101EB0001092ED041092EC04089580E00895F894D7
:101EC000E82FE295EF70F0E031A1282F2F7081E02C
:101ED00090E001C0880F2A95EAF7982F90959323F8
:101EE00091A392A1892B82A378940895909189045B
:101EF00092FF06C0282F28712830F9F4877F84606C
:101F000093FF06C0282F28712831F1F4877E846161
:101F100020918A0420FF06C0382F38713830D9F458
:101F2000877F816021FF06C0282F28712831D1F4D6
:101F3000877E816194FD877E0895282F2471243047
:101F4000F9F68B7F8860DCCF282F2471243101F7CC
:101F50008B7E8861DDCF382F3171313019F78E7F5C
:101F60008860E0CF282F2171213121F78E7E886192
:101F7000E1CFCF93DF93EC018238910581F1B0F589
:101F80008133910509F491C020F58932910509F456
:101F900085C08A9709F490C0C11521E5D20708F0E1
:101FA000AAC0C11530E5D30708F0F2C0CF3BD10578
:101FB00008F089C0C83AD10508F0DFC0C53AD1059C
:101FC00008F0D3C0C430D105F8F4C130D105E1F038
:101FD00040C08533910509F45AC0C997E9F680914C
:101FE0008904837089F0C0EED0E00EC0833E910575
:101FF00099F170F4803E910501F1823E910561F600
:102000008091890482FD21C0CE01DF91CF91089596
:10201000863E910561F1873E910571F1843E9105FF
:1020200009F0BACF80918A0481FFEECF80918904B4
:10203000C7EED0E084FD0DC0E7CF8091890480FD1C
:10204000F7C090918A0490FFDFCFC3EED0E084FF09
:10205000DBCFD0E0C0E0D8CF8091890482FDEBC017
:1020600090918A0490FDBFCF84FFCECFF2CF8091B4
:10207000890483FDDDCFC8CF8091890483FDDEC054
:1020800090918A0491FFF0CFC4EED0E0BDCF809153
:10209000890485FFB9CFC9E2D0E0B6CF8091890429
:1020A00085FFB2CFC5E3D0E0AFCF8091890486FF32
:1020B000ABCFCAE2D0E0A8CF8091890486FFA4CF3D
:1020C000C1E3D0E0A1CFC11540E2D40760F4C1154F
:1020D00081E0D80708F098CFCE01805E910908977B
:1020E00008F492CFB6CFC11590E4D90708F4B1CF68
:1020F000DF70D06A89CFC11524E5D20778F4C11505
:1021000033E5D30708F072C0C11542E5D40708F0E3
:102110005CC0DC2FCC27C16FD06A76CFC1158AE5B1
:10212000D80778F4C11599E5D90708F073C0C1152F
:1021300028E5D20708F48DCFDC2FCC27C06FD06AFA
:1021400063CFCE0190568115904208F082CF8D2F3B
:102150008F710E94760F90E0982F882788279F71B3
:102160009C012C2BE901D0624FCFC55AD0E0C75457
:10217000DE4FC881D0E0D06447CFC85AD0E0CC0F42
:10218000DD1FC454DE4F0990D881C02DD4643CCFEC
:10219000CE0164E0969587956A95E1F783702C2FC0
:1021A00026952695237040E2249F90011124382B18
:1021B0008C2F8370C1E0D0E002C0CC0FDD1F8A9568
:1021C000E2F7C22BD32BDC681FCFCE018370992797
:1021D00021E030E002C0220F331F8A95E2F7C69556
:1021E000C69580E2C89FE0011124EBCFCE01837039
:1021F000992721E030E002C0220F331F8A95E2F7D1
:10220000C695C69590E2C99FE0011124C22BD32B3D
:10221000DA68FACE8C2F8F700E94760F34E0D69554
:10222000C7953A95E1F7CF709C2FEC01D069ECCEC1
:10223000C9E3D0E0E9CEC2EED0E0E6CEC6EED0E013
:10224000E3CE8091810490918004892B90917F044A
:10225000892B80931C04E091D606F091D706309725
:1022600031F00280F381E02D8CE194E0099408952F
:1022700080917E0490914D04981301C008958F5F62
:102280008770FACF8F929F92AF92BF92CF92DF92D8
:10229000EF92FF920F931F93CF93DF93809073057C
:1022A00090907405A0907505B090760540918204D9
:1022B000509183046091840470918504842A952A46
:1022C000A62AB72ACFE1D0E0E92EF12C26E0C22ED3
:1022D000082F10E0DC2ED501C4010C2E04C0B695E9
:1022E000A795979587950A94D2F780FD11C02197FD
:1022F00088F7D12C8D2DDF91CF911F910F91FF90F9
:10230000EF90DF90CF90BF90AF909F908F90089507
:10231000CC9EF001CD9EF00D1124EE0DFF1D83E04B
:10232000EE0FFF1F8A95E1F7E00FF11FEE0FFF1F81
:10233000E455FF4F859194910E94B90F0197B9F22E
:10234000D9CFCF93DF93EC010E94421196E0899F91
:10235000F0011124ED0FF11D83E0EE0FFF1F8A95B0
:10236000E1F7EC0FF11DEE0FFF1FE455FF4F8591D4
:102370009491DF91CF910C94B90F990F990F990F08
:10238000890F982F977086958695869525E0829F70
:10239000F0011124E75DFB4F50E040E080E0219127
:1023A00030E0092E02C0369527950A94E2F7217095
:1023B0003327042E01C0220F0A94EAF7822B4F5FC5
:1023C0005F4F4530510559F70895990F990F990FAF
:1023D000890F982F977041E001C0440F9A95EAF752
:1023E00086958695869595E0899FF0011124E75D95
:1023F000FB4F30E020E070E05191DF011197CB01FD
:10240000022E02C0969587950A94E2F78170819515
:102410008527842385278C932F5F3F4F25303105F7
:1024200059F70895FC01808191810E94A111292F03
:102430002F7092959F7092509E3078F4E92FF0E0C3
:10244000EA54FD4C0C948731803F19F020F4883E0B
:1024500020F481E00895843FE1F380E00895883E10
:10246000C0F3813FD1F7F5CF822F8695869586956B
:10247000089590E080E00E94990790E080E00E943B
:1024800083071092800410927F040C9421116093B2
:1024900073057093740580937505909376050C947D
:1024A00039120F931F9341E050E060E070E004C0E8
:1024B000440F551F661F771F8A95D2F7CB01BA01CB
:1024C00060957095809590950091730510917405B5
:1024D0002091750530917605602371238223932323
:1024E0001F910F910C9447120F931F9341E050E0FE
:1024F00060E070E004C0440F551F661F771F8A9587
:10250000D2F78091730590917405A0917505B091F3
:1025100076058A019B01082B192B2A2B3B2BC9011D
:10252000B8011F910F910C9447126093820470932D
:10253000830480938404909385040C943912882337
:1025400041F08095909181048923809381040C94BB
:1025500021110895882339F090918104982B90934C
:1025600081040C94211108958823B1F19CEF980FF8
:10257000913A70F4EEE1F4E09191891303C0DF0128
:1025800011971C9244E0E432F407B1F70C94211146
:1025900090E2980F983088F4877021E030E0A9012C
:1025A00002C0440F551F8A95E2F7CA0180959091A9
:1025B0008104892380938104E9CF9BE5980F9330B0
:1025C00020F490E080E00C949907885A873120F439
:1025D00090E080E00C9483070895CF93C82F882360
:1025E00009F44EC08CEF8C0F813AF8F4EEE1F4E080
:1025F00084E294E0DF012D91C21759F08A179B07FE
:10260000D1F76C2F8CE194E00E946907CF910C9474
:1026100021112191C21303C0DF0111971C928E1763
:102620009F07B9F70E942111ECCF80E28C0F883010
:1026300068F4C77021E030E001C0220FCA95EAF7C4
:1026400080918104822B80938104E0CFEBE5EC0F35
:10265000E33040F4F0E0E754FE4F808190E0CF910A
:102660000C949907C85AC73158F4EC2FF0E0EE0FDC
:10267000FF1FE454FE4F80819181CF910C9483071A
:10268000CF910895DF92EF92FF920F931F93CF9314
:10269000DF93082FF62EE42E809106018823E9F0BF
:1026A0008091250419E0811101C01CE0D0E0C0E058
:1026B0008CE0D82E80912504FE01D89EE00DF11DFE
:1026C0001124E75DFE4F80812E2D4F2D602F90E06D
:1026D0000E94660A2196C11768F3DF91CF911F917E
:1026E0000F91FF90EF90DF90089580912704823141
:1026F00041F128F4882341F08C30A9F00895883105
:1027000071F18432D1F1089580912604882331F04B
:1027100061E170E080E090E00C94471261E070E0CD
:1027200080E090E0F9CF80912604882329F062E1CF
:1027300070E080E090E0F0CF62E070E080E090E058
:10274000EBCF80912604882329F064E170E080E0DB
:1027500090E0E2CF64E070E080E090E0DDCF809137
:102760002604882329F068E170E080E090E0D4CF6F
:1027700068E070E080E090E0CFCF8091260488236D
:1027800029F060E670E080E090E0C6CF60E270E0A3
:1027900080E090E0C1CFE8E3F5E080818F70808336
:1027A0001092250481E0809305010895E8E3F5E0A7
:1027B0008081807F82608083E9E3F5E0808180789A
:1027C0008567808361E070E080E090E00E94951270
:1027D00061E070E080E090E00E94471288E20C9493
:1027E0004B031F93CF93DF93C62FD42F122FFC01DF
:1027F0008281882399F060931F080E945D0790935F
:102800001E0880931D08C77081E001C0880FCA951B
:10281000EAF7DF91CF911F910C94AA1280911F08C3
:10282000681343C080911D0890911E080E944E07B6
:10283000883C9105D0F5CD17C9F080E28C0F883027
:1028400040F4C77081E001C0880FCA95EAF70E9482
:102850009F1280E28D0F883048F481E09D2F9770A1
:1028600001C0880F9A95EAF70E94AA12812F0E9450
:10287000ED128AE090E0EFE9FFE03197F1F700C058
:1028800000000197C1F7812F0E94B41280E28D0FE2
:10289000883090F4D77081E001C0880FDA95EAF7AC
:1028A000DF91CF911F910C949F12C77081E001C0FE
:1028B000880FCA95EAF7F4CFDF91CF911F91089561
:1028C0008093DF067093E1066093E0068091EF0647
:1028D000843001F582E08093E9008FEF9091E80069
:1028E000815095FD06C095ED9A95F1F70000811194
:1028F000F5CF8091E80085FF0DC050E040E063E037
:1029000070E08FED96E00E94E3048091E8008E77FE
:102910008093E8000895BC0184E00C946014BC012D
:1029200083E00C946014CF93DF93EC0181E08093FB
:10293000E9008FEF9091E800815095FD06C095ED7C
:102940009A95F1F700008111F5CF8091E80085FF9D
:1029500014C050E040E068E070E0CE010E94E30463
:102960008091E8008E778093E80088E0FE01A5EE74
:10297000B6E001900D928A95E1F7DF91CF9108952D
:10298000539A3BB1377F2BB128604FB7F89488E753
:1029900095E0FC015191CF0168E02BB9000000C027
:1029A00057FF3BB9550F000000C000C000C03BB945
:1029B00000C06A9591F7F6E0843D9F0751F74FBF3D
:1029C0008FE594E00197F1F700C0000008951F9390
:1029D000CF93DF93EC01FC01EA55FC4F8081682323
:1029E000C9F00E94D931182F0E94D9318F77782FE2
:1029F00020E8720F08F47FEF612F809124080E9475
:102A0000D80B462F282F672FCE01DF91CF911F9132
:102A10000C94660ADF91CF911F910895DF92EF9297
:102A2000FF920F931F93CF93DF938C01FC01EA5524
:102A3000FC4F8081682381F1D0902308D091240835
:102A4000C0912208EC2EF12C0E94D931282FC70109
:102A50008C549F4F68E671E00E9473318E199F0974
:102A600097FD0396959587959595879523706C2F7F
:102A7000289F600D11247D2D8D2F0E94D80B462F8D
:102A8000282F672FC801DF91CF911F910F91FF90E1
:102A9000EF90DF900C94660ADF91CF911F910F9118
:102AA000FF90EF90DF9008957F928F929F92AF9268
:102AB000BF92CF92DF92EF92FF920F931F93CF932B
:102AC000DF93182F80911401811323C09091210866
:102AD00093702091130130E081E09217130609F4FE
:102AE00080E08170809324018091260890912301D9
:102AF000981739F08093230140E060E080E00E9465
:102B0000640A1A3260F4E12FF0E0EC53FD4C0C94AF
:102B1000873181E0E6CF80912401811102C0C0E0BD
:102B200059C140E060E080E00E94640AF8CFC091A3
:102B3000220188E1C89FC02D112408E10C0FF02E5E
:102B4000053710F094E7F92E609122087091230860
:102B5000809124080E94D80BE62ED72EC82ED0E0F4
:102B6000CF1528F0C1E0043708F434C1D8CFFE01F6
:102B7000EA55FC4F808190912301892331F02C2D5F
:102B80004E2D6D2DCE010E94660A2196E9CFC0918F
:102B9000220188E1C89FC02D112408E10C0FE02E0E
:102BA000053710F084E7E82ED0902308C090240861
:102BB00020912508D0E4FD2E3F2D329F312D112488
:102BC000F32ED0E0CE1570F6FE01EA55FC4F808161
:102BD000909123018923B9F0FE01EE0FFF1FE25708
:102BE000FD4F81A982958F70609122088F9D600DA5
:102BF00011247D2D8C2D0E94D80B462F282F672F56
:102C0000CE010E94660A2196DDCFC091220188E1A3
:102C1000C89FC02D112408E10C0FE02E053710F0DD
:102C2000A4E7EA2ED0902308C0902408209125081C
:102C3000F0E4FF2E3F2D329F312D1124F32ED0E0F2
:102C4000CE1508F08FCFFE01EA55FC4F80819091A0
:102C500023018923D9F0FE01EE0FFF1FE257FD4F3C
:102C600060A9F69EB0011124E5E075956795EA9597
:102C7000E1F780912208680F7D2D8C2D0E94D80BE2
:102C8000462F282F672FCE010E94660A2196D8CFA3
:102C9000C091220188E1C89FC02D112408E10C0FCA
:102CA000F02E053710F064E7F62EE0902208D09160
:102CB0002308D0902408609125086695669566954E
:102CC0008091F9069091FA060E94CE0B0E94340B77
:102CD000805887FD8195880F282F3D2D239F212D1A
:102CE0001124822F6E2D7D2F0E94D80BE62ED72E19
:102CF000C82ED0E0CF1508F035CFFE01EA55FC4FC5
:102D0000808190912301892331F02C2D4E2D6D2D42
:102D1000CE010E94660A2196EDCF8BE39AE00E94D5
:102D2000AF0D07C081E19AE0FACF86E19BE00E94F7
:102D3000E00EC82F4FC087EF9AE0F9CF8CED9AE0F4
:102D40000E945F0EF6CF80EC9AE0FACF8FE09AE017
:102D5000E6CF86E09AE0E3CF8DEF99E0E0CF84EE16
:102D600099E0DDCF86ED99E0EBCF86EA9BE0DFCFFF
:102D70008FEA9AE0DCCF8BE99AE0E2CF89EA99E02A
:102D80000E94FD0DD6CF8BE799E0FACF84E499E05D
:102D9000F7CFC0912401C1113EC06091250820E108
:102DA000620F08F46FEF8091F9069091FA060E9485
:102DB000CE0B6AE070E00E945F31892B09F0AFCE44
:102DC0000E94D93164E770E00E9473316091230161
:102DD0000E940E15809122018F5F80932201C11104
:102DE0000CC082E08093250180912401811105C0EF
:102DF000111103C083E080932501DF91CF911F91D2
:102E00000F91FF90EF90DF90CF90BF90AF909F9089
:102E10008F907F900895C091220188E1C89FC02DB6
:102E2000112408E10C0F802F053708F084E7D0E06B
:102E3000E82EF12CCE15DF050CF094CE6091230125
:102E4000CE010E940E152196F5CFC0912401C1112B
:102E50001EC06091250820E1620F08F46FEF809199
:102E6000F9069091FA060E94CE0B65E070E00E9490
:102E70005F31892B09F053CE0E94D93164E770E0AD
:102E80000E947331609123010E94E714A3CFC09187
:102E9000220188E1C89FC02D112408E10C0F802F6A
:102EA000053708F084E7D0E0E82EF12CCE15DF05D9
:102EB0000CF058CE60912301CE010E94E7142196B8
:102EC000F5CFC091220188E1C89FC02D112408E1EF
:102ED0000C0FF02E053710F054E7F52ED090230894
:102EE000E0902408D09122086091250866956695A7
:102EF00066958091F9069091FA060E94CE0B0E9489
:102F0000340B805887FD8195880F682F2CE0629FD5
:102F1000612D11246D0F7D2D8E2D0E94D80BE62E74
:102F2000D72EC82ED0E0CF1508F01CCEFE01EA55F2
:102F3000FC4F808190912301892331F02C2D4E2D5F
:102F40006D2DCE010E94660A2196EDCF83E59BE0B0
:102F5000E6CE83E399E0E3CE8CE299E00E94360D61
:102F6000E8CE86E299E0FACF8091FD0621E0382F85
:102F7000321B08F430E0832F6DE079E00E946C0C86
:102F8000D8CE6DE079E080E0F9CF8091FD0621E0B8
:102F9000382F321B08F430E0832F62ED78E0EECF5B
:102FA00062ED78E0F0CF8091FD0621E0382F321BF2
:102FB00008F430E0832F60EA78E0E0CF60EA78E060
:102FC000E2CF8091FD0621E0382F321B08F430E07B
:102FD000832F68E878E0D2CF68E878E0D4CF80919A
:102FE000FD0621E0382F321B08F430E0832F62E722
:102FF00078E0C4CF62E778E0C6CF67E478E0C3CF7B
:10300000C091220188E1C89FC02D112408E10C0F56
:10301000B02E053710F044E7B42E2091250830E09B
:1030200050E040E06FEF7FEF80E090E00E9451328F
:103030007901D0E0CE01880F991FFC01E257FD4FC6
:103040006F0132E8A32ECB1508F08CCDFE01EA55B6
:10305000FC4F808190912301892319F180902308EE
:1030600090902408709022084091FD064150042E53
:10307000000C550B47FF1AC0C701609125080E943C
:10308000CE0B6A2D282F621B08F460E0670D782DA7
:10309000892D0E94D80B462F282F672FCE010E9422
:1030A000660A219632E0C30ED11CCDCFFA01E3505F
:1030B000F94F9181F60180A998130AC0FA01EE0F29
:1030C000FF1FE350F94F878D90A18E159F05A8F241
:1030D00041505109CFCF90912201D8E19D9FD00D51
:1030E00011240E94D931C82F0E94D9316C2F782F1A
:1030F000809124080E94D80B482F872F0E94640AD1
:10310000C1E0D43708F466CE0ACD8F929F92AF9279
:10311000BF92CF92DF92EF92FF920F931F93CF93C4
:10312000DF9380916F0590917005A0917105B0912A
:1031300072052FB7F8948090DB069090DC06A09083
:10314000DD06B090DE062FBF75016401C81AD90AEA
:10315000EA0AFB0A2FB7F8944091DB065091DC068F
:103160006091DD067091DE062FBF40936F0550938E
:103170007005609371057093720510913C05ECE346
:10318000F5E0C12FD0E00197AF4FBF4F88199909E3
:10319000AA09BB091D1329C0C0933C05809177057E
:1031A000C0E0811108C080912108C82FC37019F0B8
:1031B000C82FC695C69580912501813009F43FC07E
:1031C000882331F1823009F48DC1833009F495C12F
:1031D000DF91CF911F910F91FF90EF90DF90CF90F3
:1031E000BF90AF909F908F900895278D30A1490197
:1031F000B12CA12C88159905AA05BB0520F4C15056
:10320000DF5F3296C7CF2C0D3D1D30A3278FF8CF3F
:10321000109222014093F9065093FA066093FB0640
:103220007093FC0683E3ECE3F5E0ADEFB6E00190CC
:103230000D928A95E1F781E080932501C9CF8C2F0B
:103240000E945415CC2321F280912108837009F447
:10325000BFCF8091730590917405A0917505B091D1
:10326000760582319105A105B10509F4FEC028F566
:1032700084309105A105B10509F42CC178F48130A1
:103280009105A105B10509F4B9C00297A105B105E1
:1032900009F09ECF40E063E380E0EAC0883091050A
:1032A000A105B10509F41AC14197A105B10509F0BD
:1032B0008FCF40E069E183E3A4C080329105A1058E
:1032C000B10509F4ACC020F584319105A105B10523
:1032D00009F4E4C04897A105B10509F079CF40E0B1
:1032E00069E183E30E94421320E040E063E38DE163
:1032F00090E00E94660A20E040E063E382E490E010
:103300000E94660A20E040E063E387E690E09FC009
:1033100080369105A105B10509F4D9C008F458CF4C
:1033200080589109A109B109C1E0D0E08138910527
:10333000A105B10508F04CCF29E143E360E0CE01DF
:103340000E94660A2196C530D105B1F729E143E311
:1033500060E085E090E00E94660A29E143E360E0D6
:1033600086E090E00E94660A29E143E360E087E09E
:1033700090E00E94660A00E112E088E5E82E82E013
:10338000F82E93E1C92E92E0D92EE801899126E02A
:1033900041E26BE290E00E94660A8BA120E043E3E9
:1033A00060E090E00E94660A8DA920E043E360E0BF
:1033B00090E00E94660AF70181917F0120E043E3DB
:1033C00060E090E00E94660AF70183A120E043E3F9
:1033D00063E390E00E94660ACC16DD06B9F6F801B8
:1033E00081A129E143E360E090E00E94660A0A5F60
:1033F0001F4FF2E00E351F0791F7EACE46E061E27B
:103400008BE2DF91CF911F910F91FF90EF90DF90B2
:10341000CF90BF90AF909F908F900C94421340E05C
:1034200063E383E30E94421320E040E063E387E12B
:1034300090E00E94660A20E040E063E38CE390E0C5
:103440000E94660A20E040E063E381E690E0DF91BD
:10345000CF911F910F91FF90EF90DF90CF90BF9091
:10346000AF909F908F900C94660A40E069E183E3EF
:103470000E94421320E040E063E383E290E00E9478
:10348000660A20E040E063E388E490E00E94660A78
:1034900020E040E063E38DE690E0D9CF40E069E1D1
:1034A00083E30E94421320E040E063E380E290E087
:1034B0000E94660A20E040E063E385E490E00E9419
:1034C000660A20E040E063E38AE690E0C0CF40E097
:1034D00069E1A7CF40E063E380E0E3CF40E063E34E
:1034E00080E000CFC0931401809121088370809305
:1034F00013010E94C01483E09FCE8091200888238E
:1035000051F046E050E06CE170E081E298E00E940A
:103510001D32109220084091F9065091FA066091F0
:10352000FB067091FC062FB7F8948091DB06909112
:10353000DC06A091DD06B091DE062FBF841B950B43
:10354000A60BB70B4097A105B10508F441CE109228
:1035500025013ECEE1E2F8E081E3808380912601FF
:1035600090912701A091280181839283A3838FE703
:1035700084838FEF858346E050E06CE170E0CF01FB
:103580000E941D3210922008089510928104EEE1ED
:10359000F4E086E0DF011D928A95E9F70C94391278
:1035A0001F93CF93DF93CDB7DEB7AA970FB6F894EA
:1035B000DEBF0FBECDBF81EF96E02091F100FC0190
:1035C0002193CF01F6E0893F9F07B9F78091F2067A
:1035D000833009F470C0B8F4813009F447C08230F8
:1035E00009F4B1C08091E80083FF88C28091F106A0
:1035F0009091F2069A3008F081C2E92FF0E0E25192
:10360000FD4C0C9487318A3009F48CC08B3009F45E
:103610006FC0893039F78091F106813219F78091B6
:10362000F5069091F6060297E8F68091E800877F0C
:103630008093E8008091E80082FF38C09091F30009
:103640008091F200029731F48091F100813011F005
:10365000863021F48091F1008093E4068091E800A7
:103660008B778093E8000E940D05BCCF8091F10616
:10367000813A09F0B7CF8091E800877F8093E80016
:103680008091F5069091F606892B61F468E085EE4D
:1036900096E070E00E94BF058091E8008B778093F0
:1036A000E800A0CF60E090E080E0F3CF8091EF06EB
:1036B0008111C0CF97CF8091F106813A09F092CF66
:1036C0008091F5069091F606892B09F08BCF8091B9
:1036D000E800877F8093E8008091E80080FFFCCFBE
:1036E000809121018093F1008091E8008E77B9CF1D
:1036F0008091F106813209F075CF8091F5069091A5
:10370000F606892B09F06ECF8091E800877F8093C1
:10371000E8000E940D058091F306809321010E942C
:10372000C51A60CF8091F106813209F05BCF80919C
:10373000E800877F8093E8000E940D058091F406E1
:103740008093E3064FCF8091F106813A09F04ACF8A
:103750008091E800877F8093E8008091E80080FFF7
:10376000FCCF8091E306BECF803899F0823809F013
:10377000C5C18091F5068F70873008F0BFC1809376
:10378000E9008091EB0085FB882780F91092E90021
:1037900006C08091ED069091EE06911182609091A5
:1037A000E800977F9093E8008093F1001092F10079
:1037B0008091E8008E779EC1882309F48CC1823005
:1037C00009F09CC18091F30681118FC18091F506AB
:1037D0008F702FEF280F263008F090C18093E900FA
:1037E0002091EB0020FF81C1933031F48091EB00F8
:1037F00080628093EB0079C19091EB00906190938F
:10380000EB0021E030E001C0220F8A95EAF7209317
:10381000EA001092EA008091EB008860EACF811103
:103820006DC11091F3061F778091E3008078812BA2
:103830008093E3008091E800877F8093E8000E94F6
:103840000D058091E80080FFFCCF8091E300806847
:103850008093E30082E0111183E08093EF064EC174
:103860008058823008F04AC18091F3069091F406A6
:103870008C3D23E09207A1F583E08A838AE2898365
:103880004FB7F894DE01139620E03EE051E2E32FBB
:10389000F0E050935700E49120FF03C0E295EF70F1
:1038A0003F5FEF708E2F90E0EA30C0F0C7968D93A7
:1038B0009D932F5F243159F74FBF8091E800877F98
:1038C0008093E8006AE270E0CE0101960E94BF0595
:1038D0008091E8008B778093E80010C1C096E7CF15
:1038E0004091F5065091F606292F332723303105F4
:1038F00009F444C078F52130310509F46FC08FE92F
:1039000090E0EEE1F5E02230310509F0F7C02091BA
:10391000E800277F2093E8002091F7063091F80611
:103920008217930708F49C0140E02115310509F046
:1039300064C0411162C08091E80082FDC9CF8091CE
:10394000EF06882329F2853019F28091E80083FF81
:10395000F2CFBECF21323105A9F12232310509F073
:10396000CDC04115510509F443C04130510509F05E
:10397000C5C082E390E0ECEAF4E0C9CF992781303A
:103980009105C1F0009759F0029709F0B7C0EFEC2C
:10399000F5E0E4918E2F90E0EFECF5E007C0EFEF5B
:1039A000F5E0E4918E2F90E0EFEFF5E0009709F459
:1039B000A5C0ADCFEFEEF5E0E4918E2F90E0EFEEF5
:1039C000F5E0F4CF4115510571F04130510509F092
:1039D00095C089E090E0E9E4F5E099CF82E190E0DC
:1039E000EDEBF5E094CF89E090E0E0E3F5E08FCFF8
:1039F00080E490E0EEEDF4E08ACF8091EF0688233A
:103A000009F466CF853009F463CF8091E80083FD27
:103A10005FCF8091E80082FD8ECF8091E80080FF2B
:103A200084CF9091F3008091F2002115310519F0B7
:103A30008830910550F041E0089709F040E080910E
:103A4000E8008E778093E80070CF44914093F100B6
:103A50003196215031090196E8CF803809F04EC0E7
:103A60008091E800877F8093E8008091F006809342
:103A7000F1009ECE811142C01091F3061230F0F594
:103A80008091E800877F8093E8001093F0060E9401
:103A90000D05112311F084E005C08091E30087FD3E
:103AA000FACF81E08093EF0642E061EC81E00E9472
:103AB0002C0542E261EC82E00E942C0542E361E8C1
:103AC00083E00E942C0542E361E884E00E942C051B
:103AD0008091EF0613C08091F306813079F481E084
:103AE000933009F080E08093EE061092E900809117
:103AF000E800877F8093E8000E940D058091E80030
:103B000083FF0AC08091E800877F8093E80080915E
:103B1000EB0080628093EB00AA960FB6F894DEBFAC
:103B20000FBECDBFDF91CF911F910895CF9384E059
:103B300090E00E940F32C82F82E290E00E940F3284
:103B4000982F8C2FCF91089569EE7EEF90E080E062
:103B50000E944B3260E082E090E00E942D3260E0F3
:103B600083E090E00E942D32109282041092830430
:103B7000109284041092850460E084E090E00E943A
:103B80002D3260E082E290E00E942D3260E085E01C
:103B900090E00E942D3260E086E090E00E942D329D
:103BA0006FEF87E090E00E942D3240E050E0BA01D4
:103BB00088E090E00E943F3260E08DE090E00E945B
:103BC0002D3240E050E0BA0188E190E00E943F329F
:103BD00060E087E190E00E942D3240E050E0BA01C1
:103BE0008CE190E00E943F3270E060E080E290E083
:103BF0000E944B3240E050E0BA0188E190E00E9420
:103C00003F3240E050E0BA018FE090E00E943F3246
:103C10000E94400F80912108837011F410922501B9
:103C2000809121088C7F81608093210880912008F9
:103C30008160809320088FE7809325084FEF6FEF16
:103C40008AEA90E00E9464030C94D6138F929F92AC
:103C5000AF92BF92CF92DF92EF92FF920F931F939A
:103C6000CF93DF9300D000D00F92CDB7DEB76C01B9
:103C7000FC0183819481892B41F010810181812F86
:103C800080238F3F11F00C941B280F900F900F9002
:103C90000F900F90DF91CF911F910F91FF90EF90B8
:103CA000DF90CF90BF90AF909F908F9008950E942B
:103CB0004211F82E682F89819A810E94E511E02F28
:103CC000F0E026E0F29EE00DF11D112473E0EE0F0E
:103CD000FF1F7A95E1F7E10FF11DEE0FFF1FE4558D
:103CE000FF4FE590F4903CEAE3163DE5F30609F456
:103CF000F3C008F093C058EAE5165DE5F50609F44F
:103D0000EBC108F067C096EAE9169DE5F90609F4EB
:103D10001DC1E7EAEE16EDE5FE0609F4AFC1FFEAC4
:103D2000EF16FCE5FF0608F0D3C22FE9E2162CE5FA
:103D3000F20608F01CC430E9E3163CE5F30608F08F
:103D400069C243E8E4164CE5F40608F0C0C351E844
:103D5000E5165CE5F50608F043C287E7E8168CE552
:103D6000F80608F091C39FE2E9169CE5F90608F011
:103D700042C334EFE3163CE5F30609F4D8C408F077
:103D800028C359EDE5165CE5F50609F4CCC48AEDC7
:103D9000E8168CE5F80609F4D6C498EDE9169CE51A
:103DA000F90609F0F6C026E241EE61EEC6010F9079
:103DB0000F900F900F900F90DF91CF911F910F9167
:103DC000FF90EF90DF90CF90BF90AF909F908F903B
:103DD0000C94F113F6018281FAEAEF16FDE5FF0675
:103DE00009F4A9C008F484C1882309F4D2C0209141
:103DF000240481E0282720932404909139058091A0
:103E00003A05222309F4D2C1906890933905887F3E
:103E100080933A0583E080930401BBC03FEAE31638
:103E20003DE5F30609F473C0B8F45DEAE5165DE517
:103E3000F50609F45FC08EEAE8168DE5F80609F08C
:103E40006ECFF6018281882309F4A3C00E94CB13B0
:103E50001092260482E158C090EBE9169DE5F90620
:103E600009F45FC0EAEFEE16EDE5FE0608F057CF65
:103E700040910401009139050F778FE48E0D90E099
:103E80009C012F563B4F5901F9012081F601828197
:103E9000882309F493C12F3F09F041CF10913805D1
:103EA000812F8F701595159515951595115BFCE073
:103EB0008F9F100D11241E0D212F2F774F704069F9
:103EC000E0913007F091310763E070E080E397E024
:103ED0000995F501108323CFF6018281882309F427
:103EE00058C00E94CB1310922604109227040E94FF
:103EF00075134FC0F6018281882309F44AC00E94DD
:103F0000CB13109226048CE080932704F0CFF601A7
:103F100082818823F1F10E94CB131092260488E15C
:103F2000F3CFF60182818823A1F10E94CB13109276
:103F3000260484E2E9CF882361F10E94CB138091AB
:103F4000260491E0892780932604D1CFF60182814F
:103F50008823F9F08091730590917405A0917505FF
:103F6000B091760584309105A105B10551F008F0B6
:103F700077C00197A109B1090297A105B10508F021
:103F8000CECE80912504882309F476C08150809399
:103F90002504F6019281992311F40C942E28109295
:103FA0001F08F4E0EF16FDE5FF0608F0CFC32BEF86
:103FB000E2162CE5F20638F4970122503C452431F4
:103FC000310508F0C9C30E94961D90938A0480931E
:103FD000890440E1E4164CE5F40609F4B7C408F09E
:103FE00025C488E0E8168CE5F80609F49DC408F0BD
:103FF000F1C3E4E0EE16ECE5FE0609F487C408F030
:10400000D3C322E0E2162CE5F20609F479C48091CC
:104010008904826033E0E3163CE5F30609F473C4D7
:104020006091890410918A0484E090E00E942D320E
:10403000612F82E290E00E942D320F900F900F903E
:104040000F900F90DF91CF911F910F91FF90EF9004
:10405000DF90CF90BF90AF909F908F900C94C51A37
:1040600088309105A105B10509F48BCF8097A10592
:10407000B10509F054CE85CF8BE089CFF60182815E
:10408000882309F486CF8091730590917405A091DF
:104090007505B091760584309105A105B10549F00B
:1040A00070F40197A109B1090297A105B10508F0C3
:1040B00036CE809125048B3068F48F5F68CF8830CE
:1040C0009105A105B105A9F38097A105B10509F0F6
:1040D00026CEEFCF80E05BCFF6018281882309F402
:1040E00058CF8091060191E089278093060151CF36
:1040F000882309F44ECF4091730550917405609167
:104100007505709176058091380544395105610532
:10411000710551F0A8F44159510961097109423002
:10412000510561057105D8F49091050121E0292719
:104130002093050190932504992331F1806F25C0C8
:10414000403A51056105710539F1403E510561055F
:10415000710581F0483951056105710529F3109207
:10416000050191E090932504806F8093380590932A
:104170002604BDCE9091050121E092279093050180
:10418000992331F0109225048F708093380501CF68
:104190009BE090932504D2CF109205019BE0909371
:1041A0002504806F8093380581E0CDCE9F77909372
:1041B0003905887F80933A0582E02DCE2F3F61F04C
:1041C0002F774F704068E0913007F091310763E03E
:1041D00070E080E397E009958FEFF50180839FCD34
:1041E000E1E8EE16ECE5FE0609F45FC1F2E8EF1631
:1041F000FCE5FF0609F0BDCDF6018281882309F4B4
:1042000044CD80913805982F9F70993008F03DCDAE
:104210009F5F57C12DE9E2162CE5F206D0F532E991
:10422000E3163CE5F30608F074C140E9E4164CE5FA
:10423000F40609F45AC151E9E5165CE5F50609F002
:1042400098CDF6018281882309F41FCD209138058D
:10425000822F859585958595859586300CF015CDB1
:1042600091E0980F9295907F959595959595959558
:10427000392F3295307F2F70232B20933805181655
:104280000CF003CD97FF01CD8295807F922F9F7018
:104290001AC18DE9E8168CE5F80609F44EC19EE9CD
:1042A000E9169CE5F90609F064CDF60182818823C0
:1042B00009F4EBCC80913905982F9F779F3709F44B
:1042C000E4CC933708F051C1935F9F7780784BC15E
:1042D000E5EBEE16ECE5FE0609F4B5C108F03EC0CC
:1042E00021EBE2162CE5F20609F475C1F8F44FEA69
:1042F000E4164CE5F40609F44FC150EBE5165CE515
:10430000F50609F036CDF6018281882309F4BDCC8B
:1043100020913905322F331F3327331F90913A05EF
:10432000892F8770880F832B8F5F48C1F601228108
:104330008091390590913A05F3EBEF16FCE5FF0605
:1043400009F46DC108F075C140E021114FE7881FE5
:104350008827881F9770990F60E44DC148EBE416D9
:104360004CE5F40609F481C1A0F486EBE8168CE56F
:10437000F80609F468C197EBE9169CE5F90609F01F
:10438000F8CCF601828181116EC18FEF8093EE042B
:104390007CCCEAEBEE16ECE5FE0609F49EC108F4CF
:1043A00086C12BEBE2162CE5F20609F0E2CC8091F7
:1043B0003905982F991F9927991F80913A05877081
:1043C000880F892BF60192816FEF7FE1911198C1DF
:1043D00095C1E6EFEE16ECE5FE0609F4B0C108F46F
:1043E000AAC127EFE2162CE5F20609F0D2CD27E2AA
:1043F00045EE66EEDBCC00913905802F881F8827BB
:10440000881F40913A054770440F482B0F7781ED84
:104410008E0D90E0FC01E051FB4F5F012081F60121
:104420008281882301F12F3F09F02FCC809138053C
:10443000982F9F7085958595859585958F52FCE081
:104440009F9F800D1124E80E2E2D2F774069E0915B
:104450003007F091310763E070E080E397E0099561
:10446000F501E08212CC2F3F59F02F774068E091A0
:104470003007F091310763E070E080E397E0099541
:104480008FEFF501808301CCF6018281882309F446
:10449000FCCBF9E8EF0E2E2D2F70E22E809138051F
:1044A000807FE82AE0923805F0CBF60182818823EC
:1044B00009F4EBCB80913805982F9F7009F4E5CB78
:1044C000915F9F70807F892B80933805DECBF6014A
:1044D0008281882309F4D9CBF7E7EF0EE29460EFED
:1044E000E622809138058F70DCCFF6018281882327
:1044F00009F4CBCB80913805982F95959595959596
:1045000095959B3F0CF4C1CB915F9295907F8F70F6
:10451000DACFF6018281882309F4B7CBFEE6EF0EED
:104520008CE0E89EE02C1124E894E7F880913905AE
:104530008078E82AE0923905A8CBF60182818823A9
:1045400009F4A3CB80913905982F9F7709F49DCB6F
:1045500080789F3721F485678093390596CB9D300D
:10456000D8F39D509F77892BF7CF8F67F5CFF60152
:104570008281882309F489CBF1E6EF0E8091390519
:10458000E0FA87F9809339058E2D86958770909192
:104590003A05987F892B88C0F6018281882309F427
:1045A00074CB20913905322F331F3327331F90915D
:1045B0003A05892F8770880F832B815F382F3F70D2
:1045C00080FB27F920933905832F8695987F982BB8
:1045D00090933A055ACBF6018281882309F455CB92
:1045E00090913905991F9927991F80913A058770F5
:1045F000880F40E06BE7892B0F900F900F900F9082
:104600000F90DF91CF911F910F91FF90EF90DF906E
:10461000CF90BF90AF909F908F900C94900340E00C
:1046200021114FE7881F8827881F9770990F61E431
:10463000E2CF40E021114FE7881F8827881F97703D
:10464000990F62E4D8CFF601828140E081114FE7F3
:1046500090913905991F9927991F80913A05877084
:10466000880F63E4C8CF81E091CEF6018281882370
:1046700009F40BCB90913A05292F2695269526957E
:104680002F7081E0820F8F70880F880F880F9778C6
:10469000892B80933A05982F987709F0F6CA220F54
:1046A000220F220F8778822B80933A05EECAF601FB
:1046B0008281882309F4E9CA80913A05982F987776
:1046C00009F4E3CA982F969596959695915F9F70F9
:1046D000990F990F990F87785DCF80913905982FA1
:1046E000991F9927991F80913A058770880F892B08
:1046F000F601928160E070EE911102C070E060E01E
:104700000F900F900F900F900F90DF91CF911F910E
:104710000F91FF90EF90DF90CF90BF90AF909F9060
:104720008F900C94770327E245EE65EE3FCB26E2AF
:1047300041EE60EE3BCB27E245EE64EE37CB26E25E
:1047400041EE62EE33CB28E241E0EFCF32E6E316F2
:104750003DE5F30609F437CC26E1E2162CE5F20636
:1047600009F01BC1809181048A7A91E009F490E0FC
:104770009093280469E2811165E38CE194E00E9442
:1047800069070F900F900F900F900F90DF91CF91CE
:104790001F910F91FF90EF90DF90CF90BF90AF905F
:1047A0009F908F900C94211180918904806146E044
:1047B000E4164CE5F40609F4A6C0809189048860EB
:1047C00057E0E5165CE5F50608F49DC08091890484
:1047D000806299C08CE0E8168CE5F80609F4AEC05A
:1047E00078F4809189048C60EAE0EE16ECE5FE0630
:1047F00009F489C008F49CC0809189048E7F83C02D
:1048000080918904877F2EE0E2162CE5F20609F4F8
:104810007AC0809189048B7F3FE0E3163CE5F30684
:1048200008F471C0809189048F7E6DC04DEFE4164D
:104830004CE5F40609F486C0A0F584E1E8168CE5A1
:10484000F80609F497C098F4E2E1EE16ECE5FE06EE
:1048500009F480C0809189048F7BF3E1EF16FCE5B9
:10486000FF0608F450C080918904837F4CC02BEF71
:10487000E2162CE5F20609F44DC008F051C045E1FE
:10488000E4164CE5F40609F0CBCB8091890482FB59
:10489000992790F921E0922790FB82F990FB83F908
:1048A00032C051E0E5165DE5F50609F459C098F40B
:1048B00080918A0483609FEFE9169CE5F90669F10F
:1048C00080918A048D7FE114EDE5FE0630F1809140
:1048D0008A048C7F22C0F3E0EF16FDE5FF0609F4A1
:1048E00058C008F450C032E6E3163DE5F30609F07F
:1048F00097CB90918904892F8F7E94FF806103C0AC
:10490000809189048160809389048ACB8091890495
:104910008460F9CF80918A04816080938A0480CB7F
:1049200080918A048260F9CF809189048064EBCF02
:104930000E94C51A809189048068E5CF809189041E
:104940008D7FE1CF80918A048E7FE7CF80918904AB
:104950008F7DD9CF0E94C51A809189048F77D3CFDC
:1049600080918A04982F909591708E7F892B90FB6F
:1049700081F9D3CF0E94C51A90918904892F97FBA2
:1049800087F98058C0CF61E08EE090E00E942D3220
:1049900047CB60E0F9CF85E36CC3992361F1809147
:1049A000810482724BECE4164CE5F40609F4F7C07E
:1049B00008F087C0E6ECEE16ECE5FE0609F4DBC075
:1049C00008F054C024ECE2162CE5F20609F4C9C044
:1049D00008F0CCC043ECE4164CE5F40609F4B3C08F
:1049E000E1148CE5F80609F4EDC0EFEDEE16ECE508
:1049F000FE0609F403C1F60110810181812F99237C
:104A000009F40FC1902F0E944211F82E682F812FB8
:104A1000902F0E94E511E02FF0E026E0F29EE00DDD
:104A2000F11D112443E0EE0FFF1F4A95E1F7E10F5E
:104A3000F11DEE0FFF1FE455FF4F859194910E94E9
:104A4000B90F182FB82EF60122814581342F3295E7
:104A50003F70892F82958F70E82EF12C8C3008F0F2
:104A600018C1F701E850FD4C0C94873158ECE5165D
:104A70005CE5F50609F489C008F482C0F9ECEF168C
:104A8000FCE5FF0609F486C042EF57E06EEF77E0E1
:104A90002AECE2162CE5F20609F0A2CF0F900F9057
:104AA0000F900F900F90DF91CF911F910F91FF907A
:104AB000EF90DF90CF90BF90AF909F908F900C942D
:104AC000BB0730EDE3163CE5F30609F479C040F589
:104AD0005DECE5165CE5F50609F46BC008F464C00E
:104AE000FEECEF16FCE5FF0609F468C084E02FEC4D
:104AF000E2162CE5F20609F073CF0F900F900F909D
:104B00000F900F90DF91CF911F910F91FF90EF9039
:104B1000DF90CF90BF90AF909F908F900C944B03FD
:104B200037EDE3163CE5F30638F481E142EDE41697
:104B30004CE5F40610F3A9C85EE5E5165DE5F5065B
:104B400009F4A3C84DCF8091210891E08927809373
:104B5000210810922501809120088160809320080F
:104B600094C844E358E06DE378E098CF4DE358E013
:104B700064E378E093CF42E258E06BE278E08ECFD6
:104B80004BE258E062E278E089CF4AE058E066E123
:104B900078E084CF46E158E06AE078E07FCF4EEFDE
:104BA00057E062EF77E07ACF46ED57E064EE77E0CA
:104BB00075CF44EE57E066ED77E070CF81E09DCF92
:104BC0008CE09BCF0E94C51AFFEF24E33CE0F1503C
:104BD00020403040E1F700C0000087E797E790935E
:104BE00001088093000888E19AE00FB6F894A89530
:104BF000809360000FBE90936000FFCF0F900F90E6
:104C00000F900F900F90DF91CF911F910F91FF9018
:104C1000EF90DF90CF90BF90AF909F908F900C94CB
:104C2000A41D902F0E94BD11F82EF5CE092F0F70F4
:104C3000907F11F00295007F812F2223C9F000237D
:104C400069F090E2910F983010F011110BC0809133
:104C50008104082B009381040E942111812F0E945E
:104C6000ED1217C080918004082B00938004F4CFCC
:104C70000E94B412002369F00095105E183010F005
:104C8000B11035C0809181040823009381040E94F3
:104C9000211198E0E91AF108E4E0EE16F10410F4AD
:104CA0000E94AF0785E0F601DE01119601900D929A
:104CB0008A95E1F789819A810E94BD11EA81F0E02D
:104CC00026E0829FE00DF11D1124CF0123E0880F23
:104CD000991F2A95E1F7E981E80FF92FF11DEE0FF1
:104CE000FF1FE455FF4F859194910C94451E8091D0
:104CF0008004082300938004CACF892F8F70907F8F
:104D0000903211F08295807FF1E0BF120EC0222315
:104D100031F0363008F0BDCF0E94AA12BACF35303C
:104D200008F0B7CF0E949F12B4CF222341F0332363
:104D300099F340FF93CF4F70F6014583EDCF3323B6
:104D400089F3193309F06FC1FFEF27EE33E0F1501B
:104D500020403040E1F700C00000812F0E94B412D3
:104D600098CF892F86958695837061F0813009F000
:104D700090CF812F9370211102C090E080E00E94BB
:104D8000830787CF812F9370211102C090E080E0CC
:104D90000E9499077ECF892F837009F065C0211189
:104DA00078CF812F829586958770880F880F612F25
:104DB0006F70862E912CB12CA12C082E04C0880C6B
:104DC000991CAA1CBB1C0A94D2F740E050E0BA011F
:104DD00014FF0FC04FE050E060E070E004C0440FEB
:104DE000551F661F771F8A95D2F74095509560959D
:104DF0007095969596959370923019F1D8F400912C
:104E000082041091830420918404309185049130B0
:104E100069F0482959296A297B29CB01BA01602305
:104E20007123822393230E94951233CF802A912AE3
:104E3000A22AB32ACB01BA01682979298A299B2998
:104E4000F2CF482959296A297B29009182041091BF
:104E500083042091840430918504CB01BA0160273A
:104E6000712782279327DFCF8695222311F0892F80
:104E70008170882309F40DCF812F829586958770E4
:104E8000880F880F612F6F70862E912CB12CA12C6A
:104E9000082E04C0880C991CAA1CBB1C0A94D2F7CB
:104EA00040E050E0BA0114FF0FC04FE050E060E076
:104EB00070E004C0440F551F661F771F8A95D2F714
:104EC0004095509560957095969596959370923013
:104ED00019F1D8F4009173051091740520917505AE
:104EE00030917605913069F0482959296A297B2942
:104EF000CB01BA0160237123822393230E944712BE
:104F0000C8CE802A912AA22AB32ACB01BA016829E5
:104F100079298A299B29F2CF482959296A297B298D
:104F200000917305109174052091750530917605F7
:104F3000CB01BA016027712782279327DFCF092F82
:104F40000F70222329F0802F0E947412812FE4CE4B
:104F5000812F0E949F12802F0E9451129ACE812F82
:104F6000E1EF1E1709F442C0E11758F0F0EF1F17E8
:104F7000F1F0222309F44BC0311170CE892F8F71CB
:104F80003AC042EF1417D1F153EF1513F2CF222399
:104F9000D1F1292F2F7161E070E080E090E004C032
:104FA000660F771F881F991F2A95D2F7A7CF222354
:104FB000C9F0353008F06DCE292F2F7161E070E017
:104FC00080E090E004C0660F771F881F991F2A9524
:104FD000D2F70091730510917405209175053091F9
:104FE0007605A8CF363008F054CEE6CF892F8F71E2
:104FF000222309F4B1CF0E9474124BCE892F8F71F6
:105000002223C9F3A9CF60E070E0CB0177CF33232F
:1050100079F0893341F48FEF97EEE3E081509040CF
:10502000E040E1F798CE8FE39CE90197F1F793CE4A
:10503000892F8F7191CF85E0DE01119601900D923D
:105040008A95E1F7F601228189819A8121110C94D8
:10505000571E0E94BD11F82E0C945F1EF6E1EF164C
:10506000FCE5FF0609F0C7CC80912804811193CCA0
:1050700089E2EEE1F4E024E234E09191891303C087
:10508000DF0111971C922E173F07B9F77ACB1F93B8
:10509000CF93DF9380914C04807FA9F480914904E1
:1050A000882389F080917E04D0914D04609147045B
:1050B00070914804A0914A04B0914B04C62FC723B5
:1050C00016E0D81304C0DF91CF911F91089590E0AE
:1050D000109711F0CF3F19F401968770F2CF189F07
:1050E0009001199F300D1124F901E25BFB4F4181C2
:1050F0004713F2CF40814613EFCF42814111ECCFED
:10510000438154814A1B5B0B483C510528F7809131
:105110004C048F70806180934C04F901ED5AFB4F71
:1051200080818F708061808387E494E00E94261ED6
:10513000DF91CF911F910C943811AF92BF92CF9213
:10514000DF92EF92FF920F931F93CF93DF93CDB730
:10515000DEB761970FB6F894DEBF0FBECDBF8C01EE
:1051600085E0F801DE011D9601900D928A95E1F728
:10517000F801E28087E4A82E84E0B82E60914A040A
:1051800070914B046115710509F432C19091470487
:1051900040914804892F84238F3F09F429C120813D
:1051A0003181C380D480F0904904F601E61BF70BEF
:1051B000FF2009F4E8C080914C04582F507FE83C50
:1051C000F10508F0ABC0511177C0FE2C431321C08C
:1051D00092131FC0E1101DC08F70806180934C043A
:1051E000C5010E94261E80914C04F80185838F2DF5
:1051F00061960FB6F894DEBF0FBECDBFDF91CF91A1
:105200001F910F91FF90EF90DF90CF90BF90AF90E4
:105210000895CD2829F0822F83238F3F09F003C101
:1052200080E0F82FF170DF2E80FF3CC080917E047B
:1052300040914D0456E0841315C02D873E878D851F
:105240009E850E94A111292F22952F702230F0F007
:10525000243018F59F70F1F0F8019581907FD1F41A
:10526000D12C1EC090E0589FF001599FF00D1124E1
:10527000E25BFB4F6181361306C06081261303C0D9
:105280006281E6120FC001968770D5CF9F7011F032
:10529000882331F3805E883018F3C8010E94261EEF
:1052A000FD2CA5CFEE2009F4A2CF80914C048160A3
:1052B00080934C04F12C9BCF431306C0921304C07F
:1052C000F801EE2009F479C0C8010E941212882367
:1052D00009F1EE20F9F080914C04803270F02091B9
:1052E00047043091480438872F831986DB86CA86A5
:1052F0008C87CE0107960E94261E86E0F801A7E45F
:10530000B4E001900D928A95E1F70E944728FF24AE
:10531000F3946DCFC8010E94261EF9CF51110AC027
:1053200087E494E00E94261E86E0F50111928A959A
:10533000E9F7C0CF43130FC092130DC0E1100BC0AB
:10534000F8018583C8010E94261E86E0F5011192AE
:105350008A95E9F74CCFC8010E9412128823D1F236
:10536000EE20C1F280914C04803238F22091470443
:10537000309148043A8329831B82DD82CC828E835C
:10538000CE010196B8CFE83CF105F8F6FE2CEE20F0
:1053900009F243131FC092131DC080914C0480FD7D
:1053A00010C0982F907F69F0F8018583903F31F00D
:1053B000982F907F905F8F70892B8583C8010E9402
:1053C000261E86E0F801A7E4B4E001900D928A95CC
:1053D000E1F70DCFC8010E94121281118ECF80918A
:1053E0004C04816080934C04C8010E94261EFFCEAD
:1053F000EE2009F48FCFC8010E941212F82E8823E4
:1054000009F488CF86E0F801A7E4B4E001900D929A
:105410008A95E1F780914704909148040E94A11178
:105420000E944728E4CE81E08E25FBCE1F93CF93C8
:10543000DF93CDB7DEB767970FB6F894DEBF0FBE28
:10544000CDBF4B8B5C8B6D8B7E8B8F8B61111092E4
:1054500080041A8A198A85E0FE017396DE011D9682
:1054600001900D928A95E1F786E0FE013D96DE01FE
:10547000179601900D928A95E1F7CE0107960E944A
:105480009D28882389F016E080917E0490914D0438
:10549000891349C067960FB6F894DEBF0FBECDBF23
:1054A000DF91CF911F91089586E0FE013796DE01CE
:1054B000119601900D928A95E1F78A859B85892B3B
:1054C00011F38F81988589238F3FE9F220914D0454
:1054D00030E0C90101968770992740917E044817F2
:1054E000190671F40E94C51A10924D0410927E04A0
:1054F00086E0E7E4F4E0DF011D928A95E9F7C3CF87
:1055000096E0929FD001939FB00D1124A25BBB4FF8
:10551000FE01319601900D929A95E1F780934D042A
:105520000E943811B0CF819FC0011124825B9B4F34
:105530000E949D28882309F4ADCF80917E0490E0DD
:1055400001968770992780937E049ECF9F92AF9299
:10555000BF92CF92DF92EF92FF920F931F93CF9360
:10556000DF93CDB7DEB72B970FB6F894DEBF0FBE33
:10557000CDBF8E010F5F1F4F86E0F80111928A9513
:10558000E9F78AEEC82E81E0D82EF12CE12CAA246E
:10559000A394B12CF60181916F018F3F09F443C0B0
:1055A000F894E82FE295EF70F0E021A18F70A5014B
:1055B00002C0440F551F8A95E2F7CA01922F982B1B
:1055C00091A392A18095892382A3789400C0E0EFF3
:1055D000F1E0912C31E021912F3F09F46EC0A22F10
:1055E000A295AF70B0E090968C9190E02F7002C0C1
:1055F000959587952A95E2F780FD5FC0832F982ABD
:10560000330F51E0E83FF50731F7F601319780811C
:105610008F3F11F00E945F0F80EA8A95F1F7F80141
:10562000EE0DFF1D9082EFEFEE1AFE0AF6E0EF1688
:10563000F10409F0AFCF46E050E0B8018BE894E008
:105640000E94E931FF24F394009709F4F12C892B8F
:10565000B1F186E0F801ABE8B4E001900D928A95D3
:10566000E1F781E0809388040E945D0790938704AE
:105670008093860480918604909187040E944E074F
:10568000059708F180918B048093DA0480918C0453
:105690008093DB0480918D048093DC0480918E04E0
:1056A0008093DD0480918F048093DE0480919004C8
:1056B0008093DF041092880406C080E0A0CF809120
:1056C00088048111D7CF8091E0048823A9F08695C2
:1056D00031F187E08F8382E0888719860E945D0719
:1056E0008160782F9B878A871092E0044F815885CC
:1056F00069858B850E94162A8F2D2B960FB6F894FC
:10570000DEBF0FBECDBFDF91CF911F910F91FF90F4
:10571000EF90DF90CF90BF90AF909F90089587E07B
:105720008F8381E0D9CF1F920F920FB60F92112471
:105730002F933F934F935F936F937F938F939F9399
:10574000AF93BF93CF93DF93EF93FF93D091E90093
:10575000DF708091EC00C82FC17080FDC0E810920E
:10576000E9008091F000877F8093F00078940E9498
:10577000D01A1092E9008091F00088608093F000C8
:10578000CD2BCF70C093E900FF91EF91DF91CF91C6
:10579000BF91AF919F918F917F916F915F914F9149
:1057A0003F912F910F900FBE0F901F9018951F9251
:1057B0000F920FB60F9211242F933F934F935F9345
:1057C0006F937F938F939F93AF93BF93EF93FF93C9
:1057D0008091E10082FF09C08091E20082FF05C054
:1057E0008091E1008B7F8093E1008091DA0080FF5F
:1057F00024C08091D80080FF20C08091DA008E7F85
:105800008093DA008091D90080FF9DC080E189BD3E
:1058100082E189BD09B400FEFDCF81E08093EF06EF
:105820008091E206811109C00E9493040E945E05E6
:105830008091E20084608093E2008091E10080FF2B
:1058400017C08091E20080FF13C08091E2008E7F3C
:105850008093E2008091E20080618093E200809179
:10586000D80080628093D80019BC85E08093EF0651
:105870008091E10084FF2BC08091E20084FF27C06B
:1058800080E189BD82E189BD89B5982F917080FF43
:10589000FBCF8091D8008F7D8093D8008091E1006C
:1058A0008F7E8093E1008091E2008F7E8093E20002
:1058B0008091E20081608093E2008091F00688236D
:1058C00009F447C084E08093EF068091EF06809151
:1058D000E10083FF27C08091E20083FF23C0809115
:1058E000E100877F8093E10082E08093EF061092D1
:1058F000F0068091E1008E7F8093E1008091E200CC
:105900008E7F8093E2008091E20080618093E200CC
:1059100042E060E080E00E942C058091F000886009
:105920008093F000FF91EF91BF91AF919F918F9184
:105930007F916F915F914F913F912F910F900FBE8B
:105940000F901F90189519BC1092EF061092E20666
:1059500074CF8091E30087FD93E09093EF06B5CF7D
:1059600078941F921FB61F9211248F939F93AF9329
:10597000BF938091DB069091DC06A091DD06B0918B
:10598000DE060196A11DB11D8093DB069093DC0617
:10599000A093DD06B093DE06BF91AF919F918F91EA
:1059A0001F901FBE1F9018951F921FB61F921124A3
:1059B0008F939F93AF93BF938091DA06811113C0A9
:1059C0008091DB069091DC06A091DD06B091DE06A9
:1059D0004196A11DB11D8093DB069093DC06A09338
:1059E000DD06B093DE06BF91AF919F918F911F901E
:1059F0001FBE1F901895CDB7DEB760970FB6F8940D
:105A0000DEBF0FBECDBF0E94400F1092550710920F
:105A100057071092560780EC80931A0888E597E0A4
:105A200090931C0880931B08109219081092180874
:105A300010923507109234071092370710923607EC
:105A4000109239071092380710923B0710923A07CC
:105A500010923D0710923C0710923F0710923E07AC
:105A6000109241071092400710924307109242078C
:105A7000109245071092440710924707109246076C
:105A8000109249071092480710924B0710924A074C
:105A900010924F0710924E0783EF96E090933107D4
:105AA0008093300787E496E09093510780935007E6
:105AB00083E296E090934D0780934C0782E296E054
:105AC000909333078093320784B7877F84BF0FB6E4
:105AD000F894A8958091600088618093600010928E
