:100000000C943B020C9482020C9482020C948202A7
:100010000C9482020C9482020C9482020C94820250
:100020000C9482020C9482020C94D0230C94A4248D
:100030000C94561A0C9482020C9482020C94820244
:100040000C9482020C9482020C9482020C94820220
:100050000C9482020C94AD1A0C9482020C948202CD
:100060000C9482020C9482020C9482020C94820200
:100070000C9482020C9482020C9482020C948202F0
:100080000C9482020C9482020C9482020C948202E0
:100090000C9482020C9482020C9482020C948202D0
:1000A0000C9482020C9482020C948202A843B95CE4
:1000B0005E5D5F5DBA5C3B5C3C5C00003D5C3E5C51
:1000C0003F5C405C415C425C435C0000445C455CDE
:1000D000465C475C485C495C4A5C00004B5C4C5C9D
:1000E0004D5C4E5C4F5C505C515C0000525C535C5C
:1000F000545C555C565C575C585C0000595C5A5C1B
:100100005B5C5C5C5D5C5E5C5F5C00000100010050
:10011000905C915C01000100010000000100010001
:1001200001000100010001000100000001000100C8
:1001300001000100010001000100000001000100B8
:1001400001000100010001000100000001000100A8
:100150000100010001000100010000000100010098
:100160000100010001000100010000000100000089
:10017000000000000000000000000000000000007F
:10018000000000000000000000000000000000006F
:10019000000000000000000000000000000000005F
:1001A000000000000000000000000000000000004F
:1001B000000000000000000000000000000000003F
:1001C00000000000000000000000000001009C5C36
:1001D000815C825C9D5C615D625D0000025200009A
:1001E000000000000000000000000000000000000F
:1001F00000000000000000000000000000000000FF
:1002000000000000000000000000000000000000EE
:10021000C85C0000C65C0000CC5C00000000CA5C4A
:100220000000C45C0000605D0000000000000000F1
:10023000000000002A2B2800000000000000000041
:100240000000000000000029000000002C1E3420E7
:10025000212224342627252E362D3738271E1F200D
:100260002122232425263333362E37381F04050652
:100270000708090A0B0C0D0E0F1011121314151696
:100280001718191A1B1C1D2F3130232D3504050694
:100290000708090A0B0C0D0E0F1011121314151676
:1002A0001718191A1B1C1D2F3130354C0000000087
:1002B000000000000000000000000000000000003E
:1002C000000000000000000000000000000000002E
:1002D0007E0F00D4FFFFFFC7000000781E036300FD
:1002E000680072006F006D00610074006F006E00A6
:1002F00065006D0069006E00690000000E033300A8
:1003000061007200610068007400000004030904C9
:100310000902BF00050100A0FA0904000001030161
:100320000100092111010001224000070581030895
:10033000000A090401000203000000092111010064
:100340000122220007058203200001070503032084
:10035000000109040200010300000009211101004D
:10036000012232000705840320000A080B03020162
:10037000010000090403000001010000092401003C
:10038000010900010409040400020103000007241C
:1003900001000141000624020101000624020202BC
:1003A00000092403010301020100092403020401DE
:1003B00001010009050602400005000005250101B4
:1003C0000109058502400005000005250101031211
:1003D00001100100000008EDFEB4F401000102006C
:1003E000010660FF0961A1010962150026FF009561
:1003F00020750881020963150026FF009520750805
:100400009102C005010980A101850319012AB700E5
:10041000150126B700950175108100C0050C090172
:10042000A101850419012AA002150126A002950147
:1004300075108100C005010906A101050719E02911
:10044000E715002501950875018102950175088160
:10045000010507190029FF150026FF0095067508FC
:10046000810005081901290595057501910295017D
:1004700075039101C00011241FBECFEFDAE0DEBF8B
:10048000CDBF04B603FE27C08091B0039091B103A5
:10049000A091B203B091B3038730904BA740B04B0B
:1004A000D1F41092B0031092B1031092B2031092E3
:1004B000B30314BE84B7877F84BF0FB6F894A895A2
:1004C00080916000886180936000109260000FBE90
:1004D000E0E0F8E3099511E0A0E0B1E0ECE0FEE433
:1004E00002C005900D92A83BB107D9F723E0A8EB15
:1004F000B1E001C01D92A03BB207E1F70E948A2043
:100500000C94CD260C940000882311F0815008959E
:100510008BE008958B3010F48F5F089580E008958C
:10052000EEEAF2E08081807F8260808361E070E0AB
:1005300080E090E00C94F316EEEAF2E080818F7098
:1005400080831092BA0108958F352DE5920741F10D
:1005500028F48E359D45C9F081E0089581362DE55A
:10056000920751F082369D45B9F70E949C0262E0E5
:1005700070E080E090E006C00E949C0261E070E0C4
:1005800080E090E00E94F316E7CFFB018281882390
:1005900019F38091BA010E9484028093BA01DCCFE2
:1005A000FB0182818823C1F28091BA010E948A02F4
:1005B000F4CF811106C089EA611101C08AEA0E9464
:1005C000D61181E0089581E008950C94A402089565
:1005D0000C94E7021F93CF93DF9300D000D00F92CB
:1005E000CDB7DEB749835A836B8330912A02898164
:1005F0009A8131111DC06623B9F02223A9F00E940F
:100600004618182F682F89819A810E94F1176981F5
:100610007A81812F0F900F900F900F900F90DF91A4
:10062000CF911F910C94080D0E941E18182FEFCF28
:100630000E94461869817A81EDCFFC01262F408106
:1006400051816281738184810C94EA02CF93DF939C
:10065000EC0160E00E941D03BE01DF91CF910C947C
:10066000E8028F929F92AF92BF92CF92DF92EF9269
:10067000FF920F931F936B017C0181E090E0A0E05B
:10068000B0E04C015D0104C0880C991CAA1CBB1C85
:100690004A95D2F7B501A4014C015D0104C0880C54
:1006A000991CAA1CBB1C2A95D2F7482959296A29EA
:1006B0007B2904C0880F991FAA1FBB1F0A95D2F778
:1006C0008A019B010C211D212E213F2104171507B2
:1006D0002607370789F48C299D29AE29BF29BC013B
:1006E000CD011F910F91FF90EF90DF90CF90BF90C1
:1006F000AF909F908F90089580959095A095B0951C
:100700008C219D21AE21BF21EACF0F93382F262FB8
:1007100060918102709182028091830290918402A3
:10072000042F432F0E9431030F910C942F170E9426
:100730009A060C94BF060C94C20608950E94D31327
:100740000E949D032FEF84E39CE021508040904065
:10075000E1F700C000000C94D11A0F931F93CF93C0
:10076000DF93EC0161E00E941D038C01BE010E9439
:100770004F0B882389F1BE01C8010E94E50288233E
:1007800059F1BE01C8010E94F707882329F1BE0173
:10079000C8010E943F0E8823F9F0BE01C8010E94E3
:1007A000910E8823C9F0BE01C8010E94B40F8823AE
:1007B00099F08A81882339F001158CE5180751F0EA
:1007C0000E3D1C4579F0CE01DF91CF911F910F9125
:1007D0000C94E3020E949E0380E0DF91CF911F9171
:1007E0000F9108950E94BC19F7CFDF92EF92FF920C
:1007F0000F931F93CF93DF93E82FF0E0E45DFD4F5D
:10080000D490282F26952695269530E0F901E453BB
:10081000FD4F0491877010E0082E02C015950795D2
:100820000A94E2F701701127F901E454FD4FE490B6
:10083000F12C082E02C0F594E7940A94E2F791E0B7
:10084000E922FF24F901E455FD4FC491D0E002C034
:10085000D595C7958A95E2F7C170DD270115110579
:1008600019F081EE0E945111E114F10419F086EEA5
:100870000E9451118D2D0E94D611EF2819F086EE9D
:100880000E949711012B19F081EE0E949711CD2B38
:1008900051F08CE2DF91CF911F910F91FF90EF907B
:1008A000DF900C94D611DF91CF911F910F91FF90A3
:1008B000EF90DF900895EF92FF920F931F93CF93E5
:1008C000DF93EC01162F0AE08881882309F454C0D5
:1008D000813009F04EC08981813099F47E0122E097
:1008E000E20EF11C8A810E94D611E7012196812F28
:1008F000815050F3EFE9FFE03197F1F700C00000BD
:10090000F7CF823041F47E0182E0E80EF11C8A814B
:100910000E945111EACF833041F47E01E2E0EE0EF5
:10092000F11C8A810E949711E0CF843011F021964A
:10093000DDCF2A81229690E080E0AE014F5F5F4FCD
:100940002053330B2A30310548F0019778F2EFE954
:10095000FFE03197F1F700C00000F7CF089FB0012A
:10096000099F700D1124C901860F971F2981EA0183
:10097000E4CF0E94F503BACFDF91CF911F910F9181
:10098000FF90EF90089560E00C945B0408950C9440
:10099000C60481E008950C94C904CF93C82F0E9427
:1009A000C7048C2FCF910C94CB04CF93DF930E947C
:1009B000080D0E94A805EC01811521E5920778F544
:1009C000811530E5930708F076C08F3B910580F4E0
:1009D000883A910508F064C0853A910508F058C03E
:1009E0008430910588F4019779F0D0E0C0E00CC024
:1009F0008115904268F4C11581E0D80728F4CE0132
:100A0000805E9109089788F7CE01DF91CF91089514
:100A1000C11590E4D90748F3DF70D06AF5CF81158E
:100A200024E5920778F4811533E5930708F06FC049
:100A3000811542E5940708F05AC0D82FCC27C16F22
:100A4000D06AE2CFC1158AE5D80770F4C11599E5DF
:100A5000D90708F06FC0C11528E5D20730F2DC2FA6
:100A6000CC27C06FD06AD0CFCE019056811590426E
:100A700008F0BBCF8D2F8F710E943F0690E0982F1A
:100A8000882788279F719C012C2BE901D062BCCF5D
:100A9000C55AD0E0C95BDE4FC881D0E0D064B4CF86
:100AA000C85AD0E0CC0FDD1FC75EDE4F0990D88159
:100AB000C02DD464A9CF64E0969587956A95E1F737
:100AC00083702C2F26952695237040E2249F900159
:100AD0001124382B8C2F8370C1E0D0E002C0CC0FE2
:100AE000DD1F8A95E2F7C22BD32BDC688DCF837094
:100AF000992721E030E002C0220F331F8A95E2F7E8
:100B0000C695C69580E2C89FE0011124ECCF8370A2
:100B1000992721E030E002C0220F331F8A95E2F7C7
:100B2000C695C69590E2C99FE0011124C22BD32B34
:100B3000DA686ACF8C2F8F700E943F0634E0D6951A
:100B4000C7953A95E1F7CF709C2FEC01D0695CCF47
:100B500082389105B1F1B0F48133910509F475C083
:100B600048F48932910509F469C08A32910509F483
:100B700073C008958533910509F459C089339105EF
:100B800001F10895833E9105A9F138F4803E910565
:100B9000F9F0823E910549F10895863E9105A9F14B
:100BA000873E9105C9F1843E910519F52091A10276
:100BB00021FF1FC08091A00284FD14C087EE90E049
:100BC00008952091A0022370A1F080EE90E0089596
:100BD0002091A00220FD47C03091A10230FF09C042
:100BE00024FF44C090E080E004C02091A00222FDD8
:100BF000F7CF08952091A00222FD3BC03091A102C1
:100C000030FDE3CF24FFF5CFEDCF2091A00223FFED
:100C1000F0CF24FDE7CFD2CF2091A00223FD2CC03E
:100C20003091A10231FFEECF84EE90E00895209143
:100C3000A00225FFDECF89E290E008952091A00276
:100C400025FFD7CF85E390E008952091A00226FFED
:100C5000D0CF8AE290E008952091A00226FFC9CF6C
:100C600081E390E0089589E390E0089583EE90E0B9
:100C7000089582EE90E0089586EE90E008959091B8
:100C8000A00292FF06C0282F28712830F9F4877F30
:100C9000846093FF06C0282F28712831F1F4877EE5
:100CA00084612091A10220FF06C0382F38713830AE
:100CB000D9F4877F816021FF06C0282F2871283151
:100CC000D1F4877E816194FD877E0895282F247159
:100CD0002430F9F68B7F8860DCCF282F24712431F3
:100CE00001F78B7E8861DDCF382F3171313019F7F4
:100CF0008E7F8860E0CF282F2171213121F78E7EF1
:100D00008861E1CF0C94290B0E941D078FE39CE9B9
:100D10000197F1F700C000000E941D0780E00E94CB
:100D2000C40680FF04C00E9482060C94D11A089564
:100D30000C9484060E941719811102C00E94BC19EC
:100D40000E942219809394020E942A199093A10272
:100D50008093A0020E9498060E942619682F70E0D6
:100D600090E080E00E94F31660918102709182020F
:100D700080918302909184020C942D1708950C9415
:100D8000BE0608950C94C106E82FF0E0E855FD4F2B
:100D900080810895089580EA8A95F1F7089500C04A
:100DA00008950C94CB06F894E82FE295EF70F0E0EC
:100DB00031A1282F2F7081E090E001C0880F2A9583
:100DC000EAF7982F9095932391A392A1892B82A360
:100DD000789408950F931F93CF93DF9386EC0E942E
:100DE000D30687E90E94D30686E60E94D30684E9EB
:100DF0000E94D30680E90E94D30681E90E94D306AF
:100E0000CAE4D1E002E511E089910E94D3060C17F3
:100E10001D07D1F7E2EAF2E0A8EAB2E011921D92D2
:100E200082E0E83AF807D1F786E00E949407DF9164
:100E3000CF911F910F910C949703CF92DF92EF9275
:100E4000FF920F931F93CF93DF93C2E5D1E002EAA5
:100E500012E0D12CEE24E394F12C8991F894E82F40
:100E6000E295EF70F0E021A18F70A70102C0440F5E
:100E7000551F8A95E2F7CA01922F982B91A392A150
:100E80008095892382A378940E94CF06EAE4F1E05A
:100E900030E020E0C12C4191A42FA295AF70B0E0CA
:100EA00090968C9190E04F7002C0959587954A95E9
:100EB000E2F780FD35C08E2D022E01C0880F0A9406
:100EC000EAF7C82A2F5F3F4F2830310521F7FE018E
:100ED000319780810E94D3060E94D106F80180815B
:100EE000C81601F1C08281E0D82A0F5F1F4FF1E0E0
:100EF000C835DF0709F0B1CF2D2D46E068EA72E072
:100F000082EA92E00E9495070E949B038D2DDF915B
:100F1000CF911F910F91FF90EF90DF90CF900895A8
:100F200080E0CFCF80E0E0CF0895FF920F931F9332
:100F3000CF93DF93F82E092F162FD72FC42F2223FC
:100F400049F081E08093BD010E94861A9093BC0114
:100F50008093BB018091BD018823A1F08091BB01EA
:100F60009091BC010E949E1A069760F0EF2DF02F21
:100F7000A12FBD2FCE0FDF2FD11DEC17FD0741F4A0
:100F80001092BD01DF91CF911F910F91FF900895B5
:100F900081918D93F2CF84E08093AE028FE78093AE
:100FA000AF028091B002807880648093B002E2EC5E
:100FB000F1E08FEF819392E0EA30F907D9F71092D0
:100FC000C1011092C0011092BF011092BE0108959C
:100FD0009091AE02292F2F709595959595959595A1
:100FE0009F523CE0239F900D1124890F0895FF929A
:100FF0000F931F93CF93DF93FB018E3A2CE592075B
:1010000008F085C08E394CE5940708F08DC1803911
:101010002CE5920750F583384CE5940708F040C161
:1010200081382CE5920760F487374CE5940708F087
:101030001FC18F322CE5920708F0DFC0C1E011C15B
:1010400081384CE5940709F420C182389C45B1F7FA
:101050008281882309F4EBC08091AE02982F9F70A3
:10106000993008F0E4C09F5F19C18C394CE59407B2
:10107000A0F582392CE5920708F02FC180394CE5A4
:10108000940709F418C181399C45C1F682818823EF
:1010900009F4CDC02091AE02822F85958595859566
:1010A000859586300CF0C3C091E0980F9295907FA3
:1010B0009595959595959595392F3295307F2F700B
:1010C000232B2093AE0218160CF0B1C097FFAFC0CF
:1010D0008295807F922F9F70D4C08C394CE5940705
:1010E00009F409C18D399C4509F0A8CF8281882374
:1010F00009F49DC08091AF02982F9F779F3709F424
:1011000096C0933708F00EC1935F9F77F2C0843B7F
:101110004CE5940709F466C1C8F5803B4CE594079B
:1011200009F432C1D8F48E3A4CE5940709F40EC1A3
:101130008F3A9C4509F082CF8281882309F477C0D9
:101140002091AF02322F331F3327331F9091B0020B
:10115000892F8770880F832B8F5F09C16091AF0241
:101160003091B0022281823B4CE5940709F42EC1F4
:1011700008F420C121112FE7862F881F8827881F98
:10118000632F6770660F682B42E40FC1873B2CE525
:10119000920709F43AC180F4853B2CE5920709F4E3
:1011A00021C1863B9C4509F049CF828181112BC129
:1011B0008FEF8093C0013BC0893B2CE5920709F477
:1011C0005AC108F443C18A3B9C4509F037CFC2811C
:1011D0006091AF02862F881F8827881F6091B00218
:1011E0006770660F682BCC2309F455C14FEF5FE1A0
:1011F00086EB92E00E94441B1AC02091AF02322F6E
:10120000331F3327331FD091B002D770DD0FD32B9C
:10121000F22EE894F7F8C28101ED080F10E00E53AA
:101220001E4FF8014081CC2389F04F3F11F0C0E000
:1012300018C00E94E807C82F2F2D482F6D2F86EB6E
:1012400092E00E94241BF801C083F1CF4F3F31F0A0
:101250002F2D6D2F86EB92E00E94341B8FEFF8014B
:1012600080838C2FDF91CF911F910F91FF90089574
:1012700022812223E1F28757982F9F708091AE023E
:10128000807F892B8093AE02D2CF8281882379F22E
:101290008091AE02982F9F7051F2915F9F70F0CFB6
:1012A0002281222321F28958982F9295907F809154
:1012B000AE028F70E6CF8281882309F4B8CF809187
:1012C000AE02982F95959595959595959B3F0CF425
:1012D000AECF915F9295907FECCF2281222309F4CB
:1012E000A6CF82599EE0899F902D11249F778091EF
:1012F000AF02807815C08281882309F498CF80914D
:10130000AF02982F9F7709F492CF80789F3721F40E
:1013100085678093AF028BCF9D30D8F39D509F7728
:10132000892BF7CF8F67F5CF2281222309F47FCF56
:101330008E599091AF0280FB97F99093AF028695FA
:1013400087709091B002987F892B7DC0828188231D
:1013500009F46DCF2091AF02322F331F3327331F93
:101360009091B002892F8770880F832B815F382F6F
:101370003F7080FB27F92093AF02832F8695987FDB
:10138000982B9093B00253CF8281882309F44FCFDA
:101390006091AF02862F881F8827881F6091B00256
:1013A0006770660F682B20E04BE786EB92E00E94A7
:1013B000141B3DCF21112FE7862F881F8827881FF8
:1013C000632F6770660F682B40E4EFCF21112FE782
:1013D000862F881F8827881F632F6770660F682BEA
:1013E00041E4E3CF828120E081112FE76091AF02D9
:1013F000862F881F8827881F6091B0026770660F4C
:10140000682B43E4D2CF81E0D4CE8281882309F4D3
:101410000ECF9091B002292F2695269526952F70F4
:1014200081E0820F8F70880F880F880F9778892B43
:101430008093B002982F987709F0F9CE220F220FEF
:10144000220F8778822B8093B002F1CE828188238D
:1014500009F4EDCE8091B002982F987709F4E7CE89
:10146000982F969596959695915F9F70990F990FE5
:10147000990F877869CFC2816091AF02862F881F4C
:101480008827881F6091B0026770660F682B40E064
:1014900050EEC111ADCE50E040E086EB92E00E94EC
:1014A000441BDFCE86EB92E00E94461D8091BE0178
:1014B0009091BF010E949E1A2091B0022695269518
:1014C00026952F702817190609F0A0F50E94861A94
:1014D0009093BF018093BE018091C001882351F198
:1014E0006091AF02862F881F8827881F6091B00205
:1014F0006770660F682B2091C10141E086EB92E096
:101500000E94141B8091C0019091C10187FF0DC002
:10151000482F552741950CF45095941715062CF437
:101520001092C1011092C0010895890F87FD03C078
:101530008093C10108958FE7FBCF0C94D9022598C1
:101540002D9A24982C9A83B185FB882780F91C99C1
:1015500005C090E0892B80930C02089592E0FACFA9
:10156000E0910C02EE0FEE0FE0930C0243B145FB4D
:10157000882780F943B144FB222720F944FF02C0A9
:1015800022E030E0822BE82BE0930C02EF70F0E0D9
:10159000E85AFE4F808190910B02890F80930B02D5
:1015A00020E0843054F080910A028F5F80930A0219
:1015B00060E080E00E949D0A21E080910B028D3F57
:1015C00054F480910A02815080930A0261E080E025
:1015D0000E949D0A21E080910B02082E000C990BBD
:1015E00064E070E00E946A2680930B02822F0895C7
:1015F00083E290E00E948B26813289F484E290E0BD
:101600000E948B26863059F485E290E00E948B265A
:1016100091E0883009F090E0892F8170089580E092
:10162000FCCFCF93C82F6FEF811161E283E290E08E
:101630000E9499266FEFC11166E084E290E00E945B
:1016400099266FEFC11168E085E290E0CF910C948C
:10165000992680E00E94110B0C941119089586E2DE
:1016600090E00E948B26682F70E090E080E0089563
:1016700086E290E00C9499260E942E0B0E94F80AB4
:1016800081110CC060E070E0CB010E94380B0E9419
:10169000800C0E946C0D81E00C94110B0895CF9387
:1016A000FB01C281CC2309F19C0122513F4520312D
:1016B000310520F582510E947C0DC0E08C2FCF9126
:1016C000089581E00E94551743E062E081E00E94A6
:1016D0008503F3CF81E00E94761743E062E081E06A
:1016E0000E948503EBCF82E0F6CF8031FFE59F07B4
:1016F00089F381319F45B9F3C1E0E0CF8031EFE557
:101700009E07F9F281319F45C9F682E0DBCF2FEFCA
:10171000FC0120830895EF92FF920F931F93CF93C4
:10172000DF93EC01062FE881E150E33108F05EC061
:10173000F0E0E153F94D0C947E26198289E08A830A
:10174000602FCE01DF91CF911F910F91FF90EF900D
:101750000C946B1F8981823069F0833071F0813085
:10176000D9F40E94921A0E9484266A837B838C8318
:101770009D83E6CF0E942F0BF6CF7E0182E0E80E1C
:10178000F11C10E0812F0E94C406F70181937F01B4
:101790001F5F1630B9F7D4CF602FCE010E94870BA0
:1017A000CFCF89818230C1F76A817B818C819D8115
:1017B0000E9484260E94380BC3CF4B816A818981A5
:1017C0000E94520C9827892798279D838C83B8CF35
:1017D0002C813D813227232732274B816A818981E1
:1017E0000E946B0CADCF0E94800CAACF8FEF888334
:1017F000A7CF0E94150D8983A3CF0E94170D9827AC
:10180000892798279A8389839BCF6B8170E0898190
:101810009A81AE014C5F5F4F9827892798270E94D5
:101820001A0D8ECF6B8170E089819A81AE014C5F79
:101830005F4F9827892798270E94410D81CF0E94EA
:101840006C0D7ECF0E943F0CD6CF6B8170E08981FA
:101850009A81AE014C5F5F4F9827892798270E9495
:10186000B80C6ECF6B8170E089819A81AE014C5FBC
:101870005F4F9827892798270E94DE0C61CF84E06C
:10188000089590E1699FB001112450E0440F551F65
:10189000640F751F90E6899F600D711D1124CB01A7
:1018A000879608950F931F93CF93DF930E94410C67
:1018B0008C010E948B26C82FD0E0DC2FCC27C801DA
:1018C00001960E948B269E01282BC901DF91CF91A2
:1018D0001F910F9108950F931F93CF93DF93122FB2
:1018E000032F0E94410CEC01602F0E949926612F6A
:1018F000CE010196DF91CF911F910F910C94992603
:10190000AF92BF92CF92DF92EF92FF921F93CF934D
:10191000DF938CEAC82E80E0D82ED0E07601C0E0BC
:1019200014C0F50125913491412F6C2F8D2F0E9409
:101930006B0C82E0A80EB11C1F5F183091F780E19C
:10194000E80EF11CCF5FC63019F0570110E0E9CF67
:10195000DF5F80E6C80ED11CD43001F7DF91CF9154
:101960001F91FF90EF90DF90CF90BF90AF900895C0
:10197000EF92FF920F931F93CF93DF93EC018A01B5
:101980007C01E60EF71ECE018796CE15DF0539F4F1
:10199000DF91CF911F910F91FF90EF900895C03884
:1019A00021E0D20740F40E948B26F80180830F5F6C
:1019B0001F4F2196E8CFF8011082F9CFCF92DF9226
:1019C000EF92FF920F931F93CF93DF937C016A01F5
:1019D0008C01060F171FEC01CE018796C017D107A7
:1019E00049F4DF91CF911F910F91FF90EF90DF901D
:1019F000CF900895C03821E0D20740F4FE01EE19DF
:101A0000FF09EC0DFD1D60810E9499262196E4CF0F
:101A1000462F843038F4763028F4683018F4672F75
:101A20000C94520C90E080E0089580E1089589E5DF
:101A300092E00895EF92FF920F931F93CF93DF935D
:101A4000EC018A017C01E60EF71ECE0189559E4FFE
:101A5000CE15DF0539F4DF91CF911F910F91FF90E3
:101A6000EF900895C93522E0D20740F40E948B26FA
:101A7000F80180830F5F1F4F2196E7CFF801108296
:101A8000F9CFCF92DF92EF92FF920F931F93CF93F4
:101A9000DF937C016A018C01060F171FEC01CE0158
:101AA00089559E4FC017D10749F4DF91CF911F91FF
:101AB0000F91FF90EF90DF90CF900895C93522E00D
:101AC000D20740F4FE01EE19FF09EC0DFD1D608107
:101AD0000E9499262196E3CFCF93DF93C7EAD1E006
:101AE00060E0CE010E9499262196C11584E0D807B6
:101AF000B9F7DF91CF910895DF92EF92FF920F93A4
:101B00001F93CF93DF9300D000D0CDB7DEB7F82E70
:101B10008FE08F1540F08FEF93E00E948B2607EA4D
:101B200011E08823C1F00F900F900F900F90DF917C
:101B3000CF911F910F91FF90EF90DF9008950115C5
:101B400084E0180781F3C8010E948B26811101C02F
:101B5000FA940F5F1F4FF110F2CF19821A821B8285
:101B60001C82DD24D39478018FEFE81AF80AC801AB
:101B70000E948B2689831A828823A9F29FEF980FEF
:101B8000933078F48A83D9820E5F1F4FC7010E9479
:101B90008B268B83882339F2CE0101960E94C304E1
:101BA000E2CF8701F9CF0F931F93CF93DF93C42F19
:101BB000D22FFC0182818823C9F040930F020E943A
:101BC000861A90930E0280930D0280E28C0F88306B
:101BD00008F050C0C77081E001C0880FCA95EAF7CD
:101BE000DF91CF911F910F910C94DE1110910F0294
:101BF000141335C080910D0290910E020E949E1A1E
:101C0000883C910560F5C0E2CD0F1D17B9F080E268
:101C1000810F883040F4177081E001C0880F1A9559
:101C2000EAF70E94E511C83048F481E09D2F9770D3
:101C300001C0880F9A95EAF70E94DE11802F0E945A
:101C4000D611C830B8F4D77081E001C0880FDA959A
:101C5000EAF7DF91CF911F910F910C94E51180E28B
:101C60008C0F883038F4C77081E001C0880FCA95A6
:101C7000EAF7EFCFDF91CF911F910F9108950F9366
:101C80009C01CB01233F4CE5340759F1A8F4283DD2
:101C9000FCE53F0701F1293D4CE53407D1F1273D33
:101CA0003C4591F406E221EE41EE67ED7CE50E94B1
:101CB000D30D80E00F910895253FFCE53F07E9F043
:101CC000B0F0263F3C45F9F0FC018281882339F1D0
:101CD00010920F02EFCF07E225EE45EE68ED7CE5AE
:101CE000E6CF06E221EE40EE63EF7CE5E0CF07E2CF
:101CF00025EE44EE64EF7CE5DACF06E221EE42EE1B
:101D000065EF7CE5D4CF07E225EE46EE66EF7CE595
:101D1000CECF08E221E045EE69ED7CE5C8CF81E059
:101D2000C9CFCF93DF93EC01FB018281882309F4B3
:101D300019C1C230FCE5DF07C0F1C6319CE5D90707
:101D400030F09E012A5F3C452930310570F50E9434
:101D50002A199093A1028093A002C031ECE5DE071E
:101D600009F4CFC008F05BC0C8308CE5D80709F48F
:101D7000B6C088F5C430ECE5DE0709F4A8C0C0F4AD
:101D8000C2308CE5D80709F49CC08091A002826023
:101D9000C330DC4509F498C08091A0029091A10263
:101DA0000E9438190E94D31380E0DF91CF910895EB
:101DB0008091A0028061C630ECE5DE0709F484C0A2
:101DC0008091A0028860C730DC4508F47DC0809116
:101DD000A002806279C0CC308CE5D80709F489C0B4
:101DE00070F48091A0028C60CA30ECE5DE0709F443
:101DF0006BC008F478C08091A0028E7F65C0CE30A1
:101E00008CE5D80709F479C08091A0028B7FCF3090
:101E1000DC4508F459C08091A0028F7E55C0CB3FAD
:101E2000ECE5DE0709F457C030F5C3318CE5D8077F
:101E300009F46FC078F4C131ECE5DE0709F465C040
:101E4000C231DC4509F0A8CF0E94D3138091A002D3
:101E50008F773AC0C5318CE5D80709F462C008F421
:101E600076C08091A1028160CA3FDC4509F094CF21
:101E70008093A10291CFCF3FFCE5DF0709F44DC06D
:101E800088F48091A1028D7FCD3F9CE5D90781F335
:101E90008091A1028E7FCE3FDC4550F38091A1025C
:101EA0008360E6CFC130FDE5DF0709F459C008F4CF
:101EB00044C080E0C230DD4509F06ECF0E94BE19FB
:101EC0006BCF8091A00281608093A00265CF80914A
:101ED000A0028460F9CF8091A1028260C9CF809175
:101EE000A0028064F1CF0E94D3138091A002806889
:101EF000EBCF8091A0028D7FE7CF8091A002877FFA
:101F0000E3CF8091A0028F7DDFCF8091A0028F7BF5
:101F1000DBCF8091A002837FD7CF8091A1028C7FFD
:101F2000A7CF8091A00282FB992790F921E0922708
:101F300090FB82F990FB83F9C7CF8091A102982F83
:101F4000909591708E7F892B90FB81F991CF0E94A3
:101F5000D3139091A002892F97FB87F98058B4CFB3
:101F600081E0ACCF81E021CFCF93DF93EB018631CD
:101F70009C4511F50E94E9189A81992399F08A7A73
:101F800091E009F490E090931002811109C089E278
:101F90000E94B6180E94CA1880E0DF91CF91089580
:101FA00085E3F6CF80911002811104C089E20E947E
:101FB000BD18F0CF85E3FBCF81E0EFCF9093160201
:101FC000809315020895E0911502F0911602309762
:101FD00021F00190F081E02D099480E00895E091D6
:101FE0001502F0911602309721F00280F381E02D66
:101FF000099408952091130230911402281739078B
:1020000071F09093140280931302E0911502F09105
:102010001602309721F00680F781E02D099408958B
:1020200020911102309112022817390771F0909314
:10203000120280931102E0911502F091160230977E
:1020400021F00084F185E02D099408950E94921AF0
:1020500060932602709327028093280290932902AE
:1020600060932202709323028093240290932502AE
:1020700008950E94921A609326027093270280931B
:1020800028029093290260931E0270931F0280938E
:10209000200290932102089585B7806885BF85B797
:1020A000806885BF0895089508950C9453100C948A
:1020B00090020E944C108FE099E10E94E21A0E9467
:1020C00054100C94551081E008950C9463100895F9
:1020D00008950E9467100C9468100E947D1A0E9457
:1020E000EA060E943C0B0E949F0A0C945710AF9284
:1020F000BF92CF92DF92EF92FF920F931F93CF93F5
:10210000DF93CDB7DEB72A970FB6F894DEBF0FBEC8
:10211000CDBF0E941D0781110E94261088E1A82EC4
:1021200082E0B82E10E000E0C02E802F0E94C4068E
:10213000E82EF501F1905F01F81609F453C0809183
:10214000940281FD0E94CA068F2D8E25D12CFF247A
:10215000F394982F9F2109F440C00E9465108823B2
:1021600099F0DE82CF82EF2081E009F480E0888759
:102170000E94861A8160782F9A8789874E815F81B5
:1021800068858A850E941A11F801E85EFD4F8081FA
:10219000F826F0820E94B00A81110E9439100E9434
:1021A000520A0E94E30F90911702891791F10E9441
:1021B000E30F809317022A960FB6F894DEBF0FBE86
:1021C000CDBFDF91CF911F910F91FF90EF90DF90E6
:1021D000CF90BF90AF900C94CD04D394FF0CF8E057
:1021E000DF12B7CF0F5F1F4F0630110509F09CCFEC
:1021F0008FEF89838A831B820E94861A8160782FE1
:102200009D838C8349815A816B818D810E941A1133
:10221000C1CF2A960FB6F894DEBF0FBECDBFDF91B7
:10222000CF911F910F91FF90EF90DF90CF90BF90D3
:10223000AF900895DF92EF92FF920F931F93CF9389
:10224000DF93CDB7DEB72B970FB6F894DEBF0FBE86
:10225000CDBF7A878B87F42E052F162FE72ED82E29
:1022600061110E9409191E821D827E2DEC82DD8281
:102270004F2D502F612F8D2D9E812B960FB6F894E8
:10228000DEBF0FBECDBFDF91CF911F910F91FF90A9
:10229000EF90DF900C944916FC01808191810C94A1
:1022A0008818CF93C82F882309F43FC08CEF8C0F78
:1022B000813AA0F46C2F80910001909101010E945D
:1022C000C319882329F08C2F0E94BD180E94CA18B8
:1022D0008C2F0E94B618CF910C94CA1880E28C0FF4
:1022E000883048F4C77081E001C0880FCA95EAF7CA
:1022F0000E94EC18F0CFEBE5EC0FE33040F4F0E097
:10230000EA56FE4F808190E0CF910C94FA0FC85AA4
:10231000C73158F4EC2FF0E0EE0FFF1FE859FE4FE5
:1023200080819181CF910C941010CF9108958823D2
:1023300029F19CEF980F913A20F40E94BD180C945B
:10234000CA1890E2980F983050F4877091E001C05D
:10235000990F8A95EAF7892F0E94F218F0CF9BE532
:10236000980F933020F490E080E00C94FA0F885A94
:10237000873120F490E080E00C94101008951F93B2
:10238000CF93DF93182FEB010E945111209731F466
:10239000812FDF91CF911F910C9497118FE99FE0CE
:1023A0000197F1F700C000002197F0CF6AE070E0DC
:1023B000893311F460E570E00C94BF11882321F09B
:1023C0000E94EC180C94CA180895882321F00E94EA
:1023D000F2180C94CA180895CF92DF92EF92FF92F0
:1023E0000F931F93CF93DF93DC01C62F972F129685
:1023F0002C91129715964C911597342F32953F706A
:10240000872F82958F70082F10E08C3090F5F8019F
:10241000EE51F94D0C947E26D72FDF70907F11F08E
:10242000D295D07F2223A9F0DD2359F080E28C0FD2
:10243000883010F0C11109C08D2F0E94EC180E9445
:10244000CA188C2F0E94511114C08D2F0E94FC18A5
:10245000F6CF8C2F0E949711DD2359F080E28C0F6C
:10246000883010F0C11117C08D2F0E94F2180E9401
:10247000CA18085011090430110508F046C10E941D
:10248000E30FDF91CF911F910F91FF90EF90DF90BD
:10249000CF900C94CD048D2F0E940219E8CF872F86
:1024A0008F70907F903211F08295807FC13061F4FF
:1024B000222329F03630E8F60E94DE11DACF3530DB
:1024C000C0F60E94E511D5CF222341F03323A1F3BA
:1024D00040FFB7CF4F7015964C93EECF332389F35F
:1024E000C93309F00AC12FEF87EE93E021508040F5
:1024F0009040E1F700C000008C2F0E949711B9CFE7
:10250000872F86958695837061F0813009F0B1CF71
:10251000862F9370211102C090E080E00E9410107D
:10252000A8CF862F9370211102C090E080E00E9416
:10253000FA0F9FCF872F837009F044C0211199CFE4
:10254000862F829586958770880F880F6F70C62EAC
:10255000D12CF12CE12C082E04C0CC0CDD1CEE1C7F
:10256000FF1C0A94D2F740E050E0BA01C4FF0FC04C
:102570004FE050E060E070E004C0440F551F661F5C
:10258000771F8A95D2F74095509560957095292FC1
:10259000269526952370CB01BA016C297D298E29B9
:1025A0009F29223049F058F4213019F00E94071772
:1025B00060CF0E94F5165DCF0E9419175ACF0E9476
:1025C000F31657CF8695222311F0872F8170882329
:1025D00009F44FCF8C2F829586958770880F880FCE
:1025E0006C2F6F70C62ED12CF12CE12C082E04C05C
:1025F000CC0CDD1CEE1CFF1C0A94D2F740E050E02E
:10260000BA01C4FF0FC04FE050E060E070E004C0CA
:10261000440F551F661F771F8A95D2F74095509536
:1026200060957095292F269526952370CB01BA01C8
:102630006C297D298E299F29223049F058F42130B8
:1026400019F00E94CC1715CF0E94BA1712CF0E9422
:10265000DE170FCF0E942F170CCFD72FDF7022234A
:1026600029F08D2F0E9455178C2F26CF862F0E9480
:10267000E5118D2F0E947617FCCE613F19F148F4C9
:10268000603F91F0222369F13111DBCE892F8F71E8
:102690001DC0623FF1F0633FA9F72223F9F0872FB5
:1026A0008F710E944017E5CE222341F0353008F0AB
:1026B000E0CE892F8F710E949917DBCE363008F05B
:1026C000D8CEF7CF872F8F712223A1F20E94551702
:1026D000D0CE872F8F712223C9F3CCCF0E943B1716
:1026E000C8CE332379F0C93341F49FEF27EE83E05E
:1026F000915020408040E1F7FDCE8FE39CE90197A7
:10270000F1F7F8CE892F8F71B5CFDF91CF911F915F
:102710000F91FF90EF90DF90CF9008950F931F934C
:10272000CF93DF93EC01688179818A810E949218AE
:102730008C010E94F0170E94F216B801CE01DF91C1
:10274000CF911F910F910C94EC11CF93DF93EC017B
:102750008B819C81892B29F08881998189238F3FE6
:1027600019F4DF91CF910895CE010E94AD03882323
:10277000C1F3CE010E948E13CE01DF91CF910C9454
:10278000260390E080E00E94FA0F90E080E00E9433
:1027900010100E9409190E940C190C94CA180E946A
:1027A000C4180C94C1130E94F9180C94CF13E92F8C
:1027B000E295EF70E250EE3070F4F0E0E251F94D46
:1027C0000C947E26803F19F020F4883E20F481E0AE
:1027D0000895843FE1F380E00895883EC0F3813F8F
:1027E000D1F7F5CF93FB882780F908950E948818C8
:1027F0000C94D713CF93DF9300D000D00F92CDB7B6
:10280000DEB70F900F900F900F900F90DF91CF9148
:102810000895CF93DF9300D000D000D0CDB7DEB7BE
:1028200026960FB6F894DEBF0FBECDBFDF91CF91D5
:1028300008951F93CF93DF93C0912B0216E08091F0
:102840002C028C1304C0DF91CF911F910895D0E02A
:102850001C9FF0011D9FF00D1124E35DFD4F408191
:10286000518162817381848195810E94091421962E
:10287000C770E5CF40915D0250915E0260915F02AA
:102880007091600280916102909162020C9409142F
:102890001F93CF93DF9380916202807FA9F4809190
:1028A0005F02882389F080912B02C0912C026091F5
:1028B0005D0270915E02A0916002B0916102D62F1C
:1028C000D72316E0C81304C0DF91CF911F9108955C
:1028D00090E0109711F0DF3F19F401968770F2CF66
:1028E000189F9001199F300D1124F901E35DFD4FF0
:1028F00041814713F2CF40814613EFCF428141110E
:10290000ECCF438154814A1B5B0B483C510528F7AF
:10291000809162028F70806180936202F901EE5CA7
:10292000FD4F80818F70806180838DE592E00E94F1
:10293000A513DF91CF911F910C941914AF92BF9200
:10294000CF92DF92EF92FF920F931F93CF93DF937B
:10295000CDB7DEB761970FB6F894DEBF0FBECDBF1F
:102960008C0185E0F801DE011D9601900D928A959B
:10297000E1F7F80140815181E2808DE5C82E82E0C7
:10298000D82E60916002709161026115710509F4A1
:1029900061C190915D0220915E02892F82238F3F59
:1029A00009F458C1A380B480F0905F02F501E61BE2
:1029B000F70BFF2009F4FCC080916202382F307FB2
:1029C000E83CF10508F0B2C0311179C0FE2C2513A6
:1029D00023C0941321C0E1101FC08F7080618093C9
:1029E00062020E943A14C6010E94A51380916202FD
:1029F000F80185838F2D61960FB6F894DEBF0FBE68
:102A0000CDBFDF91CF911F910F91FF90EF90DF909D
:102A1000CF90BF90AF900895AB2829F0842F8523E5
:102A20008F3F09F033C180E0F82FF170DF2E80FF77
:102A30003CC080912B0220912C0236E0821315C0FD
:102A40004D875E878D859E850E948818292F229547
:102A50002F702230F0F0243018F59F70F1F0F8015B
:102A60009581907FD1F4D12C1EC090E0389FF00169
:102A7000399FF00D1124E35DFD4F6181651306C0A0
:102A80006081641303C062816E110FC0019687706C
:102A9000D5CF9F7011F0882331F3805E883018F312
:102AA000C8010E94A513FD2CA5CFEE2009F4A2CFEA
:102AB00080916202816080936202F12C9BCF25138A
:102AC00006C0941304C0F801EE2009F48DC04D87B0
:102AD0005E878D859E850E94F613882319F1EE206E
:102AE00009F180916202803270F020915D02309194
:102AF0005E0238872F831986BB86AA868C87CE0113
:102B000007960E94A51386E0F801ADE5B2E00190BA
:102B10000D928A95E1F70E9448140E943A14FF240E
:102B2000F39468CFC8010E94A513F9CF311113C0E7
:102B30007A2DB98AA88A6E2D89890E94FA138DE5AB
:102B400092E00E94A51386E0F60111928A95E9F7BA
:102B50000E943A14B2CF25130FC094130DC0E11098
:102B60000BC0F8018583C8010E94A51386E0F60119
:102B700011928A95E9F73ECF4D875E878D859E85B8
:102B80000E94F613882371F2EE2061F280916202B6
:102B9000803208F4B8CF20915D0230915E023A8312
:102BA00029831B82BD82AC828E83CE010196A9CF80
:102BB000E83CF10508F041C0FE2CEE2009F4B2CF4C
:102BC00025132AC0941328C08091620280FD1BC087
:102BD000982F907FC1F0F8018583903F31F0982FB6
:102BE000907F905F8F70892B8583C8010E94A51309
:102BF00086E0F801ADE5B2E001900D928A95E1F72B
:102C00000E943A14F7CE86E0F801ADE5B2E00190FB
:102C10000D928A95E1F7EECE4D875E878D859E8574
:102C20000E94F61381116FCF8091620281608093C0
:102C30006202C8010E94A513DDCE7A2DB98AA88A46
:102C40006E2D89890E94FA1386E0F60111928A9509
:102C5000E9F7D6CFEE2009F465CF4D875E878D85E5
:102C60009E850E94F613F82E882309F45BCF86E038
:102C7000F801ADE5B2E001900D928A95E1F78DE59E
:102C800092E00E944C110E944814BACF81E08E2538
:102C9000CBCE1F93CF93DF93CDB7DEB72C970FB674
:102CA000F894DEBF0FBECDBF4F83588769877A8700
:102CB0008B879C87CE0107960E949E14882369F01B
:102CC0008A859B85892B39F04F815885842F8523F0
:102CD0008F3F09F071C016E05FC086E0FE013796B5
:102CE000DE01119601900D928A95E1F78A859B8508
:102CF000892B89F38F81988589238F3F61F32091F8
:102D00002C0230E0C90101968770992740912B026F
:102D10004817190671F40E94D31310922C021092D6
:102D20002B0286E0EDE5F2E0DF011D928A95E9F7DE
:102D3000D2CF96E0929FD001939FB00D1124A35D56
:102D4000BD4FFE01319601900D929A95E1F7809367
:102D50002C020E941914BFCF819FC0011124835DF2
:102D60009D4F0E949E148823E9F0E0912B021E9F44
:102D7000F0011124E35DFD4F408151816281738137
:102D8000848195810E94091480912B0290E0019624
:102D90008770992780932B0280912B0290912C02AF
:102DA0008913DACF2C960FB6F894DEBF0FBECDBFD5
:102DB000DF91CF911F91089569857A858B859C85D8
:102DC0000E94091488CF08950C94E3160E94E4161B
:102DD00060938502709386028093870290938802A5
:102DE0000C94C11308950C94E6160F931F93009151
:102DF0008502109186022091870230918802602B13
:102E0000712B822B932B1F910F910C94E6160F932D
:102E10001F930091850210918602209187023091C4
:102E2000880260237123822393231F910F910C94B6
:102E3000E6160F931F930091850210918602209150
:102E400087023091880260277127822793271F917C
:102E50000F910C94E6160C94E3160C942B170E9419
:102E60002D17609381027093820280938302909366
:102E700084020C94C11360E070E0CB010C942F1716
:102E80000F931F9341E050E060E070E08A019B01E6
:102E900004C0000F111F221F331F8A95D2F7C901EA
:102EA000B8011F910F910C942F170F931F9341E0BE
:102EB00050E060E070E004C0440F551F661F771FAC
:102EC0008A95D2F78091810290918202A09183022B
:102ED000B09184028A019B01082B192B2A2B3B2BD2
:102EE000C901B8011F910F910C942F170F931F93D5
:102EF00041E050E060E070E004C0440F551F661FE1
:102F0000771F8A95D2F7CB01BA01609570958095AD
:102F1000909500918102109182022091830230915C
:102F2000840260237123822393231F910F910C94B9
:102F30002F170F931F9341E050E060E070E004C052
:102F4000440F551F661F771F8A95D2F78091810223
:102F500090918202A0918302B09184028A019B0128
:102F6000082719272A273B27C901B8011F910F916C
:102F70000C942F170F931F930091810210918202DE
:102F80002091830230918402602B712B822B932B32
:102F90001F910F910C942F170F931F930091810293
:102FA0001091820220918302309184026023712368
:102FB000822393231F910F910C942F170F931F932C
:102FC000009181021091820220918302309184024B
:102FD00060277127822793271F910F910C942F1739
:102FE0000895990F990F990F890F982F977041E0C5
:102FF00001C0440F9A95EAF786958695869595E0E7
:10300000899FF0011124ED59FD4F30E020E070E080
:103010005191DF011197CB01022E02C09695879541
:103020000A94E2F7817081958527842385278C9304
:103030002F5F3F4F2530310559F70895990F990FAC
:10304000990F890F982F977086958695869525E01C
:10305000829FF0011124ED59FD4F50E040E080E0E7
:10306000219130E0092E02C0369527950A94E2F7A7
:1030700021703327042E01C0220F0A94EAF7822B15
:103080004F5F5F4F4530510559F70895BF92CF927A
:10309000DF92EF92FF920F931F93CF93DF938C01F8
:1030A000C0908102D0908202E0908302F09084026E
:1030B0008091850290918602A0918702B09188024A
:1030C000C82AD92AEA2AFB2ACFE1D0E0BC2ED701B0
:1030D000C6010C2E04C0B695A795979587950A94BE
:1030E000D2F780FD0EC0219788F7B12C8B2DDF9190
:1030F000CF911F910F91FF90EF90DF90CF90BF90F5
:103100000895B8018C2F0E94D504019761F3EECF8A
:10311000CF93DF93EC010E944618BE01DF91CF915F
:103120000C94D5041F93CF93DF93EB0190912A0267
:10313000992331F0CB01DF91CF911F910C94881826
:10314000882379F0CB010E944618182F682FCE01F2
:103150000E94F117BE01812FDF91CF911F910C9436
:10316000D504CB010E941E18182FF4CF682F809130
:103170000001909101010C94F919682F80910001D0
:10318000909101010C94FB19809100019091010133
:103190000C94FD19E0910001F091010180919302DE
:1031A0008083E0910001F091010180819091920271
:1031B000892B8083E0910001F09101018081909141
:1031C0009102892B808380910001909101010C94E0
:1031D000EF0F80919302089590919302892B809331
:1031E000930208958095909193029823909393026F
:1031F000089510929302089590919202892B8093E2
:103200009202089580959091920298239093920251
:10321000089510929202089510929102089580E00C
:1032200008956FEF7FEF90E080E00C94B72690E078
:1032300080E00E94932621E08A3E9E4F09F020E024
:10324000822F089582E090E00C948B2683E090E03A
:103250000C948B26CF9384E090E00E948B26C82F9D
:1032600082E290E00E948B26982F8C2FCF910895B8
:10327000CF93C92F682F84E090E00E9499266C2F8D
:1032800082E290E0CF910C949926AB01BC018FE0D3
:1032900090E00C94AB26AB01BC0183E190E00C9470
:1032A000AB2660E070E0CB010C944B1960E070E05D
:1032B000CB010E9445190C9451196AEE7EEF90E003
:1032C00080E00E94B72660E082E090E00E949926AC
:1032D00060E083E090E00E949926109285021092AF
:1032E0008602109287021092880260E084E090E0EB
:1032F0000E94992660E082E290E00E94992660E0B8
:1033000085E090E00E94992660E086E090E00E94CF
:1033100099266FEF87E090E00E94992640E050E008
:10332000BA0188E090E00E94AB2660E08DE090E07A
:103330000E94992640E050E0BA0188E190E00E94A6
:10334000AB2660E087E190E00E94992640E050E0E3
:10335000BA018CE190E00E94AB2670E060E080E270
:1033600090E00E94B72640E050E0BA0188E190E08A
:103370000E94AB260C9456190C945D19682F8EE0B0
:1033800090E00C949926662349F0FC013296089649
:103390002191261729F0E817F907D1F780E0089561
:1033A00081E008959C01FC0132969FEF80E04191FD
:1033B000461751F09F3F19F4411101C0982F8F5FBC
:1033C0008630A9F79F3F09F40895290F311D97FD15
:1033D0003A95F90162830895FC013296089621918D
:1033E000261303C0DF0111971C92E817F907B9F7FC
:1033F00008950C94D2190C94EC19029626E0FC0165
:1034000011922A95E9F70895089508950C94051AE4
:103410008091A703843049F10E94061A80E00E943F
:10342000CD041092950288E190E020E40FB6F89464
:10343000A895809360000FBE2093600083B7817FC2
:10344000846083BF83B7816083BF7894889583B796
:103450008E7F83BF0FB6F894A89580916000886135
:1034600080936000109260000FBE08950895CF937E
:103470000E94041A0E941D070E94361AC0E08C2F79
:103480000E94C406811105C0CF5FC630C1F7CF913D
:10349000089581E0FCCF08950C944B1A0E94D31339
:1034A0000E94E30F0E94CD040C944C1A1F921FB689
:1034B0001F9211248F939F93AF93BF938091950296
:1034C000811113C08091B2029091B302A091B40215
:1034D000B091B5024196A11DB11D8093B2029093A7
:1034E000B302A093B402B093B502BF91AF919F9184
:1034F0008F911F901FBE1F90189582E084BD93E0AE
:1035000095BD9AEF97BD80936E0008952FB7F894FC
:103510008091B2029091B302A091B402B091B50231
:103520002FBF08952FB7F8946091B2027091B30243
:103530008091B4029091B5022FBF08959C014FB7BE
:10354000F8948091B2029091B302A091B402B0912C
:10355000B5024FBF821B930B089578941F921FB63C
:103560001F9211248F939F93AF93BF938091B202C8
:103570009091B302A091B402B091B5020196A11D41
:10358000B11D8093B2029093B302A093B402B093A2
:10359000B502BF91AF919F918F911F901FBE1F9059
:1035A000189587E797E7909301088093000888E1D2
:1035B0009AE00FB6F894A895809360000FBE9093A0
:1035C0006000FFCF9093B9018093B8010895881FE0
:1035D0008827881F089591E0883F08F490E0892F9C
:1035E0000895982F907F903BE9F040F49039D1F006
:1035F000903AC1F09038B1F080E00895903D19F014
:1036000020F4903CC9F782E00895903E59F0903F35
:1036100099F7815F8F3080F7E82FF0E0E756FE4F93
:103620008081089583E008950F93022F0F77242F50
:103630002F776F70462F406BDC01ED91FC9163E0BA
:1036400070E009950F9108950F93022F0F77242FA3
:103650002F776F70462F4069DC01ED91FC9163E09C
:1036600070E009950F9108950F93022F0F77242F83
:103670002F776F70462F4068DC01ED91FC9163E07D
:1036800070E009950F9108950F931F93411520E263
:10369000520744F49A01305E4115504E2CF430E04C
:1036A00020E002C02FEF3FE38901000F012F001F30
:1036B000110B11952F776F70462F406EDC01ED9145
:1036C000FC9163E070E009951F910F910895FC0152
:1036D000738362830895FC01758F648F0895CF937F
:1036E000DF93EC011DA21FA21EA2BC01685D7F4FEB
:1036F00040EC88519F4F0E947A1D1B821A821D82C6
:103700001C821F821E82198618861B861A861D86B9
:103710001C861F861E86198A188A1B8A1A8A1D8A89
:103720001C8A1F8A1E8A198E188E1B8E1A8E1D8E59
:103730001C8E1F8E1E8E19A218A2DF91CF910895A4
:10374000EF92FF920F931F93CF93DF93EA018A01C9
:10375000060F111D88519F4F7C01C017D10739F406
:10376000DF91CF911F910F91FF90EF900895699194
:10377000C7010E94811DF1CFFC0171836083089510
:10378000FC0171A360A30895AF92BF92CF92DF9224
:10379000EF92FF920F931F93CF93DF9300D00F927E
:1037A000CDB7DEB77C016B01142FB22EA02EDC0149
:1037B00095968C9195978430A9F55A96ED91FC9148
:1037C0003097E9F1CB01019763E070E00E94562643
:1037D000CB01880F991F860F971F4983BA820B83ED
:1037E0004C2D481B9E012F5F3F4FBC01C70109951F
:1037F000D7015E96ED91FC91309731F00A2D2B2D7B
:10380000412FB601C70109950F900F900F90DF91DE
:10381000CF911F910F91FF90EF90DF90CF90BF90CD
:10382000AF9008956230710509F455C06330710599
:1038300099F06130710509F481C0D12CC12CD701F8
:103840005C96ED91FC91309799F20A2D2B2D412F2A
:10385000B601C7010995CCCF842F807F803A11F142
:1038600048F48038D1F0803951F7D7011496ED91A2
:10387000FC910AC0803ED9F0803FF1F0803BF9F620
:10388000D7011296ED91FC913097C9F2123FE9F001
:103890002A2D4B2D612F6F701BC0D7011696ED910D
:1038A000FC91F2CFD7011896ED91FC91EDCFD701A5
:1038B0001A96ED91FC91E8CF423F09F6D7011C968C
:1038C000ED91FC91309709F4BACF2A2D4B2D62EF80
:1038D000C70109958DCF842F807F803DB1F0803F57
:1038E000C9F0803C09F0ABCFD7011E96ED91FC9159
:1038F000309709F4A4CF812F8D7F4B2D612F6F70EE
:10390000813F89F0C701099573CFD7015096ED919A
:10391000FC91EECF433F51F4D7015296ED91FC91CB
:10392000309709F48CCF4B2D612FECCF413F09F03C
:1039300086CFD7015496ED91FC91F2CF842F0E944F
:10394000EB1A882359F0D7015696ED91FC913097E8
:1039500009F475CF612FC70109954ACF163F09F0C9
:103960006ECFD7015896ED91FC91F1CFFF920F9356
:103970001F93CF93DF93EC01162F862F0E94EB1A33
:10398000882391F0FDA081E08DA300E020E0412F8D
:1039900061E070E0CE010E94C41BFDA2DF91CF91D7
:1039A0001F910F91FF900895812F0E94E71A4DA15A
:1039B000882309F443C0443029F01AA381E090E041
:1039C0009FA38EA3812F0E94F11A813051F088238A
:1039D000A9F0823089F0833079F01DA21FA21EA2C7
:1039E000DDCF8DA300E020E0412F61E070E0CE014B
:1039F0000E94C41B1DA2D2CF8DA3D0CF103FB1F027
:103A0000173F59F72EA13FA1C90163E070E00E9462
:103A10005626FE01E80FF91F12A3B9016F5F7F4F11
:103A20007FA36EA30CA12BA14AA1E1CF84E08DA3BB
:103A30001AA381E090E09FA38EA3B0CF442309F4A2
:103A4000ADCF2EA13FA1C90163E070E00E945626D0
:103A5000FE01E80FF91F12A3B9016F5F7F4F7FA32B
:103A60006EA38130910569F0029709F097CF0CA100
:103A70002BA14AA1CE010E94C41B8DA18430C9F69E
:103A80008DCF00E0423009F089CFF2CFCF92DF92A4
:103A9000EF92FF920F931F93CF93DF93EC01E8A176
:103AA000F9A1309709F009956E0188EEC80ED11C76
:103AB000C6010E94B01D10E000E0E82EF12C0E15AA
:103AC0001F0548F0DF91CF911F910F91FF90EF906C
:103AD000DF90CF90089560E0C6010E94C41D682F5A
:103AE000CE010E94B61C61E0C6010E94D41D0F5F8A
:103AF0001F4FE5CFFC0142837483638311821082E0
:103B000008951F93CF93DF93EC01162F0E94EB1DB6
:103B1000482F298130E0C90101966A8170E00E9436
:103B20006A2658815817190641F4842F0E94EE1D09
:103B300080E0DF91CF911F9108958B819C81280FA8
:103B4000391FF9011083898190E001966A8170E044
:103B50000E946A268983842F0E94EE1D81E0E9CFAE
:103B6000CF93DF93EC010E94EB1D9981288192177E
:103B700040F0C92FC21B0E94EE1D8C2FDF91CF9108
:103B80000895CA819C0FF5CFFC018081860F99278B
:103B9000991F628170E00E946A2623813481280F78
:103BA000391FF901808108951F93CF93DF93EC01B2
:103BB000162F0E94EB1D282F8881810F9927991FAE
:103BC0006A8170E00E946A268883822FDF91CF91FC
:103BD0001F910C94EE1D8FB7F89408958FBF089530
:103BE000089508950F931F93CF93DF9300D000D0D3
:103BF00000D00F92CDB7DEB78C01CE0101960E94A6
:103C0000852081110BC027960FB6F894DEBF0FBE3A
:103C1000CDBFDF91CF911F910F9108958A810E94AE
:103C2000F11A9A819D839B819E839C819F83811140
:103C30000AC08981843079F0873069F0863069F074
:103C40008530D9F681E0AE014B5F5F4F682FC80128
:103C50000E94A01BD2CF83E0F6CF82E0F4CFDF92A8
:103C6000EF92FF920F931F93CF93DF9300D000D07A
:103C7000CDB7DEB77B01142FD22E4A832B830C8362
:103C8000842F0E94F11A811129C082E0E816F10404
:103C900001F183E0E816F10439F0EA94EF2869F4C1
:103CA00085E0173F21F404C087E0073F09F084E076
:103CB0008983CE0101960E9480200F900F900F9073
:103CC0000F90DF91CF911F910F91FF90EF90DF90B8
:103CD000089587EFD812EBCF86E0EACF12951F70D8
:103CE0001983E7CF0E94CB0786EB92E00E946F1BFF
:103CF0006FE27EE186EB92E00E94BC1B62EF7DE109
:103D000086EB92E00E94C01B60EF7DE186EB92E0C3
:103D10000E946B1B61EF7DE186EB92E00C94671BC8
:103D20009B014091A7034430C1F4FC0191819F7035
:103D30009093E90050E040E064E070E0C9010E9427
:103D4000762181110BC09091E80095FD07C09091FC
:103D5000E8009E779093E800089582E0089520910E
:103D6000A703243091F4FC0181818F708093E900D6
:103D70009091F3008091F200892B49F08091E80046
:103D80008E778093E8000C94242382E0089580E0ED
:103D90000895FC018091A703843059F491819F70AC
:103DA0009093E9008091E80080FF03C0CF010C945C
:103DB000AF1E08959B014091A703443011F080E0AD
:103DC0000895FC0196819F709093E9008091E8002E
:103DD00082FFF5CF8091E80085FFF1CF50E040E011
:103DE00064E070E0C9010E94C5218091E80085FD72
:103DF00005C08091E8008B778093E80081E008950A
:103E000080919E0208950895CF93DF9300D00F9282
:103E1000CDB7DEB79091A703943011F589837B83EA
:103E20006A839093E9008FEF9091E800815095FDAF
:103E300006C095ED9A95F1F700008111F5CF8091BC
:103E4000E80085FF0DC050E040E063E070E0CE0187
:103E500001960E9476218091E8008E778093E80099
:103E60000F900F900F90DF91CF910895BC0184E0E7
:103E70000C94041FBC0183E00C94041FCF93DF93C8
:103E8000EC0181E08093E9008FEF9091E800815090
:103E900095FD06C095ED9A95F1F700008111F5CFDB
:103EA0008091E80085FF14C050E040E068E070E0D9
:103EB000CE010E9476218091E8008E778093E80001
:103EC00088E0FE01A6E9B2E001900D928A95E1F743
:103ED000DF91CF910895CF93FC01603221F580915D
:103EE000A703843001F5C091E900CF702091EC0068
:103EF000922F917020FD90E8C92B82E08093E90019
:103F00008091E80080FF0CC050E040E060E270E08B
:103F1000CF010E9476218091E8008E778093E8009F
:103F2000CF70C093E900CF9108958091A6038111CD
:103F300009C00E9455230E94B2238091E200846050
:103F40008093E20008951092A603089508950895BD
:103F5000089542E061EC81E00E94D12242E261ECEE
:103F600084E00E94D12242E261EC82E00E94D122F0
:103F700042E260EC83E00E94D12242E361E885E006
:103F80000E94D12242E361E886E00C94D122809124
:103F9000A903833009F461C030F48130D1F182305B
:103FA00009F49DC008958A3009F489C08B3009F462
:103FB0006FC0893009F050C08091A803813209F0A8
:103FC0004BC08091AC039091AD03009719F002971C
:103FD00009F042C08091E800877F8093E8008091DB
:103FE000E80082FF35C09091F3008091F2000297C3
:103FF00029F48091F1008B7F813021F48091F100D0
:1040000080939E028091E8008B778093E8000C9467
:1040100005238091A803813AF9F48091E800877F15
:104020008093E8008091AC039091AD03892B61F4FB
:1040300068E086E992E070E00E9414228091E80036
:104040008B778093E800089560E090E080E0F3CF04
:104050008091A7038111C3CF08958091A803813A6D
:10406000D9F78091AC039091AD03892BA9F780918A
:10407000E800877F8093E8008091E80080FFFCCF14
:10408000809118018093F1008091E8008E77BDCF78
:104090008091A803813201F78091AC039091AD0328
:1040A000892BD1F68091E800877F8093E8000E94F9
:1040B00005238091AA03809318010C94D313809157
:1040C000A803813249F68091E800877F8093E80059
:1040D0000E9405238091AB0380939F0208958091F5
:1040E000A803813A09F0B8CF8091E800877F8093D8
:1040F000E8008091E80080FFFCCF80919F02C2CF52
:10410000BC0182E091E00C94901EBC0182E091E041
:104110000C94DA1ECDB7DEB7A0970FB6F894DEBFC9
:104120000FBECDBF0E94721E84B7877F84BF0FB6BB
:10413000F894A89580916000886180936000109247
:1041400060000FBE80E890E00FB6F89480936100A5
:10415000909361000FBE0E9459100E9455230E9447
:10416000B2238091E20084608093E20078940E9400
:104170003B260E946D108EE091E00E94DE0F13E05E
:104180008091A7038530D9F00E94771082E091E0FA
:104190000E94C91E8091A7038430C1F00E9469105B
:1041A000EFCF0E94081A8091A503882341F00E9456
:1041B000371A882321F00E9460210E94D313809136
:1041C000A703853071F30E944E1ADECF1093E900E9
:1041D0008091E80082FFE2CF8091E80090E085FFC7
:1041E00009C050E040E060E270E0CE0101960E941C
:1041F000C52191E08091E8008B778093E8009923B6
:1042000069F260E2CE0101960E948B0BC7CF0C943D
:104210000921292F33272330310521F168F421307A
:10422000310509F443C02230310509F444C090E05F
:1042300080E030E020E026C02132310551F1223209
:104240003105A9F76330710590F7FB01EE0FFF1FF1
:10425000E555FE4F2081318168557E4FFB018081FD
:1042600090E010C099278130910581F0009729F0E6
:104270000297E9F6ECEDF2E002C0ECE0F3E08491A5
:1042800090E09F01FA01318320830895ECEFF2E082
:10429000F6CF6330710558F6660F771FFB01EF54B8
:1042A000FE4F2081318189E090E0ECCF82E190E007
:1042B0002FEC33E0E7CF8FEB90E020E133E0E2CF6B
:1042C00080E189BD82E189BD09B400FEFDCF809106
:1042D000D8008F7D8093D8008091E0008260809329
:1042E000E0008091E00081FDFCCF0895AF92BF9285
:1042F000CF92DF92FF920F931F93CF93DF936C01C6
:10430000EB018A010E942423F82E811123C001159C
:10431000110539F0F80180819181C81BD90BC80EB5
:10432000D91EB12CA12C2097A9F08091E80085FD21
:1043300022C08091E8008E778093E8000115110576
:10434000A1F0F80180819181A80EB91EB182A082EE
:1043500085E0F82E8F2DDF91CF911F910F91FF9067
:10436000DF90CF90BF90AF9008950E9424238823C0
:10437000D1F2F82EEFCFF60181916F018093F10019
:104380002197FFEFAF1ABF0ACECFAF92BF92CF9265
:10439000DF92FF920F931F93CF93DF936C01EB019A
:1043A0008A010E942423F82E811123C001151105D2
:1043B00039F0F80180819181C81BD90BC80ED91E34
:1043C000B12CA12C2097A9F08091E80085FD22C096
:1043D0008091E8008B778093E80001151105A1F02A
:1043E000F80180819181A80EB91EB182A08285E07A
:1043F000F82E8F2DDF91CF911F910F91FF90DF90BD
:10440000CF90BF90AF9008950E9424238823D1F2CB
:10441000F82EEFCF8091F100F60181936F01219783
:10442000FFEFAF1ABF0ACECFFC018091AE0390918F
:10443000AF0386179707A0F06115710529F49091D5
:10444000E8009E779093E80090E06115710551F4C3
:10445000911108C08091E80082FF34C080E0089587
:10446000BC01F2CF8091A7038823C1F18530C1F14F
:104470008091E80083FD30C08091E80082FDEACFA2
:104480008091E80080FFE1CF8091F3002091F2005D
:10449000382F6115710519F02830310558F091E079
:1044A0002830310509F090E02091E8002E77209324
:1044B000E800CBCF81918093F100615071092F5FAB
:1044C0003F4FE7CF8091A703882341F0853041F02B
:1044D0008091E80083FFBECF81E0089582E00895D7
:1044E00083E00895FC018091AE039091AF0386179D
:1044F0009707A0F06115710529F48091E8008E7787
:104500008093E80090E06115710551F4911108C0A5
:104510008091E80082FF35C080E00895BC01F2CFB1
:104520008091A7038823C9F18530C9F18091E80003
:1045300083FD31C08091E80082FDEACF8091E800E0
:1045400080FFE1CF8091F3002091F200382F6115B8
:10455000710519F02830310558F091E02830310507
:1045600009F090E08091E8008E778093E800CBCF4F
:1045700084918093F1003196615071092F5F3F4F14
:10458000E6CF8091A703882341F0853041F08091E8
:10459000E80083FFBDCF81E0089582E0089583E0C5
:1045A0000895982F973028F08F708093E90081E06C
:1045B00008959093E900242F762F50E0981731F05A
:1045C0007091EC002091ED005091F00021FD02C0AF
:1045D0009F5FE8CF3091EB003E7F3093EB0030914E
:1045E000ED003D7F3093ED003091EB003160309372
:1045F000EB007093EC002093ED005093F0002091BD
:10460000EE0027FDE5CF80E008958091A80387FFA5
:1046100013C08091E80082FF06C08091E8008B778C
:104620008093E80004C08091A7038111F2CF089520
:104630008091A7038823D9F38091E80080FFF8CF09
:104640008091E8008E77ECCF2091E4003091E50076
:1046500095E6A9012091EC00822F817020FF06C011
:104660008091E80080FF06C080E008952091E80076
:1046700022FD1AC08091A703882389F0853089F034
:104680008091EB0085FD0FC02091E4003091E500A2
:1046900042175307F9F29150E1F684E0089582E061
:1046A000089583E0089581E008950E94C3230E9445
:1046B000CB23E0EEF0E0808181608083E8EDF0E0E4
:1046C00080818F77808319BCA7EDB0E08C918E7FBD
:1046D0008C9380818F7E80831092A60308950F9320
:1046E0001F93CF93DF930E94C3230E94CB23C8ED77
:1046F000D0E088818F7788838881806888838881EB
:104700008F7D888319BC1092A7031092A303109287
:10471000A5031092A40300EE10E0F80180818B7FC6
:10472000808388818160888342E060E080E00E942D
:10473000D122E1EEF0E080818E7F8083E2EEF0E036
:10474000808181608083808188608083F80180819E
:104750008E7F8083888180618883DF91CF911F91D4
:104760000F910895E8EDF0E080818F7E8083E7ED82
:10477000F0E080818160808384E082BF81E080936B
:10478000A6030C946F23E8EDF0E080818E7F808398
:104790001092E20008951092DA001092E10008955C
:1047A0001F920F920FB60F9211242F933F934F93A6
:1047B0005F936F937F938F939F93AF93BF93EF9389
:1047C000FF938091E10082FF0BC08091E20082FFA5
:1047D00007C08091E1008B7F8093E1000E943A2620
:1047E0008091DA0080FF19C08091D80080FF15C049
:1047F0008091DA008E7F8093DA008091D90080FF6B
:1048000096C080E189BD82E189BD09B400FEFDCF7B
:1048100081E08093A7030E94951F8091E10080FFB3
:1048200019C08091E20080FF15C08091E2008E7F68
:104830008093E2008091E20080618093E2008091A9
:10484000D80080628093D80019BC85E08093A703CC
:104850000E94A71F8091E10084FF2BC08091E2009D
:1048600084FF27C080E189BD82E189BD89B5982F89
:10487000917080FFFBCF8091D8008F7D8093D8000E
:104880008091E1008F7E8093E1008091E2008F7E35
:104890008093E2008091E20081608093E200809149
:1048A000A303882309F449C084E08093A7030E94EE
:1048B000A81F8091E10083FF29C08091E20083FF5F
:1048C00025C08091E100877F8093E10082E08093A2
:1048D000A7031092A3038091E1008E7F8093E100F3
:1048E0008091E2008E7F8093E2008091E2008061FF
:1048F0008093E20042E060E080E00E94D12280915B
:10490000F00088608093F0000E94A61FFF91EF9155
:10491000BF91AF919F918F917F916F915F914F91D7
:104920003F912F910F900FBE0F901F90189519BCBB
:104930001092A7030E94A31F70CF8091E30087FD10
:1049400093E09093A703B3CF1F920F920FB60F92ED
:1049500011242F933F934F935F936F937F938F9384
:104960009F93AF93BF93CF93DF93EF93FF93D09138
:10497000E900DF708091EC00C82FC17080FDC0E8B5
:104980001092E9008091F000877F8093F000789486
:104990000E94E8241092E9008091F00088608093E2
:1049A000F000CD2BCF70C093E900FF91EF91DF9124
:1049B000CF91BF91AF919F918F917F916F915F91B7
:1049C0004F913F912F910F900FBE0F901F90189510
:1049D0001F93CF93DF93CDB7DEB7AA970FB6F894A6
:1049E000DEBF0FBECDBF88EA93E02091F100FC014D
:1049F0002193CF01F3E0803B9F07B9F70E94C71FC7
:104A00008091E80083FF1EC18091A8039091A903C3
:104A10009A3008F017C1E92FF0E0E450F94D0C94FA
:104A20007E26803899F0823809F00CC18091AC0361
:104A30008F70873008F006C18093E9008091EB0009
:104A400085FB882780F91092E90006C08091A403B5
:104A50009091A503911182609091E800977F9093C7
:104A6000E8008093F1001092F1008091E8008E77C9
:104A7000E5C0882309F4D3C0823009F0E3C08091F7
:104A8000AA038111D6C08091AC038F702FEF280F3D
:104A9000263008F0D7C08093E9002091EB0020FF7A
:104AA000C8C0933031F48091EB0080628093EB00BA
:104AB000C0C09091EB0090619093EB0021E030E05A
:104AC00001C0220F8A95EAF72093EA001092EA00CB
:104AD0008091EB008860EACF8111B4C01091AA03E5
:104AE0001F778091E3008078812B8093E300809191
:104AF000E800877F8093E8000E9405238091E8000A
:104B000080FFFCCF8091E30080688093E30082E027
:104B1000111183E08093A70395C08058823008F07C
:104B200091C08091AA039091AB038C3D23E0920742
:104B3000A1F583E08A838AE289834FB7F894DE0186
:104B4000139620E03EE051E2E32FF0E0509357004F
:104B5000E49120FF03C0E295EF703F5FEF708E2F6E
:104B600090E0EA30C0F0C7968D939D932F5F24317B
:104B700059F74FBF8091E800877F8093E8006AE291
:104B800070E0CE0101960E9414228091E8008B779C
:104B90008093E80057C0C096E7CF6091AC03709156
:104BA000AD03AE014F5F5F4F0E940721BC01892B0F
:104BB00009F448C09091E800977F9093E8008981BC
:104BC0009A810E947222E1CF8038E1F58091E8005D
:104BD000877F8093E8008091A3038093F10045CF05
:104BE000811130C09091AA03923060F58091E80065
:104BF000877F8093E8009093A3030E940523809110
:104C0000A303882311F084E005C08091E30087FDB1
:104C1000FACF81E08093A7030E94A91F13C080915F
:104C2000AA03813079F481E0933009F080E0809329
:104C3000A5031092E9008091E800877F8093E80047
:104C40000E9405238091E80083FF0AC08091E8005C
:104C5000877F8093E8008091EB0080628093EB0077
:104C6000AA960FB6F894DEBF0FBECDBFDF91CF91ED
:104C70001F9108950895CF938091A7038823A1F0F1
:104C8000C091E900CF709091EC00892F817090FD68
:104C900080E8C82B1092E9008091E80083FD0E9413
:104CA000E824CF70C093E900CF910895AA1BBB1BE5
:104CB00051E107C0AA1FBB1FA617B70710F0A61B1C
:104CC000B70B881F991F5A95A9F780959095BC013D
:104CD000CD01089597FB072E16F4009407D077FDB9
:104CE00009D00E94562607FC05D03EF49095819588
:104CF0009F4F0895709561957F4F0895EE0FFF1FA8
:104D00000590F491E02D0994692796276927782763
:104D1000872778270895F999FECF92BD81BDF89A2B
:104D2000992780B50895A8E1B0E042E050E00C94E6
:104D3000BF26262FF999FECF92BD81BDF89A019723
:104D400000B4021639F01FBA20BD0FB6F894FA9AD3
:104D5000F99A0FBE08950396272F0E949A260E9463
:104D60009926252F0E949A26242F0C949A26019684
:104D7000272F0E949A260C949926DC01CB01FC0176
:104D8000F999FECF06C0F2BDE1BDF89A319600B4A4
:104D90000D9241505040B8F70895F894FFCF9D0B05
:104DA000AA0BD10BDD0BE80BF30BF60BF60BF60B96
:104DB000F60BF60BF90BFD0B050C120C1F0C220C5D
:104DC000250C320C0C120C124F124F128012391299
:104DD000391239129A122D133D133D13E213E213C7
:104DE000EB13EB13ED13EB13EB13EB13E213E213E3
:104DF000F213EB13EB13F213112539252226392573
:0C4E000022266C258D252226E425F025B5
:104E0C008902048540000001064000000100001FDB
:104E1C003E1F031F3A1F361F01E200E900EA00B5EE
:104E2C0000B600B700CD008301CC008A019201943A
:104E3C00012102230224022502260227022A02B3A0
:104E4C0000B4006F007000818283F4F5F6F7313303
:104E5C003236C6976694909100FF0100010000FF66
:104E6C00FF0000010001FF00E200E900EA00B500CC
:104E7C00B600B700CD008301CC008A0192019401E9
:104E8C002102230224022502260227022A02B30051
:104E9C00B4006F00700081828302030200000100E5
:104EAC0001010101010001014022323504E103033B
:084EBC000422033B035B030029
:00000001FF
