:100000000C9402030C9449030C9449030C94490387
:100010000C9449030C9449030C9449030C94490330
:100020000C9449030C9449030C9471300C944531A1
:100030000C943D270C9449030C9449030C944903F8
:100040000C9449030C9449030C9449030C94490300
:100050000C9449030C94B0270C9449030C94490365
:100060000C9449030C9449030C9449030C944903E0
:100070000C9449030C9449030C9449030C944903D0
:100080000C9449030C9449030C9449030C944903C0
:100090000C9449030C9449030C9449030C944903B0
:1000A0000C9449030C9449030C944903A847BA5C87
:1000B0005F5D605DBB5C475C485CB25C495C4A5C10
:1000C0004B5C4C5C4D5C4E5C4F5C0000505C515C8A
:1000D000525C535C545C555C565C0000575C585C49
:1000E000595C5A5C5B5C5C5C5D5C00005E5C5F5C08
:1000F000605C615C625C635C645C0000655C665CC7
:10010000675C685C695C6A5C6B5C00000100010014
:100110005F5D605D0100825D835D0100845D855DE2
:10012000865D875D885D895D8A5D00008B5D8C5D85
:100130008D5D535C545C555C565C0000575C585CAC
:10014000595C5A5C5B5C5C5C5D5C00005E5C5F5CA7
:10015000605C615C625C635C645C0000655C665C66
:10016000675C685C695C6A5C6B5C000001000100B4
:100170005F5D605D0100825D835D0100845D855D82
:10018000865D875D885D895D8A5D00008B5D8C5D25
:100190008D5D8E5D8F5D905D915D0000925D935DE4
:1001A000595C5A5C5B5C5C5C5D5C00005E5C5F5C47
:1001B000605C615C625C635C645C0000655C665C06
:1001C000675C685C695C6A5C6B5C00000100010054
:1001D0005F5D605D0100825D835D0100845D855D22
:1001E000865D875D885D895D8A5D00008B5D8C5DC5
:1001F0008D5D8E5D8F5D905D915D0000925D935D84
:10020000945D955D965D975D985D0000995D5F5C7E
:10021000605C615C625C635C645C0000655C665CA5
:10022000675C685C695C6A5C6B5C000001000100F3
:10023000905C915C010001000100010001000100DF
:1002400001000100010001000100000001000100A7
:100250000100010001000100010000000100010097
:100260000100010001000100010000000100010087
:100270000100010001000100010000000100010077
:10028000010001000100010001000000A847BA5C64
:100290005F5D605DBB5C6B5C6A5C0100695C685CB7
:1002A000675C665C655C645C635C0000625C615C0E
:1002B000605C5F5C5E5C5D5C5C5C00005B5C5A5C2F
:1002C000595C585C575C565C555C0000545C535C50
:1002D000525C515C505C4F5C4E5C00004D5C4C5C71
:1002E0004B5C4A5C495C485C475C000001000100D3
:1002F000915C905C0100010001000100010001001F
:1003000001000100010001000100000001000100E6
:1003100001000100010001000100000001000100D6
:1003200001000100010001000100000001000100C6
:1003300001000100010001000100000001000100B6
:1003400001000100010001000100000001009D5CAE
:10035000815C825C9E5C655D625D01000000635DA6
:100360000000645D000000000000000000000000CC
:10037000C95C665DC85C0000C75C00000000C65C2C
:10038000675DCD5C0000CC5C00000000CB5C685D6C
:10039000CA5C0000C55C0000C45C00000000DF5CBB
:1003A0000000615D0000C35C695D000000010101A7
:1003B0000101010101010202020202020202020322
:1003C00003030303030303040404040404040505F2
:1003D00005050506060606060707070707080808B5
:1003E00008090909090A0A0A0B0B0B0C0C0C0D0D64
:1003F0000D0E0E0E0F0F0F101011111112121313FC
:100400001414151516161717181819191A1A1B1B74
:100410001C1D1D1E1E1F20202122222324242526D0
:1004200026272829292A2B2C2D2D2E2F3031323208
:10043000333435363738393A3B3C3D3E3F40414214
:10044000434445464748494A4C4D4E4F50515354FA
:10045000555658595A5B5D5E5F61626465666869AE
:100460006B6C6D6F7072737577787A7B7D7E80822E
:10047000838587888A8C8E8F91939596989A9C9E77
:10048000A0A2A3A5A7A9ABADAFB1B3B5B7BABCBE87
:10049000C0C2C4C6C9CBCDCFD1D4D6D8DBDDDFE254
:1004A000E4E7E9EBEEF0F3F5F8FAFDFF1E03630075
:1004B000680072006F006D00610074006F006E00D4
:1004C00065006D0069006E00690000000E033300D6
:1004D00061007200610068007400000004030904F8
:1004E00009029F00040100A0FA09040000010301B1
:1004F00001000921110100012240000705810308C4
:10050000000A090401000103000000092111010093
:10051000012232000705820320000A080B020201B3
:10052000010000090402000001010000092401008B
:10053000010900010309040300020103000007246C
:10054000010001410006240201010006240202020A
:10055000000924030103010201000924030204012C
:100560000101000905040240000500000525010104
:100570000109058302400005000005250101031261
:1005800001100100000008EDFEB4F40100010200BA
:100590000105010980A101850319012AB700150190
:1005A00026B700950175108100C0050C0901A10155
:1005B000850419012AA002150126A00295017510D3
:1005C0008100C005010906A101050719E029E71509
:1005D00000250195087501810295017508810105C5
:1005E00007190029FF150026FF00950675088100F0
:1005F00005081901290595057501910295017503F5
:100600009101C00011241FBECFEFDAE0DEBFCDBFE5
:1006100004B603FE27C08091690890916A08A091F2
:100620006B08B0916C088730904BA740B04BD1F469
:100630001092690810926A0810926B0810926C0868
:1006400014BE84B7877F84BF0FB6F894A8958091B5
:100650006000886180936000109260000FBEE0E04F
:10066000F8E3099514E0A0E0B1E0E8EFF8E602C095
:1006700005900D92A435B107D9F728E0A4E5B4E0C0
:1006800001C01D92A936B207E1F70E94582D0C94C3
:100690003F340C940000882311F0815008958BE0C2
:1006A00008958B3010F48F5F089580E008950E94C4
:1006B000A0188FE70E945A194FEF6FEF8AEA90E077
:1006C0000E94F11886E10C94C0188091CE05807FBD
:1006D00082608093CE058091CF0580788567809376
:1006E000CF05E8E5F4E08FEF819394E0E13AF90774
:1006F000D9F761E070E080E090E00E94DF2361E0E4
:1007000070E080E090E00C941B24EEECF5E080813A
:100710008F7080831092A10481E0809391020895EC
:100720000E948503109257040895FF920F931F9320
:10073000CF93DF93082F6A561091CF051F77862F2E
:1007400090E0E901C80FD91F3881FA0122812223E4
:10075000A9F03F3F69F4815D934A0E94020BF82E95
:10076000212F482F602F8FE697E00E942728F882DC
:10077000DF91CF911F910F91FF9008953F3F39F086
:10078000212F432F602F8FE697E00E9437288FEFAD
:100790008883EECF80915604823141F128F488237A
:1007A00041F08C30A9F00895883171F18432D1F193
:1007B000089580915704882331F061E170E080E072
:1007C00090E00C941B2461E070E080E090E0F9CFB1
:1007D00080915704882329F062E170E080E090E086
:1007E000F0CF62E070E080E090E0EBCF80915704C2
:1007F000882329F064E170E080E090E0E2CF64E0DB
:1008000070E080E090E0DDCF80915704882329F0EC
:1008100068E170E080E090E0D4CF68E070E080E0D4
:1008200090E0CFCF80915704882329F060E670E0F4
:1008300080E090E0C6CF60E270E080E090E0C1CF61
:10084000FB0185362DE5920709F457C090F58136F6
:100850002DE5920709F4D8C058F48F352DE592079D
:1008600009F47CC080369D4509F4A4C081E0089558
:10087000228183363DE5930709F464C008F4CFC0B4
:100880002223A1F32091A20481E028272093A2042F
:100890009091CF058091D005222309F41EC1906864
:1008A0009093CF05887F8093D00583E08093920258
:1008B000DDCF88362DE59207A9F170F486362DE557
:1008C000920731F187369D4589F68281882371F23E
:1008D0000E94900382E123C089362DE5920751F1F1
:1008E000833B3DE5930710F628E534E0AB01BC01FE
:1008F000809192020E949503B9CF8281882309F4E6
:10090000B5CF0E949003109256040E94CA03AECF46
:100910008281882309F4AACF0E9490038CE08093FF
:100920005604F3CF8281882309F4A0CF0E9490035C
:1009300088E1F5CF8281882309F498CF0E94900343
:1009400084E2EDCF222309F491CF0E9485038091A8
:10095000570491E0892780935704D7CF8281882359
:1009600009F484CF8091A1059091A205A091A305DF
:10097000B091A40584309105A105B10549F078F442
:100980000197A109B1090297A105B10508F06ECF41
:100990008091A1040E944B038093A10467CF88300B
:1009A0009105A105B105A1F38097A105B10509F055
:1009B0005DCFEECF8281882309F458CF8091A105C5
:1009C0009091A205A091A305B091A4058430910552
:1009D000A105B10549F068F40197A109B109029791
:1009E000A105B10508F042CF8091A1040E945103F6
:1009F000D3CF88309105A105B105B1F38097A1054A
:100A0000B10509F033CFF0CF8281882309F42ECFCE
:100A10008091900291E089278093900227CF222332
:100A200009F424CF4091A1055091A2056091A3053E
:100A30007091A4058091CE05443951056105710579
:100A400051F0A8F441595109610971094230510529
:100A500061057105D8F49091910221E02927209336
:100A600091029093A104992331F1806F25C0403AFF
:100A700051056105710539F1403E5105610571056A
:100A800081F0483951056105710529F310929102F1
:100A900091E09093A104806F8093CE0590935704CA
:100AA00034CF9091910221E0922790939102992363
:100AB00031F01092A1048F708093CE05D7CE9BE0C9
:100AC0009093A104D2CF109291029BE09093A10445
:100AD000806F8093CE0581E03ECF9F779093CF05C6
:100AE000887F8093D00582E0E1CEDF92EF92FF9283
:100AF0000F931F93CF93DF93082FF62EE42E809150
:100B000090028823E9F08091A10419E0811101C0CD
:100B10001CE0D0E0C0E08CE0D82E8091A104FE0162
:100B2000D89EE00DF11D1124EC5DFC4F80812E2D2F
:100B30004F2D602F90E00E940F112196C11768F38E
:100B4000DF91CF911F910F91FF90EF90DF9008956B
:100B5000EF92FF920F931F93CF93DF930E94A418FD
:100B6000882309F18091A1059091A205A091A30588
:100B7000B091A40582319105A105B10509F4E0C049
:100B800038F584309105A105B10509F426C190F42A
:100B900081309105A105B10509F4B4C00297A10502
:100BA000B10509F407C1DF91CF911F910F91FF901B
:100BB000EF90089588309105A105B10509F420C191
:100BC0004197A105B10579F740E069E183E39DC054
:100BD00080329105A105B10509F49FC0E8F4843184
:100BE0009105A105B10509F4BFC04897A105B1055C
:100BF000D1F640E069E183E30E947505CDEFD2E0D4
:100C0000899120E040E063E390E00E940F11F3E05F
:100C1000C030DF07A9F7C7CF80369105A105B10520
:100C200009F4B5C008F4BFCF80589109A109B109F2
:100C3000C1E0D0E081389105A105B10508F0B3CF3E
:100C400029E143E360E0CE010E940F112196C530F7
:100C5000D105B1F78091B80229E143E360E090E06B
:100C60000E940F118091BE0229E143E360E090E011
:100C70000E940F118091C40229E143E360E090E0FB
:100C80000E940F1105EB12E08DEFE82E82E0F82EA6
:100C9000E801899126E041E26BE290E00E940F11A9
:100CA0008BA120E043E360E090E00E940F118DA94A
:100CB00020E043E360E090E00E940F11F701819192
:100CC0007F0120E043E360E090E00E940F11F70114
:100CD00083A120E043E363E390E00E940F11F2E080
:100CE000C83BDF07B1F6F80181A129E143E360E0E9
:100CF00090E00E940F110A5F1F4FF3E003301F07BF
:100D000091F751CF46E061E28BE2DF91CF911F91E5
:100D10000F91FF90EF900C94750540E063E383E33F
:100D20000E947505C1E2D3E0899120E040E063E3D1
:100D300090E00E940F1183E0C432D807A9F733CFA7
:100D400040E069E183E30E947505C9EDD2E00CED56
:100D500012E0899120E040E063E390E00E940F11EF
:100D60000C171D07B1F71FCF40E069E183E30E9434
:100D70007505CBEED2E0899120E040E063E390E09E
:100D80000E940F11E2E0CE3EDE07A9F70CCF40E053
:100D900069E183E30E947505C1E2D3E0899120E017
:100DA00040E063E390E00E940F1183E0C432D80773
:100DB000A9F7F9CE40E063E380E00E947505C9ED34
:100DC000D2E0899120E040E063E390E00E940F11BF
:100DD000E2E0CC3DDE07A9F7E6CE40E063E380E049
:100DE0000E947505CBEED2E0899120E040E063E3FC
:100DF00090E00E940F11F2E0CE3EDF07A9F7D3CEBC
:100E000040E063E380E00E947505CDEFD2E0899178
:100E100020E040E063E390E00E940F1183E0C030E7
:100E2000D807A9F7C0CE811106C089EA611101C0B7
:100E30008AEA0E94C21E81E0089581E008950C9420
:100E4000200408950C9421071F93CF93DF9300D0C3
:100E500000D00F92CDB7DEB749835A836B833091B0
:100E60004A0589819A8131111DC06623B9F0222378
:100E7000A9F00E943225182F682F89819A810E943B
:100E8000DD2469817A81812F0F900F900F900F9050
:100E90000F90DF91CF911F910C94DA070E940A25E1
:100EA000182FEFCF0E94322569817A81EDCFFC01A6
:100EB000262F408151816281738184810C942407A3
:100EC000CF93DF93EC0160E00E945707BE01DF91F2
:100ED000CF910C9422070E94B4090E9449180C94E7
:100EE000D9090C94DC0908950E94BF200E94730761
:100EF0002FEF84E39CE0215080409040E1F700C058
:100F000000000C94D4270F931F93CF93DF93EC0131
:100F100061E00E9457078C01BE010E941F078823D1
:100F200089F1BE01C8010E94110B882359F1BE014D
:100F3000C8010E94221B882329F1BE01C8010E941A
:100F4000741B8823F9F0BE01C8010E94971C8823F6
:100F5000C9F0BE01C8010E949E19882399F08A81B8
:100F6000882339F001158CE5180751F00F3D1C4519
:100F700079F0CE01DF91CF911F910F910C941D0755
:100F80000E94740780E0DF91CF911F910F91089527
:100F90000E949D26F7CF08950C94CB0781E0089519
:100FA0000C94CE07CF93C82F0E94CC078C2FCF91E3
:100FB0000C94D007E72FF0E096E0899FE00DF11D3B
:100FC000112483E0EE0FFF1F8A95E1F7E60FF11D74
:100FD000EE0FFF1FE455FF4F859194910895CF9335
:100FE000DF930E94DA070E94C208EC01811521E517
:100FF000920778F5811530E5930708F076C08F3BAE
:10100000910580F4883A910508F064C0853A91050D
:1010100008F058C08430910588F4019779F0D0E049
:10102000C0E00CC08115904268F4C11581E0D8077A
:1010300028F4CE01805E9109089788F7CE01DF91F0
:10104000CF910895C11590E4D90748F3DF70D06AB5
:10105000F5CF811524E5920778F4811533E59307E0
:1010600008F06FC0811542E5940708F05AC0D82FE8
:10107000CC27C16FD06AE2CFC1158AE5D80770F4DA
:10108000C11599E5D90708F06FC0C11528E5D20749
:1010900030F2DC2FCC27C06FD06AD0CFCE01905673
:1010A0008115904208F0BBCF8D2F8F710E94590996
:1010B00090E0982F882788279F719C012C2BE901AD
:1010C000D062BCCFC55AD0E0CE51DC4FC881D0E051
:1010D000D064B4CFC85AD0E0CC0FDD1FCC54DC4F65
:1010E0000990D881C02DD464A9CF64E096958795E6
:1010F0006A95E1F783702C2F26952695237040E2A0
:10110000249F90011124382B8C2F8370C1E0D0E0F4
:1011100002C0CC0FDD1F8A95E2F7C22BD32BDC680F
:101120008DCF8370992721E030E002C0220F331F5A
:101130008A95E2F7C695C69580E2C89FE001112422
:10114000ECCF8370992721E030E002C0220F331FDB
:101150008A95E2F7C695C69590E2C99FE0011124F1
:10116000C22BD32BDA686ACF8C2F8F700E9459095B
:1011700034E0D695C7953A95E1F7CF709C2FEC01F6
:10118000D0695CCF82389105B1F1B0F4813391051B
:1011900009F475C048F48932910509F469C08A32AE
:1011A000910509F473C008958533910509F459C078
:1011B0008933910501F10895833E9105A9F138F431
:1011C000803E9105F9F0823E910549F10895863EF1
:1011D0009105A9F1873E9105C9F1843E910519F564
:1011E0002091C10521FF1FC08091C00584FD14C05E
:1011F00087EE90E008952091C0052370A1F080EE65
:1012000090E008952091C00520FD47C03091C105B0
:1012100030FF09C024FF44C090E080E004C020916A
:10122000C00522FDF7CF08952091C00522FD3BC0E7
:101230003091C10530FDE3CF24FFF5CFEDCF2091F4
:10124000C00523FFF0CF24FDE7CFD2CF2091C0050A
:1012500023FD2CC03091C10531FFEECF84EE90E02C
:1012600008952091C00525FFDECF89E290E0089522
:101270002091C00525FFD7CF85E390E00895209108
:10128000C00526FFD0CF8AE290E008952091C005E6
:1012900026FFC9CF81E390E0089589E390E00895A7
:1012A00083EE90E0089582EE90E0089586EE90E05F
:1012B00008959091C00592FF06C0282F287128300C
:1012C000F9F4877F846093FF06C0282F28712831A6
:1012D000F1F4877E84612091C10520FF06C0382F7C
:1012E00038713830D9F4877F816021FF06C0282FFC
:1012F00028712831D1F4877E816194FD877E08951D
:10130000282F24712430F9F68B7F8860DCCF282FBA
:101310002471243101F78B7E8861DDCF382F317144
:10132000313019F78E7F8860E0CF282F217121316D
:1013300021F78E7E8861E1CF0C94FD250E94370A4B
:101340008FE39CE90197F1F700C000000E94370A83
:1013500080E00E94DE0980FF04C00E949C090C947A
:10136000D42708950C949E090E940326811102C07F
:101370000E949D260E940E268093B4050E94162688
:101380009093C1058093C0050E94B2090E94122665
:10139000682F70E090E080E00E94DF236091A1055B
:1013A0007091A2058091A3059091A4050C94192435
:1013B00008950C94D80908950C94DB09E82FF0E007
:1013C000E853FA4F80810895089580EA8A95F1F7ED
:1013D000089500C008950C94E509F894E82FE2956B
:1013E000EF70F0E031A1282F2F7081E090E001C074
:1013F000880F2A95EAF7982F9095932391A392A1AD
:10140000892B82A3789408950F931F93CF93DF9332
:1014100086EC0E94ED0987E90E94ED0986E60E94AC
:10142000ED0984E90E94ED0980E90E94ED0981E956
:101430000E94ED09C5EED3E00DEE13E089910E9404
:10144000ED090C171D07D1F7E2ECF5E0A8ECB5E0CB
:1014500011921D9285E0E83CF807D1F786E00E94E2
:10146000AE0ADF91CF911F910F910C946B07CF9231
:10147000DF92EF92FF920F931F93CF93DF93CDEE06
:10148000D3E002EC15E0D12CEE24E394F12C899109
:10149000F894E82FE295EF70F0E021A18F70A7019A
:1014A00002C0440F551F8A95E2F7CA01922F982B6C
:1014B00091A392A18095892382A378940E94E9093F
:1014C000E5EEF3E030E020E0C12C4191A42FA2959D
:1014D000AF70B0E090968C9190E04F7002C09595FF
:1014E00087954A95E2F780FD35C08E2D022E01C00A
:1014F000880F0A94EAF7C82A2F5F3F4F283031053A
:1015000021F7FE01319780810E94ED090E94EB09CD
:10151000F8018081C81601F1C08281E0D82A0F5FEE
:101520001F4FF3E0C33FDF0709F0B1CF2D2D46E099
:1015300068EC75E082EC95E00E94AF0A0E947107AA
:101540008D2DDF91CF911F910F91FF90EF90DF9044
:10155000CF90089580E0CFCF80E0E0CF0895FF9254
:101560000F931F93CF93DF93F82E092F162FD72FAA
:10157000C42F222349F081E08093A5040E946D27A7
:101580009093A4048093A3048091A5048823A1F0E0
:101590008091A3049091A4040E948527069760F08F
:1015A000EF2DF02FA12FBD2FCE0FDF2FD11DEC1768
:1015B000FD0741F41092A504DF91CF911F910F9187
:1015C000FF90089581918D93F2CF84E08093CE05B2
:1015D0008FE78093CF058091D005807880648093D9
:1015E000D005EAEAF4E08FEF819394E0E23FF90757
:1015F000D9F71092A9041092A8041092A70410928F
:10160000A60408959091CE05292F2F709595959554
:10161000959595959F523CE0239F900D1124890F3D
:101620000895FF920F931F93CF93DF93FB018F3A9F
:101630002CE5920708F085C08F394CE5940708F037
:101640008DC180392CE5920750F583384CE594071D
:1016500008F040C181382CE5920760F487374CE5EB
:10166000940708F01FC18F322CE5920708F0DFC005
:10167000C1E011C181384CE5940709F420C18238DA
:101680009C45B1F78281882309F4EBC08091CE0597
:10169000982F9F70993008F0E4C09F5F19C18D3971
:1016A0004CE59407A0F582392CE5920708F02FC18C
:1016B00080394CE5940709F418C181399C45C1F67D
:1016C0008281882309F4CDC02091CE05822F859593
:1016D00085958595859586300CF0C3C091E0980F6F
:1016E0009295907F9595959595959595392F3295ED
:1016F000307F2F70232B2093CE0518160CF0B1C02D
:1017000097FFAFC08295807F922F9F70D4C08D3994
:101710004CE5940709F409C18E399C4509F0A8CF1E
:101720008281882309F49DC08091CF05982F9F77EF
:101730009F3709F496C0933708F00EC1935F9F77E7
:10174000F2C0853B4CE5940709F466C1C8F5813BBE
:101750004CE5940709F432C1D8F48F3A4CE594076C
:1017600009F40EC1803B9C4509F082CF8281882319
:1017700009F477C02091CF05322F331F3327331F51
:101780009091D005892F8770880F832B8F5F09C1B7
:101790006091CF053091D0052281833B4CE59407C1
:1017A00009F42EC108F420C121112FE7862F881FCC
:1017B0008827881F632F6770660F682B42E40FC16C
:1017C000883B2CE5920709F43AC180F4863B2CE56E
:1017D000920709F421C1873B9C4509F049CF8281DA
:1017E00081112BC18FEF8093A8043BC08A3B2CE56D
:1017F000920709F45AC108F443C18B3B9C4509F098
:1018000037CFC2816091CF05862F881F8827881F18
:101810006091D0056770660F682BCC2309F455C121
:101820004FEF5FE18FE697E00E9447281AC02091B2
:10183000CF05322F331F3327331FD091D005D770F8
:10184000DD0FD32BF22EE894F7F8C28101ED080FDB
:1018500010E006551B4FF8014081CC2389F04F3F23
:1018600011F0C0E018C00E94020BC82F2F2D482F86
:101870006D2F8FE697E00E942728F801C083F1CFF3
:101880004F3F31F02F2D6D2F8FE697E00E943728C4
:101890008FEFF80180838C2FDF91CF911F910F91F3
:1018A000FF90089522812223E1F28757982F9F709D
:1018B0008091CE05807F892B8093CE05D2CF828107
:1018C000882379F28091CE05982F9F7051F2915F15
:1018D0009F70F0CF2281222321F28958982F929570
:1018E000907F8091CE058F70E6CF8281882309F4A6
:1018F000B8CF8091CE05982F95959595959595950E
:101900009B3F0CF4AECF915F9295907FECCF2281FC
:10191000222309F4A6CF82599CE0899F902D11249F
:101920009F778091CF05807815C08281882309F444
:1019300098CF8091CF05982F9F7709F492CF807828
:101940009F3721F485678093CF058BCF9D30D8F3E7
:101950009D509F77892BF7CF8F67F5CF2281222368
:1019600009F47FCF8F599091CF0580FB97F9909321
:10197000CF05869587709091D005987F892B7DC083
:101980008281882309F46DCF2091CF05322F331F38
:101990003327331F9091D005892F8770880F832BB1
:1019A000815F382F3F7080FB27F92093CF05832F6D
:1019B0008695987F982B9093D00553CF828188236A
:1019C00009F44FCF6091CF05862F881F8827881F85
:1019D0006091D0056770660F682B20E04BE78FE6BB
:1019E00097E00E9417283DCF21112FE7862F881FEF
:1019F0008827881F632F6770660F682B40E4EFCF3E
:101A000021112FE7862F881F8827881F632F677073
:101A1000660F682B41E4E3CF828120E081112FE73C
:101A20006091CF05862F881F8827881F6091D00579
:101A30006770660F682B43E4D2CF81E0D4CE8281F9
:101A4000882309F40ECF9091D005292F269526954D
:101A500026952F7081E0820F8F70880F880F880F76
:101A60009778892B8093D005982F987709F0F9CE35
:101A7000220F220F220F8778822B8093D005F1CE80
:101A80008281882309F4EDCE8091D005982F987734
:101A900009F4E7CE982F969596959695915F9F704D
:101AA000990F990F990F877869CFC2816091CF05FF
:101AB000862F881F8827881F6091D0056770660F62
:101AC000682B40E050EEC111ADCE50E040E08FE613
:101AD00097E00E944728DFCE8FE697E00E94492AD0
:101AE0008091A6049091A7040E9485272091D0059B
:101AF0002695269526952F702817190609F0A0F52A
:101B00000E946D279093A7048093A6048091A80457
:101B1000882351F16091CF05862F881F8827881F61
:101B20006091D0056770660F682B2091A90441E091
:101B30008FE697E00E9417288091A8049091A9044D
:101B400087FF0DC0482F552741950CF450959417E9
:101B500015062CF41092A9041092A8040895890F78
:101B600087FD03C08093A90408958FE7FBCFEF9210
:101B7000FF920F931F93CF93DF93EB01E82FD111C7
:101B800010C0442321F0F0E0E455FC4FE4916E2FA7
:101B90007E2F8E2FDF91CF911F910F91FF90EF90AD
:101BA00008950D2F10E0282F30E0442329F024550C
:101BB0003C4FF901249130E0F6E0CF9FC0011124A1
:101BC000EFEFF0E0BF010E94F732AB018C2F90E005
:101BD000880F991FA5E5A49FB001A59F700D112442
:101BE000861B970B982F990F980FBF01601B710BE5
:101BF000629FD001639FB00D729FB00D11248B2F97
:101C00009D9FB0011124672F7727EF01C61BD70BCB
:101C1000BE01629FE001639FD00D729FD00D112421
:101C20007F01E91AF108E09EB001E19E700DF09E7F
:101C3000700D1124672F7727E61BF70BE29F8001B9
:101C4000E39F100DF29F100D1124E12F722F4230EF
:101C5000510599F048F44115510569F0413051059D
:101C600081F0EB2F8D2F07C04430510569F080F0D3
:101C700046305105B1F76E2F8DCFE22F7B2F812F8C
:101C8000FACFE22F7D2FF7CFEB2F822F712FF3CFDB
:101C90007B2F822FED2FEFCF41E00C94B70D30E07A
:101CA00020E0869F212D969F200D311D1124C90112
:101CB0000895AC018230910508F408959FEF413EEC
:101CC0008EE1580740F49A0195E0369527959A954C
:101CD000E1F798E0920F61E0E62FE90FFF27FF1F81
:101CE0009F0135952795822F229FF001239FF00DAC
:101CF000F00D11244E175F0738F49FEF920F9617DF
:101D000058F78FEF860F08952F3FE9F361E0620FD8
:101D1000F6CFE82F86FDE0952E2F2F7086FD2F5FE2
:101D2000E695E695E695E670F0E0ED50FC4F918182
:101D3000929F902D212D112492959F702295207FA6
:101D4000922B2081920F87FD919580E8890F08954D
:101D5000E42FF0E0EE0FFF1FEC5CFE4F408134EE0D
:101D6000439F412D1124E82FF0E050E0445E5F4F87
:101D7000DA01A21BB1099D01B7FF03C0319521957E
:101D8000310993E0220F331F9A95E1F7AF01421B0F
:101D9000530B9A0157FD20E0582F259F212D112428
:101DA000822F0895622F0895E42FF0E0EE0FFF1FB9
:101DB000EC5FFE4F61A9621B0895322F50E0FA01DB
:101DC000EE0FFF1FEC5FFE4F91A9905297FD91958A
:101DD000440F551FFA01EC5CFE4F2081231B330B8F
:101DE000290F311D97FD3A95620F0895EF920F93D9
:101DF000972F23E0029FB0011124759567956E0D12
:101E0000792F0F91EF9008950F93CF93DF93D72FF2
:101E1000C82F47FD41958EE390E0841B910947FD53
:101E20009395889FB001899F700D700D1124229F9A
:101E3000C001239F900D900D1124860F971F0E94C3
:101E4000590E982F990F890F682F600F7D2F8C2FB7
:101E5000DF91CF910F9108950F931F93522F10E0B0
:101E6000F801EE0FFF1FEC5FFE4FA1A9A052BB0BC4
:101E70009D015203F001539FF00D1124000F111F1B
:101E8000D801AC5CBE4F0C910C57110B4003900174
:101E9000419F300D11242E0F3F1F37FF02C02158E4
:101EA0003F4F220F232F221F330B620F1F910F91E1
:101EB00008950F931F93522F10E0F801EE0FFF1FAC
:101EC000EC5FFE4FA1A9A052BB0B9D015203F00194
:101ED000539FF00D1124000F111FD801AC5CBE4FB1
:101EE0000C910C57110B40039001419F300D1124B0
:101EF0002E0F3F1F37FF02C0215C3F4F96E0359504
:101F000027959A95E1F7620F1F910F91089522E8A6
:101F1000241B08F420E0620F0895EF92FF920F93C4
:101F2000970195E0099F200D311D11242F3F3105A8
:101F300019F010F02FEF30E02095382F320F08F411
:101F40003FEF832F0F91FF90EF900895EF92FF9254
:101F50000F93972F093438F4B701601B71096F3F55
:101F6000710519F010F06FEF70E0485F5F4F41317D
:101F7000510540F0A901485F5F4F4131510510F014
:101F80006FEF70E06095482F460F08F44FEF842FF5
:101F900037FF02C02D5F3F4F359527953595279523
:101FA0006091D305620F792F0F91FF90EF90089504
:101FB000EF92FF920F939701201B31092F3F3105BC
:101FC00019F010F02FEF30E0322F3095482F430FEB
:101FD00008F44FEF842F620F0F91FF90EF90089558
:101FE000EF92FF920F939701201B31092F3F31058C
:101FF00019F010F02FEF30E02095382F320F08F451
:102000003FEF832F0F91FF90EF900895EF92FF9293
:102010000F931F930E0D1F2D111D9A0157FF03C023
:1020200031952195310994E0220F331F9A95E1F7FC
:102030002F3F310519F014F02FEF30E0200F311F42
:102040002F3F310519F010F02FEF30E02095382F99
:10205000320F08F43FEF832F1F910F91FF90EF9005
:102060000895FC019B01009729F480E077FF2BC0C5
:1020700080E80895AC0197FF04C044275527481B0A
:10208000590BB901640F751F37FD10C0241B350BA8
:10209000C901A5E0880F991FAA95E1F70E940B33AB
:1020A00080E2861BF7FF0FC081950895CB0165E0A4
:1020B000880F991F6A95E1F7BA01621B730B0E94A2
:1020C0000B3380E6EECF08950F931F93CF93DF93EA
:1020D000D62FC72F182FC901212F201B022FBA017D
:1020E0000E943110982F990F990F891B800F282F6C
:1020F000219F212D1124822F6D2F7C2FDF91CF91D5
:102100001F910F910895EF920F931F93CF93DF9339
:10211000D62FC72F182FC9010E19010FBA010E941F
:102120003110081B202F219F212D1124822F6D2F6C
:102130007C2FDF91CF911F910F91EF9008950F9316
:10214000CF93DF93D72FC82FC901BA010E94311056
:10215000682F600F7D2F8C2FDF91CF910F91089505
:10216000EF920F93CF93DF93D72FC82FC9010E198A
:10217000BA010E943110602F681B7D2F8C2FDF91D8
:10218000CF910F91EF9008950C944C0E46E050E0E3
:102190006CE170E082ED95E00C94CB3346E050E0CA
:1021A0006CE170E082ED95E00C94E933E2EDF5E04E
:1021B00085E080838091B2029091B302A091B40235
:1021C00081839283A3838FE784838FEF85830C942D
:1021D000CE1080E008950F931F93CF93DF93C82F05
:1021E000D62F8A010E94E91098E0C99FB0011124FE
:1021F0006C5F7E4F6D0F711DFB0190819F3F29F039
:10220000F801E80FF11D90838F5FDF91CF911F914F
:102210000F910895E0910104F09102040994E09176
:10222000FD03F091FE0309943F924F925F926F92EB
:102230007F928F929F92AF92BF92CF92DF92EF9256
:10224000FF920F931F93CF93DF933C012B01FC016F
:10225000C08188E1C89FC02D112418E11C0FF12E08
:10226000153710F034E7F32E6091D605669580910E
:10227000D8059091D9050E944F0E382ED0E0CE019E
:10228000880F991F9C012C5F3E4F6901CF15B0F05C
:1022900081E0143708F080E0DF91CF911F910F911A
:1022A000FF90EF90DF90CF90BF90AF909F908F9076
:1022B0007F906F905F904F903F900895FE01E45E95
:1022C000FD4F8081F3019181892379F1F60180A985
:1022D000282F2C57330B590181A9E82FE052FF0B0F
:1022E0004F01AA9C9001AB9C300D300D1124EE9F44
:1022F000C001EF9F900D900D1124820F931F0E943B
:10230000590E082F6091D3057091D4058091D505A1
:10231000E32C9401A501F20109950E94C410462FF7
:10232000282F672FCE010E940F11F2E0CF0ED11C93
:102330002196ACCF63E870E10C94141166EF7EE057
:102340000C94141160EB70E10C9414118F929F9215
:10235000AF92BF92CF92DF92EF92FF920F931F93B3
:10236000CF93DF935C016B01FC01C08188E1C89FC2
:10237000C02D112418E11C0F912E153710F034E7F1
:10238000932E6091D60566958091D8059091D905D8
:102390000E944F0E882ED0E0CE01880F991F9C011D
:1023A0002C5F3E4F7901C91588F081E0143708F0A1
:1023B00080E0DF91CF911F910F91FF90EF90DF9020
:1023C000CF90BF90AF909F908F900895FE01E45EF4
:1023D000FD4F8081F50191818923C1F0F70121A989
:1023E0002052330B40A94C57550B6091D305709187
:1023F000D4058091D505082DF60109950E94C410D9
:10240000462F282F672FCE010E940F11F2E0EF0E0A
:10241000F11C2196C8CF64E670E10C94A61164E02B
:102420007FE00C94A6116FE970E10C94A611BF92A5
:10243000CF92DF92EF92FF920F931F93CF93DF9390
:102440006C017B01FC01C08188E1C89FC02D112473
:1024500018E11C0F012F153708F004E76091D6052D
:10246000669566958091D8059091D9050E944F0E8A
:10247000B82ED0E0C01770F081E0143708F080E08B
:10248000DF91CF911F910F91FF90EF90DF90CF9050
:10249000BF900895FE01E45EFD4F8081F6019181B9
:1024A000892391F06091D3057091D4058091D50571
:1024B0002B2D4C2FF70109950E94C410462F282F71
:1024C000672FCE010E940F112196D4CF68EA7EE0DB
:1024D0000C94171262ED7EE00C94171264ED7EE00E
:1024E0000C9417126DED7EE00C9417127F928F9270
:1024F0009F92AF92BF92CF92DF92EF92FF920F9393
:102500001F93CF93DF935C016B01FC01C08188E1D5
:10251000C89FC02D112418E11C0F912E153710F003
:1025200034E7932E6091D605669566958091D8051F
:102530009091D9050E944F0EF82E80E48F0D0E94D5
:10254000890E90E8892E880E8F2D0E94890E20E832
:10255000722E780ED0E0C91590F081E0143708F0A3
:1025600080E0DF91CF911F910F91FF90EF90DF906E
:10257000CF90BF90AF909F908F907F900895FE0175
:10258000E45EFD4F8081F50191818923A1F0609186
:10259000D3057091D4058091D505EF2C0C2F272DF4
:1025A000482DF60109950E94C410462F282F672F49
:1025B000CE010E940F112196CECF6CE27FE00C94E9
:1025C000761269E57FE00C947612AF92BF92CF92BB
:1025D000DF92EF92FF920F931F93CF93DF937C01D3
:1025E0006B01FC01C08188E1C89FC02D112428E146
:1025F000B22EBC0EAB2CF4E7FB1510F494E7A92E19
:102600002091D60530E050E040E06FEF7FEF80E0B2
:1026100090E00E941F338901D0E02C2FCA1580F072
:1026200081E0F3E7FB1508F480E0DF91CF911F9183
:102630000F91FF90EF90DF90CF90BF90AF900895F3
:10264000FE01E45EFD4F8081F70191818923F1F065
:102650004091DC054150042E000C550B47FF18C07B
:10266000C8016091D6050E944F0EAC016091D30560
:102670007091D4058091D505F60109950E94C4108A
:10268000462F282F672FCE010E940F112196C5CF0C
:10269000FA01E452FA4F858982130AC0FA01EE0F5B
:1026A000FF1FE452FA4F878D90A180179107C8F25F
:1026B00041505109D3CF67E87FE00C94E5122F9287
:1026C0003F924F925F926F927F928F929F92AF92C2
:1026D000BF92CF92DF92EF92FF920F931F93CF930F
:1026E000DF93CDB7DEB72B970FB6F894DEBF0FBEE2
:1026F000CDBF8C832B015F834E83FB01F08188E18A
:10270000F89F802D11248983885E8A838B83853787
:1027100010F024E72B833091DC053D839981892FCC
:1027200090E09B878A87880F991FFC01EC5FFE4F22
:102730006F01FC818F2F90E09C012F5F3F4F398705
:102740002887EB81FA85FE17F0F081E02A81243793
:1027500008F080E02B960FB6F894DEBF0FBECDBF19
:10276000DF91CF911F910F91FF90EF90DF90CF906D
:10277000BF90AF909F908F907F906F905F904F90A1
:102780003F902F900895EA85FB85E45EFD4F8081A0
:10279000F2019181892301F12090D3053090D40575
:1027A0002885398524523A4F39013C81398310E01C
:1027B00029813D812317C8F02091D505129F112D45
:1027C0001124B101812F0E94C410462F282F672F9A
:1027D0008A859B850E940F118A859B8501969B8720
:1027E0008A8792E0C90ED11CACCFF30181913F01E1
:1027F000F601A0A8A81ABB0881A8F3018185881A50
:102800009908AA9C9001AB9C300D300D1124889C36
:10281000C001899C900D900D1124820F931F0E947E
:10282000590E082FF301EE0FFF1FEC5DF54060918C
:10283000D605838D948D0E944F0E7C019401A501D5
:10284000B101812FEE81FF8109951B01F981FF5FA5
:10285000F983182FADCF4DE85FE0BC0180E00C9408
:102860005F1346EA5FE0BC0180E00C945F1348ED23
:102870005FE0BC0180E00C945F1340EF5FE0BC01BF
:1028800080E00C945F1346E050E1BC0180E00C94C2
:102890005F13BF92CF92DF92EF92FF920F931F933D
:1028A000CF93DF937C01FC01C08188E1C89FC02DDC
:1028B000112418E11C0F012F153708F004E760916F
:1028C000D3057091D4058091D5050E94C410D62EF1
:1028D000C72EB82ED0E0C01770F081E0143708F092
:1028E00080E0DF91CF911F910F91FF90EF90DF90EB
:1028F000CF90BF900895FE01E45EFD4F8081F70107
:102900009181892331F02B2D4D2D6C2DCE010E940C
:102910000F112196E0CFDF92EF92FF920F931F935A
:10292000CF93DF938C01FC01E45EFD4F808168232F
:1029300081F1D090D405D091D505C091D305EC2E6E
:10294000F12C0E94B233282FC7018C549F4F68E6A8
:1029500071E00E940B338E199F0997FD03969595A0
:1029600087959595879523706C2F289F600D11246E
:102970007D2D8D2F0E94C410462F282F672FC80150
:10298000DF91CF911F910F91FF90EF90DF900C940A
:102990000F11DF91CF911F910F91FF90EF90DF907A
:1029A0000895DF92EF92FF920F931F93CF93DF93DF
:1029B0008C01FC01C281C11125C06091D60520E1C6
:1029C000620F08F46FEF8091D8059091D9050E94AD
:1029D0004F0E6AE070E00E94F732892B51F40E949A
:1029E000B23364E770E00E940B33F80161810E940A
:1029F0008B148C2FDF91CF911F910F91FF90EF904F
:102A0000DF900895C08188E1C89FC02D112488E11E
:102A1000D82EDC0E8D2DF4E7FD1508F484E7D0E008
:102A2000E82EF12CCE15DF0534F0C1E0F3E7FD15FB
:102A300000F7C0E0DECFF8016181CE010E948B1467
:102A40002196F0CF1F93CF93DF93EC01FC01E45E5E
:102A5000FD4F80816823A1F00E94B233182F0E949D
:102A6000B233612F782F8091D5050E94C410462F74
:102A7000282F672FCE01DF91CF911F910C940F115A
:102A8000DF91CF911F910895DF92EF92FF920F9304
:102A90001F93CF93DF938C01FC01C281C11125C02C
:102AA0006091D60520E1620F08F46FEF8091D805A0
:102AB0009091D9050E944F0E65E070E00E94F732B8
:102AC000892B51F40E94B23364E770E00E940B330B
:102AD000F80161810E9422158C2FDF91CF911F9107
:102AE0000F91FF90EF90DF900895C08188E1C89F1B
:102AF000C02D112488E1D82EDC0E8D2DF4E7FD15B4
:102B000008F484E7D0E0E82EF12CCE15DF0534F090
:102B1000C1E0F3E7FD1500F7C0E0DECFF801618109
:102B2000CE010E9422152196F0CF6F927F928F9254
:102B30009F92AF92BF92CF92DF92EF92FF920F934C
:102B40001F93CF93DF936C01FC01C08188E1C89F84
:102B5000C02D112448E1B42EBC0E9B2CF4E7FB15CC
:102B600010F434E7932E2091D60530E050E040E099
:102B70006FEF7FEF80E090E00E941F337901D0E09B
:102B80008E01000F111F0C5F1E4F22E8822EC91507
:102B9000A0F081E093E79B1508F480E0DF91CF91EE
:102BA0001F910F91FF90EF90DF90CF90BF90AF906B
:102BB0009F908F907F906F900895FE01E45EFD4F8F
:102BC0008081F6019181892319F16090D40570907C
:102BD000D505A090D3054091DC054150042E000C92
:102BE000550B47FF19C0C7016091D6050E944F0ED3
:102BF000682D282F621B08F460E06A0D762D872D62
:102C00000E94C410462F282F672FCE010E940F115B
:102C100021960E5F1F4FBBCFFA01E452FA4F91810C
:102C2000F80180A998130AC0FA01EE0FFF1FE452C1
:102C3000FA4F878D90A18E159F05B0F24150510932
:102C4000D0CFE091FF03F09100040994CF92DF927E
:102C5000EF92FF920F931F93CF93DF93CDB7DEB721
:102C60002A970FB6F894DEBF0FBECDBF182F062FE0
:102C7000F42E0E94461D882309F44BC0FF2009F45E
:102C800057C0AE014F5F5F4F602F812F0E94EB1046
:102C9000F82EE090F2040F2D10E0C8018E0D911D6A
:102CA0000B9764F18AE090E06C01C01AD10AB80178
:102CB0006D507B4FA60183EF94E00E94C233B801B0
:102CC00063507B4FA6018DEF94E00E94C233A601B2
:102CD000440F551FB801660F771F6F5E7A4F81E171
:102CE00095E00E94C233B801695F7A4FA60187E080
:102CF00095E00E94C233EA94E092F2041091F2044B
:102D0000DE01119640E0842F810FF41213C08093EE
:102D1000F2042A960FB6F894DEBF0FBECDBFDF9146
:102D2000CF911F910F91FF90EF90DF90CF9008957A
:102D3000F12CAFCF5D91252F30E090E0BC016E50BB
:102D40007B4FF901EE0FFF1FEC5CFE4F0081FB0192
:102D50000183220F331FF901EC5FFE4F21A9FB0114
:102D60002387558B880F991FFC01EE50FB4F10A253
:102D7000178E4F5FC8CF08950E94BB160C94A8050C
:102D800008950895CF93DF93FC01C08188E1C89F27
:102D9000C02D1124D8EEDC0FC53708F0C4E76C2F26
:102DA0008D2F0E94C0166C2F8D2FDF91CF910C9428
:102DB000C1164F925F926F927F928F929F92AF92C5
:102DC000BF92CF92DF92EF92FF92CF936091250551
:102DD0007091260580912705909128050E949427DF
:102DE0006B017C010E9479274B015C0180922505D3
:102DF00090922605A0922705B0922805A091F20492
:102E0000E2EFF4E08A2F90E04FEF5FEF60E070E0D8
:102E10004C195D096E097F09A9132AC08093F20439
:102E200080912905C0E0811108C08091D205C82F8A
:102E3000C37019F0C82FC695C69580919302813052
:102E400009F440C0882339F1823009F404C1833089
:102E500009F40CC1CF91FF90EF90DF90CF90BF901D
:102E6000AF909F908F907F906F905F904F9008955C
:102E7000278D30A12901712C612C4415550566055B
:102E8000770520F481509F5F3296C6CF2C0D3D1DF3
:102E900030A3278FF8CF109294028092D805909299
:102EA000D905A092DA05B092DB0583E3E2EFF4E006
:102EB000ACEDB5E001900D928A95E1F781E0809349
:102EC0009302C8CF80919702C81323C09091D20576
:102ED00093702091980230E081E09217130609F474
:102EE00080E08170809396028091D7059091950241
:102EF000981739F08093950240E060E080E00E94EE
:102F00002116C73188F4EC2FF0E0EF5BFB4C0C94FA
:102F10003E3381E0E6CF80919602882359F040E06D
:102F200060E080E00E94211680E004C084E992E025
:102F30000E944914909194029F5F90939402811192
:102F400086C082E0809393028091960281117FC0B7
:102F5000CC2309F489C00E94BC1684E992E0CF9189
:102F6000FF90EF90DF90CF90BF90AF909F908F90A9
:102F70007F906F905F904F900C94C21684E992E01E
:102F80000E946612D7CF84E992E00E940B12D2CF42
:102F900084E992E00E949A11CDCF84E992E00E94E8
:102FA0006A12C8CF84E992E00E946E12C3CF84E90E
:102FB00092E00E947212BECF84E992E00E949E11BC
:102FC000B9CF84E992E00E940F12B4CF84E992E075
:102FD0000E941312AFCF84E992E00E94A211AACFFF
:102FE00084E992E00E94DD12A5CF84E992E00E947C
:102FF000E112A0CF84E992E00E94D1149BCF84E932
:1030000092E00E94441596CF84E992E00E945B13FF
:1030100091CF84E992E00E942B148CCF84E992E056
:103020000E94311487CF84E992E00E94371482CF46
:1030300084E992E00E943D147DCF84E992E00E94F1
:10304000431478CF84E992E00E94951573CFCC2386
:1030500009F400CF80CFC09397028091D20583708E
:10306000809398020E940A1183E029CF6091D805CD
:103070007091D9058091DA059091DB050E94942723
:10308000603171058105910508F4E4CE1092930238
:10309000E1CEE091FB03F091FC0309951092DC0571
:1030A000EBEFF5E08FEF9FEF8193919326E0EF3008
:1030B000F207D1F71092F204E1E1F5E08FEF9FEF14
:1030C0008193919325E0E532F207D1F70E94032620
:1030D000811104C00E949D260E94D6100E94C61035
:1030E0008091D2058C7F11F40C94D6100895CF9363
:1030F000C82F882329F040E060E080E00E9421167C
:10310000C0932905CF9108959091D20521E092278F
:103110009093D2051092930281110C94CE100895D1
:1031200081E00C9484188091D205837011F4109280
:1031300093028091D2058C7F81608093D20508959F
:103140000E9493180C94CE108091D205837008953C
:103150009091D205937099F0811109C09460909379
:10316000D20510929302662351F00C94CE10873151
:1031700010F09865F4CF880F880F982BF0CF089542
:1031800061E00C94A818682F9091D20596959695B9
:1031900081E0890F873108F081E00C94A81881E064
:1031A0000C94C318682F9091D205969596958FEF41
:1031B000890F09F486E10C94A81881E00C94D218C8
:1031C0009091D205937061F08093D3056093D405FC
:1031D000433308F042E34093D50521110C94CE10FF
:1031E000089521E00C94E018A2EDB5E01196EC9161
:1031F0001197F0E0282F13964C91139712966C912B
:10320000CF0108960C94E01881E00C94F418E2EDDC
:10321000F5E09181282F43816281E92FE850FF0B6F
:10322000CF010C94E01881E00C940719E2EDF5E071
:10323000628120E1620F08F46FEF9181282F4381B2
:10324000892F90E00C94E01881E00C941619E2EDBF
:10325000F5E0628120E1621B08F460E09181282F93
:103260004381892F90E00C94E01881E00C94271999
:10327000E2EDF5E0438120E1420F08F44FEF918148
:10328000282F6281892F90E00C94E01881E00C9443
:103290003819E2EDF5E0438120E1421B08F440E0FB
:1032A0009181282F6281892F90E00C94E01881E0B1
:1032B0000C9449198093D6050C94CE102091D60514
:1032C00030E1230F08F42FEF2093D60581110C94E1
:1032D000CE10089581E00C945E192091D60530E15E
:1032E000231B08F420E02093D60581110C94CE1006
:1032F000089581E00C946D190895FC01EE0FFF1FF5
:10330000E80FF91FE15FF94F61834083228308953D
:10331000EFE0F6E0818360834283339697E0EB36FB
:10332000F907C1F7089564E770E08FE096E00C9428
:103330002F1AFA01811101C0FB0109940F931F9309
:10334000CF938C01FB01C281CC2309F486C00E947B
:10335000D52582720B3CFCE51F0709F472C060F5AD
:10336000063CECE51E0709F458C080F4043C9CE5DB
:10337000190709F448C008F04BC0033C1C4509F488
:103380003FC08C2FCF911F910F910895083C9CE571
:10339000190709F44CC008F445C0093CFCE51F07B7
:1033A00009F44AC047E559E166E479E10A3C1C4565
:1033B00041F70E9499191EC0013DECE51E0798F4E3
:1033C0000F3CFCE51F07B0F40D3C9CE51907F1F13B
:1033D00049E759E16AE679E10E3C1C4550F381E08A
:1033E0000E94C01807C0073DFCE51F0728F4023DF6
:1033F0001C4588F1C0E0C5CF0E351D45D9F3C1CFBE
:103400000E949018F7CF4DED58E16FEC78E1D1CFE5
:103410004FEC58E16DED78E1CCCF43E159E164E048
:1034200079E1C7CF44E059E163E179E1C2CF45E3F7
:1034300059E164E279E1BDCF44E259E165E379E124
:10344000B8CF46E459E167E579E1B3CF4AE659E1FF
:1034500069E779E1AECF8AE0C3CFC1E092CF539A5A
:103460004BB1477F5BB15860EFB7F8949B01220FD7
:10347000331F260F371F280F391F2817390741F42C
:10348000EFBF8FE594E00197F1F700C000000895C9
:10349000DC016D91CD0178E05BB9000000C067FFF1
:1034A0004BB9660F000000C000C000C04BB900C09F
:1034B0007A9591F7E2CF0C94130725982D9A2498CA
:1034C0002C9A83B185FB882780F91C9905C090E070
:1034D000892B80932C05089592E0FACFE0912C057A
:1034E000EE0FEE0FE0932C0543B145FB882780F9E2
:1034F00043B144FB222720F944FF02C022E030E020
:10350000822BE82BE0932C05EF70F0E0ED5FFB4F92
:10351000808190912B05890F80932B0520E08430CA
:1035200054F080912A058F5F80932A0560E080E047
:103530000E945B1A21E080912B058D3F54F480910D
:103540002A05815080932A0561E080E00E945B1A81
:1035500021E080912B05082E000C990B64E070E0AF
:103560000E940B3380932B05822F08950F931F9396
:10357000CF93DF93C42FD22FFC0182818823C9F01F
:1035800040932F050E946D2790932E0580932D0563
:1035900080E28C0F883008F050C0C77081E001C015
:1035A000880FCA95EAF7DF91CF911F910F910C9484
:1035B000CA1E10912F05141335C080912D059091CE
:1035C0002E050E948527883C910560F5C0E2CD0F4D
:1035D0001D17B9F080E2810F883040F4177081E048
:1035E00001C0880F1A95EAF70E94D11EC83048F42E
:1035F00081E09D2F977001C0880F9A95EAF70E948D
:10360000CA1E802F0E94C21EC830B8F4D77081E055
:1036100001C0880FDA95EAF7DF91CF911F910F91E2
:103620000C94D11E80E28C0F883038F4C77081E092
:1036300001C0880FCA95EAF7EFCFDF91CF911F91B4
:103640000F9108950F939C01CB01243F4CE5340763
:1036500059F1A8F4293DFCE53F0701F12A3D4CE56D
:103660003407D1F1283D3C4591F406E221EE41EECC
:1036700068ED7CE50E94B61A80E00F910895263F20
:10368000FCE53F07E9F0B0F0273F3C45F9F0FC01CD
:103690008281882339F110922F05EFCF07E225EEC2
:1036A00045EE69ED7CE5E6CF06E221EE40EE64EF03
:1036B0007CE5E0CF07E225EE44EE65EF7CE5DACF6E
:1036C00006E221EE42EE66EF7CE5D4CF07E225EE7E
:1036D00046EE67EF7CE5CECF08E221E045EE6AEDED
:1036E0007CE5C8CF81E0C9CFCF93DF93EC01FB012C
:1036F0008281882309F419C1C230FCE5DF07C0F1DB
:10370000C6319CE5D90730F09E012B5F3C4529303E
:10371000310570F50E9416269093C1058093C0056F
:10372000C031ECE5DE0709F4CFC008F05BC0C8305B
:103730008CE5D80709F4B6C088F5C430ECE5DE079F
:1037400009F4A8C0C0F4C2308CE5D80709F49CC0C5
:103750008091C0058260C330DC4509F498C0809137
:10376000C0059091C1050E9424260E94BF2080E0E0
:10377000DF91CF9108958091C0058061C630ECE55E
:10378000DE0709F484C08091C0058860C730DC453D
:1037900008F47DC08091C005806279C0CC308CE592
:1037A000D80709F489C070F48091C0058C60CA30D4
:1037B000ECE5DE0709F46BC008F478C08091C00521
:1037C0008E7F65C0CE308CE5D80709F479C0809132
:1037D000C0058B7FCF30DC4508F459C08091C0050F
:1037E0008F7E55C0CC3FECE5DE0709F457C030F5BD
:1037F000C3318CE5D80709F46FC078F4C131ECE52A
:10380000DE0709F465C0C231DC4509F0A8CF0E948B
:10381000BF208091C0058F773AC0C5318CE5D807AD
:1038200009F462C008F476C08091C1058160CB3F85
:10383000DC4509F094CF8093C10591CFC115FDE51A
:10384000DF0709F44DC088F48091C1058D7FCE3F1C
:103850009CE5D90781F38091C1058E7FCF3FDC4580
:1038600050F38091C1058360E6CFC230FDE5DF07EC
:1038700009F459C008F444C080E0C330DD4509F0C4
:103880006ECF0E949F266BCF8091C0058160809390
:10389000C00565CF8091C0058460F9CF8091C105D6
:1038A0008260C9CF8091C0058064F1CF0E94BF20A3
:1038B0008091C0058068EBCF8091C0058D7FE7CFF8
:1038C0008091C005877FE3CF8091C0058F7DDFCFDA
:1038D0008091C0058F7BDBCF8091C005837FD7CFE0
:1038E0008091C1058C7FA7CF8091C00582FB99276D
:1038F00090F921E0922790FB82F990FB83F9C7CFE2
:103900008091C105982F909591708E7F892B90FBA7
:1039100081F991CF0E94BF209091C005892F97FB1C
:1039200087F98058B4CF81E0ACCF81E021CFCF932D
:10393000DF93EB0186319C4511F50E94D5259A81D4
:10394000992399F08A7A91E009F490E090933005F8
:10395000811109C089E20E94A2250E94B62580E05B
:10396000DF91CF91089585E3F6CF809130058111E5
:1039700004C089E20E94A925F0CF85E3FBCF81E056
:10398000EFCF90933605809335050895E091350586
:10399000F0913605309721F00190F081E02D0994E7
:1039A00080E00895E0913505F0913605309721F0DB
:1039B0000280F381E02D0994089520913305309120
:1039C00034052817390771F0909334058093330537
:1039D000E0913505F0913605309721F00680F781AA
:1039E000E02D099408952091310530913205281772
:1039F000390771F09093320580933105E0913505D8
:103A0000F0913605309721F00084F185E02D09947E
:103A100008950E9479276093460570934705809327
:103A20004805909349056093420570934305809340
:103A300044059093450508950E94792760934605B3
:103A400070934705809348059093490560933E0520
:103A500070933F058093400590934105089585B785
:103A6000806885BF85B7806885BF089508950895EB
:103A70000C94361D0C9465030E942F1D8BEF95E26C
:103A80000E94E5270E94371D0C94381D81E008959F
:103A90000C94461D089508950E944A1D0C944B1DD8
:103AA0000E9464270E94040A0E945D1A0C943A1D29
:103AB0009F92AF92BF92CF92DF92EF92FF920F93BD
:103AC0001F93CF93DF93CDB7DEB72A970FB6F89445
:103AD000DEBF0FBECDBF0E94370A81110E94091DB3
:103AE00088E3A82E85E0B82E10E000E0902E802F0D
:103AF0000E94DE09D82EF501F1905F01F81216C080
:103B00000F5F1F4F0630110589F78FEF89838A8376
:103B10001B820E946D278160782F9D838C83498151
:103B20005A816B818D810E94061E32C08091B4053E
:103B300081FD0E94E4098F2D8D25F12CEE24E39464
:103B4000982F9E2109F44AC00E94481DDE20CC24F3
:103B5000C394D11001C0C12C882379F0FE829F82CA
:103B6000C8860E946D278160782F9A8789874E8149
:103B70005F8168858A850E94061EF801E85CFA4F1D
:103B80008081E826E0824C2D6F2D892D0E9426161B
:103B90000E94D9160E946E1A81110E941C1D0E945B
:103BA0006C0D0E94C61C909137058917E9F00E94A0
:103BB000C61C809337052A960FB6F894DEBF0FBE59
:103BC000CDBFDF91CF911F910F91FF90EF90DF90CC
:103BD000CF90BF90AF909F900C94D207F394EE0CCF
:103BE000F8E0FF12ADCF8CCF2A960FB6F894DEBF67
:103BF0000FBECDBFDF91CF911F910F91FF90EF903E
:103C0000DF90CF90BF90AF909F900895DF92EF929A
:103C1000FF920F931F93CF93DF93CDB7DEB72B9710
:103C20000FB6F894DEBF0FBECDBF7A878B87F42E18
:103C3000052F162FE72ED82E61110E94F5251E8222
:103C40001D827E2DEC82DD824F2D502F612F8D2D18
:103C50009E812B960FB6F894DEBF0FBECDBFDF91CD
:103C6000CF911F910F91FF90EF90DF900C9435232F
:103C7000FC01808191810C947425CF93C82F8823F7
:103C800009F43FC08CEF8C0F813AA0F46C2F809127
:103C9000990290919A020E94A426882329F08C2FE1
:103CA0000E94A9250E94B6258C2F0E94A225CF91A3
:103CB0000C94B62580E28C0F883048F4C77081E000
:103CC00001C0880FCA95EAF70E94D825F0CFEBE52E
:103CD000EC0FE33040F4F0E0EF5BFB4F808190E0CD
:103CE000CF910C94DD1CC85AC73158F4EC2FF0E08A
:103CF000EE0FFF1FED5EFB4F80819181CF910C9401
:103D0000F31CCF910895882329F19CEF980F913AE5
:103D100020F40E94A9250C94B62590E2980F9830C3
:103D200050F4877091E001C0990F8A95EAF7892FC6
:103D30000E94DE25F0CF9BE5980F933020F490E0B1
:103D400080E00C94DD1C885A873120F490E080E0FC
:103D50000C94F31C08951F93CF93DF93182FEB015E
:103D60000E943D1E209731F4812FDF91CF911F914A
:103D70000C94831E8FE99FE00197F1F700C00000CB
:103D80002197F0CF6AE070E0893311F460E570E0CC
:103D90000C94AB1E882321F00E94D8250C94B625E4
:103DA0000895882321F00E94DE250C94B6250895FD
:103DB000CF92DF92EF92FF920F931F93CF93DF93F7
:103DC000DC01C62F972F12962C91129715964C91C5
:103DD0001597342F32953F70872F82958F70082F5B
:103DE00010E08C3090F5F801E85AFB4C0C943E330F
:103DF000D72FDF70907F11F0D295D07F2223A9F0CA
:103E0000DD2359F080E28C0F883010F0C11109C019
:103E10008D2F0E94D8250E94B6258C2F0E943D1E12
:103E200014C08D2F0E94E825F6CF8C2F0E94831E90
:103E3000DD2359F080E28C0F883010F0C11117C0DB
:103E40008D2F0E94DE250E94B625085011090430EE
:103E5000110508F046C10E94C61CDF91CF911F9149
:103E60000F91FF90EF90DF90CF900C94D2078D2FA1
:103E70000E94EE25E8CF872F8F70907F903211F04F
:103E80008295807FC13061F4222329F03630E8F634
:103E90000E94CA1EDACF3530C0F60E94D11ED5CF9F
:103EA000222341F03323A1F340FFB7CF4F70159683
:103EB0004C93EECF332389F3C93309F00AC12FEFB6
:103EC00087EE93E0215080409040E1F700C0000071
:103ED0008C2F0E94831EB9CF872F8695869583707D
:103EE00061F0813009F0B1CF862F9370211102C0AB
:103EF00090E080E00E94F31CA8CF862F93702111E0
:103F000002C090E080E00E94DD1C9FCF872F83706D
:103F100009F044C0211199CF862F8295869587702C
:103F2000880F880F6F70C62ED12CF12CE12C082E33
:103F300004C0CC0CDD1CEE1CFF1C0A94D2F740E040
:103F400050E0BA01C4FF0FC04FE050E060E070E005
:103F500004C0440F551F661F771F8A95D2F74095FE
:103F6000509560957095292F269526952370CB0145
:103F7000BA016C297D298E299F29223049F058F4F5
:103F8000213019F00E94F32360CF0E94E1235DCF1E
:103F90000E9405245ACF0E94DF2357CF8695222303
:103FA00011F0872F8170882309F44FCF8C2F8295D1
:103FB00086958770880F880F6C2F6F70C62ED12C56
:103FC000F12CE12C082E04C0CC0CDD1CEE1CFF1CD7
:103FD0000A94D2F740E050E0BA01C4FF0FC04FE0AE
:103FE00050E060E070E004C0440F551F661F771F6B
:103FF0008A95D2F74095509560957095292F269512
:1040000026952370CB01BA016C297D298E299F2921
:10401000223049F058F4213019F00E94B82415CF0D
:104020000E94A62412CF0E94CA240FCF0E941B24F4
:104030000CCFD72FDF70222329F08D2F0E9441242F
:104040008C2F26CF862F0E94D11E8D2F0E94622496
:10405000FCCE613F19F148F4603F91F0222369F1F1
:104060003111DBCE892F8F711DC0623FF1F0633FAC
:10407000A9F72223F9F0872F8F710E942C24E5CE17
:10408000222341F0353008F0E0CE892F8F710E9455
:104090008524DBCE363008F0D8CEF7CF872F8F714E
:1040A0002223A1F20E944124D0CE872F8F71222398
:1040B000C9F3CCCF0E942724C8CE332379F0C9336B
:1040C00041F49FEF27EE83E0915020408040E1F7DC
:1040D000FDCE8FE39CE90197F1F7F8CE892F8F7120
:1040E000B5CFDF91CF911F910F91FF90EF90DF90AF
:1040F000CF9008950F931F93CF93DF93EC016881C6
:1041000079818A810E947E258C010E94DC240E9494
:10411000DE23B801CE01DF91CF911F910F910C9456
:10412000D81ECF93DF93EC018B819C81892B29F0E2
:104130008881998189238F3F19F4DF91CF91089568
:10414000CE010E9483078823C1F3CE010E947A200A
:10415000CE01DF91CF910C94600790E080E00E9447
:10416000DD1C90E080E00E94F31C0E94F5250E9477
:10417000F8250C94B6250E94B0250C94AD200E9421
:10418000E5250C94BB20E92FE295EF70E250EE306C
:1041900070F4F0E0EC59FB4C0C943E33803F19F086
:1041A00020F4883E20F481E00895843FE1F380E02C
:1041B0000895883EC0F3813FD1F7F5CF93FB882760
:1041C00080F908950E9474250C94C320CF93DF9347
:1041D00000D000D00F92CDB7DEB70F900F900F90A8
:1041E0000F900F90DF91CF910895CF93DF9300D080
:1041F00000D000D0CDB7DEB726960FB6F894DEBF5C
:104200000FBECDBFDF91CF9108951F93CF93DF9362
:10421000C0914B0516E080914C058C1304C0DF91D2
:10422000CF911F910895D0E01C9FF0011D9FF00DCC
:104230001124E35BFA4F4081518162817381848153
:1042400095810E94F5202196C770E5CF40917D05AC
:1042500050917E0560917F05709180058091810568
:10426000909182050C94F5201F93CF93DF9380915A
:104270008205807FA9F480917F05882389F0809151
:104280004B05C0914C0560917D0570917E05A09114
:104290008005B0918105D62FD72316E0C81304C03E
:1042A000DF91CF911F91089590E0109711F0DF3FBB
:1042B00019F401968770F2CF189F9001199F300D65
:1042C0001124F901E35BFA4F41814713F2CF40819A
:1042D0004613EFCF42814111ECCF438154814A1BF9
:1042E0005B0B483C510528F7809182058F708061F7
:1042F00080938205F901EE5AFA4F80818F708061B8
:1043000080838DE795E00E949120DF91CF911F91EE
:104310000C940521AF92BF92CF92DF92EF92FF9261
:104320000F931F93CF93DF93CDB7DEB761970FB68F
:10433000F894DEBF0FBECDBF8C0185E0F801DE0131
:104340001D9601900D928A95E1F7F8014081518107
:10435000E2808DE7C82E85E0D82E609180057091AF
:1043600081056115710509F461C190917D05209168
:104370007E05892F82238F3F09F458C1A380B48022
:10438000F0907F05F501E61BF70BFF2009F4FCC058
:1043900080918205382F307FE83CF10508F0B2C0EB
:1043A000311179C0FE2C251323C0941321C0E110D4
:1043B0001FC08F708061809382050E942621C601F4
:1043C0000E94912080918205F80185838F2D61964E
:1043D0000FB6F894DEBF0FBECDBFDF91CF911F9116
:1043E0000F91FF90EF90DF90CF90BF90AF90089526
:1043F000AB2829F0842F85238F3F09F033C180E05B
:10440000F82FF170DF2E80FF3CC080914B0520918A
:104410004C0536E0821315C04D875E878D859E85DD
:104420000E947425292F22952F702230F0F024301D
:1044300018F59F70F1F0F8019581907FD1F4D12C9F
:104440001EC090E0389FF001399FF00D1124E35B0E
:10445000FA4F6181651306C06081641303C06281F5
:104460006E110FC001968770D5CF9F7011F0882311
:1044700031F3805E883018F3C8010E949120FD2C32
:10448000A5CFEE2009F4A2CF8091820581608093B0
:104490008205F12C9BCF251306C0941304C0F801AC
:1044A000EE2009F48DC04D875E878D859E850E9424
:1044B000E220882319F1EE2009F1809182058032F3
:1044C00070F020917D0530917E0538872F83198605
:1044D000BB86AA868C87CE0107960E94912086E033
:1044E000F801ADE7B5E001900D928A95E1F70E94E1
:1044F00034210E942621FF24F39468CFC8010E9432
:104500009120F9CF311113C07A2DB98AA88A6E2D66
:1045100089890E94E6208DE795E00E94912086E03F
:10452000F60111928A95E9F70E942621B2CF251350
:104530000FC094130DC0E1100BC0F8018583C801B2
:104540000E94912086E0F60111928A95E9F73ECF0C
:104550004D875E878D859E850E94E220882371F2BB
:10456000EE2061F280918205803208F4B8CF20916C
:104570007D0530917E053A8329831B82BD82AC8202
:104580008E83CE010196A9CFE83CF10508F041C029
:10459000FE2CEE2009F4B2CF25132AC0941328C0B4
:1045A0008091820580FD1BC0982F907FC1F0F8019B
:1045B0008583903F31F0982F907F905F8F70892B8B
:1045C0008583C8010E94912086E0F801ADE7B5E03F
:1045D00001900D928A95E1F70E942621F7CE86E0A0
:1045E000F801ADE7B5E001900D928A95E1F7EECEC6
:1045F0004D875E878D859E850E94E22081116FCF59
:1046000080918205816080938205C8010E9491207B
:10461000DDCE7A2DB98AA88A6E2D89890E94E6207E
:1046200086E0F60111928A95E9F7D6CFEE2009F4DB
:1046300065CF4D875E878D859E850E94E220F82E8E
:10464000882309F45BCF86E0F801ADE7B5E001907F
:104650000D928A95E1F78DE795E00E94381E0E9441
:104660003421BACF81E08E25CBCE1F93CF93DF9339
:10467000CDB7DEB72C970FB6F894DEBF0FBECDBF17
:104680004F83588769877A878B879C87CE010796E7
:104690000E948A21882369F08A859B85892B39F0BD
:1046A0004F815885842F85238F3F09F071C016E014
:1046B0005FC086E0FE013796DE01119601900D92F3
:1046C0008A95E1F78A859B85892B89F38F81988567
:1046D00089238F3F61F320914C0530E0C901019699
:1046E0008770992740914B054817190671F40E946D
:1046F000BF2010924C0510924B0586E0EDE7F5E0E7
:10470000DF011D928A95E9F7D2CF96E0929FD00102
:10471000939FB00D1124A35BBA4FFE013196019017
:104720000D929A95E1F780934C050E940521BFCF29
:10473000819FC0011124835B9A4F0E948A218823A4
:10474000E9F0E0914B051E9FF0011124E35BFA4F65
:104750004081518162817381848195810E94F5201D
:1047600080914B0590E001968770992780934B05C7
:1047700080914B0590914C058913DACF2C960FB69A
:10478000F894DEBF0FBECDBFDF91CF911F9108958A
:1047900069857A858B859C850E94F52088CF089550
:1047A0000C94CF230E94D0236093A5057093A60597
:1047B0008093A7059093A8050C94AD2008950C94C0
:1047C000D2230F931F930091A5051091A605209168
:1047D000A7053091A805602B712B822B932B1F917D
:1047E0000F910C94D2230F931F930091A505109164
:1047F000A6052091A7053091A80560237123822387
:1048000093231F910F910C94D2230F931F93009128
:10481000A5051091A6052091A7053091A805602750
:104820007127822793271F910F910C94D2230C9408
:10483000CF230C9417240E9419246093A105709330
:10484000A2058093A3059093A4050C94AD2060E08D
:1048500070E0CB010C941B240F931F9341E050E0B8
:1048600060E070E08A019B0104C0000F111F221F4D
:10487000331F8A95D2F7C901B8011F910F910C948B
:104880001B240F931F9341E050E060E070E004C0F0
:10489000440F551F661F771F8A95D2F78091A10597
:1048A0009091A205A091A305B091A4058A019B0156
:1048B000082B192B2A2B3B2BC901B8011F910F91F3
:1048C0000C941B240F931F9341E050E060E070E0D4
:1048D00004C0440F551F661F771F8A95D2F7CB017E
:1048E000BA0160957095809590950091A105109101
:1048F000A2052091A3053091A40560237123822392
:1049000093231F910F910C941B240F931F9341E04D
:1049100050E060E070E004C0440F551F661F771F31
:104920008A95D2F78091A1059091A205A091A30547
:10493000B091A4058A019B01082719272A273B2744
:10494000C901B8011F910F910C941B240F931F9361
:104950000091A1051091A2052091A3053091A40515
:10496000602B712B822B932B1F910F910C941B2486
:104970000F931F930091A1051091A2052091A3050B
:104980003091A40560237123822393231F910F91FB
:104990000C941B240F931F930091A1051091A20565
:1049A0002091A3053091A4056027712782279327C2
:1049B0001F910F910C941B240895990F990F990F33
:1049C000890F982F977041E001C0440F9A95EAF73C
:1049D00086958695869595E0899FF0011124ED577F
:1049E000FA4F30E020E070E05191DF011197CB01E8
:1049F000022E02C0969587950A94E2F78170819500
:104A00008527842385278C932F5F3F4F25303105E1
:104A100059F70895990F990F990F890F982F97704B
:104A200086958695869525E0829FF0011124ED57A5
:104A3000FA4F50E040E080E0219130E0092E02C0C2
:104A4000369527950A94E2F721703327042E01C08A
:104A5000220F0A94EAF7822B4F5F5F4F45305105D2
:104A600059F70895BF92CF92DF92EF92FF920F9382
:104A70001F93CF93DF938C01C090A105D090A20526
:104A8000E090A305F090A4058091A5059091A6055E
:104A9000A091A705B091A805C82AD92AEA2AFB2A1D
:104AA000CFE1D0E0BC2ED701C6010C2E04C0B695D4
:104AB000A795979587950A94D2F780FD0EC0219708
:104AC00088F7B12C8B2DDF91CF911F910F91FF9023
:104AD000EF90DF90CF90BF900895B8018C2F0E9487
:104AE000EF07019761F3EECFCF93DF93EC010E94C4
:104AF0003225BE01DF91CF910C94EF071F93CF9326
:104B0000DF93EB0190914A05992331F0CB01DF91BE
:104B1000CF911F910C947425882379F0CB010E94CA
:104B20003225182F682FCE010E94DD24BE01812F6F
:104B3000DF91CF911F910C94EF07CB010E940A25C2
:104B4000182FF4CF682F8091990290919A020C94BB
:104B5000DA26682F8091990290919A020C94DC26B3
:104B60008091990290919A020C94DE26E09199022C
:104B7000F0919A028091B3058083E0919902F091BF
:104B80009A0280819091B205892B8083E0919902ED
:104B9000F0919A0280819091B105892B8083809158
:104BA000990290919A020C94D21C8091B3050895B9
:104BB0009091B305892B8093B305089580959091CA
:104BC000B30598239093B30508951092B305089503
:104BD0009091B205892B8093B205089580959091AC
:104BE000B20598239093B20508951092B2050895E6
:104BF0001092B105089580E008956FEF7FEF90E087
:104C000080E00C94173490E080E00E94E33321E0D0
:104C10008A3E9E4F09F020E0822F089582E090E0C6
:104C20000C94DB3383E090E00C94DB33CF9384E08F
:104C300090E00E94DB33C82F82E290E00E94DB33D9
:104C4000982F8C2FCF910895CF93C92F682F84E090
:104C500090E00E94F9336C2F82E290E0CF910C94A7
:104C6000F933AB01BC018FE090E00C940B3460E0B1
:104C700070E0CB010E9431260C9457036AEE7EEF60
:104C800090E080E00E94173460E082E090E00E94B3
:104C9000F93360E083E090E00E94F9331092A505BB
:104CA0001092A6051092A7051092A80560E084E076
:104CB00090E00E94F93360E082E290E00E94F933D4
:104CC00060E085E090E00E94F93360E086E090E0EB
:104CD0000E94F9336FEF87E090E00E94F93340E0E3
:104CE00050E0BA0188E090E00E940B3460E08DE073
:104CF00090E00E94F93340E050E0BA0188E190E092
:104D00000E940B3460E087E190E00E94F93340E0BC
:104D100050E0BA018CE190E00E940B3470E060E05A
:104D200080E290E00E94173440E050E0BA0188E150
:104D300090E00E940B340C9437260C943E26682F8A
:104D40008EE090E00C94F933662349F0FC01329632
:104D500008962191261729F0E817F907D1F780E086
:104D6000089581E008959C01FC0132969FEF80E058
:104D70004191461751F09F3F19F4411101C0982FFE
:104D80008F5F8630A9F79F3F09F40895290F311DE1
:104D900097FD3A95F90162830895FC0132960896D1
:104DA0002191261303C0DF0111971C92E817F90720
:104DB000B9F708950C94B3260C94CD26029626E0FC
:104DC000FC0111922A95E9F70895089508950C942D
:104DD000E62680916008843061F10E94E72680E039
:104DE0000E94D20781E00E9477181092B50588E1F1
:104DF00090E020E40FB6F894A895809360000FBE71
:104E00002093600083B7817F846083BF83B7816014
:104E100083BF7894889583B78E7F83BF0FB6F8944D
:104E2000A895809160008861809360001092600076
:104E30000FBE08950895CF930E94E5260E94370A79
:104E40000E941A27C0E08C2F0E94DE09811105C044
:104E5000CF5FC630C1F7CF91089581E0FCCF0895B0
:104E60000C942F270E94BF200E94C61C0E94D207CC
:104E700080E00E9477180C9430271F921FB61F9273
:104E800011248F939F93AF93BF938091B5058111A8
:104E900013C080916B0790916C07A0916D07B09142
:104EA0006E074196A11DB11D80936B0790936C070F
:104EB000A0936D07B0936E07BF91AF919F918F91B3
:104EC0001F901FBE1F90189582E084BD93E095BD92
:104ED0009AEF97BD80936E0008952FB7F894809154
:104EE0006B0790916C07A0916D07B0916E072FBF73
:104EF00008952FB7F89460916B0770916C078091BB
:104F00006D0790916E072FBF08959C014FB7F894DD
:104F100080916B0790916C07A0916D07B0916E071F
:104F20004FBF821B930B0895CF92DF92EF92FF92B7
:104F30002FB7F894C0906B07D0906C07E0906D0786
:104F4000F0906E072FBFA7019601261B370B480B69
:104F5000590BCA01B901FF90EF90DF90CF900895EF
:104F600078941F921FB61F9211248F939F93AF9333
:104F7000BF9380916B0790916C07A0916D07B091E2
:104F80006E070196A11DB11D80936B0790936C076E
:104F9000A0936D07B0936E07BF91AF919F918F91D2
:104FA0001F901FBE1F90189587E797E79093010801
:104FB0008093000888E19AE00FB6F894A895809352
:104FC00060000FBE90936000FFCF909355048093D4
:104FD00054040895881F8827881F089591E0883F0A
:104FE00008F490E0892F0895982F907F903BE9F086
:104FF00040F49039D1F0903AC1F09038B1F080E0AF
:105000000895903D19F020F4903CC9F782E008958E
:10501000903E59F0903F99F7815F8F3080F7E82FED
:10502000F0E0EC5BFB4F8081089583E008950F93DF
:10503000022F0F77242F2F776F70462F406BDC01E4
:10504000ED91FC9163E070E009950F9108950F9345
:10505000022F0F77242F2F776F70462F4069DC01C6
:10506000ED91FC9163E070E009950F9108950F9325
:10507000022F0F77242F2F776F70462F4068DC01A7
:10508000ED91FC9163E070E009950F9108950F9305
:105090001F93411520E2520744F49A01305E4115F6
:1050A000504E2CF430E020E002C02FEF3FE38901A6
:1050B000000F012F001F110B11952F776F70462FD6
:1050C000406EDC01ED91FC9163E070E009951F9169
:1050D0000F910895FC01738362830895FC01758F1D
:1050E000648F0895CF93DF93EC011DA21FA21EA22F
:1050F000BC01685D7F4F40EC88519F4F0E947D2A24
:105100001B821A821D821C821F821E8219861886AB
:105110001B861A861D861C861F861E86198A188A7B
:105120001B8A1A8A1D8A1C8A1F8A1E8A198E188E4B
:105130001B8E1A8E1D8E1C8E1F8E1E8E19A218A2FB
:10514000DF91CF910895EF92FF920F931F93CF932A
:10515000DF93EA018A01060F111D88519F4F7C01E0
:10516000C017D10739F4DF91CF911F910F91FF90B4
:10517000EF9008956991C7010E94842AF1CFFC0144
:10518000718360830895FC0171A360A30895AF92B9
:10519000BF92CF92DF92EF92FF920F931F93CF9324
:1051A000DF9300D00F92CDB7DEB77C016B01142FD7
:1051B000B22EA02EDC0195968C9195978430A9F59E
:1051C0005A96ED91FC913097E9F1CB01019763E09C
:1051D00070E00E94F732CB01880F991F860F971F4E
:1051E0004983BA820B834C2D481B9E012F5F3F4F92
:1051F000BC01C7010995D7015E96ED91FC913097EE
:1052000031F00A2D2B2D412FB601C70109950F90C2
:105210000F900F90DF91CF911F910F91FF90EF9022
:10522000DF90CF90BF90AF9008956230710509F480
:1052300055C06330710599F06130710509F481C082
:10524000D12CC12CD7015C96ED91FC91309799F24D
:105250000A2D2B2D412FB601C7010995CCCF842FE4
:10526000807F803A11F148F48038D1F0803951F7CD
:10527000D7011496ED91FC910AC0803ED9F0803F91
:10528000F1F0803BF9F6D7011296ED91FC91309741
:10529000C9F2123FE9F02A2D4B2D612F6F701BC010
:1052A000D7011696ED91FC91F2CFD7011896ED91AA
:1052B000FC91EDCFD7011A96ED91FC91E8CF423FDA
:1052C00009F6D7011C96ED91FC91309709F4BACFFD
:1052D0002A2D4B2D62EFC70109958DCF842F807F3A
:1052E000803DB1F0803FC9F0803C09F0ABCFD701E1
:1052F0001E96ED91FC91309709F4A4CF812F8D7FFC
:105300004B2D612F6F70813F89F0C701099573CFD5
:10531000D7015096ED91FC91EECF433F51F4D70168
:105320005296ED91FC91309709F48CCF4B2D612F63
:10533000ECCF413F09F086CFD7015496ED91FC9117
:10534000F2CF842F0E94EE27882359F0D70156967A
:10535000ED91FC91309709F475CF612FC701099544
:105360004ACF163F09F06ECFD7015896ED91FC91C8
:10537000F1CFFF920F931F93CF93DF93EC01162F82
:10538000862F0E94EE27882391F0FDA081E08DA357
:1053900000E020E0412F61E070E0CE010E94C728CC
:1053A000FDA2DF91CF911F910F91FF900895812F62
:1053B0000E94EA274DA1882309F443C0443029F014
:1053C0001AA381E090E09FA38EA3812F0E94F4276F
:1053D000813051F08823A9F0823089F0833079F050
:1053E0001DA21FA21EA2DDCF8DA300E020E0412F51
:1053F00061E070E0CE010E94C7281DA2D2CF8DA32C
:10540000D0CF103FB1F0173F59F72EA13FA1C901EE
:1054100063E070E00E94F732FE01E80FF91F12A36B
:10542000B9016F5F7F4F7FA36EA30CA12BA14AA18F
:10543000E1CF84E08DA31AA381E090E09FA38EA327
:10544000B0CF442309F4ADCF2EA13FA1C90163E041
:1054500070E00E94F732FE01E80FF91F12A3B901B4
:105460006F5F7F4F7FA36EA38130910569F0029734
:1054700009F097CF0CA12BA14AA1CE010E94C72809
:105480008DA18430C9F68DCF00E0423009F089CF7C
:10549000F2CFCF92DF92EF92FF920F931F93CF93B1
:1054A000DF93EC01E8A1F9A1309709F009956E01AD
:1054B00088EEC80ED11CC6010E94B32A10E000E09D
:1054C000E82EF12C0E151F0548F0DF91CF911F91AA
:1054D0000F91FF90EF90DF90CF90089560E0C601AC
:1054E0000E94C72A682FCE010E94B92961E0C60137
:1054F0000E94D72A0F5F1F4FE5CFFC0142837483C0
:1055000063831182108208951F93CF93DF93EC0180
:10551000162F0E94EE2A482F298130E0C9010196FA
:105520006A8170E00E940B3358815817190641F4C4
:10553000842F0E94F12A80E0DF91CF911F9108957E
:105540008B819C81280F391FF9011083898190E09C
:1055500001966A8170E00E940B338983842F0E9438
:10556000F12A81E0E9CFCF93DF93EC010E94EE2A8C
:1055700099812881921740F0C92FC21B0E94F12AFD
:105580008C2FDF91CF910895CA819C0FF5CFFC013C
:105590008081860F9927991F628170E00E940B33EA
:1055A00023813481280F391FF901808108951F93C9
:1055B000CF93DF93EC01162F0E94EE2A282F8881CB
:1055C000810F9927991F6A8170E00E940B338883AD
:1055D000822FDF91CF911F910C94F12A8FB7F8940D
:1055E00008958FBF0895089508950F931F93CF9343
:1055F000DF9300D000D000D00F92CDB7DEB78C0182
:10560000CE0101960E94532D81110BC027960FB633
:10561000F894DEBF0FBECDBFDF91CF911F910F91E8
:1056200008958A810E94F4279A819D839B819E839D
:105630009C819F8381110AC08981843079F08730F1
:1056400069F0863069F08530D9F681E0AE014B5FB4
:105650005F4F682FC8010E94A328D2CF83E0F6CF06
:1056600082E0F4CFDF92EF92FF920F931F93CF93DC
:10567000DF9300D000D0CDB7DEB77B01142FD22E40
:105680004A832B830C83842F0E94F427811129C025
:1056900082E0E816F10401F183E0E816F10439F044
:1056A000EA94EF2869F485E0173F21F404C087E00D
:1056B000073F09F084E08983CE0101960E944E2DB8
:1056C0000F900F900F900F90DF91CF911F910F913E
:1056D000FF90EF90DF90089587EFD812EBCF86E030
:1056E000EACF12951F701983E7CF0E94E50A8FE673
:1056F00097E00E94722862E37BE28FE697E00E94C7
:10570000BF2865EF7AE28FE697E00E94C32863EF37
:105710007AE28FE697E00E946E2864EF7AE28FE6E5
:1057200097E00C946A289B01409160084430C1F4D2
:10573000FC0191819F709093E90050E040E064E0AB
:1057400070E0C9010E94172E81110BC09091E800F2
:1057500095FD07C09091E8009E779093E80008952A
:1057600082E0089520916008243091F4FC01818149
:105770008F708093E9009091F3008091F200892B63
:1057800049F08091E8008E778093E8000C94C52F53
:1057900082E0089580E00895FC01809160088430E3
:1057A00059F491819F709093E9008091E80080FF07
:1057B00003C0CF010C94B22B08959B014091600867
:1057C000443011F080E00895FC0196819F70909321
:1057D000E9008091E80082FFF5CF8091E80085FF25
:1057E000F1CF50E040E064E070E0C9010E94662E15
:1057F0008091E80085FD05C08091E8008B7780935B
:10580000E80081E008958091BE0508950895CF9342
:10581000DF9300D00F92CDB7DEB79091600894303F
:1058200019F589837B836A8382E08093E9008FEF97
:105830009091E800815095FD06C095ED9A95F1F79D
:1058400000008111F5CF8091E80085FF0DC050E088
:1058500040E063E070E0CE0101960E94172E809137
:10586000E8008E778093E8000F900F900F90DF9103
:10587000CF910895BC0184E00C94072CBC0183E017
:105880000C94072CCF93DF93EC0181E08093E90027
:105890008FEF9091E800815095FD06C095ED9A95A7
:1058A000F1F700008111F5CF8091E80085FF14C069
:1058B00050E040E068E070E0CE010E94172E809139
:1058C000E8008E778093E80088E0FE01A6EBB5E063
:1058D00001900D928A95E1F7DF91CF910895809123
:1058E0005F08811109C00E94F62F0E9453308091F9
:1058F000E20084608093E200089510925F080895AA
:1059000008950895089542E061EC81E00E94722FAD
:1059100042E261EC82E00E94722F42E361E883E0A0
:105920000E94722F42E361E884E00C94722F809110
:105930006208833009F45FC030F48130C1F18230F5
:1059400009F49BC008958A3009F487C08B3009F4AC
:105950006DC0893009F04EC080916108813209F034
:1059600049C08091650890916608029708F042C08E
:105970008091E800877F8093E8008091E80082FFB3
:1059800035C09091F3008091F200029729F4809144
:10599000F1008B7F813021F48091F1008093BE056E
:1059A0008091E8008B778093E8000C94A62F80917B
:1059B0006108813AF9F48091E800877F8093E800DC
:1059C0008091650890916608892B61F468E086EB08
:1059D00095E070E00E94B52E8091E8008B7780936F
:1059E000E800089560E090E080E0F3CF80916008E7
:1059F0008111C3CF089580916108813AD9F78091D0
:105A0000650890916608892BA9F78091E800877F47
:105A10008093E8008091E80080FFFCCF8091B10284
:105A20008093F1008091E8008E77BDCF809161086E
:105A3000813201F78091650890916608892BD1F633
:105A40008091E800877F8093E8000E94A62F8091D4
:105A500063088093B1020C94BF2080916108813269
:105A600049F68091E800877F8093E8000E94A62F86
:105A7000809164088093BF05089580916108813A00
:105A800009F0B8CF8091E800877F8093E80080918B
:105A9000E80080FFFCCF8091BF05C2CFBC018BE93D
:105AA00092E00C94932BBC018BE992E00C94DD2BDB
:105AB0000E94752B84B7877F84BF0FB6F894A89592
:105AC00080916000886180936000109260000FBE3A
:105AD00080E890E00FB6F8948093610090936100A5
