:100000000C94DF020C9426030C9426030C94260314
:100010000C9426030C9426030C9426030C942603BC
:100020000C9426030C9426030C94812B0C943D2BEA
:100030000C947E2C0C9426030C9426030C9426031B
:100040000C9426030C9426030C9426030C9426038C
:100050000C9426030C945A2C0C9426030C9426031F
:100060000C9426030C9426030C9426030C9426036C
:100070000C9426030C9426030C9426030C9426035C
:100080000C9426030C9426030C9426030C9426034C
:100090000C9426030C9426030C9426030C9426033C
:1000A0000C9426030C9426030C94260305010902E4
:1000B000A10185020901A1000509190129081500FE
:1000C0002501950875018102050109300931158165
:1000D000257F95027508810609381581257F9501D0
:1000E00075088106050C0A38021581257F95017572
:1000F000088106C0C005010980A101850319012AF4
:10010000B700150126B700950175108100C0050CD8
:100110000901A101850419012AA002150126A002E6
:10012000950175108100C00660FF0961A101096297
:10013000150026FF00952075088102096315002629
:10014000FF00952075089102C005010906A101056F
:100150000719E029E7150025019508750181029529
:1001600001750881010507190029FF150026FF0008
:100170009506750881000508190129059505750181
:100180009102950175039101C0000000000000007C
:10019000000000000000000000000000000000005F
:1001A000000000000000000000000000007E0F00C2
:1001B000D4FFFFFFC700000078000000000000002F
:1001C000002A2B28000000000000000000000000B2
:1001D0000000000029000000002C1E3420212224F1
:1001E000342627252E362D3738271E1F202122237F
:1001F0002425263333362E37381F04050607080911
:100200000A0B0C0D0E0F10111213141516171819D6
:100210001A1B1C1D2F3130232D3504050607080934
:100220000A0B0C0D0E0F10111213141516171819B6
:100230001A1B1C1D2F3130354C0001010101010139
:10024000010101020202020202020202030303038D
:10025000030303030404040404040405050505055D
:10026000060606060607070707070808080809091B
:1002700009090A0A0A0B0B0B0C0C0C0D0D0D0E0EC6
:100280000E0F0F0F10101111111212131314141559
:100290001516161717181819191A1A1B1B1C1D1DCD
:1002A0001E1E1F2020212222232424252626272823
:1002B00029292A2B2C2D2D2E2F3031323233343553
:1002C000363738393A3B3C3D3E3F40414243444556
:1002D000464748494A4C4D4E4F5051535455565835
:1002E000595A5B5D5E5F616264656668696B6C6DDF
:1002F0006F7072737577787A7B7D7E808283858755
:10030000888A8C8E8F91939596989A9C9EA0A2A392
:10031000A5A7A9ABADAFB1B3B5B7BABCBEC0C2C497
:10032000C6C9CBCDCFD1D4D6D8DBDDDFE2E4E7E957
:10033000EBEEF0F3F5F8FAFDFFA843B95CA55DA676
:100340005DBA5C475C485CB15C495C4A5C4B5C4CA8
:100350005C4D5C4E5C4F5CAA00505C515C525C533F
:100360005C545C555C565CA900575C585C595C5AFF
:100370005C5B5C5C5C5D5C00005E5C5F5C605C6167
:100380005C625C635C645C0000655C665C675C6826
:100390005C695C6A5C6B5C000001000100905C9130
:1003A0005C010001000100010001000100010001E9
:1003B0000001000100010001000100010001000135
:1003C0000001000100010001000100010001000125
:1003D0000001000100010000000100010001000116
:1003E0000001000100010000000100010001000106
:1003F00000010001000100000001000100010001F6
:1004000000010001000100010001000100010001E4
:1004100000010001000100010001000100010001D4
:1004200000010001000100010001000100010001C4
:1004300000010001000100000001000100010001B5
:1004400000010001000100000001000100010001A5
:1004500000010001000100000001009C5C815C8241
:100460005C9D5CAA5DA85D00000252A95D000000D1
:1004700000000000000000C45C00000000C85C0038
:1004800000C75C0000C65CC35C0000C55C0000CC1B
:100490005C0000CB5C00000000CA5C0000C95C008E
:1004A00000C45C0000C35C00000000DE5C0000A72C
:1004B0005D0000C25C000000000902BF00050100F1
:1004C000A0FA090400000103010100092111010043
:1004D000012240000705810308000A090401000207
:1004E00003000000092111010001222200070582FA
:1004F0000320000107050303200001090402000195
:1005000003000000092111010001227B000705847E
:100510000320000A080B0302010100000904030084
:10052000000101000009240100010900010409047F
:100530000400020103000007240100014100062419
:100540000201010006240202020009240301030142
:100550000201000924030204010101000905060249
:100560004000050000052501010109058502400044
:10057000050000052501010312010002000000082A
:10058000EDFEB4F40100010200011E0363006800E7
:1005900072006F006D00610074006F006E006500F6
:1005A0006D0069006E00690000000E0333006100F9
:1005B0007200610068007400000004030904112443
:1005C0001FBECFEFDAE0DEBFCDBF04B603FE27C00B
:1005D0008091E5079091E607A091E707B091E807C1
:1005E0008730904BA740B04BD1F41092E5071092A2
:1005F000E6071092E7071092E80714BE84B7877FDA
:1006000084BF0FB6F894A8958091600088618093AC
:100610006000109260000FBEE0E0F8E3099527E06B
:10062000A8E2B4E001C01D92A53EB207E1F714E0D4
:10063000A0E0B1E0E4EFF9E602C005900D92A83227
:10064000B107D9F70E94A52C0C9497340C940000A4
:100650009091DF07937061F081110BC094609093CB
:10066000DF07109224018091DE0781608093DE070E
:1006700008958A3210F0946AF2CF880F880F982B71
:10068000EECF9091DF07937071F08093E007609355
:10069000E107433308F042E34093E2078091DE072D
:1006A00081608093DE0708950F931F939B01305E56
:1006B0008901000F012F001F110B11952F77482F73
:1006C000406EE091EE06F091EF0663E070E08EEE92
:1006D00096E009951F910F9108950F93262F042FEF
:1006E0000F77482F406BE091EE06F091EF0663E044
:1006F00070E08EEE96E009950F910895CF92DF920B
:10070000EF92FF920F931F93CF93DF9300D00F923E
:10071000CDB7DEB77C01162FD42EC22E80911307E1
:100720008430B9F5E0910807F0910907309709F492
:1007300040C0C701019763E070E00E943B33CB01EA
:10074000880F991F860F971F19834A83CB824E2DDE
:10075000481B9E012F5F3F4FBC018EEE96E009952E
:10076000E0910C07F0910D07309739F00C2D2D2DED
:10077000412FB7018EEE96E009950F900F900F90E4
:10078000DF91CF911F910F91FF90EF90DF90CF906D
:10079000089582E0E816F10409F45AC083E0E816EF
:1007A000F104A9F081E0E816F10409F484C0F12C09
:1007B000E12CE0910A07F0910B07309789F20C2D9C
:1007C0002D2D412FB7018EEE96E00995C9CF862FCA
:1007D000807F803A11F188F48038D1F0E091F20600
:1007E000F091F306803929F7309719F3123F49F158
:1007F0002C2D4D2D612F6F7027C0803E99F0803FCA
:10080000B1F0E091F006F091F106803B91F6ECCF6B
:10081000E091F406F091F506E7CFE091F606F0914D
:10082000F706E2CFE091F806F091F906DDCF623FDE
:1008300009F0BFCFE091FA06F091FB06309709F47A
:10084000B8CF2C2D4D2D62EF8EEE96E0099588CF16
:10085000862F807F803DB9F0803FD1F0E091FC068B
:10086000F091FD06803C09F0A4CF309709F4A1CFA8
:10087000812F8D7F4D2D612F6F70813FC9F08EEEDE
:1008800096E009956DCFE091FE06F091FF06EDCF61
:10089000E0910007F0910107633F39F0613F09F0F3
:1008A00088CFE0910207F0910307309709F481CFD8
:1008B0004D2D612FE4CFE0910407F0910507683FCB
:1008C00038F4663F09F075CFE0910607F09107070D
:1008D000309709F46ECF612F8EEE96E0099540CFE8
:1008E000E8EDF0E080818E7F80831092E20010922C
:1008F000DA001092E100A0EEB0E08C9181608C9360
:1009000080818F77808319BCA7EDB0E08C918E7FBA
:100910008C9380818F7E808310929F060895209112
:10092000E4003091E50095E6A9012091EC00822FCA
:10093000817020FF06C08091E80080FF06C080E043
:1009400008952091E80022FD1AC08091AC0688230A
:1009500089F0853089F08091EB0085FD0FC02091F2
:10096000E4003091E50042175307F9F29150E1F6A7
:1009700084E0089582E0089583E0089581E0089579
:10098000EF92FF920F931F93CF937C018B010E94F4
:100990008F04C82F811117C08091E80085FD0BC01E
:1009A0008091E8008E778093E8000E948F0488236E
:1009B00099F3C82F08C0F70181917F018093F1005E
:1009C0000150110949F78C2FCF911F910F91FF9082
:1009D000EF900895EF92FF920F931F93CF937C01B6
:1009E0008B010E948F04C82F811117C08091E800ED
:1009F00085FD0BC08091E8008B778093E8000E9412
:100A00008F04882399F3C82F08C08091F100F70163
:100A100081937F010150110949F78C2FCF911F91CC
:100A20000F91FF90EF9008958091AE0687FF13C05D
:100A30008091E80082FF06C08091E8008B77809368
:100A4000E80004C08091AC068111F2CF0895809136
:100A5000AC068823D9F38091E80080FFF8CF80911D
:100A6000E8008E77ECCF982F9093E900242F762F13
:100A700050E0891731F07091EC002091ED00509119
:100A8000F00021FD07C09F5F973071F78093E90068
:100A900081E008953091EB003E7F3093EB00309180
:100AA000ED003D7F3093ED003091EB0031603093ED
:100AB000EB007093EC002093ED005093F000209138
:100AC000EE0027FDE0CF80E00895CF92DF92EF9215
:100AD000FF920F931F93CF93DF93C8EDD0E08881EF
:100AE0008F7E8883E7EDF0E080818160808384E001
:100AF00082BF81E080939F0688818E7F888302EE8B
:100B000010E0F80110821092DA0081EEC82ED12C8C
:100B1000F601108288818F77888388818068888336
:100B200088818F7D888319BC1092AC061092AD0627
:100B30001092AB061092AA0690EEE92EF12CF70166
:100B400080818B7F808388818160888342E060E040
:100B500080E00E943305F60180818E7F8083F8015A
:100B6000808181608083808188608083F7018081BB
:100B70008E7F8083888180618883DF91CF911F91F0
:100B80000F91FF90EF90DF90CF900895FC0180913E
:100B9000B4069091B50686179707A0F06115710508
:100BA00029F49091E8009E779093E80090E0611519
:100BB000710551F4911108C08091E80082FF34C0A2
:100BC00080E00895BC01F2CF8091AC068823C1F18A
:100BD0008530C1F18091E80083FD30C08091E8004C
:100BE00082FDEACF8091E80080FFE1CF8091F300A1
:100BF0002091F200382F6115710519F02830310568
:100C000058F091E02830310509F090E02091E8009B
:100C10002E772093E800CBCF81918093F100615033
:100C200071092F5F3F4FE7CF8091AC06882341F0D9
:100C3000853041F08091E80083FFBECF81E00895C8
:100C400082E0089583E0089508958091A1060895B3
:100C500008950895982F907F903BE9F040F49039E3
:100C6000D1F0903AC1F09038B1F080E00895903D15
:100C700019F020F4903CC9F782E00895903E59F0B5
:100C8000903F99F7815F8F3080F7E82FF0E0E258CE
:100C9000FD4F8081089583E00895FF920F931F9385
:100CA000CF93DF9300D000D000D00F92CDB7DEB746
:100CB0008C0108511F4F8091AC06843009F06CC044
:100CC00080911A018F708093E9008091E80082FF83
:100CD00063C08091E80085FF5FC050E040E064E0C1
:100CE00070E0CE0101960E94EA048091E80085FD43
:100CF00005C08091E8008B778093E800FA808F2D03
:100D00000E942A06282FFD828B818E838C818F83FF
:100D100021110AC08981843039F1873029F1863068
:100D200029F121E0853039F630E0E5E0F0E0EC0F24
:100D3000FD1FE30FF11DF0804FB7F894D801119615
:100D4000EC911197F0E0CF01019612966C9170E052
:100D50000E944F33D8015C915817190649F44FBFD0
:100D60003F5F321710F3A7CF23E0DECF22E0DCCFC6
:100D700013968D919C911497E80FF91FF0821196AC
:100D80008C91119790E0019612966C9170E00E9400
:100D90004F33F8018183E3CF27960FB6F894DEBF77
:100DA0000FBECDBFDF91CF911F910F91FF9008959E
:100DB000DF92EF92FF920F931F93CF93DF9300D0B8
:100DC00000D0CDB7DEB77B01142FD22E4A832B8300
:100DD0000C83842F0E942A06811141C082E0E8160C
:100DE000F104C1F183E0E816F10439F0EA94EF2848
:100DF00029F5173F29F485E004C087E0073F09F093
:100E000084E089838091AC068430C1F4809115011F
:100E10008F708093E90050E040E064E070E0CE0124
:100E200001960E94C004811109C08091E80085FDEF
:100E300005C08091E8008E778093E8000F900F90B6
:100E40000F900F90DF91CF911F910F91FF90EF9036
:100E5000DF90089587EFD812D3CF86E0D2CF1295D6
:100E60001F701983CFCF87E797E79093010880938E
:100E7000000888E19AE00FB6F894A8958093600086
:100E80000FBE90936000FFCF9C014FB7F894809104
:100E9000980690919906A0919A06B0919B064FBF33
:100EA000821B930B08952FB7F89460919806709168
:100EB000990680919A0690919B062FBF08952FB7AF
:100EC000F8948091980690919906A0919A06B09115
:100ED0009B062FBF08959C01FC0132969FEF80E096
:100EE0004191461751F09F3F19F4411101C0982FCD
:100EF0008F5F8630A9F79F3F09F40895290F311DB0
:100F000097FD3A95F90162830895209195063091F5
:100F100096062817390771F09093960680939506E8
:100F2000E0919306F0919406309721F00084F185CA
:100F3000E02D09940895209191063091920628178A
:100F4000390771F09093920680939106E091930691
:100F5000F0919406309721F00680F781E02D0994F6
:100F60000895E0919306F0919406309721F0019056
:100F7000F081E02D099480E00895FA01811101C00B
:100F8000FB010994E5E3F5E08183608342833396B6
:100F900096E0E139F907C1F70895FC01EE0FFF1F54
:100FA000E80FF91FEB5CFA4F6183408322830895B9
:100FB000EFEDF7E0248130E1231B08F420E02483E7
:100FC0008091DE0781608093DE070895EFEDF7E002
:100FD000248130E1230F08F42FEF24838091DE0772
:100FE00081608093DE070895EFEDF7E0438120E113
:100FF000421B08F440E08181628190E00C9441033F
:10100000EFEDF7E0438120E1420F08F44FEF8181DB
:10101000628190E00C944103EFEDF7E0628120E102
:10102000621B08F460E08181438190E00C944103ED
:10103000EFEDF7E0628120E1620F08F46FEF81814C
:10104000438190E00C944103EFEDF7E0818143810F
:1010500062818850990B0C944103EFEDF7E0818198
:1010600090E04381628108960C9441038091DF07F0
:1010700086958695815009F489E20C942803809125
:10108000DF07869586958F5F8A3208F081E00C94A1
:101090002803EF92FF920F931F930E0D1F2D111D2A
:1010A0009A0157FF03C031952195310994E0220F31
:1010B000331F9A95E1F72F3F310519F014F02FEF08
:1010C00030E0200F311F2F3F310519F010F02FEFC6
:1010D00030E02095382F320F08F43FEF832F1F9117
:1010E0000F91FF90EF900895EF92FF920F93970169
:1010F000201B31092F3F310519F010F02FEF30E0A0
:101100002095382F320F08F43FEF832F0F91FF9077
:10111000EF900895EF92FF920F939701201B3109F2
:101120002F3F310519F010F02FEF30E0322F3095BE
:10113000482F430F08F44FEF842F620F0F91FF9059
:10114000EF900895EF92FF920F93972F093438F4A0
:10115000B701601B71096F3F710519F010F06FEF57
:1011600070E0485F5F4F4131510540F0A901485F91
:101170005F4F4131510510F06FEF70E06095482FDF
:10118000460F08F44FEF842F37FF02C02D5F3F4F0B
:1011900035952795359527956091E007620F792F52
:1011A0000F91FF90EF900895EF92FF920F931F938E
:1011B0000E0D1F2D111DF90137FF03C0F195E195AB
:1011C000F10924E0EE0FFF1F2A95E1F7EF3FF1054B
:1011D00019F014F0EFEFF0E09A0157FF03C03195DA
:1011E0002195310994E0220F331F9A95E1F72E17CC
:1011F0003F070CF4F901E00FF11FEF3FF10519F083
:1012000010F0EFEFF0E0E095282F3E2F230F08F4C9
:101210002FEF822F1F910F91FF90EF900895EF9283
:10122000FF920F93970195E0099F200D311D112426
:101230002F3F310519F010F02FEF30E02095382FB7
:10124000320F08F43FEF832F0F91FF90EF90089536
:1012500022E8241B08F420E0620F08954095282F0F
:10126000429F412D1124842F0895E42FF0E0EE0FCA
:10127000FF1FE453FD4F9081921B97FD9195292FFD
:1012800038E1239F212D1124620F08950F931F939E
:1012900010E0F801EE0FFF1FE453FD4F90819C57C3
:1012A00097FD9195000F111FF801E456FD4F01A91C
:1012B0000052110B2003F001219FF00D112408E3CF
:1012C00010E0091B110997FD139540039001419F00
:1012D000300D1124E20FF31F9F01220F331F2E0F39
:1012E0003F1F37FF02C021583F4F220F232F221FDD
:1012F000330B620F1F910F9108950F931F93522F7D
:1013000010E0F801EE0FFF1FE456FD4FA1A9A05217
:10131000BB0B9D015203F001539FF00D1124000FF0
:10132000111FD801A453BD4F0C910C57110B400352
:101330009001419F300D11242E0F3F1F37FF02C037
:10134000215C3F4F96E0359527959A95E1F7620F1E
:101350001F910F9108950F931F93522F10E0F801E2
:10136000EE0FFF1FE456FD4FA1A9A052BB0B9D013C
:101370005203F001539FF00D1124000F111FD801EB
:10138000A453BD4F0C910C57110B40039001419F8A
:10139000300D11242E0F3F1F37FF02C021583F4F41
:1013A000220F232F221F330B620F1F910F910895DD
:1013B000EF920F93972F23E0029FB00111247595B0
:1013C00067956E0D792F0F91EF900895322F50E0B1
:1013D000FA01EE0FFF1FE456FD4F91A9905297FDC1
:1013E0009195440F551FFA01E453FD4F2081231BB3
:1013F000330B290F311D97FD3A95620F0895E42FA5
:10140000F0E0EE0FFF1FE456FD4F61A9621B089547
:10141000E42FF0E0EE0FFF1FE453FD4F6081621BED
:101420000895622F0895E42FF0E0EE0FFF1FE453BC
:10143000FD4F408134EE439F412D1124E82FF0E011
:1014400050E0445E5F4FDA01A21BB1099D01B7FF76
:1014500003C031952195310993E0220F331F9A95EE
:10146000E1F7AF01421B530B9A0157FD20E0582FC3
:10147000259F212D1124822F0895E42FF0E0EE0FF7
:10148000FF1FE453FD4F408134EE439F412D112453
:10149000E72FF0E050E0445E5F4FDA01A21BB10994
:1014A0009D01B7FF03C031952195310993E0220FCB
:1014B000331F9A95E1F7AF01421B530B9A0157FD79
:1014C00020E0279F212D1124722F08950C94C2072C
:1014D0000C94CD07FC019B01009729F480E077FF75
:1014E0002BC080E80895AC0197FF04C0442755271E
:1014F000481B590BB901640F751F37FD10C0241B21
:10150000350BC901A5E0880F991FAA95E1F70E9444
:101510004F3380E2861BF7FF0FC081950895CB0102
:1015200065E0880F991F6A95E1F7BA01621B730B9A
:101530000E944F3380E6EECF0895EF920F93CF9342
:10154000DF93D72FC82FC9010E19BA010E946A0A6A
:10155000602F681B7D2F8C2FDF91CF910F91EF9023
:1015600008950F93CF93DF93D72FC82FC901BA01E6
:101570000E946A0A682F600F7D2F8C2FDF91CF9118
:101580000F910895EF920F931F93CF93DF93D62F70
:10159000C72F182FC9010E19010FBA010E946A0A3C
:1015A000081B202F219F212D1124822F6D2F7C2F8E
:1015B000DF91CF911F910F91EF900895EF920F93CC
:1015C0001F93CF93DF93D62F172FC82FC9010E1962
:1015D000070FBA010E946A0A702F781B719F712D44
:1015E00011246D2F8C2FDF91CF911F910F91EF90D0
:1015F00008950F931F93CF93DF93D62FC72F182FE4
:10160000C901212F201B022FBA010E946A0A982FBC
:10161000990F990F891B800F282F219F212D1124AD
:10162000822F6D2F7C2FDF91CF911F910F91089505
:101630000F931F93CF93DF93D62F172FC82FC90176
:10164000272F201B022FBA010E946A0A982F990F98
:10165000990F782F791B700F719F712D11246D2FA9
:101660008C2FDF91CF911F910F910895E82F86FD68
:10167000E0952E2F2F7086FD2F5FE695E695E69577
:10168000E670F0E0E95FFD4F9181929F902D212D52
:10169000112492959F702295207F922B2081920F8A
:1016A00087FD919580E8890F08950F931F93CF933D
:1016B000DF938B01D82FC42F822F0E94360BEC2F83
:1016C000F0E0EE0FFF1FE453FD4F90819058890F1B
:1016D00087FD8195880F682F2CE0629F612D112472
:1016E000600F712F8D2FDF91CF911F910F91089572
:1016F000AC018230910508F408959FEF413E8EE1E0
:10170000580740F49A0195E0369527959A95E1F7A8
:1017100098E0920F61E0E62FE90FFF27FF1F9F017E
:1017200035952795822F229FF001239FF00DF00D14
:1017300011244E175F0738F49FEF920F961758F752
:101740008FEF860F08952F3FE9F361E0620FF6CF28
:101750000F93CF93DF93D72FC82F47FD41958EE38B
:1017600090E0841B910947FD9395889FB001899F64
:10177000700D700D1124229FC001239F900D900DBC
:101780001124860F971F0E94780B982F990F890FAD
:10179000682F600F7D2F8C2FDF91CF910F910895CF
:1017A00030E020E0869F212D969F200D311D1124D1
:1017B000C9010895AF92BF92CF92DF92FF920F932B
:1017C0001F93CF93DF93362F472FE82FF0E0E75C8E
:1017D000FD4F71110FC0E4918E2F2E2F6E2F722F9F
:1017E000DF91CF911F910F91FF90DF90CF90BF902D
:1017F000AF900895C72FD0E02491F22E022F10E071
:1018000056E0659FC0011124EFEFF0E0BF010E9498
:101810003B33832F90E0880F991F35E5369FD00129
:10182000379FB00D11248A1B9B0B982F990F980F8F
:101830006F01CC1ADD0AC09ED001C19EB00DD09EB2
:10184000B00D11248B2F499FA0011124452F55273E
:101850006F01C41AD50AC09EA001C19E500DD09E32
:10186000500D11245F01A91AB108AC9E6001AD9E14
:10187000D00CBC9ED00C1124CD2CDD24EC19FD091C
:10188000E09FE001E19FD00DF09FD00D1124ED2FDE
:1018900062307105A1F050F46115710509F49ECF15
:1018A0006130710581F0EB2F852F98CF6430710581
:1018B00069F080F06630710509F490CFF4CFE22F23
:1018C0002B2F8D2F8BCFE22F252F88CFEB2F822F21
:1018D0002D2F84CF2B2F8F2DE52F80CF2F923F924E
:1018E0005F926F927F928F929F92AF92BF92CF92B0
:1018F000DF92EF92FF920F931F93CF93DF93CDB7B9
:10190000DEB72A970FB6F894DEBF0FBECDBF8B832C
:101910007E836D832091210188E1289F802D1124F1
:101920008F83885E89838A83853710F034E73A8312
:101930008091BA068C83FF81EF2FF0E0FA87E98768
:10194000CF01880F991F9C0124563D4F69013B81AF
:10195000832F90E0FC013196F887EF838A81998587
:101960009817E8F081E0E981E43708F080E02A96F2
:101970000FB6F894DEBF0FBECDBFDF91CF911F91A0
:101980000F91FF90EF90DF90CF90BF90AF909F901E
:101990008F907F906F905F903F902F900895E98592
:1019A000FA85EC54FC4F8081909122018923F1F05B
:1019B0002090E0073090E1072F8138852654394F79
:1019C00039015B8010E0FC815F16D0F02091E207C6
:1019D000129F112D1124B101812F0E94DA0B462F85
:1019E000282F672F89859A850E94680A29853A855C
:1019F0002F5F3F4F3A87298732E0C30ED11CAECF0D
:101A0000F30181913F01F601A0A8A81ABB0881A8A3
:101A1000F3018185881A9908AA9C9001AB9C300D2E
:101A2000300D1124889CC001899C900D900D1124CB
:101A3000820F931F0E94780B082F6091E30721E02B
:101A4000620F08F46FEFF301EE0FFF1FEA5BF64041
:101A5000838D948D0E94D00B7C019401A501B1016E
:101A6000812FED81FE8109951B015394182FABCF77
:101A7000CF92DF92EF92FF920F931F93CF93DF935A
:101A80008C01C091210188E1C89FC02D112428E15B
:101A9000D22EDC0ECD2C24E72D1510F494E7C92EA0
:101AA0002091E30731E0230F08F42FEF30E050E0FE
:101AB00040E06FEF7FEF80E090E00E9434347901E6
:101AC000D0E02C2FCC1570F081E0F3E7FD1508F481
:101AD00080E0DF91CF911F910F91FF90EF90DF9009
:101AE000CF900895FE01EC54FC4F8081909122012B
:101AF000892311F14091BA064150042E000C550B78
:101B000047FF1CC0C7016091E30721E0620F08F4A2
:101B10006FEF0E94D00BAC016091E0077091E1077C
:101B20008091E207F80109950E94DA0B462F282FD1
:101B3000672FCE010E94680A2196C3CFFA01E654AE
:101B4000F94F858982130AC0FA01EE0FFF1FE65490
:101B5000F94F878D90A18E159F05A8F2415051092C
:101B6000CFCFDF92EF92FF920F931F93CF93DF932C
:101B70007C01C091210188E1C89FC02D112418E18A
:101B80001C0F012F153708F004E76091E3076695F5
:101B9000669521E0620F08F46FEF8091B606909190
:101BA000B7060E94D00BD82ED0E0C01760F081E0BD
:101BB000143708F080E0DF91CF911F910F91FF90D3
:101BC000EF90DF900895FE01EC54FC4F80819091DE
:101BD0002201892391F06091E0077091E1078091E3
:101BE000E2072D2D4C2FF70109950E94DA0B462FA5
:101BF000282F672FCE010E94680A2196D6CF9F9288
:101C0000AF92BF92CF92DF92EF92FF920F931F930A
:101C1000CF93DF936C01C091210188E1C89FC02D53
:101C2000112418E11C0FB12E153710F034E7B32E34
:101C30006091E307669566958091B6069091B70628
:101C40000E94D00BF82E80E48F0D0E94360B90E896
:101C5000A92EA80E8F2D0E94360B20E8922E980EEA
:101C6000D0E0CB1580F081E0143708F080E0DF9100
:101C7000CF911F910F91FF90EF90DF90CF90BF9089
:101C8000AF909F900895FE01EC54FC4F808190919D
:101C900022018923A1F06091E0077091E107809112
:101CA000E207EF2C0C2F292D4A2DF60109950E94F1
:101CB000DA0B462F282F672FCE010E94680A219643
:101CC000D0CF5F926F927F928F929F92AF92BF928E
:101CD000CF92DF92EF92FF920F931F93CF93DF93F8
:101CE0003C01C091210188E1C89FC02D112418E159
:101CF0001C0FF12E153710F034E7F32E6091E30737
:101D000066958091B6069091B7060E94D00B582E2A
:101D1000D0E0CE01880F991F9C0124563D4F6901E8
:101D2000CF15A0F081E0143708F080E0DF91CF916B
:101D30001F910F91FF90EF90DF90CF90BF90AF90E9
:101D40009F908F907F906F905F900895FE01EC546C
:101D5000FC4F808190912201892379F1F60180A9BD
:101D6000282F2C57330B590181A9E82FE052FF0B84
:101D70004F01AA9C9001AB9C300D300D1124EE9FB9
:101D8000C001EF9F900D900D1124820F931F0E94B0
:101D9000780B082F6091E0077091E1078091E207CE
:101DA000E52C9401A501F30109950E94DA0B462F59
:101DB000282F672FCE010E94680AF2E0CF0ED11CB7
:101DC0002196AECFAF92BF92CF92DF92EF92FF9269
:101DD0000F931F93CF93DF936C01C091210188E192
:101DE000C89FC02D112418E11C0FB12E153710F01B
:101DF00034E7B32E6091E30766958091B606909123
:101E0000B7060E94D00BA82ED0E0CE01880F991FF4
:101E10009C0124563D4F7901CB1578F081E01437B1
:101E200008F080E0DF91CF911F910F91FF90EF902C
:101E3000DF90CF90BF90AF900895FE01EC54FC4F1F
:101E40008081909122018923C1F0F70121A92052BC
:101E5000330B40A94C57550B6091E0077091E10797
:101E60008091E2070A2DF60109950E94DA0B462FB0
:101E7000282F672FCE010E94680AF2E0EF0EF11CB6
:101E80002196CACF0E945F079C019091F90480912E
:101E9000FA04982B21F03093F6042093F5049091E6
:101EA000FB048091FC04982B21F03093F4042093E0
:101EB000F304E0919306F0919406309749F082E0A4
:101EC0008093F7040480F581E02D87EF94E0099476
:101ED00008954091F904803F59F48091FA0487FFF6
:101EE0000DC01092FA0441110BC01092F10408C009
:101EF000813F81F48091FA0418169CF3442381F009
:101F00008091FB049091FC04892B09F05AC0109237
:101F1000F0040895823F49F447FFF0CF1092F9048E
:101F20008091FA048111ECCFE0CF833F19F41416AD
:101F3000ACF3E4CF9091FB04893F29F41916F4F631
:101F40001092FB04DBCF8A3F19F497FFD7CFF8CF6D
:101F50009091FC048B3F29F497FFD0CF1092FC04A2
:101F6000CDCF8C3F19F41916CCF3C8CF9CE0980F55
:101F7000953090F4845F990B21E030E0B90102C004
:101F8000660F771F8A95E2F7CB0180959091F80450
:101F900089238093F804B2CF8D3F31F48091F2040D
:101FA0008E7F8093F204AACF8E3F21F48091F204B9
:101FB0008D7FF7CF8F3F09F0A1CF8091F2048B7F07
:101FC000F0CF08958091F20480FD16C081FD16C007
:101FD00082FD16C08091F0048823A1F0883280F43D
:101FE00028E0829FC001112468E270E00E944F3314
:101FF000862F672B39F0089582E0089584E00895D4
:1020000088E0089581E008958091F20480FD14C075
:1020100081FD14C082FD16C08091F104882381F0F7
:10202000843180F422E3829FC001112464E170E0D6
:102030000E944F33862F08958CE0089589E108951A
:1020400085E0089582E30895803F31F40E940410F2
:1020500081958093FA040895813F19F40E94041039
:10206000F8CF823F31F40E94041081958093F904E7
:102070000895833F19F40E940410F8CF893F29F492
:102080000E94E20F8093FB0408958A3F21F40E948E
:10209000E20F8195F7CF8B3F31F40E94E20F8195DB
:1020A0008093FC0408958C3F19F40E94E20FF8CF4E
:1020B0009CE0980F953070F4845F990B21E030E03C
:1020C00001C0220F8A95EAF78091F804822B809351
:1020D000F80408958D3F31F48091F204816080937B
:1020E000F20408958E3F21F48091F2048260F7CFCC
:1020F0008F3FB9F78091F2048460F1CF84E0809340
:10210000EC048FE78093ED048091EE048078806486
:102110008093EE04E4EAF4E08FEF819394E0EC3EE8
:10212000F907D9F71092A3041092A2041092A10407
:102130001092A004089580E00895F894E82FE295A5
:10214000EF70F0E031A1282F2F7081E090E001C006
:10215000880F2A95EAF7982F9095932391A392A13F
:10216000892B82A3789408959091860492FF06C0EB
:10217000282F28712830F9F4877F846093FF06C0E8
:10218000282F28712831F1F4877E846120918704FB
:1021900020FF06C0382F38713830D9F4877F81602E
:1021A00021FF06C0282F28712831D1F4877E816154
:1021B00094FD877E0895282F24712430F9F68B7FB3
:1021C0008860DCCF282F2471243101F78B7E886151
:1021D000DDCF382F3171313019F78E7F8860E0CF35
:1021E000282F2171213121F78E7E8861E1CFCF9395
:1021F000DF93EC018238910581F1B0F581339105CF
:1022000009F491C020F58932910509F485C08A97B7
:1022100009F490C0C11520E5D20708F0A7C0C11588
:1022200030E4D30708F0F6C0CF3BD10508F089C0F1
:10223000C83AD10508F0E1C0C53AD10508F0D5C0CB
:10224000C430D105F8F4C130D105E1F040C0853388
:10225000910509F45AC0C997E9F680918604837004
:1022600089F0C0EED0E00EC0833E910599F170F484
:10227000803E910501F1823E910561F680918604D0
:1022800082FD21C0CE01DF91CF910895863E910558
:1022900061F1873E910571F1843E910509F0BACF55
:1022A0008091870481FFEECF80918604C7EED0E055
:1022B00084FD0DC0E7CF8091860480FDFEC0909123
:1022C000870490FFDFCFC3EED0E084FFDBCFD0E008
:1022D000C0E0D8CF8091860482FDF2C0909187043F
:1022E00090FDBFCF84FFCECFF2CF8091860483FDD7
:1022F000DDCFC8CF8091860483FDE5C0909187042F
:1023000091FFF0CFC4EED0E0BDCF8091860485FF71
:10231000B9CFC9E2D0E0B6CF8091860485FFB2CFB5
:10232000C5E3D0E0AFCF8091860486FFABCFCAE291
:10233000D0E0A8CF8091860486FFA4CFC1E3D0E08F
:10234000A1CFCF3FD10509F058F4C03FD10508F027
:102350005FC0CE01815E9109079708F493CFB7CF94
:10236000C11540E2D40708F48DCFB1CFC11584E583
:10237000D807A0F4C11593E5D90708F07CC0C115B2
:1023800022E5D20708F066C0C11531E5D30708F48D
:1023900044C0DC2FCC27C16FD06A74CFC1154AE589
:1023A000D40778F4C11589E5D80708F078C0C115BD
:1023B00098E5D90708F48BCFDC2FCC27C06FD06A03
:1023C00061CFCE0190568115904208F080CF8D2FBD
:1023D0008F710E94B41090E0982F882788279F71F2
:1023E0009C012C2BE901D0624DCFC55AD0E0C854D6
:1023F000DE4FC881D0E0D06445CFC85AD0E0CC0FC2
:10240000DD1FC554DE4F0990D881C02DD4643ACF6A
:10241000D06538CFDF70D06A35CFCE0164E09695B5
:1024200087956A95E1F783702C2F26952695237062
:1024300040E2249F90011124382B8C2F8370C1E03F
:10244000D0E002C0CC0FDD1F8A95E2F7C22BD32B60
:10245000DC6818CFCE018370992721E030E002C0FC
:10246000220F331F8A95E2F7C695C69580E2C89F72
:10247000E0011124EBCFCE018370992721E030E0F9
:1024800002C0220F331F8A95E2F7C695C69590E2E7
:10249000C99FE0011124C22BD32BDA68F3CE8C2F15
:1024A0008F700E94B41034E0D695C7953A95E1F745
:1024B000CF709C2FEC01D069E5CEC9E3D0E0E2CE2D
:1024C000C2EED0E0DFCEC6EED0E0DCCE809181045B
:1024D00090918004892B90917F04892B80932A040A
:1024E000E0919306F0919406309731F00280F381E9
:1024F000E02D8AE294E00994089580917E04909101
:102500004D04981301C008958F5F8770FACF990F1B
:10251000990F990F890F982F9770869586958695B4
:1025200023E0829FF0011124EB5CFB4F50E040E080
:1025300080E0219130E0092E02C0369527950A945B
:10254000E2F721703327042E01C0220F0A94EAF724
:10255000822B4F5F5F4F4330510559F70895990F14
:10256000990F990F890F982F977041E001C0440F80
:102570009A95EAF786958695869593E0899FF0016E
:102580001124EB5CFB4F30E020E070E05191DF0163
:102590001197CB01022E02C0969587950A94E2F717
:1025A000817081958527842385278C932F5F3F4FEA
:1025B0002330310559F7089590E080E00E949B0791
:1025C00090E080E00E9485071092800410927F04C2
:1025D0000E94661286E0E7EFF4E0DF011D928A9523
:1025E000E9F71092F1041092F0041092F2040C94A6
:1025F000420F8093ED060C94DC128091ED06982F2B
:102600009670963019F488600C94F912877FFCCF8D
:1026100021E030E001C0220F8A95EAF720958091F1
:10262000ED0682230C94F91221E030E001C0220F64
:102630008A95EAF78091ED06822B0C94F91280932B
:1026400082040C94DC12882341F0809590918104DF
:102650008923809381040C9466120895882339F0AD
:1026600090918104982B909381040C9466120895A4
:102670008823F1F19CEF980F913A78F4ECE2F4E0C2
:1026800022E334E09191891303C0DF0111971C927A
:102690002E173F07B9F70C94661290E2980F983006
:1026A00088F4877021E030E0A90102C0440F551F73
:1026B0008A95E2F7CA0180959091810489238093DD
:1026C0008104E9CF9BE5980F933020F490E080E0FF
:1026D0000C949B0798E5980F973120F490E080E0E8
:1026E0000C948507803F20F00E94690F0C94420FE4
:1026F0000895CF93C82F882309F456C08CEF8C0F10
:10270000813AF8F4ECE2F4E082E394E0DF012D9109
:10271000C21759F08A179B07D1F76C2F8AE294E011
:102720000E946B07CF910C9466122191C21303C0D3
:10273000DF0111971C928E179F07B9F70E9466124E
:10274000ECCF80E28C0F883068F4C77021E030E075
:1027500001C0220FCA95EAF780918104822B8093F1
:102760008104E0CFEBE5EC0FE33040F4F0E0E85417
:10277000FE4F808190E0CF910C949B07E8E5EC0F31
:10278000E73150F4F0E0EE0FFF1FE554FE4F80817B
:102790009181CF910C948507C03F30F08C2F0E941F
:1027A0002410CF910C94420FCF910895DF92EF92B5
:1027B000FF920F931F93CF93DF93082FF62EE42EF3
:1027C000809105018823E9F08091320419E081119C
:1027D00001C01CE0D0E0C0E08CE0D82E8091320433
:1027E000FE01D89EE00DF11D1124E85DFE4F8081B1
:1027F0002E2D4F2D602F90E00E94680A2196C11760
:1028000068F3DF91CF911F910F91FF90EF90DF90D0
:10281000089580913304882319F083E00C94F91211
:1028200081E0FCCFECEEF4E08081807F82608083E9
:10283000EDEEF4E0808180788567808381E00E94FE
:102840001F1381E00E94F91288E20C942803809300
:102850009C0670939E0660939D068091AC06843022
:10286000F9F48093E9008FEF9091E800815095FD95
:1028700006C095ED9A95F1F700008111F5CF809192
:10288000E80085FF0DC050E040E063E070E08CE9B7
:1028900096E00E94C0048091E8008E778093E80063
:1028A0000895BC0184E00C942714BC0183E00C94CF
:1028B00027149C0184E08093E9009FEF8091E80059
:1028C000915085FD06C085ED8A95F1F700009111C4
:1028D000F5CF8091E80085FF0CC050E040E066E055
:1028E00070E0C9010E94C0048091E8008E77809357
:1028F000E8000895CF93DF93EC0181E08093E90035
:102900008FEF9091E800815095FD06C095ED9A9566
:10291000F1F700008111F5CF8091E80085FF14C028
:1029200050E040E068E070E0CE010E94C004809179
:10293000E8008E778093E80088E0FE01A2EAB6E026
:1029400001900D928A95E1F7DF91CF910895539A06
:102950003BB1377F2BB128604FB7F89485E395E002
:10296000FC015191CF0168E02BB9000000C057FF76
:102970003BB9550F000000C000C000C03BB900C00B
:102980006A9591F7F6E081399F0751F74FBF8FE5C0
:1029900094E00197F1F700C0000008951F93CF93D2
:1029A000DF93182FCAE0D0E0893311F4C0E5D0E0FE
:1029B000812F0E9479138FE99FE00197F1F700C002
:1029C00000002197C1F7812FDF91CF911F910C94C7
:1029D00038130F931F93CF93DF93C62FD42F022F5B
:1029E000FC0182818823A1F06093DD070E945F07CC
:1029F0009093DC078093DB07C77081E001C0880FEC
:102A0000CA95EAF7DF91CF911F910F910C942E1385
:102A10008091DD07681335C08091DB079091DC075A
:102A20000E944407883C910560F510E21D0FCD1708
:102A3000B9F080E28C0F883040F4C77081E001C0AB
:102A4000880FCA95EAF70E942313183048F481E0F2
:102A50009D2F977001C0880F9A95EAF70E942E1358
:102A6000802F0E94CE14183098F4D77081E001C0F6
:102A7000880FDA95EAF7DF91CF911F910F910C94AF
:102A80002313C77081E001C0880FCA95EAF7F3CF1E
:102A9000DF91CF911F910F910895CF93DF93C7EAF4
:102AA000D1E060E0CE010E9410342196C11584E08F
:102AB000D807B9F7DF91CF9108956F927F928F92E7
:102AC0009F92AF92BF92CF92DF92EF92FF920F93BD
:102AD0001F93CF93DF9389E3C82E83E0D82E07E9B5
:102AE00010E0E801C056D10936011CC0F5018590FF
:102AF0009490692DC7010E941034682DC70101967A
:102B00000E94103482E0A80EB11C82E0E80EF11C95
:102B1000CE15DF0559F780E1680E711C60960C1721
:102B20001D0731F07E0180E1E81AF1085301DECF84
:102B3000005A1F4F80E6C80ED11C073182E01807EB
:102B400081F6DF91CF911F910F91FF90EF90DF9071
:102B5000CF90BF90AF909F908F907F906F9008958F
:102B6000CF93C82F6FEF811161E283E290E00E9462
:102B700010346FEFC11162E184E290E00E941034E2
:102B80006FEFC11163E285E290E0CF910C941034B5
:102B900080E00E94B01560E086E290E00E94103470
:102BA0000E945D150E944D1581E00C94B0150F93A5
:102BB0001F93CF93DF9320E1629FE001112450E047
:102BC000440F551FC40FD51F30E6839FC00DD11D84
:102BD0001124CE0187960E94F233082F10E0102FA7
:102BE0000027CE0188960E94F2339801282BC90154
:102BF000DF91CF911F910F910895462F843038F4C3
:102C0000763028F4683018F4672F0C94D71590E0CC
:102C100080E00895CF92DF92FF920F931F93CF939E
:102C2000DF936C010091ED0680918204082BC7E0D0
:102C3000D0E010E0FC2EC8010C2E02C095958795BF
:102C40000A94E2F780FD0CC02197A0F7F12C8F2D9C
:102C5000DF91CF911F910F91FF90DF90CF9008955A
:102C6000B6018C2F0E94FD150E94F710019761F3A9
:102C7000EECFCF93DF93EC010E940A16BE010E94B3
:102C8000FD15DF91CF910C94F710FC0180819181AB
:102C90000E943916292F2F7092959F7092509E3066
:102CA00078F4E92FF0E0E756FB4C0C946333803F57
:102CB00019F020F4883E20F481E00895843FE1F388
:102CC00080E00895883EC0F3813FD1F7F5CF822F91
:102CD000869586958695089583E290E00E94F2336A
:102CE000813289F484E290E00E94F233823159F417
:102CF00085E290E00E94F23391E0833209F090E0A7
:102D0000892F8170089580E0FCCFCF9384E090E01C
:102D10000E94F233C82F82E290E00E94F233982F93
:102D20008C2FCF9108951F93CF93DF93EC01FC017B
:102D3000EC54FC4F80816823C9F00E94BC33182FEB
:102D40000E94BC338F77782F20E8720F08F47FEF52
:102D5000612F8091E2070E94DA0B462F282F672F00
:102D6000CE01DF91CF911F910C94680ADF91CF9132
:102D70001F910895DF92EF92FF920F931F93CF93CD
:102D8000DF938C01FC01EC54FC4F8081682381F1BE
:102D9000D090E107D091E207C091E007EC2EF12C32
:102DA0000E94BC33282FC7018C549F4F68E671E006
:102DB0000E944F338E199F0997FD0396959587952D
:102DC0009595879523706C2F289F600D11247D2D7C
:102DD0008D2F0E94DA0B462F282F672FC801DF9115
:102DE000CF911F910F91FF90EF90DF900C94680AA4
:102DF000DF91CF911F910F91FF90EF90DF90089599
:102E00007F928F929F92AF92BF92CF92DF92EF927A
:102E1000FF920F931F93CF93DF93182F809113018D
:102E2000811323C09091DF0793702091120130E04D
:102E300081E09217130609F480E0817080932301EA
:102E40008091E40790912201981739F08093220134
:102E500040E060E080E00E94660A1A3260F4E12FF0
:102E6000F0E0E955FB4C0C94633381E0E6CF8091B0
:102E70002301811102C0C0E059C140E060E080E060
:102E80000E94660AF8CFC091210188E1C89FC02D39
:102E9000112408E10C0FF02E053710F094E7F92EFD
:102EA0006091E0077091E1078091E2070E94DA0BE0
:102EB000E62ED72EC82ED0E0CF1528F0C1E004377B
:102EC00008F434C1D8CFFE01EC54FC4F80819091BE
:102ED0002201892331F02C2D4E2D6D2DCE010E9423
:102EE000680A2196E9CFC091210188E1C89FC02DD1
:102EF000112408E10C0FE02E053710F084E7E82ECE
:102F0000D090E107C090E2072091E307D0E4FD2EC6
:102F10003F2D329F312D1124F32ED0E0CE1570F6C7
:102F2000FE01EC54FC4F8081909122018923B9F07D
:102F3000FE01EE0FFF1FE456FD4F81A982958F70B1
:102F40006091E0078F9D600D11247D2D8C2D0E94D6
:102F5000DA0B462F282F672FCE010E94680A219690
:102F6000DDCFC091210188E1C89FC02D112408E167
:102F70000C0FE02E053710F0A4E7EA2ED090E10701
:102F8000C090E2072091E307F0E4FF2E3F2D329F2F
:102F9000312D1124F32ED0E0CE1508F08FCFFE0195
:102FA000EC54FC4F8081909122018923D9F0FE01DD
:102FB000EE0FFF1FE456FD4F60A9F69EB0011124ED
:102FC000E5E075956795EA95E1F78091E007680F70
:102FD0007D2D8C2D0E94DA0B462F282F672FCE01D6
:102FE0000E94680A2196D8CFC091210188E1C89F2C
:102FF000C02D112408E10C0FF02E053710F064E706
:10300000F62EE090E007D091E107D090E2076091C2
:10301000E3076695669566958091B6069091B7062A
:103020000E94D00B0E94360B805887FD8195880F37
:10303000282F3D2D239F212D1124822F6E2D7D2F92
:103040000E94DA0BE62ED72EC82ED0E0CF1508F05E
:1030500035CFFE01EC54FC4F8081909122018923F1
:1030600031F02C2D4E2D6D2DCE010E94680A219637
:10307000EDCF8DE39AE00E94B10D07C083E19AE0A5
:10308000FACF88E19BE00E94E20EC82F4FC089EF83
:103090009AE0F9CF8EED9AE00E94610EF6CF82ECB5
:1030A0009AE0FACF81E19AE0E6CF88E09AE0E3CFB8
:1030B0008FEF99E0E0CF86EE99E0DDCF88ED99E0E3
:1030C000EBCF88EA9BE0DFCF81EB9AE0DCCF8DE9A4
:1030D0009AE0E2CF8BEA99E00E94FF0DD6CF8DE710
:1030E00099E0FACF86E499E0F7CFC0912301C111AE
:1030F0003EC06091E30720E1620F08F46FEF80911A
:10310000B6069091B7060E94D00B6AE070E00E946C
:103110003B33892B09F0AFCE0E94BC3364E770E0EB
:103120000E944F33609122010E94BA1680912101C2
:103130008F5F80932101C1110CC082E08093240134
:1031400080912301811105C0111103C083E0809398
:103150002401DF91CF911F910F91FF90EF90DF90AD
:10316000CF90BF90AF909F908F907F900895C09127
:10317000210188E1C89FC02D112408E10C0F802F88
:10318000053708F084E7D0E0E82EF12CCE15DF05F6
:103190000CF094CE60912201CE010E94BA162196C5
:1031A000F5CFC0912301C1111EC06091E30720E15A
:1031B000620F08F46FEF8091B6069091B7060E94F7
:1031C000D00B65E070E00E943B33892B09F053CEB1
:1031D0000E94BC3364E770E00E944F33609122018B
:1031E0000E949316A3CFC091210188E1C89FC02DF2
:1031F000112408E10C0F802F053708F084E7D0E098
:10320000E82EF12CCE15DF050CF058CE609122018E
:10321000CE010E9493162196F5CFC091210188E13D
:10322000C89FC02D112408E10C0FF02E053710F0B7
:1032300054E7F52ED090E107E090E207D091E00747
:103240006091E3076695669566958091B6069091C4
:10325000B7060E94D00B0E94360B805887FD8195DF
:10326000880F682F2CE0629F612D11246D0F7D2D3A
:103270008E2D0E94DA0BE62ED72EC82ED0E0CF1569
:1032800008F01CCEFE01EC54FC4F8081909122018D
:10329000892331F02C2D4E2D6D2DCE010E94680A10
:1032A0002196EDCF85E59BE0E6CE85E399E0E3CE80
:1032B0008EE299E00E94380DE8CE88E299E0FACFDC
:1032C0008091BA0621E0382F321B08F430E0832FBA
:1032D0006FE079E00E946E0CD8CE6FE079E080E07C
:1032E000F9CF8091BA0621E0382F321B08F430E084
:1032F000832F64ED78E0EECF64ED78E0F0CF80913D
:10330000BA0621E0382F321B08F430E0832F62EA3E
:1033100078E0E0CF62EA78E0E2CF8091BA0621E07F
:10332000382F321B08F430E0832F6AE878E0D2CFE0
:103330006AE878E0D4CF8091BA0621E0382F321BBA
:1033400008F430E0832F64E778E0C4CF64E778E0E6
:10335000C6CF69E478E0C3CFC091210188E1C89F5E
:10336000C02D112408E10C0FB02E053710F044E7F2
:10337000B42E2091E30730E050E040E06FEF7FEFA4
:1033800080E090E00E9434347901D0E0CE01880FD3
:10339000991FFC01E456FD4F6F0132E8A32ECB15B7
:1033A00008F08CCDFE01EC54FC4F808190912201FD
:1033B000892319F18090E1079090E2077090E0076F
:1033C0004091BA064150042E000C550B47FF1AC01D
:1033D000C7016091E3070E94D00B6A2D282F621B62
:1033E00008F460E0670D782D892D0E94DA0B462FD6
:1033F000282F672FCE010E94680A219632E0C30E63
:10340000D11CCDCFFA01E654F94F9181F60180A984
:1034100098130AC0FA01EE0FFF1FE654F94F878D8B
:1034200090A18E159F05A8F241505109CFCF9091E0
:103430002101D8E19D9FD00D11240E94BC33C82FDB
:103440000E94BC336C2F782F8091E2070E94DA0B28
:10345000482F872F0E94660AC1E0D43708F466CE51
:103460000ACD4F925F926F927F928F929F92AF920E
:10347000BF92CF92DF92EF92FF92CF93DF93C090F3
:103480003005D0903105E0903205F09033058FB7CC
:10349000F894409098065090990660909A06709023
:1034A0009B068FBF530142018C189D08AE08BF08D0
:1034B0000E94530760933005709331058093320565
:1034C00090933305A091FD04EDEFF4E02A2F30E056
:1034D0004FEFC40ED41EE11CF11CC418D508E60839
:1034E000F708A3132BC02093FD0420913405C0E0FE
:1034F000211108C02091DF07C22FC37019F0C22F1D
:10350000C695C69520912401213009F441C022239B
:1035100041F1223009F4A8C0233009F4B0C0DF9192
:10352000CF91FF90EF90DF90CF90BF90AF909F90A2
:103530008F907F906F905F904F900895478D50A12E
:103540002A01712C612CC414D504E604F70420F47C
:1035500021503F5F3296C5CF480D591D50A3478F6C
:10356000F8CF109221016093B6067093B70680934E
:10357000B8069093B90683E3EDEFF4E0AAEBB6E06A
:1035800001900D928A95E1F781E080932401C7CFE5
:103590008C2F0E940017CC2311F28091DF078370DB
:1035A00009F4BDCF8091ED06833009F459C0B0F421
:1035B000813009F0B4CF46E061E28BE2DF91CF9138
:1035C000FF90EF90DF90CF90BF90AF909F908F9043
:1035D0007F906F905F904F900C94D6138850C1E00D
:1035E000D0E0893008F09BCF29E143E360E0CE01D1
:1035F0000E94680A2196C530D105B1F729E143E35D
:1036000060E085E090E00E94680A29E143E360E021
:1036100086E090E00E94680A26E041E26BE289E2DF
:1036200090E00E94680A26E041E26BE28EE490E0BE
:103630000E94680A26E041E26BE283E790E00E9484
:10364000680ACFE0D2E089A129E143E360E090E09D
:103650000E94680A269682E0CD35D807A1F75FCF91
:1036600040E069E183E3AACFC09313018091DF07B3
:103670008370809312010E94A71483E086CF80910B
:10368000DE07882351F046E050E06CE170E08FEDFA
:1036900097E00E9400341092DE074091B6065091E8
:1036A000B7066091B8067091B9062FB7F89480916B
:1036B000980690919906A0919A06B0919B062FBF0B
:1036C000841B950BA60BB70B4097A105B10508F419
:1036D00026CF1092240123CFEFEDF7E081E3808322
:1036E0008091250190912601A091270181839283E9
:1036F000A3838FE784838FEF858346E050E06CE1FE
:1037000070E0CF010E9400341092DE0708951092FD
:103710008104ECE2F4E086E0DF011D928A95E9F78E
:103720000C94DC121F93CF93DF93CDB7DEB7AA972B
:103730000FB6F894DEBF0FBECDBF8EEA96E02091A3
:10374000F100DC012D93CD01B6E0863B9B07B9F774
:103750008091AF06833009F472C0B8F4813009F467
:1037600049C0823009F4B3C08091E80083FF96C25B
:103770008091AE069091AF069A3008F08FC2E92F83
:10378000F0E0EF52FB4C0C9463338A3009F48EC0A6
:103790008B3009F471C0893039F78091AE068132DF
:1037A00019F78091B2069091B306009711F0029735
:1037B000D9F68091E800877F8093E8008091E80047
:1037C00082FF38C09091F3008091F200029731F4AB
:1037D0008091F100813011F0863021F48091F10068
:1037E0008093A1068091E8008B778093E8000E9487
:1037F0001405BACF8091AE06813A09F0B5CF809119
:10380000E800877F8093E8008091B2069091B3062C
:10381000892B61F468E082EA96E070E00E94C605B8
:103820008091E8008B778093E8009ECF60E090E085
:1038300080E0F3CF8091AC068111C0CF95CF80910D
:10384000AE06813A09F090CF8091B2069091B3060E
:10385000892B09F089CF8091E800877F8093E80069
:103860008091E80080FFFCCF809120018093F100DF
:103870008091E8008E77B9CF8091AE06813209F051
:1038800073CF8091B2069091B306892B09F06CCF6B
:103890008091E800877F8093E8000E941405809162
:1038A000B006809320010E94871B5ECF8091AE06F8
:1038B000813209F059CF8091E800877F8093E8003A
:1038C0000E9414058091B1068093A0064DCF80918F
:1038D000AE06813A09F048CF8091E800877F809357
:1038E000E8008091E80080FFFCCF8091A006BECF69
:1038F000803899F0823809F0D1C18091B2068F707A
:10390000873008F0CBC18093E9008091EB0085FB04
:10391000882780F91092E90006C08091AA0690914C
:10392000AB06911182609091E800977F9093E80038
:103930008093F1001092F1008091E8008E77AAC187
:10394000882309F498C1823009F0A8C18091B0069B
:1039500081119BC18091B2068F702FEF280F263006
:1039600008F09CC18093E9002091EB0020FF8DC1FD
:10397000933031F48091EB0080628093EB0085C13D
:103980009091EB0090619093EB0021E030E001C05A
:10399000220F8A95EAF72093EA001092EA008091BC
:1039A000EB008860EACF811179C11091B0061F77D2
:1039B0008091E3008078812B8093E3008091E80080
:1039C000877F8093E8000E9414058091E80080FFC3
:1039D000FCCF8091E30080688093E30082E01111C6
:1039E00083E08093AC065AC18058823008F056C1FB
:1039F0002091B0063091B1062C3DE3E03E07A1F5E1
:103A000083E08A838AE289834FB7F894DE011396B4
:103A100020E03EE051E2E32FF0E050935700E491C4
:103A200020FF03C0E295EF703F5FEF708E2F90E0B4
:103A3000EA30C0F0C7968D939D932F5F243159F7DC
:103A40004FBF8091E800877F8093E8006AE270E0D2
:103A5000CE0101960E94C6058091E8008B77809385
:103A6000E8001CC1C096E7CF8091B2069091B306E2
:103A7000432F55274330510509F44AC078F54130AA
:103A8000510509F47AC08FEB90E0E9EBF4E04230A5
:103A9000510509F003C12091E800277F2093E80039
:103AA0002091B4063091B5068217930708F49C0163
:103AB00040E02115310509F065C0411163C08091D6
:103AC000E80082FDC9CF8091AC06882329F28530B9
:103AD00019F28091E80083FFF2CFBECF4132510549
:103AE00009F43CC04232510509F0D8C08330910539
:103AF00008F0D4C0FC01EE0FFF1FE057FD4F01900E
:103B0000F081E02D83579D4FDC018C9190E01AC02D
:103B1000332721303105D1F02115310561F02230F4
:103B2000310509F0BBC0EAE8F5E0E4918E2F90E0A2
:103B3000EAE8F5E007C0EAEBF5E0E4918E2F90E0CB
:103B4000EAEBF5E0009709F4A9C0A5CFEAEAF5E0B1
:103B5000E4918E2F90E0EAEAF5E0F4CF833091050E
:103B600008F09CC0880F991FFC01EA56FD4F019098
:103B7000F081E02D89E090E08ECF82E190E0E8E7EF
:103B8000F5E089CF8091AC06882309F465CF8530B4
:103B900009F462CF8091E80083FD5ECF8091E80058
:103BA00082FD8DCF8091E80080FF83CF9091F3005C
:103BB0008091F2002115310519F08830910550F0FF
:103BC00041E0089709F040E08091E8008E7780930B
:103BD000E8006FCF44914093F100319621503109B4
:103BE0000196E8CF803809F059C08091E800877FBE
:103BF0008093E8008091AD068093F1009DCE811105
:103C00004DC01091B006123008F048C08091E80015
:103C1000877F8093E8001093AD060E94140511235E
:103C200011F084E005C08091E30087FDFACF81E0C8
:103C30008093AC0642E061EC81E00E94330542E2F1
:103C400061EC84E00E94330542E261EC82E00E9474
:103C5000330542E260EC83E00E94330542E361E811
:103C600085E00E94330542E361E886E00E94330567
:103C70008091AC0613C08091B006813079F481E068
:103C8000933009F080E08093AB061092E9008091B8
:103C9000E800877F8093E8000E9414058091E80087
:103CA00083FF0AC08091E800877F8093E8008091BD
:103CB000EB0080628093EB00AA960FB6F894DEBF0B
:103CC0000FBECDBFDF91CF911F91089590E080E0AE
:103CD0000E94FA33893E9E4F11F40C946C1680E0DA
:103CE000089569EE7EEF90E080E00E942E3460E05F
:103CF00082E090E00E94103460E083E090E00E9457
:103D000010341092820460E084E090E00E9410344D
:103D100060E082E290E00E94103460E085E090E094
:103D20000E94103460E086E090E00E9410346FEF53
:103D300087E090E00E94103440E050E0BA0188E053
:103D400090E00E94223460E08DE090E00E94103408
:103D500040E050E0BA0188E190E00E94223460E047
:103D600087E190E00E94103440E050E0BA018CE11D
:103D700090E00E94223470E060E080E290E00E94D7
:103D80002E3440E050E0BA0188E190E00E942234F5
:103D900080E00E94B0150E94C81540E050E0BA01D2
:103DA0008FE090E00E9422340E947E108091DF0715
:103DB000837011F4109224018091DF078C7F816061
:103DC0008093DF078091DE0781608093DE078FE7B5
:103DD0008093E3074FEF6FEF8AEA90E00E94410380
:103DE0000C9412145F926F927F928F929F92AF9277
:103DF000BF92CF92DF92EF92FF920F931F93CF93D8
:103E0000DF9300D000D00F92CDB7DEB77C01FC016C
:103E100083819481892B39F08081918189238F3F1F
:103E200011F00C943C270F900F900F900F900F9073
:103E3000DF91CF911F910F91FF90EF90DF90CF9086
:103E4000BF90AF909F908F907F906F905F900895FC
:103E50000E940A16182F682F89819A810E94AF123A
:103E600069817A81812F0E94FD158C01F701928171
:103E7000992311F40C943027980122513F452031A9
:103E8000310508F095C78FEF93E00E94F23302519D
:103E900097EAA92EBB24B3948111C5CF011134C078
:103EA0001C821B82662463948AE0582E85010F5F72
:103EB0001F4FC5010E94F23389831A82882309F4B7
:103EC000B2CF9FEF980F933070F58A83698232E00A
:103ED000A30EB11CC8010E94F2338B83882309F41E
:103EE000A2CF8E010F5F1F4FF80120812223F1F234
:103EF000213009F052C0918182819130B1F40E5F7E
:103F00001F4F0E94CE1417C0A114F4E0BF0609F49D
:103F10008ACFC5010E94F233811101C001502FEFF9
:103F2000A21AB20ABBCF5801DCCF923039F40E5F2F
:103F30001F4F0E9479130F5F1F4FD6CF933029F484
:103F40000E5F1F4F0E943813F6CF943019F00F5FA9
:103F50001F4FF1CF0E5F1F4F30E020E0B8016F5FC1
:103F60007F4FF80141818053990B8A30910550F0C1
:103F70002150310900F38FE99FE00197F1F700C06C
:103F80000000F6CF529EF001539EF00D11249C01CB
:103F90002E0F3F1F842F8B01E1CFE22FF0E0E7547B
:103FA000FE4F7490822F86958695869590E0FC0151
:103FB000E755FE4FE4902770F12C022E02C0F594D5
:103FC000E7940A94E2F7E1E0EE22FF24FC01E756D1
:103FD000FE4FC490D12C022E02C0D594C7940A94EF
:103FE000E2F7F1E0CF22DD24FC01E757FE4F849099
:103FF000912C02C0959487942A95E2F721E08222C1
:104000009924E114F10419F081EE0E947913C1148E
:10401000D10419F086EE0E947913872D0E94CE14E8
:10402000CD2819F086EE0E943813EF2819F081EEA2
:104030000E943813892809F47ECF8CE262CF81E098
:104040000E94141303C081E00E9408130F900F9088
:104050000F900F900F90DF91CF911F910F91FF90D4
:10406000EF90DF90CF90BF90AF909F908F907F9018
:104070006F905F900C94FD1282E0E2CF093A7DE5EB
:104080001707C1F008F4B3C00A3AEDE51E0709F0BE
:10409000AAC6992379F18091EC048F708093EC0487
:1040A0001092320481E080930401109233040E9444
:1040B000091420C09923F1F08091EC048F70809353
:1040C000EC041092320491E0909304018091330447
:1040D000892780933304EBCF992361F08091ED061B
:1040E000813041F480913204882309F464C0815006
:1040F00080933204F7019281992309F4D0C610927B
:10410000DD070330FDE51F0708F027C30A3F2CE554
:10411000120738F4980122503C452431310508F04B
:1041200021C30E94851690938704809386040031F2
:104130004CE5140709F4FCC308F078C308306CE5BB
:10414000160709F4E3C308F04AC304308CE51807E6
:1041500009F4CEC308F030C30230ECE51E0709F4C1
:10416000C1C380918604826003301C4509F4BDC33D
:10417000609186041091870484E090E00E941034DE
:10418000612F82E290E00E9410340F900F900F9008
:104190000F900F90DF91CF911F910F91FF90EF90B3
:1041A000DF90CF90BF90AF909F908F907F906F9057
:1041B0005F900C94871B8BE09BCF992309F49ACFD7
:1041C0008091ED06813009F095CF809132048B30DB
:1041D00010F48F5F8DCF80E08BCF992309F48ACFC5
:1041E0008091050191E089278093050183CF992370
:1041F00009F480CF9091ED068091EC049B3081F41E
:104200009091040121E02927209304019093320426
:10421000992321F0806F8093EC046CCF8F70FBCFDB
:104220001092040191E090933204806F8093EC042B
:10423000909333043CCF01388CE5180709F467C12B
:104240000238ECE51E0709F0F1C5992309F4EBCD1E
:104250008091EC04982F9F70993008F0E4CD9F5F17
:1042600060C10C39FCE51F07A8F502392CE51207DF
:1042700008F07AC100393CE5130709F463C101393C
:104280004CE5140709F0D2C5992309F4CCCD20914F
:10429000EC04822F859585958595859586300CF063
:1042A000C2CD91E0980F9295907F959595959595B3
:1042B0009595392F3295307F2F70232B2093EC0466
:1042C00018160CF0B0CD97FFAECD8295807F922F5F
:1042D0009F7029C10C395CE5150709F455C10D39EA
:1042E0006CE5160709F0A2C5992309F49CCD8091CD
:1042F000ED04982F9F779F3709F495CD933708F0F9
:1043000059C1935F9F77807853C1043B7CE51707C1
:1043100009F4A6C108F04CC0003BECE51E0709F407
:104320007BC1D8F40E3A2CE5120709F458C10F3AB4
:104330003CE5130709F07AC5992309F474CD20915F
:10434000ED04322F331F3327331F9091EE04892F52
:104350008770880F832B8F5F52C18091ED0420916D
:10436000EE04023B4CE5140709F466C108F06EC187
:1043700040E091114FE7881F8827881F2770220F80
:1043800060E4822B0F900F900F900F900F90DF91B1
:10439000CF911F910F91FF90EF90DF90CF90BF9042
:1043A000AF909F908F907F906F905F900C946D0373
:1043B000073B6CE5160709F461C180F4053B8CE509
:1043C000180709F44DC1063BECE51E0709F02EC5A0
:1043D0008FEF911181E08093A20425CD093BFCE58C
:1043E0001F0709F480C108F469C10A3B3CE51307C3
:1043F00009F01CC58091ED04282F221F2227221FBF
:104400008091EE048770880F822B6FEF7FE191110E
:104410007BC178C1053F9CE5190709F497C108F4F1
:1044200091C127E245EE66EE063FFCE51F0709F065
:1044300061CEC7010F900F900F900F900F90DF91FA
:10444000CF911F910F91FF90EF90DF90CF90BF9091
:10445000AF909F908F907F906F905F900C94E91435
:104460008091ED04282F221F2227221F4091EE0465
:104470004770440F422B8F7721ED200F30E0B901B8
:104480006C557B4F7B01FB012081992309F12F3F64
:1044900009F0C9CC1091EC04912F9F7015951595DA
:1044A000159515951F52FCE09F9F100D1124100FBC
:1044B000212F2F774069E091EE06F091EF06082F4B
:1044C00063E070E08EEE96E00995F7011083ABCCC7
:1044D0002F3F61F02F774068E091EE06F091EF06F4
:1044E000082F63E070E08EEE96E009958FEFF701FC
:1044F000808399CC992309F496CC0757802F8F702D
:104500000091EC04007F082B0093EC048CCC9923E1
:1045100009F489CC8091EC04982F9F7009F483CC26
:10452000915F9F70807F892B8093EC047CCC9923D2
:1045300009F479CC0958802F8295807F0091EC0492
:104540000F70E1CF992309F46ECC8091EC04982F81
:1045500095959595959595959B3F0CF464CC915FB9
:104560009295907F8F70DFCF992309F45CCC02592C
:104570008EE0089F802D11248F770091ED04007844
:10458000082B0093ED044FCC992309F44CCC809177
:10459000ED04982F9F7709F446CC80789F3721F45B
:1045A00085678093ED043FCC9D30D8F39D509F7775
:1045B000892BF7CF8F67F5CF992309F434CC0E59A7
:1045C0008091ED0400FB87F98093ED040695077058
:1045D0008091EE04887F082B0093EE0424CC99236D
:1045E00009F421CC2091ED04322F331F3327331FE0
:1045F0009091EE04892F8770880F832B815F382F6D
:104600003F7080FB27F92093ED04832F8695987FD8
:10461000982B9093EE0407CC992309F404CC909145
:10462000ED04991F9927991F8091EE048770880FD8
:1046300040E06BE7892BA6CE40E091114FE7881F41
:104640008827881F2770220F61E49BCE40E09111DC
:104650004FE7881F8827881F2770220F62E491CEBA
:1046600040E091114FE79091ED04991F9927991F10
:104670008091EE048770880F63E4DCCF992309F4FE
:10468000D2CB9091EE04292F2695269526952F7052
:1046900081E0820F8F70880F880F880F9778892BA1
:1046A0008093EE04982F987709F0BDCB220F220F4C
:1046B000220F8778822B8093EE04B5CB992309F4DF
:1046C000B2CB8091EE04982F987709F4ACCB982F59
:1046D000969596959695915F9F70990F990F990F62
:1046E0008778892BE8CF8091ED04282F221F22277D
:1046F000221F8091EE048770880F822B60E070EE9D
:10470000911102C070E060E00F900F900F900F9039
:104710000F90DF91CF911F910F91FF90EF90DF905D
:10472000CF90BF90AF909F908F907F906F905F9051
:104730000C94540327E245EE65EE7BCE26E241EE73
:1047400060EE77CE27E245EE64EE73CE26E241EED0
:1047500062EE6FCE28E241E0EFCF01363DE5130770
:1047600009F4DFCC8091810406316CE5160709F06D
:10477000ACC38A7A91E009F490E09093340469E242
:10478000811165E38AE294E00E946B070F900F901D
:104790000F900F900F90DF91CF911F910F91FF908D
:1047A000EF90DF90CF90BF90AF909F908F907F90D1
:1047B0006F905F900C946612809186048061063041
:1047C0002CE5120709F491C08091860488600730B7
:1047D0001C4508F48AC080918604806286C080915E
:1047E00086048D7F0C304CE5140709F47EC070F40C
:1047F000809186048C600A306CE5160709F475C058
:1048000008F488C0809186048E7F6FC00E308CE5DE
:10481000180709F485C0809186048B7F0F301C45F2
:1048200008F463C0809186048F7E5FC00C3FECE586
:104830001E0709F479C068F504312CE5120709F464
:104840008BC080F402314CE5140709F475C08091E7
:1048500086048F7B03311C4508F447C08091860491
:10486000837F43C00A3F6CE5160709F445C008F092
:1048700049C005311C4509F07BCC8091860482FB40
:10488000992790F921E0922790FB82F990FB83F918
:104890002CC001159DE5190709F454C088F48091D6
:1048A000870483600E3FFCE51F0749F18091870470
:1048B0008D7F0F3F1C4518F1809187048C7F1FC0AE
:1048C00002303DE5130709F456C008F44EC0013626
:1048D0001D4509F04DCC90918604892F8F7E94FF61
:1048E000806103C08091860481608093860440CCFF
:1048F000809186048460F9CF8091870481608093E1
:10490000870436CC809187048260F9CF8091860439
:104910008064EBCF0E94871B809186048068E5CF7E
:1049200080918604877FE1CF809187048E7FE7CFD7
:10493000809186048F7DD9CF0E94871B8091860449
:104940008F77D3CF80918704982F909591708E7F29
:10495000892B90FB81F9D3CF0E94871B909186040D
:10496000892F97FB87F98058C0CF61E08EE090E0F7
:104970000E941034FDCB60E0F9CF85E398C28091AE
:10498000DF0791E089278093DF071092240180914F
:10499000DE0781608093DE0746CA46E358E06FE396
:1049A00078E00F900F900F900F900F90DF91CF91C4
:1049B0001F910F91FF90EF90DF90CF90BF90AF903D
:1049C0009F908F907F906F905F900C94BD074FE306
:1049D00058E066E378E0E5CF44E258E06DE278E045
:1049E000E0CF4DE258E064E278E0DBCF4CE058E005
:1049F00068E178E0D6CF48E158E06CE078E0D1CFCC
:104A000040E058E064EF77E0CCCF48ED57E066EE49
:104A100077E0C7CF46EE57E068ED77E0C2CF81E0A0
:104A20000F900F900F900F900F90DF91CF911F91EB
:104A30000F91FF90EF90DF90CF90BF90AF909F903D
:104A40008F907F906F905F900C9428038CE0E8CF5C
:104A50000E94871B9FEFE4E3FCE09150E040F040B0
:104A6000E1F700C000000E9433070F900F900F90F5
:104A70000F900F90DF91CF911F910F91FF90EF90CA
:104A8000DF90CF90BF90AF909F908F907F906F906E
:104A90005F900C94711EC8010E948712D82E46C2E6
:104AA000092F0F70907F11F00295007F812F222334
:104AB000C9F0002369F090E2910F983010F01111C5
:104AC0000BC080918104082B009381040E94661220
:104AD000812F0E94791317C080918004082B0093C6
:104AE0008004F4CF0E943813002369F00095105E13
:104AF000183010F0B11025C0809181040823009374
:104B000081040E946612F8E0CF1AD10824E0C21690
:104B1000D10408F088C90F900F900F900F900F905C
:104B2000DF91CF911F910F91FF90EF90DF90CF9089
:104B3000BF90AF909F908F907F906F905F900C94FC
:104B4000B10780918004082300938004DACF892F75
:104B50008F70907F903211F08295807FF1E0BF12CC
:104B60000CC0222329F0363070F60E942E13CBCFD2
:104B7000353048F60E942313C6CF222341F0332359
:104B8000A1F340FFA5CF4F70F7014583EECF33234C
:104B900089F3193369F4FFEF27EE33E0F150204039
:104BA0003040E1F700C00000812F0E943813ABCFE6
:104BB0008FE39CE90197F1F7F5CF892F86958695CC
:104BC000837061F0813009F09ECF812F93702111A5
:104BD00002C090E080E00E94850795CF812F9370FE
:104BE000211102C090E080E00E949B078CCF812FB2
:104BF000222329F00E9424100E94420F84CF0E9499
:104C0000690FFACF892F8370A1F521117CCF812FF5
:104C1000829586958770880F880F412F4F70082ED8
:104C200001C0440F0A94EAF7212F207114FF07C036
:104C30002FE030E001C0220F8A95EAF72095969583
:104C400096959370923081F0822F842B933030F4BC
:104C500080918204913029F0242B82230E941F131B
:104C600052CF842B822BFACF242B8091820482276F
:104C7000F5CF8695222311F0892F8170882309F4BE
:104C800042CF812F829586958770880F880F412F9C
:104C90004F70082E01C0440F0A94EAF7212F2071AB
:104CA00014FF07C02FE030E001C0220F8A95EAF719
:104CB0002095969596959370923081F0822F842B53
:104CC000933030F48091ED06913029F0242B82232B
:104CD0000E94F91218CF842B822BFACF242B8091BB
:104CE000ED068227F5CF092F0F70222329F0802FA0
:104CF0000E941413812F39CF812F0E942313802FFC
:104D00000E94081300CF812FE1EF1E1789F1E117F0
:104D100050F0F0EF1F17B9F02223B1F13111D8CEC6
:104D2000892F8F7129C042EF141749F153EF1513E2
:104D3000F3CF80E0222361F29F7181E001C0880FF0
:104D40009A95EAF7C5CF222379F0353008F0DBCE0B
:104D5000292F2F7181E090E001C0880F2A95EAF792
:104D60009091ED068927B4CF363008F0CCCEF0CF45
:104D7000892F8F71222321F20E941413C4CE892F10
:104D80008F712223C9F3BCCF332379F0893341F4E7
:104D90006FEF77EE83E0615070408040E1F702CF23
:104DA000EFE3FCE93197F1F7FDCE892F8F71A8CFA2
:104DB00000313FE5130709F442C901314FE51407FB
:104DC00009F45AC9073A3DE5130709F406CA08F081
:104DD00055C9053A5DE5150709F47EC9063A6DE542
:104DE000160709F4EAC90E3AFCE51F0708F08DCA58
:104DF0000E392CE5120708F0DFCB00393CE513072C
:104E000008F02FCA03384CE5140708F090CB01389E
:104E10005CE5150708F00FCA07376CE5160708F0C0
:104E200069CB0F327CE5170708F01ACB033F4CE53E
:104E3000140709F483CC08F0EDCA083D6CE51607A9
:104E400009F478CC093D7CE5170709F483CC073DCC
:104E50008CE5180709F04EC926E241EE61EEE9CA79
:104E600000315FE5150709F4EEC801316FE516075B
:104E700009F0A8CF82E0E8C885E0DE011196019034
:104E80000D928A95E1F7F701228189819A8121119A
:104E90000C94281F0E948712182F0C94301F063183
:104EA0001C45B1F580913404811167CD89E2ECE2B3
:104EB000F4E022E334E09191891303C0DF011197FC
:104EC0001C922E173F07B9F761CC82720A3C2CE581
:104ED000120709F495CD08F05AC0053C4CE51407BB
:104EE00009F47ACDF0F5033C6CE5160709F455CDCD
:104EF00008F06DCD023C8CE5180709F440CD011592
:104F00007CE5170709F4A4CD0E3D1C4509F4ADCD91
:104F1000F70100811181992309F4BDCDC8010E94D8
:104F20000A16D82E682FC8010E94AF12B8018D2D25
:104F30000E94FD150E94F710182FB82EF70122814C
:104F40004581342F32953F70892F82958F70C82EFE
:104F5000D12C8C3008F0D7CDF601E552FB4C0C94E7
:104F60006333073CECE51E0709F440CD08F439CD66
:104F7000083C2CE5120709F43ECD44EF57E060E011
:104F800078E0093C3CE5130709F40BCDB8CF0F3CA2
:104F90004CE5140709F45ACD98F40C3C6CE516075F
:104FA00009F438CD08F431CD0D3C8CE5180709F42F
:104FB00036CD84E00E3CECE51E0709F431CD9FCFE1
:104FC000063DFCE51F0738F481E1013D1C4508F46E
:104FD00027CD0C94131F0D35100711F40C94131FDB
:104FE0008ECF1F93CF93DF9380914C04807FA9F4E1
:104FF00080914904882389F080917E04D0914D04EA
:105000006091470470914804A0914A04B0914B0408
:10501000C62FC72316E0D81304C0DF91CF911F918C
:10502000089590E0109711F0CF3F19F40196877022
:10503000F2CF189F9001199F300D1124F901E25B06
:10504000FB4F41814713F2CF40814613EFCF42819E
:105050004111ECCF438154814A1B5B0B483C510505
:1050600028F780914C048F70806180934C04F90183
:10507000ED5AFB4F80818F708061808387E494E0DC
:105080000E94F21EDF91CF911F910C947D12AF927E
:10509000BF92CF92DF92EF92FF920F931F93CF9325
:1050A000DF93CDB7DEB761970FB6F894DEBF0FBEC2
:1050B000CDBF8C0185E0F801DE011D9601900D92B7
:1050C0008A95E1F7F801E28087E4A82E84E0B82E03
:1050D00060914A0470914B046115710509F432C165
:1050E0009091470440914804892F84238F3F09F40D
:1050F00029C120813181C380D480F0904904F60118
:10510000E61BF70BFF2009F4E8C080914C04582FF0
:10511000507FE83CF10508F0ABC0511177C0FE2C80
:10512000431321C092131FC0E1101DC08F70806116
:1051300080934C04C5010E94F21E80914C04F8013A
:1051400085838F2D61960FB6F894DEBF0FBECDBF5D
:10515000DF91CF911F910F91FF90EF90DF90CF9053
:10516000BF90AF900895CD2829F0822F83238F3FE1
:1051700009F003C180E0F82FF170DF2E80FF3CC002
:1051800080917E0440914D0456E0841315C02D8714
:105190003E878D859E850E943916292F22952F7076
:1051A0002230F0F0243018F59F70F1F0F80195816D
:1051B000907FD1F4D12C1EC090E0589FF001599FF0
:1051C000F00D1124E25BFB4F6181361306C0608154
:1051D000261303C06281E6120FC001968770D5CFF7
:1051E0009F7011F0882331F3805E883018F3C80176
:1051F0000E94F21EFD2CA5CFEE2009F4A2CF8091D3
:105200004C04816080934C04F12C9BCF431306C067
:10521000921304C0F801EE2009F479C0C8010E947D
:105220004516882309F1EE20F9F080914C04803274
:1052300070F0209147043091480438872F831986F5
:10524000DB86CA868C87CE0107960E94F21E86E016
:10525000F801A7E4B4E001900D928A95E1F70E946D
:10526000F127FF24F3946DCFC8010E94F21EF9CFFD
:1052700051110AC087E494E00E94F21E86E0F50115
:1052800011928A95E9F7C0CF43130FC092130DC056
:10529000E1100BC0F8018583C8010E94F21E86E070
:1052A000F50111928A95E9F74CCFC8010E94451685
:1052B0008823D1F2EE20C1F280914C04803238F282
:1052C00020914704309148043A8329831B82DD8270
:1052D000CC828E83CE010196B8CFE83CF105F8F67A
:1052E000FE2CEE2009F243131FC092131DC08091C3
:1052F0004C0480FD10C0982F907F69F0F8018583E1
:10530000903F31F0982F907F905F8F70892B85832D
:10531000C8010E94F21E86E0F801A7E4B4E0019003
:105320000D928A95E1F70DCFC8010E9445168111B3
:105330008ECF80914C04816080934C04C8010E9400
:10534000F21EFFCEEE2009F48FCFC8010E94451651
:10535000F82E882309F488CF86E0F801A7E4B4E0AA
:1053600001900D928A95E1F780914704909148044D
:105370000E9439160E94F127E4CE81E08E25FBCEF3
:105380001F93CF93DF93CDB7DEB767970FB6F8942F
:10539000DEBF0FBECDBF4B8B5C8B6D8B7E8B8F8B3F
:1053A0006111109280041A8A198A85E0FE017396B1
:1053B000DE011D9601900D928A95E1F786E0FE01CF
:1053C0003D96DE01179601900D928A95E1F7CE0188
:1053D00007960E944728882389F016E080917E0472
:1053E00090914D04891349C067960FB6F894DEBFBB
:1053F0000FBECDBFDF91CF911F91089586E0FE01D2
:105400003796DE01119601900D928A95E1F78A8513
:105410009B85892B11F38F81988589238F3FE9F232
:1054200020914D0430E0C901019687709927409181
:105430007E044817190671F40E94871B10924D04D0
:1054400010927E0486E0E7E4F4E0DF011D928A9585
:10545000E9F7C3CF96E0929FD001939FB00D11243E
:10546000A25BBB4FFE01319601900D929A95E1F738
:1054700080934D040E947D12B0CF819FC001112402
:10548000825B9B4F0E944728882309F4ADCF80910F
:105490007E0490E001968770992780937E049ECFCA
:1054A0009F92AF92BF92CF92DF92EF92FF920F93B3
:1054B0001F93CF93DF93CDB7DEB72B970FB6F8943A
:1054C000DEBF0FBECDBF8E010F5F1F4F86E0F8011C
:1054D00011928A95E9F789EEC82E81E0D82EF12C39
:1054E000E12CAA24A394B12CF60181916F018F3F86
:1054F00009F443C0F894E82FE295EF70F0E021A1A1
:105500008F70A50102C0440F551F8A95E2F7CA01AA
:10551000922F982B91A392A18095892382A37894AE
:1055200000C0EFEEF1E0912C31E021912F3F09F422
:105530006EC0A22FA295AF70B0E090968C9190E0D3
:105540002F7002C0959587952A95E2F780FD5FC080
:10555000832F982A330F51E0E73FF50731F7F60123
:10556000319780818F3F11F00E949D1080EA8A95CB
:10557000F1F7F801EE0DFF1D9082EFEFEE1AFE0A33
:10558000F6E0EF16F10409F0AFCF46E050E0B801C5
:1055900088E894E00E94CC33FF24F394009709F448
:1055A000F12C892BB1F186E0F801A8E8B4E0019074
:1055B0000D928A95E1F781E0809385040E945F0750
:1055C0009093840480938304809183049091840455
:1055D0000E944407059708F18091880480939A04FB
:1055E0008091890480939B0480918A0480939C0419
:1055F00080918B0480939D0480918C0480939E0401
:1056000080918D0480939F041092850406C080E0F1
:10561000A0CF809185048111D7CF80918E048823FB
:10562000A9F0869531F187E08F8382E0888719861B
:105630000E945F078160782F9B878A8710928E0473
:105640004F81588569858B850E94C0298F2D2B96A7
:105650000FB6F894DEBF0FBECDBFDF91CF911F9183
:105660000F91FF90EF90DF90CF90BF90AF909F9001
:10567000089587E08F8381E0D9CF1F920F920FB6F4
:105680000F9211242F933F934F935F936F937F93C8
:105690008F939F93AF93BF93CF93DF93EF93FF933A
:1056A000D091E900DF708091EC00C82FC17080FDBF
:1056B000C0E81092E9008091F000877F8093F000AD
:1056C00078940E94921B1092E9008091F00088600B
:1056D0008093F000CD2BCF70C093E900FF91EF9144
:1056E000DF91CF91BF91AF919F918F917F916F91FA
:1056F0005F914F913F912F910F900FBE0F901F9090
:1057000018951F920F920FB60F9211242F933F936B
:105710004F935F936F937F938F939F93AF93BF93B9
:10572000EF93FF938091E10082FF09C08091E20036
:1057300082FF05C08091E1008B7F8093E100809122
:10574000DA0080FF24C08091D80080FF20C08091C3
:10575000DA008E7F8093DA008091D90080FF9DC0AF
:1057600080E189BD82E189BD09B400FEFDCF81E001
:105770008093AC0680919F06811109C00E9470043D
:105780000E9465058091E20084608093E200809130
:10579000E10080FF17C08091E20080FF13C080917C
:1057A000E2008E7F8093E2008091E200806180932E
:1057B000E2008091D80080628093D80019BC85E017
:1057C0008093AC068091E10084FF2BC08091E200C1
:1057D00084FF27C080E189BD82E189BD89B5982F0A
:1057E000917080FFFBCF8091D8008F7D8093D8008F
:1057F0008091E1008F7E8093E1008091E2008F7EB6
:105800008093E2008091E20081608093E2008091C9
:10581000AD06882309F447C084E08093AC068091EC
:10582000AC068091E10083FF27C08091E20083FFF6
:1058300023C08091E100877F8093E10082E0809324
:10584000AC061092AD068091E1008E7F8093E1005E
:105850008091E2008E7F8093E2008091E20080617F
:105860008093E20042E060E080E00E943305809196
:10587000F00088608093F000FF91EF91BF91AF91AD
:105880009F918F917F916F915F914F913F912F9158
:105890000F900FBE0F901F90189519BC1092AC0678
:1058A00010929F0674CF8091E30087FD93E0909360
:1058B000AC06B5CF78941F921FB61F9211248F9318
:1058C0009F93AF93BF938091980690919906A09172
:1058D0009A06B0919B060196A11DB11D8093980672
:1058E00090939906A0939A06B0939B06BF91AF91AF
:1058F0009F918F911F901FBE1F9018951F921FB6EA
:105900001F9211248F939F93AF93BF93809197061B
:10591000811113C08091980690919906A0919A06E2
:10592000B0919B064196A11DB11D8093980690935E
:105930009906A0939A06B0939B06BF91AF919F9151
:105940008F911F901FBE1F901895CDB7DEB7AB97F4
:105950000FB6F894DEBF0FBECDBF0E947E1010922E
:105960001307109215071092140780EC8093D80744
:1059700086E197E09093DA078093D9071092D707D2
:105980001092D6071092F3061092F2061092F506C6
:105990001092F4061092F7061092F6061092F9068D
:1059A0001092F8061092FB061092FA061092FD066D
:1059B0001092FC061092FF061092FE06109201074C
:1059C0001092000710920307109202071092050729
:1059D0001092040710920707109206071092090709
:1059E0001092080710920D0710920C0788ED96E0B0
:1059F0009093EF068093EE068DE496E090930F0768
:105A000080930E0789E296E090930B0780930A0734
:105A100088E296E09093F1068093F00684B7877F42
:105A200084BF0FB6F894A895809160008861809338
:105A30006000109260000FBE80E890E00FB6F8940E
:105A400080936100909361000FBE85B7806885BF29
:105A500085B7806885BF8BE990E190932904809396
:105A600028040E9470040E9465058091E200846011
:105A70008093E20078948091AC068823A1F0109185
:105A8000E9001F709091EC00892F817090FD80E8F3
:105A9000182B1092E9008091E80083FD0E94921B70
:105AA0001F701093E90082E084BD93E095BD9AEFEA
:105AB00097BD80936E000E946C16811102C00E94F7
:105AC000C81509EE11E09FEEE92E91E0F92ED801FC
:105AD0008D918D018F3F11F00E949D10E016F1060F
