:100000000C9402030C9449030C9449030C94490387
:100010000C9449030C9449030C9449030C94490330
:100020000C9449030C9449030C94D1300C94A431E2
:100030000C9439270C9449030C9449030C944903FC
:100040000C9449030C9449030C9449030C94490300
:100050000C9449030C94CB270C9449030C9449034A
:100060000C9449030C9449030C9449030C944903E0
:100070000C9449030C9449030C9449030C944903D0
:100080000C9449030C9449030C9449030C944903C0
:100090000C9449030C9449030C9449030C944903B0
:1000A0000C9449030C9449030C944903A847BA5C87
:1000B000295D2A5DBB5C475C485CB25C495C4A5C7C
:1000C0004B5C4C5C4D5C4E5C4F5C0000505C515C8A
:1000D000525C535C545C555C565C0000575C585C49
:1000E000595C5A5C5B5C5C5C5D5C00005E5C5F5C08
:1000F000605C615C625C635C645C0000655C665CC7
:10010000675C685C695C6A5C6B5C00000100010014
:10011000295D2A5D01004C5D4D5D01004E5D4F5D26
:10012000505D515D525D535D545D0000555D565DFF
:10013000575D535C545C555C565C0000575C585CE2
:10014000595C5A5C5B5C5C5C5D5C00005E5C5F5CA7
:10015000605C615C625C635C645C0000655C665C66
:10016000675C685C695C6A5C6B5C000001000100B4
:10017000295D2A5D01004C5D4D5D01004E5D4F5DC6
:10018000505D515D525D535D545D0000555D565D9F
:10019000575D585D595D5A5D5B5D00005C5D5D5D5E
:1001A000595C5A5C5B5C5C5C5D5C00005E5C5F5C47
:1001B000605C615C625C635C645C0000655C665C06
:1001C000675C685C695C6A5C6B5C00000100010054
:1001D000295D2A5D01004C5D4D5D01004E5D4F5D66
:1001E000505D515D525D535D545D0000555D565D3F
:1001F000575D585D595D5A5D5B5D00005C5D5D5DFE
:100200005E5D5F5D605D615D625D0000635D5F5CC2
:10021000605C615C625C635C645C0000655C665CA5
:10022000675C685C695C6A5C6B5C000001000100F3
:10023000905C915C010001000100010001000100DF
:1002400001000100010001000100000001000100A7
:100250000100010001000100010000000100010097
:100260000100010001000100010000000100010087
:100270000100010001000100010000000100010077
:10028000010001000100010001000000A847BA5C64
:10029000295D2A5DBB5C6B5C6A5C0100695C685C23
:1002A000675C665C655C645C635C0000625C615C0E
:1002B000605C5F5C5E5C5D5C5C5C00005B5C5A5C2F
:1002C000595C585C575C565C555C0000545C535C50
:1002D000525C515C505C4F5C4E5C00004D5C4C5C71
:1002E0004B5C4A5C495C485C475C000001000100D3
:1002F000915C905C0100010001000100010001001F
:1003000001000100010001000100000001000100E6
:1003100001000100010001000100000001000100D6
:1003200001000100010001000100000001000100C6
:1003300001000100010001000100000001000100B6
:1003400001000100010001000100000001009D5CAE
:10035000815C825C9E5C2F5D2C5D010000002D5D48
:1003600000002E5D00000000000000000000000002
:10037000C95C305DC85C0000C75C00000000C65C62
:10038000315DCD5C0000CC5C00000000CB5C325DD8
:10039000CA5C0000C55C0000C45C00000000DF5CBB
:1003A00000002B5D0000C35C335D00000001010113
:1003B0000101010101010202020202020202020322
:1003C00003030303030303040404040404040505F2
:1003D00005050506060606060707070707080808B5
:1003E00008090909090A0A0A0B0B0B0C0C0C0D0D64
:1003F0000D0E0E0E0F0F0F101011111112121313FC
:100400001414151516161717181819191A1A1B1B74
:100410001C1D1D1E1E1F20202122222324242526D0
:1004200026272829292A2B2C2D2D2E2F3031323208
:10043000333435363738393A3B3C3D3E3F40414214
:10044000434445464748494A4C4D4E4F50515354FA
:10045000555658595A5B5D5E5F61626465666869AE
:100460006B6C6D6F7072737577787A7B7D7E80822E
:10047000838587888A8C8E8F91939596989A9C9E77
:10048000A0A2A3A5A7A9ABADAFB1B3B5B7BABCBE87
:10049000C0C2C4C6C9CBCDCFD1D4D6D8DBDDDFE254
:1004A000E4E7E9EBEEF0F3F5F8FAFDFF1E03630075
:1004B000680072006F006D00610074006F006E00D4
:1004C00065006D0069006E00690000000E033300D6
:1004D00061007200610068007400000004030904F8
:1004E00009029F00040100A0FA09040000010301B1
:1004F00001000921110100012240000705810308C4
:10050000000A090401000103000000092111010093
:10051000012232000705820320000A080B020201B3
:10052000010000090402000001010000092401008B
:10053000010900010309040300020103000007246C
:10054000010001410006240201010006240202020A
:10055000000924030103010201000924030204012C
:100560000101000905040240000500000525010104
:100570000109058302400005000005250101031261
:1005800001100100000008EDFEB4F40100010200BA
:100590000105010980A101850319012AB700150190
:1005A00026B700950175108100C0050C0901A10155
:1005B000850419012AA002150126A00295017510D3
:1005C0008100C005010906A101050719E029E71509
:1005D00000250195087501810295017508810105C5
:1005E00007190029FF150026FF00950675088100F0
:1005F00005081901290595057501910295017503F5
:100600009101C00011241FBECFEFDAE0DEBFCDBFE5
:1006100004B603FE27C08091620890916308A09100
:100620006408B09165088730904BA740B04BD1F477
:100630001092620810926308109264081092650884
:1006400014BE84B7877F84BF0FB6F894A8958091B5
:100650006000886180936000109260000FBEE0E04F
:10066000F8E3099514E0A0E0B1E0E8EEFAE602C094
:1006700005900D92AE34B107D9F728E0AEE4B4E0AE
:1006800001C01D92A236B207E1F70E94BC2D0C9466
:10069000BA340C940000882311F0815008958BE047
:1006A00008958B3010F48F5F089580E008950E94C4
:1006B00015188FE70E94C4184FEF6FEF8AEA90E099
:1006C0000E94661886E10C9435188091C605807FDB
:1006D00082608093C6058091C70580788567809386
:1006E000C705E2E5F4E08FEF819394E0EB39F90779
:1006F000D9F761E070E080E090E00E940C2361E0B7
:1007000070E080E090E00C948A23E6ECF5E08081D4
:100710008F70808310929B0481E0809391020895F2
:100720000E948503109251040895FF920F931F9326
:10073000CF93DF93182F64530091C7050F77862F4F
:1007400090E0E901C80FD91F3881FA0122812223E4
:10075000A9F03F3F69F4815D934A0E949F0AF82EF9
:10076000202F482F612F88E697E00E948D28F8827D
:10077000DF91CF911F910F91FF9008953F3F39F086
:10078000202F432F612F88E697E00E949D288FEF4E
:100790008883EECF80915004823141F128F4882380
:1007A00041F08C30A9F00895883171F18432D1F193
:1007B000089580915104882331F061E170E080E078
:1007C00090E00C948A2361E070E080E090E0F9CF43
:1007D00080915104882329F062E170E080E090E08C
:1007E000F0CF62E070E080E090E0EBCF80915104C8
:1007F000882329F064E170E080E090E0E2CF64E0DB
:1008000070E080E090E0DDCF80915104882329F0F2
:1008100068E170E080E090E0D4CF68E070E080E0D4
:1008200090E0CFCF80915104882329F060E670E0FA
:1008300080E090E0C6CF60E270E080E090E0C1CF61
:10084000FC01AB01E4338DE5F80780F4E932ADE556
:10085000FA0798F0EA52FD45DB0112968C91EA30D6
:10086000F105D8F5E454FB4C0C949D33CF0184532F
:100870009D458934910508F414C181E008958823C9
:10088000E1F30E949003109250040E94CA03F5CF36
:10089000882399F30E9490038CE080935004F5CF55
:1008A000882359F30E94900382E1F7CF882329F32C
:1008B0000E94900388E1F1CF8823F9F20E9490030F
:1008C00084E2EBCF8823C9F20E9485038091510412
:1008D00091E0892780935104D8CF882371F28091C9
:1008E0009B0590919C05A0919D05B0919E05883037
:1008F0009105A105B10559F0B8F483309105A10522
:10090000B10560F4892B8A2B8B2B09F4B6CF80912B
:100910009B040E944B0380939B04AFCF0497A105D7
:10092000B10509F0AACFF3CF8097A105B10509F071
:10093000A4CFEDCF882309F4A0CF80919B0590919F
:100940009C05A0919D05B0919E0588309105A1055B
:10095000B10559F0A8F483309105A105B10550F413
:10096000892B8A2B8B2B09F488CF80919B040E94C2
:100970005103D1CF0497A105B10509F07ECFF5CF82
:100980008097A105B10509F078CFEFCF882309F44E
:1009900074CF8091900291E08927809390026DCF6F
:1009A000882309F46ACF40919B0550919C05609182
:1009B0009D0570919E058091C605403A51056105DF
:1009C000710509F443C058F54439510561057105B5
:1009D000D1F0A0F441595109610971094230510522
:1009E0006105710580F01092910291E090939B0453
:1009F000806F8093C6059093510447CF48395105C5
:100A00006105710581F79091910221E029272093DA
:100A1000910290939B04992389F0806F10C0403E0F
:100A2000510561057105F9F69091910221E0922737
:100A300090939102992331F010929B048F708093D0
:100A4000C6051BCF9BE090939B04E7CF10929102C9
:100A50009BE090939B04806F8093C60581E03ACF22
:100A6000882309F40ACF20919C0481E02827209351
:100A70009C049091C7058091C805222351F090688D
:100A80009093C705887F8093C80583E08093920286
:100A9000F4CE9F779093C705887F8093C80582E046
:100AA000F5CF22E534E0BF01809192020E949503C8
:100AB000E4CEDF92EF92FF920F931F93CF93DF93D9
:100AC000182F062FF42E809190028823F9F0809140
:100AD0009B0429E0E22E811102C09CE0E92ED0E0C7
:100AE000C0E08CE0D82E80919B04FE01D89EE00DE2
:100AF000F11D1124EC5DFC4F80812F2D402F612FC3
:100B000090E00E9469102196CE1568F3DF91CF9195
:100B10001F910F91FF90EF90DF900895EF92FF9259
:100B20000F931F93CF93DF930E941918882351F1DD
:100B300080919B0590919C05A0919D05B0919E058B
:100B400089319105A105B10588F40097A105B1058A
:100B5000C9F00197A109B10988319105A105B10535
:100B600088F4FC01EA53FB4C0C949D3380369105CC
:100B7000A105B10509F4D6C060F48097A105B105BF
:100B800009F47FC0DF91CF911F910F91FF90EF90FB
:100B9000089580589109A109B109C1E0D0E08138D8
:100BA0009105A105B10570F729E143E360E0CE01AD
:100BB0000E9469102196C530D105B1F78091B80225
:100BC00029E143E360E090E00E9469108091BE0259
:100BD00029E143E360E090E00E9469108091C40243
:100BE00029E143E360E090E00E94691005EB12E028
:100BF0008DEFE82E82E0F82EE801899126E041E2AF
:100C00006BE290E00E9469108BA120E043E360E07A
:100C100090E00E9469108DA920E043E360E090E03D
:100C20000E946910F70181917F0120E043E360E0B9
:100C300090E00E946910F70183A120E043E363E3A1
:100C400090E00E946910F2E0C83BDF07B1F6F801BE
:100C500081A129E143E360E090E00E9469100A5F0E
:100C60001F4FF3E003301F0791F78CCF46E061E29E
:100C70008BE2DF91CF911F910F91FF90EF900C9439
:100C8000590540E063E383E30E945905C1E2D3E0E4
:100C9000899120E040E063E390E00E94691083E0E6
:100CA000C432D807A9F76ECF40E069E183E3E1CF12
:100CB00040E069E183E30E945905C9EDD2E00CED03
:100CC00012E0899120E040E063E390E00E94691027
:100CD0000C171D07B1F756CF40E069E183E30E948E
:100CE0005905CBEED2E0899120E040E063E390E04B
:100CF0000E946910E2E0CE3EDE07A9F743CF40E054
:100D000069E183E30E945905CDEFD2E0899120E0AB
:100D100040E063E390E00E946910F3E0C030DF0739
:100D2000A9F730CF40E069E183E30E945905C1E2B1
:100D3000D3E0899120E040E063E390E00E946910F5
:100D400083E0C432D807A9F71DCF40E063E380E019
:100D50000E945905C9EDD2E0899120E040E063E3AB
:100D600090E00E946910E2E0CC3DDE07A9F70ACFCF
:100D700040E063E380E00E945905CBEED2E0899128
:100D800020E040E063E390E00E946910F2E0CE3E94
:100D9000DF07A9F7F7CE40E063E380E00E94590542
:100DA000CDEFD2E0899120E040E063E390E00E9443
:100DB000691083E0C030D807A9F7E4CE811106C0DE
:100DC00089EA611101C08AEA0C94A01D089581E0AE
:100DD00008950C94200408950C94EB061F93CF9370
:100DE000DF9300D000D00F92CDB7DEB749835A838E
:100DF0006B833091440589819A8131111DC066232E
:100E0000B9F02223A9F00E942625182F682F898186
:100E10009A810E94D02469817A81812F0F900F904E
:100E20000F900F900F90DF91CF911F910C94AC0712
:100E30000E94FD24182FEFCF0E94262569817A8118
:100E4000EDCFFC01262F4081518162817381848125
:100E50000C94EE06CF93DF93D82FC92F60E00E9449
:100E600021076D2F7C2FDF91CF910C94EC060E940F
:100E700007280E940126811102C00E949A260E9422
:100E8000CB170C9470090C94730908950E94F91FF4
:100E90000E9445072FEF84E39CE021508040904062
:100EA000E1F700C000000C94EF270F931F93CF933E
:100EB000DF93EC0161E00E9421078C01BE010E94DA
:100EC000E906882389F1BE01C8010E94AE0A882381
:100ED00059F1BE01C8010E94571A882329F1BE01A9
:100EE000C8010E94AC1A8823F9F0BE01C8010E9413
:100EF0007F1B8823C9F0BE01C8010E9408198823FE
:100F000099F08A81882339F001158CE5180751F092
:100F10000F3D1C4579F0CE01DF91CF911F910F91CC
:100F20000C94E7060E94460780E0DF91CF911F9165
:100F30000F9108950E949A26F7CF08950C949D076B
:100F400081E008950C94A007CF93C82F0E949E07BC
:100F50008C2FCF910C94A207E72FF0E096E0899FA9
:100F6000E00DF11D112483E0EE0FFF1F8A95E1F7DC
:100F7000E60FF11DEE0FFF1FE455FF4F8591949191
:100F80000895CF93DF930E94AC070E949408EC0170
:100F9000811521E59207A8F5811530E5930708F042
:100FA00084C08F3B9105B8F4883A910508F072C06F
:100FB000853A910568F4049738F491E080E0219730
:100FC00009F090E0C92FD82FCE01DF91CF9108957D
:100FD000A497D064F9CF811540E2940758F48F3F6D
:100FE000910509F088F7805E9109089768F3D0E0D1
:100FF000C0E0EACF905481159041C8F7DF70D06A05
:10100000E3CF811539E5930768F5811548E5940725
:1010100008F078C0C11583E5D80750F4C11592E5F2
:10102000D90708F05EC0DC2FCC27C16FD06ACCCFC7
:10103000CE0193558F3F910509F0C8F6CE0183701C
:10104000992721E030E002C0220F331F8A95E2F792
:10105000C695C69590E2C99FE0011124C22BD32BFF
:10106000DA68B2CF81152AE5920708F450C090568D
:101070008115904208F0BBCF8D2F8F710E942C09F3
:1010800090E0982F882788279F719C012C2BE901DD
:10109000D0629ACFC85AD0E0CC0FDD1FCC54DC4FC1
:1010A0000990D881C02DD4648FCF54E09695879550
:1010B0005A95E1F783702C2F26952695237040E2F0
:1010C000249F90011124382B8C2F8370C1E0D0E035
:1010D00002C0CC0FDD1F8A95E2F7C22BD32BDC6850
:1010E00073CFCE018370992721E030E002C0220F38
:1010F000331F8A95E2F7C695C69580E2C89FE00146
:101100001124EBCFD82FCC27C06FD06A5DCF8F7062
:101110000E942C0934E0D695C7953A95E1F7CF7037
:10112000DC2FC82FD06950CF803E910599F1C8F4CB
:101130008133910509F476C048F48932910509F4A8
:101140006AC08A32910509F474C008958933910503
:10115000D1F082389105B9F08533910509F454C076
:101160000895843E910599F138F4823E9105F9F095
:10117000833E910509F10895863E910599F1873ED8
:101180009105B9F10895209166072370A1F080EED2
:1011900090E008952091660720FD52C030916707C6
:1011A00030FF09C024FF4FC090E080E004C02091D0
:1011B000660722FDF7CF08952091660722FD46C0FD
:1011C0003091670730FDE3CF24FFF5CFEDCF2091BD
:1011D000670721FFF0CF8091660784FDE5CF87EE9A
:1011E00090E008952091660723FFE5CF24FDDCCF32
:1011F000F6CF2091660723FD2CC03091670731FFA1
:10120000E3CF84EE90E008952091660725FFD3CFC9
:1012100089E290E008952091660725FFCCCF85E311
:1012200090E008952091660726FFC5CF8AE290E0FE
:1012300008952091660726FFBECF81E390E00895D0
:1012400089E390E0089583EE90E0089582EE90E0C7
:10125000089586EE90E008959091660792FF06C08B
:10126000282F28712830F9F4877F846093FF06C007
:10127000282F28712831F1F4877E84612091670737
:1012800020FF06C0382F38713830D9F4877F81604D
:1012900021FF06C0282F28712831D1F4877E816173
:1012A00094FD877E0895282F24712430F9F68B7FD2
:1012B0008860DCCF282F2471243101F78B7E886170
:1012C000DDCF382F3171313019F78E7F8860E0CF54
:1012D000282F2171213121F78E7E8861E1CF089579
:1012E0000C946F0908950C947209E82FF0E0E05413
:1012F000FA4F80810895089580EA8A95F1F708955C
:1013000000C008950C947C09F894E82FE295EF70E2
:10131000F0E041A18F7021E030E0B90102C0660F1A
:10132000771F8A95E2F7CB01962F9095942391A38E
:1013300092A1892B82A3789408950F931F93CF9342
:10134000DF9386EC0E94840987E90E94840986E67F
:101350000E94840984E90E94840980E90E9484092A
:1013600081E90E948409C2EED3E00AEE13E089917C
:101370000E9484090C171D07D1F7EAEBF5E0A0ECF9
:10138000B5E011921D9285E0E03CF807D1F786E0C8
:101390000E944B0ADF91CF911F910F910C94370758
:1013A000BF92CF92DF92EF92FF920F931F93CF9352
:1013B000DF930AEE13E0CAEBD5E0C12CD12CEE246A
:1013C000E394F12CF80181918F01F894E82FE295D4
:1013D000EF70F0E021A18F70A70102C0440F551FEC
:1013E0008A95E2F7CA01922F982B91A392A180953A
:1013F000892382A378940E948009E2EEF3E030E032
:1014000020E0B12C4191A42FA295AF70B0E090964E
:101410008C9190E04F7002C0959587954A95E2F7C0
:1014200080FD35C08E2D022E01C0880F0A94EAF788
:10143000B82A2F5F3F4F2830310521F7F801319747
:1014400080810E94840955E0C5120E94820988812A
:10145000B816F9F0B88281E0D82AC394219686E0C4
:10146000C812B0CF2D2D46E060EC75E08AEB95E018
:101470000E944C0A0E9443078D2DDF91CF911F914E
:101480000F91FF90EF90DF90CF90BF90089580E094
:10149000CFCF80E0E1CF0895FF920F931F93CF93BA
:1014A000DF93F82E092F162FD72FC42F222349F0B0
:1014B00081E080939F040E94692790939E0480930B
:1014C0009D0480919F048823A1F080919D049091B8
:1014D0009E040E949527069760F0EF2DF02FA12F14
:1014E000BD2FCE0FDF2FD11DEC17FD0741F4109259
:1014F0009F04DF91CF911F910F91FF9008958191EB
:101500008D93F2CF84E08093C6058FE78093C70563
:101510008091C805807880648093C805E4EAF4E08F
:101520008FEF819394E0EC3EF907D9F71092A30472
:101530001092A2041092A1041092A0040895909118
:10154000C605292F2F7095959595959595959F5240
:101550003CE0239F900D1124890F08950F931F9352
:10156000CF93DF9300D00F92CDB7DEB7DB01873783
:101570002CE59207B0F48F324CE59407D8F481E063
:101580008A838A810F900F900F90DF91CF911F91E6
:101590000F910895E252FB4C12962C912A830C94E1
:1015A0009D33FC01E757FC45E534F10598F341E034
:1015B0004A83E7CF2091C705322F331F3327331FCC
:1015C000E091C805E770EE0FE32BEB832F772983BB
:1015D0001296FC91FA8301ED080F10E00C551B4F99
:1015E000F8014081FA81FF2391F04F3F11F01A82F8
:1015F000C8CF0E949F0A8A832981482F6B8188E681
:1016000097E00E948D282A81F8012083F0CF4F3F78
:1016100031F029816B8188E697E00E949D288FEF49
:10162000F8018083AECF2A81222309F38757982FB0
:101630009F708091C605807F892B8093C605D7CF88
:101640004A814423A1F28091C605982F9F7079F2B8
:10165000915F9F70F0CF8A81882349F28091C605FF
:10166000982F9F70993018F69F5FF3CF2A8122231D
:1016700009F4BDCF8958982F9295907F8091C60527
:101680008F70DACF4A81442309F4B1CF8091C60527
:10169000982F9595959595959595803B0CF4A7CFAA
:1016A000915F9295907FECCF8A81882309F49FCF38
:1016B0008091C605282F2595259525952595803659
:1016C0000CF095CF91E0920F9295907F959595951E
:1016D00095959595392F3295307F8F70832B809318
:1016E000C60512160CF083CF97FF81CF2295207F7D
:1016F0008F70822BA2CF2A81222309F478CF8259BE
:101700009CE0899F902D11249F778091C705807858
:1017100015C04A81442309F46ACF8091C705982FE8
:101720009F7709F464CF80789F3721F48567809391
:10173000C7055DCF9D30D8F39D509F77892BF7CF9C
:101740008A81882309F453CF8091C705982F9F770A
:101750009F3709F44CCF933718F4935F9F77D7CF17
:101760008F67E5CF2A81222309F441CF8F599091C9
:10177000C70580FB97F99093C70586958770909170
:10178000C805987F892BB3C04A81442309F42FCF21
:101790002091C705322F331F3327331F9091C8057F
:1017A000892F8770880F832B815F382F3F7080FBD4
:1017B00027F92093C705832F8695987F982B9093C0
:1017C000C80515CF8A81882309F411CF2091C70558
:1017D000322F331F3327331F9091C805892F87700D
:1017E000880F832B8F5FE1CF2A81222309F4FFCE5C
:1017F0006091C705862F881F8827881F6091C805BC
:101800006770660F682B20E04BE788E697E00E9440
:101810007D28EDCE4A8120E041112FE76091C70578
:10182000862F881F8827881F6091C8056770660FFC
:10183000682B40E4EACF8A8120E081112FE7609194
:10184000C705862F881F8827881F6091C805677085
:10185000660F682B41E4D9CF2A8121112FE76091CF
:10186000C705862F881F8827881F6091C805677065
:10187000660F682B42E4C9CF4A81411111C020E0B4
:101880006091C705862F881F8827881F6091C8052B
:101890006770660F682B43E4B8CF8A81882379F399
:1018A0002FE7EECF2A818FEF211181E08093A204F0
:1018B0009ECE4A81442309F49ACE9091C805292FDF
:1018C0002695269526952F7081E0820F8F70880FC0
:1018D000880F880F9778892B8093C805982F987761
:1018E00009F085CE220F220F220F8778822B80935A
:1018F000C8057DCE8A81882309F479CE8091C805F8
:10190000982F987709F473CE982F9695969596957B
:10191000915F9F70990F990F990F877833CF6091DE
:10192000C705862F881F8827881F6091C8056770A4
:10193000660F682BEA8140E050EEE11117C050E0DD
:1019400040E088E697E00E94AD281BCE6091C70575
:10195000862F881F8827881F6091C8056770660FCB
:10196000682BFA81FF2359F34FEF5FE188E697E098
:101970000E94AD283CCE88E697E00E94AC2A809178
:10198000A0049091A1040E9495279C019091C80504
:101990009695969596959F709217130609F0A0F567
:1019A0000E9469279093A1048093A0048091A204CF
:1019B000882351F16091C705862F881F8827881FCB
:1019C0006091C8056770660F682B2091A30441E001
:1019D00088E697E00E947D288091A2049091A3045C
:1019E00087FF0DC0482F552741950CF4509594174B
:1019F00015062CF41092A3041092A2040895890FE6
:101A000087FD03C08093A30408958FE7FBCFCF9297
:101A1000DF92EF92FF920F931F93CF93DF93D62F16
:101A2000C72F982F711113C0442329F0E82FF0E03D
:101A3000E455FC4F9491692F792F892FDF91CF9135
:101A40001F910F91FF90EF90DF90CF900895272F77
:101A500030E0E82FF0E0442321F0E455FC4FE4911E
:101A6000F0E086E0D89F700111240FEF10E0C7016D
:101A7000B8010E9456338D2F90E0880F991FA5E57D
:101A8000A69FA001A79F500D1124841B950BD82E53
:101A9000DD0CD80EC801821B930B8E9FA0018F9F77
:101AA000500D9E9F500D1124952FDC9EE0011124B6
:101AB000CD2FDD27D801AC1BBD0BED01CE9FD00192
:101AC000CF9FB00DDE9FB00D11248B2FE801CD19F3
:101AD000D1096E01C29EE001C39ED00DD29ED00DF1
:101AE0001124CD2FDD270C1B1D0B0E9FE0010F9F36
:101AF000D00D1E9FD00D11242E2F63307105D9F00B
:101B00003CEFE31633E0F30668F461307105B9F099
:101B100062307105C1F0AFEFEA16F10448F4852F89
:101B20009D2F06C06430710589F066307105B9F3E8
:101B3000692F722F83CF9B2F8E2F252FF9CF9E2FAA
:101B40002B2F852FF5CF8D2F9E2FF7CF8E2F2D2F5B
:101B5000EFCF41E00C94070D9C0190E080E0269FC0
:101B6000812D369F800D911D112408959C01823096
:101B7000910508F408959FEF213E8EE1380740F467
:101B8000C90145E0969587954A95E1F798E0980F49
:101B900061E0E62FE90FFF27FF1FAF01559547953D
:101BA000842F449FF001459FF00DF00D11242E1756
:101BB0003F0738F49FEF940F961758F78FEF860F73
:101BC00008954F3FE9F361E0640FF6CF982FE82FB7
:101BD00096FDE0952E2F2F7096FD2F5FE695E695EA
:101BE000E695E670F0E0E051FC4F8181829F802D08
:101BF000212D112482958F702295207F822B2081A8
:101C0000820F97FD819580580895582FA22FE42FB9
:101C1000F0E0EE0FFF1FEC5CFE4F208134EE239FBF
:101C2000212D112490E030E0245E3F4F2A1B310922
:101C300037FF03C031952195310943E0220F331F4F
:101C40004A95E1F7821B930B97FD80E0282F259F93
:101C5000212D1124822F0895622F0895E42FF0E0A2
:101C6000EE0FFF1FEC5FFE4F61A9621B0895322F3C
:101C700050E0FA01EE0FFF1FEC5FFE4F91A990526A
:101C800097FD9195440F551FFA01EC5CFE4F2081A2
:101C9000231B330B290F311D97FD3A95620F0895D1
:101CA000EF920F93972F23E0029FB00111247595B7
:101CB00067956E0D792F0F91EF9008950F93CF9345
:101CC000DF93D72FC82FF90147FD41952EE330E070
:101CD000241B310947FD3395229FA001239F500DFE
:101CE000500D1124EE9FC001EF9F900D900D112417
:101CF000840F951F0E94B60D982F990F692F680FBA
:101D0000600F7D2F8C2FDF91CF910F9108950F934E
:101D10001F93522F10E0F801EE0FFF1FEC5FFE4FF4
:101D2000A1A9A052BB0B9D015203F001539FF00DDE
:101D30001124000F111FD801AC5CBE4F0C910C5741
:101D4000110B40039001419F300D11242E0F3F1FB6
:101D500037FF02C021583F4F220F232F221F330B82
:101D6000620F1F910F9108950F931F93522F10E050
:101D7000F801EE0FFF1FEC5FFE4FA1A9A052BB0BB5
:101D80009D015203F001539FF00D1124000F111F0C
:101D9000D801AC5CBE4F0C910C57110B4003900165
:101DA000419F300D11242E0F3F1F37FF02C0215CD1
:101DB0003F4F96E0359527959A95E1F7620F1F9171
:101DC0000F91089522E8241B08F420E0620F089583
:101DD000EF92FF920F93282FC70135E0039F800DEC
:101DE000911D11248F3F910519F010F08FEF90E0B5
:101DF0008095382F230F08F42FEF822F0F91FF903B
:101E0000EF900895EF92FF920F93972FFA01B90187
:101E10009701093430F4201B31092F3F310519F0A7
:101E200010F02FEF30E03896719740F0AB01485F2B
:101E30005F4F4131510510F02FEF30E02095382FE2
:101E4000320F08F43FEF77FF02C06D5F7F4F75954B
:101E50006795759567958091CB05680F792F832FCE
:101E60000F91FF90EF900895EF92FF920F93282F1C
:101E7000C701801B91098F3F910519F010F08FEF7A
:101E800090E0382F3095230F08F42FEF680F822F42
:101E90000F91FF90EF900895EF92FF920F93282FEC
:101EA000C701801B91098F3F910519F010F08FEF4A
:101EB00090E08095382F230F08F42FEF822F0F9199
:101EC000FF90EF900895EF92FF920F931F930E0DE6
:101ED0001F2D111D9A0157FF03C03195219531091E
:101EE00094E0220F331F9A95E1F72F3F310519F047
:101EF00014F02FEF30E0200F311F2F3F310519F084
:101F000010F02FEF30E02095382F320F08F43FEF1C
:101F1000832F1F910F91FF90EF900895FC019B017B
:101F2000009729F480E077FF2BC080E80895AC018A
:101F300097FF04C044275527481B590BB901640F6C
:101F4000751F37FD10C0241B350BC901A5E0880F94
:101F5000991FAA95E1F70E946A3380E2861BF7FF7A
:101F60000FC081950895CB0165E0880F991F6A9590
:101F7000E1F7BA01621B730B0E946A3380E6EECF71
:101F800008950F931F93CF93DF93D62FC72F182F4A
:101F9000BA01C901212F201B022F0E948E0F982FFA
:101FA000990F990F282F291B200F219F212D1124D4
:101FB0006D2F7C2F822FDF91CF911F910F9108956C
:101FC000EF920F931F93CF93DF93D62FC72F182F26
:101FD000BA01C9010E19010F0E948E0F081B019F43
:101FE000012D11246D2F7C2F802FDF91CF911F9118
:101FF0000F91EF9008950F93CF93DF93D72FC82FB2
:10200000BA01C9010E948E0F682F600F7D2F8C2F9F
:10201000DF91CF910F910895EF920F93CF93DF93BC
:10202000D72FC82FBA01C9010E190E948E0F602F39
:10203000681B7D2F8C2FDF91CF910F91EF9008952A
:102040000C94A90D45E050E06CE170E08AEC95E05D
:102050000C94463445E050E06CE170E08AEC95E089
:102060000C946434EAECF5E085E080838091B20260
:102070009091B302A091B40281839283A3838FE7EE
:1020800084830C942A1080E008950F931F93CF93BC
:10209000DF93C82FD62F8A010E94431098E0C99F72
:1020A000900111242C5F3E4F2D0F311DF9019081BD
:1020B0009F3F29F0F801E80FF11D90838F5FDF91BA
:1020C000CF911F910F910895E091FE03F091FF03CE
:1020D0000994E091FA03F091FB0309943F924F9227
:1020E0005F926F927F928F929F92AF92BF92CF92A8
:1020F000DF92EF92FF920F931F93CF93DF933C01F8
:102100002B01FC01C08188E1C89FC02D112418E17A
:102110001C0F312E153710F034E7332E6091CE05A9
:1021200066958091CF059091D0050E94AC0DF82E58
:10213000D0E0CE01880F991F9C012C5F3E4F6901B2
:10214000C315B0F081E0143708F080E0DF91CF9143
:102150001F910F91FF90EF90DF90CF90BF90AF90C5
:102160009F908F907F906F905F904F903F900895D9
:10217000FE01E45EFD4F8081F3019181892379F1B5
:10218000F60180A9282F2C57330B590181A9E82F7C
:10219000E052FF0B4F01AA9C9001AB9C300D300D1B
:1021A0001124EE9FC001EF9F900D900D1124820F1E
:1021B000931F0E94B60D082F6091CB057091CC053E
:1021C0008091CD05EF2C9401A501F20109950E94A3
:1021D0002010462F672F282FCE010E946910F2E0B1
:1021E000CF0ED11C2196ACCF60EE7FE00C946E1028
:1021F00060E57EE00C946E106CE070E10C946E1063
:102200008F929F92AF92BF92CF92DF92EF92FF9206
:102210000F931F93CF93DF936C015B01FC01C0818F
:1022200088E1C89FC02D112418E11C0F812E15379D
:1022300010F034E7832E6091CE0566958091CF052E
:102240009091D0050E94AC0D982ED0E0CE01880F61
:10225000991F9C012C5F3E4F7901C81588F081E0E1
:10226000143708F080E0DF91CF911F910F91FF901C
:10227000EF90DF90CF90BF90AF909F908F90089598
:10228000FE01E45EFD4F8081F60191818923C1F05A
:10229000F70121A92052330B40A94C57550B6091EF
:1022A000CB057091CC058091CD05092DF5010995DF
:1022B0000E942010462F672F282FCE010E94691000
:1022C000F2E0EF0EF11C2196C8CF61EC7FE00C9498
:1022D00000116EE57EE00C9400116BEF7FE00C9432
:1022E0000011BF92CF92DF92EF92FF920F931F9354
:1022F000CF93DF938C016B01FC01C08188E1C89F03
:10230000C02D112498E1F92EFC0EBF2CF4E7FF1527
:1023100010F484E7B82E6091CE056695669580919D
:10232000CF059091D0050E94AC0DE82ED0E0CB15E2
:1023300078F081E093E79F1508F480E0DF91CF917A
:102340001F910F91FF90EF90DF90CF90BF90089575
:10235000FE01E45EFD4F8081F8019181892391F0B7
:102360006091CB057091CC058091CD052E2D4C2F21
:10237000F60109950E942010462F672F282FCE01C5
:102380000E9469102196D3CF65E07EE00C94711114
:102390006CE27EE00C9471116EE27EE00C9471119F
:1023A00067E37EE00C9471119F92AF92BF92CF923F
:1023B000DF92EF92FF920F931F93CF93DF9300D0A2
:1023C00000D00F92CDB7DEB76C015B01FC01F0814C
:1023D00088E1F89F802D11248B8398E1F92EF80E67
:1023E0009F2C84E78F1510F484E7982E6091CE051A
:1023F000669566958091CF059091D0050E94AC0DB1
:10240000182F80E4810F0E94E60D80588983812F68
:102410000E94E60D80588A83FB81EF2FF0E0FD8358
:10242000EC839C819915B0F081E0E3E7EF1508F4A7
:1024300080E00F900F900F900F900F90DF91CF9151
:102440001F910F91FF90EF90DF90CF90BF90AF90D2
:102450009F900895EC81FD81E45EFD4F8081F6013F
:1024600091818923A9F06091CB057091CC05809171
:10247000CD05E12E0C812A814981F50109950E9443
:102480002010462F672F282F8C819D810E94691074
:102490008C819D8101969D838C83C3CF67E87EE00C
:1024A0000C94D41164EB7EE00C94D411AF92BF92E3
:1024B000CF92DF92EF92FF920F931F93CF93DF9310
:1024C0007C016B01FC01C08188E1C89FC02D1124F3
:1024D00028E1B22EBC0EAB2CF4E7FB1510F494E708
:1024E000A92E2091CE0530E050E040E06FEF7FEF65
:1024F00080E090E00E947E338901D0E02C2FCA1545
:1025000080F081E0F3E7FB1508F480E0DF91CF91E4
:102510001F910F91FF90EF90DF90CF90BF90AF9001
:102520000895FE01E45EFD4F8081F70191818923CA
:10253000F1F04091D3054150042E000C550B47FF9C
:1025400018C0C8016091CE050E94AC0DAC0160912D
:10255000CB057091CC058091CD05F60109950E94BF
:102560002010462F672F282FCE010E946910219638
:10257000C5CFFA01ED52FA4F858982130AC0FA01DC
:10258000EE0FFF1FED52FA4F878D90A18017910734
:10259000C8F241505109D3CF62EE7EE00C9456123E
:1025A0002F923F924F925F926F927F928F929F9263
:1025B000AF92BF92CF92DF92EF92FF920F931F9351
:1025C000CF93DF93CDB7DEB72B970FB6F894DEBF6E
:1025D0000FBECDBF8E832B014B835C83FB01F0814B
:1025E00088E1F89F802D11248983885E8A838D83FA
:1025F000853710F024E72D833091D3053F839981EF
:10260000892F90E09B878A87880F991FFC01EC5FD8
:10261000FE4F6F01FE818F2F90E09C012F5F3F4F97
:1026200039872887ED81FA85FE17F0F081E02A814D
:10263000243708F080E02B960FB6F894DEBF0FBE6B
:10264000CDBFDF91CF911F910F91FF90EF90DF9061
:10265000CF90BF90AF909F908F907F906F905F9042
:102660004F903F902F900895EA85FB85E45EFD4FE3
:102670008081F2019181892301F12090CB05309076
:10268000CC05288539852D523A4F39013E81398351
:1026900010E029813F812317C8F02091CD05129FBA
:1026A000112D1124B101812F0E942010462F672F78
:1026B000282F8A859B850E9469108A859B850196B3
:1026C0009B878A8792E0C90ED11CACCFF301819120
:1026D0003F01F601A0A8A81ABB0881A8F3018185D3
:1026E000881A9908AA9C9001AB9C300D300D1124DA
:1026F000889CC001899C900D900D1124820F931F1E
:102700000E94B60D082FF301EE0FFF1FE35DF540A9
:102710006091CE05838D948D0E94AC0D7C01940157
:10272000A501B101812FEB81FC8109951B01182FB7
:10273000F981FF5FF983ADCFBC0148EE5EE080E038
:102740000C94D012BC0142E05FE080E00C94D01207
:10275000BC0144E35FE080E00C94D012BC014CE487
:102760005FE080E00C94D012BC0143E65FE080E0C3
:102770000C94D012BF92CF92DF92EF92FF920F9300
:102780001F93CF93DF938C01FC01C08188E1C89F28
:10279000C02D112498E1F92EFC0EBF2CF4E7FF1593
:1027A00010F484E7B82E6091CB057091CC05809130
:1027B000CD050E942010E62ED72EC82ED0E0CB15D6
:1027C00078F081E093E79F1508F480E0DF91CF91E6
:1027D0001F910F91FF90EF90DF90CF90BF900895E1
:1027E000FE01E45EFD4F8081F8019181892331F083
:1027F0002C2D4E2D6D2DCE010E9469102196DFCF1C
:10280000DF92EF92FF920F931F93CF93DF93EC0130
:10281000FC01E45EFD4F8081682381F1D090CC05FE
:102820000091CD051091CB05E12EF12C0E942D34A5
:10283000282FC7018C549F4F68E671E00E946A33CD
:102840008E199F0997FD0396959587959595879580
:102850002370612F289F600D11247D2D802F0E94F1
:102860002010462F672F282FCE01DF91CF911F9187
:102870000F91FF90EF90DF900C946910DF91CF9152
:102880001F910F91FF90EF90DF900895DF92EF92EC
:10289000FF920F931F93CF93DF938C01FC01C281B2
:1028A000C11125C06091CE0520E1620F08F46FEFE1
:1028B0008091CF059091D0050E94AC0D6AE070E048
:1028C0000E945633892B51F40E942D3464E770E046
:1028D0000E946A33F80161810E9400148C2FDF91FD
:1028E000CF911F910F91FF90EF90DF900895C081DD
:1028F00088E1C89FC02D112488E1D82EDC0E8D2DD3
:10290000F4E7FD1508F484E7D0E0E82EF12CCE15AD
:10291000DF0534F0C1E0F3E7FD1500F7C0E0DECFDE
:10292000F8016181CE010E9400142196F0CF1F931F
:10293000CF93DF93EC01FC01E45EFD4F80816823BF
:10294000A1F00E942D34182F0E942D34782F612F72
:102950008091CD050E942010462F672F282FCE0191
:10296000DF91CF911F910C946910DF91CF911F914E
:102970000895DF92EF92FF920F931F93CF93DF930F
:102980008C01FC01C281C11125C06091CE0520E1FE
:10299000620F08F46FEF8091CF059091D0050E94EF
:1029A000AC0D65E070E00E945633892B51F40E9413
:1029B0002D3464E770E00E946A33F80161810E945F
:1029C00097148C2FDF91CF911F910F91FF90EF9073
:1029D000DF900895C08188E1C89FC02D112488E14F
:1029E000D82EDC0E8D2DF4E7FD1508F484E7D0E039
:1029F000E82EF12CCE15DF0534F0C1E0F3E7FD152C
:102A000000F7C0E0DECFF8016181CE010E9497148B
:102A10002196F0CF6F927F928F929F92AF92BF924A
:102A2000CF92DF92EF92FF920F931F93CF93DF939A
:102A30006C01FC01C08188E1C89FC02D112448E1D0
:102A4000B42EBC0EAB2CF4E7FB1510F434E7A32E28
:102A50002091CE0530E050E040E06FEF7FEF80E066
:102A600090E00E947E337901D0E08E01000F111FAB
:102A70000C5F1E4F22E8922ECA15A0F081E093E76A
:102A80009B1508F480E0DF91CF911F910F91FF908B
:102A9000EF90DF90CF90BF90AF909F908F907F90FE
:102AA0006F900895FE01E45EFD4F8081F6019181F3
:102AB000892319F16090CC057090CD058090CB05ED
:102AC0004091D3054150042E000C550B47FF19C00F
:102AD000C7016091CE050E94AC0D692D282F621BA5
:102AE00008F460E0680D762D872D0E942010462F97
:102AF000672F282FCE010E94691021960E5F1F4F6D
:102B0000BBCFFA01ED52FA4F9181F80180A99813D9
:102B10000AC0FA01EE0FFF1FED52FA4F878D90A108
:102B20008E159F05B0F241505109D0CFE091FC03C2
:102B3000F091FD030994CF92DF92EF92FF920F93F1
:102B40001F93CF93DF93CDB7DEB72A970FB6F894D4
:102B5000DEBF0FBECDBF182F062FF42E0E942E1CF5
:102B6000882309F44BC0FF2009F457C0AE014F5F22
:102B70005F4F602F812F0E944510F82EE090EC04EB
:102B80000F2D10E0C8018E0D911D0B9764F18AE0A6
:102B900090E06C01C01AD10AB80163517B4FA601C5
:102BA0008DEE94E00E943D34B80169507B4FA60140
:102BB00087EF94E00E943D34A601440F551FB801F1
:102BC000660F771F655F7A4F8BE095E00E943D347A
:102BD000B8016F5F7A4FA60181E095E00E943D3415
:102BE000EA94E092EC041091EC04DE01119680E08E
:102BF000282F210FF81213C02093EC042A960FB649
:102C0000F894DEBF0FBECDBFDF91CF911F910F9122
:102C1000FF90EF90DF90CF900895F12CAFCF9D9172
:102C2000492F50E030E0B90164517B4FFA01EE0FBB
:102C3000FF1FEC5CFE4F0081FB010183440F551F19
:102C4000FA01EC5FFE4F41A9FB014387958B220FF0
:102C5000331FF901E451FB4F10A2178E8F5FC8CFCD
:102C600008950E9430160C948E0508950895CF9310
:102C7000DF93FC01C08188E1C89FC02D1124D8EEEC
:102C8000DC0FC53708F0C4E76C2F8D2F0E94351676
:102C90006C2F8D2FDF91CF910C9436164F925F924F
:102CA0006F927F928F929F92AF92BF92CF92DF925C
:102CB000EF92FF92CF93DF9300D000D0CDB7DEB775
:102CC00080911F0590912005A0912105B0912205CA
:102CD00089839A83AB83BC83BC01CD010E94A42766
:102CE0006B017C010E94752760931F05709320057E
:102CF0008093210590932205A091EC04ECEEF4E082
:102D00002A2F30E088248A94982CA12CB12C8C187E
:102D10009D08AE08BF08A3132FC02093EC04209198
:102D2000230521113CC02091CA05A22FA370A983BD
:102D3000AA2319F026952695298320919302223003
:102D400009F408C170F5211142C0109294026093F9
:102D5000CF057093D0058093D1059093D20583E37E
:102D6000ECEEF4E0A3EDB5E001900D928A95E1F769
:102D700081E08093930218C0478D50A12A01712CE5
:102D8000612C84149504A604B70420F421503F5FFD
:102D90003296C1CF4C0D5D1D50A3478FF8CF1982DD
:102DA000CCCF233009F4E2C00F900F900F900F901A
:102DB000DF91CF91FF90EF90DF90CF90BF90AF90D9
:102DC0009F908F907F906F905F904F90089580912B
:102DD0009702B981B81317C09091CA0593702091DA
:102DE000980230E081E09217130609F480E08170C8
:102DF000809396023981373178F4E32FF0E0ED5D6E
:102E0000FA4C0C949D3381E0F2CF882359F040E0D6
:102E100060E080E00E94961580E004C084E992E0C2
:102E20000E94BA13909194029F5F90939402811133
:102E30008CC082E08093930280919602811185C0BC
:102E40008981882309F490C00E94311684E992E0B8
:102E50000F900F900F900F90DF91CF91FF90EF9018
:102E6000DF90CF90BF90AF909F908F907F906F90AA
:102E70005F904F900C94371684E992E00E94C41141
:102E8000D1CF84E992E00E946511CCCF84E992E031
:102E90000E94F410C7CF84E992E00E94C811C2CF0B
:102EA00084E992E00E94CC11BDCF84E992E00E94B7
:102EB000D011B8CF84E992E00E94F810B3CF84E932
:102EC00092E00E946911AECF84E992E00E946D11F8
:102ED000A9CF84E992E00E94FC10A4CF84E992E09B
:102EE0000E944E129FCF84E992E00E9452129ACF24
:102EF00084E992E00E94461495CF84E992E00E9412
:102F0000B91490CF84E992E00E94CC128BCF84E96F
:102F100092E00E949C1386CF84E992E00E94A21363
:102F200081CF84E992E00E94A8137CCF84E992E0EB
:102F30000E94AE1377CF84E992E00E94B41372CF5F
:102F400084E992E00E940A156DCF9981992309F4D2
:102F50002BCF7ACFA981A09397028091CA05837065
:102F6000809398020E94641083E003CF8091CF0584
:102F70009091D005A091D105B091D205BC01CD01B1
:102F80000E94A427603171058105910508F40CCFDA
:102F90001092930209CFE091F803F091F90309959B
:102FA0001092D305E2EFF5E08FEF9FEF81939193BD
:102FB00026E0E630F207D1F71092EC04EBE0F5E002
:102FC0008FEF9FEF8193919325E0EF31F207D1F7D7
:102FD0000E940126811104C00E949A260E9432108C
:102FE0000E9422108091CA058C7F11F40C9432103B
:102FF00008959091CA0521E092279093CA051092F6
:10300000930281110C942A10089581E00C94F91711
:103010008091CA05837011F4109293028091CA05C1
:103020008C7F81608093CA0508950E9408180C94D3
:103030002A108091CA05837008959091CA059370F3
:1030400099F0811109C094609093CA05109293027F
:10305000662351F00C942A10873110F09865F4CF54
:10306000880F880F982BF0CF089561E00C941D18FD
:10307000682F8091CA05869586958F5F873108F005
:1030800081E00C941D1881E00C943818682F909101
:10309000CA05969596958FEF890F913009F486E1D0
:1030A0000C941D1881E00C9446189091CA059370F9
:1030B00061F08093CB056093CC05433308F042E385
:1030C0004093CD0521110C942A10089521E00C9411
:1030D0005518282FEAECF5E09181892F90E0438183
:1030E000628108960C94551881E00C946918282F79
:1030F000EAECF5E08181438162818850990B0C9460
:10310000551881E00C947718282FEAECF5E06281DD
:1031100030E1630F08F46FEF8181438190E00C94FC
:10312000551881E00C948418282FEAECF5E06281B0
:1031300030E1631B08F460E08181438190E00C94EE
:10314000551881E00C949418282FEAECF5E043819F
:1031500030E1430F08F44FEF8181628190E00C94DD
:10316000551881E00C94A418282FEAECF5E043816F
:1031700030E1431B08F440E08181628190E00C94CF
:10318000551881E00C94B4188093CE050C942A1045
:103190002091CE0530E1230F08F42FEF2093CE05C8
:1031A00081110C942A10089581E00C94C818209184
:1031B000CE0530E1231B08F420E02093CE058111D9
:1031C0000C942A10089581E00C94D7180895FC01FE
:1031D000EE0FFF1FE80FF91FEA5FF94F618340838D
:1031E00022830895E6E0F6E081836083428333968C
:1031F00097E0E236F907C1F7089564E770E086E0EA
:1032000096E00C946219FA0181110994FB01FDCF3B
:103210000F931F93CF938C01FB01C281CC2309F440
:103220004FC00E94D1258272F801E35CFC45E43175
:10323000F10538F4E65CFA4C0C949D330E940518B5
:10324000C0E08C2FCF911F910F91089542E558E176
:1032500063E478E10E940319F3CF43E458E162E5A7
:1032600078E1F8CF41E858E164E778E1F3CF44E74B
:1032700058E161E878E1EECF41EA58E161E978E1AF
:10328000E9CF41E958E161EA78E1E4CF41EC58E166
:1032900061EB78E1DFCF41EB58E161EC78E1DACF27
:1032A00043EE58E164ED78E1D5CF44ED58E163EEAB
:1032B00078E1D0CF81E00E943518C2CF8AE0FBCF01
:1032C000C1E0BFCF9C01AB01539A6BB1677F7BB16B
:1032D0007860EFB7F894CA01880F991F840F951F83
:1032E000820F931F8217930741F4EFBF8FE594E09D
:1032F0000197F1F700C000000895D9014D919D019B
:1033000058E07BB9000000C047FF6BB9440F0000D4
:1033100000C000C000C06BB900C05A9591F7E2CF61
:103320000C94DE0625982D9A24982C9A83B185FB5F
:10333000882780F91C9905C090E0892B8093260589
:10334000089592E0FACFE0912605EE0FEE0FE0939C
:10335000260543B145FB882780F943B144FB22276A
:1033600020F944FF02C022E030E0822BE82BE093FA
:103370002605EF70F0E0E050FC4F8081909125052C
:10338000890F8093250520E0843054F08091240536
:103390008F5F8093240560E080E00E94901921E017
:1033A000809125058D3F54F48091240581508093B0
:1033B000240561E080E00E94901921E080912505BC
:1033C000082E000C990B64E070E00E946A33809331
:1033D0002505822F08950F931F93CF93DF93C42F5A
:1033E000D22FFC0182818823C9F0409329050E94D5
:1033F0006927909328058093270580E28C0F8830F9
:1034000008F050C0C77081E001C0880FCA95EAF784
:10341000DF91CF911F910F910C94A81D1091290558
:10342000141335C080912705909128050E94952797
:10343000883C910560F5C0E2CD0F1D17B9F080E220
:10344000810F883040F4177081E001C0880F1A9511
:10345000EAF70E94AF1DC83048F481E09D2F9770B5
:1034600001C0880F9A95EAF70E94A81D802F0E943C
:10347000A01DC830B8F4D77081E001C0880FDA957C
:10348000EAF7DF91CF911F910F910C94AF1D80E26D
:103490008C0F883038F4C77081E001C0880FCA955E
:1034A000EAF7EFCFDF91CF911F910F9108950F931E
:1034B0009C01CB01243F4CE53407A1F190F4293D58
:1034C000FCE53F0749F12A3D4CE53407E9F1283D89
:1034D0003C45C1F0FC0182818823E1F1109229056D
:1034E00019C0263FFCE53F0719F1273F4CE534079B
:1034F00029F1253F3C4571F707E225EE44EE65EFE3
:103500007CE505C006E221EE41EE68ED7CE50E9417
:10351000EB1980E00F91089507E225EE45EE69ED85
:103520007CE5F5CF06E221EE40EE64EF7CE5EFCFDF
:1035300006E221EE42EE66EF7CE5E9CF07E225EEFA
:1035400046EE67EF7CE5E3CF08E221E045EE6AED69
:103550007CE5DDCF81E0DECFCF93DF93EC01FB0193
:103560008281882309F4C9C0C631FCE5DF07E0F495
:10357000C2309CE5D907F0F00E94142690936707AB
:1035800080936607C631ECE5DE0720F5C230FCE526
:10359000DF0798F480916607909167070E942226C2
:1035A0000E94F91F80E006C09E012B5F3C45293038
:1035B000310510F3DF91CF910895FE01E350FC45F2
:1035C000809166078160E331F10588F4E25BFA4C93
:1035D0000C949D33CB5FDC45C930D105D8F6CF596B
:1035E000DA4CFE010C949D338091660782608093D3
:1035F0006607D0CF809166078460F9CF8091660717
:103600008860F5CF80916707816080936707C2CF9C
:10361000809167078260F9CF809166078061E7CF6C
:10362000809166078062E3CF809166078064DFCF78
:103630000E94F91F809166078068D9CF8091660744
:103640008C60D5CF809167078360DFCF809166075C
:103650008E7FCDCF809166078D7FC9CF8091660721
:103660008B7FC5CF80916607877FC1CF8091670729
:103670008E7FCBCF809167078D7FC7CF8091660704
:103680008F7EB5CF809166078F7DB1CF8091660721
:103690008F7BADCF0E94F91F809166078F77A7CFF0
:1036A00080916607837FA3CF809167078C7FADCF22
:1036B0008091660782FB992790F921E0922790FB81
:1036C00082F990FB83F993CF80916707982F9095AB
:1036D00091708E7F892B90FB81F997CF0E94F91F03
:1036E00090916607892F97FB87F9805880CF81E0FA
:1036F0000E949C264FCF80E0FBCF81E05BCFCF9331
:10370000DF93EB0186319C4511F50E94D1259A810A
:10371000992399F08A7A91E009F490E090932A0530
:10372000811109C089E20E949E250E94B22580E095
:10373000DF91CF91089585E3F6CF80912A0581111D
:1037400004C089E20E94A525F0CF85E3FBCF81E08C
:10375000EFCF9093300580932F050895E0912F05CA
:10376000F0913005309721F00190F081E02D09941F
:1037700080E00895E0912F05F0913005309721F019
:103780000280F381E02D0994089520912D05309158
:103790002E052817390771F090932E0580932D057B
:1037A000E0912F05F0913005309721F00680F781E8
:1037B000E02D0994089520912B0530912C052817B0
:1037C000390771F090932C0580932B05E0912F051C
:1037D000F0913005309721F00084F185E02D0994B7
:1037E00008950E947527609340057093410580936A
:1037F00042059093430560933C0570933D0580938B
:103800003E0590933F0508950E94752760934005FB
:10381000709341058093420590934305609338056A
:103820007093390580933A0590933B05089585B7C9
:10383000806885BF85B7806885BF0895089508951D
:103840000C941E1C0C9465030E94171C89EF95E2D2
:103850000E9400280E941F1C0C94201C81E00895E7
:103860000C942E1C089508950E9460270E949D09C3
:103870000E941B280E9492190C94221CAF92BF92A6
:10388000CF92DF92EF92FF920F931F93CF93DF932C
:1038900000D000D00F92CDB7DEB70E94321C0E943C
:1038A000331C0E94D00981110E94F11B82E3A82ED3
:1038B00085E0B82E10E000E0C02E802F0E94750930
:1038C000F82EF501E1905F01E81216C00F5F1F4F5F
:1038D0000630110589F78FEF89838A831B820E9446
:1038E00069278160782F9D838C8349815A816B8100
:1038F0008D810E94E81C32C08091AE0581FD0E943E
:103900007B098E2D8F25E12CDD24D394982F9D21CA
:1039100009F448C00E94301CFD20BB24B394F11070
:1039200001C0B12C882379F0E982CA82BB820E944F
:1039300069278160782F9D838C8349815A816B81AF
:103940008D810E94E81CF801EE5CFA4F8081D82638
:10395000D0824B2D6E2D8C2D0E949B150E944E16F1
:103960000E94A31981110E94041C0E94BB0C0E949A
:10397000AE1B909131058917D9F00E94AE1B809340
:1039800031050F900F900F900F900F90DF91CF9116
:103990001F910F91FF90EF90DF90CF90BF90AF906D
:1039A0000C94A407E394DD0CF8E0EF12AFCF8ECFB8
:1039B0000F900F900F900F900F90DF91CF911F916C
:1039C0000F91FF90EF90DF90CF90BF90AF90089550
:1039D000DF92EF92FF920F931F93CF93DF93CDB7B8
:1039E000DEB72B970FB6F894DEBF0FBECDBF7A8738
:1039F0008B87F42E052F162FE72ED82E61110E94EB
:103A0000F3257E2DEC82DD824F2D502F612F8D2DE1
:103A100090E02B960FB6F894DEBF0FBECDBFDF91BE
:103A2000CF911F910F91FF90EF90DF900C945C224B
:103A3000FC01808191810C946825CF93C82F882345
:103A4000F1F18CEF8C0F813AA0F46C2F80919902E8
:103A500090919A020E94A126882329F08C2F0E941F
:103A6000A5250E94B2258C2F0E949E25CF910C94F3
:103A7000B22580E28C0F883048F4C77081E001C025
:103A8000880FCA95EAF70E94D425F0CF8BE58C0FFA
:103A9000833038F42C2F2452330BC901CF910C946E
:103AA000C51BC85AC73158F4EC2FF0E0EE0FFF1FCA
:103AB000E05FFB4F80819181CF910C94DB1BCF9114
:103AC0000895882329F19CEF980F913A20F40E94E1
:103AD000A5250C94B22590E2980F983050F4877089
:103AE00091E001C0990F8A95EAF7892F0E94DA25A3
:103AF000F0CF9BE5980F933020F490E080E00C9499
:103B0000C51B885A873120F490E080E00C94DB1BC1
:103B100008951F93CF93DF93182FEB010E941D1D73
:103B2000209731F4812FDF91CF911F910C94611D6B
:103B30008FE99FE00197F1F700C000002197F0CFD7
:103B40006AE070E0893311F460E570E00C94891D3F
:103B5000882321F00E94D4250C94B225089588234F
:103B600021F00E94DA250C94B22508958F929F923D
:103B7000AF92BF92CF92DF92EF92FF921F93CF93BB
:103B8000DF9300D000D00F92CDB7DEB7FC01698380
:103B9000972F2281358132953F70172F12951F7014
:103BA000183009F4C1C0C0F51430C0F4872F8F70ED
:103BB0008D83907F123008F441C08D81903211F0D6
:103BC0008295807F9981913009F076C0222309F493
:103BD0006DC0363030F40E94A81D03C0143009F4C3
:103BE00089C0212F2850330B2430310508F0ABC198
:103BF0000E94AE1B0F900F900F900F900F90DF91CF
:103C0000CF911F91FF90EF90DF90CF90BF90AF903A
:103C10009F908F900C94A407193009F43FC186E05F
:103C2000810F8F708230E8F68981823F09F046C1AA
:103C3000872F8F71222309F46BC13DC1992329F08D
:103C40008D80829480EF88228D822223B9F09D801E
:103C5000992061F08981805E883018F0A980A110D8
:103C600009C08D810E94D4250E94B22589810E94BD
:103C70001D1DB7CF8D810E94E525F6CF89810E9459
:103C8000611DBD80BB2009F4ACCF8981805E883086
:103C900018F08980811006C08D810E94DA250E946B
:103CA000B2259FCF8D810E94EB25F9CF353008F0EA
:103CB00098CF0E94AF1D95CF222349F0332309F4FA
:103CC0008ACF958190FFD2CF9F70958384CF332385
:103CD00081F32981293309F02EC13FEF87EE93E06C
:103CE000315080409040E1F700C0000089810E947F
:103CF000611D77CF872F86958695837061F081301F
:103D000009F06FCF89819370211102C090E080E0AB
:103D10000E94DB1B66CF89819370211102C090E065
:103D200080E00E94C51B5DCF872F837009F058C0CB
:103D3000211157CF2981229526952770220F220F16
:103D400089818F70C82ED12CF12CE12C022E04C059
:103D5000CC0CDD1CEE1CFF1C0A94D2F7898040E0DD
:103D600050E0BA0184FE0FC04FE050E060E070E028
:103D700004C0440F551F661F771F2A95D2F7409540
:103D80005095609570959695969593704A015B0154
:103D90008C289D28AE28BF2889829A82AB82BC825B
:103DA000923081F09330A9F0913029F0C501B4012F
:103DB0000E94362316CF69817A818B819C810E9473
:103DC0000E230FCF69817A818B819C810E945E23B3
:103DD00008CF69817A818B819C810E940C2301CF5D
:103DE0008695222311F0872F8170882309F4F9CE5C
:103DF0002981229526952770220F220F89818F70A5
:103E0000C82ED12CF12CE12C022E04C0CC0CDD1CD0
:103E1000EE1CFF1C0A94D2F7998040E050E0BA01F2
:103E200094FE0FC04FE050E060E070E004C0440F2B
:103E3000551F661F771F2A95D2F7409550956095BC
:103E400070959695969593704A015B018C289D28F4
:103E5000AE28BF2889829A82AB82BC82923081F0E0
:103E60009330A9F0913029F0C501B4010E947F245C
:103E7000B8CE69817A818B819C810E945724B1CE12
:103E800069817A818B819C810E94A724AACE698155
:103E90007A818B819C810E948A23A3CE9F709D830F
:103EA000222329F0892F0E94C023898194CE898101
:103EB0000E94AF1D8D810E94F12393CE8981833FA3
:103EC00058F4803F99F0813FF9F0222339F1311104
:103ED000CDCE892F8F711CC08981833FB1F72223FA
:103EE000D1F0872F8F710E949B237BCE222341F03C
:103EF000353008F076CE892F8F710E94262471CE3E
:103F0000363008F06ECEF7CF872F8F71222399F2CB
:103F10000E94C02366CE0E94962363CE332381F095
:103F20009981993341F42FEF37EE83E021503040EF
:103F30008040E1F7D9CE8FE39CE90197F1F7D4CE29
:103F4000892F8F71B8CF0F900F900F900F900F9017
:103F5000DF91CF911F91FF90EF90DF90CF90BF90B6
:103F6000AF909F908F9008950F931F93CF93DF93FF
:103F7000EC01688179818A810E9474258C010E94FC
:103F8000CF240E940B23B801CE01DF91CF911F9166
:103F90000F910C94B61DCF93DF93EC018B819C8124
:103FA000892B29F08881998189238F3F19F4DF912A
:103FB000CF910895CE010E9455078823C1F3CE0109
:103FC0000E94B41FCE01DF91CF910C942A0790E09C
:103FD00080E00E94C51B90E080E00E94DB1B0E94F5
:103FE000F3250E94F6250C94B2250E94AC250C9472
:103FF000E71F0E94E2250C94F51F282F892F829538
:104000008F70903C80F48A30B0F4843020F4823099
:1040100090F480E008958630E1F781E0283E88F052
:10402000213FB9F70EC08C3011F08F3091F793FB20
:10403000882780F9089581E0203F39F018F4283E60
:1040400040F70895243F29F7FCCF08950E94682582
:104050000C94FD1FCF93DF9300D000D00F92CDB70B
:10406000DEB70F900F900F900F900F90DF91CF91D0
:104070000895CF93DF9300D000D000D0CDB7DEB746
:1040800026960FB6F894DEBF0FBECDBFDF91CF915D
:1040900008951F93CF93DF93E091450516E080913B
:1040A00046058E1304C0DF91CF911F910895CE2F46
:1040B000D0E01E9FF0011124E95BFA4F408151814D
:1040C00062817381848195810E943920FE0131963D
:1040D000E770E5CF409177055091780560917905BB
:1040E00070917A0580917B0590917C050C94392024
:1040F0001F93CF93DF9380917C05807FA9F48091FB
:104100007905882389F080914505C0914605609125
:10411000770570917805A0917A05B0917B05D62F2F
:10412000D72316E0C81304C0DF91CF911F910895E3
:1041300090E0109711F0DF3F19F401968770F2CFED
:10414000189F9001199F300D1124F901E95BFA4F76
:1041500041814713F2CF40814613EFCF4281411195
:10416000ECCF438154814A1B5B0B483C510528F737
:1041700080917C058F70806180937C05F901E45B00
:10418000FA4F80818F708061808387E795E00E947D
:10419000CB1FDF91CF911F910C944920AF92BF921A
:1041A000CF92DF92EF92FF920F931F93CF93DF9303
:1041B000CDB7DEB72B970FB6F894DEBF0FBECDBFDD
:1041C0008C0185E0F801DE01179601900D928A9529
:1041D000E1F7F80140815181E28087E7C82E85E050
:1041E000D82E60917A0570917B056115710509F4EF
:1041F00044C19091770520917805822F89238F3FC4
:1042000009F43BC1A380B480F0907905F501E61B69
:10421000F70BFF2009F4E0C080917C05382F307F38
:10422000E83CF10508F0B2C0311179C0FE2C25132D
:1042300023C0941321C0E1101FC08F708061809350
:104240007C050E946A20C6010E94CB1F80917C05DC
:10425000F80185838F2D2B960FB6F894DEBF0FBE25
:10426000CDBFDF91CF911F910F91FF90EF90DF9025
:10427000CF90BF90AF900895AB2829F0842F85236D
:104280008F3F09F016C180E0F82FF170DF2EE0912A
:1042900045052091460536E080FD1CC0EE20D1F298
:1042A00080917C05816080937C05F12CD3CF8E2F8B
:1042B00090E03E9FF0011124E95BFA4F61816513A4
:1042C00006C06081641303C06281E612E7CFFC017F
:1042D0003196E770E213EBCF4F8358878F81988533
:1042E0000E946825292F22952F70903260F0225F5E
:1042F0002F70223078F49F7051F0F8019581907FF3
:1043000031F4D12C0AC09F7011F08823D1F3805E64
:104310008830B8F3C8010E94CB1FFD2C9BCF25131A
:1043200006C0941304C0F801EE2009F470C04F8356
:1043300058878F8198850E942620882319F1EE20C6
:1043400009F180917C05803270F0209177053091E1
:1043500078053A8329831B82BD82AC828E83CE018D
:1043600001960E94CB1F86E0F801A7E7B5E0019017
:104370000D928A95E1F70E9478200E946A20FF241E
:10438000F39468CFC8010E94CB1FF9CF311113C03D
:104390007A2DBB86AA866E2D8B850E942A2087E700
:1043A00095E00E94CB1F86E0F60111928A95E9F70D
:1043B0000E946A207ACF2513BACF9413B8CFE110A8
:1043C000B6CFF8018583C8010E94CB1F86E0F601B5
:1043D00011928A95E9F73ECFE83CF10508F040C01C
:1043E000FE2CEE2079F225132AC0941328C0809168
:1043F0007C0580FD1BC0982F907FC1F0F80185835C
:10440000903F31F0982F907F905F8F70892B85833C
:10441000C8010E94CB1F86E0F801A7E7B5E0019034
:104420000D928A95E1F70E946A2014CF86E0F80188
:10443000A7E7B5E001900D928A95E1F70BCF4F8386
:1044400058878F8198850E94262081118CCF80917A
:104450007C05816080937C05C8010E94CB1FFACE49
:104460007A2DBB86AA866E2D8B850E942A2086E037
:10447000F60111928A95E9F7D6CFEE2009F482CFA2
:104480004F8358878F8198850E942620F82E882395
:1044900009F478CF86E0F801A7E7B5E001900D9226
:1044A0008A95E1F787E795E00E94181D0E94782021
:1044B000BACF81E08E25E8CE1F93CF93DF93CDB79F
:1044C000DEB72C970FB6F894DEBF0FBECDBF4F837B
:1044D000588769877A878B879C87CE0107960E94C9
:1044E000CE20882369F08A859B85892B39F04F81FE
:1044F0005885842F85238F3F09F077C016E065C06B
:1045000086E0FE013796DE01119601900D928A95A4
:10451000E1F76A857B856115710581F35F814885C7
:10452000842F85238F3F51F32091460530E0C90148
:10453000019687709927E0914505E817190671F4EF
:104540000E94F91F109246051092450586E0E7E7A4
:10455000F5E0DF011D928A95E9F7D0CF59834A83B0
:104560007D836C8396E0929FD001939FB00D1124C0
:10457000A95BBA4FFE01319601900D929A95E1F731
:10458000809346050E944920B9CF819FC001112424
:10459000895B9A4F0E94CE208823E9F0E09145057F
:1045A0001E9FF0011124E95BFA4F40815181628125
:1045B0007381848195810E9439208091450590E026
:1045C00001968770992780934505809145059091C4
:1045D00046058913DACF2C960FB6F894DEBF0FBECE
:1045E000CDBFDF91CF911F91089569857A858B8525
:1045F0009C850E94392082CF08950C94FC220E9451
:10460000FD2260939F057093A0058093A105909370
:10461000A2050C94E71F08950C94FF22CF93DF931B
:1046200000D000D0CDB7DEB769837A838B839C83BB
:1046300080919F059091A005A091A105B091A20540
:1046400029813A814B815C81282B392B4A2B5B2BAA
:1046500029833A834B835C83CA01B9010F900F9081
:104660000F900F90DF91CF910C94FF22CF93DF93A7
:1046700000D000D0CDB7DEB769837A838B839C836B
:1046800080919F059091A005A091A105B091A205F0
:1046900029813A814B815C81282339234A235B237A
:1046A00029833A834B835C83CA01B9010F900F9031
:1046B0000F900F90DF91CF910C94FF22CF93DF9357
:1046C00000D000D0CDB7DEB769837A838B839C831B
:1046D00080919F059091A005A091A105B091A205A0
:1046E00029813A814B815C81282739274A275B271A
:1046F00029833A834B835C83CA01B9010F900F90E1
:104700000F900F90DF91CF910C94FF220C94FC221C
:104710000C9486230E94882360939B0570939C05CC
:1047200080939D0590939E050C94E71F60E070E0D8
:10473000CB010C948A230F931F93CF93DF9300D068
:1047400000D0CDB7DEB741E050E060E070E08A0114
:104750009B0104C0000F111F221F331F8A95D2F73F
:1047600009831A832B833C83C901B8010F900F90F2
:104770000F900F90DF91CF911F910F910C948A238E
:104780000F931F93CF93DF9300D000D0CDB7DEB748
:1047900041E050E060E070E004C0440F551F661F28
:1047A000771F8A95D2F780919B0590919C05A091E7
:1047B0009D05B0919E058A019B01082B192B2A2B80
:1047C0003B2B09831A832B833C83C901B8010F90CB
:1047D0000F900F900F90DF91CF911F910F910C943C
:1047E0008A230F931F93CF93DF9300D000D0CDB7D0
:1047F000DEB741E050E060E070E004C0440F551FB8
:10480000661F771F8A95D2F74095509560957095F1
:1048100080919B0590919C05A0919D05B0919E056E
:104820008A019B01082319232A233B2309831A8326
:104830002B833C83C901B8010F900F900F900F900C
:10484000DF91CF911F910F910C948A230F931F93A7
:10485000CF93DF9300D000D0CDB7DEB741E050E07A
:1048600060E070E004C0440F551F661F771F8A95F3
:10487000D2F780919B0590919C05A0919D05B091E8
:104880009E058A019B01082719272A273B270983B0
:104890001A832B833C83C901B8010F900F900F90AE
:1048A0000F90DF91CF911F910F910C948A23CF939A
:1048B000DF9300D000D0CDB7DEB769837A838B83D6
:1048C0009C8380919B0590919C05A0919D05B09142
:1048D0009E0529813A814B815C81282B392B4A2BFB
:1048E0005B2B29833A834B835C83CA01B9010F9008
:1048F0000F900F900F90DF91CF910C948A23CF935C
:10490000DF9300D000D0CDB7DEB769837A838B8385
:104910009C8380919B0590919C05A0919D05B091F1
:104920009E0529813A814B815C81282339234A23C2
:104930005B2329833A834B835C83CA01B9010F90BF
:104940000F900F900F90DF91CF910C948A23CF930B
:10495000DF9300D000D0CDB7DEB769837A838B8335
:104960009C8380919B0590919C05A0919D05B091A1
:104970009E0529813A814B815C81282739274A2766
:104980005B2729833A834B835C83CA01B9010F906B
:104990000F900F900F90DF91CF910C948A23089580
:1049A000990F990F990FE92FE80F877041E001C027
:1049B000440F8A95EAF7E695E695E69585E0E89F47
:1049C000F0011124E358FA4F30E020E070E05191FB
:1049D000DF011197CB01022E02C0969587950A94AC
:1049E000E2F7817081958527842385278C932F5F3B
:1049F0003F4F2530310559F70895E92FEE0FEE0F9F
:104A0000EE0FE80F982F9770E695E695E69585E00E
:104A1000E89FF0011124E358FA4F50E040E080E0B5
:104A2000219130E0092E02C0369527950A94E2F7CD
:104A300021703327042E01C0220F0A94EAF7822B3B
:104A40004F5F5F4F4530510559F70895BF92CF92A0
:104A5000DF92EF92FF920F931F93CF93DF938C011E
:104A6000C0909B05D0909C05E0909D05F0909E0520
:104A700080919F059091A005A091A105B091A205FC
:104A8000C82AD92AEA2AFB2ACFE1D0E0BC2ED701D6
:104A9000C6010C2E04C0B695A795979587950A94E4
:104AA000D2F780FD0EC0219788F7B12C8B2DDF91B6
:104AB000CF911F910F91FF90EF90DF90CF90BF901B
:104AC0000895B8018C2F0E94C107019761F3EECFC2
:104AD000CF93DF93D82FC92F0E9426256D2F7C2FCF
:104AE000DF91CF910C94C1071F93CF93DF93162FC3
:104AF000D72F90914405992339F0862F972FDF9176
:104B0000CF911F910C946825882391F0862F972FC1
:104B10000E942625C82F682F812F9D2F0E94D02408
:104B2000612F7D2F8C2FDF91CF911F910C94C107A6
:104B3000862F972F0E94FD24C82FF2CF682F8091D7
:104B4000990290919A020C94DB26682F8091990229
:104B500090919A020C94DD268091990290919A028C
:104B60000C94DF26E0919902F0919A028091AD05B4
:104B70008083E0919902F0919A0280819091AC0536
:104B8000892B8083E0919902F0919A028081909123
:104B9000AB05892B80838091990290919A020C94A5
:104BA000BA1B8091AD0508959091AD05982B909317
:104BB000AD050895982F90958091AD058923809338
:104BC000AD0508951092AD0508959091AC05982B10
:104BD0009093AC050895982F90958091AC0589230A
:104BE0008093AC0508951092AC0508951092AB0522
:104BF000089580E008956FEF7FEF90E080E00C94DF
:104C0000923490E080E00E945E349C0181E02B3E73
:104C10003E4F09F080E0089582E090E00C94563415
:104C200083E090E00C945634CF9384E090E00E94AF
:104C30005634C82F81E290E00E945634982F8C2F72
:104C4000CF910895CF93682FC92F84E090E00E9400
:104C500074346C2F81E290E0CF910C947434AB01EA
:104C6000BC018FE090E00C94863460E070E0CB01F2
:104C70000E942F260C9457036BEE7EEF90E080E0AD
:104C80000E94923460E082E090E00E94743460E020
:104C900083E090E00E94743410929F051092A0056A
:104CA0001092A1051092A20560E084E090E00E94BD
:104CB000743460E081E290E00E94743460E085E04A
:104CC00090E00E94743460E086E090E00E947434CA
:104CD0006FEF87E090E00E94743440E050E0BA014A
:104CE00088E090E00E94863460E08DE090E00E94D1
:104CF000743440E050E0BA0188E190E00E948634CC
:104D000060E087E190E00E94743440E050E0BA0136
:104D10008CE190E00E94863460E080E290E00E94A6
:104D2000743440E050E0BA0188E190E00E9486349B
:104D30000C9435260C943C26682F8EE090E00C9461
:104D400074349C01662351F0FC013296285F3F4F7A
:104D50008191861729F0E217F307D1F780E00895D3
:104D600081E008959C01FC0132968FEF90E0419123
:104D7000461751F08F3F19F4411101C0892F9F5FF1
:104D80009630A9F78F3F09F40895280F311D87FD4C
:104D90003A95F901628308959C01FC013296285FDF
:104DA0003F4F8191861303C0DF0111971C92E217D8
:104DB000F307B9F708950C94B2260C94CC26FC01A5
:104DC000329686E0DF011D928A95E9F708950895ED
:104DD00008950C94E82680915908843049F10E9486
:104DE000E92680E00E94A4071092AF0588E190E0D8
:104DF00020E40FB6F894A895809360000FBE20932E
:104E0000600083B7817F846083BF83B7816083BF85
:104E10007894889583B78E7F83BF0FB6F894A89552
:104E200080916000886180936000109260000FBEE6
:104E300008950895CF930E94E7260E94D0090E940A
:104E40001927C0E08C2F0E947509811105C0CF5F22
:104E5000C630C1F7CF91089581E0FCCF08950C943E
:104E60002E270E94F91F0E94AE1B0E94A4070C94DB
:104E70002F271F921FB61F9211248F939F93AF93DA
:104E8000BF938091AF05811113C08091620790910B
:104E90006307A0916407B09165074196A11DB11DFC
:104EA0008093620790936307A0936407B0936507AC
:104EB000BF91AF919F918F911F901FBE1F9018952A
:104EC00082E084BD93E095BD9AEF97BD80936E001C
:104ED00008952FB7F8948091620790916307A0918D
:104EE0006407B09165072FBF0895CF93DF9300D07B
:104EF00000D0CDB7DEB78FB7F8942091620730911C
:104F00006307409164075091650729833A834B8377
:104F10005C838FBF69817A818B819C810F900F9018
:104F20000F900F90DF91CF9108959C014FB7F894A7
:104F30008091620790916307A0916407B091650723
:104F40004FBF821B930B08950F931F93CF93DF9353
:104F500000D000D0CDB7DEB7462F572FBC012FB7FA
:104F6000F8948091620790916307A0916407B091D3
:104F700065072FBF8C019D01041B150B260B370BFA
:104F8000C901B8010F900F900F900F90DF91CF9152
:104F90001F910F91089578941F921FB61F921124AC
:104FA0008F939F93AF93BF93809162079091630714
:104FB000A0916407B09165070196A11DB11D809372
:104FC000620790936307A0936407B0936507BF914E
:104FD000AF919F918F911F901FBE1F90189587E7EB
:104FE00097E7909301088093000888E19AE00FB654
:104FF000F894A895809360000FBE90936000FFCF57
:1050000090934F0480934E0408950C94FB250E94C6
:10501000D0098FE39CE90197F1F700C000000E94DE
:10502000D00980E00E94750980FF04C00E94052815
:105030000C94EF270895CF93DF9300D000D0CDB725
:10504000DEB70E940126811102C00E949A260E94AA
:105050000C268093AE050E941426909367078093D8
:1050600066070E941026282F30E050E040E0CA0179
:10507000B9010E940C2380919B0590919C05A09101
:105080009D05B0919E0589839A83AB83BC83BC0147
:10509000CD010F900F900F900F90DF91CF910C9456
:1050A0008823881F8827881F0895982F81E0983FBC
:1050B00008F480E00895982F907F903D69F070F497
:1050C000903B31F038F4903A19F0807E803899F4B2
:1050D00083E00895903C79F482E00895903EC1F316
:1050E000903F49F4EFE0E80F813F28F0F0E0E25C08
:1050F000FB4F8081089580E008950F93DC01022F1B
:105100000F77242F2F776F70462F406BED91FC9116
:1051100063E070E009950F9108950F93DC01022F71
:105120000F77242F2F776F70462F4069ED91FC91F8
:1051300063E070E009950F9108950F93DC01022F51
:105140000F77242F2F776F70462F4068ED91FC91D9
:1051500063E070E009950F9108950F931F93DC01B0
:105160009A01411580E25807C4F44115504EC4F02D
:10517000305E8901000F012F001F110B11952F7751
:105180006F70462F406EED91FC91119763E070E0D7
:10519000CD0109951F910F9108952FEF3FE3E9CFBE
:1051A00030E020E0E6CFFC01738362830895FC01C8
:1051B000758F648F0895CF93DF93EC011DA21FA21A
:1051C0001EA2BC01685D7F4F40EC88519F4F0E943A
:1051D000E02A1B821A821D821C821F821E8219866F
:1051E00018861B861A861D861C861F861E86198AAF
:1051F000188A1B8A1A8A1D8A1C8A1F8A1E8A198E7F
:10520000188E1B8E1A8E1D8E1C8E1F8E1E8E19A23E
:1052100018A2DF91CF910895EF92FF920F931F9301
:10522000CF93DF93EA018A01060F111D7C0128EE5E
:10523000E20EF11CC017D10739F4DF91CF911F9115
:105240000F91FF90EF9008956991C7010E94E72A9E
:10525000F1CFFC01718360830895FC0171A360A309
:105260000895AF92BF92CF92DF92EF92FF920F9389
:105270001F93CF93DF9300D00F92CDB7DEB77C01A1
:105280006B01142FB22EA02EDC0195968C91959770
:105290008430A9F55A96ED91FC913097E9F1CB0154
:1052A000019763E070E00E945633CB01880F991F8D
:1052B000860F971F4983BA820B834C2D481B9E0192
:1052C0002F5F3F4FBC01C7010995D7015E96ED9155
:1052D000FC91309731F00A2D2B2D412FB601C701DB
:1052E00009950F900F900F90DF91CF911F910F9123
:1052F000FF90EF90DF90CF90BF90AF900895623015
:10530000710509F452C06330710599F0613071057F
:1053100009F47AC0D12CC12CD7015C96ED91FC9197
:10532000309799F20A2D2B2D412FB601C70109950F
:10533000CCCF842F807F803BF1F058F4803931F15D
:10534000803A49F1803841F7D7011696ED91FC91EA
:1053500016C0803E29F1803FF9F6423FE9F6D701B9
:105360001C96ED91FC91202F4B2D62EF3097A1F20E
:10537000C7010995AACFD7011296ED91FC913097FC
:1053800059F22A2D4B2D612F6F70F2CFD701149651
:10539000ED91FC91F4CFD7011896ED91FC91EFCFF0
:1053A000D7011A96ED91FC91EACF842F807F803D42
:1053B00081F0803F99F0803C09F0AECFD7011E9676
:1053C000ED91FC91309709F4A7CF4B2D612F6F70B1
:1053D00010C0D7015096ED91FC91F4CF433F61F49A
:1053E000D7015296ED91FC914B2D612F309709F426
:1053F00093CFC701099569CF413F09F08DCFD70100
:105400005496ED91FC91F0CF842F0E94552888236B
:1054100059F0D7015696ED91FC91309709F47CCF65
:10542000612FC701099551CF163F09F075CFD701FC
:105430005896ED91FC91F1CFFF920F931F93CF936C
:10544000DF93EC01162F862F0E945528882391F0B8
:10545000FDA081E08DA300E020E0412F61E070E03D
:10546000CE010E943129FDA2DF91CF911F910F91B2
:10547000FF900895812F0E9451284DA1882309F49F
:1054800043C0443029F01AA381E090E09FA38EA38B
:10549000812F0E945B28823069F1D0F481111EC0F7
:1054A000103F51F1173FB1F42EA13FA1C90163E0B4
:1054B00070E00E945633FE01E80FF91F12A3B901F4
:1054C0006F5F7F4F7FA36EA30CA12BA14AA10DC0DC
:1054D000833081F01DA21FA21EA2C6CF81E08DA342
:1054E00000E020E0412F61E070E0CE010E94312910
:1054F0001DA2BACF8DA3B8CF84E08DA31AA381E0FB
:1055000090E09FA38EA3B0CF442309F4ADCF2EA18A
:105510003FA1C90163E070E00E945633FE01E80F2D
:10552000F91F12A3B9016F5F7F4F7FA36EA3813074
:10553000910569F0029709F097CF0CA12BA14AA120
:10554000CE010E9431298DA18430C9F68DCF00E0B3
:10555000423009F089CFF2CFCF92DF92EF92FF92E3
:105560000F931F93CF93DF93EC01E8A1F9A130973C
:1055700009F009956E0188EEC80ED11CC6010E9483
:10558000152B10E000E0E82EF12C0E151F0548F059
:10559000DF91CF911F910F91FF90EF90DF90CF900F
:1055A000089560E0C6010E94292B682FCE010E9459
:1055B0001C2A61E0C6010E94392B0F5F1F4FE5CF07
:1055C000FC014283748363831182108208951F93C8
:1055D000CF93DF93EC01162F0E94502B282FE981E7
:1055E000F0E0CF0101966A8170E00E946A33388151
:1055F0003817190641F4822F0E94532B80E0DF9167
:10560000CF911F9108958B819C81E80FF91F108322
:10561000898190E001966A8170E00E946A338983F3
:10562000822F0E94532B81E0EACFCF93DF93EC01CE
:105630000E94502B99812881921740F0C92FC21BDC
:105640000E94532B8C2FDF91CF910895CA819C0F1C
:10565000F5CFFC018081860F9927991F628170E048
:105660000E946A3323813481280F391FF901808118
:1056700008951F93CF93DF93EC01162F0E94502BB8
:10568000282F8881810F9927991F6A8170E00E94D5
:105690006A338883822FDF91CF911F910C94532B13
:1056A0008FB7F89408958FBF0895089508950F93C4
:1056B0001F93CF93DF9300D000D000D00F92CDB7CF
:1056C000DEB7182F092FCE0101960E94B72D811148
:1056D0000BC027960FB6F894DEBF0FBECDBFDF918B
:1056E000CF911F910F9108958A810E945B28682FA6
:1056F0008A818D838B818E838C818F8361110AC017
:105700002981243079F0273069F0263069F061E092
:105710002530C9F6AE014B5F5F4F812F902F0E945D
:105720000C29D1CF63E0F6CF62E0F4CFDF92EF92A5
:10573000FF920F931F93CF93DF9300D000D0CDB78C
:10574000DEB77B01142FD22E4A832B830C83842F48
:105750000E945B28811129C082E0E816F10401F162
:1057600083E0E816F10439F0EA94EF2869F485E063
:10577000173F21F404C087E0073F09F084E08983E4
:10578000CE0101960E94B22D0F900F900F900F90B6
:10579000DF91CF911F910F91FF90EF90DF900895CF
:1057A00087EFD812EBCF86E0EACF12951F701983EE
:1057B000E7CF0E94820A88E697E00E94DB2866E92C
:1057C0007BE288E697E00E94292967E57BE288E68C
:1057D00097E00E942D2965E57BE288E697E00E942C
:1057E000D72866E57BE288E697E00C94D328FC0195
:1057F000CB01209159082430B1F421812F702093DE
:10580000E90050E040E064E070E00E947F2E8111EA
:105810000BC09091E80095FD07C09091E8009E773D
:105820009093E800089582E00895FC018091590862
:10583000843089F481818F708093E9009091F30026
:105840008091F200892B49F08091E8008E77809357
:10585000E8000C94253082E0089580E00895FC0172
:1058600080915908843059F481818F708093E900C8
:105870008091E80080FF03C0CF010C94152C08959F
:10588000FC01CB0120915908243011F080E00895EB
:1058900026812F702093E9002091E80022FFF6CFA7
:1058A0002091E80025FFF2CF50E040E064E070E096
:1058B0000E94CE2E8091E80085FD05C08091E80011
:1058C0008B778093E80081E008958091B805089572
:1058D0000895CF93DF9300D00F92CDB7DEB79091AC
:1058E0005908943019F589836A837B8382E0809319
:1058F000E9008FEF9091E800815095FD06C095ED8D
:105900009A95F1F700008111F5CF8091E80085FFAD
:105910000DC050E040E063E070E0CE0101960E94CF
:105920007F2E8091E8008E778093E8000F900F9093
:105930000F90DF91CF910895BC0184E00C94692C05
:10594000BC0183E00C94692CCF93DF93D82FC92F2F
:1059500081E08093E9008FEF9091E800815095FD00
:1059600006C095ED9A95F1F700008111F5CF809171
:10597000E80085FF16C050E040E068E070E08D2F41
:105980009C2F0E947F2E8091E8008E778093E80004
:1059900088E0ED2FFC2FA0EBB5E001900D928A95E9
:1059A000E1F7DF91CF91089580915808811109C0E6
:1059B0000E9456300E94B3308091E2008460809350
:1059C000E2000895109258080895089508950895E2
:1059D00042E061EC81E00E94D22F42E261EC82E081
:1059E0000E94D22F42E361E883E00E94D22F42E37B
:1059F00061E884E00C94D22F80915B08893089F1B2
:105A000048F4823009F49DC0833009F458C08130D5
:105A100041F008958A3009F484C08B3009F46AC0DB
:105A2000089580915A08813A09F048C08091E800B1
:105A3000877F8093E80080915E0890915F08892BB2
:105A400061F468E080EB95E070E00E941D2F80918A
:105A5000E8008B778093E800089560E090E080E0B4
:105A6000F3CF80915A08813249F580915E08909178
:105A70005F08029718F58091E800877F8093E8001F
:105A80008091E80082FF16C09091F3008091F200AF
:105A9000029729F48091F1008B7F813021F480916D
:105AA000F1008093B8058091E8008B778093E8003F
:105AB0000C940630809159088111E2CF08958091AD
:105AC0005A08813AD9F780915E0890915F08892B36
:105AD000A9F78091E800877F8093E8008091E80033
