:100000000C94E6020C9403030C9403030C94030376
:100010000C9403030C9403030C9403030C94030348
:100020000C9403030C9403030C94AC2B0C94682BDA
:100030000C94A92C0C9403030C9403030C94030359
:100040000C9403030C9403030C9403030C94030318
:100050000C9403030C94852C0C9403030C9403035D
:100060000C9403030C9403030C9403030C940303F8
:100070000C9403030C9403030C9403030C940303E8
:100080000C9403030C9403030C9403030C940303D8
:100090000C9403030C9403030C9403030C940303C8
:1000A0000C9403030C9403030C94030305010980CF
:1000B000A101850319012AB700150126B700950192
:1000C00075108100C0050C0901A101850419012AE0
:1000D000A002150126A002950175108100C00660DE
:1000E000FF0961A1010962150026FF00952075082E
:1000F00081020963150026FF00952075089102C052
:1001000005010906A101050719E029E715002501E8
:10011000950875018102950175088101050719008F
:1001200029FF150026FF00950675088100050819AE
:1001300001290515002501950575019102950175A7
:10014000039101C06368726F6D61746F6E656D6954
:100150006E693A766961204020302E32322E322D7F
:1001600032362D673762333338322D6469727479D1
:10017000207C20323032332D30392D31322D323245
:100180003A34353A3537000001010101010101011E
:10019000010202020202020202020303030303033A
:1001A0000303040404040404040505050505060608
:1001B00006060607070707070808080809090909C6
:1001C0000A0A0A0B0B0B0C0C0C0D0D0D0E0E0E0F6C
:1001D0000F0F1010111111121213131414151516FC
:1001E000161717181819191A1A1B1B1C1D1D1E1E6D
:1001F0001F202021222223242425262627282929BE
:100200002A2B2C2D2D2E2F303132323334353637E8
:1002100038393A3B3C3D3E3F4041424344454647E6
:1002200048494A4C4D4E4F50515354555658595ABF
:100230005B5D5E5F616264656668696B6C6D6F7063
:1002400072737577787A7B7D7E8082838587888AD2
:100250008C8E8F91939596989A9C9EA0A2A3A5A709
:10026000A9ABADAFB1B3B5B7BABCBEC0C2C4C6C905
:10027000CBCDCFD1D4D6D8DBDDDFE2E4E7E9EBEEBE
:10028000F0F3F5F8FAFDFF000000000000000000A8
:10029000000000000000000000000000000000005E
:1002A00000000000000000000000007E0F00D4FFEE
:1002B000FFFFC70000007800000000000000002AD7
:1002C0002B280000000000000000000000000000DB
:1002D000000029000000002C1E3420212224342696
:1002E00027252E362D3738271E1F2021222324258F
:1002F000263333362E37381F0405060708090A0B44
:100300000C0D0E0F101112131415161718191A1BB5
:100310001C1D2F3130232D350405060708090A0B53
:100320000C0D0E0F101112131415161718191A1B95
:100330001C1D2F3130354CA8438E71007E017E8FFD
:10034000711B711C7186711D711E711F71207121CD
:100350007122712371000024712571267127712883
:100360007129712A7100002B712C712D712E712F42
:100370007130713171000032713371347135713601
:100380007137713871000039713A713B713C713DC0
:10039000713E713F710000010001006471657101DF
:1003A0000001000100010001000100010001000145
:1003B0000001000100000001000100010001000136
:1003C0000001000100000001000100010001000126
:1003D0000001000100000001000100010001000116
:1003E0000001000100000001000100010001000106
:1003F00000010001000000010001000100010001F6
:1004000000010001000100010001000100010001E4
:1004100000010001000000010001000100010001D5
:1004200000010001000000010001000100010001C5
:1004300000010001000000010001000100010001B5
:1004400000010001000000010001000100010001A5
:1004500000010001000000010071715571567172B8
:1004600071057E037E00004252047E000000000001
:1004700000000000000000000000002678000025B9
:10048000780000247800000000237800002A78001B
:10049000002978000000002878000027780000225A
:1004A000780000217800000000037C067E027E00B8
:1004B00000207800000000A900AA0001000100014E
:1004C000000100217822780902BF00050100A0FA8E
:1004D00009040000010301010009211101000122AA
:1004E000440007058103080001090401000203001C
:1004F00000000921110100012222000705820320CA
:1005000000010705030320000109040200010300A4
:100510000000092111010001223200070584032097
:100520000001080B0302010100000904030000019F
:10053000010000092401000109000104090404006C
:10054000020103000007240100014100062402010A
:100550000100062402020200092403010301020132
:1005600000092403020401010100090506024000FC
:10057000050000052501010109058502400005006F
:100580000005250101031201000200000008EDFE34
:10059000B4F40100010200011E0363006800720050
:1005A0006F006D00610074006F006E0065006D00EB
:1005B00069006E00690000000E03330061007200E4
:1005C00061006800740000000403090411241FBEC8
:1005D000CFEFDAE0DEBFCDBF28E0AEE2B4E001C08D
:1005E0001D92A832B207E1F714E0A0E0B1E0E8E420
:1005F000FCE602C005900D92AE32B107D9F70E9419
:10060000D02C0C9485350C9400000F931F939B0104
:10061000305E8901000F012F001F110B11952F77FC
:10062000482F406EE0913807F091390763E070E0A1
:1006300088E397E009951F910F9108950F93262F56
:10064000042F0F77482F406BE0913807F09139075E
:1006500063E070E088E397E009950F910895482FD3
:100660002091F8069091BF0657E0291302C080E060
:10067000089530E0529FF001539FF00D1124E05493
:10068000F94F8181681306C08081481303C08581BA
:100690008111EECF2F5F3F4F2770E7CFA3E0B0E08F
:1006A000E4E5F3E00C9431347C01162FD42EC22EF5
:1006B00080915D07843071F5E0915207F091530706
:1006C0003097C1F1C701019763E070E00E94F233F7
:1006D000CB01880F991F860F971F19834A83CB82FE
:1006E0004E2D481B9E012F5F3F4FBC0188E397E0D2
:1006F0000995E0915607F0915707309739F00C2D86
:100700002D2D412FB70188E397E009952396E8E066
:100710000C944D3482E0E816F10409F45AC083E0E9
:10072000E816F104A9F081E0E816F10409F484C0A8
:10073000F12CE12CE0915407F09155073097C9F264
:100740000C2D2D2D412FB70188E397E00995D1CFCE
:10075000862F807F803A11F188F48038D1F0E091C3
:100760003C07F0913D07803929F7309719F3123F84
:1007700049F12C2D4D2D612F6F7027C0803E99F0CF
:10078000803FB1F0E0913A07F0913B07803B91F652
:10079000ECCFE0913E07F0913F07E7CFE0914007B3
:1007A000F0914107E2CFE0914207F0914307DDCF9E
:1007B000623F09F0BFCFE0914407F09145073097C1
:1007C00009F4B8CF2C2D4D2D62EF88E397E0099501
:1007D00090CF862F807F803DB9F0803FD1F0E091AF
:1007E0004607F0914707803C09F0A4CF309709F401
:1007F000A1CF812F8D7F4D2D612F6F70813FC9F06B
:1008000088E397E0099575CFE0914807F091490793
:10081000EDCFE0914A07F0914B07633F39F0613F1C
:1008200009F088CFE0914C07F0914D07309709F41B
:1008300081CF4D2D612FE4CFE0914E07F0914F070E
:10084000683F38F4663F09F075CFE0915007F091AA
:100850005107309709F46ECF612F88E397E009952F
:1008600048CFE8EDF0E080818E7F80831092E20037
:100870001092DA001092E100A0EEB0E08C9181605D
:100880008C9380818F77808319BCA7EDB0E08C9129
:100890008E7F8C9380818F7E80831092A80608952E
:1008A0002091E4003091E50095E6A9012091EC004B
:1008B000822F817020FF06C08091E80080FF06C073
:1008C00080E008952091E80022FD1AC08091B506CD
:1008D000882389F0853089F08091EB0085FD0FC079
:1008E0002091E4003091E50042175307F9F291504E
:1008F000E1F684E0089582E0089583E0089581E0C0
:100900000895EF92FF920F931F93CF937C018B0179
:100910000E945004C82F811117C08091E80085FD06
:100920000BC08091E8008E778093E8000E9450040D
:10093000882399F3C82F08C0F70181917F01809324
:10094000F1000150110949F78C2FCF911F910F91A0
:10095000FF90EF900895EF92FF920F931F93CF9324
:100960007C018B010E945004C82F811117C0809117
:10097000E80085FD0BC08091E8008B778093E8004C
:100980000E945004882399F3C82F08C08091F10079
:10099000F70181937F010150110949F78C2FCF9105
:1009A0001F910F91FF90EF9008958091B70687FFF8
:1009B00013C08091E80082FF06C08091E8008B7729
:1009C0008093E80004C08091B5068111F2CF0895AC
:1009D0008091B5068823D9F38091E80080FFF8CF95
:1009E0008091E8008E77ECCF982F9093E900242F28
:1009F000762F50E0891731F07091EC002091ED00D6
:100A00005091F00021FD07C09F5F973071F78093F0
:100A1000E90081E008953091EB003E7F3093EB00D8
:100A20003091ED003D7F3093ED003091EB0031606F
:100A30003093EB007093EC002093ED005093F000A6
:100A40002091EE0027FDE0CF80E00895B0E0A0E027
:100A5000ECE2F5E00C943134C8EDD0E088818F7E73
:100A60008883E7EDF0E080818160808384E082BF4D
:100A700081E08093A80688818E7F888302EE10E053
:100A8000F80110821092DA0081EEC82ED12CF60106
:100A9000108288818F7788838881806888838881A5
:100AA0008F7D888319BC1092B5061092B6061092FD
:100AB000B4061092B30690EEE92EF12CF701808176
:100AC0008B7F808388818160888342E060E080E062
:100AD0000E94F404F60180818E7F8083F80180817A
:100AE00081608083808188608083F70180818E7F30
:100AF0008083888180618883CDB7DEB7E8E00C947D
:100B00004D34FC018091BD069091BE068617970773
:100B1000A0F06115710529F49091E8009E779093FB
:100B2000E80090E06115710551F4911108C08091C1
:100B3000E80082FF34C080E00895BC01F2CF8091CC
:100B4000B5068823C1F18530C1F18091E80083FDAD
:100B500030C08091E80082FDEACF8091E80080FFFC
:100B6000E1CF8091F3002091F200382F61157105DB
:100B700019F02830310558F091E02830310509F09E
:100B800090E02091E8002E772093E800CBCF819170
:100B90008093F100615071092F5F3F4FE7CF809143
:100BA000B506882341F0853041F08091E80083FF4D
:100BB000BECF81E0089582E0089583E0089508950E
:100BC0008091AA06089587E797E79093010880939C
:100BD000000888E19AE00FB6F894A8958093600029
:100BE0000FBE90936000FFCF9C014FB7F8948091A7
:100BF000A4069091A506A091A606B091A7064FBFA6
:100C0000821B930B08952FB7F8946091A4067091FE
:100C1000A5068091A6069091A7062FBF08952FB72D
:100C2000F8948091A4069091A506A091A606B09193
:100C3000A7062FBF08959C01FC0132969FEF80E02C
:100C40004191461751F09F3F19F4411101C0982F6F
:100C50008F5F8630A9F79F3F09F40895290F311D52
:100C600097FD3A95F90162830895A3E0B0E0EBE3C4
:100C7000F6E00C9437342091A1063091A206281793
:100C80003907A1F09093A2068093A106E0919F06F8
:100C9000F091A006309751F024E029839B838A834A
:100CA0000680F781E02DCE01019609952396E2E0BA
:100CB0000C945334A3E0B0E0E0E6F6E00C94373453
:100CC00020919D0630919E0628173907A1F0909338
:100CD0009E0680939D06E0919F06F091A0063097B6
:100CE00051F023E029839B838A830680F781E02DDE
:100CF000CE01019609952396E2E00C945334E091DD
:100D00009F06F091A006309729F00190F081E02D28
:100D10000995089580E00895FA01811101C0FB0151
:100D200009950895FC01EE0FFF1FDF01A80FB91F01
:100D3000AF5BBA4F11963C911197361307C03C91A7
:100D4000341304C012963C91321751F031E03093C5
:100D50004005E80FF91FEF5BFA4F61834083228360
:100D60000895FF920F931F93CF93DF93182F062FB1
:100D7000F42ED0E0C0E02F2D402F612FCE010E9435
:100D800092062196C437D105B1F7CDB7DEB7E5E0BD
:100D90000C945034109240050895EDEFF6E0248154
:100DA0003AE0231B08F420E0248380913F05816012
:100DB00080933F050895EDEFF6E024813AE0230F9C
:100DC00008F42FEF248380913F05816080933F05D5
:100DD00008959091FD06937071F08093FE066093E4
:100DE000FF06433308F042E34093000780913F053C
:100DF000822B80933F050895EDEFF6E0438128E0D4
:100E0000421B08F440E0818121E0628190E00E9471
:100E1000E9060895EDEFF6E0438128E0420F08F47B
:100E20004FEF818121E0628190E00E94E906089500
:100E3000EDEFF6E0628128E0621B08F460E081815A
:100E400021E0438190E00E94E9060895EDEFF6E08D
:100E5000628128E0620F08F46FEF818121E0438115
:100E600090E00E94E9060895EDEFF6E0818121E02F
:100E7000438162818850990B0E94E9060895EDEF45
:100E8000F6E0818190E021E04381628108960E9432
:100E9000E90608959091FD06937061F081110BC0F1
:100EA00094609093FD0610921E0180913F05862B61
:100EB00080933F0508958D3210F0906BF2CF880F2C
:100EC000880F982BEECF8091FD06869586958150F0
:100ED00009F48CE261E00E944A0708958091FD06C2
:100EE000869586958F5F8D3208F081E061E00E94E3
:100EF0004A0708958091FD06837011F410921E0137
:100F00008091FD068C7F81608093FD060895EF92AD
:100F1000FF920F931F930E0D1F2D111D9A0157FF66
:100F200003C031952195310994E0220F331F9A9522
:100F3000E1F72F3F310519F014F02FEF30E0200FCB
:100F4000311F2F3F310519F010F02FEF30E02095C1
:100F5000382F320F08F43FEF832F1F910F91FF902E
:100F6000EF900895EF92FF920F939701201B3109A4
:100F70002F3F310519F010F02FEF30E02095382F7A
:100F8000320F08F43FEF832F0F91FF90EF900895F9
:100F9000EF92FF920F939701201B31092F3F3105EC
:100FA00019F010F02FEF30E0322F3095482F430F1B
:100FB00008F44FEF842F620F0F91FF90EF90089588
:100FC000EF92FF920F93972F093438F4B701601B0B
:100FD00071096F3F710519F010F06FEF70E0485F15
:100FE0005F4F4131510540F0A901485F5F4F4131EA
:100FF000510510F06FEF70E06095482F460F08F430
:101000004FEF842F37FF02C02D5F3F4F3595279557
:10101000359527956091FE06620F792F0F91FF900D
:10102000EF900895EF92FF920F931F930E0D1F2DD7
:10103000111DF90137FF03C0F195E195F10924E095
:10104000EE0FFF1F2A95E1F7EF3FF10519F014F0BD
:10105000EFEFF0E09A0157FF03C031952195310978
:1010600094E0220F331F9A95E1F72E173F070CF4F7
:10107000F901E00FF11FEF3FF10519F010F0EFEF6C
:10108000F0E0E095282F3E2F230F08F42FEF822F5A
:101090001F910F91FF90EF900895EF92FF920F93A1
:1010A000970195E0099F200D311D11242F3F310537
:1010B00019F010F02FEF30E02095382F320F08F4A0
:1010C0003FEF832F0F91FF90EF90089522E8241BAC
:1010D00008F420E0620F08954095282F429F412D8B
:1010E0001124842F0895E42FF0E0EE0FFF1FEE523D
:1010F000FD4F9081921B97FD9195292F38E1239FF9
:10110000212D1124620F08950F931F9310E0F80111
:10111000EE0FFF1FEE52FD4F90819C5797FD91956A
:10112000000F111FF801EE55FD4F01A90052110BE0
:101130002003F001219FF00D112408E310E0091BAA
:10114000110997FD139540039001419F300D112423
:10115000E20FF31F9F01220F331F2E0F3F1F37FF98
:1011600002C021583F4F220F232F221F330B620F43
:101170001F910F9108950F931F93522F10E0F801C4
:10118000EE0FFF1FEE55FD4FA1A9A052BB0B9D0115
:101190005203F001539FF00D1124000F111FD801CD
:1011A000AE52BD4F0C910C57110B40039001419F63
:1011B000300D11242E0F3F1F37FF02C0215C3F4F1F
:1011C00096E0359527959A95E1F7620F1F910F915B
:1011D00008950F931F93522F10E0F801EE0FFF1F99
:1011E000EE55FD4FA1A9A052BB0B9D015203F0018A
:1011F000539FF00D1124000F111FD801AE52BD4FA7
:101200000C910C57110B40039001419F300D11249C
:101210002E0F3F1F37FF02C021583F4F220F232FB1
:10122000221F330B620F1F910F910895EF920F93BE
:10123000972F23E0029FB0011124759567956E0DDD
:10124000792F0F91EF900895322F50E0FA01EE0FB1
:10125000FF1FEE55FD4F91A9905297FD9195440FB8
:10126000551FFA01EE52FD4F2081231B330B290F2E
:10127000311D97FD3A95620F0895E42FF0E0EE0FCF
:10128000FF1FEE55FD4F61A9621B0895E42FF0E0AA
:10129000EE0FFF1FEE52FD4F6081621B0895622F1B
:1012A0000895E42FF0E0EE0FFF1FEE52FD4F408156
:1012B00034EE439F412D1124E82FF0E050E0445ECE
:1012C0005F4FDA01A21BB1099D01B7FF03C0319541
:1012D0002195310993E0220F331F9A95E1F7AF0171
:1012E000421B530B9A0157FD20E0582F259F212DBB
:1012F0001124822F0895E42FF0E0EE0FFF1FEE522D
:10130000FD4F408134EE439F412D1124E72FF0E043
:1013100050E0445E5F4FDA01A21BB1099D01B7FFA7
:1013200003C031952195310993E0220F331F9A951F
:10133000E1F7AF01421B530B9A0157FD20E0279FB5
:10134000212D1124722F08950E94B10608950E9444
:1013500092060895FC019B01009729F480E077FF35
:101360002BC080E80895AC0197FF04C0442755279F
:10137000481B590BB901640F751F37FD10C0241BA2
:10138000350BC901A5E0880F991FAA95E1F70E94C6
:10139000063480E2861BF7FF0FC081950895CB01CC
:1013A00065E0880F991F6A95E1F7BA01621B730B1C
:1013B0000E94063480E6EECF0895EF920F93CF930C
:1013C000DF93D72FC82FC9010E19BA010E94AA09AD
:1013D000602F681B7D2F8C2FDF91CF910F91EF90A5
:1013E00008950F93CF93DF93D72FC82FC901BA0168
:1013F0000E94AA09682F600F7D2F8C2FDF91CF915B
:101400000F910895EF920F931F93CF93DF93D62FF1
:10141000C72F182FC9010E19010FBA010E94AA097E
:10142000081B202F219F212D1124822F6D2F7C2F0F
:10143000DF91CF911F910F91EF900895EF920F934D
:101440001F93CF93DF93D62F172FC82FC9010E19E3
:10145000070FBA010E94AA09702F781B719F712D86
:1014600011246D2F8C2FDF91CF911F910F91EF9051
:1014700008950F931F93CF93DF93D62FC72F182F65
:10148000C901212F201B022FBA010E94AA09982FFF
:10149000990F990F891B800F282F219F212D11242F
:1014A000822F6D2F7C2FDF91CF911F910F91089587
:1014B0000F931F93CF93DF93D62F172FC82FC901F8
:1014C000272F201B022FBA010E94AA09982F990FDB
:1014D000990F782F791B700F719F712D11246D2F2B
:1014E0008C2FDF91CF911F910F910895E82F86FDEA
:1014F000E0952E2F2F7086FD2F5FE695E695E695F9
:10150000E670F0E0E45EFD4F9181929F902D212DD9
:10151000112492959F702295207F922B2081920F0B
:1015200087FD919580E8890F08950F931F93CF93BE
:10153000DF938B01D82FC42F822F0E94760AEC2FC5
:10154000F0E0EE0FFF1FEE52FD4F90819058890F93
:1015500087FD8195880F682F2CE0629F612D1124F3
:10156000600F712F8D2FDF91CF911F910F910895F3
:1015700040911A0150911B0125E038E0429FC001C3
:10158000439F900D529F900D1124875E994C90932C
:101590001B0180931A01890F0895AC0182309105D7
:1015A00008F408959FEF413E8EE1580740F49A01F8
:1015B00095E0369527959A95E1F798E0920F61E0CE
:1015C000E62FE90FFF27FF1F9F0135952795822FF3
:1015D000229FF001239FF00DF00D11244E175F079D
:1015E00038F49FEF920F961758F78FEF860F0895F4
:1015F0002F3FE9F361E0620FF6CF0F93CF93DF93B4
:10160000D72FC82F47FD41958EE390E0841B9109A9
:1016100047FD9395889FB001899F700D700D11242F
:10162000229FC001239F900D900D1124860F971FBC
:101630000E94CD0A982F990F890F682F600F7D2F78
:101640008C2FDF91CF910F91089530E020E0869F9D
:10165000212D969F200D311D1124C9010895AF92AF
:10166000BF92CF92DF92FF920F931F93CF93DF939E
:10167000362F472FE82FF0E0E957FE4F71110FC0CA
:10168000E4918E2F2E2F6E2F722FDF91CF911F910D
:101690000F91FF90DF90CF90BF90AF900895C72F2C
:1016A000D0E02491F22E022F10E056E0659FC00199
:1016B0001124EFEFF0E0BF010E94F233832F90E09E
:1016C000880F991F35E5369FD001379FB00D112443
:1016D0008A1B9B0B982F990F980F6F01CC1ADD0A6C
:1016E000C09ED001C19EB00DD09EB00D11248B2F95
:1016F000499FA0011124452F55276F01C41AD50A0F
:10170000C09EA001C19E500DD09E500D11245F01BE
:10171000A91AB108AC9E6001AD9ED00CBC9ED00C45
:101720001124CD2CDD24EC19FD09E09FE001E19F9F
:10173000D00DF09FD00D1124ED2F62307105A1F076
:1017400050F46115710509F49ECF6130710581F087
:10175000EB2F852F98CF6430710569F080F06630EB
:10176000710509F490CFF4CFE22F2B2F8D2F8BCF63
:10177000E22F252F88CFEB2F822F2D2F84CF2B2FD9
:101780008F2DE52F80CFB0E0A0E0E9ECFBE00C94DA
:1017900032348C01FC01E654FC4F8081682349F10E
:1017A000D090FF06D0910007C091FE06EC2EF12CE0
:1017B0000E94B80A282FC7018C549F4F68E671E039
:1017C0000E9406348E199F0997FD0396959587957B
:1017D0009595879523706C2F289F600D11247D2D82
:1017E0008D2F0E942F0B462F282F672FC8010E9494
:1017F000A709CDB7DEB7E7E00C944E342F923F92A5
:101800005F926F927F928F929F92AF92BF92CF9290
:10181000DF92EF92FF920F931F93CF93DF93CDB799
:10182000DEB72A970FB6F894DEBF0FBECDBF8B830D
:101830007E836D832091200188E1289F802D1124D3
:101840008F83885E89838A83853710F034E73A83F3
:10185000809105078C83FF81EF2FF0E0FA87E987FD
:10186000CF01880F991F9C012E553D4F69013B8187
:10187000832F90E0FC013196F887EF838A81998568
:101880009817E8F081E0E981E43708F080E02A96D3
:101890000FB6F894DEBF0FBECDBFDF91CF911F9181
:1018A0000F91FF90EF90DF90CF90BF90AF909F90FF
:1018B0008F907F906F905F903F902F900895E98573
:1018C000FA85E654FC4F8081909121018923F1F043
:1018D0002090FE063090FF062F8138852B5F384F11
:1018E00039015B8010E0FC815F16D0F02091000789
:1018F000129F112D1124B101812F0E942F0B462F11
:10190000282F672F89859A850E94A70929853A85FE
:101910002F5F3F4F3A87298732E0C30ED11CAECFED
:10192000F30181913F01F601A0A8A81ABB0881A884
:10193000F3018185881A9908AA9C9001AB9C300D0F
:10194000300D1124889CC001899C900D900D1124AC
:10195000820F931F0E94CD0A082F6091010721E09A
:10196000620F08F46FEFF301EE0FFF1FE550F74031
:10197000838D948D0E94250B7C019401A501B101FA
:10198000812FED81FE8109951B015394182FABCF58
:10199000B0E0A0E0EEECFCE00C9431348C01C0919E
:1019A000200188E1C89FC02D112428E1D22EDC0E31
:1019B000CD2C24E72D1510F494E7C92E20910107B2
:1019C00031E0230F08F42FEF30E050E040E06FEFFC
:1019D0007FEF80E090E00E9422357901D0E02C2F4B
:1019E000CC1550F081E0F3E7FD1508F480E0CDB7A9
:1019F000DEB7E8E00C944D34FE01E654FC4F8081E4
:101A000090912101892311F1409105074150042E45
:101A1000000C550B47FF1CC0C7016091010721E076
:101A2000620F08F46FEF0E94250BAC016091FE0677
:101A30007091FF0680910007F80109950E942F0B15
:101A4000462F282F672FCE010E94A7092196C7CFC6
:101A5000FA01EB5FF84F858982130AC0FA01EE0F95
:101A6000FF1FEB5FF84F878D90A18E159F05A8F2A1
:101A700041505109CFCFB0E0A0E0E1E4FDE00C948B
:101A800032347C01C091200188E1C89FC02D11240F
:101A900018E11C0F012F153708F004E760910107CA
:101AA0006695669521E0620F08F46FEF8091F90664
:101AB0009091FA060E94250BD82ED0E0C01748F06E
:101AC00081E0143708F080E0CDB7DEB7E7E00C9492
:101AD0004E34FE01E654FC4F808190912101892310
:101AE00091F06091FE067091FF06809100072D2D08
:101AF0004C2FF70109950E942F0B462F282F672F97
:101B0000CE010E94A7092196D9CFB0E0A0E0EBE872
:101B1000FDE00C942E346C01C091200188E1C89F37
:101B2000C02D112418E11C0FB12E153710F034E729
:101B3000B32E60910107669566958091F9069091A4
:101B4000FA060E94250BF82E80E48F0D0E94760A7B
:101B500090E8A92EA80E8F2D0E94760A20E8922EDA
:101B6000980ED0E0CB1548F081E0143708F080E003
:101B7000CDB7DEB7EBE00C944A34FE01E654FC4FDF
:101B80008081909121018923A1F06091FE067091DE
:101B9000FF0680910007EF2C0C2F292D4A2DF6010E
:101BA00009950E942F0B462F282F672FCE010E94E8
:101BB000A7092196D7CFB0E0A0E0E1EEFDE00C94BC
:101BC0002A343C01C091200188E1C89FC02D112416
:101BD00018E11C0FF12E153710F034E7F32E609149
:101BE000010766958091F9069091FA060E94250BEF
:101BF000582ED0E0CE01880F991F9C012E553D4FE5
:101C00006901CF1548F081E0143708F080E0CDB7C6
:101C1000DEB7EFE00C944634FE01E654FC4F8081C1
:101C200090912101892379F1F60180A9282F2C5761
:101C3000330B590181A9E82FE052FF0B4F01AA9CF9
:101C40009001AB9C300D300D1124EE9FC001EF9F31
:101C5000900D900D1124820F931F0E94CD0A082F22
:101C60006091FE067091FF0680910007E52C9401BB
:101C7000A501F30109950E942F0B462F282F672FEE
:101C8000CE010E94A709F2E0CF0ED11C2196B9CF58
:101C9000B0E0A0E0EEE4FEE00C942F346C01C091C3
:101CA000200188E1C89FC02D112418E11C0FB12E1E
:101CB000153710F034E7B32E6091010766958091D7
:101CC000F9069091FA060E94250BA82ED0E0CE01CD
:101CD000880F991F9C012E553D4F7901CB1548F077
:101CE00081E0143708F080E0CDB7DEB7EAE00C946D
:101CF0004B34FE01E654FC4F8081909121018923F1
:101D0000C1F0F70121A92052330B40A94C57550BC4
:101D10006091FE067091FF06809100070A2DF60182
:101D200009950E942F0B462F282F672FCE010E9466
:101D3000A709F2E0EF0EF11C2196D0CF1F93CF93AD
:101D4000DF93EC01FC01E654FC4F80816823B1F085
:101D50000E94B80A182F0E94B80A20E8829FC0018A
:101D600011247FE7790F612F809100070E942F0BCC
:101D7000462F282F672FCE010E94A709DF91CF9110
:101D80001F91089584E08093CD048FE78093CE0463
:101D90008091CF04807880648093CF04E5E8F4E0FC
:101DA0008FEF819394E0ED3CF907D9F7109284040A
:101DB0001092830410928204109281040895089571
:101DC0000895982F907F903BE9F040F49039D1F03E
:101DD000903AC1F09038B1F080E00895903D19F04C
:101DE00020F4903CC9F782E00895903E59F0903F6E
:101DF00099F7815F8F3080F7E82FF0E0E35FFD4FC8
:101E00008081089583E00895A7E0B0E0EAE0FFE074
:101E10000C9434348C0108511F4F8091B5068430E6
:101E200009F06CC0809114018F708093E90080915B
:101E3000E80082FF63C08091E80085FF5FC050E04A
:101E400040E064E070E0CE0101960E94AB04809116
:101E5000E80085FD05C08091E8008B778093E8005D
:101E6000FA808F2D0E94E10E282FFD828B818E83B8
:101E70008C818F8321110AC08981843039F18730A8
:101E800029F1863029F121E0853039F630E0E5E0AE
:101E9000F0E0EC0FFD1FE30FF11DF0804FB7F89459
:101EA000D8011196EC911197F0E0CF0101961296AE
:101EB0006C9170E00E940634D8015C9158171906A5
:101EC00049F44FBF3F5F321710F3A7CF23E0DECFB7
:101ED00022E0DCCF13968D919C911497E80FF91FA7
:101EE000F08211968C91119790E0019612966C9168
:101EF00070E00E940634F8018183E3CF2796E5E085
:101F00000C945034A4E0B0E0E8E8FFE00C943234E4
:101F10007B01142FD22E4A832B830C83842F0E94A3
:101F2000E10E81113AC082E0E816F10489F183E004
:101F3000E816F10441F081E0E816F10429F5173FB5
:101F400029F485E004C087E0073F09F084E0898335
:101F50008091B5068430C1F480910F018F70809319
:101F6000E90050E040E064E070E0CE0101960E949C
:101F70008104811109C08091E80085FD05C0809130
:101F8000E8008E778093E8002496E7E00C944E34C6
:101F900087EFD812DBCF86E0DACF12951F70198356
:101FA000D7CF80E00895F894E82FE295EF70F0E045
:101FB00031A1282F2F7081E090E001C0880F2A9571
:101FC000EAF7982F9095932391A392A1892B82A34E
:101FD0007894089590916D0492FF10C041E0282FED
:101FE0002471243009F040E031E0282F2871283096
:101FF00009F030E0431711F02CE0822793FF10C066
:1020000041E0282F2471243109F040E031E0282FED
:102010002871283109F030E0431711F02CE08227B5
:1020200030916E0430FF10C051E0282F2171213013
:1020300009F050E041E0282F2871283009F040E0F5
:10204000541711F029E0822731FF10C041E0282FFA
:102050002171213109F040E031E0282F2871283129
:1020600009F030E0431711F029E0822794FD877EC4
:10207000089582389105B9F1B0F48133910509F4DE
:102080007DC048F48932910509F46DC08A3291050A
:1020900009F47BC008958533910509F45FC0893345
:1020A000910509F10895833E9105D9F138F4803EF8
:1020B000910529F1823E910579F10895863E9105B9
:1020C000D9F1873E910509F43EC0843E910541F562
:1020D00020916E0421FF24C080916D0484FD19C0FD
:1020E00087EE90E0089520916D04237009F05AC0A6
:1020F00020916E0423FF14C089E290E0089520919E
:102100006D0420FD38C030916E0430FF09C024FFFB
:1021100043C090E080E0089520916D0422FDF7CF48
:10212000089520916D0422FD3AC030916E0430FD77
:1021300039C024FFF5CFEDCF20916D0423FFF0CF00
:1021400024FDE7CFCDCF20916D0423FD2EC030912B
:102150006E0431FFEECF84EE90E0089520916D047F
:1021600025FFDECFC9CF20916D0425FD21C0209130
:102170006E0423FFD5CF89E390E0D2CF20916D0488
:1021800026FFCECF8AE290E0089520916D0426FFCD
:10219000C7CF81E390E0089583EE90E0089582EE4A
:1021A00090E0089580EE90E0089586EE90E0089526
:1021B00085E390E008951F93CF93DF930E94391039
:1021C000EC01C11580E5D807F0F5C11580E4D8070A
:1021D00008F0AAC0C03ED10520F5CD3CD10508F0DD
:1021E00090C0C83AD10578F4C53AD10508F081C04D
:1021F000C130D10519F1209709F1C430D105F0F4AF
:10220000D0E0C0E01BC0C33CD105D0F7C85AD0E035
:10221000CC0FDD1FC754DE4F0990D881C02DD46488
:102220000DC0C11580E2D80708F0C9C0C11581E012
:10223000D80708F068C0C83ED10510F7CE01DF917D
:10224000CF911F910895C03682E5D80718F5C034A4
:1022500082E5D80708F079C0C03282E5D80708F0D7
:102260006DC0C11582E5D80708F48FC02C2F2695C4
:10227000269580E2289F900111248C2F8370C1E065
:10228000D0E002C0CC0FDD1F8A95E2F7C22BD32B22
:10229000DD68D4CFC03C82E5D807F8F4C03A82E5C7
:1022A000D80708F067C0C03882E5D80708F0A8CF83
:1022B0002C2F26952695277080E2289F90011124C7
:1022C0008C2F8370C1E0D0E002C0CC0FDD1F8A9557
:1022D000E2F7C22BD32BDA68B1CFC03E82E5D80734
:1022E00008F08ECFDC2FCC27CC27DF71C06FD06AEF
:1022F000A5CFC55AD0E0CA54DE4FC881D0E0D06423
:102300009DCFD0659BCF8D2F0E94EA0F182FCE0155
:1023100099270E943910C12FD0E0DC2FCC27CC2781
:10232000DF71C82BD92B8ACFCE0199270E94391093
:10233000CC27DF70C82BD92BD06A80CFCF71D0E0EB
:10234000DC2FCC27C16FD06A79CF2C2F269526950C
:10235000277080E2289F900111248C2F8370C1E0A8
:10236000D0E002C0CC0FDD1F8A95E2F7C22BD32B41
:10237000DC6864CF8C2F8F710E94EA0FC82FD0E0E9
:10238000DC2FCC27CC27DF7159CF8C2F8F710E9487
:10239000EA0F55E0D695C7955A95E1F7CF70D0E092
:1023A000DC2FCC27282F30E084FF05C044E0220F2B
:1023B000331F4A95E1F7C22BD32BD0693FCF8D2F26
:1023C0008F710E94EA0F182FCE0199270E943910B1
:1023D000C12FD0E0DC2FCC27CC27DF71C82BD92B25
:1023E000D0622CCF8091F8069091BF06981301C05F
:1023F00008958F5F8770FACFA82FA77023E0969576
:1024000087952A95E1F7FC01EE0FFF1FE80FF91FF2
:10241000E60FF71F50E040E080E0219130E00A2E07
:1024200002C0369527950A94E2F721703327042ECF
:1024300001C0220F0A94EAF7822B4F5F5F4F4330AF
:10244000510559F70895963070F4883098F448E0B3
:10245000949F900111246EE374E0820F932F911DDD
:102460000E94FC1108959C5F923020F46BE374E0AD
:1024700090E0F6CF80E00895262F277091E001C00C
:10248000990F2A95EAF723E0769567952A95E1F763
:10249000FB01EE0FFF1FE60FF71FE40FF51F50E0E3
:1024A00040E0682F70E08191DF0111979B01042EBD
:1024B00002C0369527950A94E2F7217021952827C6
:1024C000292328272C934F5F5F4F4330510559F73D
:1024D0000895282F862F963068F4283050F438E07D
:1024E000939FB0011124620F711D4EE354E00E94CE
:1024F0003C1208959C5F9230E0F7622F70E04BE34E
:1025000054E0F5CF80933D05089590913D0521E07D
:1025100030E0F90101C0EE0F8A95EAF7D90102C057
:10252000AA0FBB1F6A95E2F7EA2B01C0220F4A955A
:10253000EAF7892F8E23E81305C0292B822F0E94EA
:102540008212089520952923F9CF21E030E001C0BF
:10255000220F8A95EAF7209580913D0582230E94FB
:102560008212089521E030E001C0220F8A95EAF737
:1025700080913D05822B0E94821208958093610410
:102580000895B0E0A0E0E7ECF2E10C943234082FBB
:10259000F62EE42E809105018823E9F0809138041D
:1025A00019E0811101C01CE0D0E0C0E08CE0D82E21
:1025B00080913804FE01D89EE00DF11D1124EA5DE2
:1025C000FE4F80812E2D4F2D602F90E00E94A70995
:1025D0002196C11768F3CDB7DEB7E7E00C944E340F
:1025E00080913904882321F083E00E9482120895AB
:1025F00081E0FBCFEDECF4E08081807F826080831E
:10260000EEECF4E0808180788567808381E00E9431
:10261000BE1281E00E94821261E08BE20E944A07B2
:1026200008959B01BA019091B5069430E1F480932E
:10263000E9009FEF8091E800915085FD06C085ED8F
:102640008A95F1F700009111F5CF8091E80085FFA0
:102650000AC050E040E0C9010E9481048091E80076
:102660008E778093E800089543E050E0BC0184E059
:102670000E9411130895CF93DF93EC0148E050E0DE
:10268000BC0181E00E94111388E0FE01ABEAB6E0D4
:1026900001900D928A95E1F7DF91CF910895809195
:1026A0004005882341F1539A3BB1377F2BB1286015
:1026B0004FB7F89481E495E0FC015191CF0168E0B7
:1026C0002BB9000000C057FF3BB9550F000000C0F8
:1026D00000C000C03BB900C06A9591F7F6E08D39A3
:1026E0009F0751F74FBF8FE594E00197F1F700C0C6
:1026F0000000109240050895CF93DF93C9EBD1E01D
:1027000060E0CE010E94FE342196C11584E0D80716
:10271000B9F7DF91CF9108950F931F93CF93DF9374
:10272000142F022F8430F0F461111CC094E0899FB3
:10273000E0011124C755DE4F82E090E0442311F000
:1027400090E080E0632F8C0F9D1F0E94FE3483E099
:1027500090E0112311F081E090E0602F8C0F9D1F1D
:102760000E94FE34DF91CF911F910F9108951F9326
:10277000CF93DF93122F8430E0F46630D0F44830EA
:10278000C0F490E1699FE001112450E0440F551F0F
:10279000C40FD51F90E6899FC00DD11D1124632F52
:1027A000CE0189960E94FE34612FCE018A960E9446
:1027B000FE34DF91CF911F9108958F929F92AF9237
:1027C000BF92CF92DF92FF920F931F93CF93DF932D
:1027D00007EB14E087E3C82E83E0D82EC0E0560153
:1027E000D0E015C0F401259134914F2D6D2F8C2F21
:1027F0000E94B71382E0880E911CF39488E0F812CF
:10280000F1CF80E1A80EB11CDF5FD63019F0450191
:10281000F12CE8CFF8012591349141E060E08C2F54
:102820000E948C13F80132962591349140E060E0CB
:102830008C2F0E948C130C5F1F4FCF5F80E6C80E59
:10284000D11CC43009F0CBCFDF91CF911F910F91F4
:10285000FF90DF90CF90BF90AF909F908F900895A2
:10286000CF93C82F6FEF811163E285E290E00E9461
:10287000FE346FEFC11169E086E290E00E94FE3401
:102880006FEFC11162E187E290E00E94FE34CF91C8
:10289000089580E00E94301460E088E290E00E9499
:1028A000FE340E94DD130E947C1381E00E943014EC
:1028B0000895FF920F931F93CF93DF93F42E8430EC
:1028C00040F5611126C024E0829F80011124075544
:1028D0001E4F82E090E0442311F090E080E0800FF2
:1028E000911F0E94E034C82FD0E0DC2FCC2783E07A
:1028F00090E0FF2011F081E090E0800F911F0E9496
:10290000E0349E01282BC901CDB7DEB7E5E00C9479
:10291000503490E080E0F8CF0F931F93CF93DF9374
:10292000843030F5663020F5483010F520E1629FA4
:102930008001112450E0440F551F040F151F30E68D
:10294000839F000D111D1124C80189960E94E03457
:10295000C82FD0E0DC2FCC27C8018A960E94E03433
:102960009E01282BC901DF91CF911F910F910895EE
:1029700090E080E0F8CF462F672F763038F448306B
:1029800060F4843050F40E948C1408957D3F41F42B
:10299000411103C041E0843048F090E080E00895A8
:1029A0007C3FD9F74111F9CF8430B8F760E00E943D
:1029B00059140895CF92DF92FF920F931F93CF93F4
:1029C000DF936C0100913D0580916104082BC3E009
:1029D000D0E010E0FC2EC8010C2E02C09595879522
:1029E0000A94E2F780FD0CC02197A0F7F12C8F2DFF
:1029F000DF91CF911F910F91FF90DF90CF900895BD
:102A0000B6018C2F0E94BB140E94DB10019761F36A
:102A1000EECFCF93DF93EC010E94DA14BE010E9447
:102A2000BB140E94DB10DF91CF910895FC0124813B
:102A30002223C1F0808191810E94091592959F7097
:102A4000963091F058F4925F9F70923058F4803F26
:102A500019F030F4883E30F481E008959A5FF4CFA5
:102A6000843FD1F380E00895883EB0F3813FD1F7F1
:102A7000F3CFA6E0B0E0EFE3F5E10C943634498300
:102A80005A8349815A819923A1F0222391F0CA01E6
:102A90000E94DA14182F682F89819A810E94691286
:102AA00069817A81812F0E94BB142696E3E00C9401
:102AB0005234CA010E942312182FF2CF85E290E00F
:102AC0000E94E034833289F486E290E00E94E03490
:102AD000893059F487E290E00E94E03491E082313D
:102AE00009F090E0892F8170089580E0FCCF48E0E4
:102AF00050E068E170E08DEF96E00E94EE341092B5
:102B00003F050895EDEFF6E085E380838091230192
:102B100090912401A091250181839283A3838FE763
:102B200084838FEF85830E9477150895B0E0A0E03D
:102B3000ECE9F5E10C942A34182F80911D018113E2
:102B400023C09091FD06937020911C0130E081E03C
:102B50009217130609F480E081708093220180911E
:102B6000020790912101981739F08093210140E0EC
:102B700060E080E00E94A4091D3260F4E12FF0E0E3
:102B8000E957FA4C0C941A3481E0E6CF8091220187
:102B9000811102C080E03EC140E060E080E00E9420
:102BA000A409F8CFC091200188E1C89FC02D11244D
:102BB00008E10C0FF02E053710F0F4E7FF2E6091BE
:102BC000FE067091FF06809100070E942F0BE62EF3
:102BD000D72EC82ED0E0CF1528F081E0043708F4B6
:102BE00019C1D8CFFE01E654FC4F8081909121019C
:102BF000892331F02C2D4E2D6D2DCE010E94A70979
:102C00002196E9CFC091200188E1C89FC02D1124F1
:102C100008E10C0FF02E053710F0E4E7FE2ED090FF
:102C2000FF06E0900007D091FE066D2F7D2D8E2DC2
:102C30000E942F0BC62EB72EA82E609101076D0F94
:102C40007D2D8E2D0E942F0BE62ED72E982ED0E0B4
:102C5000CF1518F6FE01E654FC4F908180912101BA
:102C6000892359F0292D4E2D6D2D90FD03C02A2D5D
:102C70004C2D6B2DCE010E94A7092196E9CFC09162
:102C8000200188E1C89FC02D112408E10C0FE02E1F
:102C9000053710F074E7E72ED090FF06C0900007CC
:102CA0002091010760E4F62E3F2D329F312D112433
:102CB000F32ED0E0CE1508F090CFFE01E654FC4F85
:102CC0008081909121018923B9F0FE01EE0FFF1F51
:102CD000EE55FD4F81A982958F706091FE068F9D04
:102CE000600D11247D2D8C2D0E942F0B462F282F37
:102CF000672FCE010E94A7092196DCCFC091200149
:102D000088E1C89FC02D112408E10C0FE02E053783
:102D100010F044E7E42ED090FF06C0900007209109
:102D2000010730E4F32E3F2D329F312D1124F32E75
:102D3000D0E0CE1508F051CFFE01E654FC4F808163
:102D4000909121018923D9F0FE01EE0FFF1FEE556E
:102D5000FD4F60A9F69EB001112495E07595679529
:102D60009A95E1F78091FE06680F7D2D8C2D0E94CB
:102D70002F0B462F282F672FCE010E94A7092196DF
:102D8000D8CFC091200188E1C89FC02D112408E14F
:102D90000C0FF02E053710F0B4E7FB2EE090FE0686
:102DA000D091FF06D0900007609101076695669567
:102DB00066958091F9069091FA060E94250B0E9473
:102DC000760A805887FD8195880F282F3D2D239FF7
:102DD000212D1124822F6E2D7D2F0E942F0BE62E88
:102DE000D72EC82ED0E0CF1508F0F7CEFE01E6545E
:102DF000FC4F808190912101892331F02C2D4E2DA3
:102E00006D2DCE010E94A7092196EDCF8BE799E0A9
:102E10000E943B0D909120019F5F909320018111B2
:102E20000CC082E080931E0180912201811105C0B7
:102E3000111103C083E080931E01CDB7DEB7EFE030
:102E40000C94463481E599E0E3CF88E59AE00E944E
:102E5000480EE0CF89E39AE0FACF8EE19AE00E9433
:102E6000DB0DD8CF82E09AE0FACF8FE499E0D0CFA3
:102E700086E499E0CDCF8DE399E0CACF84E299E072
:102E8000C7CF86E199E0EBCF8DEF9AE0E0CF81EFFD
:102E900099E0DDCF8DED99E0E2CF89EE98E00E94D8
:102EA000850DB8CF8BEB98E0FACF84E898E0F7CFA8
:102EB000C091200188E1C89FC02D112408E10C0FAA
:102EC00080912201811120C06091010720E1620FF1
:102ED00008F46FEF8091F9069091FA060E94250B95
:102EE0006AE070E00E94F233892B09F076CE0E94EE
:102EF000B80AA4E78A9FC001112460912101892F9B
:102F000090E00E94C30B69CE802F053708F084E75C
:102F1000D0E0E82EF12CCE15DF050CF05ECE6091EE
:102F20002101CE010E94C30B2196F5CFC091200153
:102F300088E1C89FC02D112408E10C0F8091220167
:102F4000811120C06091010720E1620F08F46FEF4A
:102F50008091F9069091FA060E94250B65E070E0D9
:102F60000E94F233892B09F038CE0E94B80AB4E7E8
:102F70008B9FC001112460912101892F90E00E9454
:102F80009E0E2BCE802F053708F084E7D0E0E82E88
:102F9000F12CCE15DF050CF020CE60912101CE0181
:102FA0000E949E0E2196F5CFC091200188E1C89F16
:102FB000C02D112408E10C0FF02E053710F0A4E706
:102FC000FA2ED090FF06E0900007D091FE066091A7
:102FD00001076695669566958091F9069091FA06C7
:102FE0000E94250B0E94760A805887FD8195880FE4
:102FF000682F2CE0629F612D11246D0F7D2D8E2D89
:103000000E942F0BE62ED72EC82ED0E0CF1508F049
:10301000E4CDFE01E654FC4F80819091210189238B
:1030200031F02C2D4E2D6D2DCE010E94A709219639
:10303000EDCF85E99AE0ECCE83E798E0E9CEB09059
:10304000200188E1B89EB02C1124F8E1AF2EAB0C22
:103050008A2CF4E7FA1510F4E4E78E2E8091220111
:10306000882361F040E060E080E00E94A409E6ED82
:10307000F4E080E3DF011D928A95E9F78091200159
:10308000811115C08091D2049091D3040E94F4055F
:1030900021E08931910508F420E02093D10449977B
:1030A00030F00E940F069093D3048093D204C12C79
:1030B000912CD12C65E5662E7AEA772E552453940F
:1030C00005C0A7E1A91508F454C0D12C2D2D30E07E
:1030D000B8E0CB9EE0011124FE01EE55FD4FE20F5A
:1030E000F31FE080EB1408F43CC0E81408F039C08A
:1030F0009394F12CF701E654FC4F808190912101CB
:10310000892309F42EC0CA52DB4FC20FD31F088196
:10311000302F262D321B08F430E07091FF06272D4A
:10312000200F08F42FEF40910007822F880F820FA5
:103130008E5F282F249F212D1124822F672D631B42
:103140000E942F0B462F282F672FC7010E94A70927
:103150008091D104882329F0352D031B08F400E069
:103160000883D39488E0D812B1CFC39496E0C912F3
:10317000A8CF81E0B3E7BA1508F04CCE0BCD009193
:103180000007E3E00E9FE0011124D695C795D69580
:10319000C7955C2EA02EB12C8FEF90E0B5010E9458
:1031A0000634762E80912201882371F040E060E0A1
:1031B00080E00E94A409E6EDF4E080E3DF011D92C7
:1031C0008A95E9F71092D5048091D4048F5F80939B
:1031D000D404F12CE12CAC1ABD0A6701612CD70193
:1031E000AA52BB4F4D018091D504862909F045C0F4
:1031F0000E94AA34853595400CF03FC0F40100834D
:10320000F601EE55FD4FE081EF3FD1F0D601AA5215
:10321000BB4F2C91F0E0521608F040C030E02C1B60
:103220003D0B2C9FC0012D9F900D3C9F900D1124B4
:10323000B5010E94F233262F402FCF010E94A7092B
:103240006394F8E0CF0ED11C26E06212CCCF3FEFA2
:10325000E31AF30A88E0E816F10409F0BECF809182
:10326000D404781202C01092D4048091D5048F5FE8
:103270008D31F0F48093D5048DCCF601EA52FB4FEA
:103280008081882309F4BCCF801708F0B9CF9091D2
:10329000D4047912B5CF81508083B2CF029FC00190
:1032A0001124BE010E94F233462F20E060E0C5CF1A
:1032B0001092D50426EF34E085E04EED54E09FEF08
:1032C000900FA6EDB4E0F901853041F498966C9129
:1032D0009897061303C098969C93989760816017FF
:1032E00010F090830087119631964A175B0761F7BB
:1032F0008150285031098111E4CF4CCC8CE698E004
:103300000E94C80C87CD86E698E0FACF8091050729
:1033100021E0382F321B08F430E0832F6DE478E091
:103320000E94FE0B77CD6DE478E080E0F9CF8091CC
:10333000050721E0382F321B08F430E0832F62E1CB
:1033400078E0EECF62E178E0F0CF8091050721E0F0
:10335000382F321B08F430E0832F60EE77E0E0CFA7
:1033600060EE77E0E2CF8091050721E0382F321B35
:1033700008F430E0832F68EC77E0D2CF68EC77E098
:10338000D4CF8091050721E0382F321B08F430E0BC
:10339000832F62EB77E0C4CF62EB77E0C6CF67E8BC
:1033A00077E0C3CFC091200188E1C89FC02D1124D0
:1033B00008E10C0FA02E053710F044E7A42E209151
:1033C000010730E050E040E06FEF7FEF80E090E0F9
:1033D0000E9422356901D0E0CE01880F991FDC01DF
:1033E000AE55BD4F7D0132E8932ECA1508F0F5CBDE
:1033F000FE01E654FC4F808190912101892319F14F
:103400007090FF0680900007B090FE06409105077F
:103410004150042E000C550B47FF1AC0C6016091A5
:1034200001070E94250B692D282F621B08F460E01C
:103430006B0D772D882D0E942F0B462F282F672F7D
:10344000CE010E94A709219632E0E30EF11CCDCFF8
:10345000FA01EB5FF84F9181F70180A998130AC038
:10346000FA01EE0FFF1FEB5FF84F878D90A18C15CF
:103470009D05A8F241505109CFCF90912001C8E19C
:103480009C9FC00D11240E94AA34D82F0E94AA34F8
:103490006D2F782F809100070E942F0B482F872FC8
:1034A0000E94A40981E0C43708F4B4CC73CB4F92D6
:1034B0005F926F927F928F929F92AF92BF92CF92C4
:1034C000DF92EF92FF92CF93DF93C0903905D090B7
:1034D0003A05E0903B05F0903C058FB7F89440909A
:1034E000A4065090A5066090A6067090A7068FBF10
:1034F000530142018C189D08AE08BF080E940306C4
:103500006093390570933A0580933B0590933C0591
:10351000A0910605E6E0F5E02A2F30E04FEFC40E5B
:10352000D41EE11CF11CC418D508E608F708A31343
:103530002BC02093060520913E05C0E0211108C054
:103540002091FD06C22FC37019F0C22FC695C695F3
:1035500020911E01213009F441C0222341F1223083
:1035600009F4A0C0233009F4A8C0DF91CF91FF90E7
:10357000EF90DF90CF90BF90AF909F908F907F9013
:103580006F905F904F900895478D50A12A01712C44
:10359000612CC414D504E604F70420F421503F5FE5
:1035A0003296C5CF480D591D50A3478FF8CF1092C2
:1035B00020016093F9067093FA068093FB069093BE
:1035C000FC0683E3E6E0F5E0A5E0B7E001900D92AC
:1035D0008A95E1F781E080931E01C7CF8C2F0E946E
:1035E0009615CC2311F280912001853009F0BDCFD2
:1035F0008091FD06837009F4B8CF80913D0583303A
:1036000009F44CC048F4813009F0AFCF46E061E2E4
:103610008BE20E94C112A9CF8850C1E0D0E089306E
:1036200008F0A3CF29E143E360E0CE010E94A7099F
:103630002196C530D105B1F729E143E360E085E08B
:1036400090E00E94A70929E143E360E086E090E072
:103650000E94A70926E041E26BE289E290E00E9425
:10366000A70926E041E26BE28EE490E00E94A70900
:1036700026E041E26BE283E790E00E94A709C4E202
:10368000D2E089A129E143E360E090E00E94A7092C
:10369000269682E0C237D807A1F767CF40E069E1FC
:1036A00083E3B7CFC0931D018091FD0683708093A3
:1036B0001C010E944F1383E08ECF80913F05811142
:1036C0000E9477154091F9065091FA066091FB0629
:1036D0007091FC062FB7F8948091A4069091A506EE
:1036E000A091A606B091A7062FBF841B950BA60B31
:1036F000B70B4097A105B10508F437CF10921E0112
:1037000034CF90E080E00E94E834863E9E4F19F46A
:103710000E945E15089580E00895A6E0B0E0E3E918
:10372000FBE10C942E348E010F5F1F4F86E0F801F1
:1037300011928A95E9F78FEEC82E81E0D82EF12CF0
:10374000E12CAA24A394B12CF60181916F018F3F43
:1037500009F443C0F894E82FE295EF70F0E021A15E
:103760008F70A50102C0440F551F8A95E2F7CA0168
:10377000922F982B91A392A18095892382A378946C
:1037800000C0E5EFF1E0912C31E021912F3F09F4E9
:1037900065C0A22FA295AF70B0E090968C9190E09A
:1037A0002F7002C0959587952A95E2F780FD56C047
:1037B000832F982A330F51E0ED3FF50731F7F601DB
:1037C000319780818F3F11F00E94D30F80EA8A9554
:1037D000F1F7F801EE0DFF1D9082EFEFEE1AFE0AF1
:1037E000F6E0EF16F10409F0AFCF46E050E0B80183
:1037F00087E694E00E94BA34892B91F186E0F801C3
:10380000A7E6B4E001900D928A95E1F781E08093FC
:1038100066040E940F06909365048093640480916F
:103820006404909165040E94F4050597E8F046E071
:1038300050E067E674E08BE794E00E94BA34892B8D
:10384000C1F086E0E7E6F4E0ABE7B4E001900D926A
:103850008A95E1F781E01092660407C080E0A9CF65
:10386000809166048111DBCF80E02696EBE00C941A
:103870004A3480E0F0CF8091600490915F04892BFE
:103880008093300448E050E067E574E080E394E022
:103890000E94BA34892BA9F088E0E0E3F4E0A7E5C0
:1038A000B4E001900D928A95E1F7E0919F06F091C6
:1038B000A006309731F00280F381E02D80E394E0A0
:1038C0000995089510926004E2E3F4E086E0DF01D8
:1038D0001D928A95E9F790E080E00E945A0690E0F8
:1038E00080E00E94350610925F040E943B1C089500
:1038F000AAE2B0E0EEE7FCE10C94363487EB96E008
:103900002091F100DC012D93CD01B6E08F3B9B07A8
:10391000B9F78091B806833009F472C0B8F48130E9
:1039200009F449C0823009F4B3C08091E80083FFF4
:1039300096C28091B7069091B8069A3008F08FC26F
:10394000E92FF0E0EC54FA4C0C941A348A3009F464
:103950008EC08B3009F471C0893039F78091B70679
:10396000813219F78091BB069091BC06009711F047
:103970000297D9F68091E800877F8093E8008091D4
:10398000E80082FF38C09091F3008091F200029726
:1039900031F48091F100813011F0863021F4809172
:1039A000F1008093AA068091E8008B778093E8006D
:1039B0000E94D504BACF8091B706813A09F0B5CFFD
:1039C0008091E800877F8093E8008091BB0690910A
:1039D000BC06892B61F468E08BEA96E070E00E94F7
:1039E00081058091E8008B778093E8009ECF60E0AE
:1039F00090E080E0F3CF8091B5068111C0CF95CFE4
:103A00008091B706813A09F090CF8091BB069091E2
:103A1000BC06892B09F089CF8091E800877F8093CD
:103A2000E8008091E80080FFFCCF80911F01809327
:103A3000F1008091E8008E77B9CF8091B70681328E
:103A400009F073CF8091BB069091BC06892B09F0D9
:103A50006CCF8091E800877F8093E8000E94D504B6
:103A60008091B90680931F010E94621C5ECF8091F5
:103A7000B706813209F059CF8091E800877F8093A3
:103A8000E8000E94D5048091BA068093A9064DCF24
:103A90008091B706813A09F048CF8091E800877F8E
:103AA0008093E8008091E80080FFFCCF8091A90618
:103AB000BECF803899F0823809F0D1C18091BB0621
:103AC0008F70873008F0CBC18093E9008091EB00C4
:103AD00085FB882780F91092E90006C08091B30623
:103AE0009091B406911182609091E800977F909335
:103AF000E8008093F1001092F1008091E8008E7749
:103B0000AAC1882309F498C1823009F0A8C1809124
:103B1000B90681119BC18091BB068F702FEF280FD2
:103B2000263008F09CC18093E9002091EB0020FF33
:103B30008DC1933031F48091EB0080628093EB0073
:103B400085C19091EB0090619093EB0021E030E013
:103B500001C0220F8A95EAF72093EA001092EA004A
:103B60008091EB008860EACF811179C11091B9068C
:103B70001F778091E3008078812B8093E300809110
:103B8000E800877F8093E8000E94D5048091E800D8
:103B900080FFFCCF8091E30080688093E30082E0A7
:103BA000111183E08093B5065AC18058823008F025
:103BB00056C12091B9063091BA062C3DE3E03E078C
:103BC000A1F583E08A838AE289834FB7F894DE0106
:103BD000139620E03EE051E2E32FF0E050935700CF
:103BE000E49120FF03C0E295EF703F5FEF708E2FEE
:103BF00090E0EA30C0F0C7968D939D932F5F2431FB
:103C000059F74FBF8091E800877F8093E8006AE210
:103C100070E0CE0101960E9481058091E8008B77CB
:103C20008093E8001CC1C096E7CF8091BB069091BD
:103C3000BC06432F55274330510509F44AC078F597
:103C40004130510509F47AC08FEB90E0E7ECF4E0E5
:103C50004230510509F003C12091E800277F2093ED
:103C6000E8002091BD063091BE068217930708F444
:103C70009C0140E02115310509F065C0411163C088
:103C80008091E80082FDC9CF8091B506882329F292
:103C9000853019F28091E80083FFF2CFBECF413228
:103CA000510509F43CC04232510509F0D8C08330B7
:103CB000910508F0D4C0FC01EE0FFF1FEA56FD4F3E
:103CC0000190F081E02D8D569D4FDC018C9190E0AC
:103CD0001AC0332721303105D1F02115310561F0AB
:103CE0002230310509F0BBC0E8E9F5E0E4918E2F00
:103CF00090E0E8E9F5E007C0E8ECF5E0E4918E2F0C
:103D000090E0E8ECF5E0009709F4A9C0A5CFE8EB56
:103D1000F5E0E4918E2F90E0E8EBF5E0F4CF83300E
:103D2000910508F09CC0880F991FFC01E456FD4FD7
:103D30000190F081E02D89E090E08ECF82E190E06B
:103D4000E6E8F5E089CF8091B506882309F465CFD0
:103D5000853009F462CF8091E80083FD5ECF8091C9
:103D6000E80082FD8DCF8091E80080FF83CF9091A5
:103D7000F3008091F2002115310519F0883091058A
:103D800050F041E0089709F040E08091E8008E771C
:103D90008093E8006FCF44914093F1003196215019
:103DA00031090196E8CF803809F059C08091E800C8
:103DB000877F8093E8008091B6068093F1009DCEC6
:103DC00081114DC01091B906123008F048C08091A1
:103DD000E800877F8093E8001093B6060E94D50420
:103DE000112311F084E005C08091E30087FDFACF34
:103DF00081E08093B50642E061EC81E00E94F4042A
:103E000042E261EC84E00E94F40442E261EC82E070
:103E10000E94F40442E260EC83E00E94F40442E376
:103E200061E885E00E94F40442E360E886E00E94D5
:103E3000F4048091B50613C08091B906813079F4FD
:103E400081E0933009F080E08093B4061092E9009D
:103E50008091E800877F8093E8000E94D5048091DC
:103E6000E80083FF0AC08091E800877F8093E80024
:103E70008091EB0080628093EB00AA96E3E00C94C3
:103E800052340E94621C2FEF84E39CE0215080405A
:103E90009040E1F700C0000088E19AE00FB6F89486
:103EA000A895809360000FBE90936000FFCF882399
:103EB00041F08095909160048923809360040E9472
:103EC0003B1C0895882339F090916004982B9093BF
:103ED00060040E943B1C08958823C1F19CEF980F59
:103EE000913A78F4E2E3F4E09191891303C0DF01A1
:103EF00011971C9244E0E833F407B1F70E943B1C91
:103F0000089590E2980F983088F4877021E030E0AF
:103F1000A90102C0440F551F8A95E2F7CA01809596
:103F200090916004892380936004E8CF9BE5980F0B
:103F3000933028F490E080E00E945A060895885A51
:103F40008B3120F490E080E00E9435060895CF93F5
:103F5000C82F8823B1F08CEF8C0F813A00F5E2E393
:103F6000F4E088E394E0DF012D91C21761F08A1735
:103F70009B07D1F76C2F80E394E00E941B060E9400
:103F80003B1CCF9108952191C21303C0DF0111970B
:103F90001C928E179F07B9F70E943B1CEBCF80E263
:103FA0008C0F883068F4C77021E030E001C0220F28
:103FB000CA95EAF780916004822B80936004DFCF7A
:103FC000EBE5EC0FE33040F4F0E0EA54FE4F808183
:103FD00090E00E945A06D5CFC85ACB3190F6EC2F0C
:103FE000F0E0EE0FFF1FE754FE4F808191810E94A9
:103FF0003506C7CF1F93CF93DF93182FD0E0C0E0D3
:10400000893311F4C0E5D0E0812F0E94A71F2097CB
:1040100039F4812F0E946C1FDF91CF911F91089579
:104020008FE99FE00197F1F700C000002197EFCFE3
:104030000F931F93CF93DF93C62FD42F022FFC0132
:1040400085818823A9F0609327080E940F0690932A
:10405000260880932508C77081E001C0880FCA95A3
:10406000EAF70E94621FDF91CF911F910F9108958F
:1040700080912708681332C0809125089091260806
:104080000E94F405883C910548F510E21D0FCD17FC
:10409000B9F080E28C0F883040F4C77081E001C035
:1040A000880FCA95EAF70E94571F183048F481E03C
:1040B0009D2F977001C0880F9A95EAF70E94621FA2
:1040C000802F0E94FA1F183070F6D77081E001C06F
:1040D000880FDA95EAF70E94571FC5CFC77081E0B5
:1040E00001C0880FCA95EAF7F6CFB0E0A0E0EBE791
:1040F000F0E20C943234E82FF0E0E954FD4FD49014
:10410000282F26952695269530E0F901E955FD4F93
:104110000491877010E0082E02C0159507950A9447
:10412000E2F701701127F901E956FD4FE490F12CF7
:10413000082E02C0F594E7940A94E2F791E0E92290
:10414000FF24F901E957FD4FC491D0E002C0D59595
:10415000C7958A95E2F7C170DD270115110519F0A1
:1041600081EE0E94A71FE114F10419F086EE0E946F
:10417000A71F8D2D0E94FA1FE114F10419F086EE9D
:104180000E946C1F0115110519F081EE0E946C1F31
:10419000CD2B19F08CE20E94FA1FCDB7DEB7E7E015
:1041A0000C944E34A8E0B0E0E8EDF0E20C942E342C
:1041B0007C01DC0114968C911497882309F4A7C024
:1041C00021E04C9111965C91119712966C91129787
:1041D00013967C91139715969C910E9439158C012A
:1041E000F70195819801992309F445C7375720387D
:1041F000310508F073C7003108F089C08FEF93E0F4
:104200000E94E034811183C039EBE32EFF24F39444
:1042100001114AC0FE01339686E0DF011D928A95A6
:10422000E9F72AE0B22E87010F5F1F4FC7010E94F6
:10423000E03489831A82882309F469C0813009F047
:104240006AC06701B2E0CB0ED11CC8010E94E03405
:104250008A83882309F45BC09FEF980F933090F511
:10426000E3E0EE0EF11CC6010E94E0348B8388234C
:1042700009F44DC01C828E010F5F1F4FD8018C9135
:10428000882389F2813009F07FC011969C911197A3
:1042900012968C91913009F040C00E5F1F4F0E9422
:1042A000FA1F0F5F1F4FEACFE114F4E0FF0679F128
:1042B000C7010E94E034811101C001502FEFE21AC2
:1042C000F20AA6CF76018430B1F602E010E0760162
:1042D000FFEFEF1AFF0AC6010E94E034E1E0F0E0D0
:1042E000EC0FFD1FE00FF11F8083882381F08C37D6
:1042F00041F4E2E0F0E0EC0FFD1FE00FF11F10824F
:10430000BACF0F5F1F4F67010730110501F72896DD
:10431000EBE00C944A347801AECF923029F40E5F72
:104320001F4F0E94A71FBDCF933029F40E5F1F4F70
:104330000E946C1FB6CF943019F00F5F1F4FB1CFA2
:104340000E5F1F4F30E020E0B8016F5F7F4FF80134
:1043500041818053990B8A30910558F021503109E1
:1043600008F49FCF8FE99FE00197F1F700C00000AC
:10437000F5CFB29EF001B39EF00D11249C012E0FDB
:104380003F1F842F8B01E0CF0E9475208ACF84E4E9
:10439000A82E81E0B82E9AE0992EF5018491882309
:1043A00009F485C0813009F050C06501FFEFCF1AD4
:1043B000DF0AF6018491813069F46501F2E0CF0EE5
:1043C000D11CF60184910E94FA1F5601EFEFAE1A3C
:1043D000BE0AE3CF823049F46501F2E0CF0ED11C72
:1043E000F60184910E94A71FF0CF833049F4650144
:1043F000F2E0CF0ED11CF60184910E946C1FE5CF34
:10440000843019F76501F2E0CF0ED11CF60124913A
:1044100090E080E0F60131962053330B2A303105CD
:1044200048F0019790F2AFE9BFE01197F1F700C0B3
:104430000000F7CF989EA001999E500D1124C9014C
:10444000840F951F24916F01E5CF0E9475206501AF
:10445000BCCF992361F18091CD048F708093CD04FE
:104460001092380481E080930401109239040E9474
:10447000F0121DC09923D9F08091CD048F708093E4
:10448000CD041092380491E0909304018091390496
:10449000892780933904EBCF80913D05813039F431
:1044A00080913804882319F1815080933804F701F2
:1044B0009581992309F4C7C51092270898013057B0
:1044C0002332310508F0A9C584E090E00E94E83469
:1044D00090936E0480936D04F801E150F047E2324E
:1044E000F10508F09EC2E254FA4C0C941A348BE0A9
:1044F000DCCF9923E1F280913D058130C1F68091B6
:1045000038048B3010F48F5FD0CF80E0CECF99236A
:1045100071F28091050191E0892780930501C7CF51
:10452000992329F290913D058091CD049B3081F42F
:104530009091040121E029272093040190933804ED
:10454000992321F0806F8093CD04B1CF8F70FBCF82
:104550001092040191E090933804806F8093CD0411
:104560009093390484CF0535A1E71A0709F42FC1C8
:104570000635B1E71B0709F0A6C5992309F4C7CE94
:104580008091CD04982F9F70993008F0C0CE9F5F26
:1045900028C10137E1E71E07A8F50636F1E71F0736
:1045A00008F042C1043621E7120709F42BC1053691
:1045B00031E7130709F087C5992309F4A8CE2091A4
:1045C000CD04822F859585958595859586300CF04F
:1045D0009ECE91E0980F9295907F959595959595A3
:1045E0009595392F3295307F2F70232B2093CD0452
:1045F00018160CF08CCE97FF8ACE8295807F922F72
:104600009F70F1C00137100709F41EC1023761E73E
:10461000160709F058C5992309F479CE8091CE0484
:10462000982F9F779F3709F472CE933708F022C1F5
:10463000935F9F7780781CC1093871E7170709F4E9
:104640006FC1C8F50538A1E71A0709F445C1D8F4C8
:104650000338E1E71E0709F422C10438F1E71F0718
:1046600009F031C5992309F452CE2091CE04322F9E
:10467000331F3327331F9091CF04892F8770880F02
:10468000832B8F5F1CC18091CE042091CF0407380B
:1046900031E7130709F430C108F038C140E0911147
:1046A0004FE7881F8827881F2770220F60E4822B1E
:1046B0000E941E032CCE0C3861E7160709F44CC18A
:1046C00080F40A3881E7180709F438C10B38A1E7EC
:1046D0001A0709F0F8C48FEF911181E080938304E9
:1046E00016CE0E38B1E71B0709F46BC108F454C1AC
:1046F0000F38F1E71F0709F0E6C48091CE04282F98
:10470000221F2227221F8091CF048770880F822BBF
:104710006FEF7FE1992309F463C10E940503F7CD90
:104720008091CE04282F221F2227221F4091CF04E0
:104730004770440F422B8F772DEF200F30E0B901E7
:104740006B577B4F7B01DB012C91992309F12F3FA4
:1047500009F0DDCD1091CD04912F9F701595159521
:10476000159515951350BCE09B9F100D1124100F4B
:10477000212F2F774069E0913807F0913907082FF2
:1047800063E070E088E397E00995F7011083BFCDFF
:104790002F3F61F02F774068E0913807F09139079B
:1047A000082F63E070E088E397E009958FEFD70169
:1047B0008C93ADCD992309F4AACD0B54E02FEF7063
:1047C0000091CD04007F0E2B0093CD04A0CD992342
:1047D00009F49DCD8091CD04982F9F7009F497CD59
:1047E000915F9F70807F892B8093CD0490CD99231A
:1047F00009F48DCD0D55E02FE295E07F0091CD04B9
:104800000F70E1CF992309F482CD8091CD04982FC8
:1048100095959595959595959B3F0CF478CD915FE1
:104820009295907F8F70DFCF992309F470CD065653
:10483000ECE00E9FE02D1124EF770091CE0400787C
:104840000E2B0093CE0463CD992309F460CD8091A3
:10485000CE04982F9F7709F45ACD80789F3721F4A2
:1048600085678093CE0453CD9D30D8F39D509F77BC
:10487000892BF7CF8F67F5CF992309F448CD0357DC
:104880008091CE0400FB87F98093CE0406950770D3
:104890008091CF04887F082B0093CF0438CD9923D3
:1048A00009F435CD2091CE04322F331F3327331F27
:1048B0009091CF04892F8770880F832B815F382FC9
:1048C0003F7080FB27F92093CE04832F8695987F35
:1048D000982B9093CF041BCD992309F418CD909178
:1048E000CE04991F9927991F8091CF048770880F54
:1048F00040E06BE7892BDCCE40E091114FE7881F49
:104900008827881F2770220F61E4D1CE40E09111E3
:104910004FE7881F8827881F2770220F62E4C7CEC1
:1049200040E091114FE79091CE04991F9927991F6C
:104930008091CF048770880F63E4DCCF40E0911151
:104940004FE79091CE04991F9927991F8091CF042A
:104950008770880F64E4CECF992309F4D8CC909166
:10496000CF04292F2695269526952F7081E0820F5A
:104970008F70880F880F880F9778892B8093CF04CA
:10498000982F987709F0C3CC220F220F220F877837
:10499000822B8093CF04BBCC992309F4B8CC8091AF
:1049A000CF04982F987709F4B2CC982F96959695C6
:1049B0009695915F9F70990F990F990F8778892B22
:1049C000E8CF8091CE04282F221F2227221F80911A
:1049D000CF048770880F822B60E070EE91119DCE1E
:1049E00070E060E09ACE26E241EE61EEC7010E94DF
:1049F00018208DCC27E245EE65EEF8CF26E241EE99
:104A000060EEF4CF27E245EE64EEF0CF26E241EE11
:104A100062EEECCF27E245EE66EEE8CF28E241E019
:104A2000EBCF80916D04816080936D0495C080917F
:104A30006E04886080936E048FC080916D048260E4
:104A4000F3CF80916D048460EFCF80916D04886016
:104A5000EBCF80916E048160EDCF80916E04826017
:104A6000E9CF80916D048061DFCF80916D04806219
:104A7000DBCF80916D048064D7CF0E94621C80914F
:104A80006D048068D1CF80916D048C60CDCF809112
:104A90006E048360CFCF80916D048E7FC5CF8091EF
:104AA0006E04877FC7CF80916D048D7FBDCF8091CD
:104AB0006D048B7FB9CF80916D04877FB5CF8091D6
:104AC0006E048E7FB7CF80916E048D7FB3CF8091BF
:104AD0006D048F7EA9CF80916D048F7DA5CF8091CD
:104AE0006D048F7BA1CF0E94621C80916D048F7733
:104AF0009BCF80916D04837F97CF80916E048C7FD4
:104B000099CF80916D0482FB992790F921E092273B
:104B100090FB82F990FB83F987CF80916E04982FE8
:104B2000909591708E7F892B90FB81F983CF909126
:104B30006D04892F8F7B96FF806476CF0E94621C64
:104B400090916D04892F97FB87F980586DCF61E0B4
:104B50008EE090E00E94FE3460916D0470916E04CE
:104B600084E090E00E941C350E94621CD0CB60E083
:104B7000EFCF90916D04892F8F7E94FF806154CF89
:104B800090916D04892F8E7F90FF81604DCF909121
:104B90006E04892F877F93FF88604CCF85E35DC2C9
:104BA000809160048272F801E052F847E531F10526
:104BB00008F054C0E052FA4C0C941A348091FD066F
:104BC00091E089278093FD0610921E0180913F0598
:104BD000816080933F059BCB43E657E06EE677E02C
:104BE0000E948C0694CB4EE657E063E677E0F8CF60
:104BF00044E357E06FE377E0F3CF4FE357E064E33C
:104C000077E0EECF48E157E066E277E0E9CF46E2B1
:104C100057E068E177E0E4CF4CEF56E06AE077E0F8
:104C2000DFCF4AE057E06CEF76E0DACF4DEC56E0AC
:104C30006BED76E0D5CF4BED56E06DEC76E0D0CF66
:104C400061E081E00E944A0762CB61E085E0FACF33
:104C500061E08DE0F7CF61E082E1F4CF0737FCE758
:104C60001F0781F108372CE71207A9F1D7010D9131
:104C70001C91992309F452C0C8010E94DA14D82E5D
:104C8000682FC8010E946912B8018D2D0E94BB14C3
:104C90000E94DB10182FB82EF7012581368132953E
:104CA0003F70892F82958F70C82ED12C8C3008F0E0
:104CB0006DC0F601EB50FA4C0C941A3481E00E945E
:104CC000B21203C081E00E94A51243E062E081E0DD
:104CD0000E9485121CCB82E0F6CF01303CE713071F
:104CE000D9F003304CE7140789F001151C4709F08F
:104CF000BDCF0E94621C7FEF84E39CE07150804036
:104D00009040E1F700C000000E94E3056FEF7FEFE5
:104D100090E080E00E941C350E94411FC8010E9463
:104D20002312D82EB1CF092F0F70907F11F002956A
:104D3000007F812F2223C9F0002369F090E2910FB8
:104D4000983010F011110BC080916004082B009373
:104D500060040E943B1C812F0E94A71F17C08091F6
:104D60005F04082B00935F04F4CF0E946C1F0023A4
:104D700069F00095105E183010F0B11024C08091D9
:104D800060040823009360040E943B1C38E0C31AAF
:104D9000D10844E0C416D10410F40E947F0620E03C
:104DA000D7014C9111965C91119712966C911297C4
:104DB00013967C91139714968C91149715969C9149
:104DC0000E943915A4CA80915F04082300935F04F0
:104DD000DBCF892F8F70907F903211F08295807F8A
:104DE000F1E0BF120CC0222329F0363078F60E9481
:104DF000621FCCCF353050F60E94571FC7CF2223F9
:104E000019F03323A1F3A7CF3323B1F3193349F4B6
:104E10002FEF37EE43E0215030404040E1F700C033
:104E20000000812F0E946C1FB1CF892F8695869537
:104E3000837061F0813009F0A9CF812F9370211127
:104E400002C080E090E00E943506A0CF812F9370D1
:104E5000211102C080E090E00E945A0697CF892F6E
:104E60008370A1F5211192CF812F8295869587704D
:104E7000880F880F412F4F70082E01C0440F0A94ED
:104E8000EAF7212F207114FF07C02FE030E001C0A6
:104E9000220F8A95EAF72095969596959370923011
:104EA00081F0822F842B933030F480916104913013
:104EB00029F0242B82230E94BE1268CF842B822BE0
:104EC000FACF242B809161048227F5CF8695222387
:104ED00011F0892F8170882309F458CF812F829592
:104EE00086958770880F880F412F4F70082E01C05C
:104EF000440F0A94EAF7212F207114FF07C02FE016
:104F000030E001C0220F8A95EAF720959695969594
:104F10009370923081F0822F842B933030F4809103
:104F20003D05913029F0242B82230E9482122ECF3E
:104F3000842B822BFACF242B80913D058227F5CF3D
:104F4000092F0F70222329F0802F0E94B212812F87
:104F50004ECF812F0E94571F802F0E94A51216CF7F
:104F6000812F61EF161789F1611750F070EF171755
:104F7000B9F02223B1F13111EECE892F8F7129C002
:104F8000A2EF1A1749F1B3EF1B13F3CF80E02223EE
:104F900061F29F7181E001C0880F9A95EAF7C5CF51
:104FA000222379F0353008F0F1CE292F2F7181E0DE
:104FB00090E001C0880F2A95EAF790913D05892776
:104FC000B4CF363008F0E2CEF0CF892F8F71222394
:104FD00021F20E94B212DACE892F8F712223C9F3F7
:104FE000BCCF332359F0893309F01BCFEFEFF7EE35
:104FF00023E0E150F0402040E1F711CF892F8F717D
:10500000ACCF0737BCE71B0709F458CE0837ECE7ED
:105010001E0709F062CE82E052CE0631FCE71F0780
:1050200081F7809160048A7A91E009F490E090938E
:105030003A0469E2811165E380E394E00E941B0673
:105040000E943B1C64C906312CE7120709F0A8CD69
:1050500080913A048111A2CD89E2E2E3F4E028E3F1
:1050600034E09191891303C0DF0111971C922E1730
:105070003F07B9F7E5CF3E572730310508F417CA87
:105080000338F1E71F0708F0D7CA033721E71207F3
:1050900008F0F2CB043631E7130708F07ACA073577
:1050A00041E7140708F0A3CB053561E7160708F0C0
:1050B0005ACA0B3471E7170708F07CCB033081E73D
:1050C000180708F02DCBF801E851FC47E730F1054F
:1050D00008F0EDC9EF5FF94C0C941A34F801FE5753
:1050E000E730F10568F6E85FF94C0C941A34CF9379
:1050F000DF9380915604807F09F04DC08091550464
:10510000882309F448C0E091F8065091BF06C09189
:105110005104D0915004609152047091530447E0BF
:105120005E17C9F18E2F90E0E49FF0011124E05446
:10513000F94F2481222391F1489FF001499FF00DFE
:105140001124DF01A054B94F11962C9111972C1303
:1051500025C02C912D1322C015962C911597211145
:105160001DC012962D913C91261B370B283C310512
:10517000A8F4809156048F70806180935604EA539E
:10518000F94F80818F708061808380E594E00E9478
:10519000D2200E94F211DF91CF910895FC01319647
:1051A000E770BECFA4E1B0E0E8EDF8E20C942D3456
:1051B0008C0186E0F801DE011F9601900D928A9520
:1051C000E1F7F8018481E58090E5A92E94E0B92EFD
:1051D00090915404911128C0882319F1EE20F1F028
:1051E000C8010E941615F82E8823C1F087E0F80147
:1051F000D50101900D928A95E1F780915404813098
:1052000031F480915004909151040E9409150E943C
:1052100077288F2D6496ECE00C944934C8010E94E5
:10522000D220FF24F394F5CFD080C1808280938078
:10523000F09055042091520430915304A401421B74
:10524000530BFF2009F4D9C0483C510508F092C027
:105250008823F9F29091510480915604282F207FE1
:1052600009F056C0C91214C090915004D91210C050
:10527000E11048C08F7080618093560480E594E00F
:105280000E94D22080915604F8018683F12CC1CF70
:10529000E11038C06C2D8D2D0E942F036C2D8D2DAB
:1052A0000E942F03E82E8111F1CFDF86C88A8F85F7
:1052B00098890E940915292F22952F70243058F4BF
:1052C0009F70223088F0992399F0F8019681907FA1
:1052D00079F4FE2C9ECF2A5F2F70223068F0C8012F
:1052E0000E94D220EF2CF5CF992311F0882389F367
:1052F000805E883070F3F3CF803F58F3815F833056
:1053000070F7E7CF80915604816080935604BECF3A
:10531000C91207C090915004D91203C0EE2009F4BD
:105320008DC0C8010E941615882309F477CFEE209E
:1053300009F474CF80915604803288F02091500493
:1053400030915104398728879B868A86909154042E
:105350009C871D868E87CE0108960E94D22087E00A
:10536000F801A0E5B4E001900D928A95E1F70E9462
:10537000772857CF90915604292F207F51F480E54C
:1053800094E00E94D22087E0F50111928A95E9F716
:105390007DCF882309F43DCF809151048C1110C03A
:1053A00080915004D8120CC0E1100AC09683C80145
:1053B0000E94D22087E0F50111928A95E9F729CF62
:1053C000C8010E941615882309F428CFEE2009F49D
:1053D00025CF80915604803210F2209150043091F4
:1053E00051043A8329839C828B82909154049D833B
:1053F0001E828F83CE010196B0CF483C5105D0F676
:10540000882309F40ECFFE2CEE2009F407CF8091FB
:1054100051048C1120C080915004D8121CC080917E
:10542000560480FD0FC0982F907F61F08683903FD7
:1054300031F0982F907F905F8F70892B8683C80101
:105440000E94D22087E0F801A0E5B4E001900D921F
:105450008A95E1F7DECEC8010E94161581117FCF33
:1054600080915604816080935604C8010E94D22026
:10547000D0CEABE1B0E0EFE3FAE20C9435344E8BE2
:105480005F8B688F798F8A8F9B8F192F9111109264
:105490005F041D8A86E0FE017696DE011F9601906C
:1054A0000D928A95E1F70A8D002341F021E04F85A6
:1054B000588969897A89C8010E9439150B8B1C8B20
:1054C00087E0FE013F96DE01189601900D928A95C5
:1054D000E1F7CE0108960E94D22881110CC087E026
:1054E000FE013896DE01119601900D928A95E1F742
:1054F0008C8581110BC017E08091F8069091BF0652
:10550000891331C06B96E4E00C9451342091BF06AE
:1055100030E0C9010196877099274091F806481735
:10552000190699F097E0929FD001939FB00D112436
:10553000A054B94FFE01319601900D929A95E1F772
:105540008093BF060E94F211D6CF0E94621C109277
:10555000BF061092F80687E0E0E5F4E0DF011D9257
:105560008A95E9F7C8CF819FC00111248054994FD3
:105570000E94D228882331F28091F80690E00196AB
:10558000877099278093F806B7CFA6E0B0E0EBECE0
:10559000FAE20C9435340E940F068C01809162046B
:1055A000909163048017910781F019821A820E94FA
:1055B0000F06682F49815A81792F80E090E00E9480
:1055C000392A10936304009362042696E4E00C9455
:1055D0005134A8E0B0E0EFEEFAE20C94373466EE16
:1055E0007EEF90E080E00E941C3560E082E090E079
:1055F0000E94FE3460E083E090E00E94FE3410924E
:10560000610460E074E184E090E00E941C3560E099
:1056100086E090E00E94FE346FEF87E090E00E9409
:10562000FE3440E050E0BA0188E090E00E9410357E
:1056300060E084E290E00E94FE3460E087E190E068
:105640000E94FE3460E08CE090E00E94FE3460E056
:105650008DE090E00E94FE3419821A821B821C8227
:105660001D821E821F82188648E050E068E170E0CB
:10567000CE0101960E94EE3440E050E0BA0180E293
:1056800090E00E94103580E00E9430140E9449147E
:1056900040E050E0BA018FE090E00E9410350E9497
:1056A000C20E0E947A0780913F05816080933F057A
:1056B0008FE78093010721E04FEF6FEF8AEA90E0D8
:1056C0000E94E9060E94FA122896E2E00C945334F4
:1056D0001F920F920FB60F9211242F933F934F9367
:1056E0005F936F937F938F939F93AF93BF93CF936A
:1056F000DF93EF93FF93D091E900DF708091EC008E
:10570000C82FC17080FDC0E81092E9008091F000C0
:10571000877F8093F00078940E94781C1092E900B3
:105720008091F00088608093F000CD2BCF70C09303
:10573000E900FF91EF91DF91CF91BF91AF919F91E0
:105740008F917F916F915F914F913F912F910F902A
:105750000FBE0F901F9018951F920F920FB60F92C9
:1057600011242F933F934F935F936F937F938F9366
:105770009F93AF93BF93EF93FF938091E10082FFDC
:1057800009C08091E20082FF05C08091E1008B7F1B
:105790008093E1008091DA0080FF24C08091D800DE
:1057A00080FF20C08091DA008E7F8093DA008091A4
:1057B000D90080FF9DC080E189BD82E189BD09B427
:1057C00000FEFDCF81E08093B5068091A80681118F
:1057D00009C00E9431040E9426058091E200846085
:1057E0008093E2008091E10080FF17C08091E20089
:1057F00080FF13C08091E2008E7F8093E200809151
:10580000E20080618093E2008091D8008062809302
:10581000D80019BC85E08093B5068091E10084FF33
:105820002BC08091E20084FF27C080E189BD82E126
:1058300089BD89B5982F917080FFFBCF8091D800EA
:105840008F7D8093D8008091E1008F7E8093E1006E
:105850008091E2008F7E8093E2008091E20081607F
:105860008093E2008091B606882309F447C084E063
:105870008093B5068091B5068091E10083FF27C033
:105880008091E20083FF23C08091E100877F8093B5
:10589000E10082E08093B5061092B6068091E100A7
:1058A0008E7F8093E1008091E2008E7F8093E20002
:1058B0008091E20080618093E20042E060E080E05D
:1058C0000E94F4048091F00088608093F000FF91C2
:1058D000EF91BF91AF919F918F917F916F915F9168
:1058E0004F913F912F910F900FBE0F901F901895E1
:1058F00019BC1092B5061092A80674CF8091E300EF
:1059000087FD93E09093B506B5CF78941F921FB6AC
:105910001F9211248F939F93AF93BF938091A406FE
:105920009091A506A091A606B091A7060196A11D8B
:10593000B11D8093A4069093A506A093A606B093EC
:10594000A706BF91AF919F918F911F901FBE1F908F
:1059500018951F921FB61F9211248F939F93AF9398
:10596000BF938091A306811113C08091A4069091EA
:10597000A506A091A606B091A7064196A11DB11D4E
:105980008093A4069093A506A093A606B093A706BD
:10599000BF91AF919F918F911F901FBE1F9018953F
:1059A000CDB7DEB7C954D1090FB6F894DEBF0FBE2C
:1059B000CDBF85B7806885BF85B7806885BF0E94E9
:1059C000C20E10925D0710925F0710925E0780EC86
:1059D0008093220880E697E0909324088093230820
:1059E000109221081092200810923D0710923C0757
:1059F00010923F0710923E07109241071092400705
:105A000010924307109242071092450710924407E4
:105A100010924707109246071092490710924807C4
:105A200010924B0710924A0710924D0710924C07A4
:105A300010924F0710924E07109251071092500784
:105A40001092530710925207109257071092560760
:105A500082E89FE0909339078093380784E09FE0C5
:105A6000909359078093580780EE9EE090935507D6
:105A7000809354078FED9EE090933B0780933A0705
:105A800084B7877F84BF0FB6F894A8958091600093
:105A9000886180936000109260000FBE80E890E003
:105AA0000FB6F89480936100909361000FBE81ED72
:105AB0009FE090932F0480932E040E9431040E9453
:105AC00026058091E20084608093E20078948091C2
:105AD000B5068823A1F01091E9001F709091EC00A9
